ACAM4NU
HFDTE020721
HFFXA050
HFPLTPILOT:DAVE ROLLEY             
HFGTYGLIDERTYPE:ASH-26E     
HFGIDGLIDERID:N26WD       
HFDTM100GPSDATUM:
HFRFWFIRMWAREVERSION:F2.6
HFRHWHARDWAREVERSION:300 Series Version 2
HFFTYFRTYPE:CAMBRIDGE AERO INSTRUMENTS, 302+
HFGPS:GARMIN,LVS-25,12,18000
HFPRSPRESSALTSENSOR:INTERSEMA, MS5534-AP, 20000
I033638FXA3941ENL4247REX
LCAMSBVER:5FWVER:F26300
C020721165426020721000102
C0000000N00000000WTAKEOFF     
C3939917N11145633W04SE Start  
C3845733N11223100W46Kanosh Can
C3844500N11323833W34GB Interse
C3943950N11152200W05Finish    
C0000000N00000000WLANDING     
B1852203944507N11152202WA0146001514000056000000
B1852223944507N11152202WA0146101514000052000000
B1852243944507N11152202WA0146001514000044000000
B1852263944507N11152202WA0146001514000044000000
B1852283944507N11152202WA0146101514000044000000
B1852303944507N11152202WA0146001514000040000000
B1852323944507N11152202WA0146101514000036000000
B1852343944507N11152202WA0146101514000032000000
B1852363944507N11152202WA0146101514000028000000
B1852383944507N11152202WA0146101514000028000000
B1852403944507N11152202WA0146101514000024000000
B1852423944507N11152202WA0146201514000020000000
B1852443944507N11152202WA0146101514000020000000
B1852463944507N11152202WA0146201514000024000000
B1852483944507N11152202WA0146201514000024000000
B1852503944504N11152202WA0146201514000092000000
B1852513944501N11152202WA0146301514000140000000
B1852523944497N11152203WA0146201514000192000000
B1852533944492N11152203WA0146201514000236000000
B1852543944485N11152202WA0146201514000280000000
B1852553944479N11152202WA0146201514000316000000
B1852563944472N11152202WA0146201514000344000000
B1852573944465N11152203WA0146101514000372000000
B1852583944455N11152202WA0146201514000372000000
B1852593944445N11152202WA0146201514000384000000
B1853003944435N11152202WA0146101514000388000000
B1853013944424N11152203WA0146201514000396000000
B1853023944413N11152203WA0146201515000396000000
B1853033944400N11152203WA0146201514000400000000
B1853043944387N11152203WA0146401515000408000000
B1853053944374N11152203WA0146201515000416000000
B1853063944359N11152204WA0146301515000420000000
B1853073944345N11152204WA0146401515000428000000
B1853083944329N11152204WA0146301515000428000000
B1853093944314N11152204WA0146401515000424000000
B1853103944298N11152204WA0146401515000424000000
B1853113944281N11152204WA0146401515000424000000
B1853123944266N11152204WA0146501516000408000000
B1853133944247N11152204WA0146501516000388000000
B1853143944229N11152204WA0146501516000388000000
B1853153944211N11152204WA0146501517000380000000
B1853163944193N11152203WA0146601517000364000000
B1853173944173N11152203WA0146601517000352000000
B1853183944155N11152203WA0146701517000336000000
B1853193944134N11152203WA0146701518000336000000
B1853203944115N11152203WA0146801518000328000000
B1853213944094N11152203WA0146801519000320000000
B1853223944073N11152202WA0146901519000316000000
B1853233944052N11152202WA0147001520000316000000
B1853243944032N11152203WA0147001520000316000000
B1853253944010N11152203WA0147001520000320000000
B1853263943987N11152204WA0147101520000320000000
B1853273943965N11152204WA0147101521000328000000
B1853283943942N11152204WA0147201521000328000000
B1853293943920N11152205WA0147301522000328000000
B1853303943898N11152207WA0147301523000332000000
B1853313943874N11152207WA0147501524000340000000
B1853323943851N11152207WA0147501526000344000000
B1853333943829N11152205WA0147601527000348000000
B1853343943805N11152205WA0147801529000352000000
B1853353943783N11152205WA0147901531000348000000
B1853363943760N11152204WA0148101534000348000000
B1853373943738N11152204WA0148401535000352000000
B1853383943714N11152204WA0148601537000352000000
B1853393943692N11152204WA0148801538000352000000
B1853403943670N11152204WA0149001542000348000000
B1853413943647N11152203WA0149301547000348000000
B1853423943625N11152203WA0149401549000348000000
B1853433943603N11152204WA0149701550000348000000
B1853443943581N11152203WA0149901553000340000000
B1853453943557N11152203WA0150101555000336000000
B1853463943535N11152203WA0150301558000336000000
B1853473943513N11152203WA0150601562000340000000
B1853483943490N11152203WA0150801564000340000000
B1853493943467N11152203WA0151101567000340000000
B1853503943445N11152203WA0151401570000336000000
B1853513943425N11152203WA0151601573000332000000
B1853523943402N11152203WA0151901576000332000000
B1853533943380N11152204WA0152201579000328000000
B1853543943358N11152205WA0152401581000332000000
B1853553943337N11152205WA0152601583000328000000
B1853563943315N11152204WA0152801587000328000000
B1853573943293N11152204WA0153101589000328000000
B1853583943271N11152204WA0153201590000328000000
B1853593943249N11152204WA0153601592000328000000
B1854003943228N11152204WA0153801593000332000000
B1854013943206N11152204WA0153801595000332000000
B1854023943184N11152204WA0154001598000340000000
B1854033943162N11152204WA0154301600000344000000
B1854043943140N11152204WA0154501601000348000000
B1854053943119N11152203WA0154701603000344000000
B1854063943097N11152202WA0154801605000340000000
B1854073943075N11152200WA0154901607000340000000
B1854083943054N11152200WA0155101609000340000000
B1854093943032N11152200WA0155201612000340000000
B1854103943011N11152200WA0155401615000340000000
B1854113942989N11152199WA0156001618000352000000
B1854123942968N11152199WA0156101621000356000000
B1854133942947N11152199WA0156101623000356000000
B1854143942927N11152198WA0156401627000352000000
B1854153942906N11152198WA0156801631000348000000
B1854163942884N11152196WA0157101635000344000000
B1854173942863N11152195WA0157601638000340000000
B1854183942842N11152195WA0157901640000340000000
B1854193942821N11152194WA0158101641000340000000
B1854203942801N11152192WA0158301643000336000000
B1854213942780N11152192WA0158401646000340000000
B1854223942759N11152192WA0158601647000340000000
B1854233942738N11152191WA0158801650000340000000
B1854243942717N11152191WA0159001653000344000000
B1854253942698N11152190WA0159101656000344000000
B1854263942677N11152190WA0159501659000344000000
B1854273942656N11152189WA0159801662000348000000
B1854283942637N11152189WA0160001664000344000000
B1854293942616N11152187WA0160201665000344000000
B1854303942595N11152186WA0160501665000344000000
B1854313942574N11152186WA0160601666000340000000
B1854323942554N11152186WA0160601667000340000000
B1854333942534N11152187WA0160701668000340000000
B1854343942513N11152189WA0160901669000336000000
B1854353942492N11152191WA0161101671000332000000
B1854363942472N11152195WA0161301674000336000000
B1854373942452N11152199WA0161301678000336000000
B1854383942433N11152205WA0161501682000336000000
B1854393942413N11152212WA0161801686000336000000
B1854403942394N11152221WA0162501690000340000000
B1854413942374N11152230WA0162901694000332000000
B1854423942356N11152242WA0163201695000328000000
B1854433942338N11152254WA0163301696000324000000
B1854443942320N11152267WA0163401696000328000000
B1854453942301N11152281WA0163401697000328000000
B1854463942284N11152298WA0163401697000336000000
B1854473942268N11152316WA0163401698000340000000
B1854483942252N11152335WA0163401699000340000000
B1854493942238N11152356WA0163601702000344000000
B1854503942226N11152378WA0163601704000344000000
B1854513942214N11152402WA0163801706000348000000
B1854523942204N11152426WA0164101708000352000000
B1854533942195N11152451WA0164301710000352000000
B1854543942187N11152477WA0164501711000356000000
B1854553942180N11152503WA0164601712000356000000
B1854563942175N11152530WA0164701714000352000000
B1854573942173N11152556WA0164901717000352000000
B1854583942171N11152584WA0165101720000352000000
B1854593942170N11152610WA0165301723000352000000
B1855003942170N11152637WA0165501724000352000000
B1855013942171N11152663WA0165801726000348000000
B1855023942174N11152689WA0166001728000348000000
B1855033942178N11152716WA0166301729000348000000
B1855043942182N11152742WA0166301729000344000000
B1855053942188N11152768WA0166401729000340000000
B1855063942195N11152793WA0166401730000340000000
B1855073942201N11152819WA0166401731000340000000
B1855083942208N11152845WA0166501731000344000000
B1855093942216N11152870WA0166601732000344000000
B1855103942225N11152896WA0166601732000344000000
B1855113942234N11152920WA0166601732000340000000
B1855123942243N11152945WA0166701733000340000000
B1855133942253N11152969WA0166801734000336000000
B1855143942264N11152992WA0166801735000336000000
B1855153942275N11153017WA0166801735000340000000
B1855163942287N11153040WA0166901735000340000000
B1855173942299N11153063WA0166901735000340000000
B1855183942310N11153087WA0166901735000344000000
B1855193942325N11153110WA0167101735000344000000
B1855203942338N11153134WA0167301738000340000000
B1855213942351N11153157WA0167501740000340000000
B1855223942365N11153180WA0167801741000348000000
B1855233942379N11153201WA0167901743000352000000
B1855243942394N11153223WA0167901746000352000000
B1855253942409N11153244WA0168101749000356000000
B1855263942425N11153264WA0168301751000360000000
B1855273942442N11153282WA0168601754000356000000
B1855283942459N11153300WA0168801757000352000000
B1855293942476N11153317WA0169001759000352000000
B1855303942492N11153335WA0169301762000352000000
B1855313942509N11153352WA0169501766000348000000
B1855323942528N11153369WA0169801769000348000000
B1855333942546N11153386WA0170101772000348000000
B1855343942564N11153403WA0170601776000344000000
B1855353942583N11153417WA0171001781000348000000
B1855363942602N11153434WA0171301782000356000000
B1855373942620N11153451WA0171501784000360000000
B1855383942639N11153466WA0171701786000360000000
B1855393942658N11153482WA0171801786000356000000
B1855403942677N11153496WA0172001787000356000000
B1855413942695N11153509WA0171901787000352000000
B1855423942715N11153522WA0172101787000352000000
B1855433942733N11153535WA0171901787000352000000
B1855443942754N11153546WA0172001786000356000000
B1855453942773N11153557WA0172001787000360000000
B1855463942793N11153568WA0172201788000356000000
B1855473942814N11153578WA0172301788000360000000
B1855483942833N11153589WA0172401788000364000000
B1855493942854N11153599WA0172401789000360000000
B1855503942876N11153608WA0172201787000360000000
B1855513942898N11153619WA0172001784000368000000
B1855523942920N11153628WA0171701782000368000000
B1855533942942N11153635WA0171501781000372000000
B1855543942964N11153642WA0171501781000372000000
B1855553942988N11153648WA0171801782000376000000
B1855563943010N11153655WA0172101785000380000000
B1855573943032N11153661WA0172501788000376000000
B1855583943054N11153667WA0172701792000376000000
B1855593943077N11153669WA0172901796000368000000
B1856003943098N11153672WA0173101799000368000000
B1856013943120N11153674WA0173401802000360000000
B1856023943141N11153676WA0173401805000360000000
B1856033943162N11153677WA0173601808000352000000
B1856043943183N11153677WA0173901809000344000000
B1856053943205N11153677WA0174001810000336000000
B1856063943227N11153677WA0174301809000332000000
B1856073943249N11153676WA0174301806000328000000
B1856083943271N11153673WA0174301804000328000000
B1856093943293N11153669WA0174001804000324000000
B1856103943314N11153664WA0173901804000328000000
B1856113943337N11153659WA0173701804000328000000
B1856123943360N11153655WA0173701804000324000000
B1856133943382N11153648WA0173601801000320000000
B1856143943402N11153642WA0173601799000320000000
B1856153943425N11153634WA0173301798000320000000
B1856163943447N11153626WA0173401801000324000000
B1856173943467N11153617WA0173501803000324000000
B1856183943488N11153606WA0173801804000320000000
B1856193943508N11153594WA0174101804000316000000
B1856203943529N11153580WA0174101804000316000000
B1856213943548N11153565WA0174201805000316000000
B1856223943566N11153550WA0174301807000316000000
B1856233943586N11153533WA0174301809000316000000
B1856243943604N11153516WA0174401812000320000000
B1856253943622N11153496WA0174701814000320000000
B1856263943639N11153477WA0174901817000320000000
B1856273943656N11153457WA0175201820000324000000
B1856283943674N11153437WA0175401822000328000000
B1856293943691N11153414WA0175701826000332000000
B1856303943707N11153392WA0176101831000332000000
B1856313943721N11153368WA0176401834000332000000
B1856323943737N11153343WA0176801837000332000000
B1856333943750N11153318WA0177101839000328000000
B1856343943763N11153294WA0177301841000328000000
B1856353943774N11153268WA0177601844000324000000
B1856363943786N11153242WA0177901847000328000000
B1856373943796N11153216WA0178201851000332000000
B1856383943805N11153188WA0178601856000336000000
B1856393943812N11153160WA0178601862000336000000
B1856403943818N11153132WA0178901866000332000000
B1856413943822N11153104WA0179301869000328000000
B1856423943826N11153076WA0179801873000328000000
B1856433943829N11153048WA0180101875000328000000
B1856443943831N11153019WA0180301876000332000000
B1856453943833N11152992WA0180501879000332000000
B1856463943831N11152963WA0180601882000332000000
B1856473943829N11152935WA0180801885000332000000
B1856483943825N11152907WA0181201888000324000000
B1856493943821N11152880WA0181401887000316000000
B1856503943817N11152853WA0181501888000312000000
B1856513943811N11152824WA0181701889000316000000
B1856523943804N11152797WA0181701893000316000000
B1856533943798N11152771WA0181701897000316000000
B1856543943789N11152745WA0181901899000312000000
B1856553943778N11152720WA0182001900000316000000
B1856563943766N11152697WA0182101900000320000000
B1856573943753N11152673WA0182201902000320000000
B1856583943740N11152651WA0182301904000316000000
B1856593943726N11152631WA0182401904000316000000
B1857003943712N11152610WA0182501903000308000000
B1857013943696N11152590WA0182401901000304000000
B1857023943681N11152571WA0182301899000304000000
B1857033943664N11152553WA0182301898000304000000
B1857043943647N11152536WA0182101898000304000000
B1857053943630N11152520WA0182101898000308000000
B1857063943612N11152504WA0182101898000312000000
B1857073943592N11152490WA0181901898000308000000
B1857083943573N11152478WA0181901896000312000000
B1857093943553N11152465WA0181901896000320000000
B1857103943534N11152454WA0181801896000328000000
B1857113943513N11152443WA0181801898000328000000
B1857123943491N11152434WA0181801900000328000000
B1857133943470N11152426WA0181901901000328000000
B1857143943448N11152420WA0182101903000328000000
B1857153943426N11152413WA0182501907000328000000
B1857163943404N11152407WA0182801910000340000000
B1857173943382N11152402WA0183301914000348000000
B1857183943358N11152397WA0183701917000352000000
B1857193943336N11152393WA0183901921000360000000
B1857203943314N11152390WA0184201925000356000000
B1857213943291N11152389WA0184501928000356000000
B1857223943269N11152387WA0184701930000356000000
B1857233943246N11152387WA0185101933000356000000
B1857243943223N11152387WA0185401936000356000000
B1857253943201N11152389WA0185701940000360000000
B1857263943179N11152389WA0186001943000356000000
B1857273943155N11152390WA0186101945000356000000
B1857283943133N11152393WA0186301947000352000000
B1857293943111N11152395WA0186601951000352000000
B1857303943089N11152399WA0186901955000344000000
B1857313943067N11152403WA0187301959000344000000
B1857323943045N11152407WA0187601961000340000000
B1857333943023N11152412WA0187801963000340000000
B1857343943001N11152417WA0187901965000336000000
B1857353942979N11152423WA0188101967000336000000
B1857363942957N11152428WA0188301969000332000000
B1857373942936N11152434WA0188501970000336000000
B1857383942915N11152441WA0188701972000336000000
B1857393942893N11152447WA0188901974000332000000
B1857403942872N11152452WA0189101974000332000000
B1857413942851N11152458WA0189201975000332000000
B1857423942829N11152464WA0189301976000332000000
B1857433942808N11152469WA0189401977000332000000
B1857443942786N11152476WA0189501976000332000000
B1857453942765N11152482WA0189501975000332000000
B1857463942743N11152490WA0189501975000332000000
B1857473942723N11152497WA0189301974000332000000
B1857483942702N11152504WA0189301972000336000000
B1857493942680N11152512WA0189201971000336000000
B1857503942659N11152520WA0189101970000336000000
B1857513942638N11152529WA0189101972000336000000
B1857523942617N11152538WA0189101973000340000000
B1857533942595N11152546WA0189201975000340000000
B1857543942576N11152555WA0189401975000340000000
B1857553942555N11152564WA0189501977000340000000
B1857563942534N11152573WA0189601979000336000000
B1857573942515N11152584WA0189801981000332000000
B1857583942495N11152594WA0190001983000328000000
B1857593942476N11152605WA0190301986000320000000
B1858003942455N11152614WA0190501988000324000000
B1858013942435N11152623WA0190701990000324000000
B1858023942414N11152631WA0191001991000324000000
B1858033942394N11152638WA0191201992000320000000
B1858043942373N11152645WA0191201992000320000000
B1858053942352N11152650WA0191301992000320000000
B1858063942331N11152653WA0191301992000312000000
B1858073942309N11152655WA0191301992000300000000
B1858083942288N11152658WA0191301993000300000000
B1858093942266N11152658WA0191401995000300000000
B1858103942244N11152658WA0191501997000304000000
B1858113942222N11152657WA0191701998000304000000
B1858123942200N11152655WA0191902000000300000000
B1858133942178N11152654WA0192002003000308000000
B1858143942157N11152653WA0192302006000308000000
B1858153942135N11152649WA0192402008000304000000
B1858163942113N11152647WA0192602008000312000000
B1858173942091N11152642WA0192602008000316000000
B1858183942067N11152640WA0192702010000316000000
B1858193942045N11152637WA0192702012000316000000
B1858203942023N11152636WA0192802014000320000000
B1858213942000N11152632WA0192902018000320000000
B1858223941979N11152628WA0193302022000328000000
B1858233941957N11152621WA0193602026000328000000
B1858243941936N11152615WA0193902027000332000000
B1858253941914N11152607WA0194302028000332000000
B1858263941893N11152599WA0194502030000332000000
B1858273941874N11152589WA0194702035000328000000
B1858283941853N11152579WA0194902040000328000000
B1858293941833N11152567WA0195202044000328000000
B1858303941814N11152555WA0195602048000328000000
B1858313941793N11152545WA0195902051000332000000
B1858323941774N11152532WA0196202053000332000000
B1858333941754N11152519WA0196502055000328000000
B1858343941736N11152507WA0196602054000324000000
B1858353941716N11152495WA0196802055000324000000
B1858363941698N11152481WA0197002058000316000000
B1858373941680N11152467WA0197302059000316000000
B1858383941662N11152451WA0197402060000316000000
B1858393941645N11152436WA0197402060000316000000
B1858403941628N11152419WA0197402062000312000000
B1858413941611N11152400WA0197602064000312000000
B1858423941594N11152382WA0197802064000312000000
B1858433941579N11152363WA0198002064000312000000
B1858443941563N11152345WA0198102064000312000000
B1858453941547N11152325WA0198102066000312000000
B1858463941532N11152306WA0198102068000304000000
B1858473941517N11152286WA0198102069000304000000
B1858483941503N11152265WA0198302070000304000000
B1858493941490N11152246WA0198502071000300000000
B1858503941476N11152224WA0198602071000300000000
B1858513941463N11152203WA0198602071000300000000
B1858523941450N11152182WA0198502071000300000000
B1858533941436N11152161WA0198502070000300000000
B1858543941421N11152140WA0198302069000292000000
B1858553941406N11152121WA0198102068000292000000
B1858563941390N11152103WA0198102068000292000000
B1858573941374N11152083WA0198302070000292000000
B1858583941360N11152061WA0198502072000296000000
B1858593941346N11152039WA0198802075000304000000
B1859003941334N11152014WA0199002076000304000000
B1859013941322N11151990WA0199102077000308000000
B1859023941311N11151964WA0199102078000308000000
B1859033941300N11151936WA0199202079000312000000
B1859043941293N11151909WA0199202080000312000000
B1859053941285N11151879WA0199302081000316000000
B1859063941278N11151851WA0199302082000316000000
B1859073941274N11151819WA0199402083000308000000
B1859083941272N11151789WA0199502084000308000000
B1859093941270N11151758WA0199602086000304000000
B1859103941272N11151727WA0199902088000304000000
B1859113941276N11151697WA0200102090000300000000
B1859123941280N11151666WA0200402090000296000000
B1859133941286N11151636WA0200602091000296000000
B1859143941295N11151607WA0200702091000300000000
B1859153941306N11151580WA0200802093000300000000
B1859163941317N11151553WA0200902094000300000000
B1859173941329N11151526WA0201002096000300000000
B1859183941343N11151501WA0201102098000300000000
B1859193941359N11151476WA0201302099000300000000
B1859203941376N11151454WA0201502101000300000000
B1859213941394N11151433WA0201702102000308000000
B1859223941415N11151414WA0201602102000312000000
B1859233941436N11151397WA0201502101000316000000
B1859243941458N11151383WA0201502100000324000000
B1859253941481N11151370WA0201502100000324000000
B1859263941504N11151359WA0201502100000324000000
B1859273941529N11151354WA0201502100000324000000
B1859283941554N11151351WA0201402100000328000000
B1859293941579N11151350WA0201302101000320000000
B1859303941603N11151351WA0201302102000316000000
B1859313941627N11151355WA0201302103000320000000
B1859323941650N11151360WA0201402106000316000000
B1859333941672N11151367WA0201602108000312000000
B1859343941694N11151377WA0201802111000312000000
B1859353941716N11151389WA0202002112000308000000
B1859363941737N11151403WA0202302114000304000000
B1859373941757N11151419WA0202502116000304000000
B1859383941775N11151436WA0202702118000304000000
B1859393941794N11151455WA0202902118000304000000
B1859403941811N11151474WA0203102119000304000000
B1859413941829N11151494WA0203302121000304000000
B1859423941846N11151515WA0203502124000304000000
B1859433941862N11151537WA0203702128000304000000
B1859443941876N11151562WA0203802130000304000000
B1859453941891N11151587WA0204002130000304000000
B1859463941904N11151614WA0204102130000304015000
B1859473941917N11151640WA0204202133000304015000
B1859483941930N11151667WA0204302136000308015000
B1859493941940N11151695WA0204502138000312000000
B1859503941952N11151722WA0204602139000308000000
B1859513941965N11151748WA0204702140000312000000
B1859523941976N11151774WA0204702141000312000000
B1859533941991N11151800WA0204802142000316000000
B1859543942004N11151825WA0204902144000316000000
B1859553942017N11151851WA0205202146000320000000
B1859563942030N11151877WA0205502150000316000000
B1859573942043N11151903WA0205702152000316000000
B1859583942056N11151929WA0206102154000316000000
B1859593942067N11151955WA0206302156000316000000
B1900003942080N11151982WA0206302158000316000000
B1900013942092N11152009WA0206502161000316000000
B1900023942104N11152035WA0206702164000320000000
B1900033942115N11152061WA0206902166000324000000
B1900043942128N11152086WA0207002168000324000000
B1900053942141N11152111WA0207102171000320000000
B1900063942154N11152135WA0207302173000312000000
B1900073942167N11152159WA0207502177000312000000
B1900083942180N11152185WA0207802180000312000000
B1900093942192N11152209WA0208202183000308000000
B1900103942204N11152234WA0208402186000308000000
B1900113942216N11152260WA0208502187000308000000
B1900123942229N11152285WA0208702188000308000000
B1900133942240N11152311WA0208702187000304000000
B1900143942251N11152334WA0208802192000312000000
B1900153942262N11152358WA0209102198000300000000
B1900163942273N11152380WA0209402201000336000000
B1900173942286N11152400WA0209602203000336000000
B1900183942297N11152420WA0209602204000336000000
B1900193942312N11152438WA0209702207000316000000
B1900203942327N11152452WA0209902210000300000000
B1900213942344N11152463WA0210302211000280000000
B1900223942362N11152471WA0210402212000264000000
B1900233942379N11152478WA0210602213000244000000
B1900243942396N11152486WA0210602213000236000000
B1900253942413N11152497WA0210702214000224000000
B1900263942427N11152508WA0210802216000212000000
B1900273942439N11152523WA0211102218000200000000
B1900283942450N11152540WA0211002217000200000000
B1900293942456N11152556WA0211102216000192000000
B1900303942461N11152576WA0210902213000188000000
B1900313942463N11152597WA0210702212000180000000
B1900323942460N11152618WA0210702212000176000000
B1900333942455N11152637WA0210602212000172000000
B1900343942447N11152654WA0210702212000172000000
B1900353942437N11152671WA0210902212000168000000
B1900363942425N11152685WA0210902214000164000000
B1900373942412N11152698WA0211202216000164000000
B1900383942399N11152711WA0211302217000164000000
B1900393942385N11152723WA0211302218000164000000
B1900403942370N11152733WA0211402219000164000000
B1900413942356N11152744WA0211602220000168000000
B1900423942343N11152754WA0211602222000168000000
B1900433942327N11152764WA0211802223000164000000
B1900443942313N11152772WA0211802226000164000000
B1900453942297N11152777WA0212002230000160000000
B1900463942282N11152781WA0212202233000160000000
B1900473942265N11152781WA0212502235000156000000
B1900483942249N11152779WA0212702236000160000000
B1900493942232N11152774WA0213002236000160000000
B1900503942217N11152764WA0213102237000156000000
B1900513942203N11152751WA0213202238000156000000
B1900523942190N11152736WA0213302239000156000000
B1900533942178N11152718WA0213402241000152000000
B1900543942169N11152697WA0213602244000152000000
B1900553942161N11152676WA0213702244000152000000
B1900563942156N11152653WA0213802244000152000000
B1900573942154N11152629WA0213902244000148000000
B1900583942154N11152606WA0213902243000148000000
B1900593942158N11152581WA0213902243000148000000
B1901003942164N11152559WA0213802242000148000000
B1901013942173N11152537WA0213802242000144000000
B1901023942184N11152517WA0213702241000144000000
B1901033942197N11152502WA0213702241000144000000
B1901043942213N11152488WA0213702241000140000000
B1901053942230N11152478WA0213702241000136000000
B1901063942247N11152472WA0213702241000132000000
B1901073942265N11152472WA0213502240000132000000
B1901083942283N11152476WA0213402239000136000000
B1901093942299N11152484WA0213502238000136000000
B1901103942312N11152497WA0213302237000136000000
B1901113942323N11152512WA0213302236000136000000
B1901123942330N11152532WA0213202235000136000000
B1901133942334N11152551WA0213202235000140000000
B1901143942334N11152572WA0213202236000140000000
B1901153942331N11152592WA0213202236000140000000
B1901163942323N11152610WA0213202237000144000000
B1901173942314N11152625WA0213302237000144000000
B1901183942303N11152638WA0213302238000148000000
B1901193942290N11152649WA0213402239000148000000
B1901203942274N11152655WA0213502239000148000000
B1901213942258N11152660WA0213602240000152000000
B1901223942243N11152664WA0213702241000148000000
B1901233942227N11152668WA0213802243000148000000
B1901243942212N11152670WA0213902246000148000000
B1901253942195N11152671WA0214002248000148000000
B1901263942179N11152668WA0214202249000148000000
B1901273942162N11152664WA0214302250000148000000
B1901283942147N11152657WA0214502250000148000000
B1901293942131N11152646WA0214502249000148000000
B1901303942118N11152633WA0214502249000148000000
B1901313942105N11152619WA0214402247000144000000
B1901323942095N11152601WA0214302245000140000000
B1901333942086N11152581WA0214202242000136000000
B1901343942080N11152559WA0214002240000136000000
B1901353942078N11152536WA0213902238000136000000
B1901363942080N11152511WA0213702237000136000000
B1901373942086N11152486WA0213602237000136000000
B1901383942095N11152464WA0213602237000136000000
B1901393942108N11152446WA0213602237000140000000
B1901403942123N11152430WA0213602236000140000000
B1901413942141N11152420WA0213602235000144000000
B1901423942161N11152415WA0213602234000148000000
B1901433942180N11152416WA0213602234000156000000
B1901443942200N11152423WA0213602234000156000000
B1901453942217N11152433WA0213702236000160000000
B1901463942232N11152446WA0213702237000160000000
B1901473942248N11152462WA0213602235000164000000
B1901483942261N11152478WA0213502233000160000000
B1901493942271N11152498WA0213402231000160000000
B1901503942282N11152519WA0213202229000160000000
B1901513942290N11152541WA0213102229000156000000
B1901523942295N11152564WA0213102229000156000000
B1901533942297N11152588WA0213002230000160000000
B1901543942299N11152612WA0213002231000160000000
B1901553942297N11152636WA0213102232000160000000
B1901563942295N11152658WA0213202233000160000000
B1901573942290N11152680WA0213202234000156000000
B1901583942282N11152702WA0213302235000156000000
B1901593942273N11152722WA0213502237000156000000
B1902003942262N11152740WA0213602238000156000000
B1902013942251N11152757WA0213602239000156000000
B1902023942236N11152771WA0213702241000156000000
B1902033942221N11152783WA0213802243000156000000
B1902043942204N11152790WA0214002245000160000000
B1902053942186N11152794WA0214202247000164000000
B1902063942166N11152793WA0214402249000168000000
B1902073942148N11152787WA0214702250000168000000
B1902083942131N11152776WA0214802251000168000000
B1902093942115N11152762WA0215002251000164000000
B1902103942101N11152745WA0215002251000164000000
B1902113942091N11152723WA0215102251000164000000
B1902123942084N11152698WA0215202253000168000000
B1902133942080N11152672WA0215302255000172000000
B1902143942082N11152646WA0215302256000172000000
B1902153942084N11152620WA0215502257000176000000
B1902163942092N11152595WA0215602258000172000000
B1902173942101N11152573WA0215702258000168000000
B1902183942114N11152554WA0215702258000164000000
B1902193942130N11152537WA0215702257000164000000
B1902203942147N11152525WA0215602257000164000000
B1902213942165N11152517WA0215502257000164000000
B1902223942184N11152516WA0215502256000164000000
B1902233942204N11152519WA0215502255000164000000
B1902243942223N11152525WA0215502255000164000000
B1902253942240N11152536WA0215402254000168000000
B1902263942257N11152549WA0215402254000168000000
B1902273942271N11152564WA0215402253000168000000
B1902283942283N11152582WA0215302253000176000000
B1902293942294N11152603WA0215302254000180000000
B1902303942300N11152625WA0215402255000188000000
B1902313942304N11152647WA0215502257000196000000
B1902323942307N11152671WA0215502258000196000000
B1902333942308N11152693WA0215702260000200000000
B1902343942308N11152715WA0215902262000208000000
B1902353942308N11152737WA0216202265000208000000
B1902363942308N11152759WA0216302268000208000000
B1902373942307N11152781WA0216502271000208000000
B1902383942303N11152802WA0216602273000208000000
B1902393942297N11152823WA0216802276000204000000
B1902403942290N11152842WA0217102281000196000000
B1902413942279N11152859WA0217502286000184000000
B1902423942266N11152875WA0217902291000184000000
B1902433942252N11152885WA0218502296000180000000
B1902443942236N11152893WA0219002299000176000000
B1902453942221N11152896WA0219302302000168000000
B1902463942203N11152894WA0219602304000168000000
B1902473942186N11152889WA0219802305000172000000
B1902483942170N11152879WA0219902307000180000000
B1902493942154N11152866WA0220102309000184000000
B1902503942141N11152848WA0220302310000184000000
B1902513942132N11152827WA0220302308000184000000
B1902523942126N11152802WA0220402307000184000000
B1902533942125N11152776WA0220302306000184000000
B1902543942127N11152750WA0220302307000184000000
B1902553942135N11152725WA0220202308000188000000
B1902563942147N11152703WA0220302309000188000000
B1902573942160N11152684WA0220502312000192000000
B1902583942175N11152666WA0220602313000196000000
B1902593942192N11152651WA0220702314000200000000
B1903003942210N11152641WA0220702314000200000000
B1903013942231N11152633WA0220802315000200000000
B1903023942251N11152629WA0220802316000200000000
B1903033942271N11152629WA0220902317000200000000
B1903043942291N11152634WA0221002320000200000000
B1903053942309N11152644WA0221202325000208000000
B1903063942325N11152657WA0221502329000200000000
B1903073942336N11152673WA0221902334000196000000
B1903083942346N11152693WA0222402339000192000000
B1903093942352N11152714WA0223002344000192000000
B1903103942353N11152735WA0223302349000188000000
B1903113942351N11152755WA0223902354000180000000
B1903123942346N11152774WA0224202357000172000000
B1903133942336N11152790WA0224502359000172000000
B1903143942323N11152803WA0224902362000168000000
B1903153942309N11152813WA0225202365000164000000
B1903163942292N11152815WA0225602369000164000000
B1903173942275N11152814WA0226002373000164000000
B1903183942258N11152809WA0226402377000164000000
B1903193942243N11152800WA0226702379000164000000
B1903203942229N11152788WA0226902381000160000000
B1903213942216N11152771WA0227002382000152000000
B1903223942205N11152753WA0227202384000148000000
B1903233942197N11152732WA0227302386000148000000
B1903243942191N11152710WA0227502388000160000000
B1903253942188N11152688WA0227702390000164000000
B1903263942187N11152664WA0227902391000172000000
B1903273942188N11152641WA0228002391000180000000
B1903283942193N11152618WA0228002390000188000000
B1903293942201N11152595WA0227902389000192000000
B1903303942212N11152575WA0227802389000196000000
B1903313942226N11152558WA0227902389000200000000
B1903323942242N11152543WA0228002391000200000000
B1903333942260N11152534WA0228002392000200000000
B1903343942278N11152529WA0228202393000200000000
B1903353942297N11152528WA0228202393000200000000
B1903363942316N11152532WA0228202393000200000000
B1903373942334N11152541WA0228302393000196000000
B1903383942349N11152554WA0228402394000200000000
B1903393942362N11152571WA0228402396000208000000
B1903403942372N11152590WA0228502399000208000000
B1903413942378N11152612WA0228702403000212000000
B1903423942379N11152634WA0229002407000212000000
B1903433942378N11152657WA0229302411000204000000
B1903443942374N11152677WA0229702414000204000000
B1903453942366N11152697WA0230102417000200000000
B1903463942356N11152716WA0230402420000192000000
B1903473942344N11152732WA0230702424000188000000
B1903483942331N11152748WA0231002427000184000000
B1903493942316N11152761WA0231402430000180000000
B1903503942300N11152770WA0231802431000180000000
B1903513942283N11152776WA0232002433000180000000
B1903523942265N11152779WA0232202435000188000000
B1903533942247N11152777WA0232302438000192000000
B1903543942229N11152772WA0232302441000192000000
B1903553942212N11152763WA0232502442000196000000
B1903563942195N11152751WA0232702443000204000000
B1903573942180N11152736WA0232802442000204000000
B1903583942167N11152715WA0232702442000200000000
B1903593942157N11152693WA0232802444000204000000
B1904003942151N11152668WA0232902445000200000000
B1904013942145N11152642WA0233102447000200000000
B1904023942145N11152616WA0233302448000204000000
B1904033942148N11152589WA0233502450000208000000
B1904043942154N11152564WA0233602452000208000000
B1904053942165N11152540WA0233802455000212000000
B1904063942177N11152519WA0234002457000216000000
B1904073942192N11152502WA0234302459000208000000
B1904083942208N11152488WA0234402460000208000000
B1904093942226N11152477WA0234502461000208000000
B1904103942245N11152472WA0234802462000208000000
B1904113942265N11152469WA0234802463000208000000
B1904123942284N11152472WA0234802464000208000000
B1904133942303N11152478WA0234802464000208000000
B1904143942320N11152489WA0234902465000208000000
B1904153942335N11152503WA0235002467000208000000
B1904163942348N11152519WA0235202469000212000000
B1904173942359N11152538WA0235302472000216000000
B1904183942366N11152559WA0235502475000212000000
B1904193942372N11152581WA0235902478000208000000
B1904203942373N11152603WA0236202483000196000000
B1904213942373N11152627WA0236702487000192000000
B1904223942369N11152647WA0237102490000184000000
B1904233942361N11152667WA0237402492000176000000
B1904243942351N11152685WA0237702495000176000000
B1904253942339N11152699WA0237802497000176000000
B1904263942323N11152710WA0238002498000180000000
B1904273942308N11152718WA0238102499000180000000
B1904283942291N11152719WA0238202499000184000000
B1904293942273N11152716WA0238202498000188000000
B1904303942256N11152709WA0238102496000188000000
B1904313942239N11152696WA0238002493000184000000
B1904323942225N11152679WA0237802490000184000000
B1904333942210N11152657WA0237702489000196000000
B1904343942200N11152632WA0237702490000200000000
B1904353942192N11152606WA0237702494000200000000
B1904363942187N11152579WA0238002497000204000000
B1904373942186N11152550WA0238302500000208000000
B1904383942187N11152523WA0238502503000212000000
B1904393942193N11152497WA0238702505000208000000
B1904403942204N11152473WA0238802505000212000000
B1904413942217N11152451WA0238802504000212000000
B1904423942234N11152434WA0238702501000208000000
B1904433942252N11152421WA0238502499000212000000
B1904443942274N11152415WA0238402496000216000000
B1904453942295N11152416WA0238002494000216000000
B1904463942317N11152425WA0238002492000216000000
B1904473942335N11152439WA0238202494000216000000
B1904483942349N11152459WA0238502499000220000000
B1904493942360N11152481WA0239202508000212000000
B1904503942364N11152503WA0240002520000208000000
B1904513942366N11152524WA0240802529000200000000
B1904523942364N11152545WA0240802535000200000000
B1904533942360N11152566WA0242002538000184000000
B1904543942352N11152584WA0242102541000176000000
B1904553942343N11152599WA0242102543000176000000
B1904563942330N11152614WA0242302546000176000000
B1904573942316N11152623WA0242502548000176000000
B1904583942299N11152629WA0242702548000180000000
B1904593942282N11152632WA0242802548000184000000
B1905003942265N11152629WA0243002548000184000000
B1905013942247N11152621WA0243002547000192000000
B1905023942230N11152610WA0242902546000196000000
B1905033942214N11152592WA0242902548000200000000
B1905043942203N11152571WA0242902551000196000000
B1905053942192N11152547WA0243002553000192000000
B1905063942186N11152521WA0243302554000192000000
B1905073942183N11152494WA0243502554000200000000
B1905083942184N11152468WA0243502555000200000000
B1905093942190N11152441WA0243702556000200000000
B1905103942197N11152417WA0243702558000200000000
B1905113942210N11152395WA0243802560000204000000
B1905123942226N11152378WA0244102561000204000000
B1905133942243N11152365WA0244102561000200000000
B1905143942261N11152359WA0244202560000204000000
B1905153942282N11152356WA0244202560000200000000
B1905163942300N11152360WA0244102560000200000000
B1905173942318N11152369WA0244102562000192000000
B1905183942334N11152384WA0244302564000184000000
B1905193942347N11152399WA0244502566000188000000
B1905203942357N11152419WA0244602566000192000000
B1905213942364N11152441WA0244802567000188000000
B1905223942368N11152464WA0244902570000188000000
B1905233942368N11152488WA0245102576000184000000
B1905243942362N11152510WA0245502583000184000000
B1905253942355N11152529WA0246102590000180000000
B1905263942343N11152545WA0246802595000180000000
B1905273942331N11152559WA0247202597000176000000
B1905283942316N11152568WA0247402598000172000000
B1905293942299N11152573WA0247602599000180000000
B1905303942281N11152573WA0247702602000188000000
B1905313942262N11152567WA0247902604000192000000
B1905323942244N11152554WA0248102605000196000000
B1905333942229N11152538WA0248302605000196000000
B1905343942216N11152517WA0248302606000196000000
B1905353942205N11152491WA0248402606000204000000
B1905363942199N11152465WA0248602609000204000000
B1905373942197N11152437WA0248602612000204000000
B1905383942197N11152411WA0248702616000208000000
B1905393942203N11152384WA0249002620000212000000
B1905403942209N11152360WA0249502625000208000000
B1905413942218N11152338WA0249802629000212000000
B1905423942230N11152319WA0250102631000212000000
B1905433942243N11152302WA0250402632000212000000
B1905443942258N11152287WA0250602631000212000000
B1905453942274N11152277WA0250502629000208000000
B1905463942292N11152269WA0250502628000208000000
B1905473942310N11152267WA0250402628000208000000
B1905483942329N11152268WA0250302629000208000000
B1905493942346N11152273WA0250302630000204000000
B1905503942361N11152285WA0250402632000200000000
B1905513942374N11152299WA0250502633000196000000
B1905523942385N11152316WA0250602633000192000000
B1905533942391N11152335WA0250602632000196000000
B1905543942395N11152356WA0250702633000196000000
B1905553942395N11152378WA0250702634000192000000
B1905563942391N11152399WA0250902638000188000000
B1905573942383N11152419WA0251202642000188000000
B1905583942372N11152434WA0251602648000184000000
B1905593942359N11152447WA0252002652000176000000
B1906003942346N11152456WA0252302655000176000000
B1906013942330N11152464WA0252502657000176000000
B1906023942314N11152468WA0252602657000176000000
B1906033942297N11152469WA0252802657000180000000
B1906043942281N11152467WA0252802657000180000000
B1906053942264N11152460WA0252702657000184000000
B1906063942247N11152449WA0252602658000192000000
B1906073942232N11152434WA0252702659000192000000
B1906083942219N11152416WA0252802661000196000000
B1906093942209N11152394WA0253002663000196000000
B1906103942201N11152372WA0253102665000200000000
B1906113942196N11152347WA0253302664000204000000
B1906123942193N11152322WA0253302662000208000000
B1906133942193N11152298WA0253102661000204000000
B1906143942197N11152272WA0253002660000204000000
B1906153942204N11152248WA0253002661000204000000
B1906163942213N11152226WA0253002663000200000000
B1906173942226N11152208WA0253002665000200000000
B1906183942242N11152192WA0253202667000200000000
B1906193942258N11152181WA0253302669000204000000
B1906203942275N11152173WA0253602670000204000000
B1906213942295N11152170WA0253702670000208000000
B1906223942313N11152172WA0253802670000208000000
B1906233942330N11152179WA0253902671000216000000
B1906243942346N11152191WA0253902672000212000000
B1906253942359N11152207WA0254002674000212000000
B1906263942369N11152225WA0254202675000212000000
B1906273942375N11152246WA0254302675000212000000
B1906283942378N11152268WA0254402674000212000000
B1906293942378N11152289WA0254502674000208000000
B1906303942373N11152311WA0254402673000208000000
B1906313942365N11152330WA0254402673000204000000
B1906323942353N11152348WA0254402673000208000000
B1906333942339N11152363WA0254402674000204000000
B1906343942322N11152372WA0254402676000204000000
B1906353942304N11152377WA0254702679000204000000
B1906363942286N11152377WA0254902682000208000000
B1906373942268N11152372WA0255102684000208000000
B1906383942249N11152363WA0255302684000208000000
B1906393942234N11152350WA0255402684000204000000
B1906403942219N11152334WA0255302683000204000000
B1906413942208N11152313WA0255302683000208000000
B1906423942199N11152290WA0255302684000208000000
B1906433942195N11152265WA0255302684000208000000
B1906443942193N11152239WA0255302684000204000000
B1906453942197N11152215WA0255402684000204000000
B1906463942204N11152190WA0255402684000200000000
B1906473942214N11152169WA0255502686000200000000
B1906483942229N11152151WA0255502688000200000000
B1906493942244N11152137WA0255702691000200000000
B1906503942262N11152127WA0255902694000204000000
B1906513942281N11152122WA0255902698000204000000
B1906523942297N11152122WA0256202702000204000000
B1906533942314N11152126WA0256702705000204000000
B1906543942330N11152134WA0257002707000204000000
B1906553942344N11152146WA0257302709000204000000
B1906563942356N11152160WA0257502711000200000000
B1906573942365N11152177WA0257602712000200000000
B1906583942372N11152194WA0257802713000204000000
B1906593942375N11152213WA0257802713000204000000
B1907003942377N11152233WA0257902712000204000000
B1907013942374N11152254WA0257902712000200000000
B1907023942370N11152273WA0257802711000196000000
B1907033942361N11152291WA0257802711000200000000
B1907043942351N11152308WA0257802710000204000000
B1907053942338N11152322WA0257702709000204000000
B1907063942322N11152333WA0257702709000208000000
B1907073942305N11152339WA0257702710000208000000
B1907083942287N11152342WA0257802713000204000000
B1907093942269N11152343WA0258002717000204000000
B1907103942251N11152339WA0258402723000200000000
B1907113942234N11152334WA0258702727000192000000
B1907123942218N11152325WA0259102730000192000000
B1907133942203N11152312WA0259402732000196000000
B1907143942190N11152296WA0259502733000200000000
B1907153942179N11152278WA0259702732000200000000
B1907163942170N11152259WA0259702731000204000000
B1907173942165N11152235WA0259702729000204000000
B1907183942162N11152212WA0259402728000200000000
B1907193942164N11152187WA0259302727000200000000
B1907203942169N11152164WA0259302728000200000000
B1907213942177N11152140WA0259302729000200000000
B1907223942187N11152121WA0259402730000200000000
B1907233942201N11152103WA0259502731000196000000
B1907243942217N11152088WA0259502731000192000000
B1907253942234N11152077WA0259702731000192000000
B1907263942252N11152069WA0259502731000192000000
B1907273942270N11152065WA0259502731000188000000
B1907283942290N11152064WA0259602732000192000000
B1907293942308N11152068WA0259602733000192000000
B1907303942326N11152074WA0259602735000192000000
B1907313942342N11152085WA0259902736000196000000
B1907323942357N11152096WA0259902737000200000000
B1907333942372N11152111WA0260002738000204000000
B1907343942383N11152127WA0260202738000208000000
B1907353942394N11152146WA0260202740000208000000
B1907363942400N11152166WA0260302742000208000000
B1907373942405N11152187WA0260502744000204000000
B1907383942409N11152209WA0260602747000200000000
B1907393942409N11152231WA0260802750000200000000
B1907403942408N11152252WA0261002752000200000000
B1907413942403N11152273WA0261202754000208000000
B1907423942396N11152294WA0261502756000212000000
B1907433942388N11152312WA0261702756000208000000
B1907443942378N11152329WA0261802757000200000000
B1907453942364N11152342WA0261902759000192000000
B1907463942349N11152352WA0262002762000188000000
B1907473942331N11152358WA0262202766000184000000
B1907483942314N11152358WA0262602771000180000000
B1907493942296N11152355WA0263002776000176000000
B1907503942278N11152350WA0263402779000176000000
B1907513942262N11152341WA0263702782000168000000
B1907523942247N11152329WA0264002786000164000000
B1907533942232N11152313WA0264302789000164000000
B1907543942221N11152295WA0264502792000168000000
B1907553942210N11152276WA0264902794000176000000
B1907563942203N11152254WA0265102794000184000000
B1907573942197N11152231WA0265202795000184000000
B1907583942196N11152208WA0265302795000188000000
B1907593942197N11152185WA0265302794000192000000
B1908003942200N11152161WA0265302793000192000000
B1908013942206N11152138WA0265202792000192000000
B1908023942217N11152117WA0265202791000192000000
B1908033942229N11152098WA0265202791000192000000
B1908043942243N11152081WA0264902790000192000000
B1908053942260N11152068WA0264902791000196000000
B1908063942278N11152057WA0264902791000196000000
B1908073942296N11152049WA0265102792000200000000
B1908083942316N11152047WA0265102793000204000000
B1908093942335N11152046WA0265302793000204000000
B1908103942353N11152049WA0265302793000204000000
B1908113942372N11152057WA0265302793000204000000
B1908123942388N11152068WA0265302793000208000000
B1908133942403N11152083WA0265402795000212000000
B1908143942414N11152100WA0265502799000216000000
B1908153942424N11152120WA0265702803000216000000
B1908163942429N11152140WA0265902806000212000000
B1908173942431N11152163WA0266202809000204000000
B1908183942433N11152183WA0266502811000200000000
B1908193942430N11152204WA0266802812000200000000
B1908203942425N11152225WA0267002813000200000000
B1908213942417N11152243WA0267202814000200000000
B1908223942407N11152260WA0267302815000196000000
B1908233942394N11152274WA0267502818000196000000
B1908243942378N11152285WA0267702821000200000000
B1908253942362N11152293WA0267902824000200000000
B1908263942346N11152296WA0268202825000200000000
B1908273942327N11152296WA0268302826000204000000
B1908283942309N11152293WA0268402826000200000000
B1908293942292N11152285WA0268402826000204000000
B1908303942275N11152273WA0268302825000208000000
B1908313942260N11152259WA0268302825000208000000
B1908323942247N11152241WA0268302825000212000000
B1908333942236N11152218WA0268302825000216000000
B1908343942227N11152195WA0268302825000216000000
B1908353942222N11152170WA0268402825000216000000
B1908363942219N11152144WA0268402825000212000000
B1908373942219N11152118WA0268402825000212000000
B1908383942223N11152094WA0268402825000208000000
B1908393942231N11152068WA0268402824000208000000
B1908403942242N11152046WA0268302824000208000000
B1908413942255N11152025WA0268302822000208000000
B1908423942270N11152007WA0268202821000208000000
B1908433942288N11151994WA0268102821000208000000
B1908443942308N11151984WA0268102822000204000000
B1908453942329N11151981WA0268202823000208000000
B1908463942348N11151981WA0268202825000208000000
B1908473942368N11151986WA0268402826000208000000
B1908483942386N11151995WA0268502826000216000000
B1908493942403N11152008WA0268602827000220000000
B1908503942417N11152023WA0268702828000228000000
B1908513942427N11152043WA0268802829000232000000
B1908523942435N11152065WA0268902831000232000000
B1908533942439N11152087WA0269102833000236000000
B1908543942439N11152111WA0269302836000232000000
B1908553942435N11152131WA0269402839000228000000
B1908563942429N11152152WA0269602841000224000000
B1908573942418N11152170WA0269702843000224000000
B1908583942407N11152186WA0269902844000216000000
B1908593942392N11152199WA0270202846000212000000
B1909003942378N11152209WA0270402847000208000000
B1909013942361N11152217WA0270502848000208000000
B1909023942344N11152225WA0270602850000208000000
B1909033942329N11152231WA0270702851000204000000
B1909043942312N11152237WA0270802853000200000000
B1909053942295N11152239WA0270902855000204000000
B1909063942278N11152239WA0271102857000208000000
B1909073942260N11152237WA0271202857000208000000
B1909083942243N11152231WA0271202856000208000000
B1909093942227N11152222WA0271102855000204000000
B1909103942212N11152209WA0270902854000200000000
B1909113942197N11152192WA0270802853000196000000
B1909123942186N11152174WA0270702851000196000000
B1909133942177N11152152WA0270602850000188000000
B1909143942170N11152130WA0270602848000188000000
B1909153942166N11152104WA0270602847000192000000
B1909163942166N11152078WA0270502846000196000000
B1909173942170N11152053WA0270402846000196000000
B1909183942178N11152030WA0270402848000196000000
B1909193942188N11152008WA0270502850000196000000
B1909203942201N11151990WA0270502852000200000000
B1909213942217N11151975WA0270702854000196000000
B1909223942234N11151965WA0270802854000192000000
B1909233942253N11151958WA0270902853000192000000
B1909243942273N11151957WA0270902853000196000000
B1909253942291N11151960WA0271002853000200000000
B1909263942309N11151968WA0270902853000204000000
B1909273942326N11151979WA0271002854000204000000
B1909283942340N11151995WA0271002854000208000000
B1909293942352N11152012WA0271002856000208000000
B1909303942361N11152033WA0271102857000204000000
B1909313942366N11152055WA0271202860000196000000
B1909323942369N11152077WA0271402864000200000000
B1909333942366N11152099WA0271602867000200000000
B1909343942362N11152120WA0271902871000200000000
B1909353942353N11152138WA0272202873000200000000
B1909363942343N11152155WA0272502874000204000000
B1909373942331N11152170WA0272702875000192000000
B1909383942317N11152181WA0272902876000184000000
B1909393942301N11152189WA0273002876000184000000
B1909403942284N11152194WA0273002875000188000000
B1909413942268N11152194WA0272802873000180000000
B1909423942251N11152189WA0272702870000176000000
B1909433942234N11152179WA0272402867000176000000
B1909443942218N11152165WA0272102864000176000000
B1909453942205N11152147WA0271902861000176000000
B1909463942195N11152124WA0271702859000172000000
B1909473942188N11152099WA0271502857000176000000
B1909483942184N11152072WA0271302854000180000000
B1909493942187N11152044WA0271202853000184000000
B1909503942192N11152018WA0271202854000184000000
B1909513942201N11151994WA0271202856000188000000
B1909523942213N11151971WA0271302856000188000000
B1909533942227N11151952WA0271302856000192000000
B1909543942244N11151936WA0271402856000192000000
B1909553942264N11151923WA0271402856000192000000
B1909563942283N11151916WA0271402856000196000000
B1909573942304N11151912WA0271402856000196000000
B1909583942325N11151913WA0271402857000196000000
B1909593942344N11151917WA0271402857000196000000
B1910003942362N11151925WA0271402859000196000000
B1910013942381N11151936WA0271602860000196000000
B1910023942396N11151952WA0271702861000200000000
B1910033942411N11151969WA0271902862000200000000
B1910043942422N11151988WA0272002863000200000000
B1910053942431N11152008WA0272102867000200000000
B1910063942439N11152030WA0272402872000200000000
B1910073942444N11152051WA0272802877000204000000
B1910083942447N11152072WA0273302880000204000000
B1910093942450N11152092WA0273602882000204000000
B1910103942450N11152113WA0273702882000200000000
B1910113942448N11152133WA0273702881000204000000
B1910123942444N11152152WA0273702880000204000000
B1910133942437N11152170WA0273602880000204000000
B1910143942427N11152187WA0273602878000204000000
B1910153942416N11152202WA0273402877000200000000
B1910163942403N11152213WA0273202874000192000000
B1910173942387N11152221WA0272802872000192000000
B1910183942370N11152226WA0272602870000192000000
B1910193942351N11152226WA0272602870000196000000
B1910203942333N11152222WA0272602871000204000000
B1910213942314N11152215WA0272602871000208000000
B1910223942296N11152204WA0272602871000212000000
B1910233942279N11152190WA0272602871000212000000
B1910243942265N11152172WA0272602871000212000000
B1910253942252N11152150WA0272802873000216000000
B1910263942243N11152126WA0272902876000212000000
B1910273942236N11152100WA0273202879000208000000
B1910283942234N11152074WA0273602884000208000000
B1910293942234N11152049WA0273902886000208000000
B1910303942235N11152025WA0274102888000208000000
B1910313942240N11152000WA0274202889000208000000
B1910323942247N11151977WA0274202889000208000000
B1910333942257N11151956WA0274202888000212000000
B1910343942269N11151936WA0274202888000212000000
B1910353942284N11151921WA0274302888000212000000
B1910363942300N11151909WA0274302888000208000000
B1910373942318N11151901WA0274202888000208000000
B1910383942338N11151896WA0274202887000208000000
B1910393942357N11151896WA0274102885000208000000
B1910403942377N11151899WA0274102884000208000000
B1910413942396N11151906WA0274102884000212000000
B1910423942414N11151918WA0274002884000212000000
B1910433942431N11151932WA0274002884000212000000
B1910443942446N11151951WA0274002885000212000000
B1910453942459N11151970WA0274102885000212000000
B1910463942469N11151994WA0274202886000204000000
B1910473942477N11152017WA0274302886000200000000
B1910483942481N11152040WA0274502888000204000000
B1910493942481N11152064WA0274602891000204000000
B1910503942477N11152086WA0274802895000204000000
B1910513942470N11152105WA0275102898000200000000
B1910523942461N11152124WA0275302899000196000000
B1910533942450N11152139WA0275502900000196000000
B1910543942437N11152152WA0275502900000200000000
B1910553942421N11152161WA0275502902000200000000
B1910563942405N11152168WA0275602905000204000000
B1910573942390N11152172WA0275802908000200000000
B1910583942372N11152173WA0276002910000196000000
B1910593942355N11152173WA0276102911000196000000
B1911003942338N11152170WA0276302911000192000000
B1911013942320N11152164WA0276502911000188000000
B1911023942301N11152155WA0276502913000184000000
B1911033942286N11152143WA0276702914000188000000
B1911043942270N11152129WA0276802916000192000000
B1911053942257N11152111WA0276802917000192000000
B1911063942245N11152091WA0277002917000188000000
B1911073942238N11152068WA0277002917000192000000
B1911083942232N11152043WA0277002918000188000000
B1911093942231N11152018WA0277002917000180000000
B1911103942232N11151992WA0276902916000180000000
B1911113942238N11151968WA0276902915000184000000
B1911123942247N11151943WA0276802914000184000000
B1911133942258N11151921WA0276802913000188000000
B1911143942273N11151901WA0276802914000188000000
B1911153942290N11151884WA0276902915000188000000
B1911163942308N11151871WA0276902916000196000000
B1911173942327N11151862WA0277002918000200000000
B1911183942347N11151858WA0277202920000200000000
B1911193942366N11151857WA0277502924000204000000
B1911203942386N11151861WA0277502928000204000000
B1911213942405N11151867WA0277902931000200000000
B1911223942422N11151877WA0278202934000204000000
B1911233942439N11151890WA0278502937000204000000
B1911243942453N11151905WA0278702938000196000000
B1911253942465N11151923WA0278902940000188000000
B1911263942473N11151944WA0279202941000188000000
B1911273942478N11151965WA0279302943000188000000
B1911283942479N11151984WA0279502946000184000000
B1911293942477N11152005WA0279702947000180000000
B1911303942472N11152023WA0279802948000184000000
B1911313942463N11152040WA0280002948000184000000
B1911323942452N11152053WA0280002947000184000000
B1911333942439N11152065WA0279902946000188000000
B1911343942424N11152072WA0279802945000184000000
B1911353942408N11152073WA0279702943000188000000
B1911363942391N11152070WA0279602943000188000000
B1911373942373N11152064WA0279602944000196000000
B1911383942357N11152052WA0279602946000196000000
B1911393942344N11152038WA0279702948000196000000
B1911403942331N11152020WA0280002950000200000000
B1911413942322N11152000WA0280102951000200000000
B1911423942316N11151978WA0280302952000204000000
B1911433942310N11151955WA0280302952000200000000
B1911443942310N11151931WA0280302952000200000000
B1911453942313N11151906WA0280402953000200000000
B1911463942318N11151883WA0280502953000200000000
B1911473942327N11151860WA0280502953000200000000
B1911483942339N11151840WA0280502952000200000000
B1911493942353N11151822WA0280402951000200000000
B1911503942370N11151808WA0280302951000196000000
B1911513942388N11151796WA0280302952000200000000
B1911523942408N11151791WA0280502954000200000000
B1911533942429N11151788WA0280602957000204000000
B1911543942448N11151791WA0280802959000204000000
B1911553942466N11151797WA0281002962000200000000
B1911563942483N11151806WA0281202965000200000000
B1911573942500N11151821WA0281602968000192000000
B1911583942513N11151835WA0281602970000192000000
B1911593942524N11151853WA0281902972000184000000
B1912003942531N11151873WA0282102974000188000000
B1912013942535N11151892WA0282302975000188000000
B1912023942537N11151913WA0282402976000188000000
B1912033942534N11151932WA0282502976000188000000
B1912043942528N11151951WA0282502975000188000000
B1912053942520N11151968WA0282502972000188000000
B1912063942511N11151983WA0282402970000188000000
B1912073942498N11151997WA0282102967000188000000
B1912083942483N11152008WA0282002967000188000000
B1912093942466N11152014WA0281802966000188000000
B1912103942448N11152018WA0281702967000184000000
B1912113942430N11152017WA0281802967000184000000
B1912123942412N11152012WA0281802968000184000000
B1912133942395N11152001WA0281902969000188000000
B1912143942379N11151988WA0282102969000196000000
B1912153942366N11151971WA0282102969000196000000
B1912163942355N11151951WA0282102968000192000000
B1912173942346N11151929WA0282002967000192000000
B1912183942339N11151904WA0281902966000196000000
B1912193942336N11151878WA0281802967000200000000
B1912203942335N11151852WA0281802969000200000000
B1912213942336N11151826WA0282002971000196000000
B1912223942339N11151801WA0282102972000196000000
B1912233942344N11151775WA0282202973000200000000
B1912243942351N11151752WA0282402974000200000000
B1912253942361N11151728WA0282502976000200000000
B1912263942373N11151708WA0282802977000200000000
B1912273942386N11151688WA0282902977000200000000
B1912283942400N11151671WA0282902976000200000000
B1912293942416N11151656WA0282802975000204000000
B1912303942434N11151644WA0282502973000204000000
B1912313942452N11151635WA0282602972000208000000
B1912323942473N11151630WA0282602972000208000000
B1912333942492N11151626WA0282502970000208000000
B1912343942513N11151627WA0282402967000208000000
B1912353942533N11151631WA0282302965000212000000
B1912363942554N11151637WA0282002963000212000000
B1912373942572N11151648WA0281802962000212000000
B1912383942590N11151661WA0281702963000212000000
B1912393942606N11151678WA0281702964000212000000
B1912403942620N11151696WA0281702963000212000000
B1912413942632N11151717WA0281702961000216000000
B1912423942641N11151740WA0281602960000216000000
B1912433942648N11151763WA0281502959000220000000
B1912443942651N11151789WA0281402960000224000000
B1912453942651N11151814WA0281302961000224000000
B1912463942648N11151838WA0281302962000224000000
B1912473942643N11151861WA0281402961000228000000
B1912483942635N11151883WA0281302961000228000000
B1912493942625N11151904WA0281402961000224000000
B1912503942611N11151922WA0281402960000228000000
B1912513942594N11151936WA0281402959000224000000
B1912523942576N11151947WA0281402959000224000000
B1912533942555N11151952WA0281402960000224000000
B1912543942534N11151951WA0281402962000224000000
B1912553942513N11151944WA0281502963000232000000
B1912563942494N11151932WA0281602964000236000000
B1912573942476N11151918WA0281802966000240000000
B1912583942460N11151899WA0282102969000240000000
B1912593942447N11151878WA0282302972000240000000
B1913003942435N11151853WA0282502973000240000000
B1913013942426N11151830WA0282602974000244000000
B1913023942420N11151804WA0282602974000244000000
B1913033942414N11151776WA0282602974000240000000
B1913043942412N11151748WA0282702973000232000000
B1913053942412N11151721WA0282602973000228000000
B1913063942414N11151692WA0282702973000224000000
B1913073942420N11151663WA0282702974000224000000
B1913083942429N11151636WA0282702974000224000000
B1913093942439N11151611WA0282702974000224000000
B1913103942452N11151588WA0282802975000228000000
B1913113942469N11151568WA0282702975000224000000
B1913123942487N11151552WA0282702974000220000000
B1913133942508N11151541WA0282802973000220000000
B1913143942530N11151535WA0282802974000220000000
B1913153942552N11151533WA0283002973000220000000
B1913163942573N11151537WA0282802973000220000000
B1913173942594N11151545WA0282802973000216000000
B1913183942613N11151557WA0282802973000212000000
B1913193942630N11151572WA0282702975000212000000
B1913203942645N11151591WA0282802977000212000000
B1913213942656N11151611WA0283102979000208000000
B1913223942665N11151633WA0283202980000204000000
B1913233942671N11151657WA0283302981000204000000
B1913243942673N11151679WA0283402982000204000000
B1913253942672N11151702WA0283502984000208000000
B1913263942668N11151723WA0283602985000204000000
B1913273942661N11151744WA0283702986000200000000
B1913283942652N11151761WA0283802987000200000000
B1913293942641N11151778WA0283802988000200000000
B1913303942628N11151791WA0283902989000204000000
B1913313942613N11151802WA0284002989000204000000
B1913323942598N11151810WA0284002990000200000000
B1913333942581N11151817WA0284102990000200000000
B1913343942564N11151821WA0284102990000204000000
B1913353942546N11151822WA0284102990000200000000
B1913363942529N11151822WA0284202990000200000000
B1913373942511N11151818WA0284202992000204000000
B1913383942494N11151813WA0284302993000204000000
B1913393942477N11151808WA0284402994000204000000
B1913403942460N11151800WA0284602996000208000000
B1913413942443N11151791WA0284702996000208000000
B1913423942427N11151782WA0284702997000208000000
B1913433942412N11151773WA0284802998000204000000
B1913443942395N11151763WA0284802998000204000000
B1913453942379N11151753WA0284803000000208000000
B1913463942365N11151740WA0285003001000208000000
B1913473942349N11151727WA0285003001000212000000
B1913483942335N11151713WA0285103002000212000000
B1913493942322N11151697WA0285103001000216000000
B1913503942309N11151680WA0285102999000216000000
B1913513942297N11151662WA0285102997000216000000
B1913523942284N11151643WA0285002994000212000000
B1913533942274N11151622WA0284702990000204000000
B1913543942264N11151600WA0284402986000200000000
B1913553942253N11151578WA0283702983000188000000
B1913563942244N11151553WA0283702980000188000000
B1913573942235N11151529WA0283402977000184000000
B1913583942226N11151503WA0283102975000188000000
B1913593942217N11151479WA0282802973000192000000
B1914003942208N11151451WA0282602972000192000000
B1914013942200N11151424WA0282502972000196000000
B1914023942193N11151396WA0282502974000204000000
B1914033942186N11151370WA0282602976000204000000
B1914043942178N11151342WA0282702978000208000000
B1914053942171N11151316WA0282902982000204000000
B1914063942166N11151292WA0283202986000204000000
B1914073942164N11151266WA0283602989000204000000
B1914083942164N11151240WA0283902993000208000000
B1914093942166N11151215WA0284202995000212000000
B1914103942171N11151190WA0284402997000212000000
B1914113942182N11151167WA0284402997000216000000
B1914123942195N11151146WA0284302996000212000000
B1914133942209N11151126WA0284402994000212000000
B1914143942227N11151112WA0284302991000212000000
B1914153942247N11151100WA0284002987000212000000
B1914163942268N11151093WA0283702984000216000000
B1914173942290N11151091WA0283502982000220000000
B1914183942312N11151095WA0283502982000220000000
B1914193942331N11151104WA0283502984000220000000
B1914203942349N11151117WA0283502988000216000000
B1914213942365N11151133WA0283802991000216000000
B1914223942378N11151151WA0284002993000208000000
B1914233942390N11151169WA0284402993000208000000
B1914243942400N11151190WA0284502991000204000000
B1914253942408N11151211WA0284502988000200000000
B1914263942412N11151233WA0284302986000196000000
B1914273942414N11151256WA0284002985000192000000
B1914283942413N11151280WA0283902984000192000000
B1914293942409N11151303WA0283802982000192000000
B1914303942404N11151324WA0283802980000192000000
B1914313942395N11151345WA0283602979000192000000
B1914323942385N11151364WA0283302977000184000000
B1914333942373N11151380WA0283202977000184000000
B1914343942359N11151396WA0283102977000188000000
B1914353942344N11151407WA0283102978000188000000
B1914363942329N11151419WA0283202979000196000000
B1914373942313N11151428WA0283402981000196000000
B1914383942297N11151437WA0283402983000192000000
B1914393942281N11151444WA0283502985000184000000
B1914403942265N11151450WA0283502984000180000000
B1914413942248N11151457WA0283402982000180000000
B1914423942231N11151462WA0283302980000180000000
B1914433942213N11151466WA0283102978000172000000
B1914443942196N11151468WA0283002977000168000000
B1914453942178N11151468WA0282902976000164000000
B1914463942158N11151467WA0282602974000160000000
B1914473942140N11151462WA0282502972000156000000
B1914483942122N11151453WA0282102969000152000000
B1914493942105N11151441WA0281802967000152000000
B1914503942088N11151427WA0281602964000156000000
B1914513942073N11151411WA0281402963000156000000
B1914523942057N11151392WA0281302964000168000000
B1914533942044N11151371WA0281402965000172000000
B1914543942032N11151350WA0281502966000180000000
B1914553942021N11151327WA0281602967000184000000
B1914563942010N11151305WA0281702968000184000000
B1914573942001N11151281WA0281802969000184000000
B1914583941991N11151259WA0281802970000188000000
B1914593941982N11151236WA0281702970000184000000
B1915003941972N11151212WA0281702971000184000000
B1915013941962N11151189WA0281802972000192000000
B1915023941954N11151164WA0281902976000192000000
B1915033941946N11151141WA0282002981000192000000
B1915043941939N11151117WA0282502985000192000000
B1915053941932N11151094WA0282802989000192000000
B1915063941926N11151073WA0283002992000192000000
B1915073941919N11151051WA0283502994000192000000
B1915083941913N11151030WA0283602994000184000000
B1915093941907N11151008WA0283702993000180000000
B1915103941902N11150986WA0283702991000176000000
B1915113941900N11150963WA0283502988000172000000
B1915123941896N11150939WA0283302985000172000000
B1915133941893N11150915WA0282902983000168000000
B1915143941891N11150889WA0282702982000168000000
B1915153941888N11150864WA0282602981000176000000
B1915163941885N11150838WA0282502979000176000000
B1915173941883N11150812WA0282302977000180000000
B1915183941880N11150787WA0282102977000184000000
B1915193941878N11150761WA0281902976000184000000
B1915203941874N11150736WA0281802975000188000000
B1915213941870N11150712WA0281702973000192000000
B1915223941866N11150687WA0281702973000192000000
B1915233941862N11150662WA0281702972000196000000
B1915243941859N11150636WA0281602971000196000000
B1915253941857N11150612WA0281402970000196000000
B1915263941854N11150587WA0281302969000192000000
B1915273941853N11150562WA0281202968000184000000
B1915283941852N11150538WA0281102968000180000000
B1915293941850N11150513WA0281102968000176000000
B1915303941849N11150487WA0281102968000176000000
B1915313941846N11150462WA0281002967000176000000
B1915323941845N11150439WA0281002967000176000000
B1915333941842N11150414WA0280902966000172000000
B1915343941840N11150389WA0280802965000168000000
B1915353941837N11150366WA0280802965000164000000
B1915363941833N11150343WA0280702964000156000000
B1915373941831N11150318WA0280602964000156000000
B1915383941827N11150294WA0280602962000156000000
B1915393941823N11150270WA0280502962000156000000
B1915403941819N11150246WA0280502961000160000000
B1915413941815N11150222WA0280502958000164000000
B1915423941810N11150196WA0280202956000168000000
B1915433941805N11150170WA0280202954000168000000
B1915443941800N11150142WA0279802953000176000000
B1915453941796N11150116WA0279602952000180000000
B1915463941790N11150089WA0279602953000188000000
B1915473941787N11150060WA0279602953000192000000
B1915483941783N11150033WA0279602953000196000000
B1915493941779N11150005WA0279702954000204000000
B1915503941775N11149976WA0279802955000208000000
B1915513941771N11149947WA0279902957000204000000
B1915523941768N11149920WA0280202959000200000000
B1915533941764N11149893WA0280302962000200000000
B1915543941761N11149865WA0280502964000196000000
B1915553941757N11149838WA0280702965000188000000
B1915563941754N11149812WA0280802966000184000000
B1915573941753N11149786WA0280902967000180000000
B1915583941754N11149760WA0281002969000176000000
B1915593941758N11149735WA0281002971000168000000
B1916003941764N11149712WA0281102972000164000000
B1916013941774N11149691WA0281202973000156000000
B1916023941787N11149673WA0281202974000156000000
B1916033941801N11149659WA0281302975000156000000
B1916043941816N11149647WA0281302974000152000000
B1916053941833N11149642WA0281302971000156000000
B1916063941850N11149641WA0281202968000160000000
B1916073941867N11149644WA0281002964000164000000
B1916083941883N11149652WA0280802961000168000000
B1916093941897N11149665WA0280602957000168000000
B1916103941909N11149682WA0280302955000168000000
B1916113941917N11149700WA0280102954000168000000
B1916123941923N11149721WA0280102955000168000000
B1916133941926N11149741WA0279902955000168000000
B1916143941924N11149760WA0279802955000168000000
B1916153941922N11149780WA0279802954000168000000
B1916163941914N11149797WA0279802952000168000000
B1916173941905N11149811WA0279702951000172000000
B1916183941892N11149823WA0279702951000176000000
B1916193941878N11149830WA0279702952000172000000
B1916203941862N11149834WA0279802955000176000000
B1916213941846N11149837WA0280102958000180000000
B1916223941831N11149836WA0280302960000180000000
B1916233941815N11149833WA0280602961000184000000
B1916243941801N11149828WA0280802961000184000000
B1916253941785N11149823WA0280902960000180000000
B1916263941770N11149815WA0280802958000180000000
B1916273941754N11149808WA0280602956000184000000
B1916283941738N11149800WA0280402954000188000000
B1916293941723N11149791WA0280202953000192000000
B1916303941707N11149781WA0280102952000188000000
B1916313941692N11149772WA0279802948000184000000
B1916323941676N11149761WA0279502944000180000000
B1916333941660N11149750WA0279102939000176000000
B1916343941644N11149737WA0278702934000176000000
B1916353941629N11149721WA0278102930000176000000
B1916363941615N11149706WA0277702927000172000000
B1916373941601N11149686WA0277402923000176000000
B1916383941586N11149667WA0276902919000176000000
B1916393941575N11149646WA0276602914000176000000
B1916403941563N11149625WA0276202909000172000000
B1916413941551N11149602WA0275802905000172000000
B1916423941541N11149578WA0275402900000176000000
B1916433941530N11149555WA0275002895000176000000
B1916443941521N11149529WA0274602890000176000000
B1916453941512N11149504WA0274102884000176000000
B1916463941503N11149478WA0273602878000176000000
B1916473941494N11149451WA0273102872000176000000
B1916483941486N11149423WA0272602867000176000000
B1916493941478N11149396WA0272102863000180000000
B1916503941471N11149369WA0271502858000180000000
B1916513941464N11149340WA0271502852000180000000
B1916523941458N11149310WA0271002847000180000000
B1916533941452N11149280WA0270402843000176000000
B1916543941446N11149252WA0270002839000180000000
B1916553941441N11149222WA0269602834000180000000
B1916563941436N11149192WA0269202831000184000000
B1916573941430N11149162WA0268802827000188000000
B1916583941425N11149132WA0268402824000192000000
B1916593941420N11149102WA0268002819000192000000
B1917003941415N11149072WA0267702815000196000000
B1917013941411N11149041WA0267102808000200000000
B1917023941407N11149009WA0266602801000204000000
B1917033941403N11148978WA0265902795000208000000
B1917043941399N11148945WA0265402789000208000000
B1917053941395N11148913WA0264902784000208000000
B1917063941391N11148880WA0264402780000208000000
B1917073941389N11148848WA0264002776000212000000
B1917083941386N11148815WA0263602771000216000000
B1917093941384N11148781WA0263102766000216000000
B1917103941382N11148747WA0262602761000216000000
B1917113941381N11148715WA0262102756000216000000
B1917123941380N11148681WA0261702753000212000000
B1917133941380N11148647WA0261302750000216000000
B1917143941378N11148614WA0261002747000216000000
B1917153941378N11148581WA0260702744000216000000
B1917163941380N11148547WA0260502741000216000000
B1917173941381N11148513WA0260202738000216000000
B1917183941382N11148481WA0259902734000216000000
B1917193941384N11148446WA0259602730000216000000
B1917203941385N11148412WA0259302726000216000000
B1917213941386N11148378WA0258802724000228000000
B1917223941389N11148343WA0258302724000240000000
B1917233941389N11148311WA0258102726000240000000
B1917243941389N11148279WA0258002729000272000000
B1917253941387N11148248WA0258002732000272000000
B1917263941387N11148218WA0258202733000272000000
B1917273941387N11148188WA0258502732000252000000
B1917283941386N11148160WA0258702731000232000000
B1917293941386N11148131WA0258802728000216000000
B1917303941385N11148101WA0258502724000200000000
B1917313941385N11148071WA0258302720000188000000
B1917323941384N11148040WA0258002716000176000000
B1917333941385N11148009WA0257602711000168000000
B1917343941385N11147978WA0257202706000160000000
B1917353941386N11147947WA0256802703000156000000
B1917363941387N11147915WA0256302699000156000000
B1917373941389N11147884WA0255902695000152000000
B1917383941391N11147852WA0255702692000152000000
B1917393941393N11147821WA0254902688000144000000
B1917403941393N11147788WA0254902684000144000000
B1917413941394N11147756WA0254402681000140000000
B1917423941395N11147724WA0254002676000136000000
B1917433941395N11147691WA0253702672000128000000
B1917443941395N11147658WA0253402668000124000000
B1917453941393N11147626WA0253002665000120000000
B1917463941391N11147593WA0252702663000120000000
B1917473941389N11147562WA0252302661000120000000
B1917483941385N11147529WA0252102659000120000000
B1917493941381N11147497WA0251902658000116000000
B1917503941376N11147466WA0251802656000116000000
B1917513941371N11147434WA0251702654000116000000
B1917523941365N11147403WA0251502651000116000000
B1917533941359N11147372WA0251302648000124000000
B1917543941352N11147341WA0251102646000128000000
B1917553941346N11147311WA0250902644000132000000
B1917563941338N11147280WA0250702643000132000000
B1917573941330N11147250WA0250502641000132000000
B1917583941322N11147221WA0250502640000132000000
B1917593941313N11147191WA0250402639000132000000
B1918003941306N11147160WA0250202637000132000000
B1918013941296N11147130WA0250102636000128000000
B1918023941289N11147100WA0249902634000124000000
B1918033941281N11147070WA0249702632000124000000
B1918043941272N11147041WA0249602630000124000000
B1918053941261N11147011WA0249402628000132000000
B1918063941251N11146982WA0249302629000136000000
B1918073941241N11146952WA0249402633000136000000
B1918083941230N11146922WA0249902641000136000000
B1918093941221N11146896WA0250602654000148000000
B1918103941213N11146869WA0251402667000152000000
B1918113941205N11146843WA0252502677000160000000
B1918123941196N11146818WA0253302684000168000000
B1918133941187N11146795WA0253902690000172000000
B1918143941178N11146773WA0254502694000172000000
B1918153941166N11146752WA0254902696000164000000
B1918163941155N11146731WA0255202696000160000000
B1918173941142N11146712WA0255402695000160000000
B1918183941130N11146692WA0255202692000164000000
B1918193941116N11146674WA0255102687000168000000
B1918203941101N11146656WA0254602683000176000000
B1918213941087N11146638WA0254302680000168000000
B1918223941073N11146619WA0254002676000156000000
B1918233941057N11146601WA0253902671000156000000
B1918243941043N11146580WA0253402665000160000000
B1918253941026N11146561WA0253202662000156015000
B1918263941010N11146544WA0253102664000160015000
B1918273940994N11146527WA0253302669000160000000
B1918283940977N11146509WA0253602674000160000000
B1918293940961N11146492WA0253902678000164000000
B1918303940947N11146474WA0254202681000164000000
B1918313940931N11146456WA0254402683000156000000
B1918323940916N11146437WA0254502684000148000000
B1918333940901N11146419WA0254602684000152000000
B1918343940886N11146402WA0254602685000152000000
B1918353940870N11146384WA0254802685000156000000
B1918363940854N11146365WA0254802685000156000000
B1918373940839N11146346WA0254902686000156000000
B1918383940823N11146327WA0254802686000152000000
B1918393940808N11146307WA0254602685000152000000
B1918403940792N11146287WA0254502683000152000000
B1918413940775N11146268WA0254202679000156000000
B1918423940758N11146250WA0254002675000152000000
B1918433940741N11146232WA0253702671000148000000
B1918443940724N11146214WA0253402667000144000000
B1918453940706N11146194WA0253402662000144000000
B1918463940689N11146176WA0253002657000140000000
B1918473940671N11146158WA0252502652000136000000
B1918483940653N11146142WA0252002647000136000000
B1918493940633N11146125WA0251602643000132000000
B1918503940615N11146110WA0251202640000128000000
B1918513940596N11146094WA0250802637000120000000
B1918523940575N11146079WA0250502633000120000000
B1918533940555N11146064WA0250202629000120000000
B1918543940535N11146051WA0249802625000120000000
B1918553940513N11146038WA0249502623000116000000
B1918563940492N11146027WA0249202621000120000000
B1918573940471N11146015WA0249002620000128000000
B1918583940449N11146004WA0248902618000128000000
B1918593940427N11145995WA0248802617000124000000
B1919003940406N11145986WA0248602616000124000000
B1919013940384N11145978WA0248502615000128000000
B1919023940362N11145969WA0248402613000128000000
B1919033940341N11145962WA0248302613000128000000
B1919043940319N11145954WA0248302613000124000000
B1919053940298N11145945WA0248302613000124000000
B1919063940277N11145936WA0248302612000120000000
B1919073940256N11145928WA0248202612000120000000
B1919083940236N11145920WA0248102611000120000000
B1919093940214N11145912WA0248002609000120000000
B1919103940193N11145904WA0247802608000116000000
B1919113940171N11145898WA0247702606000116000000
B1919123940149N11145893WA0247502603000116000000
B1919133940126N11145886WA0247202600000120000000
B1919143940104N11145880WA0247002598000120000000
B1919153940082N11145873WA0246802596000132000000
B1919163940060N11145867WA0246602594000132000000
B1919173940037N11145860WA0246602592000132000000
B1919183940015N11145854WA0246402589000140000000
B1919193939993N11145846WA0246202587000140000000
B1919203939970N11145839WA0245902584000136000000
B1919213939947N11145832WA0245802581000132000000
B1919223939925N11145825WA0245602579000132000000
B1919233939902N11145819WA0245502576000128000000
B1919243939879N11145812WA0245302574000128000000
B1919253939856N11145804WA0245202572000124000000
B1919263939834N11145799WA0244902570000124000000
B1919273939811N11145793WA0244702569000120000000
B1919283939787N11145787WA0244602569000120000000
B1919293939765N11145782WA0244502570000120000000
B1919303939742N11145777WA0244602571000124000000
B1919313939718N11145772WA0244502571000128000000
B1919323939696N11145768WA0244502571000120000000
B1919333939673N11145765WA0244502570000128000000
B1919343939649N11145763WA0244302569000140000000
B1919353939626N11145761WA0244302567000148000000
B1919363939604N11145760WA0244202566000140000000
B1919373939580N11145760WA0244102564000136000000
B1919383939557N11145760WA0244002563000144000000
B1919393939534N11145761WA0243902561000144000000
B1919403939510N11145763WA0243702560000140000000
B1919413939488N11145763WA0243602559000140000000
B1919423939465N11145763WA0243602558000140000000
B1919433939441N11145764WA0243502558000140000000
B1919443939418N11145765WA0243502558000148000000
B1919453939395N11145767WA0243502559000156000000
B1919463939372N11145768WA0243502560000160000000
B1919473939350N11145770WA0243702562000164000000
B1919483939327N11145773WA0243902565000160000000
B1919493939305N11145777WA0244202568000160000000
B1919503939284N11145781WA0244402569000164000000
B1919513939262N11145786WA0244702571000172000000
B1919523939240N11145793WA0244802573000176000000
B1919533939219N11145798WA0244802574000176000000
B1919543939197N11145803WA0245002575000172000000
B1919553939174N11145809WA0245202578000164000000
B1919563939153N11145813WA0245402583000160000000
B1919573939131N11145817WA0245602584000156000000
B1919583939109N11145821WA0245802586000152000000
B1919593939085N11145824WA0246002588000148000000
B1920003939063N11145826WA0246202590000148000000
B1920013939041N11145829WA0246402590000156000000
B1920023939019N11145834WA0246302588000156000000
B1920033938998N11145839WA0246202586000156000000
B1920043938976N11145846WA0246002585000152000000
B1920053938954N11145852WA0245802586000148000000
B1920063938933N11145860WA0245802588000148000000
B1920073938911N11145865WA0245902591000144000000
B1920083938889N11145871WA0246302594000144000000
B1920093938868N11145874WA0246702597000144000000
B1920103938846N11145878WA0246902599000144000000
B1920113938824N11145880WA0247202601000152000000
B1920123938802N11145881WA0247202602000160000000
B1920133938781N11145881WA0247202601000168000000
B1920143938759N11145881WA0247202600000176000000
B1920153938737N11145882WA0247102599000180000000
B1920163938715N11145884WA0247202600000180000000
B1920173938694N11145886WA0247302604000172000000
B1920183938672N11145889WA0247402606000164000000
B1920193938651N11145894WA0247602608000156000000
B1920203938629N11145897WA0247702608000156000000
B1920213938608N11145900WA0247802608000164000000
B1920223938586N11145904WA0247802607000160000000
B1920233938565N11145910WA0247902607000152000000
B1920243938543N11145913WA0247802606000156000000
B1920253938521N11145917WA0247702605000160000000
B1920263938499N11145921WA0247702605000168000000
B1920273938475N11145925WA0247502605000172000000
B1920283938453N11145929WA0247502606000168000000
B1920293938431N11145934WA0247502605000168000000
B1920303938408N11145938WA0247402604000172000000
B1920313938386N11145942WA0247402603000172000000
B1920323938364N11145947WA0247402606000164000000
B1920333938342N11145952WA0247602610000160000000
B1920343938319N11145959WA0247802613000156000000
B1920353938299N11145965WA0248202616000152000000
B1920363938279N11145972WA0248502620000148000000
B1920373938258N11145977WA0248902623000144000000
B1920383938239N11145982WA0249102627000148000000
B1920393938219N11145986WA0249302631000144000000
B1920403938201N11145990WA0249702634000136000000
B1920413938182N11145993WA0250002636000136000000
B1920423938163N11145995WA0250202638000144000000
B1920433938145N11145998WA0250402639000140000000
B1920443938127N11146001WA0250602639000144000000
B1920453938110N11146002WA0250602638000144000000
B1920463938092N11146003WA0250602638000144000000
B1920473938074N11146004WA0250502636000148000000
B1920483938056N11146006WA0250302634000152000000
B1920493938039N11146006WA0250202632000144000000
B1920503938020N11146004WA0250102632000144000000
B1920513938002N11146003WA0250102632000144000000
B1920523937985N11146002WA0250202632000140000000
B1920533937968N11145999WA0250202632000136000000
B1920543937952N11145997WA0250102630000128000000
B1920553937933N11145994WA0250002628000124000000
B1920563937916N11145990WA0249802627000124000000
B1920573937900N11145986WA0249702625000120000000
B1920583937883N11145981WA0249602625000120000000
B1920593937866N11145976WA0249602624000120000000
B1921003937849N11145971WA0249502624000116000000
B1921013937832N11145964WA0249402624000116000000
B1921023937815N11145958WA0249302623000116000000
B1921033937798N11145951WA0249302622000116000000
B1921043937783N11145943WA0249202622000116000000
B1921053937766N11145937WA0249202621000112000000
B1921063937749N11145930WA0249102619000108000000
B1921073937731N11145925WA0249002618000108000000
B1921083937714N11145921WA0248902616000104000000
B1921093937695N11145920WA0248702616000108000000
B1921103937679N11145920WA0248702615000112000000
B1921113937660N11145921WA0248602615000120000000
B1921123937643N11145923WA0248702614000120000000
B1921133937625N11145926WA0248602612000124000000
B1921143937607N11145930WA0248402611000132000000
B1921153937590N11145934WA0248102608000132000000
B1921163937572N11145939WA0247802606000132000000
B1921173937554N11145945WA0247602604000128000000
B1921183937536N11145949WA0247502603000120000000
B1921193937517N11145952WA0247402601000120000000
B1921203937499N11145956WA0247302599000116000000
B1921213937480N11145960WA0247102597000116000000
B1921223937460N11145964WA0247002596000116000000
B1921233937442N11145969WA0246802595000120000000
B1921243937422N11145975WA0246702594000124000000
B1921253937404N11145982WA0246502593000132000000
B1921263937385N11145990WA0246302592000136000000
B1921273937367N11145999WA0246302590000140000000
B1921283937348N11146010WA0246102589000148000000
B1921293937331N11146023WA0246102590000148000000
B1921303937317N11146037WA0246102591000148000000
B1921313937302N11146054WA0246102593000152000000
B1921323937289N11146071WA0246302596000156000000
B1921333937276N11146089WA0246602598000156000000
B1921343937264N11146107WA0246902599000164000000
B1921353937252N11146125WA0247102599000168000000
B1921363937240N11146144WA0247202599000164000000
B1921373937229N11146162WA0247202598000160000000
B1921383937217N11146180WA0247102596000160000000
B1921393937207N11146198WA0246902594000160000000
B1921403937195N11146218WA0246602591000156000000
B1921413937185N11146236WA0246402588000152000000
B1921423937174N11146257WA0246202586000148000000
B1921433937164N11146276WA0246002585000148000000
B1921443937155N11146297WA0245902586000148000000
B1921453937147N11146318WA0245802586000148000000
B1921463937140N11146340WA0245802588000148000000
B1921473937135N11146362WA0245902591000148000000
B1921483937131N11146385WA0246102595000140000000
B1921493937130N11146409WA0246302598000132000000
B1921503937129N11146432WA0246702600000132000000
B1921513937127N11146454WA0247002602000128000000
B1921523937125N11146476WA0247402605000136000000
B1921533937122N11146498WA0247702609000136000000
B1921543937120N11146519WA0248102613000136000000
B1921553937117N11146540WA0248502616000132000000
B1921563937114N11146561WA0248602618000132000000
B1921573937113N11146582WA0248702617000128000000
B1921583937113N11146604WA0248602615000124000000
B1921593937114N11146626WA0248402613000124000000
B1922003937116N11146648WA0248102610000124000000
B1922013937118N11146670WA0247802607000120000000
B1922023937122N11146692WA0247502603000120000000
B1922033937129N11146716WA0247402601000120000000
B1922043937135N11146738WA0247402603000120000000
B1922053937142N11146761WA0247402605000128000000
B1922063937151N11146783WA0247402608000128000000
B1922073937159N11146805WA0247602610000124000000
B1922083937168N11146827WA0247802612000128000000
B1922093937175N11146849WA0247902610000136000000
B1922103937183N11146873WA0247802607000144000000
B1922113937190N11146895WA0247602605000136000000
B1922123937198N11146917WA0247402603000140000000
B1922133937204N11146939WA0247202601000140000000
B1922143937212N11146960WA0247102602000140000000
B1922153937220N11146981WA0247002601000132000000
B1922163937229N11147002WA0246902600000128000000
B1922173937237N11147021WA0246802599000124000000
B1922183937246N11147042WA0246502597000124000000
B1922193937255N11147061WA0246402595000120000000
B1922203937264N11147081WA0246202593000120000000
B1922213937274N11147100WA0246102591000116000000
B1922223937283N11147120WA0245902589000112000000
B1922233937294N11147139WA0245602586000108000000
B1922243937304N11147158WA0245502583000108000000
B1922253937315N11147176WA0245202577000108000000
B1922263937326N11147197WA0244602569000104000000
B1922273937337N11147217WA0244002563000108000000
B1922283937348N11147237WA0243502557000108000000
B1922293937360N11147260WA0243102555000112000000
B1922303937373N11147282WA0242602552000116000000
B1922313937386N11147303WA0242402550000120000000
B1922323937398N11147324WA0242302550000124000000
B1922333937411N11147345WA0242102549000124000000
B1922343937424N11147367WA0242002548000124000000
B1922353937437N11147389WA0241902546000124000000
B1922363937450N11147411WA0241802546000136000000
B1922373937463N11147433WA0241602544000140000000
B1922383937476N11147455WA0241402541000140000000
B1922393937487N11147477WA0241402538000140000000
B1922403937500N11147499WA0241102535000136000000
B1922413937513N11147522WA0240902531000132000000
B1922423937525N11147544WA0240502528000128000000
B1922433937537N11147567WA0240302525000128000000
B1922443937549N11147590WA0240102522000128000000
B1922453937560N11147615WA0239702519000128000000
B1922463937572N11147639WA0239402517000124000000
B1922473937582N11147662WA0239102514000124000000
B1922483937593N11147687WA0238802511000120000000
B1922493937603N11147711WA0238602508000120000000
B1922503937614N11147736WA0238302506000120000000
B1922513937624N11147761WA0238102504000116000000
B1922523937633N11147785WA0237902501000116000000
B1922533937642N11147810WA0237602498000112000000
B1922543937653N11147835WA0237402495000112000000
B1922553937662N11147861WA0237002493000112000000
B1922563937669N11147887WA0236802491000116000000
B1922573937679N11147912WA0236602490000120000000
B1922583937688N11147938WA0236402490000128000000
B1922593937697N11147964WA0236402491000136000000
B1923003937705N11147990WA0236502495000136000000
B1923013937712N11148016WA0236802497000132000000
B1923023937721N11148042WA0237002499000140000000
B1923033937731N11148066WA0237202500000148000000
B1923043937740N11148091WA0237402502000148000000
B1923053937753N11148113WA0237602505000148000000
B1923063937764N11148136WA0237802507000144000000
B1923073937777N11148157WA0238102510000136000000
B1923083937790N11148179WA0238402513000132000000
B1923093937805N11148201WA0238602516000132000000
B1923103937818N11148222WA0238802518000132000000
B1923113937833N11148242WA0239102523000136000000
B1923123937849N11148260WA0239502528000140000000
B1923133937866N11148277WA0239502531000140000000
B1923143937884N11148291WA0239802534000136000000
B1923153937905N11148303WA0240202536000136000000
B1923163937926N11148311WA0240502538000136000000
B1923173937946N11148316WA0240702542000148000000
B1923183937968N11148317WA0241002543000152000000
B1923193937989N11148316WA0241202544000152000000
B1923203938010N11148311WA0241602546000156000000
B1923213938030N11148302WA0241602549000164000000
B1923223938048N11148289WA0241902553000160000000
B1923233938065N11148272WA0242102556000152000000
B1923243938079N11148253WA0242402559000144000000
B1923253938089N11148231WA0242602560000140000000
B1923263938097N11148207WA0242902559000140000000
B1923273938102N11148182WA0242802555000132000000
B1923283938105N11148156WA0242502549000128000000
B1923293938102N11148129WA0242202544000124000000
B1923303938096N11148103WA0241702541000124000000
B1923313938085N11148081WA0241202539000124000000
B1923323938070N11148061WA0240902538000124000000
B1923333938053N11148048WA0240702536000124000000
B1923343938033N11148039WA0240502534000128000000
B1923353938014N11148036WA0240202532000136000000
B1923363937993N11148038WA0240102530000136000000
B1923373937974N11148043WA0239902529000144000000
B1923383937955N11148052WA0239802528000144000000
B1923393937939N11148064WA0239802529000140000000
B1923403937923N11148078WA0239802530000136000000
B1923413937909N11148094WA0239902532000132000000
B1923423937894N11148112WA0240102533000128000000
B1923433937881N11148130WA0240202534000124000000
B1923443937867N11148149WA0240502535000120000000
B1923453937851N11148169WA0240702538000120000000
B1923463937838N11148187WA0241202546000120000000
B1923473937825N11148204WA0241902555000120000000
B1923483937812N11148224WA0242702563000116000000
B1923493937799N11148238WA0243502569000112000000
B1923503937786N11148253WA0244102574000108000000
B1923513937773N11148269WA0244502578000116000000
B1923523937762N11148283WA0244802580000116000000
B1923533937750N11148299WA0245002581000120000000
B1923543937740N11148316WA0245202581000120000000
B1923553937732N11148335WA0245202580000124000000
B1923563937725N11148356WA0245202579000124000000
B1923573937720N11148378WA0245202576000128000000
B1923583937718N11148402WA0245202574000128000000
B1923593937718N11148425WA0245002571000136000000
B1924003937719N11148450WA0244802571000140000000
B1924013937724N11148474WA0244402570000136000000
B1924023937731N11148498WA0244302570000140000000
B1924033937741N11148519WA0244302572000136000000
B1924043937754N11148538WA0244402576000136000000
B1924053937767N11148556WA0244702579000136000000
B1924063937783N11148572WA0245002582000140000000
B1924073937798N11148584WA0245202584000140000000
B1924083937816N11148594WA0245502586000136000000
B1924093937835N11148601WA0245602588000136000000
B1924103937854N11148604WA0245902589000136000000
B1924113937874N11148603WA0245902590000128000000
B1924123937892N11148598WA0246002593000132000000
B1924133937910N11148589WA0246202595000140000000
B1924143937928N11148577WA0246302596000144000000
B1924153937944N11148560WA0246502596000148000000
B1924163937957N11148542WA0246602596000152000000
B1924173937967N11148520WA0246702596000152000000
B1924183937976N11148495WA0246702596000148000000
B1924193937981N11148471WA0246702596000152000000
B1924203937985N11148445WA0246602596000156000000
B1924213937984N11148417WA0246602596000160000000
B1924223937981N11148391WA0246702596000164000000
B1924233937975N11148365WA0246702597000168000000
B1924243937965N11148342WA0246802598000172000000
B1924253937953N11148320WA0246902599000172000000
B1924263937937N11148300WA0246902599000176000000
B1924273937922N11148283WA0246602599000176000000
B1924283937903N11148270WA0246502598000176000000
B1924293937884N11148261WA0246502598000180000000
B1924303937864N11148256WA0246502599000180000000
B1924313937845N11148257WA0246902601000176000000
B1924323937827N11148261WA0247102604000168000000
B1924333937809N11148269WA0247102607000168000000
B1924343937792N11148279WA0247302608000160000000
B1924353937776N11148292WA0247502608000164000000
B1924363937762N11148308WA0247602608000160000000
B1924373937750N11148325WA0247702608000156000000
B1924383937740N11148346WA0247702609000156000000
B1924393937733N11148368WA0247702611000160000000
B1924403937729N11148391WA0247902614000160000000
B1924413937728N11148415WA0248102617000164000000
B1924423937731N11148438WA0248402618000164000000
B1924433937736N11148460WA0248502618000168000000
B1924443937744N11148481WA0248602618000172000000
B1924453937754N11148500WA0248602619000172000000
B1924463937768N11148516WA0248602620000176000000
B1924473937784N11148529WA0248702623000180000000
B1924483937801N11148537WA0248902626000180000000
B1924493937819N11148541WA0249102628000176000000
B1924503937837N11148539WA0249302631000168000000
B1924513937855N11148536WA0249502632000164000000
B1924523937872N11148526WA0249602633000168000000
B1924533937888N11148515WA0249802633000168000000
B1924543937902N11148499WA0249902632000172000000
B1924553937916N11148480WA0249902632000176000000
B1924563937927N11148459WA0249902632000176000000
B1924573937936N11148435WA0249902631000180000000
B1924583937944N11148411WA0249802630000180000000
B1924593937948N11148385WA0249702628000180000000
B1925003937949N11148357WA0249602627000184000000
B1925013937948N11148330WA0249502627000180000000
B1925023937942N11148304WA0249402627000172000000
B1925033937933N11148279WA0249502628000176000000
B1925043937923N11148257WA0249602629000168000000
B1925053937909N11148238WA0249702630000156000000
B1925063937894N11148222WA0249802631000160000000
B1925073937877N11148209WA0249902632000156000000
B1925083937859N11148199WA0250002631000156000000
B1925093937840N11148191WA0250002630000156000000
B1925103937820N11148187WA0250002629000156000000
B1925113937801N11148186WA0249802627000152000000
B1925123937781N11148188WA0249602624000144000000
B1925133937763N11148195WA0249402622000140000000
B1925143937745N11148204WA0249202621000136000000
B1925153937729N11148217WA0249102618000132000000
B1925163937714N11148233WA0248902616000128000000
B1925173937701N11148251WA0248702616000128000000
B1925183937688N11148272WA0248702616000132000000
B1925193937679N11148294WA0248702617000132000000
B1925203937672N11148318WA0248702618000140000000
B1925213937668N11148343WA0248702619000148000000
B1925223937667N11148368WA0248802620000148000000
B1925233937669N11148393WA0248802620000144000000
B1925243937675N11148416WA0248902621000140000000
B1925253937682N11148439WA0248902620000140000000
B1925263937692N11148460WA0248902617000148000000
B1925273937705N11148481WA0248802615000144000000
B1925283937719N11148498WA0248602612000136000000
B1925293937737N11148512WA0248302609000136000000
B1925303937755N11148524WA0248102606000136000000
B1925313937776N11148530WA0247802606000132000000
B1925323937798N11148533WA0247502605000128000000
B1925333937820N11148533WA0247402603000120000000
B1925343937842N11148529WA0247202599000124000000
B1925353937864N11148524WA0246902595000136000000
B1925363937887N11148516WA0246602591000140000000
B1925373937910N11148507WA0246302588000140000000
B1925383937932N11148497WA0246102585000144000000
B1925393937953N11148486WA0245902584000144000000
B1925403937975N11148474WA0245802584000140000000
B1925413937997N11148461WA0245902585000148000000
B1925423938018N11148448WA0245902587000148000000
B1925433938037N11148437WA0246002588000144000000
B1925443938058N11148424WA0246202590000140000000
B1925453938078N11148411WA0246302591000136000000
B1925463938097N11148398WA0246602593000136000000
B1925473938115N11148383WA0246702595000136000000
B1925483938134N11148368WA0246902596000140000000
B1925493938152N11148352WA0247002596000140000000
B1925503938170N11148335WA0247102597000144000000
B1925513938187N11148317WA0247202598000144000000
B1925523938202N11148299WA0247202599000136000000
B1925533938218N11148278WA0247202602000136000000
B1925543938231N11148256WA0247402604000136000000
B1925553938241N11148231WA0247602606000144000000
B1925563938251N11148205WA0247802608000152000000
B1925573938257N11148178WA0248102609000148000000
B1925583938262N11148148WA0248202611000152000000
B1925593938264N11148120WA0248202610000152000000
B1926003938262N11148092WA0248202609000152000000
B1926013938258N11148064WA0248102609000152000000
B1926023938251N11148038WA0248102611000152000000
B1926033938239N11148014WA0248102611000148000000
B1926043938226N11147993WA0248102612000152000000
B1926053938210N11147978WA0248202613000156000000
B1926063938192N11147966WA0248302614000156000000
B1926073938174N11147960WA0248302615000152000000
B1926083938154N11147956WA0248302615000152000000
B1926093938136N11147957WA0248402614000152000000
B1926103938119N11147964WA0248402614000152000000
B1926113938102N11147974WA0248302614000148000000
B1926123938088N11147987WA0248402615000144000000
B1926133938076N11148004WA0248502615000148000000
B1926143938066N11148022WA0248602617000156000000
B1926153938057N11148042WA0248702619000164000000
B1926163938052N11148064WA0248802620000168000000
B1926173938049N11148087WA0248902622000172000000
B1926183938049N11148112WA0249102622000180000000
B1926193938050N11148135WA0249302622000180000000
B1926203938054N11148160WA0249302623000180000000
B1926213938059N11148185WA0249302624000180000000
B1926223938069N11148208WA0249402626000180000000
B1926233938079N11148230WA0249402628000172000000
B1926243938092N11148250WA0249602629000172000000
B1926253938106N11148268WA0249702629000168000000
B1926263938122N11148283WA0249802629000164000000
B1926273938140N11148296WA0249902629000152000000
B1926283938160N11148305WA0249902631000156000000
B1926293938180N11148311WA0250102633000156000000
B1926303938200N11148312WA0250102636000156000000
B1926313938221N11148312WA0250202638000156000000
B1926323938240N11148307WA0250502638000160000000
B1926333938258N11148299WA0250502637000152000000
B1926343938277N11148286WA0250502636000144000000
B1926353938292N11148269WA0250402634000140000000
B1926363938305N11148248WA0250302632000132000000
B1926373938314N11148225WA0250102629000132000000
B1926383938321N11148198WA0250002628000136000000
B1926393938321N11148172WA0249902627000132000000
B1926403938318N11148144WA0249602625000124000000
B1926413938310N11148120WA0249402622000124000000
B1926423938300N11148097WA0249102618000120000000
B1926433938286N11148079WA0248802615000116000000
B1926443938269N11148064WA0248502610000120000000
B1926453938249N11148055WA0248202606000120000000
B1926463938227N11148052WA0247902604000120000000
B1926473938206N11148053WA0247802605000116000000
B1926483938186N11148058WA0247702605000116000000
B1926493938165N11148068WA0247802606000120000000
B1926503938147N11148079WA0247902608000128000000
B1926513938130N11148094WA0248002610000128000000
B1926523938114N11148109WA0248202611000128000000
B1926533938100N11148129WA0248302614000132000000
B1926543938089N11148149WA0248502618000140000000
B1926553938083N11148173WA0248702622000144000000
B1926563938080N11148198WA0249002626000148000000
B1926573938080N11148222WA0249402629000152000000
B1926583938084N11148247WA0249602630000152000000
B1926593938091N11148269WA0249802630000152000000
B1927003938101N11148291WA0249802629000144000000
B1927013938114N11148311WA0249702628000144000000
B1927023938128N11148326WA0249802628000140000000
B1927033938147N11148339WA0249802629000140000000
B1927043938165N11148350WA0249902631000148000000
B1927053938184N11148357WA0249902631000156000000
