ANKL0ZH
HFDTE230921
HFFXA050
HFPLTPILOT:Nelson Howe
HFGTYGLIDERTYPE:Discus 2b
HFGIDGLIDERID:1X       .
HFDTM100GPSDATUM:
HFRFWFIRMWAREVERSION:40 2011-6-17
HFRHWHARDWAREVERSION: NKL ClearNav V1.0
HFFTYFRTYPE:Nielsen Kellerman, ClearNav-IGC
HFGPS:UBLOX,LEA-4H-0-000-1,16Ch,18000 
HFPRSPRESSALTSENSOR:Intersema,MS5534B,20000 
I033638FXA3941ENL4247REX
C230921170738000000000107
C0000000N00000000WTAKEOFF     
C3728766N08006133WStart NCI
C3721049N08020844WArea Wits En
C3728762N08006159WArea New Cas
C3725495N08022675WArea Maggie
C3728762N08006159WArea New Cas
C3721049N08020844WArea Wits En
C3728762N08006159WArea New Cas
C3725495N08022675WArea Maggie
C3728766N08006133WFinish Cylin
C0000000N00000000WLANDING     
B1717013728589N08006125WA0040600404002000002008
B1717023728589N08006125WA0040600404002000002008
B1717033728589N08006125WA0040600404002000002008
B1717043728589N08006125WA0040500404002000002008
B1717053728589N08006125WA0040700404002000002008
B1717063728589N08006125WA0040600404002000002008
B1717073728589N08006125WA0040500403002000002008
B1717083728589N08006125WA0040700403002000002008
B1717093728589N08006125WA0040600403002000002008
B1717103728589N08006125WA0040600403002000002008
B1717113728589N08006125WA0040600403002000002008
B1717123728589N08006125WA0040600403002000002008
B1717133728589N08006125WA0040600403002000002008
B1717143728589N08006125WA0040600403002000002008
B1717153728589N08006124WA0040600403002000002008
B1717163728589N08006124WA0040500403002002002008
B1717173728589N08006124WA0040500403002011002008
B1717183728589N08006124WA0040500403002004002008
B1717193728589N08006124WA0040500403002002002008
B1717203728589N08006124WA0040500403002000002008
B1717213728590N08006124WA0040600403002000002008
B1717223728590N08006124WA0040600403002000002008
B1717233728590N08006124WA0040600403002002002008
B1717243728590N08006124WA0040600403002016002008
B1717253728590N08006124WA0040500403002034002008
B1717263728590N08006124WA0040600403002046002008
B1717273728590N08006124WA0040600403002048002008
B1717283728590N08006124WA0040500403002046002008
B1717293728590N08006124WA0040600403002043002008
B1717303728590N08006124WA0040600403002048002008
B1717313728590N08006124WA0040500404002057002008
B1717323728590N08006124WA0040500404002064002008
B1717333728590N08006124WA0040500404002069002008
B1717343728590N08006124WA0040600404002081002008
B1717353728590N08006124WA0040500404002088002008
B1717363728590N08006124WA0040500404002090002008
B1717373728590N08006124WA0040500404002083002008
B1717383728590N08006124WA0040500404002071002008
B1717393728590N08006124WA0040500404002069002008
B1717403728590N08006124WA0040600404002074002008
B1717413728590N08006124WA0040500404002081002008
B1717423728589N08006124WA0040600404002083002008
B1717433728589N08006124WA0040600404002083002008
B1717443728589N08006124WA0040600404002085002008
B1717453728589N08006124WA0040600405002095002008
B1717463728589N08006124WA0040500405002097002008
B1717473728589N08006124WA0040600405002088002008
B1717483728589N08006124WA0040600405002074002008
B1717493728589N08006124WA0040500405002064002008
B1717503728589N08006124WA0040500405002069002008
B1717513728589N08006124WA0040500405002083002008
B1717523728589N08006124WA0040500405002100002008
B1717533728589N08006124WA0040600405002100002008
B1717543728589N08006124WA0040500405002086002008
B1717553728589N08006124WA0040500405002067002008
B1717563728589N08006124WA0040500405002046002008
B1717573728589N08006124WA0040600405002029002008
B1717583728589N08006125WA0040400405002020002008
B1717593728589N08006125WA0040500405002020002008
B1718003728589N08006125WA0040600405002023002008
B1718013728589N08006125WA0040600405002030002008
B1718023728589N08006125WA0040600405002039002008
B1718033728589N08006125WA0040500405002046002008
B1718043728589N08006125WA0040600405002055002008
B1718053728589N08006125WA0040500406002064002008
B1718063728589N08006125WA0040500406002076002008
B1718073728589N08006125WA0040500406002085002008
B1718083728589N08006125WA0040500406002095002008
B1718093728589N08006125WA0040600406002107002008
B1718103728589N08006125WA0040500406002114002008
B1718113728589N08006125WA0040500406002111002008
B1718123728589N08006125WA0040500406002100002008
B1718133728589N08006124WA0040500406002081002008
B1718143728589N08006124WA0040600406002060002008
B1718153728589N08006124WA0040500406002043002008
B1718163728589N08006124WA0040500406002032002008
B1718173728589N08006124WA0040500405002025002008
B1718183728589N08006124WA0040600405002025002008
B1718193728589N08006124WA0040600405002029002008
B1718203728589N08006124WA0040500405002041002008
B1718213728589N08006124WA0040500405002055002008
B1718223728589N08006124WA0040500405002057002008
B1718233728589N08006124WA0040500405002062002008
B1718243728589N08006124WA0040500405002060002008
B1718253728590N08006124WA0040500405002050002008
B1718263728590N08006124WA0040500405002050002008
B1718273728590N08006124WA0040500405002050002008
B1718283728590N08006124WA0040500405002050002008
B1718293728590N08006124WA0040400405002057002008
B1718303728590N08006125WA0040400405002062002008
B1718313728590N08006125WA0040500405002062002008
B1718323728590N08006125WA0040600405002069002008
B1718333728590N08006125WA0040500405002076002008
B1718343728590N08006125WA0040600405002081002008
B1718353728590N08006125WA0040500405002081002008
B1718363728590N08006125WA0040500405002069002008
B1718373728590N08006125WA0040500405002062002008
B1718383728590N08006125WA0040500404002065002008
B1718393728590N08006125WA0040500404002074002008
B1718403728590N08006124WA0040500404002093002008
B1718413728590N08006124WA0040500404002104002008
B1718423728590N08006124WA0040600405002114002008
B1718433728590N08006124WA0040600405002118002008
B1718443728590N08006124WA0040600405002118002008
B1718453728590N08006124WA0040600405002111002008
B1718463728590N08006124WA0040600405002100002008
B1718473728589N08006124WA0040500405002095002008
B1718483728589N08006124WA0040600405002088002008
B1718493728589N08006124WA0040500405002095002008
B1718503728589N08006124WA0040500405002102002008
B1718513728589N08006124WA0040500405002107002008
B1718523728589N08006124WA0040500405002118002008
B1718533728589N08006124WA0040400405002116002008
B1718543728589N08006124WA0040400405002113002008
B1718553728589N08006124WA0040600405002102002008
B1718563728590N08006124WA0040700405002088002008
B1718573728590N08006124WA0040600405002081002008
B1718583728591N08006124WA0040600405002074002008
B1718593728592N08006124WA0040600405002074002008
B1719003728595N08006125WA0040600406002074002008
B1719013728598N08006125WA0040600406002074002000
F17190105292415131820234451
B1719023728602N08006125WA0040600406002076002000
B1719033728607N08006126WA0040600406002079002000
F171903052924151318234451
B1719043728613N08006126WA0040500406002083003000
B1719053728620N08006127WA0040500406002093003000
B1719063728627N08006127WA0040500406002107003000
B1719073728636N08006128WA0040500406002125003000
B1719083728646N08006128WA0040400405002142003000
B1719093728657N08006128WA0040400405002151003000
B1719103728668N08006128WA0040400405002144003000
B1719113728681N08006128WA0040300405002130003000
B1719123728694N08006128WA0040300405002111003000
B1719133728709N08006128WA0040300405002093003000
B1719143728724N08006128WA0040300405002081003000
B1719153728740N08006128WA0040400405002072003000
B1719163728756N08006128WA0040400405002062003000
B1719173728773N08006128WA0040600405002055003000
F17191705292415131820234451
B1719183728791N08006129WA0040900405002050003000
B1719193728809N08006129WA0040900406002043003000
B1719203728827N08006130WA0041200408002041003000
B1719213728846N08006130WA0041600411002039003000
B1719223728864N08006130WA0041800414002039003000
B1719233728883N08006130WA0042200417002039003000
B1719243728902N08006130WA0042900421002039002000
B1719253728920N08006130WA0042600425002039002000
B1719263728940N08006128WA0042900427002037002000
B1719273728959N08006126WA0043400430002037002000
B1719283728978N08006122WA0044100436002037002000
B1719293728997N08006117WA0044600441002037002000
B1719303729015N08006110WA0045000447002037002000
B1719313729034N08006102WA0045500452002037002000
B1719323729051N08006093WA0046000457002037002000
B1719333729068N08006083WA0046300461002037002000
B1719343729085N08006072WA0046800465002037002000
B1719353729102N08006061WA0047200469002034002000
B1719363729119N08006050WA0047500472002034002000
B1719373729136N08006039WA0047900475002034002000
B1719383729153N08006029WA0048100478002034002000
B1719393729170N08006019WA0048300481002037002000
B1719403729187N08006009WA0048500484002037002000
B1719413729204N08006000WA0048900486002037002000
B1719423729222N08005990WA0049100489002034002000
B1719433729240N08005981WA0049400492002034002000
B1719443729258N08005973WA0049900494002032002000
B1719453729276N08005964WA0050300498002032002000
B1719463729294N08005956WA0050600502002034002000
B1719473729312N08005948WA0051500506002032002000
B1719483729330N08005940WA0052200513002034002000
B1719493729348N08005932WA0052500520001034002000
F1719490529241513181020234451
B1719503729366N08005923WA0052900525001034002000
B1719513729384N08005913WA0053100528001034002000
B1719523729401N08005901WA0053300531001034002000
B1719533729418N08005889WA0053600533001034002000
B1719543729434N08005874WA0054200537001034002000
B1719553729450N08005857WA0054800542002037002000
B1719563729464N08005838WA0055400547002034002000
B1719573729476N08005816WA0055600551002034002000
B1719583729486N08005793WA0055900555002032003000
B1719593729494N08005768WA0056300559002029003000
B1720003729499N08005742WA0057000564002029003000
B1720013729503N08005716WA0057300569002027003000
B1720023729505N08005689WA0057800574002027003000
B1720033729505N08005663WA0058100579002027003000
B1720043729504N08005636WA0058500583002027003000
B1720053729501N08005610WA0059200587002027003000
B1720063729498N08005583WA0059200591002027003000
B1720073729492N08005557WA0059700594002027003000
B1720083729485N08005531WA0060000597002027003000
B1720093729475N08005506WA0060500601002027003000
B1720103729463N08005483WA0061100606002027003000
B1720113729451N08005462WA0061900612002027003000
B1720123729437N08005442WA0063200620002027003000
B1720133729422N08005423WA0063800629002027003000
B1720143729406N08005407WA0064600638002027003000
B1720153729389N08005393WA0065100646002027003000
B1720163729371N08005381WA0065400651002029003000
B1720173729351N08005370WA0065900655002032003000
B1720183729331N08005362WA0066000658002032003000
B1720193729311N08005356WA0066500661003034003000
B1720203729289N08005353WA0066300664003032003000
B1720213729268N08005353WA0066600666003032003000
B1720223729247N08005356WA0066500667002032003000
B1720233729227N08005361WA0066900667002029003000
B1720243729208N08005369WA0067100669002032003000
B1720253729190N08005380WA0067100671003029003000
B1720263729173N08005393WA0067200673002032003000
B1720273729158N08005409WA0067600674002032003000
B1720283729144N08005426WA0067900676002029003000
B1720293729134N08005445WA0068200680002032003000
B1720303729126N08005465WA0068600684002029003000
B1720313729121N08005485WA0069300689002032003000
B1720323729119N08005506WA0069600694003034003000
B1720333729120N08005526WA0070100700002032003000
B1720343729124N08005546WA0070900705002034003000
B1720353729131N08005564WA0071300710002034003000
B1720363729139N08005582WA0072000715002034003000
B1720373729148N08005598WA0072100720002037003000
B1720383729157N08005615WA0072400724002037002000
B1720393729166N08005632WA0072700727002037002000
B1720403729175N08005650WA0073200730002037002000
B1720413729183N08005667WA0073400734001037002000
B1720423729191N08005685WA0073800739001037002000
B1720433729198N08005703WA0074000742001037002000
B1720443729206N08005720WA0074400745001037002000
B1720453729213N08005738WA0074700749001037002000
B1720463729221N08005755WA0075100752001037002000
B1720473729229N08005772WA0075700756001037002000
B1720483729237N08005789WA0076100761001037002000
B1720493729245N08005805WA0076200765001037002000
B1720503729253N08005821WA0076500768001037002000
B1720513729261N08005838WA0077200772001037002000
B1720523729267N08005855WA0077200776001037002000
B1720533729271N08005873WA0078000779001037002000
B1720543729274N08005891WA0078500784001037002000
B1720553729278N08005908WA0078800789001037002000
B1720563729281N08005926WA0079200793001037002000
B1720573729284N08005943WA0079500796001037002000
B1720583729287N08005960WA0079700799001037002000
B1720593729290N08005978WA0079900802001034002000
B1721003729292N08005995WA0080200803001034002000
B1721013729293N08006013WA0080400805001034002000
B1721023729293N08006031WA0080600807001034002000
B1721033729293N08006050WA0080900809001039002000
B1721043729292N08006068WA0081100812001041002000
B1721053729291N08006086WA0081400815001043002000
B1721063729290N08006105WA0081600818001043002000
B1721073729290N08006123WA0081800820001041002000
B1721083729290N08006142WA0082200822001039002000
B1721093729291N08006160WA0082500825001039002000
B1721103729292N08006178WA0082700828001039002000
B1721113729293N08006197WA0083300831001039002000
B1721123729294N08006215WA0083500835001041002000
B1721133729295N08006233WA0083700838001041002000
B1721143729295N08006252WA0084000840001041002000
B1721153729296N08006271WA0084100842001041002000
B1721163729296N08006290WA0084200843001039002000
B1721173729297N08006310WA0084400845001037002000
B1721183729297N08006330WA0084500846001037002000
B1721193729298N08006351WA0085000848001039002000
B1721203729299N08006371WA0085200852001041002000
B1721213729300N08006391WA0085700855001046002000
B1721223729302N08006411WA0086000858001050002000
B1721233729303N08006431WA0086500863001052002000
B1721243729304N08006450WA0086900867001055002000
B1721253729306N08006469WA0087200871001057002000
B1721263729308N08006489WA0087500874001057002000
B1721273729309N08006507WA0087700877001055002000
B1721283729311N08006526WA0088100880001053002000
B1721293729312N08006546WA0088300883001048002000
B1721303729312N08006565WA0088400885001043002000
B1721313729311N08006585WA0088800887001041002000
B1721323729308N08006605WA0088800889001039002000
B1721333729304N08006625WA0088800890001039002000
B1721343729301N08006645WA0088800891001039002000
B1721353729297N08006666WA0089400893001039002000
B1721363729295N08006686WA0089600895001039002000
B1721373729294N08006706WA0089700898001037002000
B1721383729294N08006726WA0090000901001037002000
B1721393729293N08006746WA0090800905001039002000
B1721403729294N08006766WA0091200909001039002000
B1721413729294N08006786WA0091600914001039002000
B1721423729295N08006805WA0092000918001039002000
B1721433729296N08006825WA0092100921001037002000
B1721443729296N08006845WA0092400924001037002000
B1721453729295N08006865WA0092900926001037002000
B1721463729293N08006885WA0093100930001037002000
B1721473729289N08006905WA0093500933001037002000
B1721483729285N08006925WA0093800936001037002000
B1721493729280N08006944WA0094200939001037002000
B1721503729275N08006964WA0094400943001039002000
B1721513729270N08006983WA0094700946001039002000
B1721523729265N08007002WA0095000949001039002000
B1721533729258N08007021WA0095600953001039002000
B1721543729250N08007039WA0096000957001037002000
B1721553729242N08007057WA0096400961001039002000
B1721563729233N08007075WA0096300963001039002000
B1721573729224N08007093WA0096700966001041002000
B1721583729215N08007111WA0097300969001041002000
B1721593729208N08007130WA0097500973001041002000
B1722003729201N08007149WA0097800977001041002000
B1722013729193N08007168WA0098000980001039002000
B1722023729186N08007187WA0098400983001039002000
B1722033729178N08007206WA0098800985001037002000
B1722043729170N08007226WA0098500988001037002000
B1722053729162N08007245WA0098900990001041002000
B1722063729153N08007263WA0099300991001043002000
B1722073729143N08007282WA0099600994001048002000
B1722083729134N08007300WA0100000998001050002000
B1722093729125N08007318WA0100401002001048002000
B1722103729115N08007336WA0100801006001048002000
B1722113729106N08007354WA0101101009001043002000
B1722123729097N08007372WA0101401012001043002000
B1722133729088N08007390WA0101601015001041002000
B1722143729080N08007409WA0102001018001041002000
B1722153729071N08007427WA0102401021001043002000
B1722163729063N08007445WA0102601025001041002000
B1722173729056N08007462WA0103001029001043002000
B1722183729048N08007480WA0103301032001041002000
B1722193729039N08007498WA0103501035001039002000
B1722203729030N08007514WA0104001039001039002000
B1722213729020N08007531WA0104601043001037002000
B1722223729010N08007547WA0105001047001037002000
B1722233729000N08007562WA0105901053001037002000
B1722243728988N08007577WA0106001059001037002000
B1722253728976N08007592WA0106401063001039002000
B1722263728963N08007607WA0106501066001039002000
B1722273728951N08007622WA0106801068001041002000
B1722283728939N08007637WA0107201071001043002000
B1722293728927N08007653WA0107701075001043002000
B1722303728916N08007669WA0108001078001046002000
B1722313728906N08007686WA0108001082001046002000
B1722323728896N08007703WA0108601085001043002000
B1722333728885N08007720WA0109401088001046002000
B1722343728873N08007735WA0109601092002046002000
B1722353728860N08007750WA0110001097002046002000
B1722363728846N08007764WA0110101101002046002000
B1722373728832N08007778WA0110301103002043002000
B1722383728818N08007791WA0110701106002046002000
B1722393728804N08007804WA0111201109002046002000
B1722403728789N08007817WA0111201112001050002000
B1722413728775N08007831WA0111801114001052002000
B1722423728759N08007844WA0111701117001050002000
B1722433728743N08007856WA0112201120001052002000
B1722443728725N08007866WA0112701124001055002000
B1722453728706N08007876WA0112801128001055002000
B1722463728687N08007885WA0113101131001060002000
B1722473728668N08007896WA0113301133001060002000
B1722483728650N08007907WA0113601135001057002000
B1722493728632N08007919WA0113901138001057002000
B1722503728615N08007932WA0114501142001052002000
B1722513728597N08007945WA0115201147001050002000
B1722523728579N08007956WA0115801154001048002000
B1722533728561N08007967WA0116501160001048002000
B1722543728542N08007976WA0116901165001050002000
B1722553728523N08007985WA0117301170001052002000
B1722563728504N08007994WA0117201174001057002000
B1722573728484N08008003WA0117501178001060002000
B1722583728466N08008013WA0117601182001062002000
B1722593728449N08008024WA0118201186001072002000
B1723003728434N08008036WA0118601191001074002000
B1723013728422N08008050WA0118701194001076002000
B1723023728412N08008065WA0119001195002078002000
B1723033728404N08008081WA0119001196002067002000
B1723043728398N08008098WA0119201198002057002000
B1723053728394N08008115WA0119001199002046002000
B1723063728391N08008133WA0119001198002032002000
B1723073728390N08008150WA0118801197002029002000
B1723083728391N08008167WA0118701196002034002000
B1723093728394N08008183WA0118901195002041002000
B1723103728399N08008198WA0118901196002046003000
B1723113728407N08008211WA0119401198003046003000
B1723123728418N08008221WA0119801201003039003000
B1723133728430N08008227WA0119801204003027003000
B1723143728444N08008229WA0119801205003025003000
B1723153728458N08008228WA0119701205003029003000
B1723163728473N08008223WA0119701204003036003000
B1723173728487N08008214WA0119601204003043003000
B1723183728501N08008202WA0119401203003050003000
B1723193728513N08008188WA0119201202003048003000
B1723203728525N08008173WA0119201200002046003000
B1723213728537N08008156WA0118801198002053003000
B1723223728547N08008138WA0118701196002055003000
B1723233728557N08008118WA0118501194002060003000
B1723243728566N08008097WA0118601193002067002000
B1723253728574N08008076WA0118601193002072002000
B1723263728581N08008053WA0118601193002081002000
B1723273728586N08008029WA0118601192002086002000
B1723283728588N08008005WA0118601192002093002000
B1723293728587N08007979WA0118701193002097003000
B1723303728583N08007954WA0118701193002093003000
B1723313728575N08007931WA0118501193002095003000
B1723323728565N08007909WA0118401192002093003000
B1723333728553N08007890WA0118301191002093003000
B1723343728539N08007874WA0118201189002090003000
B1723353728523N08007859WA0118101187002085003000
B1723363728506N08007847WA0117901186002081003000
B1723373728488N08007838WA0117801185002067003000
B1723383728470N08007831WA0118101185002064003000
B1723393728450N08007825WA0118101185002062003000
B1723403728431N08007822WA0118101186002055003000
B1723413728412N08007819WA0118001185002057003000
B1723423728392N08007819WA0117701185002060003000
B1723433728373N08007820WA0117601184002067003000
B1723443728354N08007822WA0117501183002074002000
B1723453728335N08007826WA0117501182002076002000
B1723463728316N08007830WA0117601181002071002000
B1723473728297N08007835WA0117701182002060002000
B1723483728278N08007842WA0117501183002055002000
B1723493728260N08007849WA0117601182002050002000
B1723503728242N08007856WA0117401182002055002000
B1723513728224N08007863WA0117201181002064002000
F17235105292415131810202351
B1723523728207N08007870WA0117101180002072002000
B1723533728189N08007878WA0117101179002086002000
B1723543728171N08007885WA0117101179002090002000
B1723553728154N08007893WA0117001178002090002000
B1723563728136N08007901WA0117301178002095002000
B1723573728119N08007909WA0117301179002095002000
B1723583728102N08007917WA0117401180002095002000
B1723593728085N08007925WA0117301181002095002000
B1724003728068N08007934WA0117201181002081002000
B1724013728051N08007944WA0117201180002065002000
B1724023728034N08007953WA0117401181002048002000
B1724033728018N08007963WA0117501182002032002000
B1724043728001N08007972WA0117601184002022002000
B1724053727985N08007982WA0118001185002018002000
B1724063727968N08007992WA0117901187002018002000
B1724073727952N08008001WA0118001188002015002000
B1724083727935N08008011WA0118001188002018002000
B1724093727919N08008020WA0118001189002018002000
B1724103727902N08008029WA0118201189002013002000
B1724113727886N08008039WA0118301191002013002000
B1724123727870N08008049WA0118201192002009002000
B1724133727854N08008058WA0118501192002004002000
B1724143727838N08008068WA0118501193002004002000
B1724153727823N08008077WA0118601193002004002000
B1724163727807N08008087WA0118601194002006002000
B1724173727792N08008097WA0118501195002006002000
B1724183727777N08008108WA0118701195002013002000
B1724193727762N08008119WA0118801195002020002000
B1724203727748N08008131WA0118801196002027002000
B1724213727734N08008143WA0118501196002037002000
B1724223727720N08008156WA0118201194002039002000
B1724233727708N08008169WA0118101192002036002000
B1724243727696N08008184WA0118001190002034002000
B1724253727685N08008199WA0118101189002038002000
B1724263727674N08008215WA0117801189002036002000
B1724273727665N08008232WA0117601188002046002000
B1724283727657N08008249WA0117401185002060002000
B1724293727649N08008267WA0116901183002072002000
B1724303727643N08008285WA0116801180002088002000
B1724313727636N08008304WA0116401177002100002000
B1724323727629N08008323WA0116201174002107002000
B1724333727621N08008342WA0115901171002109002000
B1724343727613N08008362WA0115801170002109002000
B1724353727605N08008382WA0115601168002097002000
B1724363727597N08008401WA0115501166002081002000
B1724373727589N08008421WA0115501165002062002000
B1724383727580N08008442WA0115501165002046002000
B1724393727572N08008461WA0115301165002034002000
B1724403727564N08008481WA0115401164002027002000
B1724413727556N08008501WA0115201163002020002000
B1724423727548N08008521WA0115201163002015002000
B1724433727540N08008541WA0115301162002015002000
B1724443727533N08008561WA0115101162002013002000
B1724453727525N08008581WA0114901161002011002000
B1724463727517N08008600WA0114801160002011002000
B1724473727509N08008620WA0114901159002016002000
B1724483727501N08008639WA0114701159002027002000
B1724493727492N08008659WA0114801159002036002000
B1724503727482N08008678WA0114901159002041002000
B1724513727472N08008697WA0115001160002039002000
B1724523727461N08008716WA0115101161002027002000
B1724533727449N08008734WA0115401163002020002000
B1724543727436N08008752WA0115601164002015002000
B1724553727424N08008770WA0115801166002015002000
B1724563727412N08008788WA0116001168002022002000
B1724573727400N08008806WA0116301171002029002000
B1724583727387N08008824WA0116301173002032002000
B1724593727375N08008842WA0116201173002032002000
B1725003727363N08008860WA0116201173002032002000
B1725013727351N08008878WA0116201172002032002000
B1725023727339N08008896WA0116201173002029002000
B1725033727327N08008914WA0116001173002027002000
B1725043727315N08008933WA0115901172002022002000
B1725053727303N08008951WA0115601169002018002000
B1725063727291N08008970WA0115401166002018002000
B1725073727278N08008989WA0115401164002018002000
B1725083727266N08009009WA0115501163002015002000
B1725093727254N08009029WA0115401164002013002000
B1725103727242N08009048WA0115301165002009002000
B1725113727230N08009068WA0115301164002004002000
B1725123727218N08009088WA0115201164002002002000
B1725133727207N08009107WA0115201163002002002000
B1725143727196N08009127WA0115201162002002002000
B1725153727185N08009147WA0114801161002002002000
B1725163727175N08009167WA0114801160002002002000
B1725173727165N08009187WA0114501157002002002000
B1725183727155N08009208WA0114601156002006002000
B1725193727147N08009229WA0114601156002009003000
B1725203727138N08009251WA0114501156002009002000
B1725213727129N08009272WA0114101154002009003000
B1725223727121N08009294WA0113901150002011003000
B1725233727112N08009316WA0113501146002013003000
B1725243727103N08009339WA0113401143002015003000
B1725253727094N08009361WA0113401141002015002000
B1725263727085N08009384WA0113301140002009003000
B1725273727076N08009407WA0113201139002006003000
B1725283727068N08009429WA0113301138002004003000
B1725293727059N08009452WA0113601140002002003000
B1725303727051N08009475WA0114101144002004003000
B1725313727042N08009498WA0114401148002004003000
B1725323727034N08009521WA0114801151002006003000
B1725333727024N08009543WA0115101156002006003000
B1725343727015N08009565WA0115301160002002003000
B1725353727006N08009586WA0115301161002002003000
B1725363726996N08009607WA0115501162002006003000
B1725373726987N08009628WA0116201166002013003000
B1725383726977N08009648WA0116901171002018003000
B1725393726967N08009667WA0117401177002018003000
B1725403726958N08009685WA0117701182002011003000
B1725413726949N08009704WA0117901185002004003000
B1725423726940N08009722WA0118201188002002003000
F1725420529241513181020234451
B1725433726931N08009739WA0118101190002004003000
B1725443726923N08009757WA0118301191002006003000
B1725453726914N08009774WA0118401192002006003000
B1725463726906N08009792WA0118001191002004003000
B1725473726898N08009809WA0117701189002004003000
B1725483726889N08009827WA0117301186002006003000
B1725493726881N08009844WA0117101182002013003000
B1725503726872N08009863WA0116901179002025003000
B1725513726864N08009882WA0116601177002029003000
B1725523726855N08009901WA0116501175002034003000
B1725533726847N08009921WA0116301173002034003000
B1725543726838N08009941WA0116301172002032003000
B1725553726830N08009961WA0116001170002029003000
B1725563726822N08009981WA0115801168002022003000
B1725573726814N08010002WA0115801167002020003000
B1725583726807N08010023WA0115901166002022003000
B1725593726800N08010045WA0115901167002025003000
B1726003726793N08010067WA0115801167002029003000
B1726013726787N08010088WA0115501165002032003000
B1726023726782N08010110WA0115501163002032003000
B1726033726776N08010132WA0115501163002032003000
B1726043726771N08010155WA0115301163002032003000
B1726053726765N08010177WA0115501162002029003000
B1726063726759N08010199WA0115201161002025003000
B1726073726753N08010222WA0115201160002020003000
B1726083726747N08010244WA0115501161002015003000
B1726093726740N08010267WA0115501162002013003000
B1726103726733N08010289WA0115701163002011003000
B1726113726726N08010312WA0115701163002009003000
B1726123726719N08010334WA0115401163002009003000
B1726133726712N08010357WA0115301162002006003000
B1726143726705N08010379WA0115301160002006003000
B1726153726697N08010401WA0115401160002006003000
B1726163726690N08010423WA0115601161002006003000
B1726173726682N08010445WA0115801162002006003000
B1726183726674N08010467WA0115701164002004003000
B1726193726666N08010489WA0115801164002002003000
B1726203726658N08010511WA0116001165002000003000
B1726213726651N08010532WA0116101167002000003000
B1726223726643N08010554WA0116101168002004003000
B1726233726635N08010576WA0116001168002009003000
B1726243726628N08010597WA0115901167002011003000
B1726253726621N08010619WA0115901167002013003000
B1726263726614N08010641WA0116001167002013003000
B1726273726608N08010663WA0116101167002015003000
B1726283726601N08010684WA0115901167002022003000
B1726293726595N08010706WA0115801166002027003000
B1726303726589N08010727WA0115701165002027003000
B1726313726583N08010749WA0115701164002025003000
B1726323726577N08010771WA0115601163002018003000
B1726333726571N08010792WA0115701163002015003000
B1726343726565N08010814WA0115601164002015003000
B1726353726559N08010836WA0115601165002013003000
B1726363726552N08010857WA0115701165002015003000
B1726373726546N08010879WA0115701164002015003000
B1726383726540N08010900WA0115901165002013003000
B1726393726534N08010922WA0116001166002013003000
B1726403726528N08010944WA0116301168002011003000
B1726413726522N08010965WA0116801170002009003000
B1726423726518N08010987WA0116701173002009003000
B1726433726513N08011008WA0116901174002006003000
B1726443726508N08011030WA0116601174002004003000
B1726453726504N08011051WA0116701173002004003000
B1726463726500N08011073WA0116601172002002003000
B1726473726495N08011095WA0116401171002011003000
B1726483726491N08011118WA0116201170002016003000
B1726493726487N08011141WA0116301169002018003000
B1726503726482N08011164WA0117101171002025003000
B1726513726477N08011186WA0117101174002018003000
B1726523726473N08011209WA0117301177002015003000
B1726533726468N08011230WA0117401179002015003000
B1726543726463N08011252WA0117501180002011003000
B1726553726457N08011273WA0118001182002013003000
B1726563726452N08011295WA0118301184002018003000
B1726573726446N08011316WA0118201187002022003000
B1726583726441N08011337WA0118601189002032003000
B1726593726436N08011358WA0118801191002043003000
B1727003726432N08011379WA0119101194002050003000
B1727013726431N08011399WA0119301196002050003000
B1727023726432N08011418WA0119601199002050003000
B1727033726436N08011435WA0119701202002043003000
B1727043726442N08011450WA0120001205002034003000
B1727053726451N08011464WA0120301207002032003000
B1727063726461N08011474WA0120601210003027004000
B1727073726473N08011481WA0121001214003022004000
B1727083726486N08011484WA0121601219003022004000
B1727093726500N08011484WA0122101224003022004000
B1727103726513N08011480WA0122501229003022004000
B1727113726527N08011474WA0122801233003027004000
B1727123726540N08011464WA0123001236003032004000
B1727133726552N08011452WA0123101239003032004000
B1727143726563N08011438WA0123201240003036003000
B1727153726574N08011423WA0123301240002043003000
B1727163726584N08011405WA0123201241002055003000
B1727173726592N08011385WA0123001240002067003000
B1727183726600N08011363WA0123001240002067003000
B1727193726607N08011340WA0123301240002057003000
B1727203726613N08011316WA0123101240002043003000
B1727213726618N08011292WA0123101240002031003000
B1727223726622N08011266WA0123101240002034003000
B1727233726626N08011241WA0123101239002045003000
B1727243726629N08011215WA0123101239002064003000
B1727253726631N08011190WA0123201240002088003000
B1727263726634N08011164WA0123201240002109003000
B1727273726635N08011138WA0123301241002118003000
B1727283726637N08011112WA0123501242002125003000
B1727293726638N08011086WA0123801244002130003000
F17272905292415131810234451
B1727303726639N08011060WA0123901246002123003000
B1727313726639N08011034WA0123801247002121003000
B1727323726640N08011008WA0123901248002116003000
B1727333726641N08010982WA0124001248002102003000
B1727343726642N08010956WA0123801248002093003000
B1727353726644N08010930WA0123501247002088003000
B1727363726646N08010903WA0123301244002079003000
B1727373726648N08010877WA0123301243002086003000
B1727383726651N08010851WA0123301243002102003000
B1727393726656N08010826WA0123301243002116003000
F1727390529241513181020234451
B1727403726661N08010801WA0123301243002130003000
B1727413726667N08010776WA0123101242002130003000
B1727423726673N08010751WA0122801241002116003000
B1727433726679N08010726WA0122901240002100003000
B1727443726686N08010701WA0122801239002081003000
B1727453726693N08010676WA0122701239002067003000
B1727463726700N08010652WA0122801238002055003000
B1727473726707N08010627WA0122901238002043003000
B1727483726715N08010603WA0122601238002046003000
B1727493726722N08010578WA0122801238002055003000
B1727503726728N08010553WA0123001239002064003000
B1727513726735N08010528WA0123101240002071003000
B1727523726740N08010503WA0123001241002064003000
B1727533726745N08010477WA0123101242002053003000
B1727543726750N08010451WA0122901241002043003000
B1727553726754N08010425WA0122801240002039003000
B1727563726759N08010399WA0122501238002051003000
B1727573726763N08010373WA0122301236002067003000
B1727583726768N08010346WA0122201234002086003000
B1727593726773N08010320WA0122101232002112003000
B1728003726778N08010293WA0122201231002126003000
B1728013726784N08010266WA0122201232002133003000
B1728023726790N08010240WA0122101232002133003000
B1728033726796N08010213WA0122401232002116003000
B1728043726802N08010185WA0122301233002095003000
B1728053726808N08010158WA0122201234002071003000
B1728063726815N08010131WA0122401234002053003000
B1728073726822N08010104WA0122501234002043003000
F17280705292415131810202344
B1728083726828N08010078WA0122601235002036003000
B1728093726835N08010051WA0122501236002027003000
B1728103726842N08010024WA0122501236002022003000
B1728113726849N08009997WA0122701236002018003000
B1728123726856N08009970WA0122501237002013003000
B1728133726862N08009943WA0122401237002013003000
B1728143726868N08009916WA0122201236002011003000
B1728153726874N08009888WA0122001233002009003000
B1728163726879N08009860WA0121701231002009003000
B1728173726886N08009832WA0121601229002018003000
B1728183726893N08009804WA0121501227002032003000
B1728193726900N08009777WA0121601226002046003000
B1728203726908N08009750WA0121501226002062003000
B1728213726917N08009723WA0121401226002072003000
B1728223726926N08009697WA0121101224002083003000
B1728233726935N08009671WA0120601221002093003000
B1728243726944N08009645WA0120301217002093003000
B1728253726953N08009618WA0120301215002088003000
B1728263726963N08009592WA0120601214002078003000
B1728273726973N08009565WA0120601215002069003000
B1728283726983N08009538WA0120501216002064003000
B1728293726992N08009512WA0120601216002057003000
B1728303727002N08009486WA0120401215002050003000
B1728313727013N08009460WA0120601215002046003000
B1728323727023N08009435WA0120701216002048003000
B1728333727033N08009409WA0120701217002057003000
B1728343727044N08009385WA0120701217002060003000
B1728353727055N08009360WA0120701218002057003000
B1728363727067N08009337WA0120601217002050003000
B1728373727079N08009314WA0120601217002041003000
B1728383727093N08009292WA0120701217002034003000
B1728393727106N08009271WA0120501216002032003000
B1728403727121N08009251WA0120201215002039003000
B1728413727136N08009232WA0120001213002046003000
B1728423727151N08009215WA0120101211002064003000
B1728433727168N08009199WA0120001211002081003000
B1728443727184N08009184WA0120301212002078003000
B1728453727202N08009172WA0120301213002076003000
B1728463727220N08009161WA0120301214002060003000
B1728473727238N08009152WA0120601214002043003000
B1728483727256N08009144WA0121001216002034003000
B1728493727275N08009138WA0121001219002020003000
B1728503727294N08009133WA0121201221002013003000
B1728513727312N08009129WA0121301222002013003000
B1728523727331N08009126WA0121701224002020003000
B1728533727350N08009123WA0121701226002032003000
B1728543727369N08009120WA0121601226002041003000
B1728553727388N08009117WA0121601227002041003000
B1728563727408N08009114WA0121701228002036003000
B1728573727427N08009112WA0121801228002031003000
B1728583727447N08009111WA0121601228002027003000
B1728593727466N08009110WA0121301227002027003000
B1729003727485N08009110WA0121101225002027003000
B1729013727504N08009111WA0120901223002024003000
B1729023727523N08009114WA0120801220002020003000
B1729033727541N08009118WA0120301218002018003000
B1729043727558N08009126WA0120701217002013003000
B1729053727572N08009139WA0121101217003013004000
B1729063727582N08009155WA0120801218003013004000
B1729073727589N08009174WA0120901219003011004000
B1729083727594N08009193WA0121001219003013003000
B1729093727596N08009213WA0120801219003018003000
B1729103727598N08009233WA0120501218002025003000
B1729113727599N08009253WA0120301216002034003000
B1729123727599N08009273WA0119801213002043003000
B1729133727600N08009293WA0119301207002050003000
B1729143727600N08009313WA0119001202002053003000
B1729153727599N08009334WA0118201197002050003000
B1729163727596N08009355WA0117701191002046003000
B1729173727593N08009376WA0117201186002034003000
B1729183727588N08009398WA0117701183002029003000
B1729193727581N08009420WA0117601183002025003000
B1729203727574N08009442WA0117801184002020003000
B1729213727566N08009465WA0117901186002025003000
B1729223727558N08009487WA0118201189002025003000
B1729233727551N08009509WA0118801193002025003000
B1729243727544N08009531WA0119601198002025003000
B1729253727538N08009552WA0119501202002020003000
B1729263727531N08009573WA0119701204002015003000
B1729273727524N08009594WA0119901206002011003000
B1729283727516N08009615WA0120001208002006003000
B1729293727509N08009636WA0119901209002002003000
B1729303727503N08009657WA0119901208002000003000
B1729313727497N08009679WA0120001207002000003000
B1729323727494N08009702WA0119901207002000003000
B1729333727491N08009725WA0120001207002000003000
B1729343727490N08009747WA0120101208002000003000
B1729353727490N08009770WA0120301210002000003000
B1729363727490N08009793WA0120501211002000003000
B1729373727490N08009816WA0120401212002000003000
B1729383727490N08009839WA0120301213002000003000
B1729393727489N08009862WA0119901211002000003000
B1729403727487N08009885WA0120201210002000003000
B1729413727483N08009908WA0120301210002004003000
B1729423727477N08009931WA0120401211002006003000
B1729433727468N08009952WA0120701214002009003000
B1729443727457N08009971WA0121301216002011003000
B1729453727443N08009987WA0122201221002011003000
B1729463727426N08009997WA0122901229003009004000
B1729473727406N08010000WA0123701237004006005000
B1729483727385N08009996WA0124101244004004005000
B1729493727365N08009987WA0124601248004011005000
F172949052924151318102023
B1729503727347N08009972WA0124701251004027005000
B1729513727331N08009952WA0124501252005048005000
B1729523727319N08009927WA0124201251005072005000
B1729533727309N08009899WA0123901248005095005000
B1729543727304N08009871WA0123901246004114004000
B1729553727301N08009841WA0123601244004128004000
B1729563727301N08009811WA0123201241004137004000
B1729573727303N08009781WA0123101240004137004000
B1729583727308N08009752WA0123101240003137004000
B1729593727315N08009725WA0123101241003130004000
B1730003727325N08009700WA0123301241003111004000
B1730013727337N08009678WA0123001241002095003000
B1730023727350N08009658WA0122901241002083003000
B1730033727365N08009640WA0122901240002079003000
B1730043727381N08009624WA0122601238002086003000
B1730053727397N08009611WA0122801238002097003000
B1730063727415N08009602WA0122801238002109003000
B1730073727433N08009596WA0122901238002125003000
B1730083727451N08009594WA0123301239002135003000
B1730093727468N08009594WA0123401241002132003000
B1730103727486N08009596WA0123501243002118003000
B1730113727502N08009599WA0123701245002107003000
B1730123727519N08009603WA0123801247002100003000
B1730133727534N08009609WA0124401250002097003000
B1730143727549N08009617WA0124901254002102003000
B1730153727563N08009626WA0125401260002092003000
B1730163727576N08009636WA0125701264002081003000
B1730173727587N08009648WA0125901267002064003000
B1730183727596N08009664WA0125801269003045004000
B1730193727601N08009681WA0125801269003029004000
B1730203727601N08009700WA0126301270003020004000
B1730213727596N08009718WA0126601273003015004000
B1730223727585N08009733WA0126701275004013004000
B1730233727571N08009742WA0126801276002020003000
B1730243727553N08009744WA0126801276003027004000
F1730240529151318102023
B1730253727535N08009739WA0126901276003041004000
B1730263727517N08009726WA0126901276004053004000
F173026052924151318102023
B1730273727503N08009708WA0127101276004053004000
B1730283727493N08009685WA0127001277004053004000
B1730293727487N08009661WA0126701276003055004000
B1730303727484N08009636WA0126601275003067004000
B1730313727484N08009611WA0127001274003086004000
B1730323727488N08009586WA0127001275003090004000
B1730333727494N08009563WA0127301278003088003000
B1730343727502N08009541WA0127601281002072003000
B1730353727511N08009520WA0127601284002053003000
B1730363727521N08009500WA0127701286002046003000
B1730373727533N08009481WA0127901287002032003000
B1730383727546N08009464WA0128101289002023003000
B1730393727560N08009450WA0128201292002016003000
B1730403727576N08009441WA0128301294002011003000
B1730413727593N08009437WA0128301295002022003000
B1730423727609N08009439WA0128501295002041003000
B1730433727624N08009446WA0128401295002067003000
B1730443727638N08009455WA0128301294003088004000
B1730453727650N08009467WA0128101293003107004000
B1730463727659N08009482WA0127901291003121004000
B1730473727665N08009499WA0127801289003132004000
B1730483727668N08009518WA0127801288003132004000
B1730493727667N08009537WA0127701288003125004000
B1730503727664N08009555WA0127601286003109004000
B1730513727658N08009573WA0127701285003083004000
B1730523727649N08009590WA0127701285003074004000
B1730533727638N08009605WA0127601285003069004000
B1730543727626N08009620WA0127601285003064004000
B1730553727612N08009633WA0127701285003062004000
B1730563727596N08009644WA0127601285002053003000
B1730573727580N08009654WA0127801286002038003000
B1730583727563N08009662WA0127601287002029003000
B1730593727545N08009669WA0127601287002034003000
B1731003727527N08009675WA0127801286002043003000
B1731013727507N08009678WA0128001288002055003000
B1731023727487N08009677WA0128301290002067003000
B1731033727467N08009673WA0128601292002064003000
B1731043727447N08009664WA0128801295003055004000
B1731053727428N08009652WA0129001297003046004000
B1731063727410N08009635WA0129201299003043004000
B1731073727395N08009615WA0129201300003046004000
B1731083727383N08009593WA0129301301003062004000
B1731093727372N08009569WA0129401302003074004000
B1731103727364N08009544WA0129201302003076004000
B1731113727358N08009517WA0129101301003081004000
B1731123727355N08009489WA0128901301003088004000
B1731133727355N08009462WA0128901300003095004000
B1731143727356N08009435WA0128901299003114004000
F1731140529241513181023
B1731153727361N08009408WA0128701299002128003000
B1731163727366N08009381WA0128701298002126003000
B1731173727374N08009355WA0128701298002128003000
B1731183727382N08009330WA0128701299002128003000
B1731193727392N08009305WA0129101299002118003000
B1731203727405N08009283WA0129001301002109003000
B1731213727419N08009263WA0129101303002092003000
B1731223727435N08009246WA0129501304002069003000
B1731233727452N08009232WA0129801308002050004000
F173123052924151318102023
B1731243727470N08009220WA0130001311002038004000
B1731253727489N08009214WA0130601314003029004000
B1731263727508N08009214WA0130801318003020004000
F1731260529241513181023
B1731273727527N08009219WA0131401322003013004000
F173127052924151318102023
B1731283727542N08009231WA0132001327003006004000
B1731293727553N08009247WA0132201331003002004000
B1731303727559N08009267WA0132401334004000005000
B1731313727561N08009288WA0132401336004000005000
B1731323727557N08009309WA0132701336003002005000
B1731333727549N08009328WA0132501336003011004000
B1731343727537N08009345WA0132301335003034004000
B1731353727523N08009359WA0132101334003058004000
F17313505292415131810204423
B1731363727505N08009368WA0132201333003079004000
B1731373727486N08009373WA0132101332003081004000
B1731383727465N08009373WA0132101332003071004000
B1731393727445N08009367WA0132301332003069004000
B1731403727426N08009356WA0132601333003074004000
B1731413727408N08009341WA0132401334003090004000
F173141052924151318104423
B1731423727392N08009323WA0132701335003102004000
B1731433727378N08009302WA0132701337002100004000
B1731443727366N08009280WA0132401336002088004000
B1731453727356N08009257WA0132001334002076004000
B1731463727348N08009231WA0131801332002072004000
B1731473727343N08009204WA0131601330002076004000
B1731483727339N08009175WA0131301328002090004000
B1731493727338N08009146WA0131201326003102004000
B1731503727338N08009116WA0131201325002107004000
B1731513727340N08009086WA0131301324002104004000
B1731523727344N08009056WA0131401326002088004000
B1731533727348N08009027WA0131701328002071003000
B1731543727353N08008998WA0132201331002053003000
B1731553727358N08008969WA0132601335002038003000
B1731563727364N08008941WA0133201340002029003000
B1731573727372N08008916WA0133201343002020003000
B1731583727384N08008893WA0133301345002015004000
B1731593727400N08008878WA0134001349003013004000
B1732003727417N08008869WA0134601354003013005000
B1732013727434N08008867WA0135101360003015004000
B1732023727450N08008872WA0135201364004022005000
B1732033727463N08008883WA0135301365004036005000
B1732043727472N08008899WA0135501365004062005000
B1732053727476N08008917WA0135501365004090005000
B1732063727475N08008937WA0135401365004109005000
B1732073727469N08008956WA0135301365003121005000
B1732083727459N08008973WA0135301365003125005000
B1732093727446N08008987WA0135301365003128004000
B1732103727430N08008998WA0135401365003132004000
B1732113727413N08009003WA0135801366003125004000
B1732123727394N08009002WA0136001369003109004000
B1732133727376N08008995WA0136301372002085004000
B1732143727359N08008981WA0136501374003064004000
F1732140529241513181023
B1732153727346N08008963WA0136501375003053004000
B1732163727338N08008940WA0136901377003043004000
B1732173727335N08008916WA0136901379003039004000
B1732183727338N08008892WA0137001380003032004000
B1732193727346N08008871WA0136901381003025004000
B1732203727359N08008856WA0136601381003018004000
B1732213727373N08008847WA0136901380002011004000
B1732223727389N08008845WA0137101381003006004000
B1732233727404N08008851WA0136901382003011004000
B1732243727415N08008862WA0137301381003023004000
B1732253727423N08008878WA0137101380003039004000
B1732263727427N08008895WA0137001379003060004000
B1732273727430N08008914WA0137001379002064004000
B1732283727431N08008934WA0136901379002067004000
B1732293727431N08008953WA0136901379002079004000
B1732303727431N08008973WA0136901379002088003000
B1732313727431N08008993WA0136901379002097003000
B1732323727430N08009013WA0137201380002097003000
B1732333727429N08009033WA0137601382002081003000
B1732343727427N08009054WA0137801385002057003000
B1732353727426N08009074WA0138001387002041003000
B1732363727422N08009095WA0138301390002027003000
B1732373727414N08009114WA0138601392002025004000
B1732383727402N08009129WA0139001395002034004000
B1732393727386N08009139WA0139301398002053004000
B1732403727367N08009142WA0139401400003079004000
B1732413727348N08009137WA0139601401003097004000
B1732423727330N08009126WA0139401401003107004000
B1732433727315N08009109WA0139501400003109005000
B1732443727302N08009088WA0139401400003100005000
B1732453727294N08009063WA0139401401003085005000
B1732463727290N08009037WA0139501402003069005000
B1732473727292N08009010WA0139501403003050004000
B1732483727299N08008986WA0139801405003048004000
B1732493727311N08008966WA0139801408003058004000
F173249052924151318102351
B1732503727327N08008952WA0139901410003065004000
B1732513727344N08008946WA0140301412003069004000
B1732523727361N08008949WA0140401414003062004000
B1732533727376N08008958WA0140601416003046004000
B1732543727387N08008973WA0140601417003034004000
B1732553727393N08008992WA0141001418003025004000
B1732563727392N08009014WA0141101420003015004000
B1732573727385N08009034WA0141301422003013004000
B1732583727372N08009051WA0141301424003022004000
B1732593727356N08009064WA0141501425003027004000
B1733003727337N08009070WA0141801426002039004000
B1733013727317N08009069WA0142001428003053004000
B1733023727296N08009063WA0142201429003067004000
B1733033727276N08009052WA0142101430003079004000
B1733043727259N08009035WA0142201430003083004000
B1733053727243N08009016WA0142101431003076004000
B1733063727230N08008993WA0142101431003058004000
B1733073727219N08008969WA0141901431003043004000
B1733083727211N08008942WA0142101431003032004000
B1733093727207N08008914WA0142401433003025004000
B1733103727207N08008885WA0142501435003022004000
B1733113727213N08008858WA0142901438003025004000
B1733123727223N08008834WA0143001440003029004000
B1733133727236N08008814WA0143201442003046004000
B1733143727251N08008798WA0143201444002058004000
B1733153727268N08008786WA0143301445002060004000
B1733163727286N08008778WA0143501446002060004000
B1733173727304N08008773WA0143601447003043004000
B1733183727323N08008772WA0143901449003029004000
B1733193727341N08008775WA0144301452003020004000
B1733203727360N08008779WA0144501455003011004000
B1733213727377N08008787WA0145201457003016004000
B1733223727392N08008798WA0145101460003018004000
B1733233727406N08008812WA0144801461003022004000
B1733243727419N08008827WA0144901461002027004000
B1733253727430N08008843WA0145001461002018004000
B1733263727441N08008860WA0145001461002011004000
B1733273727452N08008878WA0144501460002004004000
B1733283727462N08008895WA0144501458002002004000
B1733293727471N08008913WA0144601457002013004000
B1733303727480N08008931WA0144701458002030004000
B1733313727488N08008949WA0145001460002046004000
B1733323727495N08008968WA0145001461002067004000
B1733333727502N08008986WA0145101462002086004000
B1733343727508N08009004WA0145301463002100004000
B1733353727514N08009022WA0145401465002107004000
B1733363727520N08009040WA0145401466002104004000
B1733373727525N08009057WA0145401467002090004000
B1733383727531N08009075WA0145501467002079004000
B1733393727536N08009092WA0145601467002079004000
B1733403727540N08009110WA0145601468002081004000
B1733413727544N08009129WA0145801469002086003000
B1733423727547N08009147WA0145701469002086003000
B1733433727551N08009166WA0146101470002083003000
B1733443727555N08009185WA0146201473002079003000
B1733453727558N08009203WA0146401475002074003000
B1733463727562N08009221WA0146801477002067003000
B1733473727567N08009240WA0147201480002055003000
B1733483727572N08009257WA0147401483002043003000
B1733493727577N08009275WA0147401485002032003000
B1733503727584N08009292WA0147601487002022003000
B1733513727591N08009308WA0147701488002015003000
B1733523727598N08009324WA0147701489002011003000
B1733533727606N08009339WA0147801489002016003000
B1733543727614N08009355WA0147701489002020003000
B1733553727623N08009370WA0147701489002029003000
B1733563727631N08009385WA0147701489002043003000
B1733573727640N08009400WA0147601489002053003000
B1733583727649N08009415WA0147401488002071003000
B1733593727658N08009430WA0147101486002092003000
B1734003727666N08009445WA0146701483002113003000
B1734013727675N08009461WA0146301479002137003000
B1734023727684N08009478WA0145701474002153003000
B1734033727693N08009496WA0145101469002165003000
B1734043727702N08009514WA0144601463002170003000
B1734053727711N08009533WA0144301459002167003000
B1734063727720N08009552WA0143901455002163003000
B1734073727729N08009572WA0143501451002153003000
B1734083727739N08009592WA0143301448002144003000
B1734093727749N08009612WA0142901445002121003000
B1734103727759N08009633WA0142701443002100003000
B1734113727770N08009653WA0142601441002074003000
B1734123727780N08009674WA0142301439002048003000
B1734133727790N08009695WA0142201437002041003000
B1734143727800N08009717WA0142001435002034003000
B1734153727810N08009738WA0141601432002034003000
B1734163727818N08009760WA0141001428002037003000
B1734173727826N08009783WA0140701424002032003000
B1734183727835N08009806WA0140501421002029003000
B1734193727842N08009829WA0140501419002029003000
B1734203727850N08009852WA0140301418002029003000
B1734213727858N08009875WA0140201417002034003000
B1734223727866N08009897WA0140401416002034003000
B1734233727874N08009920WA0140001416002029003000
B1734243727882N08009942WA0139901415002027003000
B1734253727889N08009965WA0139901413002022003000
B1734263727895N08009987WA0139701412002018003000
B1734273727899N08010010WA0139401410002013003000
B1734283727902N08010033WA0139401409002009003000
B1734293727902N08010056WA0139301408002004003000
B1734303727900N08010078WA0139201406002002003000
B1734313727895N08010101WA0138801404002002004000
B1734323727887N08010122WA0138301400002000004000
B1734333727876N08010141WA0138001397002000004000
B1734343727863N08010160WA0138001393002000004000
B1734353727848N08010176WA0137901391003000004000
B1734363727830N08010191WA0137901391002000004000
B1734373727811N08010203WA0138001391003000004000
B1734383727791N08010213WA0138001392003000004000
B1734393727770N08010221WA0138001392002002004000
B1734403727748N08010227WA0138201392003002004000
B1734413727726N08010230WA0138301394003002004000
B1734423727703N08010232WA0138501395002002004000
B1734433727681N08010233WA0138601397002006004000
B1734443727658N08010233WA0138901398002023004000
B1734453727635N08010230WA0138901400003046004000
B1734463727612N08010224WA0139101402002071004000
B1734473727590N08010217WA0139201403002095004000
B1734483727567N08010209WA0139101403002111004000
B1734493727544N08010200WA0139401404002123004000
B1734503727522N08010191WA0139101404002137004000
B1734513727499N08010182WA0139101404002146004000
B1734523727477N08010171WA0139301404002149004000
B1734533727454N08010159WA0139401405002149004000
B1734543727433N08010145WA0139701407002139004000
B1734553727411N08010129WA0139901409002125004000
B1734563727391N08010112WA0139801411002111004000
B1734573727370N08010094WA0139701411002090004000
B1734583727350N08010075WA0139701410002074004000
B1734593727331N08010055WA0139301409002064004000
B1735003727313N08010033WA0139401408002062004000
B1735013727295N08010009WA0139501408002062004000
B1735023727278N08009985WA0139601409002062004000
B1735033727261N08009961WA0140001410002055004000
B1735043727245N08009936WA0140401413002043004000
B1735053727231N08009909WA0141101418002034004000
B1735063727220N08009880WA0141801425003022004000
B1735073727216N08009849WA0142401433003018004000
B1735083727219N08009820WA0142901440003013004000
B1735093727228N08009794WA0143401445004015004000
B1735103727242N08009774WA0143701450004018004000
B1735113727259N08009761WA0144101453003015004000
B1735123727277N08009755WA0144101455003013004000
F17351227052924151318102351
B1735133727294N08009756WA0143701455003013004000
B1735143727309N08009763WA0143801454003022004000
B1735153727320N08009776WA0144001454003036004000
B1735163727325N08009792WA0144101456003062004000
B1735173727324N08009810WA0144401457003081004000
B1735183727318N08009826WA0144501458003095004000
B1735193727308N08009839WA0144501460002107003000
B1735203727294N08009849WA0144301459002104003000
B1735213727277N08009854WA0144101458002104003000
B1735223727259N08009852WA0144001456002104003000
B1735233727240N08009844WA0144501455002107003000
B1735243727223N08009829WA0144501457002100003000
B1735253727207N08009811WA0144901459002090003000
B1735263727193N08009789WA0144701460002074003000
B1735273727181N08009765WA0144701461002053003000
B1735283727172N08009739WA0145001462002048003000
B1735293727168N08009711WA0145001463002046003000
B1735303727167N08009683WA0145001464002055003000
B1735313727170N08009656WA0145201465002074003000
B1735323727176N08009629WA0145301465002095003000
B1735333727183N08009603WA0145401466002109003000
B1735343727192N08009578WA0145401466002114003000
B1735353727202N08009554WA0145301466002109003000
B1735363727214N08009531WA0145301466002095003000
B1735373727227N08009509WA0145301466002081003000
B1735383727240N08009489WA0145501466002064003000
B1735393727255N08009472WA0145501467002048003000
B1735403727271N08009457WA0145501467002036003000
B1735413727288N08009444WA0145501467002034003000
B1735423727305N08009434WA0145501467002043003000
B1735433727322N08009428WA0145101465002062003000
B1735443727339N08009424WA0144901463002083003000
B1735453727355N08009425WA0144801461002102003000
B1735463727371N08009429WA0144801460002109003000
B1735473727385N08009437WA0144701459002116003000
B1735483727397N08009448WA0144401457002116003000
B1735493727407N08009461WA0144101455002107003000
B1735503727414N08009478WA0144101453003102004000
B1735513727416N08009496WA0144001451003093004000
F173551052924151318102351
B1735523727414N08009515WA0143801449003095004000
B1735533727409N08009533WA0143901448003102004000
F17355327052924151318102351
B1735543727400N08009549WA0143801448002107003000
B1735553727388N08009564WA0143601447002109003000
B1735563727375N08009577WA0143601445002097003000
B1735573727360N08009589WA0143301443002085003000
B1735583727343N08009600WA0142801442002081003000
B1735593727326N08009610WA0142601439002083003000
B1736003727309N08009619WA0142201435002093003000
B1736013727291N08009628WA0142001432002098003000
B1736023727271N08009634WA0141701430002102003000
B1736033727251N08009638WA0141601428002102003000
B1736043727230N08009641WA0141601426002100003000
B1736053727209N08009643WA0141601426002102003000
B1736063727187N08009643WA0141901427002107003000
B1736073727166N08009644WA0142201430002102003000
B1736083727144N08009643WA0142301432002095003000
B1736093727122N08009642WA0142401434002081003000
B1736103727101N08009641WA0142601435002060003000
B1736113727079N08009637WA0143001437002046003000
B1736123727057N08009629WA0143101439002037003000
B1736133727036N08009615WA0143601443003041003000
B1736143727018N08009595WA0144301448003050004000
B1736153727004N08009571WA0144601453003057004000
B1736163726993N08009544WA0145001458003064004000
B1736173726988N08009516WA0145301462003069004000
B1736183726987N08009488WA0145701466003067004000
B1736193726991N08009461WA0145601469003062003000
B1736203726999N08009435WA0145901470003055003000
B1736213727010N08009413WA0145901472003046004000
B1736223727024N08009394WA0146101474003034003000
B1736233727041N08009381WA0146101474003025004000
B1736243727058N08009372WA0145901474003022003000
B1736253727076N08009370WA0146001473003020004000
B1736263727092N08009374WA0146101473003025003000
B1736273727106N08009384WA0145801473003039003000
B1736283727116N08009398WA0145701471003050004000
B1736293727122N08009415WA0145501469003074004000
B1736303727123N08009434WA0145501468003097003000
B1736313727120N08009454WA0145301468003113004000
B1736323727113N08009472WA0145301466003134003000
B1736333727102N08009489WA0145301465002146003000
B1736343727088N08009503WA0145301465002158003000
B1736353727071N08009512WA0146101466002158003000
B1736363727051N08009515WA0146501470002146003000
B1736373727030N08009514WA0146501473002130003000
B1736383727010N08009510WA0146401474002102003000
B1736393726988N08009505WA0146301474002083003000
B1736403726967N08009497WA0146001472002064003000
B1736413726946N08009486WA0145801471002046003000
B1736423726926N08009470WA0145901470002039003000
B1736433726909N08009449WA0145901470003041004000
B1736443726896N08009424WA0146101471003046004000
B1736453726887N08009396WA0146301471003057004000
B1736463726882N08009367WA0145901472003071004000
B1736473726880N08009338WA0145701471002076003000
B1736483726882N08009309WA0145201468003079003000
B1736493726886N08009281WA0144901464002086003000
B1736503726893N08009253WA0144501460003093004000
B1736513726902N08009227WA0144401457003097003000
B1736523726914N08009202WA0143801453002102003000
B1736533726927N08009179WA0143601449002100003000
B1736543726941N08009156WA0143901448002095003000
B1736553726956N08009134WA0144001450002093003000
B1736563726972N08009113WA0144101451002090003000
B1736573726987N08009093WA0144101452002083003000
B1736583727003N08009074WA0143901452002081003000
B1736593727019N08009055WA0143701450002079003000
B1737003727035N08009036WA0143401448002076003000
B1737013727051N08009018WA0143101445002083003000
B1737023727068N08008999WA0142901442002083003000
B1737033727085N08008981WA0142801440002081003000
B1737043727102N08008963WA0142601438002083003000
B1737053727119N08008946WA0142401437002074003000
B1737063727135N08008928WA0142301435002060003000
B1737073727152N08008909WA0142301434002048003000
B1737083727168N08008891WA0142501435002039003000
B1737093727184N08008873WA0142201435002034003000
B1737103727200N08008855WA0142001433002029003000
B1737113727216N08008836WA0141901431002027003000
B1737123727232N08008818WA0141501428002020003000
B1737133727247N08008800WA0141401426002013003000
B1737143727263N08008782WA0141501425002009003000
B1737153727278N08008763WA0141501424002011003000
B1737163727293N08008744WA0141401424002022003000
B1737173727308N08008725WA0141301423002039003000
B1737183727322N08008706WA0141301423002060003000
B1737193727336N08008686WA0141201422002076003000
B1737203727350N08008666WA0141101421002086003000
B1737213727364N08008646WA0141001420002095003000
B1737223727377N08008626WA0140901419002107003000
B1737233727391N08008605WA0140801418002118003000
B1737243727404N08008585WA0140901417002130003000
B1737253727417N08008563WA0140701417002137003000
B1737263727431N08008542WA0140801417002137003000
B1737273727443N08008520WA0140701417002132003000
B1737283727456N08008497WA0140901417002116003000
B1737293727469N08008475WA0140801417002095003000
B1737303727482N08008453WA0140601417002074003000
B1737313727495N08008431WA0140701416002057003000
B1737323727508N08008409WA0140801416002055003000
B1737333727521N08008387WA0140801416002055003000
B1737343727534N08008365WA0140901416002053003000
B1737353727548N08008344WA0141001418002043003000
B1737363727563N08008325WA0141301419002029003000
B1737373727577N08008306WA0141401421002018003000
B1737383727593N08008290WA0141601423002011003000
B1737393727609N08008275WA0141401423002009003000
B1737403727625N08008260WA0141501423002009003000
B1737413727641N08008246WA0141501423002009003000
B1737423727658N08008233WA0141401423002016003000
B1737433727675N08008222WA0141401423002025003000
B1737443727692N08008211WA0141301422002041003000
B1737453727710N08008202WA0141101421002062003000
B1737463727728N08008194WA0141101420002076003000
B1737473727746N08008188WA0141101419002083003000
B1737483727763N08008184WA0141101419002081003000
B1737493727781N08008181WA0141101420002069003000
B1737503727798N08008179WA0141301420002064003000
B1737513727815N08008179WA0141301421002067003000
B1737523727832N08008179WA0141301421002076003000
B1737533727848N08008181WA0141201421002086003000
B1737543727863N08008184WA0141201421002088003000
B1737553727878N08008190WA0140801420002083003000
B1737563727893N08008196WA0140701418002069003000
B1737573727907N08008203WA0140601416002067003000
B1737583727921N08008211WA0140601415002069003000
B1737593727935N08008219WA0140501414002081003000
B1738003727948N08008228WA0140401412002097003000
B1738013727961N08008238WA0140101411002107003000
B1738023727974N08008248WA0140101410002109003000
B1738033727987N08008260WA0139801408002107003000
B1738043727999N08008273WA0139801406002104003000
B1738053728010N08008287WA0139701406002099003000
B1738063728020N08008303WA0139601406002092003000
B1738073728029N08008319WA0139501405002085003000
B1738083728038N08008336WA0139401405002071003000
B1738093728046N08008353WA0139601405002057003000
B1738103728054N08008371WA0139601405002050003000
B1738113728061N08008389WA0139601406002048003000
B1738123728068N08008407WA0139501406002053003000
B1738133728075N08008425WA0139401405002060003000
B1738143728081N08008444WA0139101404002067003000
B1738153728086N08008463WA0139101402002064003000
B1738163728091N08008483WA0138801400002057003000
B1738173728095N08008503WA0138601398002050003000
B1738183728098N08008523WA0138401396002039003000
B1738193728101N08008543WA0138201394002034003000
B1738203728103N08008564WA0138201393002034003000
B1738213728105N08008584WA0138101392002034003000
B1738223728106N08008605WA0138101391002037003000
B1738233728108N08008626WA0138101391002032003000
B1738243728109N08008646WA0137801390002032003000
B1738253728110N08008667WA0137601388002034003000
B1738263728110N08008688WA0137501387002039003000
B1738273728109N08008709WA0137701387002057003000
B1738283728105N08008730WA0137801387002064003000
B1738293728100N08008751WA0137801388002064003000
B1738303728092N08008770WA0137901388002057003000
B1738313728081N08008787WA0138101389002039003000
B1738323728067N08008802WA0138301391002025003000
B1738333728051N08008813WA0138401392002027003000
B1738343728032N08008820WA0138401393003041004000
B1738353728013N08008823WA0138101393003062004000
B1738363727993N08008821WA0137801390003088004000
B1738373727972N08008816WA0137501387003109004000
B1738383727952N08008807WA0137101383003125004000
B1738393727931N08008795WA0136701380003139004000
B1738403727911N08008781WA0136301375003151004000
B1738413727892N08008765WA0135701370003153004000
B1738423727872N08008747WA0135501366003151004000
B1738433727853N08008728WA0135201364002151004000
B1738443727834N08008707WA0135101362002151003000
B1738453727815N08008687WA0134901361002153003000
B1738463727796N08008666WA0134801360002160003000
B1738473727777N08008645WA0134601358002160003000
B1738483727759N08008624WA0134501357002163003000
B1738493727740N08008602WA0134201354002153003000
B1738503727721N08008580WA0133701352002135003000
B1738513727703N08008558WA0133801349002114003000
B1738523727685N08008534WA0133901349002088003000
B1738533727667N08008511WA0134101350002069003000
B1738543727648N08008489WA0134601353002055003000
B1738553727629N08008468WA0134801356002041003000
B1738563727610N08008448WA0135001358002032003000
B1738573727590N08008428WA0135001360002029003000
B1738583727570N08008409WA0135201361002027003000
B1738593727551N08008390WA0135201362002029003000
B1739003727531N08008371WA0135301362002027003000
B1739013727511N08008351WA0135401363002022003000
B1739023727492N08008332WA0135601364002018003000
B1739033727473N08008312WA0135801366002011003000
B1739043727454N08008293WA0135701367002006003000
B1739053727435N08008273WA0135701367002004003000
B1739063727415N08008254WA0136001368002002003000
B1739073727396N08008236WA0136201369002002003000
B1739083727376N08008217WA0136201370002000003000
B1739093727359N08008195WA0136601372002000003000
B1739103727348N08008167WA0137501376003002004000
B1739113727345N08008137WA0138101383003006004000
B1739123727349N08008108WA0138701390003009004000
B1739133727359N08008083WA0139001395003015004000
B1739143727372N08008063WA0139101398003029004000
B1739153727387N08008047WA0138901399003050004000
B1739163727403N08008037WA0138701398003081004000
B1739173727420N08008033WA0138501395003109004000
B1739183727435N08008035WA0138001392003118004000
B1739193727449N08008042WA0137801389003121004000
B1739203727460N08008054WA0137401386003119004000
B1739213727469N08008070WA0137001383004119004000
B1739223727475N08008089WA0136801380004121004000
B1739233727479N08008109WA0136601378003114004000
B1739243727480N08008130WA0136401376003102004000
B1739253727478N08008150WA0136701376003079004000
B1739263727472N08008171WA0137101378003058004000
B1739273727463N08008190WA0137301381002046004000
B1739283727452N08008207WA0137501384002041003000
B1739293727439N08008223WA0137801386002046003000
B1739303727424N08008236WA0138001388002060003000
B1739313727408N08008247WA0137901390002067003000
B1739323727390N08008256WA0138101391002069003000
B1739333727371N08008263WA0138301392002069003000
B1739343727351N08008268WA0138301394002064003000
B1739353727331N08008271WA0138801395002064003000
B1739363727310N08008273WA0139201399002064003000
B1739373727289N08008271WA0139501403002057003000
B1739383727268N08008266WA0139901406002046003000
B1739393727247N08008257WA0140201410002036003000
B1739403727229N08008241WA0140801414003025004000
B1739413727215N08008219WA0141401418003018004000
B1739423727208N08008193WA0141801423003013004000
B1739433727207N08008166WA0142001428003009004000
B1739443727214N08008141WA0142101431003006004000
B1739453727224N08008120WA0142001433003006004000
B1739463727238N08008103WA0142101434003004004000
B1739473727255N08008093WA0142201436003006004000
F173947052924151318102351
B1739483727272N08008090WA0142301437003013004000
F17394827052924151318102351
B1739493727289N08008093WA0142601439002020004000
B1739503727303N08008103WA0142701440003029004000
B1739513727313N08008116WA0142801441003029004000
B1739523727319N08008133WA0143001443002025004000
B1739533727318N08008150WA0143301445002016004000
F173953270529241513182351
B1739543727312N08008167WA0143501447002013004000
B1739553727301N08008181WA0143501448002025004000
B1739563727286N08008191WA0143701448002039004000
B1739573727267N08008196WA0143701448002046004000
B1739583727248N08008194WA0143801448002048004000
F17395827052924151318102351
B1739593727228N08008186WA0144001450003036004000
B1740003727209N08008170WA0144501452003022004000
B1740013727195N08008147WA0144601455003018004000
F174001270529241513181023
B1740023727187N08008120WA0144801457003011004000
B1740033727185N08008093WA0145101460003006004000
B1740043727189N08008066WA0145201463003004004000
B1740053727199N08008044WA0145401466003006004000
B1740063727213N08008027WA0145801469003013004000
B1740073727230N08008016WA0145701471003023004000
B1740083727247N08008010WA0145601471003029004000
B1740093727265N08008010WA0145501471002034003000
B1740103727280N08008016WA0145601471002034004000
B1740113727291N08008029WA0145601470002034004000
B1740123727298N08008046WA0145601471003037004000
B1740133727299N08008065WA0145801472003034004000
F1740132705292415131823
B1740143727295N08008085WA0145901473003032004000
B1740153727287N08008104WA0146101474003025004000
B1740163727276N08008122WA0146001474003018004000
F174016270529241513181023
B1740173727261N08008137WA0146101473003011004000
B1740183727242N08008146WA0146201473003004004000
B1740193727221N08008149WA0146501475002002004000
B1740203727199N08008145WA0146801477003000004000
B1740213727177N08008136WA0147001480003000004000
B1740223727157N08008120WA0147301482003000004000
B1740233727141N08008099WA0147801485003002004000
B1740243727129N08008073WA0147801488003009004000
B1740253727121N08008044WA0147901490003011004000
B1740263727117N08008014WA0148001491003013004000
B1740273727119N08007985WA0147901492002011004000
B1740283727126N08007958WA0148001492003018004000
B1740293727137N08007935WA0148001492003032004000
B1740303727153N08007916WA0147801492003046004000
B1740313727171N08007903WA0147501491003060004000
B1740323727190N08007897WA0147501489003069004000
B1740333727209N08007898WA0147401489003072004000
B1740343727226N08007907WA0147701490003069004000
B1740353727241N08007920WA0147901491003062004000
B1740363727251N08007938WA0148201492003048004000
B1740373727257N08007958WA0148601496003034004000
B1740383727258N08007979WA0149001500003022004000
B1740393727254N08008000WA0149401504003015004000
B1740403727245N08008020WA0149801508003011004000
B1740413727232N08008036WA0149901510003006004000
B1740423727216N08008049WA0149901512003006004000
F1740420529241513181023
B1740433727196N08008057WA0150201513003006004000
B1740443727176N08008058WA0150501514002004004000
B1740453727154N08008053WA0150601516003013004000
B1740463727134N08008041WA0150601517003023004000
B1740473727116N08008024WA0151001517003037004000
B1740483727101N08008001WA0150801517003053004000
F174048270529241513181023
B1740493727090N08007974WA0150901518003060004000
B1740503727084N08007945WA0151101520003072004000
B1740513727082N08007915WA0151101521003079004000
B1740523727083N08007886WA0150801522002083004000
B1740533727088N08007857WA0150701521002093003000
B1740543727096N08007831WA0150901521002100004000
B1740553727107N08007806WA0150901521002109004000
B1740563727121N08007784WA0150901521002123004000
B1740573727137N08007766WA0150601521002137004000
B1740583727155N08007753WA0150801519002144004000
B1740593727174N08007746WA0150601518003151004000
B1741003727194N08007745WA0150501518003153004000
B1741013727211N08007752WA0150401517003149004000
B1741023727227N08007763WA0150301517003137004000
B1741033727238N08007779WA0150701517003116004000
B1741043727246N08007798WA0151101520003097004000
B1741053727250N08007819WA0151501523003076004000
B1741063727252N08007839WA0151601527003060004000
B1741073727250N08007860WA0151801529003050004000
B1741083727247N08007880WA0151801530002050004000
B1741093727239N08007900WA0151801530003055004000
B1741103727228N08007917WA0151801531003071004000
B1741113727213N08007931WA0151901531003092004000
B1741123727196N08007941WA0151801530003102004000
B1741133727176N08007944WA0151801529003104004000
B1741143727155N08007941WA0151701528003102004000
B1741153727134N08007933WA0151701527003088004000
B1741163727114N08007918WA0151901527003069004000
B1741173727096N08007900WA0152301530003058004000
B1741183727080N08007878WA0152401533003048004000
B1741193727066N08007853WA0152701536003041004000
B1741203727054N08007827WA0152801538002039004000
B1741213727044N08007800WA0153101541002034004000
B1741223727037N08007771WA0153401544002022004000
B1741233727034N08007742WA0153701547002015004000
B1741243727034N08007714WA0154001550002015004000
B1741253727038N08007687WA0154101552002025004000
B1741263727047N08007664WA0154201554002043004000
B1741273727058N08007643WA0154301554002069004000
B1741283727072N08007627WA0153901554002090004000
B1741293727087N08007615WA0153501551002102004000
B1741303727104N08007608WA0153301547003102004000
B1741313727120N08007607WA0152901544003093004000
B1741323727137N08007610WA0152801540002088004000
B1741333727152N08007617WA0152501538002081004000
B1741343727167N08007626WA0152401537002078004000
B1741353727180N08007638WA0152401537002074004000
B1741363727192N08007652WA0152801538002060003000
B1741373727203N08007667WA0152801540002048003000
B1741383727214N08007683WA0152601540002036003000
B1741393727223N08007699WA0152501538002034003000
B1741403727230N08007717WA0152501537002031003000
B1741413727233N08007736WA0152401537002031003000
B1741423727233N08007755WA0152101535002031004000
B1741433727229N08007774WA0152101534003029004000
B1741443727221N08007792WA0152001533002029004000
B1741453727210N08007808WA0151401530002027004000
B1741463727197N08007822WA0151301527002025004000
B1741473727182N08007834WA0151101524002022004000
B1741483727164N08007842WA0150901522002020004000
B1741493727145N08007845WA0150901521002018004000
B1741503727125N08007843WA0150801519003018004000
B1741513727105N08007835WA0150501517003020004000
B1741523727087N08007820WA0150201515003025004000
B1741533727072N08007799WA0149701511003032004000
B1741543727059N08007775WA0149701509003039004000
B1741553727050N08007747WA0149901507003046004000
B1741563727045N08007717WA0149801507003048004000
F17415627052924151318102351
B1741573727046N08007687WA0150001509003046004000
B1741583727051N08007658WA0150501513003039004000
B1741593727059N08007631WA0150701517003029004000
B1742003727070N08007605WA0150901519002034004000
B1742013727082N08007581WA0151201521002050004000
B1742023727096N08007560WA0151201522002064004000
B1742033727113N08007542WA0151101524002071004000
B1742043727131N08007528WA0151201525002064003000
B1742053727149N08007517WA0151201525002048003000
B1742063727168N08007509WA0151401525002034003000
B1742073727186N08007504WA0151101525002025003000
B1742083727205N08007502WA0150801523002029003000
B1742093727222N08007502WA0150401520002034003000
B1742103727240N08007506WA0149801515002039003000
B1742113727256N08007512WA0149301510002039004000
B1742123727271N08007520WA0149001505002027003000
B1742133727285N08007531WA0148301500002018003000
B1742143727298N08007544WA0147701494002009003000
B1742153727311N08007557WA0147101489002004003000
B1742163727323N08007572WA0146701483002002003000
B1742173727334N08007588WA0146101477002002003000
B1742183727344N08007605WA0145701471002018003000
B1742193727354N08007623WA0145301467002034003000
B1742203727364N08007642WA0144901463002055003000
B1742213727373N08007660WA0144601459002067003000
B1742223727384N08007679WA0144401456002067003000
B1742233727394N08007697WA0144101453002062003000
B1742243727405N08007715WA0143901452002053003000
B1742253727416N08007733WA0143801451002050003000
B1742263727428N08007751WA0143801450002043003000
B1742273727440N08007768WA0143901448002041003000
B1742283727453N08007785WA0144201449002036003000
B1742293727465N08007802WA0144301452002032003000
B1742303727476N08007819WA0144101453002027003000
B1742313727487N08007837WA0144101452002020003000
B1742323727498N08007854WA0143701450002015003000
B1742333727508N08007872WA0143401448002011003000
B1742343727518N08007890WA0143001446002009003000
B1742353727527N08007909WA0142801442002011003000
B1742363727536N08007929WA0142201437002013003000
B1742373727544N08007949WA0141901433002013003000
B1742383727552N08007969WA0141401429002011003000
B1742393727559N08007990WA0141201425002009003000
B1742403727566N08008012WA0140901422002006003000
B1742413727572N08008033WA0140601419002009003000
B1742423727579N08008055WA0140601417002011003000
B1742433727587N08008075WA0140701417002011003000
B1742443727595N08008096WA0140501418002013003000
B1742453727603N08008116WA0140301417002011003000
B1742463727612N08008135WA0140101415002011003000
B1742473727620N08008155WA0139901412002009003000
B1742483727629N08008175WA0139801410002004003000
B1742493727637N08008195WA0140001410002002003000
B1742503727646N08008214WA0140401412002000003000
B1742513727655N08008233WA0140901416002000003000
B1742523727664N08008251WA0141201421002000003000
B1742533727673N08008269WA0141401424002000003000
B1742543727681N08008286WA0141501426002000003000
B1742553727690N08008304WA0142001428002002003000
B1742563727699N08008321WA0142101430002006003000
B1742573727707N08008337WA0142101433002009003000
B1742583727715N08008354WA0142101434002009003000
B1742593727723N08008371WA0141901433002006003000
B1743003727731N08008387WA0141401431002000003000
B1743013727740N08008404WA0141101427002000003000
B1743023727749N08008422WA0140701423002000003000
B1743033727758N08008438WA0140701421002000003000
B1743043727769N08008455WA0140501418002002003000
B1743053727781N08008471WA0140401416002013003000
B1743063727793N08008486WA0140401416002023003000
B1743073727806N08008501WA0140401415002032003000
B1743083727820N08008514WA0140401416002036003000
B1743093727835N08008525WA0140301417002029003000
B1743103727849N08008536WA0140301417002025003000
B1743113727865N08008545WA0140401417002020003000
B1743123727880N08008553WA0140401417002013003000
B1743133727897N08008560WA0140501417002011003000
B1743143727913N08008565WA0140601417002011003000
B1743153727930N08008569WA0140501418002013003000
B1743163727947N08008573WA0140301417002022003000
B1743173727965N08008576WA0140101415002032003000
B1743183727982N08008580WA0139801413002036003000
B1743193727999N08008584WA0139401411002036003000
B1743203728016N08008590WA0139201407002029003000
B1743213728032N08008597WA0139001405002025003000
B1743223728047N08008607WA0138901403002025003000
B1743233728062N08008617WA0138801402002032003000
B1743243728076N08008627WA0138401399002048003000
B1743253728091N08008638WA0138001396002060003000
B1743263728106N08008649WA0137801392002067003000
B1743273728120N08008661WA0137401388002069003000
B1743283728135N08008673WA0137501386002067003000
B1743293728149N08008686WA0137701386002067003000
B1743303728164N08008698WA0138101389002069003000
B1743313728178N08008711WA0138001391002069003000
B1743323728193N08008723WA0138001392002064003000
B1743333728207N08008736WA0138001392002055003000
B1743343728221N08008748WA0138201393002043003000
B1743353728235N08008760WA0138201394002034003000
B1743363728249N08008774WA0138401394002025003000
B1743373728262N08008788WA0138301394002020003000
B1743383728275N08008803WA0138301395002020003000
B1743393728287N08008818WA0138701397002018003000
B1743403728298N08008834WA0138901399002020003000
B1743413728309N08008849WA0138901401002025003000
B1743423728320N08008865WA0139001401002027003000
B1743433728330N08008880WA0139101402002036003000
B1743443728340N08008897WA0139201402002046003000
B1743453728348N08008914WA0139101403002046003000
B1743463728355N08008932WA0138901403002043003000
B1743473728362N08008950WA0138801402002034003000
B1743483728369N08008968WA0138801401002025003000
B1743493728374N08008987WA0138701400002018003000
B1743503728379N08009007WA0138901399002013003000
B1743513728382N08009027WA0138701399002013003000
B1743523728383N08009047WA0138601399002018003000
B1743533728382N08009068WA0138501398002032003000
B1743543728380N08009089WA0138501397002048003000
B1743553728377N08009109WA0138301396002060003000
B1743563728372N08009130WA0138201395002062003000
B1743573728365N08009150WA0137901393002053003000
B1743583728356N08009169WA0137901392002043004000
B1743593728342N08009185WA0137901391002036004000
B1744003728326N08009198WA0138001390003034004000
B1744013728306N08009206WA0138201391003034004000
B1744023728285N08009207WA0138401392003032004000
B1744033728264N08009204WA0138301392003032004000
B1744043728243N08009196WA0137701390003039004000
B1744053728222N08009185WA0137301387003055004000
B1744063728202N08009171WA0137101384003076004000
B1744073728184N08009153WA0137301383003095004000
B1744083728166N08009133WA0137201383003102004000
B1744093728149N08009110WA0137401383003090004000
B1744103728136N08009085WA0137601385003076004000
B1744113728124N08009058WA0137301386003057004000
B1744123728115N08009030WA0137101385002043004000
B1744133728108N08009002WA0136901384002046004000
F1744132705292415131810442351
B1744143728102N08008972WA0136701382002055004000
B1744153728096N08008943WA0136901381002067004000
B1744163728091N08008913WA0137001381002079004000
B1744173728086N08008883WA0137001382002076004000
B1744183728082N08008852WA0137101382002062004000
B1744193728080N08008821WA0137401384002051004000
B1744203728083N08008791WA0137601387002046004000
B1744213728090N08008763WA0137501388002051004000
B1744223728099N08008737WA0137301387002058004000
B1744233728111N08008713WA0137301386002072004000
B1744243728126N08008693WA0137501387002083004000
B1744253728143N08008679WA0137701388003097004000
B1744263728161N08008669WA0137801390003109004000
B1744273728180N08008664WA0138001392003111004000
B1744283728199N08008664WA0137901393003102004000
B1744293728216N08008668WA0138001393003093004000
B1744303728231N08008677WA0138101394003088004000
B1744313728243N08008691WA0138101395003079004000
B1744323728252N08008707WA0138101395003076004000
B1744333728256N08008726WA0138201395003072004000
B1744343728255N08008746WA0138401397003067004000
F17443427052924151318442351
B1744353728249N08008765WA0139001399003069004000
B1744363728237N08008781WA0139101402003069004000
F17443605292415131810442351
B1744373728221N08008791WA0139301405003064004000
F174437052924151318102351
B1744383728202N08008794WA0139701407002062004000
B1744393728182N08008789WA0139601408003060004000
B1744403728162N08008777WA0139401407003060004000
B1744413728144N08008759WA0139501407003065004000
F17444127052924151318102351
B1744423728131N08008734WA0139401407003065004000
B1744433728123N08008706WA0139301408003065004000
B1744443728121N08008677WA0139301408002067004000
B1744453728125N08008649WA0139501408002069004000
B1744463728133N08008626WA0139701409002081004000
B1744473728146N08008608WA0139801411002095004000
B1744483728162N08008595WA0140001412003109004000
B1744493728178N08008588WA0139801413002125004000
B1744503728194N08008585WA0139701412002132004000
B1744513728210N08008587WA0139701411002139004000
B1744523728224N08008593WA0140001412002146004000
B1744533728237N08008602WA0139901413002146004000
B1744543728248N08008613WA0140001413002142004000
B1744553728256N08008626WA0140101414002121004000
B1744563728261N08008642WA0139901414002102004000
B1744573728263N08008658WA0140101414002095004000
B1744583728259N08008675WA0140401415003095004000
B1744593728252N08008690WA0140401416003114004000
B1745003728240N08008704WA0140401416003128004000
B1745013728226N08008714WA0140201414003135004000
B1745023728209N08008721WA0139801411003142004000
B1745033728190N08008725WA0139601408003142004000
B1745043728170N08008724WA0139501406003142004000
B1745053728149N08008720WA0139201404003137004000
B1745063728129N08008712WA0139201403002128004000
B1745073728109N08008700WA0139001402002121004000
B1745083728091N08008684WA0139301402003109004000
B1745093728076N08008663WA0139301404003095004000
B1745103728062N08008640WA0139301405003083004000
B1745113728050N08008615WA0139401405002072004000
B1745123728040N08008589WA0139201405002069004000
B1745133728032N08008562WA0139401406002079004000
B1745143728025N08008535WA0139501407002093004000
B1745153728020N08008508WA0139301406002104004000
B1745163728017N08008480WA0139201405002114004000
B1745173728015N08008453WA0139501405002109004000
B1745183728013N08008425WA0139701407002095004000
B1745193728012N08008397WA0139701408002079004000
B1745203728010N08008369WA0140001410002058004000
B1745213728008N08008341WA0140101411002043004000
B1745223728007N08008313WA0140001411002032004000
B1745233728008N08008285WA0140201411002029004000
B1745243728012N08008259WA0140701414002036004000
B1745253728021N08008236WA0141301419003041004000
B1745263728034N08008217WA0141701424003048004000
B1745273728049N08008205WA0141901428003048004000
B1745283728066N08008200WA0142201432003041004000
B1745293728082N08008202WA0142401435003036004000
B1745303728096N08008209WA0142501437003032005000
F1745302705292415131810442351
B1745313728107N08008221WA0142501438003025005000
B1745323728114N08008237WA0142701440003018005000
B1745333728116N08008255WA0142801442003011005000
F17453327052924151318442351
B1745343728113N08008273WA0143201444003004004000
B1745353728104N08008289WA0143701447003004005000
F1745352705292415131810442351
B1745363728091N08008299WA0143801450003006004000
F1745360529241513181023
B1745373728074N08008303WA0144001452003016004000
B1745383728056N08008300WA0144201454003032004000
B1745393728039N08008289WA0144201454003051004000
B1745403728024N08008273WA0144101454003074004000
F174540270529241513181023
B1745413728011N08008252WA0144201454003093004000
B1745423728003N08008228WA0144301454003098004000
B1745433728000N08008203WA0144401456003093004000
B1745443728002N08008179WA0144601458003074004000
B1745453728008N08008156WA0144701459003053004000
B1745463728017N08008135WA0144701460003039004000
B1745473728029N08008118WA0144901461003029004000
B1745483728044N08008105WA0144901462003024004000
B1745493728060N08008098WA0145001464003020004000
B1745503728077N08008098WA0145301465003013004000
B1745513728091N08008103WA0145501467003009004000
B1745523728103N08008114WA0145501468003009004000
B1745533728110N08008128WA0145501469003009004000
B1745543728113N08008145WA0145401469003011004000
F1745542705292415131823
B1745553728111N08008162WA0145401469003009005000
F174555270529241513181023
B1745563728102N08008177WA0145501469003004005000
B1745573728088N08008188WA0145701469003009004000
B1745583728071N08008194WA0145701469003023004000
B1745593728053N08008192WA0145701469003044004000
B1746003728035N08008184WA0145701469003072004000
B1746013728017N08008170WA0146001469003086004000
B1746023728002N08008151WA0146201471003086004000
B1746033727989N08008129WA0146201473003076004000
B1746043727978N08008104WA0146301474003055004000
B1746053727970N08008078WA0146501476003039004000
B1746063727968N08008050WA0146901479003025004000
B1746073727971N08008023WA0147201482003015004000
B1746083727979N08008000WA0147701487003011004000
B1746093727992N08007982WA0148201492003006004000
B1746103728008N08007972WA0148701496003004005000
B1746113728024N08007970WA0148701498003000005000
B1746123728038N08007976WA0148501499003000005000
B1746133728048N08007989WA0148601500003009005000
B1746143728052N08008005WA0148401500003016004000
F1746142705292415131823
B1746153728050N08008023WA0148301499003027004000
B1746163728041N08008039WA0148301499003034005000
F174616270529241513181023
B1746173728028N08008051WA0148201498003039004000
B1746183728010N08008055WA0148601498003043004000
B1746193727991N08008052WA0148601499003043004000
B1746203727972N08008042WA0148901500003041004000
B1746213727954N08008026WA0149001502003032004000
B1746223727939N08008005WA0149301503003029005000
B1746233727929N08007980WA0149601506003032005000
B1746243727923N08007953WA0149801509003034004000
B1746253727921N08007925WA0149701511003036004000
B1746263727924N08007898WA0149901512003034004000
B1746273727932N08007873WA0150001513003027004000
B1746283727945N08007854WA0150201516003020004000
B1746293727962N08007841WA0150601518003013005000
B1746303727980N08007837WA0151101522003006005000
B1746313727996N08007841WA0151101525003002005000
B1746323728009N08007852WA0151401528003000005000
B1746333728017N08007867WA0151501530003000004000
B1746343728019N08007886WA0151601531003002005000
F1746342705292415131823
B1746353728015N08007904WA0151801533003011005000
B1746363728006N08007920WA0152001535003027004000
B1746373727991N08007932WA0152301536003039004000
F174637270529241513181023
B1746383727974N08007937WA0152301538003041004000
B1746393727955N08007935WA0152301538003036004000
B1746403727936N08007926WA0152501538003027004000
B1746413727918N08007910WA0152901539003027005000
B1746423727903N08007889WA0152801541003032005000
B1746433727892N08007864WA0152801542003039005000
B1746443727885N08007837WA0152901543003041005000
B1746453727883N08007808WA0153101544003039004000
B1746463727885N08007781WA0153201546003032004000
B1746473727893N08007755WA0153401548003025004000
B1746483727905N08007734WA0153701550003018005000
B1746493727920N08007719WA0154101553003013004000
B1746503727938N08007711WA0154301555003009005000
B1746513727955N08007710WA0154501557003006005000
B1746523727970N08007717WA0154501559003009005000
B1746533727982N08007729WA0154801560003009005000
B1746543727989N08007745WA0155001562003011005000
B1746553727990N08007763WA0155301565003009005000
B1746563727986N08007781WA0155401566003006005000
B1746573727978N08007797WA0155301567003016005000
B1746583727965N08007810WA0155301567003030005000
B1746593727949N08007820WA0155101566003041005000
B1747003727930N08007825WA0154901564003048005000
B1747013727910N08007825WA0155001563003043004000
B1747023727890N08007817WA0155101562003034005000
B1747033727871N08007802WA0155601563003027005000
B1747043727855N08007781WA0155901567003027005000
B1747053727844N08007755WA0156201571003029005000
B1747063727836N08007728WA0156501574003029005000
B1747073727832N08007699WA0156501577003029004000
B1747083727832N08007671WA0156501578003027004000
B1747093727837N08007644WA0156601578003034004000
B1747103727846N08007619WA0156601579003041005000
B1747113727858N08007600WA0157001581003048004000
B1747123727875N08007587WA0157201584003048005000
B1747133727893N08007581WA0157301585003036005000
B1747143727911N08007582WA0157401586003027005000
B1747153727926N08007588WA0157701588003025005000
B1747163727939N08007600WA0157701590003025005000
B1747173727948N08007616WA0157701590003027005000
B1747183727952N08007635WA0157901591003027005000
F1747182705292415131823
B1747193727951N08007654WA0158201593003018005000
B1747203727944N08007673WA0158601596003013005000
B1747213727932N08007687WA0158901599003006005000
F17472105292415131823
B1747223727917N08007695WA0159301602003000004000
B1747233727899N08007697WA0159501606003000004000
B1747243727880N08007691WA0160101610003000005000
B1747253727864N08007678WA0160601614003000004000
F174725270529241513181023
B1747263727849N08007661WA0160801617003000005000
B1747273727837N08007640WA0161001619003004005000
B1747283727829N08007616WA0160801620003020004000
B1747293727826N08007591WA0160601620003046004000
B1747303727828N08007566WA0160701620003064004000
B1747313727834N08007543WA0160701620003071004000
B1747323727844N08007522WA0160701620003064004000
B1747333727857N08007506WA0160701621003048004000
B1747343727873N08007496WA0160701621003039005000
B1747353727890N08007492WA0161001621003036005000
B1747363727906N08007495WA0160901623003039005000
B1747373727920N08007504WA0161001624003039005000
B1747383727931N08007517WA0161001624003036005000
B1747393727939N08007532WA0161001624003027005000
B1747403727943N08007550WA0161001624003018005000
B1747413727943N08007568WA0160901624003011005000
B1747423727939N08007587WA0161401626003004005000
B1747433727930N08007604WA0161701628003002005000
B1747443727917N08007617WA0162201632003000005000
B1747453727900N08007624WA0162501635003000004000
B1747463727882N08007625WA0162501637003000004000
B1747473727862N08007620WA0162701639003000005000
B1747483727843N08007608WA0162901640003000005000
B1747493727826N08007592WA0163201642003000005000
B1747503727812N08007570WA0163501645003000005000
B1747513727801N08007545WA0164001648003000005000
B1747523727794N08007517WA0164401652003000005000
B1747533727792N08007489WA0164401656003000004000
B1747543727794N08007461WA0164201657003009004000
B1747553727801N08007436WA0164201657003020004000
B1747563727812N08007413WA0164101656003029005000
B1747573727826N08007395WA0164401657003032005000
B1747583727843N08007381WA0164201657003022004000
B1747593727861N08007372WA0164301657003015005000
B1748003727880N08007368WA0164301657003015005000
B1748013727898N08007369WA0164301658003029005000
B1748023727915N08007376WA0164501658003046005000
B1748033727929N08007387WA0164701659003057005000
B1748043727939N08007403WA0164801661003060005000
B1748053727946N08007421WA0164801662003048005000
B1748063727948N08007440WA0164901662003034005000
B1748073727947N08007459WA0164901663003025005000
B1748083727943N08007478WA0165001663003018005000
B1748093727936N08007497WA0164801663003020005000
B1748103727925N08007513WA0164801662003029005000
B1748113727910N08007526WA0164901662003043005000
B1748123727893N08007536WA0164901662003057005000
B1748133727874N08007540WA0165101662003064005000
B1748143727853N08007538WA0165501664003067005000
B1748153727832N08007531WA0165601666003062005000
B1748163727811N08007520WA0165601667003055005000
B1748173727792N08007504WA0165901669003048005000
B1748183727775N08007484WA0165901671003050005000
B1748193727760N08007459WA0166601674003055005000
B1748203727747N08007433WA0166801677003057005000
B1748213727738N08007404WA0166901680003057005000
B1748223727733N08007375WA0167201683003048005000
B1748233727731N08007346WA0167501686003034005000
B1748243727733N08007317WA0167601688003032004000
B1748253727740N08007291WA0167901690003032004000
B1748263727749N08007267WA0167701691003039004000
B1748273727761N08007246WA0167901692003053005000
B1748283727776N08007229WA0167901693003065005000
B1748293727792N08007216WA0168001693003067005000
B1748303727809N08007208WA0168101695003062005000
B1748313727826N08007203WA0168301696003053004000
B1748323727844N08007201WA0168001696003039004000
B1748333727861N08007202WA0168001695003036004000
B1748343727877N08007207WA0168001694003039005000
B1748353727891N08007216WA0168101695003041005000
B1748363727904N08007228WA0168101694003046005000
B1748373727914N08007242WA0168001694003048005000
B1748383727923N08007258WA0168001693003050005000
B1748393727928N08007276WA0168001693003053005000
B1748403727932N08007295WA0168001693003048004000
B1748413727933N08007314WA0167901693003046004000
B1748423727934N08007333WA0168001692003048004000
B1748433727932N08007351WA0168001692003050004000
B1748443727926N08007370WA0168301694003057005000
F17484427052924151318104423
B1748453727916N08007385WA0168601695003069005000
B1748463727902N08007397WA0168501695003072005000
F174846052924151318104423
B1748473727885N08007403WA0168201694003074005000
B1748483727866N08007403WA0168101693003081005000
B1748493727845N08007399WA0167801691003079005000
B1748503727825N08007391WA0167701688003074005000
B1748513727804N08007379WA0167301686003079005000
B1748523727785N08007363WA0167401684003083005000
B1748533727766N08007343WA0167401684003090005000
B1748543727749N08007321WA0167701686003092005000
F17485427052924151318104423
B1748553727733N08007297WA0167901688003081005000
B1748563727718N08007272WA0168001690003067005000
B1748573727703N08007247WA0168301692003050005000
B1748583727692N08007219WA0169101697003041005000
B1748593727687N08007190WA0169801704003034005000
B1749003727687N08007162WA0170501711003025005000
B1749013727692N08007136WA0171101717003018005000
B1749023727701N08007113WA0171401722003009005000
B1749033727712N08007094WA0171401724003004005000
B1749043727726N08007078WA0171101725003000005000
B1749053727741N08007065WA0170701724003000005000
B1749063727758N08007057WA0170501721003009005000
B1749073727776N08007053WA0170101718003018005000
B1749083727795N08007053WA0169701714003027005000
B1749093727813N08007058WA0169501710003032005000
B1749103727830N08007067WA0169501708003025005000
B1749113727846N08007078WA0169201708003020005000
B1749123727860N08007093WA0169201707003029005000
B1749133727872N08007110WA0169401706003041005000
B1749143727882N08007129WA0169301707003053005000
B1749153727890N08007148WA0169401707003067005000
B1749163727896N08007168WA0169601707003069005000
B1749173727901N08007189WA0169301707003081005000
B1749183727904N08007209WA0169101706003095005000
B1749193727907N08007230WA0168901704003109005000
B1749203727909N08007251WA0168801702003118005000
B1749213727909N08007272WA0168701700003116005000
B1749223727906N08007293WA0168801699003114005000
F174922270529241513181023
B1749233727899N08007314WA0169201700003109005000
B1749243727888N08007331WA0169601704003109005000
B1749253727873N08007344WA0169901707003116005000
B1749263727856N08007353WA0169901709003123005000
B1749273727837N08007357WA0169701708003132005000
B1749283727817N08007356WA0169401705003142005000
B1749293727796N08007350WA0168701700003149005000
B1749303727775N08007339WA0168101694003151005000
B1749313727755N08007323WA0167401688003144005000
B1749323727735N08007304WA0167001682003130005000
B1749333727718N08007281WA0166601677003111005000
B1749343727701N08007255WA0166301673003090005000
B1749353727686N08007227WA0166001671003079005000
B1749363727672N08007198WA0165801669003072005000
B1749373727660N08007167WA0165701667003074005000
B1749383727649N08007136WA0165701667003086005000
B1749393727639N08007103WA0165701667003095005000
B1749403727632N08007070WA0165701667003114005000
B1749413727626N08007037WA0165901668003121005000
B1749423727623N08007003WA0166501671003116005000
B1749433727623N08006970WA0166801675003104005000
B1749443727626N08006937WA0167501681003081005000
B1749453727632N08006907WA0168401687003060005000
B1749463727641N08006878WA0168801694003043005000
F1749462705291513181023
B1749473727653N08006853WA0169001700003032005000
F174947270529241513181023
B1749483727667N08006832WA0169201705003027005000
B1749493727683N08006814WA0169401708003024005000
B1749503727701N08006802WA0169401708003031005000
B1749513727719N08006796WA0169401707003048005000
B1749523727737N08006795WA0169401706003060005000
B1749533727753N08006800WA0169401706003074005000
B1749543727766N08006810WA0169101705003081005000
B1749553727776N08006824WA0168801704003088005000
B1749563727784N08006841WA0168101700003093005000
B1749573727789N08006859WA0167701694003090005000
B1749583727792N08006879WA0166501687003086005000
B1749593727793N08006900WA0166001679003081005000
B1750003727792N08006923WA0165201672003083005000
B1750013727790N08006946WA0164901667003095005000
F17500127052924151318104423
B1750023727786N08006971WA0164201662003114005000
B1750033727782N08006995WA0163501655003118005000
B1750043727776N08007020WA0163001648003116005000
B1750053727770N08007046WA0162301642003109005000
B1750063727764N08007071WA0161901636003093005000
B1750073727757N08007098WA0161101630003083005000
B1750083727749N08007124WA0160601625003074005000
B1750093727741N08007151WA0160201619003064005000
B1750103727733N08007178WA0159801615003071005000
B1750113727725N08007206WA0159501611003081005000
B1750123727716N08007233WA0159501609003088005000
B1750133727708N08007261WA0159101607003090005000
B1750143727699N08007288WA0159001605003081005000
B1750153727689N08007316WA0158501602003065005000
B1750163727680N08007343WA0157701598003060005000
B1750173727670N08007371WA0157301593003060005000
B1750183727660N08007398WA0156701587003060005000
B1750193727650N08007426WA0156601582003067005000
B1750203727639N08007454WA0156501579003067005000
B1750213727629N08007482WA0156101577003062005000
B1750223727619N08007511WA0155701574003057005000
B1750233727609N08007539WA0155301571003050005000
B1750243727598N08007567WA0155101568003046005000
B1750253727588N08007595WA0154901565003046005000
B1750263727578N08007623WA0155001563003048005000
B1750273727567N08007651WA0154901563003048005000
B1750283727557N08007678WA0155001563003046005000
B1750293727546N08007705WA0154901562003046005000
B1750303727536N08007732WA0154501561003039005000
B1750313727525N08007758WA0154201559003034005000
B1750323727514N08007784WA0153801555003029005000
B1750333727503N08007810WA0153101550003022005000
B1750343727492N08007836WA0152601544003022005000
B1750353727482N08007863WA0152201539003022005000
B1750363727471N08007890WA0152201536003022005000
B1750373727461N08007918WA0151701532003024005000
B1750383727452N08007945WA0151101528003022005000
B1750393727442N08007973WA0150601524003022005000
B1750403727433N08008001WA0150101519003022005000
B1750413727424N08008028WA0149401513003018005000
B1750423727414N08008056WA0148901507003015005000
B1750433727405N08008084WA0148201501003011005000
B1750443727395N08008113WA0147701495003009005000
B1750453727386N08008141WA0147301490003006005000
B1750463727378N08008170WA0146801484003006005000
B1750473727370N08008200WA0146001478003006005000
B1750483727363N08008229WA0146001473003004005000
B1750493727356N08008259WA0145801470003006005000
B1750503727350N08008288WA0145801469003004005000
B1750513727343N08008317WA0145501468003004005000
B1750523727337N08008346WA0145301466003006005000
B1750533727330N08008376WA0145001464003006005000
B1750543727323N08008405WA0145001463003006005000
B1750553727315N08008434WA0145001463003004005000
