ANKL0ZH
HFDTE180421
HFFXA050
HFPLTPILOT:Nelson Howe
HFGTYGLIDERTYPE:Discus 2b
HFGIDGLIDERID:1X       .
HFDTM100GPSDATUM:
HFRFWFIRMWAREVERSION:40 2011-6-17
HFRHWHARDWAREVERSION: NKL ClearNav V1.0
HFFTYFRTYPE:Nielsen Kellerman, ClearNav-IGC
HFGPS:UBLOX,LEA-4H-0-000-1,16Ch,18000 
HFPRSPRESSALTSENSOR:Intersema,MS5534B,20000 
I033638FXA3941ENL4247REX
C180421155854000000000103
C0000000N00000000WTAKEOFF     
C3337283N08124000W02Start 2
C3323261N08054426WArea 17Dry S
C3315468N08123320WArea 09Barnw
C3355568N08147688WArea 33Salud
C3337617N08119732W05Finish
C0000000N00000000WLANDING     
B1725163337827N08119523WA0016500125002000003008
B1725173337827N08119523WA0016500125002000003008
B1725183337827N08119523WA0016600125002000003008
B1725193337828N08119523WA0016500124002000003008
B1725203337828N08119523WA0016500125002000003008
B1725213337828N08119523WA0016400125002000003008
B1725223337828N08119523WA0016400125002004003008
B1725233337828N08119523WA0016500124002013003008
B1725243337828N08119523WA0016500125002020003008
B1725253337828N08119523WA0016500124002029003008
B1725263337828N08119524WA0016500124002032003008
B1725273337828N08119524WA0016500124002034003008
B1725283337828N08119524WA0016500124002037003008
B1725293337828N08119524WA0016500124002034003008
B1725303337828N08119524WA0016500124002032003008
B1725313337828N08119523WA0016400124002029003008
B1725323337828N08119523WA0016400124002024003008
B1725333337827N08119523WA0016500124002024003008
B1725343337827N08119523WA0016500124002022003008
B1725353337827N08119523WA0016500124002020003008
B1725363337827N08119523WA0016400124002018003008
B1725373337827N08119523WA0016500124002015003008
B1725383337827N08119523WA0016500124002018003008
B1725393337827N08119523WA0016600124002022003008
B1725403337827N08119523WA0016500124002027003008
B1725413337827N08119523WA0016500124002029003008
B1725423337827N08119523WA0016500123002025003008
B1725433337827N08119523WA0016600123002020003008
B1725443337827N08119523WA0016400123002018003008
B1725453337827N08119523WA0016500123002015003008
B1725463337827N08119523WA0016500123002018003008
B1725473337827N08119523WA0016500123002018003008
B1725483337827N08119523WA0016500123002018003008
B1725493337827N08119523WA0016500123002018003008
B1725503337827N08119523WA0016400123002018003008
B1725513337827N08119523WA0016500123002018003008
B1725523337827N08119523WA0016500123002020003008
B1725533337827N08119523WA0016400123002018003008
B1725543337827N08119523WA0016500123002013003008
B1725553337827N08119523WA0016500123002009003008
B1725563337827N08119523WA0016500123002002003008
B1725573337827N08119523WA0016500123002000003008
B1725583337827N08119523WA0016500123002000003008
B1725593337827N08119523WA0016600123002004003008
B1726003337827N08119523WA0016500122002006003008
B1726013337827N08119523WA0016600122002009003008
B1726023337827N08119523WA0016600122002004003008
B1726033337827N08119523WA0016600122002000003008
B1726043337827N08119523WA0016600122002000003008
B1726053337827N08119523WA0016500122002000003008
B1726063337827N08119523WA0016400122002000003008
B1726073337827N08119523WA0016600122002000003008
B1726083337827N08119523WA0016500123002000003008
B1726093337827N08119523WA0016600123002000003008
B1726103337827N08119523WA0016600123002000003008
B1726113337827N08119523WA0016600123002000003008
B1726123337827N08119523WA0016500123002000003008
B1726133337827N08119523WA0016600123002000003008
B1726143337827N08119523WA0016500123002000003008
B1726153337827N08119523WA0016500123002000003008
B1726163337827N08119523WA0016500123002000003008
B1726173337827N08119523WA0016500123002000003008
B1726183337828N08119523WA0016500123002000003008
B1726193337828N08119523WA0016500123002000003008
B1726203337828N08119523WA0016400123002000003008
B1726213337828N08119523WA0016600123002000003008
B1726223337828N08119523WA0016600123002000003008
B1726233337828N08119523WA0016600122002000003008
B1726243337828N08119523WA0016500122002000003008
B1726253337828N08119523WA0016600122002000003008
B1726263337828N08119523WA0016600122002000003008
B1726273337828N08119523WA0016600122002000003008
B1726283337828N08119523WA0016500122002000003008
B1726293337828N08119523WA0016500122002000003008
B1726303337828N08119523WA0016500122002000003008
B1726313337828N08119523WA0016500122002000003008
B1726323337828N08119523WA0016500122002000003008
B1726333337828N08119523WA0016600122002000003008
B1726343337828N08119523WA0016600122002000003008
B1726353337828N08119523WA0016600122002000003008
B1726363337828N08119523WA0016600122002000003008
B1726373337828N08119523WA0016600122002000003008
B1726383337828N08119523WA0016500122002000003008
B1726393337828N08119523WA0016500122002000003008
B1726403337828N08119523WA0016500122002000003008
B1726413337828N08119523WA0016500122002000003008
B1726423337828N08119523WA0016600122002000003008
B1726433337828N08119523WA0016600122002000003008
B1726443337828N08119523WA0016500122002000003008
B1726453337828N08119523WA0016500122002000003008
B1726463337828N08119523WA0016500122002000003008
B1726473337828N08119523WA0016500122002000003008
B1726483337827N08119523WA0016600122002000003008
B1726493337827N08119523WA0016600122002000003008
B1726503337827N08119524WA0016500122002000003008
B1726513337827N08119524WA0016600122002000003008
B1726523337827N08119524WA0016500122002000003008
B1726533337827N08119524WA0016600122002000003008
B1726543337827N08119524WA0016500122002000003008
B1726553337827N08119524WA0016600122002000003008
B1726563337827N08119524WA0016600122002000003008
B1726573337827N08119524WA0016600122002000003008
B1726583337827N08119524WA0016600123002000003008
B1726593337826N08119524WA0016600123002000003008
B1727003337826N08119524WA0016600123002000003008
B1727013337826N08119525WA0016600123002000003008
B1727023337826N08119525WA0016500123002000003008
B1727033337826N08119525WA0016500123002000003008
B1727043337826N08119525WA0016500123002000003008
B1727053337826N08119525WA0016500124002000003008
B1727063337826N08119525WA0016600124002000003008
B1727073337826N08119525WA0016500124002000003008
B1727083337826N08119525WA0016500124002000003008
B1727093337826N08119525WA0016600124002000003008
B1727103337826N08119525WA0016600124002000003008
B1727113337826N08119525WA0016600124002009003008
B1727123337826N08119525WA0016500125002015003008
B1727133337826N08119525WA0016600125002020003008
B1727143337826N08119525WA0016600125002022003008
B1727153337826N08119527WA0016600125002022003008
B1727163337825N08119530WA0016500125002025003000
F1727161728091307143001442108
B1727183337823N08119540WA0016400125002050003000
B1727203337819N08119555WA0016300125002090003000
B1727223337814N08119575WA0016500124002144003000
F17272317280913071430014421
B1727243337808N08119600WA0016100124002197003000
F1727251728091307143001442108
B1727263337801N08119628WA0016100124002234003000
F17272617280913071430014421
F1727271728091307143001442108
B1727283337794N08119661WA0016100123002227003000
B1727303337785N08119696WA0016400124002169003000
B1727323337777N08119733WA0017000127002118003000
B1727343337770N08119771WA0017700133002088003000
B1727363337760N08119809WA0018300140002062003000
F17273717280913071430014421
B1727383337748N08119848WA0019600147002046003000
F1727381728091307143001442108
B1727403337738N08119887WA0019600153002041003000
B1727423337731N08119926WA0020500162002039003000
B1727443337723N08119965WA0021700171002037003000
B1727463337714N08120001WA0022600182002039003000
B1727483337704N08120037WA0023200191002036003000
B1727503337695N08120073WA0023900198002032003000
B1727523337686N08120110WA0023800200002029003000
B1727543337677N08120148WA0024000201002029003000
B1727563337668N08120186WA0024500204002032003000
B1727583337657N08120225WA0025000209002036003000
B1728003337643N08120262WA0026800219002043003000
B1728023337626N08120297WA0026900230002041003000
F17280217280913071430014421
B1728043337604N08120330WA0027800238002037003000
F1728041728091307143001442108
B1728063337578N08120359WA0028400247002037003000
B1728083337548N08120384WA0029200254002037003000
B1728103337513N08120403WA0029900261002037003000
B1728123337473N08120416WA0030700269002037003000
B1728143337432N08120420WA0031400277002037003000
F17281517281307143001442108
B1728163337391N08120419WA0031700283002034003000
B1728183337350N08120412WA0032500290002034003000
F1728191728091307143001442108
B1728203337309N08120402WA0033200297002034003000
B1728223337270N08120385WA0033900305002032003000
B1728243337233N08120362WA0034900313002034003000
B1728263337200N08120331WA0035500322002034003000
B1728283337171N08120295WA0036400331002034003000
F17282817281307143001442108
B1728303337146N08120255WA0037500341002037003000
F1728301728091307143001442108
B1728323337126N08120210WA0038600350002037003000
B1728343337111N08120161WA0039200361002037003000
B1728363337101N08120110WA0040000366002037003000
B1728383337096N08120055WA0039900370002041003000
B1728403337096N08120001WA0040800376002046003000
B1728423337104N08119947WA0041700385002046003000
F17284317280913071430012108
B1728443337118N08119898WA0043200397002043003000
B1728463337136N08119851WA0044000410002043003000
B1728483337159N08119808WA0045000421002043003000
B1728503337188N08119768WA0045900431002043003000
B1728523337220N08119732WA0046700438002050003000
B1728543337254N08119697WA0047600448002055003000
B1728563337291N08119669WA0048700458002052003000
B1728583337331N08119649WA0049900467002052003000
B1729003337374N08119638WA0051000477002060003000
B1729023337417N08119628WA0051700487002065003000
F1729031728091307143001192108
B1729043337459N08119616WA0052500497002062002000
F172905172809130714300119462108
B1729063337502N08119604WA0053400505002064002000
B1729083337544N08119595WA0054200515002071002000
B1729103337586N08119587WA0055300523002069002000
B1729123337627N08119577WA0056400533002060002000
B1729143337667N08119566WA0057400544002055002000
F1729151728091307143001192108
B1729163337706N08119555WA0058400554002060002000
B1729183337745N08119546WA0059100564002065002000
B1729203337785N08119537WA0059400569002062002000
B1729223337824N08119526WA0059900572002062002000
B1729243337864N08119514WA0060400577002065002000
B1729263337903N08119503WA0061000583002060002000
B1729283337943N08119493WA0061700589002062002000
B1729303337983N08119484WA0062200595002071002000
B1729323338024N08119476WA0063000602002071002000
B1729343338067N08119469WA0063400608002067002000
B1729363338112N08119461WA0064000613002067002000
B1729383338156N08119453WA0064900621002074002000
B1729403338200N08119446WA0065700632002076002000
B1729423338244N08119440WA0066700642002074002000
B1729443338288N08119434WA0067500650002069002000
B1729463338333N08119427WA0068700660002069002000
B1729483338379N08119420WA0069700671002076002000
B1729503338425N08119415WA0070700682002081002000
B1729523338472N08119412WA0071600691002081002000
B1729543338520N08119406WA0072000701002079002000
B1729563338568N08119399WA0073700712002079002000
B1729583338612N08119387WA0074900727002086002000
B1730003338651N08119365WA0076400740002090003000
B1730023338683N08119332WA0076800750002067003000
B1730043338715N08119298WA0077900757002036002000
B1730063338750N08119278WA0079100770002018002000
B1730083338784N08119282WA0079700777002013003000
B1730103338806N08119306WA0079800781003011003000
B1730123338808N08119341WA0080200786003002003000
B1730143338793N08119373WA0080700791003000004000
B1730163338766N08119390WA0081000795003002003000
F17301617280913071430011921
F1730171728091307143001192108
B1730183338732N08119386WA0081400798003002004000
F17301817281307143001192108
B1730203338699N08119360WA0081700801003002004000
F173020172813071430012108
F17302117280913071430012108
B1730223338676N08119316WA0082000804002009003000
B1730243338667N08119264WA0082300810002006003000
B1730263338676N08119212WA0083100815002000003000
F1730261728091307143001192108
B1730283338704N08119177WA0083900823003000004000
B1730303338741N08119174WA0084500828004000004000
B1730323338772N08119197WA0085100835003000003000
F17303217280907143001192108
B1730343338783N08119235WA0085800842003000004000
B1730363338773N08119272WA0086200850002000003000
F1730361728091307143001192108
F17303717280907143001192108
B1730383338746N08119296WA0086600855002000003000
F17303817280913071430011921
F1730391728091307143001192108
B1730403338710N08119298WA0087000859003000004000
F17304117281307143001192108
B1730423338673N08119276WA0088000866003000005000
F173042172813071430012108
B1730443338644N08119236WA0088200871003000004000
F17304417280913071430012108
B1730463338624N08119186WA0088800878002000003000
F1730471728091307143001192108
B1730483338617N08119132WA0089700885002000003000
B1730503338627N08119082WA0090600893002000003000
B1730523338652N08119047WA0091100901002034003000
B1730543338687N08119028WA0091500905002067004000
B1730563338724N08119027WA0091500907003088004000
B1730583338758N08119046WA0091700907003090004000
B1731003338782N08119079WA0091800910002053003000
F17310017280907143001192108
B1731023338794N08119120WA0092200912003027003000
B1731043338784N08119161WA0092300916003011004000
B1731063338755N08119188WA0092700917003002003000
B1731083338714N08119185WA0093200919004020005000
B1731103338675N08119153WA0092900921003081005000
F173110172809071430012108
F17311117280913071430012108
B1731123338649N08119104WA0093100921003100004000
F173112170913071430012108
B1731143338644N08119047WA0093600926002062004000
F17311417280913071430012108
B1731163338662N08118997WA0094400932002043004000
F17311617281307143001192108
B1731183338698N08118967WA0095000938002090004000
B1731203338741N08118964WA0095200941003149004000
F1731201728091307143001192108
B1731223338781N08118982WA0094900940003137004000
B1731243338814N08119013WA0095000938002095004000
B1731263338831N08119056WA0095900944002060003000
B1731283338825N08119101WA0096500952003062004000
B1731303338800N08119132WA0097000960002081003000
B1731323338763N08119141WA0097600966003064004000
F17313217281307143001192108
B1731343338722N08119125WA0098500972004046005000
B1731363338689N08119086WA0099200980003043004000
F17313617280913071430012108
F173137172813071430012108
B1731383338670N08119036WA0099900987002034004000
F17313817280913071430012108
F1731391728091307143001192108
B1731403338667N08118984WA0101300999002018003000
B1731423338680N08118937WA0102601014002011003000
B1731443338703N08118903WA0103101023002011003000
B1731463338735N08118882WA0104001026002004003000
B1731483338771N08118874WA0103501027002000003000
B1731503338809N08118881WA0103201024002000003000
B1731523338838N08118906WA0103501023002004003000
F17315217280907143001192108
B1731543338854N08118942WA0103701026002002003000
F1731551728091307143001192108
B1731563338856N08118981WA0103701026002011003000
B1731583338842N08119017WA0103501026002060003000
B1732003338815N08119044WA0103501025002121003000
B1732023338779N08119057WA0103801026002137003000
F17320317281307143001192108
B1732043338739N08119056WA0104601031002153003000
B1732063338698N08119043WA0105701041002151003000
F1732061728091307143001192108
B1732083338658N08119024WA0106201051002095003000
B1732103338620N08119001WA0106701056002048003000
B1732123338591N08118966WA0107101060002067003000
F17321217280913071430012108
B1732143338577N08118918WA0107401064002132003000
B1732163338579N08118869WA0107401065002153003000
B1732183338595N08118821WA0107101063002123003000
F1732181728091307143001192108
B1732203338621N08118779WA0106801059002111003000
B1732223338655N08118746WA0106501054002144003000
B1732243338696N08118725WA0106601054002132003000
B1732263338741N08118714WA0107201058002081003000
B1732283338786N08118712WA0107801064002079003000
B1732303338830N08118717WA0107901069002074003000
B1732323338869N08118734WA0108901073002046003000
F17323217280907143001192108
B1732343338893N08118767WA0109901081002055003000
B1732363338897N08118807WA0110301090002114003000
F1732361728091307143001192108
B1732383338888N08118842WA0110801096002172003000
F17323917280913071430012108
B1732403338870N08118871WA0110801098002207003000
B1732423338846N08118894WA0110501096002214003000
F1732431728091307143001192108
B1732443338815N08118912WA0110101092002184003000
B1732463338779N08118923WA0109901089002158003000
B1732483338738N08118925WA0110401091002121003000
B1732503338695N08118923WA0110901098002067003000
B1732523338654N08118915WA0112001105002041003000
B1732543338614N08118901WA0113001115002051003000
B1732563338578N08118883WA0114001127002067003000
B1732583338545N08118861WA0114801137002062003000
B1733003338514N08118838WA0115001143002041003000
B1733023338483N08118811WA0115401143002015003000
B1733043338452N08118780WA0115601147002002003000
B1733063338420N08118747WA0115301148002000003000
B1733083338388N08118712WA0115001146002000003000
B1733103338358N08118674WA0114601142002009003000
B1733123338329N08118633WA0114701140002025003000
B1733143338302N08118590WA0115201144002027003000
B1733163338276N08118548WA0115901150002027003000
B1733183338252N08118506WA0116701157002036003000
B1733203338228N08118464WA0117001162002034003000
B1733223338204N08118421WA0117201166002022003000
B1733243338180N08118378WA0117601170002011003000
B1733263338156N08118334WA0117801172002009003000
B1733283338134N08118289WA0117701171002022003000
B1733303338117N08118239WA0117701171002041003000
B1733323338107N08118187WA0117901171002048003000
B1733343338103N08118132WA0118201174002039003000
B1733363338105N08118078WA0117801174002032003000
B1733383338113N08118023WA0117101168002025003000
B1733403338129N08117970WA0117101165002013003000
B1733423338151N08117921WA0117301164002009003000
B1733443338179N08117876WA0117301165002018003000
B1733463338209N08117835WA0117301166002020003000
B1733483338240N08117798WA0116901164002006003000
B1733503338275N08117766WA0116401158002000003000
B1733523338315N08117743WA0116001152002006003000
B1733543338357N08117727WA0115501147002027003000
B1733563338400N08117714WA0115701145002058003000
B1733583338445N08117706WA0116301150002079003000
B1734003338489N08117704WA0116901157002069003000
B1734023338532N08117708WA0117801162002055003000
B1734043338572N08117718WA0118801172002038003000
B1734063338611N08117734WA0119201179002018003000
B1734083338646N08117763WA0119901187002004003000
B1734103338670N08117802WA0121401199002000003000
B1734123338678N08117847WA0122601211002000003000
B1734143338668N08117892WA0122501217003000003000
F17341517280907143001192108
B1734163338640N08117924WA0123001222003000003000
B1734183338602N08117934WA0123401226003002004000
B1734203338563N08117921WA0123501228003027004000
F17342017280913071430012108
B1734223338529N08117889WA0123501227003053004000
B1734243338506N08117845WA0122601221002076003000
F1734241728091307143001192108
B1734263338500N08117792WA0122401217002102003000
B1734283338511N08117739WA0122401218002114003000
B1734303338533N08117690WA0123001220002114003000
B1734323338564N08117649WA0123701227002097003000
B1734343338601N08117616WA0124401234002060003000
B1734363338644N08117597WA0125301242002029003000
B1734383338689N08117591WA0125701248002013003000
B1734403338732N08117603WA0126101252002009003000
B1734423338767N08117633WA0126401256002025003000
F17344317280907143001192108
B1734443338792N08117673WA0126401258002029003000
F1734451728091307143001192108
B1734463338812N08117716WA0126101255002029003000
B1734483338828N08117761WA0125501250002037003000
B1734503338837N08117809WA0124501240002025003000
B1734523338841N08117859WA0125101240002027003000
B1734543338841N08117905WA0125301244002055003000
B1734563338838N08117950WA0125401246002088003000
B1734583338834N08117994WA0125201243002090003000
B1735003338827N08118038WA0125201241002060003000
B1735023338819N08118083WA0125201240002039003000
B1735043338810N08118128WA0125101239002029003000
B1735063338800N08118173WA0125901242002027003000
B1735083338789N08118218WA0126401249002018003000
B1735103338777N08118262WA0126801253002004003000
B1735123338752N08118298WA0127601260003027003000
B1735143338714N08118315WA0128501269003048004000
F17351417281307143001192108
B1735163338671N08118305WA0128901276004036005000
F173517172813071430012108
B1735183338635N08118271WA0129201278003027004000
B1735203338614N08118222WA0130201286003039004000
B1735223338610N08118168WA0131001297003043004000
B1735243338620N08118115WA0131501304002020003000
F17352417280913071430012108
F1735251728091307143001192108
B1735263338644N08118072WA0132101309002004003000
B1735283338679N08118048WA0132601316002000003000
B1735303338717N08118047WA0133201322003000004000
B1735323338747N08118069WA0134101330002000003000
B1735343338762N08118106WA0134301335002000003000
B1735363338757N08118146WA0134501338002000003000
B1735383338733N08118178WA0134901341002011003000
F17353917280907143001192108
B1735403338697N08118196WA0134901343002067003000
F173541172807143001192108
B1735423338655N08118194WA0135201344003116004000
F17354317281307143001192108
B1735443338614N08118174WA0136101351002114003000
B1735463338577N08118140WA0137101361002074003000
B1735483338552N08118096WA0137801371002036003000
B1735503338538N08118046WA0138001375002016003000
F1735511728091307143001192108
B1735523338539N08117994WA0137901374002020003000
B1735543338555N08117948WA0137701371002046003000
B1735563338587N08117923WA0138601373003055004000
B1735583338623N08117924WA0138301376003093004000
B1736003338653N08117946WA0138701378003158003000
B1736023338670N08117984WA0138901379002160003000
B1736043338671N08118028WA0139601386002104003000
B1736063338657N08118069WA0140301394003058003000
B1736083338624N08118096WA0141101402003032003000
F17360817280907143001192108
F173609172807143001192108
B1736103338581N08118095WA0141901410003018004000
F1736112807143001192108
B1736123338541N08118068WA0142501417003006004000
F173612280913071430012108
F173613172813071430012108
B1736143338514N08118021WA0142801423003006004000
B1736163338506N08117965WA0143101427003039004000
B1736183338513N08117911WA0143301429002064003000
F17361817280913071430012108
B1736203338533N08117865WA0143501430002057003000
B1736223338563N08117831WA0143501431002062003000
F1736221728091307143001192108
B1736243338599N08117807WA0143201429002083003000
B1736263338638N08117796WA0143401428002088003000
B1736283338677N08117798WA0144001432002076003000
B1736303338712N08117810WA0144201436002057003000
B1736323338744N08117831WA0144401437002043003000
B1736343338769N08117861WA0144601438002032003000
B1736363338785N08117899WA0145101442002018003000
B1736383338787N08117940WA0145601449002006003000
B1736403338773N08117979WA0146401455002000003000
B1736423338742N08118004WA0146601460002020003000
B1736443338703N08118014WA0146201460002055003000
F17364517281307143001192108
B1736463338661N08118010WA0145701455003055003000
B1736483338620N08117989WA0145901451003043004000
F17364817280913071430012108
B1736503338586N08117950WA0146801458002034003000
F1736511728091307143001192108
B1736523338560N08117902WA0147101467002016003000
B1736543338541N08117851WA0147601471002002003000
B1736563338534N08117798WA0147701472002011003000
B1736583338548N08117749WA0147401472002032003000
B1737003338576N08117711WA0147001469002058003000
B1737023338612N08117685WA0146901467002102003000
B1737043338652N08117673WA0147001466002151004000
B1737063338692N08117672WA0147001466002149004000
B1737083338730N08117683WA0147101468002112004000
B1737103338762N08117708WA0147301468003114004000
F17371117280907143001192108
B1737123338781N08117745WA0147501470003107004000
F1737131728091307143001192108
B1737143338785N08117788WA0148101473003067004000
B1737163338774N08117830WA0148601479002041004000
B1737183338746N08117861WA0149101486003039004000
F17371817280907143001192108
B1737203338707N08117875WA0149501492003041004000
B1737223338663N08117874WA0149401491003048004000
F1737221728091307143001192108
F17372317281307143001192108
B1737243338617N08117859WA0149801494002076004000
B1737263338572N08117835WA0150101499002072004000
B1737283338531N08117806WA0150201501002055004000
B1737303338493N08117770WA0150901504002067004000
F173730172813073001192108
F17373117281307143001192108
B1737323338463N08117728WA0151401512002067004000
B1737343338439N08117683WA0151701515002083004000
B1737363338422N08117634WA0151701517002100004000
B1737383338412N08117583WA0152101517002114004000
B1737403338411N08117531WA0151801518002118004000
B1737423338418N08117480WA0152101519002130004000
B1737443338431N08117431WA0152401521002167004000
B1737463338447N08117386WA0153201527002167004000
B1737483338467N08117344WA0153801534002139004000
B1737503338491N08117306WA0154301537002095004000
B1737523338519N08117273WA0154701542002050004000
B1737543338549N08117243WA0155101545002027004000
B1737563338580N08117213WA0154901545002011004000
B1737583338614N08117188WA0154801544002000004000
B1738003338651N08117175WA0155001544002014004000
B1738023338687N08117181WA0155201545003053004000
B1738043338715N08117205WA0155101546003074004000
F173804172807143001192108
B1738063338732N08117240WA0154901544003071004000
F17380717281307143001192108
B1738083338736N08117280WA0154501541003067004000
B1738103338725N08117321WA0154001538003088004000
B1738123338704N08117358WA0153901533003121004000
B1738143338676N08117389WA0153501531002116004000
B1738163338644N08117417WA0153101528002111004000
B1738183338610N08117443WA0153001524002116004000
B1738203338575N08117468WA0153001524002149004000
B1738223338539N08117493WA0153101525002170004000
B1738243338503N08117519WA0153501527002135004000
B1738263338469N08117547WA0153501529002112004000
B1738283338436N08117577WA0153601530002111004000
B1738303338404N08117610WA0153301529002088004000
B1738323338372N08117643WA0152701523002055004000
B1738343338341N08117678WA0152501518002036004000
B1738363338312N08117716WA0152301515002043004000
B1738383338288N08117759WA0151901512002046004000
B1738403338267N08117804WA0150901505002022004000
B1738423338249N08117852WA0150001496002015004000
B1738443338233N08117903WA0149101486002025004000
B1738463338218N08117956WA0148301476002029004000
B1738483338204N08118010WA0147601467002041004000
B1738503338192N08118066WA0146801459002043004000
B1738523338178N08118124WA0146301454002032004000
B1738543338164N08118181WA0146701453002046004000
B1738563338151N08118238WA0147501460002050004000
B1738583338137N08118294WA0147901466002039004000
B1739003338124N08118348WA0148001468002027004000
B1739023338111N08118402WA0148101469002020004000
B1739043338098N08118454WA0148101470002027004000
B1739063338086N08118506WA0148001469002029004000
B1739083338077N08118557WA0147401464002018004000
B1739103338070N08118610WA0146701458002006004000
B1739123338067N08118663WA0146501453002002004000
B1739143338067N08118716WA0146001450002000004000
B1739163338068N08118768WA0145501445002000004000
B1739183338071N08118820WA0144801438002002004000
B1739203338074N08118873WA0144301431002002004000
B1739223338079N08118927WA0143501425002000004000
B1739243338087N08118981WA0142901418002000004000
B1739263338096N08119036WA0142501413002000004000
B1739283338107N08119091WA0142201410002004003000
B1739303338119N08119145WA0142101408002034003000
B1739323338132N08119198WA0141701405002046003000
B1739343338145N08119252WA0141501402002034003000
B1739363338158N08119304WA0141301401002029003000
B1739383338171N08119356WA0141301399002027003000
B1739403338186N08119407WA0141001397002039003000
B1739423338201N08119456WA0141201396002044003000
B1739443338218N08119503WA0141901400002032003000
B1739463338234N08119547WA0142901410002020003000
B1739483338250N08119590WA0142701415002029003000
B1739503338267N08119632WA0143101415002043003000
B1739523338284N08119674WA0143501420002036003000
B1739543338300N08119716WA0143801424002034003000
B1739563338314N08119758WA0143701425002046003000
B1739583338325N08119801WA0143201423002043004000
B1740003338334N08119847WA0142601416002027004000
B1740023338341N08119894WA0142601412002027003000
B1740043338348N08119942WA0142901414002041003000
B1740063338355N08119991WA0143001417002050003000
B1740083338359N08120040WA0143201420002041003000
B1740103338362N08120089WA0142901418002027003000
B1740123338365N08120139WA0142301413002018003000
B1740143338367N08120189WA0142001408002011003000
B1740163338370N08120240WA0142001405002013003000
B1740183338373N08120291WA0141801404002013003000
B1740203338377N08120342WA0141501403002004003000
B1740223338381N08120391WA0140801399002000003000
B1740243338385N08120441WA0139601389002000003000
B1740263338388N08120493WA0138601376002000003000
B1740283338391N08120547WA0137501366002000003000
B1740303338394N08120602WA0136601356002000003000
B1740323338397N08120658WA0135701346002000003000
B1740343338400N08120716WA0135101338002000003000
B1740363338401N08120775WA0135201334002000003000
B1740383338403N08120833WA0136501343002011003000
B1740403338405N08120890WA0138001358002022003000
B1740423338407N08120943WA0138501370002018003000
B1740443338409N08120995WA0138601373002015003000
B1740463338412N08121047WA0139101376002022003000
B1740483338416N08121097WA0139401380002027003000
B1740503338421N08121146WA0139201380002025003000
B1740523338425N08121193WA0139201379002018003000
B1740543338430N08121239WA0138401376002009003000
B1740563338434N08121286WA0137101364002006003000
B1740583338438N08121336WA0135801350002009003000
B1741003338441N08121388WA0134701338002006003000
B1741023338444N08121441WA0134001328002002003000
B1741043338448N08121495WA0133601322002000003000
B1741063338451N08121548WA0133401319002000003000
B1741083338454N08121601WA0133301317002000003000
B1741103338457N08121654WA0133401317002000003000
B1741123338460N08121706WA0134601323002000003000
B1741143338464N08121757WA0135901337002000003000
B1741163338469N08121805WA0137201352002000003000
B1741183338476N08121851WA0138701365002000003000
B1741203338481N08121895WA0139901378002000003000
B1741223338470N08121935WA0140701391002000004000
F174122172807143001192108
B1741243338442N08121956WA0141301401003002004000
B1741263338407N08121945WA0141701407004002005000
B1741283338382N08121908WA0141901410004023005000
F17412817281307143001192108
B1741303338373N08121858WA0142001412003053005000
B1741323338377N08121803WA0142001414003055004000
B1741343338394N08121749WA0142001415003032004000
B1741363338425N08121707WA0142601418003015004000
B1741383338466N08121688WA0143701426003006004000
B1741403338504N08121697WA0144401434003000004000
B1741423338528N08121728WA0144801438003000004000
B1741443338528N08121768WA0145701442003000004000
B1741463338507N08121799WA0145401447002011004000
B1741483338473N08121810WA0145401452003022005000
B1741503338434N08121794WA0145801453003020005000
B1741523338404N08121756WA0145901455003027005000
F174152172813071430012108
B1741543338389N08121702WA0146201458003029005000
B1741563338393N08121643WA0146101459003013005000
B1741583338417N08121590WA0145901453003004004000
F17415917281307143001192108
B1742003338459N08121562WA0146101453003016005000
B1742023338505N08121563WA0147001459003025005000
B1742043338543N08121588WA0147801466003018005000
B1742063338559N08121631WA0148601474003009005000
B1742083338549N08121675WA0149401484003002005000
B1742103338519N08121704WA0149901491003000004000
B1742123338478N08121710WA0150001495003000005000
B1742143338436N08121688WA0150501498004000005000
B1742163338407N08121642WA0151201504003000005000
F174216172813071430012108
B1742183338399N08121582WA0152001511003002005000
B1742203338414N08121525WA0152101515003002004000
F17422117281307143001192108
B1742223338446N08121483WA0152301514003018004000
B1742243338491N08121467WA0153001520003025005000
B1742263338531N08121480WA0154001528003009005000
F174226172813071430011921
B1742283338556N08121513WA0155101539003002004000
F174228172807143001190821
B1742303338559N08121554WA0155801547003000004000
B1742323338544N08121591WA0156101552003000004000
B1742343338515N08121618WA0156201554003000004000
B1742363338477N08121625WA0156601555003000004000
B1742383338437N08121609WA0157601561003000005000
B1742403338405N08121572WA0158601571003000004000
B1742423338388N08121523WA0159201580003000004000
F17424217281307143001190821
B1742443338387N08121469WA0159801586003000004000
B1742463338404N08121420WA0160301592002002004000
F174246281307143001190821
B1742483338435N08121385WA0160701597002004004000
F17424817281307143001190821
B1742503338471N08121368WA0161101601003006004000
B1742523338507N08121374WA0161801606003006004000
B1742543338534N08121396WA0161801608002002004000
B1742563338552N08121428WA0161701608002002004000
B1742583338555N08121467WA0161901609003002004000
B1743003338543N08121504WA0162401614002000004000
B1743023338519N08121531WA0162801619002004004000
B1743043338485N08121542WA0163601624003006004000
B1743063338448N08121530WA0164101630003000004000
B1743083338420N08121494WA0164501635003000004000
B1743103338409N08121442WA0165001637003000004000
B1743123338420N08121389WA0165101638002007004000
B1743143338448N08121346WA0164901638002041004000
B1743163338485N08121317WA0165101637002086004000
B1743183338527N08121304WA0165101637003095004000
B1743203338567N08121310WA0165601643003069004000
B1743223338598N08121334WA0166301649002048004000
F174323172807143001190821
B1743243338617N08121368WA0166801655002025004000
F17432517281307143001190821
B1743263338625N08121406WA0167201660002006004000
B1743283338625N08121445WA0167301665002002004000
B1743303338619N08121486WA0167601666002000004000
B1743323338612N08121527WA0167801667002000004000
B1743343338603N08121569WA0168001668002011004000
B1743363338594N08121612WA0168001669002055004000
B1743383338586N08121657WA0168201670002064004000
B1743403338578N08121703WA0168801673002034004000
B1743423338571N08121749WA0169201679002020004000
B1743443338564N08121796WA0169401681002011004000
B1743463338557N08121843WA0169101681002011004000
B1743483338552N08121890WA0169001679002013004000
B1743503338547N08121939WA0168601677002022004000
B1743523338544N08121987WA0168301674002032004000
B1743543338541N08122035WA0167701669002025004000
B1743563338539N08122083WA0167201663002020004000
B1743583338537N08122131WA0166601656002011004000
B1744003338535N08122179WA0166001651002004004000
B1744023338534N08122227WA0165601646002009004000
B1744043338532N08122276WA0164501638002006004000
B1744063338531N08122326WA0163701627002000004000
B1744083338529N08122378WA0162701617002000003000
B1744103338528N08122433WA0162201611002000003000
B1744123338527N08122488WA0161901607002000003000
B1744143338527N08122544WA0162101606002000003000
B1744163338527N08122599WA0161801608002002003000
B1744183338528N08122652WA0161801611002020003000
B1744203338529N08122703WA0162101610002020003000
B1744223338530N08122754WA0161901606002011003000
B1744243338535N08122804WA0161901605002023003000
B1744263338544N08122852WA0161801604002025003000
B1744283338559N08122899WA0161901603002009003000
B1744303338578N08122944WA0161601602002009003000
B1744323338599N08122987WA0161701604002018003000
B1744343338621N08123029WA0161801604002013003000
B1744363338643N08123070WA0161901605002006003000
B1744383338667N08123110WA0162401609002013003000
B1744403338691N08123148WA0163001614002015003000
B1744423338717N08123185WA0164101622002009003000
F174443172807143001190821
B1744443338740N08123222WA0164901632002002003000
B1744463338746N08123263WA0165801642003000004000
B1744483338723N08123294WA0166401651003000004000
B1744503338685N08123295WA0166901659004002005000
B1744523338648N08123270WA0167101661004004005000
F17445217281307143001190821
B1744543338626N08123225WA0167601667003002005000
B1744563338621N08123170WA0167401669003023005000
B1744583338640N08123123WA0167501670002085004000
B1745003338675N08123095WA0168201673002137004000
B1745023338715N08123087WA0168601678002128004000
B1745043338753N08123095WA0169501683002093004000
B1745063338784N08123115WA0169701689002069004000
B1745083338805N08123145WA0169601690002095004000
F174508172807143001190821
B1745103338815N08123182WA0169401689002137004000
F17451117281307143001190821
B1745123338811N08123220WA0170001690002137004000
B1745143338798N08123256WA0169601691002102004000
F1745151728221307143001190821
B1745163338779N08123287WA0169501690002092003000
B1745183338754N08123315WA0169201686002132003000
B1745203338724N08123338WA0168301680002175003000
B1745223338689N08123355WA0167701671002202003000
B1745243338649N08123366WA0167701667002188003000
B1745263338608N08123374WA0167501666002153003000
B1745283338566N08123380WA0167701667002156003000
B1745303338526N08123385WA0167701667002183003000
B1745323338485N08123387WA0167801666002195003000
B1745343338443N08123387WA0168201670002163003000
B1745363338400N08123384WA0168501673002104003000
B1745383338359N08123376WA0168301672002071003000
B1745403338321N08123350WA0169101675002076003000
B1745423338295N08123308WA0169601681003074003000
B1745443338288N08123255WA0170101687003048003000
B1745463338302N08123207WA0170701693002053003000
B1745483338332N08123177WA0170901696003060004000
B1745503338371N08123169WA0170601697003060004000
F17455017281307143001190821
B1745523338408N08123183WA0170501696003062003000
B1745543338440N08123211WA0170601695002046003000
B1745563338463N08123250WA0171101699002027003000
F17455617282207143001190821
B1745583338472N08123296WA0171801707002018003000
B1746003338460N08123340WA0172201713002032003000
F174600172822071430010821
B1746023338429N08123368WA0172501718002039003000
B1746043338389N08123373WA0172701720003020004000
B1746063338353N08123346WA0172901722003020004000
F1746061728221307143001190821
F17460717281307143001190821
B1746083338338N08123298WA0173301724003076004000
B1746103338344N08123247WA0173501725003109004000
F1746101728221307143001190821
F17461117281307143001190821
B1746123338362N08123200WA0173301726002083003000
F1746121728221307143001190821
B1746143338390N08123161WA0173401725002069003000
F17461428221307143001190821
F1746151728221307143001190821
B1746163338427N08123135WA0173801728002102003000
B1746183338468N08123125WA0174301731002128003000
B1746203338508N08123125WA0174801736002092003000
B1746223338548N08123129WA0175301741002050003000
B1746243338588N08123141WA0175701744002029003000
F17462417281307143001190821
B1746263338617N08123169WA0176101749003015003000
F17462617282207143001190821
B1746283338624N08123210WA0176101753003018003000
B1746303338607N08123246WA0176101755003058003000
F174630172822071430010821
B1746323338574N08123264WA0175901754003118003000
F17463217282207143001190821
B1746343338533N08123261WA0175701751003167003000
F1746351728221307143001190821
B1746363338493N08123242WA0175501747002186003000
B1746383338455N08123214WA0175801747002155003000
B1746403338421N08123179WA0176001750002104003000
B1746423338391N08123139WA0176501755002081003000
B1746443338365N08123096WA0177001762002064003000
B1746463338342N08123051WA0177101765002048003000
B1746483338321N08123005WA0177401768002048003000
F17464817281307143001190821
B1746503338302N08122957WA0177801772002041003000
B1746523338284N08122911WA0177901774002041003000
B1746543338265N08122864WA0178101774002065003000
B1746563338245N08122817WA0178201776002062003000
B1746583338225N08122770WA0178401778002039003000
B1747003338204N08122724WA0178401778002034003000
F1747001728221307143001190821
B1747023338182N08122679WA0178301778002041003000
F174702172822130714300119082151
B1747043338161N08122632WA0178101776002053003000
B1747063338144N08122582WA0178101774002072003000
B1747083338136N08122528WA0178801779002076003000
B1747103338142N08122475WA0179401786002055003000
B1747123338164N08122431WA0179601791002039003000
F1747131728221307143001190821
B1747143338197N08122403WA0179301791003025004000
F17471417281307143001190821
B1747163338238N08122395WA0179101789003022003000
B1747183338278N08122405WA0178801786003064003000
F1747181728221307143001190821
B1747203338314N08122429WA0178701784003130003000
B1747223338346N08122460WA0178501782002170003000
B1747243338375N08122496WA0178701782002193003000
B1747263338401N08122534WA0178901785002191003000
B1747283338426N08122572WA0179401788002135003000
B1747303338450N08122609WA0179301789002093003000
B1747323338475N08122645WA0179001787002088003000
B1747343338498N08122682WA0179101784002076003000
B1747363338518N08122723WA0179401786002055003000
B1747383338534N08122767WA0179401787002034003000
B1747403338548N08122812WA0179601789002013003000
B1747423338561N08122858WA0180101793002002003000
B1747443338569N08122906WA0180501796002002003000
B1747463338562N08122953WA0181601803002023003000
B1747483338539N08122991WA0182101813002034003000
B1747503338504N08123013WA0182401817003020003000
B1747523338463N08123018WA0182501817003015004000
B1747543338422N08123005WA0182401817003039004000
B1747563338387N08122972WA0182701818003064004000
B1747583338363N08122926WA0182801821003064003000
B1748003338348N08122874WA0183001824002074003000
B1748023338340N08122820WA0183101825003109003000
B1748043338342N08122765WA0183001826002109003000
B1748063338355N08122712WA0183101826002100003000
B1748083338376N08122663WA0183401828002111003000
B1748103338404N08122620WA0183701831002125003000
B1748123338435N08122583WA0184001834002123003000
B1748143338469N08122550WA0184001837002100003000
B1748163338504N08122521WA0183801835002116003000
B1748183338541N08122496WA0183801833002146003000
B1748203338580N08122476WA0183801833002156003000
B1748223338620N08122462WA0183901834002137003000
B1748243338662N08122457WA0183701833002097003000
B1748263338703N08122461WA0183601831002062003000
B1748283338743N08122474WA0183501829002043003000
B1748303338780N08122496WA0183601829002046003000
F174831172822130714300119082144
B1748323338812N08122525WA0183801831002036003000
B1748343338839N08122559WA0183801832002034003000
F1748341728130714300119082144
B1748363338860N08122596WA0184001833002053003000
F17483617280714300119082144
B1748383338872N08122637WA0183901835002046003000
F1748381728071430011908214451
F174839172822071430011908214451
B1748403338873N08122680WA0183901834002027003000
B1748423338861N08122720WA0183701833002022003000
B1748443338839N08122752WA0183401831002030003000
F174844172822130714300119082144
F174845172822071430011908214451
B1748463338807N08122775WA0183401827002051003000
F174846172822130714300119082144
B1748483338769N08122783WA0182901825002095003000
B1748503338728N08122778WA0182601821002119003000
B1748523338686N08122766WA0182101816002130003000
B1748543338644N08122749WA0181401810002163003000
B1748563338601N08122730WA0181001805002163003000
B1748583338558N08122709WA0181201804002135003000
B1749003338513N08122688WA0181701806002095003000
B1749023338469N08122669WA0183301817002062003000
B1749043338429N08122652WA0184601833002053003000
B1749063338392N08122635WA0184901843002053003000
B1749083338356N08122618WA0184701842002067003000
B1749103338319N08122599WA0184401838002079003000
B1749123338281N08122578WA0184401837002055003000
B1749143338244N08122556WA0184401837002027003000
B1749163338208N08122531WA0184901839002024003000
B1749183338174N08122506WA0184901841002041003000
B1749203338140N08122481WA0184501840002060003000
F174920172822130730011908214451
B1749223338105N08122454WA0184301835002053003000
F174922172822130714300119082144
B1749243338071N08122426WA0184101834002057003000
B1749263338036N08122399WA0183801829002060003000
F174926172213071430011908214451
B1749283338000N08122372WA0183301826002050003000
F174929172822130714300119082144
B1749303337964N08122343WA0183001822002062003000
B1749323337927N08122312WA0182601819002067003000
B1749343337889N08122281WA0182101814002048003000
B1749363337852N08122248WA0181301808002032003000
B1749383337814N08122216WA0180801801002034003000
B1749403337774N08122186WA0180201794002048003000
B1749423337732N08122165WA0180001790002050003000
B1749443337689N08122150WA0180001791002032003000
B1749463337647N08122140WA0179501789002027003000
B1749483337604N08122129WA0179301786002029003000
B1749503337562N08122114WA0179001783002018003000
B1749523337520N08122097WA0178801780002013003000
B1749543337479N08122077WA0178701778002025003000
B1749563337439N08122058WA0178701778002032003000
B1749583337399N08122039WA0178701779002046003000
B1750003337359N08122023WA0178301776002055003000
B1750023337320N08122008WA0178001772002041003000
B1750043337280N08121996WA0177801770002018003000
B1750063337239N08121985WA0177601768002002003000
B1750083337200N08121972WA0177301766002002003000
B1750103337160N08121958WA0177101763002013003000
B1750123337122N08121941WA0176701760002013003000
B1750143337083N08121922WA0176301755002000003000
B1750163337043N08121903WA0175601748002000003000
B1750183337003N08121882WA0175201745002000003000
B1750203336964N08121860WA0174901741002000003000
B1750223336925N08121836WA0174901740002000003000
B1750243336888N08121811WA0174701738002000003000
B1750263336851N08121786WA0174401735002000003000
B1750283336814N08121762WA0174101732002000003000
B1750303336777N08121739WA0173601729002000003000
B1750323336740N08121717WA0173501725002000003000
B1750343336702N08121697WA0173401725002002003000
B1750363336665N08121676WA0172901723002009003000
B1750383336627N08121654WA0172501717002009003000
B1750403336590N08121632WA0172001712002018003000
B1750423336551N08121612WA0171301705002018003000
B1750443336511N08121591WA0170301696002016003000
B1750463336471N08121568WA0169701688002022003000
B1750483336432N08121542WA0169901686002015003000
B1750503336394N08121512WA0170201690002002003000
B1750523336359N08121481WA0170701694002000003000
B1750543336323N08121451WA0170701696002000003000
B1750563336287N08121423WA0170501695002004003000
B1750583336251N08121394WA0170601695002020003000
B1751003336215N08121364WA0170801697002029003000
B1751023336179N08121335WA0170901699002036003000
B1751043336144N08121303WA0171201701002037003000
B1751063336110N08121271WA0171101702002039003000
B1751083336076N08121238WA0170601699002048003000
B1751103336043N08121205WA0169401689002048003000
B1751123336009N08121170WA0168701679002032003000
B1751143335974N08121136WA0168701675002013003000
B1751163335940N08121104WA0167901671002004003000
B1751183335905N08121072WA0167301664002004003000
B1751203335870N08121039WA0166201657002000003000
B1751223335834N08121005WA0164701643002000003000
B1751243335795N08120969WA0163601630002000003000
B1751263335753N08120931WA0162901621002000003000
B1751283335709N08120891WA0162601616002009003000
B1751303335664N08120850WA0162401615002032003000
B1751323335618N08120809WA0162201613002043003000
B1751343335571N08120769WA0162001610002039003000
B1751363335522N08120731WA0161801608002039003000
B1751383335472N08120693WA0162201609002034003000
B1751403335423N08120658WA0162301613002024003000
B1751423335374N08120624WA0161801610002027003000
B1751443335324N08120591WA0161401605002029003000
B1751463335274N08120561WA0161201601002027003000
B1751483335223N08120532WA0160901600002024003000
B1751503335172N08120502WA0161401600002022003000
B1751523335122N08120471WA0161901606002029003000
B1751543335074N08120441WA0162001610002029003000
B1751563335027N08120411WA0162501612002022003000
B1751583334981N08120383WA0163201618002024003000
B1752003334934N08120356WA0163501623002022003000
B1752023334888N08120331WA0164201628002018003000
B1752043334842N08120305WA0164201632002032003000
B1752063334796N08120279WA0164101632002050003000
B1752083334751N08120253WA0163701630002048003000
B1752103334706N08120226WA0163401626002032003000
B1752123334661N08120199WA0162701621002018003000
B1752143334615N08120173WA0162201614002018003000
B1752163334568N08120148WA0162201611002018003000
B1752183334520N08120126WA0162301612002018003000
B1752203334472N08120107WA0162101611002022003000
B1752223334422N08120096WA0162101611002018003000
B1752243334371N08120094WA0162001611002011004000
B1752263334321N08120099WA0161701609002013004000
B1752283334271N08120107WA0161501607002022004000
B1752303334222N08120118WA0161301604002027004000
B1752323334174N08120132WA0161101601002036004000
B1752343334127N08120147WA0160901600002041004000
B1752363334081N08120163WA0160901599002041004000
B1752383334036N08120180WA0160401598002048004000
B1752403333991N08120199WA0160101593002041004000
B1752423333948N08120219WA0159701589002022004000
B1752443333905N08120240WA0159601585002009004000
B1752463333864N08120263WA0159601585002004004000
B1752483333822N08120287WA0159401584002023004000
B1752503333782N08120311WA0158701580002060004000
B1752523333741N08120338WA0158201573002071004000
B1752543333701N08120369WA0157701568002050004000
B1752563333661N08120401WA0157201563002027004000
B1752583333623N08120436WA0156901558002020004000
B1753003333586N08120473WA0156401553002024004000
B1753023333551N08120513WA0156001549002043004000
B1753043333518N08120555WA0155401544002053004000
B1753063333485N08120597WA0155301539002039004000
B1753083333453N08120639WA0155201538002032004000
B1753103333421N08120681WA0155001537002034004000
B1753123333389N08120723WA0154901535002043004000
B1753143333359N08120765WA0154701534002048004000
B1753163333329N08120808WA0154701532002046004000
B1753183333300N08120850WA0154401530002041004000
B1753203333271N08120892WA0154301528002053004000
B1753223333243N08120936WA0154101526002076004000
B1753243333216N08120982WA0154001525002069004000
B1753263333192N08121029WA0153801522002046004000
B1753283333172N08121080WA0153901522002046004000
B1753303333159N08121133WA0154001524002064004000
B1753323333152N08121187WA0153801523002067004000
B1753343333151N08121242WA0153801522002057004000
B1753363333155N08121297WA0153301520002055004000
B1753383333163N08121352WA0152801515002048004000
F175339172822130714300119082151
B1753403333176N08121406WA0152501511002041004000
B1753423333192N08121459WA0152201508002048004000
B1753443333210N08121511WA0152401507002053004000
B1753463333231N08121561WA0152501510002055004000
B1753483333252N08121610WA0151901507002050004000
B1753503333274N08121657WA0151401502002041004000
B1753523333298N08121701WA0151101498002034004000
B1753543333323N08121744WA0150701494002016004000
B1753563333350N08121784WA0150401490002002004000
B1753583333380N08121822WA0149801486002002004000
B1754003333410N08121861WA0149401480002015004000
B1754023333442N08121900WA0149401478002032004000
B1754043333475N08121938WA0149201478002037004000
B1754063333508N08121976WA0149101476002034004000
F175407172822130714300119082144
B1754083333543N08122010WA0149101476002025004000
B1754103333579N08122043WA0149301477002032004000
B1754123333616N08122074WA0149601479002046004000
B1754143333652N08122105WA0149801483002036004000
F175414172822461307143001190821
B1754163333690N08122135WA0150401486002018004000
B1754183333728N08122163WA0150601491002006004000
B1754203333766N08122191WA0150701493002002004000
B1754223333806N08122218WA0150401492002000004000
B1754243333846N08122243WA0150701492002009004000
B1754263333886N08122269WA0151201497002013004000
B1754283333927N08122293WA0151501500002027004000
B1754303333970N08122314WA0152301505002043004000
B1754323334015N08122329WA0152601510002032004000
B1754343334063N08122336WA0153201516002018004000
B1754363334111N08122338WA0153401520002013004000
B1754383334159N08122339WA0154101523002020004000
B1754403334206N08122337WA0155101532002024004000
B1754423334252N08122335WA0155401539002036004000
B1754443334296N08122337WA0156601544002043004000
B1754463334334N08122354WA0157001553002037004000
B1754483334360N08122385WA0157101558002029004000
B1754503334373N08122423WA0156901557003018004000
B1754523334375N08122466WA0156301554003018004000
B1754543334372N08122509WA0154801545003039004000
B1754563334368N08122553WA0153501528002076004000
B1754583334366N08122600WA0152501515002109004000
B1755003334368N08122648WA0151601507002118004000
B1755023334370N08122696WA0150701498002099004000
B1755043334374N08122744WA0150301490002062004000
B1755063334379N08122792WA0150501488002034004000
B1755083334389N08122840WA0150901493002032004000
B1755103334401N08122886WA0150801495002037004000
B1755123334418N08122930WA0150501493002048004000
B1755143334437N08122973WA0150201490002064004000
B1755163334461N08123014WA0149901487002055004000
B1755183334489N08123053WA0149601482002027004000
B1755203334521N08123088WA0149501481002006004000
B1755223334555N08123120WA0149401480002002004000
B1755243334591N08123151WA0149001478002002004000
B1755263334629N08123178WA0148701474002000004000
B1755283334671N08123199WA0148501471002000004000
B1755303334714N08123215WA0148001467002000004000
B1755323334760N08123225WA0147701463002014004000
B1755343334807N08123229WA0147601461002050004000
B1755363334854N08123226WA0147501460002071004000
B1755383334900N08123218WA0147401458002060004000
B1755403334945N08123205WA0147301458002039004000
B1755423334988N08123187WA0147201457002037004000
B1755443335029N08123165WA0146601455002032004000
B1755463335068N08123142WA0146201450002027004000
B1755483335108N08123118WA0146301447002036004000
B1755503335146N08123092WA0146601450002039004000
B1755523335182N08123065WA0147101454002036004000
B1755543335217N08123036WA0147201458002057004000
B1755563335251N08123004WA0147601461002057004000
B1755583335283N08122970WA0147501463002027004000
B1756003335314N08122933WA0147501462002011004000
B1756023335343N08122892WA0147901463002013004000
B1756043335368N08122847WA0148301468002034004000
B1756063335390N08122801WA0148401470002044004000
B1756083335412N08122756WA0148301469002029004000
B1756103335436N08122710WA0148601471002029004000
B1756123335463N08122668WA0148701473002034004000
B1756143335497N08122633WA0149101476002034004000
B1756163335537N08122612WA0149201478002029004000
B1756183335580N08122605WA0149101478002020004000
B1756203335623N08122616WA0148801476003018004000
F1756201728461307143001190821
B1756223335659N08122643WA0148101471003022004000
B1756243335683N08122685WA0147701466003053004000
B1756263335693N08122736WA0147201460003128004000
F175626172822461307143001190821
B1756283335687N08122787WA0147701462003144004000
B1756303335666N08122834WA0147701465003098004000
B1756323335634N08122872WA0147901466003086004000
B1756343335591N08122895WA0148201468003072004000
B1756363335544N08122903WA0149101476003043004000
B1756383335497N08122900WA0149301481003027004000
B1756403335449N08122890WA0149601483002015004000
B1756423335403N08122875WA0150101486002039004000
B1756443335359N08122855WA0150501491002109004000
B1756463335318N08122829WA0150801495002118004000
B1756483335280N08122798WA0151201499002071004000
B1756503335244N08122763WA0151601503002060004000
F175650172246130714300119082151
B1756523335214N08122721WA0152301508002065004000
F175653172822461307143001190821
B1756543335192N08122672WA0152501512002067004000
B1756563335177N08122619WA0152301513002057004000
B1756583335163N08122565WA0151701509002039004000
B1757003335147N08122512WA0150901502002032004000
B1757023335124N08122463WA0150601495002022004000
B1757043335097N08122418WA0149501489002006004000
B1757063335066N08122377WA0148801480002004004000
B1757083335033N08122337WA0148001472002006004000
B1757103334999N08122298WA0146901463002002004000
B1757123334965N08122259WA0146001452002006004000
B1757143334931N08122218WA0144901441002006004000
B1757163334896N08122176WA0143901430002000004000
B1757183334861N08122134WA0143201421002000004000
B1757203334826N08122090WA0143001417002000004000
B1757223334792N08122047WA0142901415002000004000
B1757243334758N08122004WA0142501414002000004000
B1757263334725N08121961WA0142401412002000004000
B1757283334691N08121919WA0142201409002000004000
B1757303334658N08121878WA0142101409002000004000
B1757323334625N08121837WA0141701406002000004000
B1757343334593N08121796WA0141801404002018004000
B1757363334561N08121756WA0142201407002032004000
B1757383334528N08121719WA0142301409002067004000
B1757403334493N08121687WA0142701412002083004000
B1757423334458N08121658WA0142801415002053004000
B1757443334421N08121631WA0142401413002062004000
B1757463334385N08121606WA0142401411002081004000
B1757483334349N08121581WA0142701413002079004000
B1757503334315N08121554WA0142701413002081004000
B1757523334283N08121523WA0142701414002104004000
B1757543334253N08121488WA0142701414002100004000
B1757563334225N08121450WA0142301411002097004000
B1757583334202N08121404WA0142201409002125004000
B1758003334184N08121352WA0142201408002109004000
B1758023334174N08121297WA0142301409002086004000
B1758043334175N08121240WA0142601411002090004000
B1758063334187N08121185WA0142701414002097004000
F175806282246130714300119082151
B1758083334207N08121134WA0142701416002100004000
F175808172822461307143001190821
B1758103334235N08121091WA0142801416002107004000
B1758123334270N08121055WA0143101417002097004000
B1758143334308N08121029WA0143301421002078004000
B1758163334349N08121012WA0143301422002109004000
B1758183334391N08121004WA0143001420002167004000
B1758203334433N08121004WA0142101414002198004000
B1758223334475N08121007WA0141101403002184004000
B1758243334519N08121010WA0139601390002125004000
B1758263334564N08121008WA0138401377002067004000
B1758283334612N08121000WA0137001362002041004000
B1758303334660N08120986WA0136101350002034004000
B1758323334710N08120971WA0135201341002046004000
B1758343334761N08120955WA0134501333002086004000
B1758363334812N08120939WA0133901325002128004000
B1758383334863N08120922WA0133301320002114004000
B1758403334914N08120905WA0132901315002067004000
B1758423334965N08120887WA0132201310002041004000
B1758443335016N08120869WA0131701304002020004000
B1758463335068N08120850WA0131501299002006004000
B1758483335119N08120831WA0131501298002006004000
B1758503335169N08120811WA0131501300002032004000
B1758523335219N08120791WA0131401299002074004000
B1758543335267N08120771WA0130901296002072004000
B1758563335315N08120750WA0130501291002041004000
B1758583335363N08120729WA0130401289002020004000
B1759003335410N08120708WA0130301288002006004000
B1759023335456N08120685WA0129701284002000004000
B1759043335503N08120662WA0129001278002006004000
B1759063335549N08120639WA0128601272002020004000
B1759083335595N08120614WA0128201267002029004000
B1759103335636N08120581WA0127601263002029004000
B1759123335672N08120539WA0127001257002015004000
B1759143335703N08120490WA0126401249002004004000
B1759163335729N08120436WA0125801243002000004000
B1759183335751N08120378WA0125701240002000004000
B1759203335771N08120318WA0126001240002002004000
B1759223335790N08120258WA0126901247002009004000
B1759243335805N08120199WA0127901257002009004000
B1759263335819N08120141WA0129101267002013004000
B1759283335840N08120090WA0130401282002027004000
B1759303335866N08120044WA0131501293002034004000
B1759323335888N08119997WA0132301303002022004000
B1759343335904N08119947WA0133601314002006004000
B1759363335914N08119895WA0133701320002006004000
B1759383335920N08119843WA0134201323002011004000
B1759403335925N08119790WA0134901330002004004000
B1759423335933N08119738WA0135001333002000004000
B1759443335954N08119693WA0135601338002002004000
F1759441728221307143001190821
B1759463335989N08119665WA0135801344003004004000
F17594717281307143001190821
B1759483336030N08119663WA0135501343003004004000
B1759503336064N08119690WA0135201340003023004000
F17595117282207143001190821
B1759523336080N08119734WA0135201340003034004000
B1759543336073N08119781WA0136201345003022004000
F1759541728221307143001190821
B1759563336049N08119818WA0136401351003015004000
B1759583336014N08119843WA0136101351003039004000
B1800003335973N08119851WA0136201349003102004000
B1800023335930N08119836WA0137001352003118004000
B1800043335894N08119801WA0137401359003130004000
B1800063335868N08119756WA0137901364003165004000
B1800083335857N08119703WA0138801372003130004000
B1800103335861N08119650WA0139201379003072004000
B1800123335879N08119602WA0139301382003036004000
B1800143335910N08119564WA0139401383003029004000
B1800163335950N08119544WA0139901387003060004000
B1800183335990N08119546WA0140701392003125004000
B1800203336026N08119565WA0140801396003160004000
B1800223336056N08119592WA0140501396003135004000
B1800243336086N08119623WA0140501393003097004000
B1800263336117N08119654WA0140701393003090004000
B1800283336151N08119682WA0141001396002116004000
B1800303336186N08119707WA0141101399002104004000
B1800323336220N08119731WA0141001398002060004000
B1800343336255N08119753WA0140901396002036004000
B1800363336291N08119775WA0140801395002027004000
B1800383336327N08119795WA0140901395002043004000
B1800403336364N08119813WA0141501397002081004000
B1800423336402N08119827WA0141601401002114004000
F180043172822461307143001190821
B1800443336439N08119839WA0141601402002121004000
B1800463336477N08119853WA0141701402002102004000
B1800483336514N08119867WA0142201405002076004000
B1800503336551N08119881WA0142301408002048004000
B1800523336586N08119899WA0142501410002046004000
B1800543336619N08119921WA0142901413002050004000
B1800563336650N08119945WA0143101415002048004000
B1800583336680N08119970WA0143001415002046004000
B1801003336711N08119995WA0143101416002079004000
B1801023336742N08120019WA0143201417002095004000
B1801043336774N08120042WA0143501418002060004000
B1801063336805N08120066WA0143501420002041004000
B1801083336836N08120091WA0143101419002044004000
B1801103336864N08120122WA0143101417002062004000
B1801123336887N08120158WA0143101417002067004000
B1801143336905N08120198WA0143001416002046004000
B1801163336920N08120240WA0142901415002020004000
B1801183336934N08120282WA0142601413002002004000
B1801203336948N08120325WA0142201409002000004000
B1801223336962N08120369WA0141701404002007004000
B1801243336974N08120413WA0141101400002032004000
B1801263336986N08120458WA0140901396002053004000
B1801283336998N08120503WA0140501393002055004000
B1801303337009N08120548WA0140101389002041004000
B1801323337020N08120595WA0139501383002041004000
B1801343337032N08120641WA0138901377002036004000
B1801363337046N08120687WA0138201371002015004000
B1801383337060N08120733WA0137701365002004004000
B1801403337076N08120779WA0136901356002011004000
B1801423337097N08120824WA0136101348002020004000
B1801443337121N08120868WA0135401341002015004000
B1801463337146N08120912WA0134901334002004004000
B1801483337170N08120955WA0135001333002009004000
B1801503337192N08120998WA0135101334002018004000
B1801523337213N08121040WA0134801334002011004000
B1801543337234N08121081WA0134201329002006004000
B1801563337258N08121119WA0133501322002009004000
B1801583337284N08121157WA0132501314002004004000
B1802003337313N08121193WA0131501303002000004000
B1802023337345N08121229WA0130801293002000004000
B1802043337378N08121264WA0130201287002011004000
B1802063337411N08121301WA0129601281002027004000
B1802083337446N08121337WA0128401272002022004000
B1802103337485N08121371WA0127601262002006004000
B1802123337525N08121403WA0126901253002002004000
B1802143337566N08121434WA0126401248002000004000
B1802163337607N08121465WA0126001244002000004000
B1802183337648N08121496WA0125901243002000004000
B1802203337689N08121526WA0125601241002002004000
B1802223337731N08121554WA0124601233002002004000
B1802243337777N08121579WA0123601222002000004000
B1802263337825N08121603WA0122601213002000004000
B1802283337874N08121627WA0122201204002018004000
B1802303337923N08121653WA0122201203002039004000
B1802323337969N08121680WA0122301205002060004000
B1802343338014N08121711WA0122701208002074004000
B1802363338058N08121741WA0123201211002072004000
B1802383338100N08121773WA0123801218002057004000
B1802403338141N08121803WA0123901222002041004000
B1802423338182N08121831WA0124201224002032004000
B1802443338222N08121858WA0124501227002032004000
B1802463338261N08121884WA0124701229002022004000
B1802483338299N08121911WA0124801231002020004000
B1802503338336N08121940WA0125001232002018004000
B1802523338372N08121969WA0125501235002011004000
B1802543338409N08121998WA0126501243002006004000
B1802563338440N08122030WA0127101250002006004000
F180257172822460714300119082144
B1802583338451N08122073WA0127901259003015004000
B1803003338438N08122114WA0128101266003018004000
B1803023338407N08122142WA0128301268003015004000
B1803043338365N08122151WA0128501268003013004000
F1803041728220714300119082144
B1803063338322N08122135WA0129001272003015004000
F1803071728221307143001190821
B1803083338290N08122097WA0129501278003020004000
B1803103338270N08122048WA0130101285003020004000
F18031017281307143001190821
B1803123338263N08121996WA0129801286003036004000
B1803143338269N08121943WA0129701283003111004000
F18031528221307143001190821
B1803163338291N08121898WA0129601282003197004000
F1803171728221307143001190821
B1803183338324N08121861WA0129201280003230004000
B1803203338364N08121835WA0129101277003219004000
F180320172822130714300119082144
B1803223338408N08121819WA0129201277003163004000
B1803243338453N08121812WA0129001279002118004000
B1803263338498N08121810WA0128501275002139004000
B1803283338544N08121814WA0127801268002165004000
B1803303338590N08121825WA0126601257002181004000
B1803323338636N08121844WA0125801247002172004000
B1803343338681N08121869WA0125401241002156004000
B1803363338725N08121898WA0125401239002200004000
B1803383338769N08121929WA0125801240002230004000
B1803403338811N08121960WA0126001243002204004000
B1803423338855N08121986WA0126301247002169004000
B1803443338900N08122009WA0126801251002120004000
B1803463338945N08122029WA0127001254002088004000
B1803483338989N08122048WA0126701253002072004000
B1803503339034N08122068WA0126801251002048004000
B1803523339077N08122092WA0126801253002034004000
B1803543339118N08122119WA0127001253002024004000
B1803563339158N08122149WA0127601258002025004000
B1803583339194N08122182WA0128001263002034004000
B1804003339226N08122217WA0128501268002039004000
B1804023339256N08122254WA0128801272002027004000
B1804043339282N08122293WA0129101273003034004000
B1804063339298N08122337WA0129801278003067004000
F180406172822071430011908214451
B1804083339299N08122383WA0130301286003078004000
F180409172822130714300119082144
B1804103339285N08122423WA0130901292003057004000
B1804123339261N08122455WA0130901295003025004000
B1804143339227N08122475WA0130701294003041004000
B1804163339186N08122481WA0130201290003076004000
B1804183339143N08122471WA0129801284003081004000
B1804203339102N08122446WA0129601282003132004000
B1804223339063N08122413WA0129701281003191004000
B1804243339028N08122374WA0130001283003188004000
B1804263338994N08122331WA0130501288003146004000
B1804283338968N08122282WA0130801292003097004000
B1804303338963N08122225WA0131501297003132004000
F180431172813071430011908214451
B1804323338980N08122172WA0131401301003204004000
B1804343339014N08122132WA0130801298003235004000
F18043417281307143001190821
B1804363339057N08122116WA0130301291003212004000
B1804383339100N08122128WA0130501290003181004000
B1804403339130N08122161WA0130701293003200004000
B1804423339146N08122204WA0130901296003218004000
F1804421728221307143001190821
B1804443339147N08122251WA0130601294003218004000
B1804463339134N08122295WA0130301292003218004000
B1804483339110N08122333WA0130401290003235004000
B1804503339075N08122359WA0131201293003246004000
B1804523339032N08122364WA0131601300003207004000
B1804543338988N08122358WA0131701302003160004000
B1804563338944N08122346WA0131801302003163004000
B1804583338901N08122325WA0131901305003137004000
B1805003338866N08122288WA0132601309003093004000
B1805023338857N08122236WA0133301316003088004000
F18050217281307143001190821
B1805043338874N08122189WA0134201324003128004000
B1805063338906N08122159WA0134301330003163004000
B1805083338943N08122144WA0134301332003137004000
F1805081728221307143001190821
B1805103338980N08122150WA0133901329003111004000
F18051017282207143001190821
F1805111728221307143001190821
B1805123339006N08122180WA0133701326003116004000
F18051217282207143001190821
B1805143339011N08122223WA0133701323003135004000
F1805151728221307143001190821
B1805163338994N08122261WA0133901326003144004000
F18051717282207143001190821
B1805183338960N08122284WA0134001329003119004000
B1805203338917N08122282WA0133901327003109004000
B1805223338879N08122251WA0134001327003128004000
F1805231728221307143001190821
B1805243338854N08122202WA0134501331003109004000
B1805263338845N08122146WA0134801334003097004000
B1805283338858N08122092WA0135201339003109004000
F18052917281307143001190821
B1805303338887N08122052WA0135501342003083004000
B1805323338927N08122032WA0136001346003055004000
B1805343338968N08122036WA0135901348003055005000
F180535172813071430011921
B1805363338999N08122064WA0135601343003067004000
F1805371728130714300119
B1805383339008N08122108WA0134801337003116004000
F18053817282213071430011921
F180539172822071430011921
B1805403338994N08122153WA0135001335003158004000
F18054017282207143001190821
B1805423338964N08122187WA0134901336003160004000
B1805443338922N08122207WA0134701335003174004000
B1805463338875N08122204WA0134801335003198004000
B1805483338833N08122176WA0135301337003214004000
F1805481728221307143001190821
B1805503338802N08122131WA0136101345003204004000
B1805523338785N08122078WA0136501353003174004000
F18055317281307143001190821
B1805543338782N08122022WA0136901356003160004000
F1805551728221307143001190821
B1805563338791N08121968WA0136901358003170004000
B1805583338809N08121918WA0136801357003177004000
B1806003338835N08121873WA0136301354003191004000
B1806023338866N08121832WA0135601349003223004000
B1806043338902N08121794WA0135401343003232004000
B1806063338939N08121759WA0135701341003251004000
B1806083338978N08121725WA0135801344003253004000
B1806103339015N08121691WA0136201348003186004000
B1806123339051N08121658WA0136701351003118004000
B1806143339089N08121630WA0136701353003079004000
B1806163339130N08121615WA0137001355003053004000
B1806183339171N08121619WA0137401359003029004000
B1806203339203N08121647WA0137801363003027004000
B1806223339213N08121691WA0138001366003034004000
B1806243339200N08121734WA0138301369003034004000
B1806263339165N08121760WA0138401372003039004000
B1806283339122N08121763WA0138601374003069004000
B1806303339079N08121743WA0138801376003102004000
B1806323339044N08121708WA0139101378003093004000
B1806343339016N08121663WA0138901378003095004000
B1806363338998N08121610WA0138501376003104004000
B1806383338992N08121552WA0138201373003104004000
B1806403338996N08121493WA0137701368003116004000
B1806423339013N08121438WA0137501363003116004000
B1806443339042N08121390WA0137901365003126004000
B1806463339077N08121351WA0138001369003135004000
B1806483339116N08121321WA0137701367003114004000
B1806503339158N08121303WA0137801366003104004000
B1806523339201N08121301WA0137701368003128004000
B1806543339241N08121315WA0137701367003156004000
B1806563339275N08121341WA0137401364003160004000
B1806583339300N08121377WA0137301361003156004000
B1807003339316N08121419WA0137001359003144004000
B1807023339325N08121465WA0136801356003121004000
B1807043339326N08121512WA0137001357003095004000
B1807063339322N08121560WA0136901359003060004000
B1807083339313N08121608WA0137301360003032004000
B1807103339300N08121655WA0137601362003022004000
B1807123339274N08121692WA0138701369003015004000
B1807143339233N08121698WA0139901382003009005000
F18071417221307143001190821
F18071517282207143001190821
B1807163339197N08121668WA0141001395004032005000
F18071717281307143001190821
B1807183339178N08121620WA0141601402003069005000
B1807203339176N08121564WA0141201403003088004000
B1807223339191N08121512WA0141101401003078004000
F1807231728221307143001190821
B1807243339220N08121470WA0140801398003057004000
F18072417281307143001190821
B1807263339261N08121450WA0141001399003041004000
B1807283339302N08121457WA0141501402003041004000
F1807291728221307143001190821
B1807303339334N08121485WA0141801406003053004000
B1807323339355N08121524WA0141801410003048004000
B1807343339366N08121570WA0141601408003046004000
B1807363339363N08121619WA0141101405003053004000
B1807383339349N08121667WA0140501401003043004000
B1807403339325N08121710WA0140401396003032004000
B1807423339292N08121746WA0141101399003050004000
B1807443339255N08121774WA0141201402003069004000
B1807463339215N08121791WA0141801405003069004000
B1807483339171N08121794WA0142801413003055004000
B1807503339128N08121783WA0143301420003034004000
B1807523339093N08121752WA0144301429003034004000
B1807543339071N08121705WA0145101437003043004000
B1807563339067N08121651WA0145401444003036004000
B1807583339080N08121601WA0145801448003029004000
B1808003339106N08121561WA0146001452003029004000
B1808023339141N08121536WA0146101455003020004000
B1808043339179N08121526WA0146301456003011004000
B1808063339216N08121535WA0146701459003006004000
B1808083339247N08121562WA0147201463003002004000
B1808103339268N08121599WA0147501467003000004000
B1808123339276N08121642WA0147401468003000004000
B1808143339268N08121684WA0147801468003011004000
B1808163339245N08121716WA0148101471003025004000
B1808183339210N08121731WA0148401475003022004000
B1808203339173N08121719WA0148801478003039004000
B1808223339143N08121685WA0149301483003053004000
B1808243339126N08121639WA0149601486003055004000
B1808263339125N08121587WA0149601488003069004000
B1808283339138N08121538WA0149901491003058004000
B1808303339162N08121495WA0149901491003034004000
F18083117281307143001190821
B1808323339197N08121468WA0149701491003046004000
B1808343339237N08121465WA0149801491003069004000
B1808363339273N08121486WA0149801492003062004000
B1808383339299N08121521WA0149901493003048004000
F1808391728221307143001190821
B1808403339312N08121565WA0150301495003043004000
B1808423339309N08121610WA0150101496003036004000
B1808443339294N08121651WA0150001495003048004000
B1808463339272N08121688WA0149801493003048004000
B1808483339244N08121722WA0149701491003041004000
B1808503339212N08121755WA0149701490003041004000
B1808523339181N08121788WA0150101489003034004000
B1808543339151N08121822WA0150201489003053004000
B1808563339120N08121855WA0150401489003064004000
B1808583339091N08121889WA0150801492003057004000
B1809003339065N08121926WA0151301498003055004000
B1809023339042N08121965WA0151601502003045004000
B1809043339025N08122008WA0152101505003029004000
B1809063339014N08122053WA0152301508003015004000
B1809083339009N08122100WA0152801511003004004000
B1809103339010N08122146WA0152101511003000004000
B1809123339013N08122192WA0151601506003000004000
B1809143339013N08122238WA0151701502003002004000
B1809163339003N08122281WA0151501502003011004000
B1809183338975N08122308WA0152001503003025004000
B1809203338937N08122309WA0151801504003036004000
F18092017221307143001190821
F1809211728221307143001190821
B1809223338901N08122289WA0151701503003046004000
F18092217282213073001190821
F18092317221307143001190821
B1809243338873N08122256WA0151101497003076004000
F1809251728221307143001190821
B1809263338854N08122212WA0151001493003088004000
B1809283338845N08122163WA0149701488003069004000
B1809303338844N08122112WA0149001480003048004000
B1809323338851N08122060WA0148101473003034004000
B1809343338867N08122011WA0147701467003029004000
B1809363338889N08121965WA0147101462003032004000
B1809383338914N08121922WA0146301455003034004000
B1809403338942N08121879WA0145901449003043004000
B1809423338971N08121835WA0145901446003076004000
B1809443339000N08121791WA0146301448003083004000
B1809463339028N08121746WA0147001454003057004000
B1809483339062N08121708WA0148001462003036004000
B1809503339103N08121699WA0149501476003020004000
F18095117282213071430011921
B1809523339134N08121725WA0150601491003006005000
B1809543339139N08121766WA0151301501003000004000
B1809563339120N08121798WA0151501507003000004000
F1809561728221307143001190821
B1809583339084N08121807WA0151501506003007004000
B1810003339046N08121790WA0151801507003025004000
B1810023339021N08121751WA0152301511003025004000
B1810043339013N08121703WA0152601515003013004000
B1810063339028N08121656WA0153001519003009004000
B1810083339059N08121623WA0153201522003004004000
F18100817281307143001190821
B1810103339099N08121613WA0153801524003000004000
B1810123339136N08121629WA0154101528003000004000
F181012172813071430011921
B1810143339160N08121665WA0154801534003000004000
F18101517282213071430011921
B1810163339164N08121709WA0155401540003000004000
F1810161728221307143001190821
B1810183339145N08121747WA0156001548003000004000
B1810203339110N08121763WA0156001551003007004000
F18102017282207143001190821
F181021172822071430010821
B1810223339071N08121753WA0155501547003048004000
B1810243339041N08121717WA0155401544003074004000
F1810241722071430010821
F18102517282213071430010821
B1810263339030N08121665WA0155501543003079005000
F18102717281307143001190821
B1810283339039N08121609WA0156201551003069004000
B1810303339068N08121566WA0157001559003043004000
F1810301728221307143001190821
F18103117281307143001190821
B1810323339108N08121545WA0158201569003020004000
B1810343339147N08121555WA0159601581003004004000
F181035172813071430011921
B1810363339172N08121587WA0160401593003000004000
F18103717282213071430011921
B1810383339176N08121629WA0160901598003000004000
F1810381728221307143001190821
B1810403339157N08121664WA0160801602003000004000
F18104117282207143001190821
B1810423339123N08121681WA0160401599003002004000
B1810443339082N08121671WA0160301596003048004000
B1810463339051N08121636WA0161401601003067004000
F1810461728221307143001190821
B1810483339037N08121585WA0162401612003043004000
B1810503339044N08121533WA0163001622003020004000
B1810523339071N08121493WA0163301626003006004000
F18105317281307143001190821
B1810543339111N08121478WA0162901624003002004000
B1810563339151N08121492WA0162901622003004005000
F181057172813071430011921
B1810583339180N08121530WA0163601624003004005000
F18105917282213071430011921
B1811003339187N08121579WA0164701632003000005000
B1811023339170N08121623WA0166001644003000005000
F1811021728221307143001190821
B1811043339138N08121647WA0166501654003018005000
B1811063339100N08121648WA0166401657003060005000
F18110717221307143001190821
B1811083339066N08121621WA0167001661003069005000
B1811103339046N08121576WA0168301670003041005000
F1811101728221307143001190821
B1811123339045N08121524WA0168401676003020005000
F18111217282213071430011921
F1811131728221307143001190821
B1811143339063N08121478WA0169201684003006005000
F18111417282213071430011921
B1811163339097N08121452WA0169701690003002005000
F181116172813071430011921
B1811183339135N08121457WA0169801692003000005000
F18111917281307143001190821
B1811203339163N08121488WA0170101692003000005000
F181120172813071430010821
F1811211728221307143001190821
B1811223339168N08121532WA0170001692003000005000
B1811243339152N08121574WA0169801693003009005000
B1811263339119N08121597WA0169801693003053004000
B1811283339078N08121596WA0170101693003095004000
B1811303339040N08121572WA0170701697003090005000
B1811323339012N08121534WA0171301702003058004000
B1811343338995N08121484WA0171901709003029004000
B1811363338994N08121430WA0172201714003013004000
B1811383339009N08121380WA0172501718003013004000
B1811403339041N08121341WA0173001722003029004000
B1811423339081N08121317WA0173101725003029004000
B1811443339124N08121303WA0173601729003013004000
B1811463339167N08121291WA0174401735003004004000
B1811483339208N08121275WA0175301743003004004000
B1811503339242N08121246WA0176101750003015004000
B1811523339262N08121204WA0176501754003041004000
B1811543339270N08121155WA0175801752003064004000
B1811563339270N08121104WA0175201747003074004000
B1811583339270N08121050WA0174401739003102004000
F18115828221307143001190821
F1811591728221307143001190821
B1812003339269N08120994WA0172801725003139004000
B1812023339269N08120934WA0171201708003142004000
F18120328221307143001190821
B1812043339268N08120870WA0170701698003132004000
B1812063339268N08120804WA0170601695003128004000
F1812071728221307143001190821
B1812083339267N08120736WA0171001697003095004000
B1812103339265N08120671WA0171401704003067004000
B1812123339261N08120607WA0171401705003053004000
B1812143339257N08120543WA0171101703003036004000
B1812163339253N08120479WA0170701700003022004000
B1812183339249N08120414WA0170301696003013004000
B1812203339245N08120348WA0169901692003020004000
B1812223339242N08120282WA0169701689003036004000
B1812243339239N08120216WA0169501688003043004000
B1812263339236N08120151WA0169401686003036004000
B1812283339234N08120086WA0168701683003032004000
B1812303339231N08120021WA0168201676003039004000
B1812323339228N08119955WA0167701670003043004000
B1812343339225N08119891WA0167601667003036004000
B1812363339222N08119827WA0168001669003025004000
B1812383339219N08119766WA0169001676003022004000
F181238172822130714300119082146
B1812403339216N08119708WA0169901688003031004000
B1812423339212N08119653WA0169801692003039004000
B1812443339208N08119598WA0169301689003041004000
B1812463339205N08119543WA0168801683003027004000
B1812483339203N08119487WA0168501678003009004000
B1812503339201N08119431WA0167901675003002004000
B1812523339199N08119373WA0167601670003000004000
B1812543339197N08119316WA0167001665003002004000
B1812563339194N08119258WA0166801660003004004000
B1812583339192N08119200WA0166401658003004004000
B1813003339189N08119142WA0166201655003006004000
B1813023339187N08119083WA0166701655003009004000
B1813043339185N08119024WA0167201661003011004000
B1813063339182N08118967WA0167701666003006004000
B1813083339178N08118911WA0168701674003004004000
B1813103339175N08118857WA0168801679003018004000
B1813123339170N08118803WA0168401678003029004000
B1813143339164N08118749WA0167801674003032004000
B1813163339158N08118694WA0167301668003027004000
B1813183339151N08118639WA0166601663003015004000
B1813203339144N08118582WA0166601659003006004000
B1813223339137N08118526WA0166401656003002004000
B1813243339130N08118468WA0165801652003000004000
B1813263339123N08118410WA0165701647003004004000
B1813283339116N08118351WA0166101648003013004000
B1813303339108N08118294WA0167101658003011004000
B1813323339099N08118240WA0167601667003013004000
B1813343339090N08118188WA0167801670003027004000
B1813363339081N08118136WA0167501669003032004000
B1813383339074N08118084WA0167701668003027004000
B1813403339066N08118031WA0167601668003018004000
B1813423339057N08117979WA0168001670003013004000
B1813443339048N08117927WA0168601675003009004000
B1813463339038N08117875WA0169301683003002004000
B1813483339027N08117824WA0169801688003000004000
B1813503339016N08117774WA0170201693003000004000
B1813523339004N08117724WA0170501697003004004000
B1813543338993N08117674WA0170901699003015004000
B1813563338982N08117622WA0170501698003013004000
B1813583338972N08117570WA0170301696003004004000
B1814003338967N08117516WA0169701693003002004000
B1814023338962N08117460WA0168701684003020004000
B1814043338957N08117401WA0167801674003039004000
B1814063338951N08117339WA0167701668003032004000
B1814083338945N08117276WA0168401671003015004000
B1814103338940N08117214WA0169301679003006004000
B1814123338933N08117153WA0170101689003002004000
F181413172822130714300119082151
B1814143338922N08117096WA0170701696003000004000
B1814163338896N08117050WA0172201704003009004000
B1814183338858N08117029WA0172901716003020004000
B1814203338821N08117038WA0173301722003013004000
B1814223338797N08117073WA0173001722004011005000
F1814231728220714300119082151
B1814243338796N08117118WA0172801719003053004000
F181425172822130714300119082151
B1814263338817N08117159WA0172601715003107004000
B1814283338850N08117187WA0172501713003125004000
B1814303338891N08117198WA0172601712003135004000
B1814323338933N08117196WA0172701713003135004000
B1814343338973N08117179WA0172801713003128004000
B1814363339006N08117145WA0173001715003135004000
B1814383339031N08117100WA0172901713003107004000
B1814403339051N08117047WA0173201715003058004000
B1814423339067N08116992WA0174001722003029004000
B1814443339080N08116937WA0174801730003009004000
B1814463339087N08116881WA0175001733003000004000
B1814483339071N08116831WA0175501737003011004000
B1814503339035N08116809WA0175301738003044004000
B1814523338999N08116819WA0175001735003088004000
B1814543338975N08116851WA0175201734003116004000
B1814563338967N08116893WA0175301734003118004000
B1814583338974N08116934WA0175401737003125004000
B1815003338994N08116971WA0175801741003116004000
B1815023339023N08116999WA0176501745003067004000
B1815043339060N08117011WA0176701748003027004000
B1815063339101N08116995WA0176601747003013004000
B1815083339128N08116949WA0177301749003006004000
F1815091728221307143001190821
B1815103339127N08116892WA0177601755003002004000
B1815123339100N08116849WA0177801758003000004000
B1815143339059N08116838WA0178301759003000004000
B1815163339025N08116860WA0178901764003000004000
B1815183339012N08116902WA0179601771003023004000
B1815203339018N08116945WA0180301778003039004000
F18152017282207143001190821
F1815211728221307143001190821
B1815223339040N08116980WA0180701785003022004000
B1815243339075N08117000WA0181401791003006004000
B1815263339116N08117000WA0182301797003000004000
B1815283339156N08116978WA0182601803003002004000
B1815303339184N08116934WA0183001805003013004000
B1815323339196N08116878WA0183401810003009004000
B1815343339190N08116823WA0183701812003000004000
B1815363339166N08116777WA0184301817003000004000
B1815383339129N08116754WA0184701822003000004000
B1815403339092N08116761WA0185301825003000005000
B1815423339071N08116796WA0185701826003004004000
B1815443339076N08116835WA0185801829003004004000
B1815463339105N08116863WA0186401833003000004000
B1815483339145N08116867WA0187301840003000005000
F18154917281307143001190821
B1815503339184N08116845WA0188201850003000004000
F1815501728221307143001190821
B1815523339211N08116803WA0188701857003000004000
B1815543339219N08116752WA0189101860003000004000
B1815563339206N08116704WA0189501863003000004000
B1815583339178N08116670WA0189501867003000004000
B1816003339143N08116655WA0189601867003000004000
B1816023339109N08116666WA0189301865003006004000
B1816043339088N08116699WA0189201863003015004000
B1816063339090N08116742WA0189201860003020004000
B1816083339113N08116778WA0189201859003022004000
F18160917281307143001190821
B1816103339152N08116796WA0189801862003013004000
F1816101728221307143001190821
B1816123339197N08116788WA0190401869003004004000
B1816143339236N08116756WA0191201874003006004000
B1816163339257N08116706WA0191801880003015004000
B1816183339257N08116653WA0192401887003015004000
B1816203339239N08116608WA0192501891003018004000
B1816223339207N08116581WA0192601893003022004000
B1816243339171N08116577WA0192601893003037004000
B1816263339140N08116595WA0192301892003074004000
B1816283339121N08116629WA0192301890003083004000
B1816303339123N08116672WA0192301888003053004000
B1816323339148N08116706WA0192301890003027004000
B1816343339187N08116722WA0193201895003011004000
B1816363339231N08116715WA0194001901003006004000
B1816383339268N08116684WA0194501907003018004000
B1816403339288N08116637WA0195501913003041004000
B1816423339286N08116589WA0195901920003083004000
B1816443339273N08116545WA0196201926003114004000
B1816463339254N08116507WA0195801930003097004000
B1816483339232N08116471WA0195401929003074004000
B1816503339207N08116436WA0194501925003083004000
B1816523339180N08116401WA0193801920003090004000
B1816543339150N08116367WA0192801913003086004000
B1816563339119N08116332WA0191801904003081004000
B1816583339085N08116297WA0191001896003081004000
B1817003339050N08116262WA0190101887003069004000
B1817023339013N08116227WA0189101879003036004000
B1817043338974N08116194WA0188301872003015004000
B1817063338933N08116164WA0187801865003013004000
F181706172822130714300119082146
B1817083338891N08116135WA0187001860003015004000
B1817103338848N08116107WA0186301853003013004000
B1817123338804N08116077WA0185601847003025004000
B1817143338761N08116046WA0185101841003025004000
B1817163338717N08116015WA0184701837003011004000
B1817183338672N08115982WA0184301834003013004000
B1817203338628N08115949WA0183801831003015004000
B1817223338583N08115915WA0183301826003022004000
B1817243338539N08115881WA0183001822003034004000
B1817263338495N08115847WA0182801820003027004000
B1817283338452N08115814WA0182201818003013004000
B1817303338408N08115782WA0180901808003002004000
B1817323338364N08115749WA0179601793003000004000
B1817343338318N08115714WA0178401780003000004000
B1817363338271N08115678WA0177701770003000004000
B1817383338223N08115642WA0176801764003000004000
B1817403338175N08115607WA0175901754003000004000
B1817423338127N08115571WA0175001744003000004000
B1817443338080N08115534WA0174701738003000004000
B1817463338033N08115497WA0174401737003000004000
B1817483337987N08115460WA0174401737003002004000
B1817503337941N08115425WA0174001735003009004000
B1817523337896N08115391WA0173601732003009004000
B1817543337850N08115357WA0173301727003000004000
B1817563337805N08115325WA0173001724003000004000
B1817583337760N08115292WA0172301719003000004000
B1818003337715N08115258WA0171801713003000004000
B1818023337670N08115223WA0171101707003000004000
B1818043337625N08115188WA0170501700003000004000
B1818063337578N08115157WA0169801694003000004000
B1818083337529N08115131WA0169001685003000004000
B1818103337477N08115111WA0168101678003000004000
B1818123337424N08115094WA0167501670003011004000
B1818143337370N08115079WA0167201665003024004000
B1818163337316N08115064WA0166501659003024004000
B1818183337262N08115049WA0166101654003022004000
B1818203337208N08115036WA0166101652003029004000
B1818223337155N08115024WA0166401654003029004000
B1818243337103N08115012WA0166301655003018004000
B1818263337051N08115000WA0166001653003006004000
B1818283337000N08114988WA0165501649003000004000
B1818303336949N08114975WA0165001643003000004000
B1818323336898N08114962WA0164201636003000004000
B1818343336846N08114949WA0163701630003000004000
B1818363336796N08114936WA0163201625003000004000
F181836172822031307143001190821
B1818383336746N08114923WA0162801620003000004000
B1818403336696N08114910WA0162001614003000004000
B1818423336647N08114896WA0161201607003002004000
B1818443336597N08114879WA0160401598003002004000
F181845172203130714300119082146
B1818463336548N08114857WA0159501587003000004000
B1818483336500N08114832WA0158701579003000004000
B1818503336451N08114801WA0158101572003000004000
B1818523336404N08114768WA0157701568003000004000
F181852172822031307143001190821
B1818543336357N08114732WA0158201567003006004000
B1818563336313N08114697WA0158801575003018004000
B1818583336271N08114662WA0158801579003015004000
B1819003336231N08114627WA0158301576003006004000
B1819023336191N08114590WA0157901571003000004000
B1819043336150N08114553WA0157301566003000004000
B1819063336109N08114515WA0157101562003000004000
B1819083336068N08114476WA0156901560003000004000
B1819103336028N08114435WA0156601559003004004000
B1819123335987N08114394WA0156301556003020004000
B1819143335947N08114352WA0155601550003015004000
B1819163335906N08114310WA0154601541003006004000
B1819183335865N08114267WA0153601532003004004000
B1819203335823N08114222WA0152901522003006004000
B1819223335782N08114176WA0152701517003009004000
B1819243335741N08114130WA0152701516003015004000
B1819263335700N08114084WA0152401516003022004000
B1819283335661N08114038WA0152401514003018004000
B1819303335622N08113993WA0152401513003011004000
B1819323335584N08113948WA0152501515003004004000
B1819343335545N08113904WA0152301513003002004000
B1819363335507N08113859WA0152301512003020004000
B1819383335468N08113814WA0152201512003039004000
B1819403335431N08113768WA0152501513003039004000
B1819423335393N08113722WA0152801515003034004000
B1819443335356N08113676WA0153601520003027004000
B1819463335320N08113633WA0154601531003022004000
B1819483335286N08113590WA0155101539003018004000
B1819503335253N08113548WA0155101541003009004000
B1819523335220N08113506WA0155201541003006004000
B1819543335188N08113464WA0154801540003006004000
B1819563335156N08113421WA0154201535003006004000
B1819583335124N08113377WA0153401528003013004000
B1820003335091N08113330WA0152901520003025004000
B1820023335058N08113282WA0152601515003029004000
B1820043335025N08113232WA0152001511003027004000
B1820063334992N08113182WA0151401505003024004000
B1820083334959N08113130WA0151001499003013004000
B1820103334927N08113077WA0151101497003004004000
B1820123334894N08113025WA0151701501003011004000
B1820143334862N08112974WA0152201508003013004000
B1820163334832N08112924WA0151801508003006004000
B1820183334802N08112874WA0150401498003002004000
B1820203334769N08112822WA0149601489003004004000
B1820223334736N08112771WA0148501478003009004000
B1820243334703N08112717WA0147601468003004004000
B1820263334669N08112663WA0147001460003004004000
B1820283334636N08112608WA0147501457003013004000
B1820303334605N08112555WA0148701467003015004000
B1820323334576N08112505WA0149201477003015004000
B1820343334548N08112457WA0149101478003011004000
B1820363334521N08112410WA0148401475003002004000
B1820383334493N08112362WA0147801468003000004000
B1820403334465N08112312WA0147501462003000004000
B1820423334436N08112259WA0146901458003000004000
B1820443334406N08112205WA0146801454003002004000
B1820463334375N08112150WA0147301456003009004000
B1820483334343N08112095WA0147801461003013004000
B1820503334312N08112041WA0149301471003011004000
B1820523334281N08111990WA0151301490003004004000
B1820543334253N08111943WA0152601508003000004000
B1820563334227N08111899WA0153701520003000004000
B1820583334197N08111861WA0154301528003000004000
B1821003334161N08111851WA0154901534003000004000
F182101172822130714300119082146
B1821023334135N08111875WA0154401534003000004000
F182102172822071430011908214644
F182103172822130714300119082146
B1821043334138N08111915WA0154101529003000004000
B1821063334167N08111944WA0154301526003020004000
F182106172822031307143001190821
B1821083334209N08111951WA0154501529003064004000
B1821103334253N08111940WA0154901533003078004000
B1821123334293N08111914WA0155701539003050004000
B1821143334327N08111876WA0156301546003025004000
B1821163334353N08111831WA0156801552003025004000
B1821183334368N08111779WA0157401555003053004000
B1821203334370N08111726WA0157501559003062004000
B1821223334361N08111676WA0157601561003069004000
B1821243334346N08111628WA0157401561003076004000
B1821263334327N08111582WA0157401561003053004000
B1821283334307N08111536WA0157401560003039004000
B1821303334284N08111493WA0156901557003050004000
B1821323334260N08111452WA0157001557003072004000
B1821343334234N08111413WA0156601556003062004000
B1821363334208N08111375WA0156201552003041004000
B1821383334180N08111339WA0155601548003037004000
B1821403334152N08111304WA0155301543003039004000
B1821423334122N08111269WA0155001540003034004000
B1821443334092N08111234WA0154301535003029004000
B1821463334062N08111195WA0153601527003029004000
B1821483334035N08111152WA0152801519003018004000
B1821503334007N08111108WA0151901511003004004000
B1821523333979N08111061WA0151201502003004004000
B1821543333949N08111017WA0150501493003009004000
B1821563333915N08110974WA0150201490003015004000
B1821583333882N08110933WA0149801488003018004000
B1822003333849N08110891WA0149001482003009004000
B1822023333815N08110848WA0147901472003000004000
B1822043333779N08110804WA0146801460003000004000
B1822063333742N08110759WA0146201451003000004000
B1822083333704N08110713WA0145701447003000004000
B1822103333666N08110667WA0145401442003000004000
B1822123333629N08110620WA0145101438003004004000
B1822143333592N08110572WA0145001436003020004000
B1822163333556N08110523WA0144401434003015004000
B1822183333521N08110474WA0144201429003013004000
B1822203333488N08110424WA0144401429003022004000
B1822223333455N08110375WA0144601433003022004000
B1822243333423N08110327WA0144401433003013004000
B1822263333391N08110280WA0144101430003020004000
B1822283333360N08110231WA0143701425003032004000
B1822303333329N08110181WA0143701423003027004000
B1822323333300N08110130WA0143801424003020004000
B1822343333272N08110080WA0143601423003011004000
B1822363333247N08110028WA0144001425003002004000
B1822383333224N08109976WA0144401429003000004000
B1822403333200N08109925WA0144601431003002004000
B1822423333176N08109876WA0145001435003009004000
B1822443333151N08109827WA0145901441003015004000
F182245172822130714300119082146
B1822463333127N08109779WA0146201448003018004000
B1822483333103N08109733WA0147201455003015004000
B1822503333079N08109687WA0148101462003011004000
B1822523333055N08109644WA0148801473003000004000
B1822543333025N08109611WA0149401478003000004000
F182254172822031307143001190821
B1822563332987N08109609WA0148501475003000004000
B1822583332951N08109624WA0147401466003013004000
B1823003332913N08109636WA0147001458003027004000
B1823023332874N08109629WA0146401455003027004000
B1823043332838N08109602WA0146101448003032004000
B1823063332808N08109561WA0145301442003029004000
B1823083332785N08109512WA0144501436003018004000
B1823103332766N08109458WA0143901428003011004000
B1823123332749N08109402WA0143301422003006004000
B1823143332732N08109345WA0142401414003004004000
B1823163332715N08109287WA0141301404003006004000
B1823183332695N08109228WA0140501394003009004000
B1823203332673N08109170WA0139601384003004004000
B1823223332651N08109111WA0138601375003002004000
B1823243332627N08109051WA0137501364003002004000
B1823263332603N08108991WA0136701353003011004000
B1823283332578N08108930WA0136601349003020004000
F182328172822130714300119082144
B1823303332552N08108870WA0136001347003013004000
B1823323332527N08108811WA0135501341003004004000
B1823343332501N08108752WA0135401337003000004000
B1823363332476N08108694WA0135001335003000004000
B1823383332450N08108636WA0133501325003000004000
F182338172822031307143001190821
B1823403332424N08108576WA0132601310003000004000
B1823423332397N08108514WA0132201304003000004000
B1823443332370N08108451WA0132901305003002004000
F182345172822130714300119082144
B1823463332343N08108389WA0134401317003011004000
B1823483332316N08108330WA0136201336003011004000
B1823503332288N08108276WA0137801352003006004000
B1823523332248N08108249WA0139201367003004004000
F1823521728130714300119082144
B1823543332213N08108267WA0139501378004004004000
F182355172813071430011908215144
B1823563332200N08108309WA0139801380003011005000
F182356172822130714300119082151
B1823583332209N08108351WA0140401385003055004000
F182358172822031307143001190821
B1824003332232N08108386WA0140701390003088004000
B1824023332264N08108407WA0141101392003069004000
B1824043332304N08108409WA0141601395003043004000
B1824063332341N08108384WA0141801399003022004000
B1824083332358N08108332WA0142301402003009004000
B1824103332345N08108277WA0142901407003002004000
B1824123332311N08108241WA0143401412003000004000
B1824143332269N08108235WA0144101417003000004000
B1824163332235N08108256WA0144501421003004004000
F182416172822130714300119082151
B1824183332220N08108295WA0144801425003022004000
B1824203332229N08108335WA0145101428003027004000
B1824223332257N08108365WA0145401429003029004000
F182422172822031307143001190821
B1824243332296N08108376WA0145801433003029004000
B1824263332338N08108366WA0146401439003020004000
B1824283332377N08108337WA0147001447003006004000
B1824303332408N08108296WA0147001450003000004000
B1824323332422N08108243WA0147201450003000004000
B1824343332412N08108191WA0147701453003018004000
B1824363332381N08108154WA0148001456003050004000
B1824383332342N08108137WA0148401459003050004000
B1824403332302N08108140WA0149001465003032004000
B1824423332268N08108160WA0149601472003013004000
B1824443332246N08108193WA0149801475003002004000
B1824463332248N08108233WA0149601475003000004000
B1824483332275N08108263WA0149901475003011004000
B1824503332315N08108271WA0151101480003027004000
F182450172822031307143001190851
F182451172822031307143001190821
B1824523332356N08108252WA0151601490003025004000
B1824543332387N08108214WA0152101495003013004000
F182454172822130714300119082151
F182455172822031307143001190821
B1824563332395N08108161WA0152701499003009004000
B1824583332376N08108114WA0152901501003018004000
B1825003332342N08108081WA0152901502003024004000
B1825023332304N08108051WA0153601510003013004000
B1825043332268N08108022WA0154501520003000004000
B1825063332236N08107990WA0154501527003000004000
F182506172822130714300119082151
B1825083332209N08107953WA0154101526003009004000
B1825103332186N08107911WA0153001520003050004000
B1825123332167N08107865WA0151201504003097004000
F182512172822031307143001190821
B1825143332148N08107813WA0149301483003093004000
B1825163332130N08107756WA0148401470003064004000
B1825183332111N08107695WA0147701462003064004000
B1825203332091N08107634WA0147001456003069004000
B1825223332072N08107572WA0146301447003060004000
B1825243332051N08107509WA0146601447003046004000
B1825263332031N08107449WA0146801449003041004000
F182526172822130714300119082151
B1825283332011N08107390WA0147001452003041004000
B1825303331991N08107332WA0146601453003029004000
B1825323331972N08107275WA0145301443003015004000
B1825343331952N08107216WA0144601431003013004000
B1825363331933N08107155WA0144101426003022004000
B1825383331914N08107095WA0143401420003022004000
B1825403331894N08107034WA0142701411003022004000
F182541172822031307143001190821
B1825423331873N08106972WA0142001405003020004000
B1825443331852N08106909WA0141701401003013004000
B1825463331831N08106845WA0141801400003011004000
B1825483331811N08106782WA0141501399003011004000
B1825503331791N08106719WA0141001396003025004000
B1825523331772N08106656WA0140401390003034004000
B1825543331752N08106594WA0139401383003022004000
B1825563331731N08106532WA0138501372003020004000
B1825583331710N08106470WA0137301361003022004000
B1826003331687N08106408WA0136501350003018004000
B1826023331666N08106346WA0136901349003020004000
F182603172822130714300119082151
B1826043331646N08106285WA0137301353003015004000
B1826063331628N08106225WA0137101355003004004000
B1826083331611N08106165WA0136901353003009004000
B1826103331593N08106106WA0136301349003011004000
F182610172822031307143001190821
B1826123331576N08106045WA0136001343003002004000
B1826143331558N08105983WA0136101343003013004000
B1826163331539N08105922WA0136301345003020004000
B1826183331521N08105861WA0136201345003015004000
B1826203331503N08105799WA0135501341003022004000
B1826223331485N08105737WA0134801333003027004000
B1826243331467N08105673WA0134201327003029004000
B1826263331449N08105609WA0133801322003034004000
B1826283331430N08105544WA0133201317003037004000
B1826303331411N08105480WA0133001313003032004000
B1826323331393N08105416WA0132601310003027004000
B1826343331376N08105351WA0132501308003029004000
B1826363331360N08105288WA0132301306003034004000
B1826383331343N08105225WA0131901303003029004000
B1826403331327N08105162WA0131401298003018004000
B1826423331312N08105099WA0131601296003018004000
B1826443331297N08105038WA0132201299003027004000
F182644172822130714300119082151
B1826463331284N08104978WA0134001312003032004000
B1826483331270N08104922WA0135701333003027004000
F182648172822031307143001190821
