ANKL0Z2
HFDTE180421
HFFXA050
HFPLTPILOT:Fabrizio DiStefano
HFGTYGLIDERTYPE:ASW 19 SE
HFGIDGLIDERID:SE
HFDTM100GPSDATUM:
HFRFWFIRMWAREVERSION:38 2010-7-7
HFRHWHARDWAREVERSION: NKL ClearNav V1.0
HFFTYFRTYPE:Nielsen Kellerman, ClearNav-IGC
HFGPS:UBLOX,LEA-4H-0-000-1,16Ch,18000 
HFPRSPRESSALTSENSOR:Intersema,MS5534B,20000 
I033638FXA3941ENL4247REX
C180421172613000000000103
C0000000N00000000WTAKEOFF     
C3337283N08124000WStart 2
C3323267N08054382WArea Dry Swa
C3315466N08123300WArea Barnwel
C3355600N08147666WArea Saluda
C3337617N08119732WFinish
C0000000N00000000WLANDING     
B1734093337829N08119497WA0016700132002000004008
B1734103337829N08119497WA0016600132002000004008
B1734113337829N08119497WA0016600132002000004008
B1734123337829N08119497WA0016600132002000004008
B1734133337829N08119497WA0016700132002000004008
B1734143337829N08119497WA0016600132002000004008
B1734153337829N08119497WA0016600132002000004008
B1734163337829N08119497WA0016600132002000004008
B1734173337829N08119496WA0016600132002000004008
B1734183337829N08119496WA0016700132002000004008
B1734193337829N08119496WA0016600132002000004008
B1734203337829N08119496WA0016600132002000004008
B1734213337829N08119496WA0016600132002000004008
B1734223337829N08119496WA0016700132002000004008
B1734233337829N08119496WA0016600132002000004008
B1734243337829N08119496WA0016700132002000004008
B1734253337829N08119497WA0016700132002000004008
B1734263337829N08119497WA0016700132002000004008
B1734273337829N08119497WA0016700132002000004008
B1734283337829N08119497WA0016700132002000004008
B1734293337829N08119497WA0016600132002000004008
B1734303337829N08119497WA0016600132002000004008
B1734313337829N08119497WA0016600132002000004008
B1734323337829N08119497WA0016600132002000004008
B1734333337829N08119497WA0016600132002000004008
B1734343337829N08119497WA0016600132002000004008
B1734353337829N08119497WA0016700132002000004008
B1734363337829N08119497WA0016700132002000004008
B1734373337829N08119497WA0016700132002000004008
B1734383337829N08119497WA0016600132002000004008
B1734393337829N08119497WA0016600132002000004008
B1734403337829N08119496WA0016600132002000004008
B1734413337829N08119496WA0016600132002000004008
B1734423337829N08119496WA0016600131002000004008
B1734433337829N08119496WA0016600131002000004008
B1734443337829N08119496WA0016700131002000004008
B1734453337829N08119496WA0016600131002000004008
B1734463337829N08119496WA0016600131002000004008
B1734473337829N08119496WA0016600131002000004008
B1734483337829N08119496WA0016600131002000004008
B1734493337829N08119496WA0016800131002000004008
B1734503337829N08119496WA0016700131002000004008
B1734513337829N08119496WA0016700131003000005008
B1734523337829N08119496WA0016600131002000004008
B1734533337829N08119496WA0016700131002000004008
B1734543337829N08119496WA0016700131002000004008
B1734553337829N08119497WA0016700132002000004008
B1734563337829N08119497WA0016600132002000004008
B1734573337829N08119496WA0016600131002000003008
B1734583337829N08119496WA0016700131002000003008
B1734593337829N08119496WA0016700130002000003008
B1735003337828N08119496WA0016600130002000003008
B1735013337828N08119496WA0016600130002000003008
B1735023337828N08119496WA0016700130002000003008
B1735033337828N08119496WA0016700130002000003008
B1735043337828N08119496WA0016600131002000003008
B1735053337828N08119496WA0016600131002000003008
B1735063337828N08119496WA0016700131002000003008
B1735073337828N08119496WA0016700131002004003008
B1735083337828N08119496WA0016600131002011003008
B1735093337828N08119496WA0016600131002011003008
B1735103337828N08119496WA0016600132002013003008
B1735113337828N08119496WA0016600132002006003008
B1735123337828N08119496WA0016600132002004003008
B1735133337828N08119496WA0016800132002000003008
B1735143337828N08119496WA0016700132002000003008
B1735153337828N08119496WA0016700132002000003008
B1735163337828N08119497WA0016600132002000003008
B1735173337828N08119497WA0016600133002000003008
B1735183337828N08119497WA0016600133002000003008
B1735193337828N08119497WA0016700132002004003008
B1735203337828N08119497WA0016600132002009003008
B1735213337828N08119496WA0016600132002015003008
B1735223337828N08119496WA0016600131002011003008
B1735233337828N08119496WA0016700130002011003008
B1735243337828N08119496WA0016600130002011003008
B1735253337828N08119495WA0016600129002006003008
B1735263337828N08119495WA0016600128002009003008
B1735273337828N08119495WA0016600128002006003008
B1735283337828N08119495WA0016600127002000003008
B1735293337828N08119495WA0016700127002000003008
B1735303337828N08119495WA0016700127002000003008
B1735313337828N08119495WA0016600127002000003008
B1735323337828N08119495WA0016600126002000003008
B1735333337828N08119495WA0016600126002000003008
B1735343337828N08119495WA0016700126002000003008
B1735353337828N08119495WA0016600126002000003008
B1735363337828N08119495WA0016600126002000003008
B1735373337828N08119495WA0016700126002000003008
B1735383337828N08119495WA0016600126002000003008
B1735393337828N08119495WA0016600126002000003008
B1735403337828N08119495WA0016700126002000003008
B1735413337828N08119495WA0016600125002000003008
B1735423337828N08119495WA0016600125002000003008
B1735433337829N08119496WA0016700125002000003008
B1735443337829N08119496WA0016700125002000003008
B1735453337829N08119496WA0016700125002000003008
B1735463337828N08119496WA0016700125002000003008
B1735473337828N08119496WA0016700125002000003008
B1735483337828N08119496WA0016700125002000003008
B1735493337828N08119496WA0016600125002000003008
B1735503337828N08119496WA0016600125002000003008
B1735513337828N08119496WA0016600125002000003008
B1735523337828N08119496WA0016700125002000003008
B1735533337828N08119496WA0016600125002000003008
B1735543337828N08119496WA0016600125002000003008
B1735553337828N08119496WA0016600125002000003008
B1735563337828N08119496WA0016800125002000003008
B1735573337828N08119496WA0016600125002000003008
B1735583337828N08119496WA0016600125002000003008
B1735593337828N08119496WA0016600126002000003008
B1736003337828N08119496WA0016500126002000003008
B1736013337828N08119496WA0016700126002000003008
B1736023337828N08119496WA0016600126002000003008
B1736033337828N08119496WA0016600127002000003008
B1736043337829N08119496WA0016700127002000003008
B1736053337829N08119496WA0016700127002000003008
B1736063337829N08119496WA0016700127002000003008
B1736073337828N08119497WA0016600128002000003008
B1736083337828N08119500WA0016600128002009003008
B1736093337827N08119503WA0016400128002043003000
F173609171907301451210108130928
B1736103337826N08119509WA0016400128002084003000
B1736113337825N08119515WA0016500128002128003000
B1736123337823N08119524WA0016500128002158003000
B1736133337821N08119534WA0016300128002184003000
B1736143337818N08119545WA0016100127002202003000
B1736153337815N08119557WA0016300127002223003000
B1736163337811N08119570WA0016100127002248003000
B1736173337807N08119584WA0016300127002248003000
B1736183337803N08119599WA0016400126002243003000
B1736193337798N08119615WA0016100126002225003000
B1736203337794N08119633WA0016000126002191003000
B1736213337790N08119651WA0016100126002167003000
B1736223337785N08119671WA0016000126002140003000
F1736221719073014512101130928
B1736233337781N08119691WA0016100125002121003000
B1736243337777N08119713WA0015800125002110003000
B1736253337772N08119735WA0016200124002101003000
F173625171907301451210108130928
B1736263337766N08119758WA0015900124002101003000
B1736273337761N08119781WA0015900124002096003000
B1736283337755N08119806WA0016300124002091003000
B1736293337749N08119831WA0016600126002094003000
B1736303337742N08119856WA0016700128002087003000
B1736313337736N08119881WA0017400132002089003000
B1736323337730N08119906WA0017800137002096003000
B1736333337724N08119931WA0018300142002091003000
F1736331719073014512101130928
B1736343337719N08119956WA0019400148002091003000
F173634171907301451210108130928
B1736353337714N08119979WA0019800156002086003000
B1736363337709N08120004WA0020400163002086003000
B1736373337704N08120027WA0021000169002086003000
F1736371719073014512101130928
B1736383337698N08120051WA0021500175002089003000
B1736393337693N08120074WA0021600180002089003000
B1736403337687N08120097WA0022400184002084003000
F173640171907301451210108130928
B1736413337681N08120121WA0022900189002080003000
F1736411719073014512101130928
B1736423337675N08120144WA0023300194002077003000
F173642171907301451210108130928
B1736433337669N08120167WA0023800199002075003000
B1736443337663N08120190WA0024300205002070003000
F1736441719073014512101130928
B1736453337656N08120213WA0024700211002068003000
B1736463337651N08120236WA0025900218002068003000
B1736473337646N08120257WA0026500226002073003000
B1736483337641N08120279WA0027000234002077003000
B1736493337636N08120300WA0027800241002087003000
B1736503337632N08120321WA0028400248002082003000
B1736513337628N08120342WA0029200254002080003000
F173651171907301451210108130928
B1736523337625N08120363WA0029900261002080003000
B1736533337623N08120384WA0030000267002075003000
B1736543337623N08120405WA0030500271002079003000
B1736553337623N08120427WA0030900275002075003000
B1736563337625N08120448WA0031100279002070003000
B1736573337628N08120469WA0031800284002073003000
B1736583337631N08120489WA0032100288002066003000
B1736593337636N08120509WA0032500293002066003000
B1737003337642N08120529WA0032900297002064003000
B1737013337649N08120548WA0033000300002064003000
B1737023337658N08120568WA0033100301002064003000
B1737033337667N08120587WA0032800300002066003000
B1737043337677N08120607WA0032800299002073003000
B1737053337687N08120627WA0032900298002073003000
B1737063337697N08120647WA0033000298002077003000
B1737073337708N08120667WA0033300299002079003000
B1737083337719N08120687WA0033600301002073003000
B1737093337730N08120708WA0034000304002066003000
B1737103337741N08120730WA0034200308002064003000
B1737113337752N08120751WA0034500311002064003000
B1737123337763N08120772WA0034800315002068003000
B1737133337775N08120793WA0035500320002070003000
F1737131719073014512101081328
B1737143337787N08120813WA0036400327002075003000
B1737153337799N08120833WA0037500333002073003000
B1737163337811N08120853WA0037800340002075003000
B1737173337824N08120872WA0038200345002075003000
B1737183337837N08120890WA0038400350002075003000
B1737193337850N08120909WA0038800353002077003000
B1737203337863N08120928WA0039200356002077003000
B1737213337876N08120948WA0039400359002077003000
B1737223337889N08120967WA0039400361002070003000
B1737233337901N08120986WA0039700362002070003000
B1737243337915N08121005WA0040000364002066003000
B1737253337928N08121024WA0040100367002070003000
B1737263337942N08121042WA0040500370002077003000
B1737273337955N08121060WA0041000373002075003000
B1737283337969N08121078WA0041200376002079003000
B1737293337983N08121096WA0041800380002075003000
F17372917190730145121081328
B1737303337998N08121113WA0042000384002070003000
F1737301719073014512101081328
B1737313338013N08121131WA0042400388002073003000
B1737323338028N08121148WA0042800391002070003000
F17373217190730145121081328
B1737333338043N08121165WA0043200395002073003000
B1737343338058N08121181WA0043500399002075003000
F1737341719073014512101081328
B1737353338075N08121196WA0043800403002070003000
B1737363338092N08121210WA0044300407002070003000
F17373617190730145121081328
B1737373338111N08121223WA0044700411002070003000
B1737383338130N08121235WA0045000415002070003000
B1737393338150N08121244WA0045300419002068003000
B1737403338171N08121253WA0045800422002066003000
B1737413338193N08121259WA0046100426002066003000
B1737423338216N08121264WA0046200429002068003000
F1737421719073014512101081328
B1737433338238N08121268WA0046400432002075003000
F17374317190730142101081328
B1737443338261N08121270WA0046800435002077003000
B1737453338284N08121270WA0047400438002079003000
B1737463338308N08121268WA0047700442002079003000
B1737473338331N08121264WA0047900445002075003000
B1737483338354N08121258WA0048300448002075003000
B1737493338377N08121251WA0048600452002075003000
B1737503338400N08121244WA0049200455002075003000
B1737513338423N08121236WA0049600459002075003000
B1737523338446N08121229WA0050100464002073003000
B1737533338469N08121221WA0051000471002070003000
B1737543338491N08121212WA0051700478002070003000
B1737553338513N08121204WA0052100484002070003000
B1737563338536N08121195WA0053000491002070003000
B1737573338558N08121187WA0053300497002068003000
B1737583338581N08121178WA0054100504002066003000
B1737593338603N08121170WA0054600511002070003000
B1738003338625N08121161WA0055300518002073003000
B1738013338648N08121152WA0055600524002077003000
B1738023338670N08121142WA0055900528002075003000
B1738033338692N08121131WA0056400532002070003000
B1738043338715N08121119WA0056500536002070003000
B1738053338737N08121107WA0057300540002070003000
B1738063338758N08121094WA0057800546002075003000
B1738073338779N08121080WA0058700552002079003000
B1738083338799N08121065WA0059600558002082003000
B1738093338817N08121049WA0060400566002077003000
B1738103338835N08121032WA0061200574002073004000
B1738113338851N08121012WA0061600581002073004000
B1738123338865N08120992WA0062200586002070004000
B1738133338879N08120970WA0063000593002073004000
B1738143338891N08120947WA0063500599002077004000
B1738153338903N08120924WA0064200605002070004000
B1738163338914N08120899WA0064700611002073004000
B1738173338924N08120875WA0065300618003075004000
B1738183338934N08120850WA0066000625002073004000
B1738193338944N08120825WA0066600633002079004000
B1738203338953N08120800WA0067100640002079004000
B1738213338961N08120776WA0067800646003075005000
B1738223338966N08120751WA0068300653003073005000
B1738233338966N08120727WA0068600657003068005000
B1738243338963N08120703WA0068700661003064006000
B1738253338956N08120680WA0068600662003061005000
B1738263338946N08120659WA0068400663003057006000
B1738273338932N08120642WA0068100663003052006000
B1738283338914N08120631WA0067700656003052006000
B1738293338895N08120625WA0067400647004048006000
B1738303338876N08120622WA0067400641003048005000
B1738313338856N08120622WA0067500641003050004000
B1738323338837N08120623WA0067400639003050004000
B1738333338818N08120622WA0067300639003055004000
B1738343338799N08120619WA0067900638003052004000
B1738353338780N08120613WA0067400636003052004000
B1738363338763N08120603WA0067300634003052004000
B1738373338748N08120587WA0067300633003050004000
B1738383338735N08120568WA0067400633002050004000
B1738393338726N08120547WA0067500632002045004000
B1738403338721N08120524WA0067600631003038004000
B1738413338718N08120500WA0067700631003036005000
B1738423338720N08120476WA0067700630003033005000
B1738433338724N08120453WA0067800629003031005000
B1738443338732N08120431WA0067700628003031005000
B1738453338742N08120411WA0067500628003031006000
B1738463338755N08120394WA0067200624003033005000
B1738473338770N08120380WA0066900618003033005000
B1738483338787N08120370WA0066500614003031005000
B1738493338805N08120362WA0066100611003027005000
B1738503338824N08120359WA0065900608003024005000
B1738513338842N08120360WA0065700605003024004000
B1738523338860N08120363WA0065400603003024004000
B1738533338878N08120369WA0065400602002027004000
B1738543338895N08120377WA0065300601003027004000
B1738553338912N08120385WA0065000601002022004000
B1738563338929N08120394WA0064800600002022004000
B1738573338946N08120403WA0064800600002018004000
B1738583338963N08120412WA0064600600002015004000
B1738593338979N08120422WA0064100598002020004000
B1739003338996N08120432WA0064000597002013004000
B1739013339013N08120441WA0063900595002011004000
B1739023339030N08120452WA0063800594002011004000
B1739033339047N08120462WA0063500593002009004000
B1739043339065N08120472WA0063100592002015004000
B1739053339082N08120482WA0063200590002022004000
B1739063339099N08120492WA0063200590002024004000
B1739073339117N08120502WA0063300591002029004000
B1739083339134N08120512WA0063500592002029004000
B1739093339151N08120521WA0063500594002024004000
B1739103339169N08120531WA0063700596002024004000
B1739113339186N08120540WA0064100598002024004000
B1739123339203N08120549WA0064300601002027004000
B1739133339219N08120557WA0064500604002033003000
B1739143339236N08120565WA0064700608002036003000
B1739153339252N08120573WA0065000611002036003000
B1739163339268N08120581WA0065300613002033003000
B1739173339284N08120588WA0065700617002031003000
B1739183339300N08120594WA0065800619002029003000
B1739193339315N08120601WA0066000622002029003000
B1739203339329N08120609WA0066200625002031003000
B1739213339341N08120620WA0066400627002031003000
B1739223339351N08120632WA0066400629002029003000
B1739233339359N08120647WA0066200628002024003000
B1739243339364N08120664WA0066000626002022003000
B1739253339365N08120682WA0066200625002022003000
B1739263339363N08120701WA0066300624003022004000
B1739273339357N08120718WA0066200625003024004000
F1739271719073014011328
B1739283339348N08120735WA0066300625003027004000
B1739293339336N08120751WA0066600626004024004000
F173929171907301421011328
B1739303339322N08120764WA0066800628004027004000
F17393017190730142101081328
B1739313339306N08120773WA0067300631004027004000
F173931171907301421011328
B1739323339289N08120779WA0067600634004024004000
F17393217190730142101081328
B1739333339271N08120781WA0067800637003020004000
B1739343339254N08120780WA0068100640003020004000
B1739353339236N08120776WA0068300644003020004000
B1739363339221N08120769WA0068300646003020004000
B1739373339206N08120758WA0068300649003027004000
B1739383339194N08120743WA0068200651003024004000
B1739393339185N08120725WA0068300653003018004000
F173939171907302101081328
B1739403339178N08120706WA0068400654003020004000
F17394017190730142101081328
B1739413339173N08120686WA0068400655003018005000
B1739423339172N08120666WA0068500655003018005000
B1739433339174N08120646WA0068800655003022005000
F173943170730142101081328
B1739443339179N08120629WA0068700655003015005000
B1739453339187N08120614WA0068900655003009005000
B1739463339197N08120602WA0068800653003009005000
F17394617190730142101081328
B1739473339209N08120594WA0068900652003009005000
B1739483339222N08120589WA0069100649003011005000
B1739493339236N08120588WA0069000647003020004000
B1739503339248N08120591WA0069000645003018004000
B1739513339260N08120597WA0069100643003022004000
B1739523339271N08120606WA0069400643002027004000
B1739533339280N08120617WA0069600645002027004000
B1739543339289N08120629WA0069900648002033004000
B1739553339298N08120640WA0070200651002033004000
B1739563339307N08120652WA0070500655002033004000
B1739573339316N08120662WA0070700658002033004000
B1739583339324N08120673WA0070900661002027004000
B1739593339331N08120685WA0071100663002027004000
B1740003339336N08120698WA0071200666002020004000
B1740013339339N08120711WA0071400668002025004000
B1740023339340N08120726WA0071400670002031004000
B1740033339338N08120740WA0071300670003031004000
B1740043339334N08120754WA0071100670003038004000
B1740053339328N08120767WA0071000669003036004000
B1740063339319N08120777WA0070800666003036004000
B1740073339309N08120786WA0070600664003036004000
B1740083339296N08120792WA0070500662003033004000
B1740093339282N08120795WA0070600662003027004000
B1740103339267N08120795WA0070900663003020004000
B1740113339252N08120791WA0071200665003013004000
B1740123339238N08120784WA0071400667003015004000
B1740133339225N08120774WA0071500670003015004000
B1740143339212N08120762WA0071700671003020004000
B1740153339202N08120747WA0071900673003027004000
B1740163339193N08120731WA0072100674003024004000
B1740173339186N08120713WA0072000676003024004000
B1740183339181N08120694WA0072000677003024004000
B1740193339179N08120674WA0072200678003022004000
B1740203339179N08120654WA0072200678003027004000
B1740213339182N08120634WA0072100678003034005000
B1740223339186N08120615WA0072200677003036005000
B1740233339193N08120598WA0072000677003038005000
F174023170730142101081328
B1740243339203N08120583WA0072000676003036005000
B1740253339214N08120571WA0072000673003040005000
B1740263339228N08120562WA0071900672003043005000
B1740273339242N08120557WA0072100672003045005000
B1740283339258N08120556WA0072200673003048004000
F17402817190730142101081328
B1740293339272N08120559WA0072600675003046004000
B1740303339285N08120566WA0072800676003046004000
B1740313339296N08120576WA0072900679003043004000
B1740323339305N08120589WA0073100681003045004000
B1740333339310N08120603WA0073200683003048004000
B1740343339313N08120618WA0073300684003050004000
B1740353339312N08120634WA0073400686003048004000
B1740363339308N08120648WA0073200686003045004000
B1740373339301N08120661WA0073000686003043004000
B1740383339291N08120673WA0072900685003041004000
B1740393339279N08120681WA0073000685003043004000
B1740403339266N08120687WA0073200685003038004000
B1740413339251N08120689WA0073400687003038004000
B1740423339236N08120687WA0073600690003029004000
B1740433339221N08120682WA0074000692003032004000
B1740443339207N08120674WA0074200695003034004000
B1740453339195N08120663WA0074400698003025004000
B1740463339184N08120649WA0074500701003034004000
B1740473339175N08120633WA0074500702003029004000
B1740483339168N08120615WA0074500703003027004000
B1740493339164N08120595WA0074500704003036004000
B1740503339163N08120575WA0074600705003036004000
B1740513339165N08120555WA0074500705003038004000
B1740523339170N08120535WA0074500706003043005000
B1740533339176N08120517WA0074600706003043005000
B1740543339186N08120502WA0074700705003045005000
B1740553339198N08120489WA0074500705003050005000
B1740563339211N08120480WA0074600705003055005000
B1740573339226N08120476WA0074800705003059005000
B1740583339242N08120475WA0075000705003057004000
B1740593339256N08120477WA0074900706003055004000
B1741003339270N08120482WA0075000707003050004000
B1741013339283N08120490WA0075200708003041004000
B1741023339294N08120501WA0075300710003038004000
B1741033339305N08120512WA0075700712003038004000
B1741043339315N08120523WA0075700714002043004000
B1741053339325N08120535WA0075900717002043004000
B1741063339336N08120545WA0076000720002045004000
B1741073339346N08120556WA0076200721002045004000
B1741083339356N08120566WA0076200723002043004000
B1741093339365N08120577WA0076300724002048004000
B1741103339374N08120588WA0076300725002048004000
B1741113339383N08120600WA0076100724002045004000
B1741123339392N08120611WA0075800723002045004000
B1741133339400N08120623WA0075700721002045004000
B1741143339408N08120636WA0075500720002041004000
B1741153339415N08120650WA0075300718002045004000
B1741163339420N08120666WA0075100715002045004000
B1741173339423N08120682WA0074900713003038004000
B1741183339424N08120699WA0074900710003045004000
B1741193339420N08120715WA0075000710003038004000
B1741203339412N08120730WA0075300710003036004000
B1741213339401N08120740WA0075500711004043004000
B1741223339388N08120746WA0075800713004038004000
B1741233339373N08120749WA0075900715004043005000
B1741243339358N08120747WA0075900717004043005000
B1741253339343N08120741WA0075800716003043004000
B1741263339330N08120732WA0075700715003046004000
B1741273339317N08120720WA0075600714003043004000
B1741283339305N08120708WA0075400713003038004000
B1741293339293N08120695WA0075500713003038004000
B1741303339281N08120682WA0075500713003038004000
B1741313339270N08120668WA0075600714003041004000
B1741323339258N08120655WA0075700716003043004000
B1741333339247N08120641WA0075800718003034004000
B1741343339235N08120629WA0075900720003031004000
B1741353339224N08120616WA0076100721003029004000
B1741363339212N08120604WA0076100721003027004000
B1741373339199N08120590WA0076500723003033004000
B1741383339187N08120577WA0076600726003036004000
B1741393339175N08120563WA0076900728003036004000
B1741403339164N08120549WA0077100730003031004000
B1741413339151N08120534WA0077600733003034004000
B1741423339139N08120521WA0078200738003034004000
B1741433339126N08120507WA0078400742003034004000
B1741443339115N08120493WA0078700746003043004000
B1741453339105N08120478WA0078600749003041004000
B1741463339098N08120461WA0078500751003036004000
B1741473339094N08120442WA0078400753003034004000
B1741483339094N08120424WA0078200753003029004000
B1741493339098N08120406WA0078000752003031005000
F174149170730142101081328
B1741503339104N08120389WA0077900752003036005000
B1741513339114N08120375WA0077800748003032005000
B1741523339127N08120365WA0078100744003032006000
B1741533339142N08120358WA0078200743003032005000
B1741543339157N08120354WA0078300743003027005000
F17415417190730142101081328
B1741553339172N08120354WA0078400743003036005000
B1741563339186N08120357WA0078300742003036005000
B1741573339198N08120364WA0078300741003031005000
B1741583339209N08120373WA0078400740003031004000
B1741593339218N08120383WA0078400739003031004000
B1742003339225N08120396WA0078400738003038004000
B1742013339230N08120409WA0078400739003045004000
B1742023339233N08120423WA0078700741003050004000
B1742033339234N08120437WA0079000742003048004000
B1742043339234N08120452WA0079000744003048004000
B1742053339232N08120466WA0079400747003045004000
B1742063339230N08120481WA0079700751003045004000
B1742073339228N08120496WA0080100753003048004000
B1742083339226N08120510WA0080400757003046004000
B1742093339224N08120523WA0080600761003046004000
B1742103339221N08120535WA0080900763003043004000
B1742113339214N08120546WA0081200766003038004000
B1742123339205N08120554WA0081300769004036004000
B1742133339193N08120559WA0081300772004031005000
B1742143339180N08120559WA0081400770004034005000
B1742153339167N08120555WA0081400769004036005000
B1742163339152N08120549WA0081800773003041005000
B1742173339139N08120536WA0082100776003048005000
B1742183339129N08120520WA0082500781003048005000
B1742193339121N08120501WA0082900785003048005000
B1742203339117N08120482WA0083200788003045005000
B1742213339116N08120462WA0083500791003043005000
B1742223339119N08120443WA0083800795003034005000
B1742233339125N08120426WA0083800797003039005000
B1742243339133N08120411WA0084100798003039005000
B1742253339144N08120398WA0084300800003034005000
B1742263339157N08120390WA0084500802003043005000
B1742273339171N08120385WA0084800803003041005000
B1742283339186N08120383WA0085000806003038005000
B1742293339200N08120385WA0085300809003041005000
B1742303339213N08120391WA0085400812003041005000
B1742313339224N08120398WA0085400813003041005000
B1742323339233N08120408WA0085400814003041004000
B1742333339240N08120421WA0085600814003038004000
B1742343339245N08120434WA0085900816003038004000
B1742353339246N08120448WA0086100817003034004000
B1742363339245N08120461WA0086400819003031004000
B1742373339241N08120472WA0086900822003031004000
B1742383339233N08120484WA0087300827003036004000
B1742393339224N08120493WA0087400831003043004000
B1742403339213N08120501WA0087600833003050004000
B1742413339201N08120504WA0087700836003059005000
B1742423339187N08120504WA0087800837003052005000
B1742433339172N08120501WA0087900837003050005000
B1742443339159N08120494WA0088000838003048005000
B1742453339146N08120485WA0088200839003038005000
B1742463339135N08120472WA0088400840003045005000
B1742473339125N08120457WA0089000843003043005000
B1742483339117N08120439WA0089500845003043005000
B1742493339111N08120420WA0090000847003048005000
B1742503339108N08120401WA0090500850003045005000
B1742513339108N08120382WA0090600852003043005000
B1742523339110N08120364WA0090800854003041005000
B1742533339115N08120347WA0091200856003041006000
B1742543339123N08120332WA0091500858003038005000
B1742553339133N08120320WA0091500861003041005000
B1742563339145N08120311WA0091600861003041005000
B1742573339159N08120305WA0091700862003036005000
B1742583339173N08120303WA0091800863003033005000
B1742593339188N08120306WA0092200865003036005000
B1743003339201N08120311WA0092300868003031005000
B1743013339213N08120320WA0092500871003034005000
B1743023339222N08120331WA0092900873003036005000
B1743033339229N08120344WA0093000876003036005000
B1743043339232N08120358WA0093400881003041004000
B1743053339232N08120372WA0093800885003043004000
F174305171907301401081328
B1743063339229N08120385WA0093900889003038004000
B1743073339223N08120397WA0094100893003045005000
B1743083339215N08120407WA0094400895004048005000
B1743093339205N08120415WA0094400896004045005000
F17430917190730142101081328
B1743103339193N08120419WA0094500897004050005000
B1743113339179N08120421WA0094700899004038005000
B1743123339165N08120420WA0094900901004038005000
B1743133339151N08120415WA0095100904003041005000
B1743143339138N08120406WA0095600907003041005000
B1743153339127N08120392WA0095900909003041005000
B1743163339118N08120377WA0096400912003045005000
B1743173339113N08120360WA0096700916003048005000
B1743183339110N08120342WA0097000919003050005000
B1743193339111N08120324WA0097300922003055005000
B1743203339115N08120306WA0097700926003050005000
B1743213339121N08120290WA0097800928003043005000
B1743223339130N08120278WA0098100929003038005000
B1743233339141N08120268WA0098300931003038005000
B1743243339154N08120262WA0098400932003041005000
B1743253339167N08120260WA0098400933003045005000
B1743263339179N08120262WA0098400934003048005000
B1743273339191N08120269WA0098700935003043005000
B1743283339201N08120280WA0098900936003041005000
B1743293339209N08120293WA0099300938003041005000
B1743303339213N08120306WA0099700943003043004000
B1743313339214N08120320WA0100000947003043004000
B1743323339212N08120333WA0100400951003043005000
F174332171907301401081328
B1743333339207N08120345WA0100700955003038005000
B1743343339199N08120355WA0100900958003036005000
B1743353339189N08120363WA0101000961003036005000
F174335171907301421011328
B1743363339177N08120367WA0101000963003034005000
B1743373339164N08120367WA0101000963003036005000
F17433717190730142101081328
B1743383339151N08120362WA0100900963003033005000
B1743393339139N08120352WA0101200963003038005000
B1743403339129N08120338WA0101500963003036005000
B1743413339121N08120320WA0101600964003036005000
B1743423339117N08120301WA0102100964003041005000
B1743433339115N08120281WA0102300965003043006000
B1743443339117N08120262WA0102500967003043006000
B1743453339122N08120244WA0102700970003045006000
B1743463339130N08120228WA0103000972003041006000
B1743473339141N08120214WA0103200974003038006000
B1743483339154N08120204WA0103500977003038006000
B1743493339168N08120198WA0103600979003038005000
B1743503339182N08120195WA0103900982003038005000
B1743513339197N08120196WA0104200987003036005000
B1743523339210N08120201WA0104500992003038005000
B1743533339222N08120208WA0104900996003043005000
B1743543339231N08120217WA0104900999003043005000
B1743553339238N08120229WA0105201002003043005000
B1743563339242N08120242WA0105701006003040005000
B1743573339242N08120256WA0105701009003036005000
B1743583339240N08120270WA0105801011003041004000
F174358171907301401081328
B1743593339233N08120282WA0106101014003045004000
B1744003339224N08120292WA0106401018003048005000
B1744013339211N08120300WA0106901021003045005000
F17440117190730142101081328
B1744023339197N08120305WA0107201024003045005000
B1744033339183N08120307WA0107501028003043005000
B1744043339168N08120304WA0108001033003045005000
B1744053339154N08120297WA0108301036003048005000
B1744063339141N08120286WA0108401039003043005000
B1744073339130N08120271WA0108701042003038005000
B1744083339121N08120254WA0108801045003034005000
B1744093339115N08120235WA0109301048003036005000
F174409171907301421010813
B1744103339112N08120215WA0109801051003038005000
B1744113339113N08120194WA0110301055003043006000
F17441117190730142101081328
B1744123339118N08120174WA0110801061003043006000
B1744133339125N08120157WA0111201067003038006000
B1744143339134N08120143WA0111501070003036006000
B1744153339145N08120132WA0111601070003033006000
B1744163339157N08120124WA0111601071003038006000
B1744173339171N08120121WA0111801072003041006000
B1744183339184N08120121WA0111901073003043005000
B1744193339197N08120124WA0111901074003043005000
B1744203339208N08120131WA0112001075003043005000
B1744213339217N08120141WA0112101076003043005000
B1744223339225N08120153WA0112301078003043005000
B1744233339230N08120165WA0112601080003048005000
B1744243339233N08120179WA0113001084003048005000
B1744253339234N08120193WA0113401087003043005000
F174425171907301421011328
B1744263339232N08120207WA0113601091003043005000
B1744273339227N08120220WA0114101095004041005000
B1744283339219N08120233WA0114501099004041005000
B1744293339208N08120243WA0115001104004046005000
B1744303339196N08120249WA0115401108004043005000
B1744313339182N08120251WA0115801112004041005000
B1744323339168N08120250WA0116201116004036005000
F17443217190730142101081328
B1744333339154N08120246WA0116501120003033005000
B1744343339140N08120238WA0116901124003033005000
B1744353339128N08120226WA0117301127003027005000
B1744363339117N08120212WA0117501131003027006000
B1744373339109N08120196WA0117901135003027006000
B1744383339104N08120177WA0118201138003020006000
B1744393339102N08120158WA0118501141003029006000
B1744403339103N08120138WA0119001144003034006000
B1744413339108N08120120WA0119301148003034006000
B1744423339116N08120104WA0119401151003043006000
B1744433339127N08120090WA0119601151003041006000
F174443190730142101081328
B1744443339138N08120080WA0119701147003041006000
B1744453339152N08120072WA0119701148003043006000
F17444517190730142101081328
B1744463339167N08120069WA0120001150003043006000
B1744473339182N08120069WA0120101152003046006000
B1744483339196N08120074WA0120201155003046005000
B1744493339209N08120081WA0120401157003041005000
B1744503339220N08120092WA0120601159003041005000
B1744513339229N08120104WA0120801161003048005000
B1744523339235N08120119WA0121201163003048005000
B1744533339239N08120135WA0121401167003055005000
B1744543339239N08120151WA0121901172003052005000
B1744553339237N08120166WA0122401176003045005000
B1744563339232N08120180WA0122701181003041005000
B1744573339224N08120194WA0123301185003038005000
B1744583339212N08120204WA0123601189003045005000
B1744593339199N08120211WA0123701193003045005000
B1745003339185N08120215WA0123901195003052005000
B1745013339170N08120215WA0123901196003052005000
B1745023339154N08120211WA0124101196003048005000
B1745033339139N08120204WA0124201197003043005000
B1745043339125N08120192WA0124301199003041005000
B1745053339113N08120176WA0124501201003041004000
F1745051719073014222101081328
B1745063339104N08120158WA0124701203003032004000
B1745073339098N08120138WA0125001205003032004000
F17450717190730142221010813
B1745083339094N08120116WA0125401206003032004000
F1745081719073014222128010813
B1745093339095N08120095WA0125901210003032004000
B1745103339099N08120074WA0126501217003041004000
B1745113339105N08120055WA0126801221003046004000
B1745123339114N08120037WA0127001224003046004000
B1745133339124N08120022WA0127001225003043004000
B1745143339137N08120010WA0127101226003043005000
B1745153339151N08120000WA0127401227003041004000
B1745163339166N08119995WA0127501229003034004000
B1745173339182N08119992WA0127501230003031004000
B1745183339197N08119992WA0127701231003031004000
B1745193339211N08119996WA0127701232003031004000
B1745203339224N08120004WA0127901234003034004000
B1745213339235N08120014WA0128001236003034004000
B1745223339244N08120027WA0128101237003034004000
B1745233339250N08120043WA0128201239003034004000
B1745243339254N08120059WA0128501241003041004000
B1745253339254N08120075WA0128901243003048004000
B1745263339251N08120092WA0129301247003048004000
B1745273339245N08120106WA0129301252003052004000
B1745283339237N08120119WA0129801256003055004000
B1745293339228N08120133WA0130001260003055004000
B1745303339220N08120145WA0130301263003057004000
B1745313339209N08120157WA0130501265003055004000
B1745323339196N08120164WA0130701268003052004000
B1745333339181N08120168WA0130701270003050004000
B1745343339165N08120167WA0130801270003048004000
B1745353339150N08120161WA0130901271003048004000
B1745363339135N08120150WA0131301273003048004000
B1745373339121N08120137WA0131501277003045004000
B1745383339110N08120120WA0131901280003045004000
B1745393339102N08120101WA0132301284003048004000
B1745403339097N08120081WA0132801287003043004000
B1745413339095N08120060WA0133301291003045004000
B1745423339097N08120040WA0133701295003045004000
B1745433339103N08120020WA0134101300003041004000
B1745443339111N08120003WA0134401304003043004000
B1745453339121N08119988WA0134701306003043004000
B1745463339133N08119976WA0135101308003034004000
B1745473339148N08119967WA0135501312003027004000
B1745483339162N08119963WA0135901314003027004000
B1745493339177N08119962WA0135901317003025004000
B1745503339192N08119966WA0136001320003034004000
B1745513339205N08119973WA0136501321003043004000
B1745523339217N08119983WA0136601323003041004000
F17455217190730142128010813
B1745533339226N08119996WA0136901326003043004000
B1745543339233N08120011WA0137201329003041004000
B1745553339237N08120028WA0137701333003041004000
B1745563339238N08120045WA0138101337003041004000
F1745561719073014222128010813
B1745573339235N08120061WA0138401342003041004000
B1745583339229N08120076WA0138901346003045004000
B1745593339220N08120089WA0139001349003050004000
B1746003339209N08120099WA0139201352003055004000
B1746013339196N08120106WA0139301355003057004000
B1746023339181N08120110WA0139501357003057004000
B1746033339166N08120111WA0139801360003050004000
B1746043339150N08120106WA0140001362003048004000
B1746053339135N08120097WA0140201365003041004000
B1746063339122N08120084WA0140601367003038004000
B1746073339112N08120067WA0141001370003041004000
B1746083339105N08120048WA0141301373003045004000
B1746093339100N08120027WA0141701376003052004000
B1746103339100N08120006WA0142101380003052004000
B1746113339103N08119985WA0142401384003050004000
B1746123339109N08119966WA0142801388003045004000
B1746133339118N08119948WA0143101391003038004000
B1746143339129N08119932WA0143301393003036004000
F17461419073014222128010813
B1746153339143N08119920WA0143701396003038004000
F1746151719073014222128010813
B1746163339158N08119910WA0144101399003036004000
B1746173339174N08119905WA0144301401003041004000
B1746183339190N08119903WA0144601403003043004000
B1746193339206N08119905WA0145001407003043004000
B1746203339221N08119911WA0145401411003046004000
B1746213339234N08119921WA0145801414003041004000
B1746223339246N08119932WA0146101418003041004000
B1746233339254N08119946WA0146401422003041004000
B1746243339261N08119961WA0146701425003043004000
F17462417190730142128010813
B1746253339264N08119978WA0147001429003050004000
B1746263339266N08119995WA0146901431003052004000
B1746273339265N08120012WA0147101433003055004000
B1746283339264N08120029WA0147001434003055004000
F1746281719073014222128010813
B1746293339263N08120047WA0147001433003057004000
F17462917190730142128010813
B1746303339263N08120065WA0147001433003059004000
B1746313339263N08120084WA0147101434003061004000
B1746323339263N08120104WA0147001435003064004000
B1746333339263N08120123WA0147001436003064004000
B1746343339263N08120143WA0147101437003066004000
F17463417190730142228010813
B1746353339262N08120163WA0147101438003068004000
B1746363339261N08120183WA0147201439003066004000
B1746373339260N08120204WA0147301440003068004000
F1746371719073014222128010813
B1746383339260N08120225WA0147401441003068004000
F17463817190730142228010813
B1746393339260N08120246WA0147401442003066004000
F1746391719073014222128010813
B1746403339261N08120268WA0147501443003070004000
B1746413339261N08120289WA0147301443003073004000
F17464117190730142228010813
B1746423339262N08120311WA0147201444003073004000
B1746433339263N08120333WA0147201446003073004000
B1746443339264N08120354WA0147101446003068004000
B1746453339265N08120376WA0147101446003059004000
B1746463339266N08120397WA0147101445003048004000
B1746473339268N08120419WA0146601443003038004000
B1746483339269N08120441WA0146301440003029004000
B1746493339270N08120464WA0145601436003024004000
B1746503339271N08120486WA0145201431003029004000
B1746513339272N08120509WA0144801426003034004000
B1746523339273N08120533WA0143901420003038004000
B1746533339274N08120557WA0143501415003041004000
B1746543339275N08120581WA0142801409003036004000
B1746553339276N08120606WA0142201403003033004000
B1746563339277N08120631WA0142101398003033004000
F1746561719073014222128010813
B1746573339279N08120656WA0141701394003036004000
B1746583339280N08120682WA0141401391003036004000
B1746593339282N08120707WA0141301389003038004000
B1747003339284N08120733WA0141101386003036004000
B1747013339287N08120759WA0140901385003036004000
B1747023339289N08120785WA0140501384003041004000
B1747033339291N08120810WA0140401382003038004000
B1747043339294N08120837WA0140501379003045004000
B1747053339297N08120863WA0140101378003041004000
B1747063339299N08120890WA0140201377003045004000
B1747073339303N08120916WA0140201376003050004000
B1747083339306N08120943WA0139601375003050004000
F17470817190730142128010813
B1747093339309N08120969WA0139601372003057004000
B1747103339312N08120996WA0139301371003055004000
B1747113339316N08121023WA0139401370003055004000
B1747123339319N08121050WA0139501371003055004000
B1747133339323N08121076WA0139301370003059004000
B1747143339327N08121102WA0139201370003057004000
F1747141719073014222128010813
B1747153339331N08121127WA0139301370003052004000
B1747163339335N08121153WA0139201369003047004000
B1747173339340N08121179WA0138901369003041004000
B1747183339345N08121204WA0139001368003043004000
B1747193339350N08121229WA0138901366003043004000
B1747203339356N08121254WA0138601365003048004000
B1747213339361N08121279WA0138301363003050004000
B1747223339367N08121304WA0138101362003048004000
B1747233339372N08121328WA0138101360003048004000
B1747243339377N08121353WA0137901358003045004000
B1747253339381N08121378WA0137801356003043004000
B1747263339385N08121403WA0137301353003045004000
B1747273339389N08121428WA0137101350003043004000
B1747283339393N08121453WA0136601346003043004000
B1747293339397N08121477WA0136401344003038004000
B1747303339401N08121502WA0136301342003031004000
B1747313339405N08121526WA0136201341003036004000
B1747323339409N08121550WA0136101340003034004000
B1747333339414N08121574WA0136201339003036004000
F17473317190730142128010813
B1747343339418N08121598WA0136201338003041004000
B1747353339423N08121622WA0136101338003041004000
B1747363339428N08121646WA0136001337003041004000
B1747373339433N08121669WA0135901336003038004000
B1747383339438N08121692WA0135801336003034004000
F1747381719073014222128010813
B1747393339443N08121715WA0135401334003034004000
B1747403339448N08121738WA0135401333003034004000
B1747413339454N08121760WA0135401331003036004000
F17474117190730142128010813
B1747423339459N08121781WA0135201331003041004000
B1747433339465N08121803WA0135001330003036004000
B1747443339471N08121824WA0134801328003036004000
B1747453339477N08121844WA0134401325003034004000
B1747463339482N08121865WA0133601321003029004000
B1747473339488N08121886WA0133001314003031004000
B1747483339493N08121907WA0132101307003029004000
B1747493339499N08121928WA0131201300003029004000
B1747503339505N08121950WA0130101291003029004000
B1747513339510N08121973WA0129301281003024004000
B1747523339516N08121996WA0128401271003024004000
B1747533339522N08122020WA0127501261003027004000
B1747543339528N08122045WA0126901253003022004000
B1747553339535N08122071WA0126501246003029004000
B1747563339541N08122096WA0125901240003029004000
B1747573339548N08122122WA0125701235003029004000
B1747583339554N08122148WA0125301231003038004000
B1747593339561N08122173WA0125001228003036004000
B1748003339568N08122198WA0124701225003041004000
B1748013339575N08122224WA0124701223003041004000
B1748023339582N08122248WA0124301220003041004000
B1748033339589N08122273WA0123801217003041004000
B1748043339595N08122298WA0123601214003036004000
B1748053339600N08122323WA0123201211003038004000
B1748063339606N08122348WA0122901208003038004000
B1748073339610N08122373WA0122701206003038004000
B1748083339615N08122397WA0122501203003043004000
B1748093339619N08122422WA0122401201003043004000
B1748103339623N08122446WA0122301200003041004000
B1748113339627N08122470WA0122301198003043004000
F1748111719073014222128010813
B1748123339631N08122494WA0121901197003043004000
B1748133339635N08122517WA0121901196003036004000
B1748143339640N08122541WA0121701194003039004000
F17481417190730142128010813
B1748153339645N08122564WA0121701193003036004000
B1748163339650N08122588WA0121501191003031004000
B1748173339655N08122611WA0121501189003034004000
B1748183339660N08122635WA0121001187003034004000
B1748193339665N08122659WA0121001184003036004000
B1748203339670N08122684WA0120701182003041004000
B1748213339675N08122708WA0120701180003046004000
B1748223339681N08122733WA0120701180003046004000
B1748233339686N08122758WA0120601179003052004000
B1748243339691N08122783WA0120401177003059004000
B1748253339697N08122807WA0120601177003059004000
B1748263339702N08122832WA0120501176003059004000
B1748273339707N08122856WA0120501175003052004000
B1748283339711N08122880WA0120401174003046004000
B1748293339716N08122903WA0120101172003043004000
B1748303339720N08122927WA0119901170003043004000
B1748313339723N08122951WA0119501167003043004000
F1748311719073014222128010813
B1748323339726N08122975WA0119201164003043004000
B1748333339728N08122999WA0119101161003046004000
B1748343339730N08123023WA0118901159003046004000
B1748353339733N08123048WA0118701157003046004000
B1748363339735N08123072WA0118701156003046004000
B1748373339738N08123097WA0118701155003046004000
B1748383339740N08123121WA0118601154003046004000
B1748393339742N08123146WA0117901152003046004000
B1748403339745N08123170WA0118001150003046004000
B1748413339746N08123195WA0118001148003041004000
B1748423339748N08123220WA0117801148003041004000
B1748433339750N08123245WA0117801147003038004000
B1748443339751N08123269WA0117601147003034004000
B1748453339753N08123294WA0117401145003034004000
B1748463339754N08123319WA0117101143003034004000
B1748473339756N08123343WA0117101141003034004000
B1748483339758N08123368WA0116501138003038004000
B1748493339760N08123393WA0116201136003036004000
B1748503339762N08123418WA0116101133003036004000
B1748513339764N08123442WA0115601129003041004000
F17485117190730142228010813
B1748523339766N08123467WA0114801125003038004000
B1748533339768N08123492WA0114601119003045004000
B1748543339771N08123517WA0114001115003043004000
B1748553339773N08123543WA0113701111003036004000
B1748563339776N08123569WA0113601108003034004000
B1748573339778N08123594WA0113301105003034004000
B1748583339780N08123620WA0112901103003034004000
B1748593339783N08123645WA0112901101003038004000
F1748591719073014222128010813
B1749003339785N08123671WA0113401101003043004000
B1749013339787N08123696WA0113801103003043004000
B1749023339790N08123720WA0114201107003046004000
B1749033339793N08123743WA0114401110003046004000
B1749043339795N08123766WA0114801114003043004000
B1749053339798N08123789WA0115101119003038004000
B1749063339801N08123811WA0115301123003036004000
B1749073339805N08123832WA0115601126003036004000
B1749083339808N08123853WA0115601128003036004000
F17490817190730142128010813
B1749093339812N08123874WA0116001131003038004000
B1749103339815N08123895WA0116101134003038004000
B1749113339818N08123915WA0116401137003033004000
B1749123339821N08123935WA0117001141003031004000
B1749133339824N08123954WA0117501145003031004000
B1749143339828N08123973WA0117801150003031004000
B1749153339832N08123991WA0118101154003033004000
B1749163339836N08124008WA0118701159003033004000
B1749173339840N08124025WA0119301164003031004000
B1749183339843N08124042WA0119801169003029004000
F1749181719073014222128010813
B1749193339845N08124059WA0120201175003024004000
B1749203339843N08124076WA0120101179003022004000
B1749213339839N08124093WA0120201182003022004000
B1749223339832N08124108WA0120101181003022004000
F17492217190730142228010813
B1749233339822N08124121WA0120101180003018004000
B1749243339808N08124132WA0119801177004018004000
B1749253339792N08124139WA0119801175004018005000
B1749263339775N08124142WA0120201174004015005000
F1749261719073014222128010813
B1749273339758N08124140WA0120501172004018005000
B1749283339739N08124135WA0121101175003022004000
B1749293339722N08124127WA0121401179003024004000
B1749303339706N08124116WA0122101185003024004000
B1749313339692N08124102WA0122501190003027004000
B1749323339680N08124088WA0122701194003022004000
B1749333339669N08124071WA0123001197003018004000
B1749343339659N08124055WA0123201199003018004000
B1749353339650N08124037WA0123201201003013004000
B1749363339641N08124020WA0123201202003015004000
B1749373339633N08124002WA0123401203003018004000
B1749383339624N08123985WA0123401203003013004000
B1749393339614N08123967WA0123301204003020004000
B1749403339605N08123949WA0123401204003020004000
B1749413339594N08123932WA0123601206003020004000
B1749423339584N08123914WA0123601208003020004000
B1749433339573N08123896WA0123801209003020004000
B1749443339562N08123879WA0123901211003020004000
B1749453339551N08123861WA0124001213003020004000
B1749463339541N08123843WA0124601216003029004000
B1749473339532N08123824WA0124401219003027004000
B1749483339525N08123804WA0124601220003027004000
B1749493339519N08123783WA0124601222003022004000
B1749503339515N08123761WA0124701224003022004000
B1749513339512N08123739WA0125101224003024004000
B1749523339512N08123717WA0125201225003022004000
B1749533339513N08123695WA0125201226003020004000
B1749543339515N08123673WA0125301226003020004000
B1749553339518N08123652WA0125501226003018004000
B1749563339522N08123632WA0125401226003015004000
B1749573339526N08123611WA0125501227003022004000
B1749583339529N08123591WA0125801228003020004000
B1749593339533N08123571WA0125801229003020004000
B1750003339536N08123552WA0125801230003027004000
B1750013339540N08123532WA0126001232003027004000
B1750023339544N08123513WA0126101234003027004000
B1750033339550N08123495WA0126201235003024004000
B1750043339557N08123477WA0126201236003024004000
B1750053339566N08123461WA0126401238003024004000
B1750063339576N08123446WA0126601240003022004000
B1750073339587N08123433WA0126601241003027004000
B1750083339599N08123420WA0126801243003024004000
B1750093339611N08123409WA0126801244003020004000
B1750103339623N08123397WA0127001246003022004000
B1750113339635N08123384WA0126901247003015004000
B1750123339646N08123372WA0126901247003006004000
B1750133339657N08123359WA0126801245003009004000
B1750143339669N08123348WA0126601244003006004000
B1750153339682N08123337WA0126501242003006004000
B1750163339696N08123330WA0126401241003011004000
B1750173339711N08123324WA0126001238003011004000
B1750183339727N08123322WA0125801235003009004000
B1750193339742N08123323WA0125801233003011004000
B1750203339757N08123326WA0125501230003011004000
B1750213339771N08123333WA0125401228003009004000
B1750223339783N08123342WA0125201226003009004000
B1750233339794N08123353WA0124901223003009004000
B1750243339804N08123366WA0124701221003004004000
B1750253339813N08123381WA0124401218003002004000
B1750263339820N08123396WA0124201215003004004000
B1750273339826N08123413WA0123901213003006004000
B1750283339831N08123430WA0123601210003013004000
B1750293339835N08123448WA0123501207003013004000
F17502917190730142128010813
B1750303339840N08123466WA0123501206003011004000
B1750313339845N08123484WA0123701207003015004000
B1750323339851N08123502WA0123801209003015004000
B1750333339856N08123520WA0123901211003022004000
B1750343339861N08123537WA0124201214003024004000
B1750353339867N08123553WA0124301216003020004000
B1750363339872N08123569WA0124701219003015004000
F1750361719073014222128010813
B1750373339878N08123584WA0124801222003011004000
B1750383339883N08123599WA0125201225003009004000
B1750393339889N08123614WA0125401229003009004000
B1750403339895N08123628WA0125901231003013004000
B1750413339900N08123643WA0125901234003015004000
B1750423339906N08123657WA0125901235003015004000
B1750433339911N08123672WA0125901236003006004000
B1750443339913N08123687WA0125901237003004004000
B1750453339912N08123703WA0126001237003002004000
B1750463339907N08123719WA0126001236003000004000
B1750473339900N08123732WA0126001235003004004000
B1750483339889N08123743WA0126001235003004004000
B1750493339875N08123751WA0126001235003004004000
B1750503339860N08123755WA0126301234003013004000
B1750513339844N08123755WA0126401235003015004000
B1750523339828N08123753WA0126301236003011004000
B1750533339812N08123749WA0126301236003009004000
B1750543339795N08123744WA0126101234003004004000
B1750553339779N08123740WA0126101232003000004000
B1750563339762N08123737WA0126301232003006004000
B1750573339744N08123734WA0126301233003009004000
B1750583339727N08123731WA0126301234003011004000
B1750593339710N08123729WA0126401236003011004000
B1751003339694N08123726WA0126501238003015004000
B1751013339678N08123724WA0126701240003013004000
B1751023339662N08123721WA0126701240003015004000
B1751033339646N08123719WA0126701241003015004000
B1751043339630N08123717WA0126901241003011004000
B1751053339614N08123714WA0127101243003020004000
B1751063339598N08123712WA0127301245003020004000
B1751073339582N08123710WA0127401247003027004000
B1751083339567N08123707WA0127801250003027004000
B1751093339551N08123705WA0128101254003024004000
B1751103339536N08123702WA0128401258003022004000
B1751113339521N08123701WA0128701261003018004000
B1751123339507N08123699WA0128901264003022004000
B1751133339492N08123696WA0128801266003018004000
B1751143339478N08123691WA0128701266003015004000
B1751153339465N08123682WA0128601265003020004000
B1751163339453N08123670WA0128401263003018004000
B1751173339442N08123654WA0128301262003022004000
B1751183339434N08123636WA0128301261003024004000
B1751193339429N08123615WA0128501261003020004000
B1751203339427N08123593WA0128501261003018004000
B1751213339427N08123571WA0128501260003015004000
B1751223339432N08123550WA0128701261003015004000
B1751233339439N08123529WA0129001261003018004000
B1751243339448N08123511WA0129201263003020004000
B1751253339458N08123495WA0129401265003015004000
B1751263339470N08123481WA0129301266003013004000
B1751273339484N08123469WA0129401266003013004000
B1751283339498N08123459WA0129701265003006004000
B1751293339512N08123452WA0129301265003009004000
B1751303339527N08123446WA0129201264003009004000
B1751313339542N08123440WA0129001262003004004000
B1751323339558N08123433WA0128701261003009004000
B1751333339573N08123426WA0128601260003004004000
B1751343339588N08123417WA0128401258003004004000
B1751353339604N08123407WA0128401257003009004000
B1751363339619N08123398WA0128401256003009004000
B1751373339635N08123388WA0128501258003018004000
B1751383339650N08123378WA0128701260003020004000
B1751393339665N08123367WA0129001261003020004000
B1751403339679N08123357WA0129101263003022004000
B1751413339694N08123347WA0129201266003022004000
B1751423339708N08123337WA0129201267003022004000
B1751433339722N08123327WA0129301267003024004000
B1751443339736N08123317WA0129301267003024004000
B1751453339750N08123308WA0129401269003020004000
B1751463339764N08123299WA0129401269003024004000
B1751473339777N08123291WA0129301269003022004000
B1751483339791N08123282WA0129101268003020004000
B1751493339805N08123274WA0128901267003022004000
B1751503339819N08123267WA0128501265003013004000
B1751513339834N08123260WA0128201262003013004000
B1751523339850N08123254WA0127701259003009004000
B1751533339865N08123249WA0127501256003006004000
B1751543339882N08123246WA0127501254003011004000
B1751553339899N08123243WA0127801254003006004000
B1751563339916N08123239WA0127701254003004004000
B1751573339933N08123235WA0127401253003006004000
B1751583339950N08123232WA0127401253003006005000
B1751593339967N08123228WA0127201252003009004000
B1752003339983N08123224WA0126901249003013004000
B1752013340000N08123220WA0126501245003006004000
B1752023340017N08123217WA0126101240003009004000
B1752033340035N08123214WA0125801235003011004000
B1752043340053N08123212WA0125401232003011004000
B1752053340071N08123213WA0125401230003013004000
B1752063340087N08123217WA0125401228003011004000
B1752073340103N08123224WA0125501228003011004000
B1752083340116N08123235WA0125501227003013004000
B1752093340128N08123248WA0125501227003015004000
B1752103340138N08123262WA0125601226003013004000
B1752113340147N08123276WA0125401225003011004000
B1752123340156N08123291WA0125201223003011004000
F17521217190730142221280813
B1752133340165N08123306WA0125401222003013004000
B1752143340174N08123322WA0125301223003013004000
B1752153340183N08123337WA0125301224003018004000
B1752163340192N08123352WA0125401226003020004000
B1752173340201N08123366WA0125501227003024004000
B1752183340210N08123381WA0125601229003027004000
B1752193340220N08123395WA0125701230003022004000
B1752203340230N08123408WA0125801231003013004000
B1752213340240N08123423WA0126001232003013004000
B1752223340249N08123437WA0126501234003018004000
B1752233340259N08123452WA0126501236003020004000
B1752243340267N08123467WA0126601239003020004000
B1752253340276N08123482WA0127001242003018004000
B1752263340284N08123496WA0127001244003015004000
B1752273340293N08123510WA0127401246003020004000
B1752283340301N08123524WA0127601248003024004000
B1752293340307N08123539WA0128001250003027004000
F1752291719073014222128010813
B1752303340311N08123555WA0127901252003022004000
B1752313340312N08123571WA0127701253003018004000
B1752323340309N08123586WA0127501251003022004000
B1752333340302N08123600WA0127201249003015004000
B1752343340289N08123609WA0127201247003013004000
B1752353340275N08123612WA0127301245004011005000
B1752363340259N08123609WA0127601244004011005000
B1752373340245N08123599WA0128001242004018005000
B1752383340231N08123586WA0128401246003024004000
B1752393340221N08123568WA0129001250003024004000
B1752403340215N08123548WA0129301253003022004000
B1752413340213N08123526WA0129701256003022004000
B1752423340215N08123505WA0129901260003020004000
B1752433340222N08123484WA0130101263003022004000
B1752443340232N08123466WA0130101264003018004000
B1752453340244N08123451WA0130201264003011004000
B1752463340260N08123439WA0130401264003013004000
B1752473340276N08123432WA0130601265003015004000
B1752483340293N08123429WA0130501266003020004000
B1752493340310N08123431WA0130801267003024004000
B1752503340325N08123437WA0130801269003024004000
B1752513340338N08123447WA0131101271003018004000
B1752523340348N08123460WA0131501273003020004000
B1752533340354N08123474WA0131901276003018004000
B1752543340357N08123488WA0132001279003009004000
B1752553340356N08123502WA0131901281003009004000
B1752563340351N08123513WA0131901282003011004000
B1752573340344N08123523WA0131901282003006004000
B1752583340333N08123530WA0131801282004009004000
B1752593340321N08123534WA0132001284004018004000
B1753003340307N08123534WA0132201286003018004000
B1753013340293N08123531WA0132501289003027004000
B1753023340279N08123525WA0133001293003036004000
B1753033340267N08123515WA0133101297003033004000
B1753043340257N08123501WA0133301301003022004000
B1753053340248N08123486WA0133601305003015004000
B1753063340241N08123468WA0133901307003011004000
B1753073340238N08123448WA0134101310003009004000
B1753083340238N08123428WA0134301312003015004000
B1753093340241N08123407WA0134601314003020004000
B1753103340247N08123387WA0134701316003020004000
B1753113340256N08123369WA0134801317003013004000
B1753123340267N08123352WA0134901318003013004000
B1753133340280N08123339WA0135301320003011005000
B1753143340296N08123328WA0135301322003011004000
B1753153340312N08123321WA0135801323003015004000
B1753163340329N08123317WA0135801325003015004000
B1753173340345N08123319WA0135801325003015004000
B1753183340359N08123323WA0135901324003018004000
B1753193340373N08123332WA0135701324003020004000
B1753203340384N08123343WA0135801323003020004000
B1753213340391N08123356WA0136101323003013004000
B1753223340396N08123371WA0135901323003013004000
B1753233340396N08123386WA0135601323003015004000
B1753243340392N08123400WA0135501322003018004000
B1753253340385N08123413WA0135601321003024004000
B1753263340376N08123424WA0135401319003022004000
B1753273340364N08123432WA0135601319003024004000
B1753283340350N08123438WA0135601320003022004000
B1753293340336N08123439WA0135601322003024004000
B1753303340321N08123435WA0136001324003022004000
B1753313340306N08123426WA0136301326003020004000
B1753323340293N08123413WA0136301328003015004000
B1753333340282N08123397WA0136701330003009004000
B1753343340273N08123378WA0136901333003013004000
B1753353340267N08123357WA0137301336003011004000
B1753363340263N08123334WA0137701339003013004000
B1753373340263N08123312WA0138001341003022004000
B1753383340267N08123290WA0138101344003022004000
B1753393340273N08123269WA0138401346003022004000
B1753403340283N08123249WA0138601347003027004000
B1753413340295N08123232WA0138701349003018004000
B1753423340310N08123218WA0139001350003020004000
B1753433340326N08123208WA0139101352003015004000
B1753443340342N08123200WA0139201352003013004000
B1753453340359N08123197WA0139301352003018004000
B1753463340376N08123197WA0139201352003013004000
B1753473340392N08123201WA0139201352003015004000
B1753483340406N08123209WA0139201351003011004000
F17534817190730142128010813
B1753493340418N08123220WA0139201351003013004000
B1753503340427N08123234WA0139401352003018004000
B1753513340432N08123249WA0139301353003024004000
B1753523340434N08123265WA0139201354003029004000
B1753533340432N08123281WA0139001354003022004000
F1753531719073014222128010813
B1753543340427N08123295WA0138901353003013004000
B1753553340419N08123308WA0138901352003004004000
B1753563340408N08123318WA0138701351003004004000
B1753573340395N08123325WA0138901350003009004000
B1753583340381N08123330WA0139201353003006004000
B1753593340366N08123330WA0139301356003013004000
B1754003340351N08123325WA0139601360003015004000
B1754013340336N08123316WA0140001364003018004000
B1754023340323N08123303WA0140201367003027004000
F17540217190730142221280108
B1754033340311N08123288WA0140101369003027004000
F1754031719073014222128010813
B1754043340301N08123271WA0140301371003027004000
B1754053340291N08123253WA0140401373003022004000
B1754063340281N08123235WA0140601374003020004000
B1754073340271N08123217WA0141001376003018004000
B1754083340261N08123199WA0141501380003011004000
B1754093340252N08123180WA0141601383003013004000
B1754103340244N08123161WA0141901387003013004000
B1754113340240N08123139WA0142001390003013004000
B1754123340239N08123117WA0142201392003018004000
B1754133340243N08123094WA0142301394003022004000
B1754143340251N08123074WA0142501395003013004000
B1754153340264N08123058WA0142301396003018004000
B1754163340280N08123048WA0142301394003015004000
B1754173340297N08123045WA0142001393003011005000
B1754183340313N08123049WA0141401390003022005000
B1754193340326N08123062WA0141001385004018005000
B1754203340336N08123078WA0141001382004020005000
B1754213340340N08123097WA0141201378004024005000
B1754223340342N08123116WA0141801379004024005000
B1754233340340N08123132WA0141901379004020005000
B1754243340334N08123148WA0142101382004022005000
B1754253340325N08123163WA0142401386004018005000
B1754263340313N08123174WA0142901389004013005000
B1754273340300N08123181WA0143101391004022005000
B1754283340285N08123184WA0143101393004020005000
B1754293340270N08123186WA0143001394004018005000
B1754303340254N08123187WA0143301396004024005000
B1754313340239N08123188WA0143601399004013005000
B1754323340224N08123190WA0143801402003015005000
B1754333340208N08123193WA0144301405003018005000
B1754343340193N08123195WA0144401408003015005000
B1754353340178N08123197WA0144601410003022005000
B1754363340163N08123198WA0144701412003022005000
B1754373340148N08123196WA0144901415003020005000
B1754383340133N08123191WA0145001416003020005000
B1754393340118N08123181WA0145201418003022005000
B1754403340105N08123167WA0145401420003020004000
B1754413340095N08123149WA0145501421003018004000
B1754423340089N08123129WA0145401422003011004000
B1754433340086N08123106WA0145701422003009004000
B1754443340087N08123083WA0145801421003009004000
B1754453340092N08123061WA0145901422003013004000
B1754463340101N08123041WA0146101423003018004000
B1754473340114N08123024WA0146301424003018005000
B1754483340130N08123012WA0146201424003015005000
B1754493340146N08123004WA0146301424003015005000
B1754503340164N08123001WA0146601425003013005000
B1754513340180N08123005WA0146801425003013005000
B1754523340196N08123013WA0146901428003015005000
B1754533340208N08123025WA0146901429003015004000
B1754543340217N08123040WA0147001431003011004000
B1754553340224N08123058WA0146801433003009004000
F17545517190730142128010813
B1754563340226N08123076WA0146901434004013004000
B1754573340224N08123093WA0146901435004018004000
F1754571719073014222128010813
B1754583340218N08123109WA0147401436004029004000
B1754593340208N08123122WA0147501439004036004000
B1755003340196N08123131WA0147801442004033004000
B1755013340182N08123136WA0148201444004031004000
B1755023340167N08123137WA0148301447004027004000
B1755033340152N08123135WA0148501449004024004000
B1755043340138N08123129WA0148801453003022004000
B1755053340124N08123120WA0148901455003018004000
B1755063340111N08123108WA0149201456003020004000
B1755073340099N08123094WA0149301458003020004000
B1755083340090N08123076WA0149301459003022004000
F17550817190730222128010813
B1755093340083N08123057WA0149501460003024004000
B1755103340079N08123036WA0149401460003022004000
B1755113340078N08123014WA0149501461003020004000
F1755111719073014222128010813
B1755123340080N08122993WA0149701463003013004000
B1755133340086N08122972WA0150001464003013004000
B1755143340093N08122952WA0150101465003015004000
B1755153340104N08122934WA0150201466003013004000
B1755163340117N08122919WA0150201467003013004000
B1755173340131N08122908WA0150401467003015004000
B1755183340147N08122899WA0150101467003013004000
B1755193340164N08122894WA0150201466003018004000
B1755203340180N08122893WA0150401464003020004000
B1755213340197N08122894WA0150101465003018004000
B1755223340213N08122898WA0150101466003018004000
B1755233340229N08122903WA0150201466003020004000
B1755243340246N08122908WA0150101467003027004000
B1755253340262N08122914WA0150201467003031004000
B1755263340278N08122921WA0150501469003031004000
B1755273340292N08122930WA0150701472003024004000
F17552717190730142128010813
B1755283340305N08122941WA0151201477003020004000
B1755293340315N08122955WA0151501481003015004000
B1755303340322N08122969WA0151901486003015004000
B1755313340326N08122984WA0152101490003018004000
F1755311719073014222128010813
B1755323340327N08122999WA0152201493003013004000
B1755333340326N08123014WA0152301495003015004000
B1755343340322N08123028WA0152401497003015004000
B1755353340317N08123041WA0152701498003011004000
B1755363340308N08123053WA0152701498003015004000
B1755373340297N08123062WA0152901499003013004000
B1755383340285N08123070WA0153101501003013004000
B1755393340271N08123074WA0153301502003015004000
B1755403340257N08123075WA0153601504003015004000
B1755413340242N08123072WA0153701505003020004000
B1755423340227N08123066WA0154001508003018004000
B1755433340213N08123057WA0154301510003018004000
B1755443340201N08123044WA0154301512003018004000
B1755453340190N08123029WA0154501514003006004000
B1755463340182N08123011WA0154601515003009004000
B1755473340176N08122991WA0154801517003004004000
B1755483340174N08122970WA0154901518003004004000
F17554817073014222128010813
B1755493340174N08122948WA0155201519003009004000
B1755503340177N08122926WA0155101520003009004000
B1755513340183N08122906WA0155201521003018004000
B1755523340193N08122887WA0155501522003018004000
B1755533340204N08122871WA0155401523003020004000
B1755543340218N08122858WA0155601524003011004000
B1755553340234N08122849WA0155701525003004004000
B1755563340250N08122843WA0155801525003000004000
F1755561719073014222128010813
B1755573340266N08122841WA0155801526003000004000
B1755583340282N08122842WA0155901527003002004000
B1755593340297N08122846WA0155901528003006004000
B1756003340312N08122853WA0156101528003009004000
B1756013340324N08122863WA0156201528003009004000
B1756023340334N08122876WA0156301529003013004000
B1756033340340N08122890WA0156501531003013004000
B1756043340344N08122906WA0156601533003013004000
B1756053340344N08122921WA0156801535003018004000
B1756063340340N08122936WA0157001537003011004000
B1756073340334N08122949WA0157101539003013004000
B1756083340325N08122961WA0157201541003015004000
B1756093340314N08122970WA0157401542003015004000
B1756103340301N08122977WA0157401543003024004000
B1756113340287N08122980WA0157601544003024004000
B1756123340272N08122981WA0157901545003024004000
B1756133340257N08122978WA0158001547003024004000
B1756143340242N08122972WA0158101550003020004000
B1756153340229N08122962WA0158501552003020004000
B1756163340217N08122948WA0158501555003020004000
B1756173340207N08122933WA0158601556003015004000
B1756183340199N08122914WA0158601558003013004000
B1756193340194N08122894WA0158901558003011004000
B1756203340192N08122873WA0159001559003011004000
F17562017073014222128010813
B1756213340194N08122851WA0159101560003011004000
B1756223340199N08122830WA0158901559003013004000
B1756233340208N08122810WA0159001559003011004000
B1756243340219N08122792WA0159001558003011004000
B1756253340233N08122778WA0158901558003015004000
B1756263340249N08122767WA0159001557003015004000
F1756261719073014222128010813
B1756273340266N08122760WA0159201557003020004000
B1756283340283N08122758WA0159101556003022004000
B1756293340301N08122760WA0159101557003027004000
B1756303340317N08122766WA0159301557003031004000
F17563017190730142128010813
B1756313340332N08122775WA0159401558003031004000
B1756323340344N08122786WA0159701560003031004000
B1756333340353N08122800WA0159701562003024004000
B1756343340358N08122816WA0160001564003022004000
B1756353340361N08122831WA0160101566003020004000
F1756351719073014222128010813
B1756363340360N08122847WA0160101568003020004000
B1756373340355N08122862WA0160201569003027004000
B1756383340347N08122875WA0160201570003024004000
B1756393340336N08122885WA0160501572003022004000
B1756403340323N08122894WA0160601575003024004000
B1756413340309N08122898WA0160901577003024004000
B1756423340294N08122898WA0161001580003024004000
B1756433340279N08122894WA0161401582003027004000
B1756443340265N08122886WA0161601584003020004000
B1756453340252N08122874WA0161601586003015004000
B1756463340241N08122859WA0161501587003011004000
B1756473340233N08122841WA0161601587003006004000
B1756483340227N08122821WA0161601587003006004000
B1756493340224N08122799WA0161801586003002004000
B1756503340225N08122776WA0161701586003006004000
F17565017073014222128010813
B1756513340230N08122754WA0161801586003015004000
B1756523340238N08122733WA0161701586003015004000
B1756533340249N08122715WA0162001586003018004000
B1756543340263N08122700WA0162201587003020004000
B1756553340279N08122688WA0162301589003013004000
B1756563340295N08122681WA0162501591003015004000
F1756561719073014222128010813
B1756573340312N08122678WA0162701592003022004000
B1756583340328N08122678WA0162901592003018004000
B1756593340343N08122682WA0162601592003020004000
B1757003340357N08122689WA0162401592003015004000
B1757013340371N08122696WA0162501593003013004000
B1757023340384N08122703WA0162501593003020004000
B1757033340398N08122711WA0162701595003018004000
B1757043340412N08122718WA0162801597003024004000
B1757053340425N08122725WA0163001600003024004000
F17570517190730142128010813
B1757063340438N08122732WA0163101602003022004000
B1757073340452N08122739WA0163301604003031004000
B1757083340465N08122746WA0163501607003034004000
B1757093340478N08122752WA0163501609003038004000
B1757103340490N08122759WA0163701611003041004000
B1757113340503N08122765WA0163601612003036004000
B1757123340515N08122772WA0163701613003036004000
B1757133340526N08122780WA0163601613003027004000
B1757143340535N08122791WA0163601613003018004000
F1757141719073014222128010813
B1757153340540N08122803WA0163501612003018004000
B1757163340543N08122817WA0163201611003018004000
B1757173340541N08122832WA0163101610003020004000
B1757183340535N08122845WA0163001608003029004000
B1757193340526N08122856WA0163001605003031004000
B1757203340514N08122864WA0163001604003029004000
B1757213340500N08122869WA0162901604003033004000
B1757223340485N08122870WA0163201604003027004000
B1757233340469N08122866WA0163501606003027004000
B1757243340454N08122859WA0163501607003029004000
B1757253340441N08122848WA0163501607003027004000
B1757263340428N08122833WA0163501608003027004000
B1757273340418N08122817WA0163501608003024004000
B1757283340410N08122797WA0163501608003022004000
B1757293340405N08122777WA0163601608003020004000
B1757303340400N08122755WA0163701608003024004000
B1757313340397N08122733WA0163501609003024004000
B1757323340395N08122711WA0163601610003020004000
B1757333340391N08122688WA0163801612003022004000
B1757343340388N08122666WA0164201613003024004000
B1757353340383N08122645WA0164101614003027004000
B1757363340378N08122623WA0164201615003033004000
B1757373340371N08122603WA0164601617003031004000
B1757383340365N08122583WA0164501618003027004000
B1757393340357N08122564WA0164601620003022004000
B1757403340350N08122545WA0164601620003022004000
B1757413340342N08122526WA0164301619003027004000
B1757423340333N08122509WA0163701618003031004000
B1757433340323N08122492WA0163501615003033004000
B1757443340312N08122475WA0163001611003027004000
B1757453340300N08122459WA0162401605003022004000
B1757463340287N08122443WA0161501599003020004000
B1757473340272N08122429WA0160901592003018004000
B1757483340255N08122415WA0160301584003024004000
B1757493340236N08122404WA0159601576003027004000
B1757503340216N08122394WA0158901569003027004000
B1757513340195N08122387WA0158701564003029004000
B1757523340173N08122382WA0158601562003029004000
B1757533340150N08122379WA0158601562003031004000
B1757543340128N08122376WA0158701563003033004000
B1757553340107N08122374WA0158901564003033004000
B1757563340085N08122372WA0158801565003031004000
B1757573340064N08122370WA0159201566003031004000
B1757583340043N08122369WA0159201567003031004000
B1757593340022N08122369WA0159201567003033004000
B1758003340002N08122368WA0159001567003036004000
B1758013339982N08122368WA0159001567003033004000
B1758023339962N08122368WA0158901566003033004000
B1758033339942N08122368WA0158601564003027004000
B1758043339922N08122368WA0158401562003027004000
B1758053339903N08122368WA0158101561003027004000
B1758063339883N08122368WA0158201559003027004000
B1758073339863N08122368WA0157901557003033004000
B1758083339844N08122368WA0157501555003031004000
B1758093339824N08122367WA0157301553003031004000
B1758103339804N08122367WA0157201551003029004000
B1758113339784N08122367WA0156901550003027004000
B1758123339765N08122366WA0156801548003027004000
B1758133339745N08122365WA0156801547003024004000
B1758143339725N08122364WA0156801545003022004000
B1758153339705N08122364WA0156501545003022004000
B1758163339686N08122363WA0156801544003022004000
B1758173339666N08122363WA0156801544003024004000
B1758183339647N08122363WA0156701544003027004000
B1758193339628N08122363WA0156301543003020004000
B1758203339608N08122363WA0156101541003020004000
B1758213339589N08122363WA0155901539003015004000
B1758223339570N08122364WA0155301535003013004000
B1758233339550N08122367WA0154901531003020004000
B1758243339531N08122371WA0154301526003020004000
B1758253339511N08122376WA0153901521003027004000
B1758263339491N08122382WA0153701517003024004000
B1758273339472N08122391WA0153501513003027004000
B1758283339452N08122400WA0153001510003029004000
B1758293339433N08122410WA0152801506003029004000
B1758303339413N08122420WA0152501504003036004000
B1758313339394N08122430WA0152401501003038004000
B1758323339375N08122441WA0152501500003034004000
B1758333339355N08122451WA0152301499003034004000
B1758343339336N08122460WA0152001497003034004000
B1758353339316N08122469WA0151901496003029004000
B1758363339296N08122476WA0151901495003031004000
B1758373339276N08122483WA0151801494003031004000
B1758383339256N08122489WA0151901493003034004000
B1758393339235N08122495WA0151901494003038004000
B1758403339215N08122500WA0151801494003041004000
B1758413339195N08122505WA0151401493003038004000
B1758423339174N08122510WA0150801490003034004000
B1758433339154N08122514WA0150601487003031004000
B1758443339133N08122519WA0150701484003031004000
B1758453339113N08122524WA0151001483003033004000
B1758463339093N08122531WA0150701482003029004000
B1758473339073N08122538WA0150701482003029004000
B1758483339054N08122546WA0150701483003029004000
B1758493339035N08122554WA0150901484003027004000
B1758503339016N08122562WA0150901485003031004000
B1758513338998N08122571WA0151001486003031004000
B1758523338980N08122580WA0151401488003031004000
B1758533338962N08122588WA0151401489003027004000
B1758543338944N08122597WA0151801491003027004000
B1758553338927N08122606WA0152301495003027004000
B1758563338909N08122614WA0152901501003024004000
B1758573338893N08122623WA0153401508003027004000
B1758583338877N08122632WA0154101514003027004000
B1758593338861N08122639WA0154201519003022004000
B1759003338845N08122645WA0154501523003020004000
B1759013338828N08122650WA0154701526003020004000
B1759023338811N08122652WA0155001529003022004000
B1759033338794N08122653WA0155001531003020004000
B1759043338777N08122651WA0155401533003018004000
B1759053338759N08122648WA0155801536003013004000
B1759063338741N08122643WA0156501539003009004000
B1759073338724N08122637WA0156901544003011004000
B1759083338707N08122630WA0157401550003018004000
B1759093338690N08122622WA0157801555003018004000
B1759103338673N08122615WA0158401560003013004000
B1759113338656N08122609WA0158401563003018004000
B1759123338640N08122603WA0158601565003015004000
B1759133338623N08122597WA0159101568003020004000
B1759143338607N08122591WA0159801573003024004000
B1759153338591N08122586WA0160401578003020004000
B1759163338575N08122580WA0160601584003018004000
B1759173338559N08122573WA0161201589003018004000
B1759183338545N08122564WA0161401593003018004000
B1759193338533N08122552WA0161801597003015004000
B1759203338522N08122536WA0162001600003013004000
B1759213338515N08122518WA0162201602003004004000
B1759223338511N08122497WA0162301604003002004000
B1759233338510N08122475WA0162401606003006004000
F17592317073014222128010813
B1759243338514N08122454WA0162601606003006004000
B1759253338523N08122435WA0163001607003015004000
B1759263338535N08122418WA0163101608003018004000
B1759273338550N08122406WA0163301609003009004000
F1759271719073014222128010813
B1759283338566N08122398WA0163501610003013004000
B1759293338582N08122394WA0163601612003013004000
B1759303338598N08122394WA0163801613003018004000
B1759313338613N08122400WA0163801612003024004000
B1759323338626N08122409WA0163901613003022004000
F17593217190730142128010813
B1759333338636N08122421WA0164201615003022004000
B1759343338643N08122436WA0164401616003022004000
B1759353338647N08122452WA0164501617003022004000
B1759363338647N08122468WA0164901619004024004000
F1759361719073014222128010813
B1759373338646N08122485WA0165001621004020004000
B1759383338644N08122502WA0165101623003015004000
F17593817190730142228010813
B1759393338642N08122519WA0165301624003006004000
F1759391719073014222128010813
B1759403338641N08122535WA0165401625003004004000
B1759413338640N08122553WA0165501627003009004000
B1759423338639N08122570WA0165801629003009004000
B1759433338638N08122587WA0166001631003018004000
B1759443338637N08122603WA0166201634003018004000
B1759453338634N08122619WA0166401636003018004000
B1759463338628N08122633WA0166501637003018004000
F17594617190730142228010813
B1759473338619N08122646WA0166501638003015004000
B1759483338609N08122657WA0166301639003018004000
B1759493338596N08122665WA0166201638003022004000
B1759503338582N08122671WA0166101637003027004000
B1759513338567N08122673WA0166201635003022004000
B1759523338551N08122672WA0166301634003018004000
F1759521719073014222128010813
B1759533338535N08122667WA0166501635003013004000
B1759543338520N08122657WA0166701637003009004000
B1759553338507N08122645WA0166801640003009004000
F17595517190730142221280108
B1759563338495N08122630WA0167201642003011004000
B1759573338485N08122613WA0167501645003011004000
F1759571719073014222128010813
B1759583338478N08122594WA0167901649003011004000
B1759593338473N08122574WA0168401652003013004000
F17595917190730142221280108
B1800003338471N08122554WA0168801656003013004000
F1800001719073014222128010813
B1800013338471N08122533WA0169201660003004004000
B1800023338474N08122513WA0169501663003004004000
B1800033338481N08122492WA0169801666003009004000
B1800043338489N08122474WA0170101669003009004000
B1800053338500N08122457WA0170601672003013004000
B1800063338514N08122444WA0170901675003015004000
B1800073338529N08122433WA0171401679003015004000
B1800083338545N08122427WA0171701682003015005000
B1800093338561N08122424WA0172001686003020005000
B1800103338577N08122426WA0172301689003011005000
B1800113338591N08122431WA0172701691003004005000
B1800123338605N08122440WA0173001694003004004000
B1800133338616N08122452WA0173101696003000004000
F18001317190730142128010813
B1800143338624N08122466WA0173301699003006004000
B1800153338630N08122482WA0173601702003013004000
B1800163338632N08122499WA0173601704003015004000
B1800173338631N08122517WA0173601706003020004000
F180017171907301421280813
B1800183338627N08122533WA0173801708003015004000
F18001817190722301421280813
B1800193338619N08122547WA0173901709003011004000
F1800191719072230142128010813
B1800203338609N08122560WA0174101710003009004000
B1800213338596N08122569WA0174301711003009004000
B1800223338582N08122575WA0174301712003013004000
B1800233338566N08122577WA0174401713003011004000
B1800243338550N08122573WA0174401715003011004000
B1800253338535N08122565WA0174601716003009004000
B1800263338522N08122553WA0174801718003004004000
B1800273338510N08122538WA0175201720003013004000
B1800283338502N08122520WA0175601722003011004000
B1800293338498N08122500WA0175801725003015004000
B1800303338497N08122478WA0176201728003018004000
B1800313338498N08122457WA0176501732003013004000
B1800323338499N08122436WA0176901735003015004000
B1800333338501N08122415WA0177501739003013004000
B1800343338503N08122394WA0177701744003006004000
B1800353338505N08122373WA0178101747003006004000
B1800363338510N08122353WA0178301750003004004000
B1800373338516N08122333WA0178501754003002004000
B1800383338526N08122316WA0178601756003004004000
B1800393338538N08122302WA0178901758003004004000
B1800403338552N08122291WA0178801758003004004000
B1800413338567N08122284WA0178901758003004004000
B1800423338583N08122282WA0178701757003004004000
B1800433338599N08122283WA0178801755003002004000
B1800443338614N08122288WA0178701754003006004000
B1800453338627N08122298WA0178701754003011004000
B1800463338639N08122310WA0179101754003020004000
B1800473338647N08122324WA0179101756003020004000
B1800483338651N08122340WA0179601758003018004000
B1800493338652N08122356WA0179401760003018004000
B1800503338649N08122371WA0179701762004015004000
B1800513338643N08122386WA0179701763004018004000
B1800523338634N08122399WA0180001763004018004000
B1800533338622N08122410WA0180101764004015004000
B1800543338608N08122420WA0180001768003018004000
B1800553338593N08122426WA0180201770003020004000
B1800563338578N08122432WA0180501772003018004000
B1800573338563N08122438WA0181001776003018004000
B1800583338548N08122444WA0181401780003015004000
B1800593338532N08122450WA0181901785003015004000
B1801003338517N08122455WA0182201790003013004000
B1801013338503N08122460WA0182701794003009004000
B1801023338488N08122463WA0183101799003009004000
B1801033338473N08122463WA0183401803003006004000
B1801043338459N08122460WA0183601806003006004000
B1801053338444N08122452WA0183801808003013004000
B1801063338431N08122441WA0184101811003006004000
F18010617190722301421280108
B1801073338421N08122426WA0184401813003009004000
B1801083338412N08122408WA0184601816003013004000
B1801093338408N08122388WA0184901818003009004000
B1801103338407N08122367WA0185001820003015004000
F1801101719072230142128010813
B1801113338409N08122347WA0185001821003013004000
B1801123338414N08122326WA0184901820003018004000
B1801133338423N08122308WA0184901820003015004000
B1801143338434N08122292WA0184901819003011004000
B1801153338448N08122279WA0185201820003015004000
B1801163338463N08122270WA0185201822003015004000
B1801173338478N08122266WA0185301823003024004000
B1801183338494N08122266WA0185401824003029004000
B1801193338508N08122270WA0185501824003027004000
B1801203338522N08122278WA0185701824003018004000
B1801213338533N08122290WA0185701825003015004000
B1801223338541N08122304WA0185901826003018004000
B1801233338546N08122320WA0186101827003015004000
B1801243338546N08122336WA0186401829003020004000
B1801253338543N08122352WA0186901833003013004000
B1801263338537N08122367WA0187201837004015004000
B1801273338529N08122380WA0187501840004022004000
B1801283338517N08122390WA0187601844004022004000
B1801293338504N08122397WA0188001848004024004000
B1801303338490N08122400WA0188201850003020004000
B1801313338476N08122399WA0188301852003018004000
B1801323338461N08122395WA0188601855003018004000
B1801333338447N08122386WA0188901857003020004000
B1801343338434N08122375WA0189001859003020004000
B1801353338422N08122359WA0189301861003020004000
B1801363338412N08122342WA0189501864003015004000
B1801373338406N08122322WA0189701866003015004000
B1801383338403N08122301WA0189801868003013004000
B1801393338403N08122280WA0189701869003013004000
B1801403338406N08122259WA0189601867003018004000
B1801413338412N08122240WA0189501866003013004000
B1801423338420N08122222WA0189501865003015004000
B1801433338431N08122207WA0189501864003006004000
B1801443338443N08122195WA0189601864003006004000
B1801453338457N08122186WA0189601864003011004000
B1801463338471N08122180WA0189501864003004004000
B1801473338486N08122176WA0189601864003009004000
B1801483338500N08122175WA0189601864003006004000
B1801493338514N08122177WA0189701864003004004000
B1801503338528N08122182WA0189601865003011004000
B1801513338541N08122189WA0189701865003009004000
B1801523338553N08122199WA0189801866003006004000
B1801533338563N08122210WA0189801867003009004000
B1801543338572N08122224WA0189901868003002004000
B1801553338580N08122238WA0190201870003004004000
B1801563338588N08122252WA0190501873003006004000
B1801573338595N08122266WA0190701877003006004000
B1801583338603N08122279WA0191201881003013004000
B1801593338611N08122293WA0191601885003009004000
B1802003338618N08122306WA0192001890003013004000
B1802013338626N08122319WA0192101893003011004000
B1802023338633N08122332WA0192001895003006004000
B1802033338639N08122345WA0191801895003004004000
B1802043338643N08122359WA0191501893003000004000
B1802053338645N08122375WA0191301891003000004000
B1802063338644N08122391WA0190901889003004004000
B1802073338640N08122406WA0190801886003013004000
B1802083338632N08122419WA0190501883003015004000
B1802093338622N08122430WA0190301881003018004000
B1802103338609N08122437WA0190101879003018004000
B1802113338596N08122441WA0189901876003018004000
B1802123338581N08122441WA0189701873003015004000
B1802133338567N08122437WA0189501871003009004000
B1802143338553N08122430WA0189201869003002004000
B1802153338539N08122421WA0189101866003002004000
B1802163338527N08122409WA0188801864003000004000
B1802173338516N08122394WA0188801863003002004000
B1802183338505N08122378WA0189101863003006004000
B1802193338494N08122361WA0189201864003004004000
B1802203338482N08122345WA0189401866003011004000
B1802213338471N08122328WA0189801870003011004000
B1802223338459N08122313WA0190201874003006004000
B1802233338448N08122297WA0190601879003009004000
B1802243338437N08122281WA0191001883003009004000
B1802253338426N08122265WA0191301888003009004000
B1802263338416N08122250WA0192001893003015004000
B1802273338405N08122235WA0192301898003009004000
B1802283338395N08122221WA0192601903003006004000
B1802293338385N08122207WA0193001907003002004000
B1802303338374N08122193WA0193401910003000004000
B1802313338364N08122180WA0193701914003004004000
B1802323338354N08122167WA0193901917003000004000
B1802333338344N08122154WA0194101920003002004000
B1802343338334N08122140WA0194301922003004004000
B1802353338325N08122127WA0194301925003006004000
B1802363338316N08122114WA0194301926003006004000
B1802373338307N08122101WA0194001926003011004000
B1802383338298N08122088WA0193201922003011004000
B1802393338289N08122074WA0192501916003011004000
B1802403338279N08122060WA0191701908003011004000
B1802413338268N08122044WA0191101901003004004000
F18024117190722301421010813
B1802423338257N08122028WA0190301893003000004000
B1802433338245N08122011WA0189601885003000004000
B1802443338232N08121994WA0189301878003000004000
B1802453338218N08121976WA0188801872003000004000
F1802451719072230142128010813
B1802463338205N08121957WA0188301867003004004000
B1802473338191N08121938WA0187901863003006004000
B1802483338176N08121918WA0188001861003011004000
B1802493338162N08121899WA0187901859003015004000
B1802503338148N08121879WA0187701858003015004000
B1802513338133N08121860WA0187501858003013004000
F18025117190722301421010813
B1802523338119N08121840WA0187301857003013004000
B1802533338104N08121820WA0187001855003015004000
B1802543338090N08121800WA0187201853003020004000
F1802541719072230142128010813
B1802553338075N08121780WA0187101852003027004000
F18025517190722301421010813
B1802563338060N08121761WA0187001852003027004000
B1802573338045N08121742WA0187101853003024004000
F1802571719072230142128010813
B1802583338030N08121723WA0186901853003022004000
B1802593338015N08121706WA0187101853003020004000
B1803003337999N08121688WA0186901853003020004000
B1803013337984N08121671WA0187001853003020004000
B1803023337969N08121654WA0187501854003020004000
B1803033337954N08121637WA0187401856003022004000
B1803043337940N08121621WA0187801859003024004000
B1803053337925N08121606WA0188301863003027004000
B1803063337912N08121590WA0188401866003029004000
B1803073337898N08121576WA0188701868003022004000
B1803083337884N08121562WA0188301869003015004000
B1803093337871N08121547WA0188001867003009004000
B1803103337856N08121533WA0187801864003006004000
B1803113337842N08121518WA0187501861003011004000
B1803123337827N08121502WA0187001858003015004000
B1803133337812N08121486WA0186801855003018004000
B1803143337796N08121469WA0186501852003013004000
B1803153337781N08121451WA0186201848003013004000
B1803163337765N08121432WA0185901845003018004000
B1803173337749N08121413WA0185301841003018004000
B1803183337734N08121391WA0184901836003022004000
B1803193337720N08121368WA0184701832003018004000
B1803203337706N08121344WA0184501829003015004000
B1803213337692N08121319WA0184501827003018004000
B1803223337679N08121294WA0184501826003020004000
B1803233337666N08121269WA0184501825003024004000
B1803243337654N08121243WA0184401825003027004000
B1803253337642N08121218WA0184401825003024004000
B1803263337630N08121193WA0184301825003022004000
B1803273337618N08121167WA0184701826003027004000
B1803283337606N08121143WA0185101827003027004000
B1803293337595N08121118WA0184801829003031004000
B1803303337584N08121094WA0185001830003036004000
B1803313337573N08121070WA0184801830003036004000
B1803323337563N08121046WA0184501829003033004000
B1803333337552N08121023WA0184401828003031004000
B1803343337542N08120999WA0184001826003029004000
B1803353337532N08120975WA0184201824003024004000
B1803363337522N08120952WA0183801822003022004000
B1803373337513N08120928WA0183701821003024004000
B1803383337503N08120904WA0183601819003024004000
B1803393337494N08120879WA0183201817003024004000
B1803403337484N08120855WA0183001815003022004000
B1803413337475N08120831WA0183001812003018004000
B1803423337466N08120807WA0182601810003013004000
B1803433337456N08120783WA0182401808003011004000
B1803443337447N08120759WA0182101806003018004000
B1803453337438N08120734WA0181801803003013004000
B1803463337429N08120710WA0181601800003015004000
B1803473337420N08120685WA0181401798003013004000
B1803483337411N08120660WA0181301795003011004000
B1803493337402N08120635WA0180901793003015004000
B1803503337393N08120610WA0180701791003020004000
B1803513337383N08120585WA0180601789003024004000
B1803523337374N08120560WA0180701788003022004000
B1803533337364N08120535WA0180701787003022004000
B1803543337355N08120510WA0180301786003022004000
B1803553337346N08120485WA0180001784003022004000
B1803563337336N08120460WA0179901782003027004000
B1803573337327N08120435WA0179801780003029004000
B1803583337318N08120411WA0179901779003022004000
B1803593337309N08120386WA0179601778003024004000
B1804003337300N08120361WA0179501777003022004000
B1804013337291N08120336WA0179401776003022004000
B1804023337282N08120312WA0179201775003029004000
B1804033337273N08120287WA0179101773003031004000
B1804043337264N08120263WA0179101771003031004000
B1804053337255N08120238WA0178701769003024004000
B1804063337246N08120214WA0178501768003020004000
B1804073337237N08120190WA0178401766003018004000
B1804083337227N08120165WA0178301764003020004000
B1804093337217N08120141WA0178301763003024004000
B1804103337207N08120117WA0178301762003024004000
B1804113337197N08120093WA0178201761003024004000
B1804123337187N08120069WA0178401761003018004000
B1804133337176N08120045WA0178701763003015004000
B1804143337166N08120022WA0178801766003020004000
B1804153337156N08120000WA0178801768003022004000
B1804163337146N08119978WA0178801769003027004000
B1804173337136N08119957WA0178501768003031004000
B1804183337126N08119935WA0178201766003022004000
B1804193337116N08119914WA0177901763003018004000
B1804203337106N08119892WA0177301759003015004000
B1804213337096N08119871WA0177101755003013004000
B1804223337085N08119848WA0176701750003022004000
B1804233337075N08119826WA0176301745003018004000
B1804243337064N08119803WA0176101742003022004000
B1804253337053N08119781WA0175901739003018004000
B1804263337042N08119758WA0175801737003018004000
B1804273337030N08119735WA0175401735003027004000
B1804283337019N08119713WA0175501734003022004000
B1804293337007N08119691WA0175501733003024004000
B1804303336996N08119669WA0175401732003022004000
B1804313336984N08119647WA0175301732003020004000
B1804323336973N08119626WA0175201732003024004000
B1804333336962N08119605WA0175101731003027004000
B1804343336951N08119584WA0175101731003024004000
B1804353336940N08119563WA0175401731003022004000
B1804363336928N08119542WA0175101731003020004000
B1804373336917N08119522WA0174701730003024004000
B1804383336906N08119501WA0174401728003022004000
B1804393336895N08119480WA0174001724003024004000
B1804403336884N08119459WA0173401720003022004000
B1804413336872N08119438WA0173101715003018004000
B1804423336860N08119416WA0172501709003022004000
B1804433336848N08119395WA0171901704003018004000
B1804443336835N08119373WA0171501699003020004000
B1804453336822N08119350WA0171001694003024004000
B1804463336809N08119328WA0171001691003027004000
B1804473336795N08119306WA0170901689003033004000
B1804483336781N08119284WA0170601688003033004000
B1804493336767N08119262WA0170501686003031004000
B1804503336752N08119241WA0170501685003031004000
B1804513336737N08119219WA0170001682003031004000
B1804523336722N08119197WA0169801679003031004000
B1804533336707N08119176WA0169201675003027004000
B1804543336691N08119154WA0168801671003027004000
B1804553336676N08119132WA0168701668003029004000
B1804563336660N08119111WA0168501665003031004000
B1804573336644N08119089WA0168901665003031004000
B1804583336627N08119068WA0169201666003031004000
B1804593336611N08119048WA0169101669003031004000
B1805003336595N08119027WA0169301671003034004000
B1805013336579N08119008WA0169501673003041004000
B1805023336562N08118989WA0169301674003041004000
F18050217190722301421010813
B1805033336546N08118971WA0169301674003038004000
B1805043336529N08118954WA0169201674003033004000
F1805041719072230142128010813
B1805053336512N08118936WA0168901673003031004000
B1805063336495N08118919WA0168601671003029004000
F18050617190722301421010813
B1805073336478N08118902WA0168301667003029004000
F1805071719072230142128010813
B1805083336461N08118885WA0168201664003031004000
F18050817190722301421010813
B1805093336443N08118869WA0168101661003033004000
F1805091719072230142128010813
B1805103336425N08118852WA0168001660003038004000
B1805113336407N08118837WA0167901660003038004000
B1805123336389N08118821WA0167501660003038004000
B1805133336371N08118806WA0167401658003031004000
B1805143336353N08118791WA0167201656003027004000
B1805153336334N08118776WA0167201654003024004000
B1805163336316N08118760WA0167201653003018004000
B1805173336298N08118745WA0167101652003024004000
B1805183336280N08118730WA0166901652003020004000
B1805193336262N08118715WA0166901651003022004000
B1805203336244N08118700WA0166901651003027004000
B1805213336225N08118685WA0166801649003027004000
B1805223336206N08118671WA0166801649003033004000
B1805233336187N08118657WA0167301649003033004000
B1805243336168N08118643WA0167801652003038004000
F18052417190722301421010813
B1805253336149N08118630WA0168401658003041004000
B1805263336130N08118617WA0168901664003043004000
B1805273336113N08118604WA0169401671003039004000
B1805283336095N08118593WA0170201677003032004000
F1805281719072230142128010813
B1805293336078N08118582WA0170801685003027004000
F18052917190722302128010813
B1805303336062N08118572WA0171501692003024004000
B1805313336046N08118563WA0172201698003027004000
B1805323336031N08118556WA0172301704003029004000
B1805333336016N08118549WA0172601709003029004000
B1805343336001N08118545WA0172901713003027004000
F1805341719072230142128010813
B1805353335986N08118543WA0172801715003027004000
B1805363335972N08118546WA0172901715003024004000
B1805373335959N08118552WA0172901715003024004000
B1805383335948N08118563WA0172901714003024004000
B1805393335940N08118578WA0172701712003022004000
B1805403335935N08118595WA0172801711003022004000
B1805413335933N08118613WA0173001712003022004000
B1805423335936N08118631WA0173201713003018004000
B1805433335944N08118647WA0173401715003015004000
B1805443335956N08118659WA0173701717003013004000
B1805453335971N08118668WA0173801718003015004000
B1805463335987N08118671WA0173701719003018004000
B1805473336005N08118669WA0173801718003015004000
B1805483336022N08118663WA0173701718003015004000
B1805493336038N08118652WA0173701717003009004000
B1805503336053N08118636WA0173701716004006005000
B1805513336065N08118614WA0173301714003011004000
B1805523336073N08118590WA0173101712004013005000
B1805533336078N08118564WA0172901709003013005000
F18055317190722302128010813
B1805543336077N08118537WA0172601704003013005000
B1805553336073N08118510WA0172301701003018004000
F1805551719072230142128010813
B1805563336064N08118485WA0172301698003022004000
B1805573336051N08118462WA0172301697003029004000
B1805583336034N08118444WA0172601696003036005000
B1805593336015N08118429WA0172801699003036004000
B1806003335995N08118421WA0173301700003033005000
B1806013335975N08118417WA0173601702004031005000
B1806023335956N08118417WA0173601705004029005000
B1806033335937N08118421WA0173901709003022005000
B1806043335920N08118429WA0174301712003018005000
F18060417072230142128010813
B1806053335906N08118440WA0174501715003020005000
B1806063335894N08118454WA0174601716003022005000
F1806061719072230142128010813
B1806073335886N08118470WA0174801717003027004000
B1806083335881N08118488WA0174901719003031004000
B1806093335881N08118506WA0174901721003031004000
B1806103335886N08118523WA0175301723003031004000
B1806113335894N08118539WA0175401724003033004000
B1806123335906N08118552WA0175201724003029004000
B1806133335922N08118560WA0175401723003029004000
B1806143335940N08118564WA0175101722003029004000
B1806153335960N08118563WA0174901721003029004000
B1806163335980N08118556WA0174801718003036004000
F18061617190722301421280113
B1806173335999N08118545WA0174601715003036004000
B1806183336017N08118528WA0174601712003036004000
F1806181719072230142128010813
B1806193336032N08118506WA0174701710003033004000
B1806203336044N08118481WA0175001710003036004000
B1806213336050N08118454WA0175501712003034004000
B1806223336053N08118426WA0175901716003031004000
B1806233336051N08118398WA0176501720003036004000
B1806243336045N08118372WA0176901724003034004000
B1806253336037N08118348WA0177001728003034004000
B1806263336026N08118327WA0177201732003029004000
B1806273336012N08118310WA0177701736003022004000
B1806283335997N08118298WA0177901739003020004000
B1806293335980N08118292WA0178101742003020004000
B1806303335964N08118290WA0178101745003022004000
B1806313335949N08118294WA0178201746003027004000
B1806323335936N08118302WA0178101745003029004000
B1806333335925N08118313WA0178001744003029004000
B1806343335915N08118326WA0178001742003029004000
B1806353335904N08118340WA0177801742003029004000
B1806363335893N08118354WA0177701743003031004000
B1806373335881N08118365WA0178001744003034004000
B1806383335866N08118374WA0178101745003038004000
B1806393335851N08118380WA0177901745003038004000
B1806403335834N08118384WA0178001745003036004000
B1806413335817N08118384WA0177701743003036004000
B1806423335799N08118381WA0177201739003033004000
B1806433335780N08118374WA0177001737003033004000
B1806443335762N08118365WA0177201737003027004000
B1806453335744N08118354WA0177201737003027004000
B1806463335727N08118341WA0177001736003024004000
B1806473335710N08118328WA0176901736003020004000
B1806483335694N08118313WA0176801734003020004000
F18064817190722302128010813
B1806493335677N08118298WA0176001730003018004000
B1806503335660N08118282WA0175601727003020004000
B1806513335644N08118266WA0175201724003022004000
B1806523335627N08118249WA0174901721003027004000
B1806533335612N08118231WA0174601718003029004000
B1806543335596N08118213WA0174301715003031004000
B1806553335581N08118195WA0174101712003027004000
B1806563335566N08118176WA0173701710003027004000
B1806573335551N08118157WA0173901708003018004000
B1806583335535N08118137WA0173701707003013004000
B1806593335520N08118118WA0173501707003018004000
F1806591719072230142128010813
B1807003335505N08118098WA0173601706003013004000
B1807013335490N08118079WA0173301706003015005000
F180701171907223014512128010813
B1807023335475N08118060WA0173401705003018005000
B1807033335461N08118041WA0173401705003015005000
B1807043335446N08118022WA0173101706003020005000
B1807053335432N08118003WA0173001705003024005000
B1807063335418N08117984WA0172901704003024005000
B1807073335404N08117965WA0172901702003022005000
B1807083335390N08117945WA0172601700003018005000
B1807093335377N08117924WA0172401698003013005000
B1807103335363N08117903WA0172301697003015005000
B1807113335349N08117882WA0172201696003015005000
B1807123335336N08117861WA0172201696003022005000
B1807133335322N08117840WA0171901695003022005000
B1807143335308N08117819WA0171501693003022005000
