ANKL0ZH
HFDTE190921
HFFXA050
HFPLTPILOT:Nelson Howe
HFGTYGLIDERTYPE:Discus 2b
HFGIDGLIDERID:1X       .
HFDTM100GPSDATUM:
HFRFWFIRMWAREVERSION:40 2011-6-17
HFRHWHARDWAREVERSION: NKL ClearNav V1.0
HFFTYFRTYPE:Nielsen Kellerman, ClearNav-IGC
HFGPS:UBLOX,LEA-4H-0-000-1,16Ch,18000 
HFPRSPRESSALTSENSOR:Intersema,MS5534B,20000 
I033638FXA3941ENL4247REX
C190921171846000000000104
C0000000N00000000WTAKEOFF     
C3731832N08002266WAlt Start A
C3721317N08032200WArea Mountai
C3743867N07948667WArea Big Hil
C3725482N08022683WArea Maggie
C3739867N07948582WArea Eagle R
C3728766N08006133WFinish Cylin
C0000000N00000000WLANDING     
B1751193728584N08006118WA0034700407001000002008
B1751203728584N08006118WA0034700407001000002008
B1751213728584N08006118WA0034800407001000002008
B1751223728584N08006118WA0034800407001000002008
B1751233728584N08006118WA0034800407001000002008
B1751243728584N08006118WA0034700408001000002008
B1751253728584N08006118WA0034800408001000002008
B1751263728584N08006118WA0034700408001000002008
B1751273728584N08006118WA0034800408001000002008
B1751283728584N08006118WA0034700408001000002008
B1751293728584N08006118WA0034700408001000002008
B1751303728584N08006118WA0034800407001000002008
B1751313728584N08006118WA0034800407001000002008
B1751323728584N08006119WA0034700407001000002008
B1751333728584N08006119WA0034700407001000002008
B1751343728584N08006119WA0034700408001000002008
B1751353728584N08006119WA0034800408001000002008
B1751363728584N08006119WA0034800408001000002008
B1751373728584N08006119WA0034700408001000002008
B1751383728584N08006119WA0034800408001000002008
B1751393728584N08006119WA0034800408001000002008
B1751403728584N08006119WA0034800408001000002008
B1751413728584N08006119WA0034800408001000002008
B1751423728584N08006118WA0034700408001000002008
B1751433728584N08006118WA0034800408001000002008
B1751443728584N08006118WA0034800408001000002008
B1751453728584N08006118WA0034700408001000002008
B1751463728584N08006118WA0034700408001000002008
B1751473728584N08006118WA0034800408001000002008
B1751483728584N08006118WA0034700408001000002008
B1751493728584N08006118WA0034700408001000002008
B1751503728584N08006118WA0034800408001000002008
B1751513728584N08006118WA0034700408001000002008
B1751523728584N08006118WA0034800408001000002008
B1751533728584N08006118WA0034800407001000002008
B1751543728584N08006118WA0034800407001002002008
B1751553728584N08006118WA0034800407001011002008
B1751563728584N08006118WA0034800407001018002008
B1751573728584N08006118WA0034700407001022002008
B1751583728584N08006118WA0034700407001024002008
B1751593728584N08006118WA0034800407001020002008
B1752003728584N08006118WA0034800407001015002008
B1752013728584N08006118WA0034700407001011002008
B1752023728584N08006118WA0034700407001011002008
B1752033728584N08006118WA0034700407001018002008
B1752043728584N08006118WA0034800407001025002008
B1752053728584N08006118WA0034800407001029002008
B1752063728584N08006118WA0034700407001032002008
B1752073728584N08006118WA0034800407001025002008
B1752083728584N08006118WA0034700407001015002008
B1752093728584N08006118WA0034700407001006002008
B1752103728584N08006118WA0034700407001004002008
B1752113728584N08006118WA0034800407001002002008
B1752123728584N08006118WA0034800407001002002008
B1752133728584N08006118WA0034700407001000002008
B1752143728584N08006118WA0034700407001000002008
B1752153728584N08006118WA0034800407001000002008
B1752163728584N08006118WA0034700407001000002008
B1752173728584N08006118WA0034700407001000002008
B1752183728584N08006118WA0034700407001000002008
B1752193728584N08006118WA0034800407001000002008
B1752203728584N08006118WA0034800407001000002008
B1752213728584N08006118WA0034700407001000002008
B1752223728584N08006118WA0034800407001000002008
B1752233728584N08006118WA0034800407001000002008
B1752243728584N08006118WA0034700407001000002008
B1752253728584N08006118WA0034800407001000002008
B1752263728584N08006118WA0034800407001000002008
B1752273728584N08006118WA0034700407001000002008
B1752283728584N08006118WA0034800407001000002008
B1752293728584N08006118WA0034800407001000002008
B1752303728584N08006118WA0034800407001000002008
B1752313728584N08006118WA0034800407001000002008
B1752323728584N08006118WA0034800407001000002008
B1752333728584N08006118WA0034800407001000002008
B1752343728584N08006118WA0034800407001000002008
B1752353728584N08006118WA0034700407001000002008
B1752363728584N08006118WA0034800407001000002008
B1752373728584N08006118WA0034800407001000002008
B1752383728584N08006118WA0034800407001000002008
B1752393728584N08006118WA0034800407001000002008
B1752403728584N08006118WA0034700407001000002008
B1752413728584N08006118WA0034800407001000002008
B1752423728584N08006118WA0034800408001000002008
B1752433728584N08006118WA0034800408001000002008
B1752443728584N08006118WA0034800408001002002008
B1752453728584N08006118WA0034800408001015002008
B1752463728584N08006118WA0034700408001025002008
B1752473728584N08006118WA0034800408001015002008
B1752483728584N08006118WA0034800408001006002008
B1752493728584N08006118WA0034800408001002002008
B1752503728584N08006118WA0034800408001011002008
B1752513728584N08006118WA0034800408001018002008
B1752523728584N08006118WA0034800408001029002008
B1752533728584N08006118WA0034800408001039002008
B1752543728584N08006118WA0034700408001034002008
B1752553728584N08006118WA0034800408001032002008
B1752563728584N08006118WA0034700408001032002008
B1752573728584N08006119WA0034800408001027002008
B1752583728584N08006119WA0034800408001027002008
B1752593728584N08006119WA0034800408001036002008
B1753003728584N08006118WA0034800408001036002008
B1753013728584N08006118WA0034800407001034002008
B1753023728584N08006118WA0034800407001029002008
B1753033728584N08006118WA0034800407001016002008
B1753043728584N08006118WA0034800407001011002008
B1753053728584N08006118WA0034800407001009002008
B1753063728584N08006118WA0034800407001013002008
B1753073728584N08006118WA0034700407001013002008
B1753083728584N08006118WA0034700407001009002008
B1753093728584N08006118WA0034800407001004002008
B1753103728584N08006118WA0034800407001000002008
B1753113728584N08006118WA0034800407001000002008
B1753123728584N08006118WA0034800407001000002008
B1753133728584N08006118WA0034700407001000002008
B1753143728584N08006118WA0034800407001000002008
B1753153728584N08006118WA0034800408001000002008
B1753163728584N08006118WA0034800408001000002008
B1753173728586N08006118WA0034900408001009002008
B1753183728588N08006119WA0034900408001025002008
B1753193728592N08006119WA0034800408001041002000
F175319290527101513444618512324
B1753203728596N08006119WA0034900409001062002000
B1753213728602N08006120WA0034800409001081002000
B1753223728608N08006120WA0034800409001102002000
B1753233728615N08006120WA0034800409001130002000
B1753243728624N08006121WA0034700409001156002000
B1753253728633N08006121WA0034700409001184002000
B1753263728643N08006122WA0034700409001202002000
B1753273728654N08006122WA0034800408001211002000
B1753283728666N08006123WA0034600408001209002000
B1753293728678N08006123WA0034600408001190002000
B1753303728692N08006124WA0034600408001167002000
B1753313728706N08006124WA0034600408001137002000
B1753323728721N08006124WA0034600408001111002000
B1753333728737N08006125WA0034800408001090002000
B1753343728753N08006125WA0034700408001074002000
B1753353728770N08006125WA0034800408001062002000
B1753363728788N08006125WA0035000408001050002000
B1753373728805N08006124WA0035100409001043002000
B1753383728823N08006124WA0035400410001039002000
B1753393728842N08006125WA0035600413001037002000
B1753403728860N08006126WA0035700415001034002000
B1753413728879N08006127WA0036000418001032002000
B1753423728898N08006128WA0036200420001029002000
B1753433728917N08006129WA0036400422001024002000
F1753432905271015134418512324
B1753443728936N08006129WA0036700425001022002000
B1753453728956N08006128WA0036900427001022002000
B1753463728976N08006127WA0037000430001020002000
B1753473728996N08006126WA0037300432001022002000
B1753483729016N08006125WA0037600435001024002000
B1753493729036N08006123WA0037900438001024002000
B1753503729057N08006120WA0038300441001027002000
B1753513729077N08006117WA0038400443001027002000
B1753523729098N08006114WA0038500445001027002000
B1753533729119N08006110WA0038700447001024002000
B1753543729139N08006106WA0039000449001024002000
B1753553729160N08006100WA0039100451001022002000
B1753563729180N08006095WA0039600454001022002000
B1753573729201N08006089WA0039900457001024002000
B1753583729221N08006083WA0040200460001024002000
B1753593729242N08006077WA0040500463001027002000
B1754003729263N08006072WA0040900466001029002000
B1754013729284N08006067WA0040800468001032002000
B1754023729305N08006064WA0041300471001032002000
F175402290527101513444618512324
B1754033729327N08006062WA0041700475001034002000
B1754043729349N08006060WA0042000479001034002000
B1754053729370N08006059WA0042200482001034002000
B1754063729392N08006058WA0042200484001037002000
B1754073729414N08006059WA0042600486001037002000
B1754083729436N08006060WA0042700488001037002000
B1754093729457N08006062WA0043100490001037002000
B1754103729479N08006065WA0043600494001037002000
B1754113729500N08006067WA0044000499001034002000
B1754123729521N08006069WA0044400504001034002000
B1754133729542N08006071WA0044900509001034002000
B1754143729563N08006072WA0045300513001032002000
B1754153729584N08006073WA0045600517001034002000
B1754163729605N08006074WA0046100521001032002000
B1754173729626N08006075WA0046400525001032002000
B1754183729647N08006076WA0046800529001034002000
B1754193729668N08006078WA0047100533001034002000
B1754203729689N08006079WA0047200536001037002000
B1754213729710N08006081WA0047700538001037002000
B1754223729731N08006082WA0048000541001039002000
B1754233729752N08006081WA0048000545001039002000
B1754243729773N08006078WA0048600548001041002000
B1754253729793N08006074WA0049100552001043002000
B1754263729814N08006067WA0049500557001041002000
B1754273729834N08006059WA0049700561001041002000
B1754283729853N08006050WA0049900563001039002000
B1754293729872N08006039WA0050200565001037002000
B1754303729891N08006027WA0050300568002039002000
B1754313729908N08006013WA0051000572002041002000
B1754323729925N08005996WA0051000575002043002000
B1754333729940N08005978WA0051200578002043002000
B1754343729954N08005959WA0051500580002041003000
B1754353729967N08005937WA0051600582002041003000
B1754363729978N08005914WA0051800583002039003000
B1754373729988N08005891WA0051900585002039003000
B1754383729997N08005866WA0052200586002039003000
B1754393730004N08005840WA0052400588002039003000
B1754403730010N08005814WA0052600590002039003000
B1754413730014N08005788WA0053000593002039003000
B1754423730017N08005761WA0053200597002036003000
B1754433730019N08005734WA0053600599002034003000
B1754443730019N08005706WA0053700602002036003000
B1754453730017N08005679WA0054300604002039003000
B1754463730013N08005651WA0054200607002041003000
B1754473730008N08005624WA0054600610002043003000
B1754483730001N08005598WA0055100613002041003000
B1754493729993N08005573WA0055100617002039003000
B1754503729984N08005548WA0055700620002039002000
B1754513729973N08005524WA0056100624002037002000
B1754523729962N08005501WA0056600629002037002000
B1754533729949N08005479WA0056900634002037002000
B1754543729935N08005458WA0057500638002037003000
B1754553729920N08005439WA0057500643002037003000
B1754563729904N08005421WA0057900646002037003000
B1754573729887N08005404WA0058000648002037002000
B1754583729869N08005389WA0058200650002037002000
B1754593729850N08005375WA0058600653002037002000
B1755003729830N08005362WA0058700655002037002000
B1755013729810N08005351WA0059000658002037002000
B1755023729789N08005342WA0059300660002037002000
B1755033729768N08005335WA0059500662002037002000
B1755043729746N08005330WA0059700665002034002000
B1755053729724N08005326WA0059900668002034002000
B1755063729701N08005324WA0060100670002034002000
B1755073729679N08005324WA0060300672002032002000
B1755083729656N08005326WA0060600674002034002000
B1755093729634N08005329WA0060700676002034002000
B1755103729611N08005333WA0061000678002034002000
B1755113729589N08005338WA0061400681002037002000
B1755123729567N08005344WA0061800685002037002000
B1755133729545N08005351WA0062400690002037002000
B1755143729524N08005359WA0063000696002037002000
B1755153729504N08005368WA0063700703002037002000
B1755163729483N08005376WA0064100709001037002000
B1755173729464N08005385WA0064700716001037002000
B1755183729444N08005393WA0065200722001034002000
B1755193729425N08005401WA0065700727001032002000
B1755203729406N08005410WA0066200732001029002000
B1755213729386N08005417WA0066500737001029002000
B1755223729367N08005426WA0066800742001032002000
B1755233729348N08005434WA0067200745001032002000
B1755243729330N08005443WA0067900749001032002000
B1755253729312N08005453WA0067900754001029002000
B1755263729293N08005463WA0068200757001029002000
B1755273729275N08005474WA0068400759001032002000
B1755283729256N08005484WA0068500761001034002000
B1755293729238N08005495WA0069000763001039002000
B1755303729219N08005507WA0068700765001041002000
B1755313729201N08005521WA0069000767001041002000
B1755323729184N08005536WA0069100768001041002000
B1755333729167N08005553WA0069200769001039002000
B1755343729151N08005572WA0069300770001037002000
B1755353729135N08005591WA0069500771001039002000
B1755363729121N08005612WA0069700773001043002000
B1755373729108N08005634WA0070000775001048002000
B1755383729096N08005657WA0070400776002052002000
B1755393729084N08005681WA0070700779001055002000
B1755403729073N08005705WA0070900783001055002000
B1755413729062N08005728WA0071200787001052002000
B1755423729051N08005751WA0071400790001050002000
B1755433729041N08005776WA0071500794001050002000
B1755443729033N08005801WA0071800796001050002000
B1755453729025N08005827WA0072100798001050002000
B1755463729019N08005853WA0072500800001052002000
B1755473729015N08005880WA0073000804002052002000
B1755483729011N08005908WA0074000809001050002000
B1755493729006N08005935WA0073600814001052002000
B1755503729001N08005963WA0074000817001052002000
B1755513728995N08005991WA0074200820001050002000
B1755523728990N08006019WA0074600823001050002000
B1755533728985N08006048WA0074800826001048002000
B1755543728982N08006077WA0075000829001046002000
B1755553728981N08006107WA0075400832001043002000
B1755563728981N08006136WA0075800835001041002000
B1755573728982N08006165WA0076200839001039002000
B1755583728983N08006194WA0076700843002037002000
B1755593728986N08006223WA0077200848001037002000
B1756003728989N08006251WA0077600854001037002000
B1756013728992N08006279WA0077900858001037002000
B1756023728996N08006307WA0078300862001037002000
B1756033729000N08006335WA0078600865001037002000
B1756043729004N08006363WA0079000868001037002000
B1756053729008N08006390WA0079200871001037002000
B1756063729013N08006417WA0079400874001037002000
B1756073729017N08006445WA0079400876001037002000
B1756083729021N08006472WA0079800877001037002000
B1756093729026N08006499WA0080000880001037002000
B1756103729031N08006526WA0080200882001037002000
B1756113729037N08006553WA0080400884001037002000
B1756123729042N08006580WA0080400885001034002000
B1756133729048N08006608WA0080600886001032002000
B1756143729053N08006635WA0080700887001032002000
B1756153729059N08006662WA0080800889001032002000
B1756163729065N08006690WA0081100890001034002000
B1756173729071N08006717WA0081300892001037002000
B1756183729076N08006744WA0081400894001037002000
B1756193729082N08006772WA0081600896001037002000
B1756203729086N08006799WA0081900897001037002000
B1756213729091N08006827WA0082000899001037002000
B1756223729095N08006854WA0082300902001034002000
B1756233729100N08006881WA0082500904001034002000
B1756243729104N08006908WA0082900907001034002000
B1756253729108N08006935WA0083100910001034002000
B1756263729111N08006962WA0083300913001037002000
B1756273729112N08006989WA0083600915001037002000
B1756283729112N08007016WA0083700917001037002000
B1756293729110N08007044WA0084400920001037002000
B1756303729107N08007071WA0084900925001039002000
B1756313729104N08007098WA0085300930001041002000
B1756323729100N08007125WA0085700935001043002000
B1756333729095N08007151WA0086100940001046002000
B1756343729088N08007178WA0086600944002046002000
B1756353729080N08007203WA0087000949001046002000
B1756363729071N08007228WA0087200952002043002000
B1756373729060N08007252WA0087400955001041002000
B1756383729049N08007276WA0087900958002039002000
B1756393729037N08007299WA0088200962002039002000
B1756403729024N08007322WA0088400965001041002000
B1756413729011N08007345WA0088800968001043002000
B1756423728996N08007365WA0088800971002043002000
B1756433728979N08007384WA0089000974002041002000
F1756432905271015134418512324
B1756443728961N08007400WA0089400976002041003000
B1756453728942N08007415WA0089400978002041002000
B1756463728924N08007430WA0089800981002041002000
B1756473728905N08007445WA0090000984002043002000
B1756483728887N08007460WA0090200988002041002000
B1756493728869N08007474WA0090700990001039002000
B1756503728850N08007489WA0091100993001039002000
B1756513728832N08007503WA0091300997001037002000
B1756523728813N08007516WA0091601000001039002000
B1756533728794N08007527WA0091901004002039002000
B1756543728775N08007538WA0092101007002041002000
B1756553728755N08007547WA0092401011001041002000
B1756563728735N08007556WA0092701014001039002000
B1756573728716N08007565WA0092901016001039002000
B1756583728696N08007575WA0093201019001037002000
B1756593728677N08007586WA0093301022001037002000
B1757003728657N08007596WA0093501024001037002000
B1757013728638N08007606WA0093801026001037002000
B1757023728618N08007616WA0094001028001034002000
B1757033728599N08007625WA0094101030001034002000
B1757043728579N08007635WA0094501033001032002000
B1757053728559N08007644WA0094801035001029002000
B1757063728540N08007654WA0095001038001029002000
B1757073728520N08007664WA0095301041001029002000
B1757083728501N08007674WA0095701044001029002000
B1757093728481N08007684WA0095701047001032002000
B1757103728462N08007693WA0096301050001034002000
B1757113728442N08007702WA0096701054001034002000
B1757123728422N08007710WA0096901058001037002000
B1757133728402N08007717WA0097301062001034002000
B1757143728382N08007725WA0097501065001032002000
B1757153728362N08007732WA0097901069001032002000
B1757163728342N08007739WA0098201072001032002000
B1757173728322N08007746WA0098501075001032002000
B1757183728301N08007753WA0098601078001032002000
B1757193728281N08007760WA0098701079001032002000
B1757203728260N08007767WA0099101082001032002000
B1757213728239N08007775WA0099401085001034002000
B1757223728219N08007782WA0099901088001037002000
B1757233728198N08007789WA0100501093001037002000
B1757243728177N08007794WA0101001098001037002000
B1757253728155N08007799WA0101401104001037002000
B1757263728134N08007805WA0102001109001039002000
B1757273728113N08007812WA0102301114001041002000
B1757283728092N08007819WA0102701118001043002000
B1757293728072N08007827WA0103201123001043002000
B1757303728051N08007834WA0103701128001043002000
B1757313728030N08007842WA0104301133001041002000
B1757323728010N08007850WA0104701139001039002000
B1757333727989N08007858WA0104801144001039002000
B1757343727969N08007867WA0105201147001037002000
B1757353727948N08007877WA0105201150001037002000
B1757363727928N08007887WA0105601152001037002000
B1757373727909N08007897WA0106001154001037002000
B1757383727889N08007909WA0106401158001037002000
B1757393727870N08007921WA0106601161001037002000
B1757403727852N08007934WA0107201165001037002000
B1757413727833N08007948WA0107501169001037002000
B1757423727816N08007962WA0107601173001037002000
B1757433727798N08007977WA0107901176001037002000
B1757443727781N08007992WA0108201178001037002000
B1757453727764N08008008WA0108401181001037002000
B1757463727748N08008024WA0108701184001037002000
B1757473727732N08008041WA0109101187001037002000
B1757483727716N08008058WA0109401190001037002000
B1757493727701N08008075WA0109801193001034002000
B1757503727686N08008093WA0110101197001032002000
B1757513727671N08008110WA0110301200001032002000
B1757523727656N08008128WA0110701203001029002000
B1757533727641N08008146WA0110801206001032002000
B1757543727627N08008164WA0111101209001034002000
B1757553727613N08008183WA0111401213001034002000
B1757563727600N08008203WA0111801216001037002000
B1757573727587N08008222WA0111901220001037002000
F17575729052710151318512324
B1757583727576N08008241WA0112401224001051002000
B1757593727565N08008260WA0112601228001062002000
B1758003727554N08008279WA0112501229001072002000
B1758013727545N08008299WA0112401229001081002000
B1758023727536N08008319WA0112101228001074002000
B1758033727526N08008338WA0112101226001071002000
B1758043727515N08008356WA0112201225001081002000
B1758053727502N08008372WA0112201226001093002000
B1758063727487N08008386WA0112401227001102002000
B1758073727471N08008399WA0112601228001102002000
B1758083727455N08008410WA0112701230001092002000
B1758093727438N08008420WA0112801231001074002000
B1758103727421N08008428WA0112801231001057002000
B1758113727403N08008436WA0112701231001048002000
B1758123727385N08008441WA0112701231002036002000
B1758133727366N08008446WA0112401231002032002000
B1758143727347N08008449WA0112201229002027002000
B1758153727328N08008451WA0112001226002020002000
B1758163727309N08008452WA0112001224001027002000
B1758173727289N08008453WA0112001224001043002000
B1758183727270N08008453WA0112001223001064002000
B1758193727252N08008451WA0112001223002081002000
B1758203727234N08008445WA0112101223002085003000
B1758213727218N08008434WA0112201224003088003000
B1758223727206N08008418WA0112301226003090004000
B1758233727198N08008399WA0112301226004097004000
B1758243727195N08008377WA0111801225004104004000
B1758253727196N08008354WA0111601223004107004000
B1758263727203N08008332WA0111401219004104004000
B1758273727212N08008311WA0111001216004104004000
B1758283727222N08008290WA0110501213003109003000
B1758293727234N08008270WA0110201209003111003000
B1758303727246N08008250WA0109901206003109003000
B1758313727258N08008230WA0109501201003111003000
B1758323727272N08008210WA0109201197003109003000
F1758322905271015134418512324
B1758333727287N08008192WA0108801193002100003000
B1758343727303N08008175WA0108501190002093003000
B1758353727320N08008159WA0108201187002081003000
B1758363727338N08008143WA0107901183002069002000
B1758373727356N08008128WA0107601180002072002000
B1758383727374N08008113WA0107401177002079002000
B1758393727392N08008099WA0107201174001083002000
B1758403727411N08008084WA0107101172001093002000
B1758413727429N08008070WA0107001171001097002000
B1758423727448N08008056WA0106501169001104002000
B1758433727467N08008042WA0106401166001116002000
B1758443727487N08008029WA0106201163001125002000
B1758453727506N08008015WA0105901160001132002000
B1758463727526N08008002WA0105601157001137002000
B1758473727546N08007990WA0105401155001140002000
B1758483727567N08007978WA0105101152001135002000
B1758493727588N08007967WA0104901149001130002000
B1758503727610N08007957WA0104701147001111002000
B1758513727632N08007948WA0104701145001090002000
B1758523727654N08007940WA0104401143001076002000
B1758533727677N08007933WA0104401142001062002000
B1758543727699N08007927WA0104101140001053002000
B1758553727722N08007922WA0104101139001048002000
B1758563727745N08007917WA0104001138001043002000
B1758573727768N08007913WA0103901137001043002000
B1758583727791N08007909WA0103901136001050002000
B1758593727813N08007904WA0104001136001050002000
B1759003727836N08007900WA0104001136001048002000
B1759013727858N08007895WA0104101137001039002000
B1759023727881N08007890WA0104301138001034002000
B1759033727903N08007885WA0104501139001032002000
B1759043727924N08007879WA0104601141001027002000
B1759053727946N08007871WA0104401141001020002000
B1759063727966N08007862WA0104401141001015002000
B1759073727986N08007852WA0104601141001015002000
B1759083728006N08007842WA0104701142001013002000
B1759093728025N08007831WA0104901144001013002000
B1759103728044N08007820WA0105101146001018002000
B1759113728062N08007808WA0105101147001018002000
B1759123728081N08007796WA0105401149001022002000
B1759133728098N08007783WA0105501150001027002000
B1759143728116N08007771WA0105501152001020002000
B1759153728134N08007758WA0105401152001018002000
B1759163728152N08007745WA0105501152001013002000
B1759173728169N08007732WA0105801153001009002000
B1759183728186N08007718WA0105901154001006002000
B1759193728203N08007704WA0105901155001002002000
B1759203728220N08007691WA0106001156001000002000
B1759213728237N08007677WA0106001157001000002000
B1759223728254N08007664WA0106201157001000002000
B1759233728271N08007651WA0106301158001000002000
B1759243728289N08007639WA0106601159001007002000
B1759253728306N08007626WA0106401160001020002000
B1759263728323N08007614WA0106601161001037002000
B1759273728340N08007602WA0106601162001057002000
B1759283728357N08007590WA0106401162001067002000
B1759293728374N08007578WA0106501162001071002000
B1759303728391N08007566WA0106401161001071002000
B1759313728407N08007552WA0106401161001064002000
B1759323728423N08007539WA0106301160001055002000
B1759333728438N08007524WA0106201159001043002000
B1759343728452N08007508WA0106201158001036002000
B1759353728465N08007490WA0106201158001039002000
B1759363728475N08007471WA0106101157002048002000
B1759373728483N08007450WA0106001156002067002000
B1759383728490N08007428WA0105601154002085002000
B1759393728495N08007406WA0105501152002104002000
B1759403728499N08007384WA0105301150002116002000
B1759413728501N08007361WA0105001147002118002000
B1759423728502N08007337WA0104901145002118002000
B1759433728502N08007314WA0104801143002114002000
B1759443728501N08007291WA0104501141001114002000
B1759453728500N08007267WA0104301139001116002000
B1759463728498N08007244WA0104001136001121002000
B1759473728496N08007220WA0103601133001123002000
B1759483728494N08007197WA0103601130001118002000
B1759493728491N08007173WA0103001127001109002000
B1759503728488N08007149WA0102501123001095002000
B1759513728485N08007125WA0102301119001083002000
B1759523728480N08007101WA0101901116001081002000
B1759533728476N08007076WA0101501112001085002000
B1759543728471N08007051WA0101401109001092002000
B1759553728465N08007026WA0101001106001092002000
B1759563728459N08007001WA0100801103001090002000
B1759573728453N08006976WA0100601100001090002000
B1759583728447N08006951WA0100401098001083002000
B1759593728440N08006926WA0100101096001081002000
B1800003728433N08006900WA0100001094001069002000
B1800013728426N08006875WA0100001093002050002000
B1800023728417N08006850WA0099901092002034002000
B1800033728407N08006826WA0099601091002020002000
B1800043728397N08006803WA0099701089002011002000
B1800053728387N08006780WA0099501088002011002000
B1800063728376N08006757WA0099401088002015002000
B1800073728366N08006734WA0099501087002022002000
B1800083728355N08006712WA0099401086002032002000
B1800093728343N08006692WA0099401086002036002000
B1800103728328N08006673WA0099101085002048002000
B1800113728312N08006658WA0099201084002055002000
B1800123728295N08006645WA0098801082002064002000
B1800133728276N08006634WA0098701080002074002000
B1800143728257N08006626WA0098401077002076002000
B1800153728237N08006620WA0098101075002081003000
B1800163728217N08006617WA0098101072002088003000
B1800173728196N08006615WA0097601070002093003000
B1800183728176N08006616WA0097601068002100003000
B1800193728155N08006619WA0097401066002104003000
B1800203728134N08006623WA0097101064002104002000
B1800213728113N08006629WA0096901062002102003000
B1800223728093N08006637WA0096801060002095002000
B1800233728072N08006646WA0096501058002093002000
B1800243728052N08006655WA0096201056002093002000
B1800253728032N08006665WA0096001053002086002000
B1800263728012N08006675WA0095801051002078002000
B1800273727992N08006686WA0095501049001069002000
B1800283727972N08006697WA0095401047001053002000
B1800293727953N08006709WA0095101045001043002000
B1800303727933N08006722WA0095101043001039002000
B1800313727915N08006735WA0095101042001034002000
B1800323727896N08006748WA0095001042001034002000
B1800333727878N08006763WA0095201042001039002000
B1800343727861N08006777WA0095501044001046002000
B1800353727844N08006793WA0095701047001048002000
B1800363727827N08006808WA0095901049001048002000
B1800373727812N08006824WA0096201052001046002000
B1800383727797N08006841WA0096501055001034002000
B1800393727782N08006857WA0096801058001025002000
B1800403727769N08006874WA0097001061001022002000
B1800413727756N08006891WA0097201064001020002000
B1800423727743N08006908WA0097401066001022002000
B1800433727731N08006925WA0097601068001022002000
B1800443727720N08006943WA0097701070001020002000
B1800453727708N08006960WA0098201073001022002000
B1800463727697N08006976WA0098401076001025002000
B1800473727686N08006993WA0098501079001032002000
B1800483727675N08007010WA0098701081001039002000
B1800493727664N08007027WA0098801082001039002000
B1800503727653N08007044WA0098801083001036002000
B1800513727642N08007061WA0098801084001034002000
B1800523727630N08007078WA0099001085001032002000
B1800533727617N08007092WA0099201086001039002000
B1800543727602N08007105WA0099201087001048002000
B1800553727587N08007114WA0099301089001053002000
B1800563727570N08007120WA0099701090002053002000
B1800573727553N08007122WA0099801092002043003000
B1800583727536N08007119WA0100001095003032003000
B1800593727521N08007111WA0100001096003027003000
B1801003727508N08007099WA0100301097003022004000
B1801013727497N08007083WA0100001098003022003000
B1801023727490N08007064WA0100001098003022003000
B1801033727488N08007044WA0099901098003025003000
B1801043727490N08007023WA0099801097003036003000
B1801053727497N08007003WA0099801097003048003000
B1801063727508N08006986WA0099801096003055003000
B1801073727521N08006971WA0099801096003055003000
B1801083727538N08006960WA0099801097003048003000
B1801093727556N08006952WA0099901097003039003000
B1801103727575N08006949WA0099901097002039003000
B1801113727595N08006951WA0100001098002041003000
B1801123727613N08006957WA0100101099002041003000
B1801133727631N08006969WA0100201100002039003000
B1801143727646N08006985WA0100501102002029003000
B1801153727658N08007004WA0100701104002020003000
B1801163727667N08007026WA0101101107002011003000
B1801173727672N08007049WA0101501111002004003000
B1801183727673N08007073WA0101701114002000003000
B1801193727669N08007096WA0101901117002000003000
B1801203727661N08007117WA0102301119002002003000
B1801213727650N08007134WA0102301120003018003000
B1801223727635N08007145WA0102401121002039003000
B1801233727618N08007150WA0102301121002053003000
B1801243727600N08007149WA0102401121003055003000
B1801253727584N08007142WA0102401121003050003000
B1801263727570N08007130WA0102201119003048003000
B1801273727559N08007112WA0102001118003053004000
B1801283727552N08007091WA0102101118003065003000
B1801293727551N08007068WA0102201119003081003000
B1801303727555N08007046WA0102101120003093003000
B1801313727565N08007027WA0102401122003098003000
B1801323727578N08007011WA0102501123003093003000
B1801333727595N08006999WA0102701125002074003000
B1801343727614N08006995WA0102901127002055003000
B1801353727633N08006997WA0103201129002039003000
B1801363727650N08007007WA0103601132003027003000
B1801373727662N08007023WA0103901136003020003000
B1801383727670N08007044WA0104301140003011003000
B1801393727672N08007066WA0104501143003006003000
B1801403727669N08007088WA0104801146003000003000
B1801413727660N08007108WA0105001148003000003000
B1801423727648N08007124WA0105001149002000003000
B1801433727633N08007135WA0105101150002000003000
B1801443727617N08007141WA0105301150002000003000
B1801453727600N08007140WA0105201151002000003000
B1801463727584N08007134WA0105301151002000003000
B1801473727570N08007122WA0105201151003000003000
F18014729052710151318512324
B1801483727558N08007105WA0105101151003002003000
B1801493727551N08007085WA0105301150003016003000
B1801503727549N08007063WA0105201150003025003000
B1801513727551N08007040WA0105001151003027003000
B1801523727558N08007018WA0104901150002029003000
B1801533727569N08006998WA0104701149002020003000
B1801543727583N08006982WA0104601147002018003000
B1801553727602N08006971WA0104601146003027003000
B1801563727623N08006967WA0104701146003036003000
B1801573727644N08006969WA0104701146003052003000
B1801583727664N08006977WA0104601146002064003000
B1801593727683N08006990WA0104401145003067003000
B1802003727699N08007009WA0104701144003067003000
B1802013727709N08007033WA0105101146003062004000
B1802023727711N08007060WA0105601150003057004000
B1802033727708N08007086WA0106201155003050004000
B1802043727699N08007110WA0106401159003043003000
B1802053727687N08007129WA0106601162003039003000
B1802063727671N08007144WA0106601164002041003000
B1802073727653N08007152WA0106601164002046003000
B1802083727634N08007154WA0106701164003048003000
B1802093727615N08007148WA0106901165003048004000
B1802103727599N08007135WA0107101166003041004000
B1802113727587N08007116WA0107301168003037004000
B1802123727578N08007094WA0107401170003034004000
B1802133727576N08007070WA0107501172003032003000
B1802143727578N08007045WA0107701174003029003000
B1802153727587N08007023WA0107701176003024003000
B1802163727600N08007005WA0107901177002022003000
B1802173727616N08006992WA0108201180002018003000
B1802183727636N08006986WA0108401182003011003000
B1802193727656N08006987WA0108801185003006003000
B1802203727675N08006995WA0109301188002004003000
B1802213727691N08007010WA0109501192003004003000
B1802223727703N08007028WA0109701195003006003000
B1802233727711N08007050WA0109901198003006003000
B1802243727715N08007074WA0109801199003011003000
B1802253727715N08007098WA0110001200003013004000
B1802263727711N08007121WA0110001200003013004000
B1802273727703N08007143WA0110101201003020004000
B1802283727691N08007161WA0110101201003025004000
B1802293727675N08007175WA0110301201003039004000
B1802303727658N08007184WA0110501202002055003000
B1802313727640N08007186WA0110801204002071004000
B1802323727623N08007182WA0110901206003071004000
B1802333727607N08007174WA0111001208003062004000
B1802343727593N08007160WA0111001209003053004000
B1802353727581N08007143WA0111101211003041004000
B1802363727573N08007123WA0111101212003041004000
B1802373727569N08007101WA0111401213003043004000
B1802383727569N08007078WA0111401214003043004000
B1802393727574N08007056WA0111301214002041004000
B1802403727583N08007036WA0111401215002034004000
B1802413727596N08007019WA0111501216002025003000
B1802423727611N08007006WA0111501217002018003000
B1802433727628N08006995WA0111701217002018003000
B1802443727647N08006990WA0112001219002025004000
B1802453727666N08006989WA0112101221002039003000
B1802463727684N08006992WA0112301223002050003000
B1802473727702N08006999WA0112601226002057003000
B1802483727718N08007010WA0112901228002062003000
B1802493727732N08007025WA0113201232002060003000
B1802503727743N08007042WA0113401235002055004000
B1802513727750N08007061WA0113801238003053004000
B1802523727753N08007082WA0114101240003057004000
B1802533727751N08007103WA0114101242003067004000
B1802543727746N08007122WA0114201243003086004000
B1802553727737N08007139WA0114401244003090004000
B1802563727725N08007152WA0114101244002081004000
B1802573727711N08007163WA0113901242002076004000
B1802583727695N08007170WA0113601240002069004000
B1802593727678N08007172WA0113501237002074004000
B1803003727661N08007170WA0113501235002081004000
B1803013727643N08007164WA0113401235002079004000
B1803023727627N08007154WA0113501235003074004000
B1803033727612N08007140WA0113401235003076004000
B1803043727599N08007122WA0113401236002079004000
B1803053727589N08007102WA0113701237002079004000
B1803063727583N08007080WA0113801239002074004000
B1803073727581N08007057WA0113901241002058004000
B1803083727582N08007033WA0114201243002043004000
B1803093727586N08007010WA0114301244002029004000
B1803103727594N08006989WA0114201245002020004000
B1803113727604N08006969WA0114201246002020004000
B1803123727617N08006952WA0114101246002032004000
B1803133727632N08006937WA0114001245002051004000
B1803143727649N08006927WA0114001243002074004000
B1803153727668N08006921WA0113901243002095004000
B1803163727687N08006919WA0114001242002109004000
B1803173727707N08006921WA0113701241002118004000
B1803183727726N08006926WA0113701240002125004000
B1803193727745N08006933WA0113401238002130003000
B1803203727764N08006942WA0113101236002135003000
B1803213727782N08006953WA0112901233002137004000
B1803223727798N08006967WA0112901231002139004000
B1803233727813N08006984WA0113201231002139004000
B1803243727825N08007004WA0113301232002135004000
B1803253727834N08007025WA0113201234002137004000
B1803263727841N08007047WA0113301234002135004000
B1803273727846N08007070WA0113101234002130004000
B1803283727849N08007093WA0113101234002130003000
B1803293727850N08007117WA0113101233002130004000
B1803303727849N08007140WA0113201233002130004000
B1803313727845N08007163WA0113201233002125004000
B1803323727838N08007186WA0113301233002109004000
B1803333727829N08007207WA0113501234002085004000
B1803343727818N08007227WA0113401235002062004000
B1803353727806N08007246WA0113501236002048004000
B1803363727792N08007264WA0113801237002048003000
B1803373727778N08007281WA0114001239002060003000
B1803383727763N08007296WA0114301242002067003000
B1803393727747N08007308WA0114501245002067003000
B1803403727730N08007320WA0114801248002060003000
B1803413727713N08007329WA0115001250002053003000
B1803423727696N08007338WA0115101252002058003000
B1803433727679N08007346WA0115201254002074003000
B1803443727662N08007352WA0115301255002083003000
B1803453727644N08007357WA0115101255002083003000
B1803463727626N08007358WA0115101255002076003000
B1803473727608N08007357WA0115001255002064004000
B1803483727590N08007352WA0115001255002067004000
B1803493727574N08007343WA0114801254002067004000
B1803503727559N08007332WA0114801253002067004000
B1803513727545N08007317WA0114701253002069004000
B1803523727534N08007300WA0114801252002071004000
B1803533727525N08007281WA0114701252002081004000
B1803543727519N08007260WA0114501251002092004000
B1803553727514N08007238WA0114301250002102004000
B1803563727512N08007216WA0114201247002107004000
B1803573727512N08007193WA0114101245002109004000
B1803583727514N08007170WA0113601243002112004000
B1803593727519N08007147WA0113101239002116004000
B1804003727525N08007124WA0112901235002123004000
B1804013727533N08007101WA0112801233002130004000
B1804023727543N08007079WA0112501230002137004000
B1804033727553N08007058WA0112301228002133004000
B1804043727564N08007038WA0112201226002123004000
B1804053727576N08007018WA0111701223002114004000
B1804063727589N08006998WA0111101218002107004000
B1804073727602N08006978WA0110601212002104004000
B1804083727616N08006958WA0110101206002100004000
B1804093727631N08006938WA0109701201002090004000
B1804103727646N08006918WA0109401197002079004000
B1804113727662N08006898WA0109201193002069004000
B1804123727678N08006878WA0108801190002062004000
B1804133727695N08006859WA0108701187002060004000
B1804143727712N08006839WA0108401185002055004000
B1804153727729N08006821WA0108101182002055004000
B1804163727747N08006802WA0108101180002057004000
B1804173727764N08006784WA0108001179002060004000
B1804183727782N08006767WA0107801178002055004000
B1804193727800N08006749WA0107701177002046004000
B1804203727818N08006732WA0107901176002032004000
B1804213727836N08006715WA0107901176002018004000
B1804223727854N08006697WA0107901176002011004000
B1804233727871N08006680WA0108001177002004004000
B1804243727888N08006663WA0108201178002004004000
B1804253727904N08006645WA0108201179002004003000
B1804263727920N08006627WA0108301179002004003000
B1804273727936N08006610WA0108101179002002003000
B1804283727953N08006592WA0108001178002000003000
B1804293727969N08006574WA0107801177002000003000
B1804303727985N08006556WA0107501175002000003000
B1804313728001N08006538WA0107201172002000003000
B1804323728016N08006520WA0107001169002000003000
B1804333728032N08006501WA0107001167002006003000
B1804343728048N08006483WA0106901166002013003000
B1804353728063N08006464WA0106901165002018003000
B1804363728078N08006444WA0106901165002015003000
F1804362905271015134418512324
B1804373728092N08006424WA0106901165002009003000
B1804383728105N08006404WA0107201165002002003000
B1804393728117N08006383WA0107201167002002003000
B1804403728129N08006362WA0107601168002006003000
B1804413728141N08006341WA0107801170002013003000
B1804423728152N08006321WA0107901173002027003000
B1804433728163N08006301WA0108201175002034003000
B1804443728173N08006280WA0108301177002034003000
B1804453728183N08006260WA0108401179002034003000
B1804463728193N08006241WA0108401180002029003000
B1804473728203N08006221WA0108201179002034003000
B1804483728213N08006201WA0108201178002045003000
B1804493728223N08006182WA0107901176002060003000
B1804503728233N08006162WA0107701174002076003000
B1804513728243N08006143WA0107701173002086003000
B1804523728253N08006124WA0107601171002097003000
B1804533728264N08006105WA0107501170002107003000
B1804543728275N08006087WA0107501170002111003000
B1804553728287N08006069WA0107301169002116003000
B1804563728299N08006051WA0107401169002118003000
B1804573728312N08006033WA0107301168002121003000
B1804583728325N08006016WA0107301168002130003000
B1804593728338N08006000WA0107001166002139003000
B1805003728352N08005984WA0106701164002144003000
B1805013728367N08005969WA0106601162002153003000
B1805023728382N08005955WA0106401160002156003000
B1805033728398N08005941WA0106301158002160003000
B1805043728414N08005928WA0106101157002160003000
B1805053728431N08005915WA0105901154002156003000
B1805063728447N08005902WA0105501152002153003000
B1805073728464N08005889WA0105301149002149003000
B1805083728481N08005876WA0105001146002149003000
B1805093728498N08005862WA0104801144002149003000
B1805103728515N08005848WA0104701142002149003000
B1805113728532N08005834WA0104501140002149003000
B1805123728549N08005819WA0104001137002144003000
B1805133728566N08005804WA0103901134002132003000
B1805143728582N08005788WA0103901132002113003000
B1805153728598N08005771WA0103601131002095003000
B1805163728614N08005753WA0103601130002083003000
B1805173728629N08005735WA0103301128002081003000
B1805183728644N08005717WA0103201127002086003000
B1805193728658N08005699WA0103301125002095003000
B1805203728673N08005680WA0103001124002102003000
B1805213728687N08005662WA0103101123002111003000
B1805223728701N08005644WA0103001123002121003000
B1805233728715N08005625WA0102901122002123003000
B1805243728729N08005607WA0102801122002123003000
B1805253728742N08005588WA0102801121002116003000
B1805263728755N08005569WA0102701120002109003000
B1805273728769N08005551WA0102401118002109003000
B1805283728782N08005533WA0102101116002106003000
B1805293728796N08005515WA0102001114002099003000
B1805303728811N08005497WA0101601111002088003000
B1805313728826N08005480WA0101401108002069003000
B1805323728841N08005462WA0101001105002050003000
B1805333728856N08005445WA0100701101002036003000
B1805343728871N08005426WA0100401098002025003000
B1805353728887N08005408WA0100001095002022003000
B1805363728903N08005390WA0099901092002022003000
B1805373728919N08005372WA0099501088002022003000
B1805383728935N08005354WA0099301086002027003000
B1805393728952N08005336WA0099201083002024003000
B1805403728968N08005318WA0099301082002022003000
B1805413728984N08005300WA0099201081002027003000
B1805423729000N08005282WA0099201081002032003000
B1805433729016N08005265WA0099001081002041003000
B1805443729031N08005247WA0099201081002055003000
B1805453729046N08005229WA0099301082002064003000
B1805463729060N08005212WA0099501083002071003000
B1805473729075N08005195WA0099801085002078003000
B1805483729088N08005177WA0099901087002085003000
B1805493729102N08005160WA0100001089002097003000
B1805503729115N08005143WA0100201091002104003000
B1805513729128N08005127WA0100301092002104003000
B1805523729142N08005110WA0100401093002095003000
B1805533729155N08005094WA0100501094002078003000
B1805543729169N08005078WA0100601095002062003000
B1805553729184N08005063WA0101001097002043003000
B1805563729200N08005051WA0101301100002032003000
B1805573729218N08005045WA0102001105002025004000
B1805583729236N08005046WA0102501112003022004000
B1805593729253N08005055WA0102801117003027004000
B1806003729267N08005068WA0102901120003034004000
B1806013729277N08005086WA0103001121003041004000
B1806023729283N08005107WA0103001121003053004000
F18060229051015134418512324
B1806033729283N08005129WA0103001122003062004000
B1806043729279N08005151WA0102901122003069004000
F1806042905271015134418512324
B1806053729272N08005172WA0102801120003074004000
B1806063729261N08005191WA0102301119003071004000
B1806073729247N08005207WA0102401117003067004000
B1806083729231N08005219WA0102301115003057004000
B1806093729214N08005226WA0102001113002048004000
B1806103729197N08005228WA0102001111002041004000
B1806113729179N08005224WA0101901110002041004000
B1806123729163N08005216WA0102001110002053004000
B1806133729148N08005203WA0102101111002060004000
B1806143729135N08005188WA0102001111002062004000
B1806153729124N08005169WA0102001112002062004000
B1806163729115N08005149WA0102101113002055004000
B1806173729109N08005127WA0102001114002055004000
B1806183729106N08005103WA0102301116002057004000
B1806193729108N08005080WA0102501118002055004000
B1806203729113N08005057WA0102801120002050004000
B1806213729121N08005035WA0103401124002041004000
B1806223729132N08005016WA0103701128002029004000
B1806233729146N08005001WA0104401135003020004000
B1806243729163N08004993WA0105201142003011004000
B1806253729182N08004994WA0105601148003004004000
B1806263729197N08005003WA0106001153003002004000
B1806273729209N08005019WA0106301158003000004000
B1806283729215N08005038WA0106601162003000004000
F18062829051015134418512324
B1806293729216N08005058WA0106801164003000004000
B1806303729211N08005078WA0107001166003000004000
B1806313729200N08005094WA0107101167003000004000
B1806323729187N08005105WA0106901167002000004000
B1806333729171N08005109WA0107101167002000004000
F180633290510151318512324
B1806343729155N08005106WA0107201168002000004000
B1806353729141N08005096WA0107301168002000004000
B1806363729130N08005081WA0107501170002000004000
F18063629052710151318512324
B1806373729123N08005062WA0107501171003000004000
B1806383729120N08005041WA0107601173002000004000
B1806393729124N08005020WA0108001176002000004000
B1806403729132N08005000WA0108401179002000004000
B1806413729144N08004986WA0108901184002000004000
B1806423729160N08004979WA0109401188003000004000
B1806433729177N08004979WA0109701193003000004000
B1806443729192N08004987WA0110201198003000004000
B1806453729203N08005001WA0110601203003000004000
B1806463729211N08005018WA0110801207003000004000
B1806473729213N08005037WA0110701209003000004000
F180647290510151318512324
B1806483729210N08005057WA0110801210003000004000
B1806493729202N08005074WA0111001211003000004000
B1806503729189N08005088WA0111001211003000004000
F18065029052710151318512324
B1806513729175N08005095WA0111101211002000004000
B1806523729159N08005096WA0111101211002000004000
B1806533729144N08005089WA0111201211003000004000
B1806543729131N08005075WA0111101211003000004000
B1806553729122N08005056WA0111401213003000004000
B1806563729119N08005035WA0111901216003000004000
B1806573729122N08005014WA0112101220003000004000
B1806583729131N08004995WA0112601224003000004000
B1806593729144N08004983WA0113001229003000004000
B1807003729161N08004978WA0113301233003000004000
B1807013729177N08004980WA0113601237003000004000
B1807023729193N08004990WA0113501239003000004000
B1807033729205N08005006WA0113801240003000004000
B1807043729212N08005026WA0113801242003000004000
F180704290510151318512324
B1807053729212N08005047WA0113801242003000004000
B1807063729206N08005068WA0114001243003000004000
B1807073729195N08005085WA0114001243002000004000
B1807083729181N08005097WA0114101244002000004000
B1807093729164N08005102WA0114201244002000004000
B1807103729147N08005099WA0114401245003000004000
B1807113729132N08005088WA0114801247003000004000
B1807123729121N08005070WA0115201250003000004000
F18071229052710151318512324
B1807133729117N08005050WA0115701254003000004000
B1807143729119N08005029WA0116001259003000004000
B1807153729127N08005011WA0116401264002000004000
B1807163729140N08005000WA0116701269002000004000
B1807173729157N08004996WA0117001272003000004000
B1807183729173N08005001WA0117201275003000004000
B1807193729186N08005013WA0117401278003000004000
B1807203729196N08005031WA0117401279003000004000
F180720290510151318512324
B1807213729200N08005051WA0117601281003000004000
B1807223729197N08005071WA0117801282003000004000
B1807233729188N08005089WA0117701283003000004000
B1807243729175N08005102WA0117601282002002004000
B1807253729159N08005108WA0117801282002004004000
B1807263729142N08005106WA0117901283003004004000
B1807273729127N08005096WA0118301284003006004000
B1807283729116N08005080WA0118601286003004004000
B1807293729111N08005059WA0118901290003004004000
F18072929052710151318512324
B1807303729112N08005038WA0119501295003000004000
B1807313729118N08005019WA0119901301003000004000
B1807323729130N08005006WA0120501306002000004000
B1807333729144N08004998WA0120701311003000004000
B1807343729161N08004998WA0120801314003000004000
B1807353729176N08005004WA0121001316003000004000
B1807363729189N08005017WA0121001317003000004000
B1807373729197N08005035WA0121001317003000004000
B1807383729201N08005056WA0121101318003000004000
B1807393729199N08005077WA0121501319003000004000
B1807403729192N08005097WA0121601321003000004000
B1807413729180N08005114WA0121801323003000004000
B1807423729165N08005125WA0122001325002000004000
B1807433729149N08005129WA0122301326002000004000
B1807443729132N08005126WA0122301327003000004000
B1807453729117N08005117WA0122501329003000004000
B1807463729106N08005101WA0122901332003000004000
B1807473729099N08005080WA0123201334003000004000
B1807483729097N08005059WA0123501338003000004000
B1807493729102N08005038WA0123701342003000004000
B1807503729111N08005020WA0124201346002000004000
B1807513729126N08005008WA0124701351003000004000
B1807523729142N08005003WA0125201356003000004000
B1807533729160N08005006WA0125501361003000004000
B1807543729175N08005014WA0125601364003000004000
B1807553729187N08005029WA0125801367003000004000
B1807563729194N08005049WA0125801368003000004000
B1807573729197N08005070WA0125801368003000004000
B1807583729194N08005092WA0125801368003000004000
B1807593729185N08005111WA0125801368003000004000
B1808003729172N08005127WA0126001368003000004000
B1808013729155N08005135WA0126201369003000004000
B1808023729137N08005136WA0126201369003000004000
B1808033729120N08005129WA0126701371003000004000
B1808043729106N08005115WA0127101375003000004000
B1808053729096N08005096WA0127301379003000004000
B1808063729092N08005074WA0127901383003000004000
B1808073729094N08005052WA0128301387003000004000
B1808083729101N08005032WA0128701393003000004000
B1808093729114N08005017WA0128901397003000004000
B1808103729130N08005010WA0129101400003000004000
B1808113729147N08005012WA0129501404003000004000
B1808123729163N08005022WA0129901407003000004000
B1808133729174N08005040WA0130201410003000004000
B1808143729178N08005061WA0130501414003000004000
B1808153729175N08005083WA0130901418003000004000
B1808163729166N08005102WA0131301422003000004000
B1808173729153N08005117WA0131401424003000004000
B1808183729138N08005124WA0131601426002000004000
B1808193729121N08005124WA0131801428003000004000
B1808203729106N08005117WA0132201430003000004000
B1808213729093N08005103WA0132501432003000004000
B1808223729086N08005084WA0133201437003000004000
B1808233729084N08005063WA0133701443003000004000
B1808243729087N08005043WA0134101449003000004000
B1808253729095N08005026WA0134501455003000004000
B1808263729107N08005013WA0134801459003000004000
B1808273729122N08005007WA0135001462003000004000
B1808283729139N08005007WA0135101463003000004000
B1808293729155N08005015WA0135301465003000004000
B1808303729168N08005030WA0135401467003000004000
B1808313729176N08005049WA0135801469003000004000
B1808323729179N08005071WA0136301472003000004000
B1808333729175N08005092WA0136601477003000004000
B1808343729166N08005112WA0136901481003000004000
B1808353729153N08005126WA0137401484003000004000
B1808363729138N08005134WA0137701487002000004000
B1808373729122N08005135WA0137801490003000004000
B1808383729107N08005129WA0137901491003000004000
B1808393729094N08005117WA0138101492003000004000
B1808403729086N08005099WA0138401494003000004000
B1808413729082N08005078WA0138901498003000004000
B1808423729083N08005056WA0139301503003000004000
B1808433729090N08005037WA0139601508003000004000
B1808443729102N08005021WA0140001512003000004000
B1808453729117N08005012WA0140401516003000004000
B1808463729135N08005008WA0140501519003000004000
B1808473729153N08005012WA0140901522003000004000
B1808483729169N08005021WA0141301525003000004000
B1808493729183N08005037WA0141801529003000004000
B1808503729192N08005056WA0142201533003000004000
B1808513729195N08005078WA0142801539003000004000
B1808523729192N08005099WA0143301545003000004000
B1808533729184N08005118WA0143801550003000004000
B1808543729172N08005132WA0144101554003000004000
B1808553729158N08005140WA0144301557003000004000
B1808563729143N08005142WA0144601559003000004000
B1808573729129N08005136WA0144601561003000004000
B1808583729117N08005124WA0144701563003000004000
B1808593729109N08005107WA0145201565003000004000
B1809003729107N08005087WA0145701568003000004000
B1809013729110N08005068WA0146001573003000004000
B1809023729118N08005052WA0146601578003000004000
B1809033729131N08005041WA0147001583003000004000
B1809043729146N08005035WA0147401588003000004000
B1809053729163N08005035WA0147501591003000004000
B1809063729179N08005040WA0147701593003000004000
B1809073729194N08005050WA0148101595002000004000
B1809083729206N08005064WA0148401598002000004000
F180908290510151318512324
B1809093729216N08005081WA0148701602003000004000
B1809103729222N08005100WA0148901605003000004000
B1809113729224N08005121WA0149301608003000004000
F18091129052710151318512324
B1809123729224N08005142WA0149401610003000004000
B1809133729221N08005164WA0149501611002000004000
B1809143729216N08005184WA0149501612002000004000
B1809153729208N08005204WA0149201611002000004000
F1809152905271015134418512324
B1809163729200N08005224WA0149001609002000004000
B1809173729190N08005244WA0148601607002000004000
B1809183729179N08005263WA0148401605002000004000
B1809193729167N08005283WA0148301603002000004000
B1809203729155N08005302WA0148401602002000004000
B1809213729142N08005321WA0148201601002000004000
B1809223729130N08005339WA0148201600002002004000
B1809233729117N08005358WA0147701598002018004000
B1809243729104N08005377WA0147401595002034004000
B1809253729091N08005395WA0147001591002043004000
B1809263729078N08005414WA0146701588002048004000
B1809273729064N08005432WA0146201583002044004000
B1809283729050N08005450WA0145901579002037004000
B1809293729036N08005469WA0145401575002034004000
B1809303729021N08005488WA0145201571002036004000
B1809313729007N08005507WA0144701567002041004000
B1809323728992N08005526WA0144401564002045004000
B1809333728977N08005546WA0144101560002055004000
B1809343728962N08005565WA0143701556002062004000
B1809353728947N08005585WA0143401552002069004000
B1809363728931N08005605WA0143201549002069004000
B1809373728916N08005625WA0142901547002064004000
B1809383728900N08005645WA0142801545002062004000
B1809393728884N08005665WA0142801544002057004000
B1809403728868N08005685WA0142901544002062004000
B1809413728853N08005705WA0142801545002069004000
B1809423728838N08005725WA0142801544002076004000
B1809433728824N08005746WA0142801544002076004000
B1809443728810N08005767WA0142701543002074004000
B1809453728796N08005788WA0142601542002065004000
B1809463728783N08005810WA0142701542002046004000
B1809473728770N08005831WA0142601542002034004000
B1809483728757N08005853WA0142601542002020004000
B1809493728744N08005874WA0142501542002020004000
B1809503728732N08005896WA0142401541002034004000
B1809513728720N08005918WA0142101539002053004000
B1809523728707N08005939WA0141901537002079004000
B1809533728695N08005961WA0141701535002100004000
B1809543728682N08005983WA0141201532002109004000
B1809553728670N08006005WA0141101529002114004000
B1809563728657N08006028WA0140701525002114004000
B1809573728644N08006050WA0140401522002112004000
B1809583728630N08006073WA0140201519002109004000
B1809593728617N08006096WA0139801516002107004000
B1810003728603N08006118WA0139701514002097004000
B1810013728588N08006141WA0139601512002088004000
B1810023728574N08006163WA0139401511002074004000
B1810033728559N08006185WA0139301509002057004000
B1810043728543N08006206WA0139001508002046004000
B1810053728528N08006228WA0138901506002029004000
B1810063728513N08006249WA0138701504002020004000
B1810073728497N08006271WA0138701503002011004000
B1810083728482N08006292WA0138601502002004004000
B1810093728467N08006313WA0138501500002004004000
B1810103728452N08006334WA0138201499002009004000
B1810113728438N08006356WA0138101497002018004000
B1810123728423N08006378WA0137901495002029004000
B1810133728409N08006400WA0137801493002039004000
B1810143728394N08006422WA0137601491002041004000
B1810153728380N08006444WA0137301489002036004000
B1810163728366N08006467WA0137101487002027004000
B1810173728352N08006489WA0137001485002018004000
B1810183728337N08006512WA0136801483002009004000
B1810193728323N08006535WA0136601481002004004000
B1810203728309N08006558WA0136401480002000004000
B1810213728296N08006581WA0136301478002000004000
B1810223728282N08006604WA0136201477002000004000
B1810233728268N08006627WA0136101476002000004000
B1810243728255N08006650WA0135901474002000004000
B1810253728241N08006673WA0136001473002000004000
B1810263728228N08006697WA0136001472002000004000
B1810273728215N08006720WA0135801472002000004000
B1810283728201N08006743WA0135901471002000004000
B1810293728188N08006765WA0135701471002000004000
B1810303728175N08006788WA0135701471002000004000
B1810313728162N08006811WA0135601470002000004000
B1810323728150N08006834WA0135501469002000004000
B1810333728137N08006857WA0135301468002000004000
B1810343728124N08006880WA0135201467002000004000
B1810353728111N08006903WA0135001465002000004000
B1810363728099N08006926WA0134901464002000004000
B1810373728086N08006949WA0134801462002000004000
B1810383728073N08006972WA0134501460002000004000
B1810393728061N08006995WA0134301458002000004000
B1810403728048N08007019WA0134101456002000004000
B1810413728035N08007043WA0134001453002000004000
B1810423728023N08007066WA0133801451002000004000
B1810433728010N08007090WA0133601450002000004000
B1810443727998N08007114WA0133601448002000004000
B1810453727985N08007138WA0133501447002000004000
B1810463727972N08007161WA0133301447002000004000
B1810473727959N08007185WA0133401446002000004000
B1810483727946N08007208WA0133401445002000004000
B1810493727933N08007231WA0133401445002000004000
B1810503727921N08007254WA0133501446002000004000
B1810513727907N08007276WA0133601447002004004000
B1810523727893N08007297WA0133701448002006004000
B1810533727878N08007317WA0133901450002009004000
B1810543727863N08007336WA0133901451002009004000
B1810553727849N08007355WA0133901452002011004000
B1810563727833N08007373WA0134001453002015004000
B1810573727818N08007391WA0134201453002018004000
B1810583727803N08007408WA0134401454002020004000
B1810593727787N08007425WA0134501456002020004000
B1811003727772N08007442WA0134601458002015004000
B1811013727756N08007459WA0134701459002011004000
B1811023727741N08007477WA0134801460002009004000
B1811033727727N08007496WA0135101462002004004000
B1811043727714N08007516WA0135401464002004004000
B1811053727702N08007537WA0135701467002002004000
B1811063727691N08007557WA0135801469002002004000
B1811073727681N08007578WA0136101471002004004000
B1811083727671N08007600WA0135901473002011004000
B1811093727661N08007621WA0135801472002013004000
B1811103727651N08007643WA0135701471002025004000
B1811113727642N08007665WA0135201469002032004000
B1811123727633N08007688WA0134901465002034004000
B1811133727624N08007711WA0134701462002043004000
F181113290527101513444618512324
B1811143727615N08007736WA0134501459002036004000
B1811153727607N08007760WA0134201457002034004000
B1811163727598N08007785WA0133901454002025004000
B1811173727589N08007810WA0133701451002013004000
B1811183727580N08007835WA0133401448002006004000
B1811193727571N08007861WA0133101446002004004000
B1811203727561N08007886WA0133001444002013004000
B1811213727552N08007912WA0132801442002025004000
B1811223727542N08007938WA0132801440002036004000
B1811233727532N08007964WA0132501438002041004000
B1811243727522N08007990WA0132301436002036004000
B1811253727513N08008016WA0132201435002027004000
B1811263727503N08008042WA0132101433002016004000
B1811273727494N08008068WA0132001432002006004000
B1811283727484N08008094WA0131901431002000004000
B1811293727475N08008120WA0131801430002000004000
B1811303727465N08008146WA0131901429002000004000
B1811313727455N08008171WA0131701429002000004000
B1811323727445N08008197WA0131701429002000004000
B1811333727436N08008222WA0131701428002002004000
B1811343727428N08008248WA0131701427002006004000
B1811353727421N08008274WA0131701427002009004000
B1811363727414N08008301WA0131601427002006004000
B1811373727409N08008327WA0131401426002016004000
B1811383727403N08008354WA0131201424002030004000
B1811393727398N08008380WA0131001422002051004000
B1811403727392N08008407WA0131001421002072004000
B1811413727386N08008433WA0130901419002090004000
B1811423727380N08008459WA0130601418002102004000
B1811433727374N08008485WA0130501417002111004000
B1811443727368N08008511WA0130401415002118004000
B1811453727361N08008537WA0130401414002111004000
B1811463727354N08008562WA0130201413002107004000
B1811473727348N08008587WA0130101412002097004000
B1811483727340N08008612WA0129801410002083004000
B1811493727333N08008636WA0129601408002079004000
B1811503727325N08008661WA0129501406002067004000
B1811513727317N08008685WA0129201403002060004000
B1811523727308N08008709WA0128801401002053004000
B1811533727299N08008733WA0128401397002048004000
B1811543727290N08008757WA0128101393002048004000
B1811553727282N08008782WA0127801389002046004000
B1811563727273N08008808WA0127501386002046004000
B1811573727265N08008834WA0127201383002043004000
B1811583727257N08008860WA0126901380002046004000
B1811593727249N08008886WA0126701377002046004000
B1812003727242N08008913WA0126501374002053004000
B1812013727236N08008941WA0126301372002062004000
B1812023727231N08008969WA0126201370002062004000
B1812033727227N08008998WA0125901368002060004000
B1812043727224N08009027WA0125601365002048004000
B1812053727222N08009056WA0125301363002034004000
B1812063727221N08009086WA0125201360002029004000
B1812073727222N08009116WA0124901357002029004000
B1812083727224N08009145WA0124901355002034004000
B1812093727227N08009175WA0124701353002039004000
B1812103727231N08009206WA0124701352002036004000
B1812113727234N08009236WA0124501351002034004000
B1812123727235N08009267WA0125001351002027004000
B1812133727233N08009297WA0125601354002020004000
B1812143727229N08009327WA0126201360002013004000
B1812153727220N08009354WA0126801367002009004000
B1812163727210N08009379WA0127301373002006004000
B1812173727197N08009403WA0127101377002004004000
B1812183727184N08009424WA0127001378002004004000
B1812193727169N08009445WA0126801376002002004000
B1812203727154N08009465WA0126501374002000004000
B1812213727139N08009484WA0126201371002000004000
B1812223727123N08009503WA0126001368002000004000
B1812233727107N08009522WA0125901367002000004000
B1812243727090N08009540WA0125801366002000004000
B1812253727074N08009558WA0125601364002002004000
B1812263727058N08009576WA0125501363002006004000
B1812273727042N08009594WA0125301361002015004000
B1812283727026N08009613WA0125201360002022004000
B1812293727011N08009631WA0124901358002029004000
B1812303726995N08009650WA0124501356002032004000
B1812313726980N08009669WA0124001352002032004000
B1812323726964N08009689WA0123601347002032004000
B1812333726949N08009709WA0123301343002034004000
B1812343726933N08009730WA0122901339002036004000
B1812353726918N08009750WA0122601335002034004000
B1812363726902N08009771WA0122201332002027004000
B1812373726886N08009792WA0122201329002018004000
B1812383726869N08009814WA0121901327002009004000
B1812393726853N08009835WA0121701325002004004000
B1812403726837N08009856WA0121601323002002004000
B1812413726821N08009878WA0121501322002000004000
B1812423726806N08009900WA0121301320002000004000
B1812433726790N08009922WA0121101318002000004000
B1812443726775N08009945WA0121001317002000004000
B1812453726760N08009967WA0120801315002000004000
B1812463726746N08009990WA0120601313002000004000
B1812473726731N08010014WA0120401311002000004000
B1812483726717N08010038WA0120201309002000004000
B1812493726703N08010062WA0120201308002000004000
B1812503726689N08010086WA0120301308002000004000
B1812513726675N08010110WA0120101307002000004000
B1812523726661N08010133WA0120201307002000004000
B1812533726646N08010155WA0120101307002000004000
B1812543726631N08010176WA0120001307002000004000
B1812553726615N08010197WA0120201307002000004000
B1812563726599N08010217WA0120201307002000004000
B1812573726583N08010237WA0120001307002000004000
B1812583726567N08010256WA0120001307002000004000
B1812593726551N08010275WA0120301306002000004000
B1813003726535N08010294WA0120401308002004004000
B1813013726519N08010313WA0120601310002006004000
B1813023726503N08010331WA0120701312002011004000
B1813033726488N08010348WA0120501313002016004000
B1813043726472N08010365WA0120301312002030004000
B1813053726457N08010383WA0120301310002048004000
B1813063726442N08010402WA0119901308002067004000
B1813073726428N08010420WA0119801305002086004000
B1813083726413N08010439WA0119701303002095004000
B1813093726398N08010458WA0119901303002100004000
B1813103726383N08010477WA0120201304002095004000
B1813113726368N08010496WA0120601307002083004000
B1813123726354N08010514WA0121101311002071004000
B1813133726340N08010531WA0121601317002062004000
B1813143726327N08010547WA0122001322002050004000
B1813153726313N08010564WA0122301326002043004000
B1813163726301N08010580WA0122401329002043004000
B1813173726288N08010596WA0122601330002046004000
B1813183726276N08010612WA0123001333002050004000
B1813193726264N08010628WA0123201335002050004000
B1813203726251N08010643WA0123501338002041004000
B1813213726237N08010656WA0124201343002027004000
B1813223726221N08010663WA0124701348002016004000
F18132229052710151318512324
B1813233726205N08010663WA0125301354003006004000
B1813243726191N08010657WA0125701359003002004000
F181324292710151318512324
B1813253726180N08010644WA0126001364003000004000
F18132529052710151318512324
B1813263726173N08010626WA0126401368003000004000
B1813273726170N08010608WA0126201369003004004000
B1813283726172N08010589WA0126001369003020004000
B1813293726178N08010571WA0125701367003034004000
B1813303726189N08010556WA0125401364003048004000
B1813313726204N08010546WA0125101362003050004000
B1813323726222N08010543WA0125101360003043004000
B1813333726240N08010548WA0125301361003039004000
B1813343726256N08010560WA0125601363003034004000
B1813353726268N08010577WA0126001367003032004000
B1813363726274N08010598WA0126401371003025004000
B1813373726275N08010619WA0126701375003018004000
B1813383726271N08010639WA0126901377002011004000
B1813393726262N08010656WA0127101380003004004000
F181339290510151318512324
B1813403726249N08010667WA0127301381002000004000
B1813413726234N08010672WA0127201382003000004000
F1813410510151318512324
B1813423726219N08010670WA0127301381003000004000
B1813433726205N08010660WA0127201381003000004000
F1813430527151318512324
B1813443726195N08010643WA0127001380003000004000
F18134429052710151318512324
B1813453726190N08010622WA0127001380003013004000
B1813463726192N08010601WA0127101379003032004000
B1813473726198N08010580WA0127101380003043004000
B1813483726209N08010562WA0127001380003046004000
B1813493726223N08010547WA0127001380003039004000
B1813503726241N08010538WA0127201380003029004000
B1813513726260N08010538WA0127801383003020004000
B1813523726278N08010545WA0128201387003013004000
B1813533726292N08010560WA0128601392003009004000
B1813543726299N08010579WA0129001397003004004000
B1813553726301N08010600WA0129301401003006004000
B1813563726298N08010620WA0129301403003013004000
B1813573726289N08010637WA0129301404003018004000
B1813583726277N08010648WA0129501404003018004000
B1813593726262N08010652WA0129601404003015004000
B1814003726246N08010648WA0129801406003009004000
B1814013726232N08010637WA0130301408003002004000
B1814023726222N08010620WA0130601411003000004000
B1814033726217N08010599WA0130801415003000004000
B1814043726219N08010578WA0131001418003000004000
B1814053726226N08010559WA0131301422003000004000
B1814063726238N08010544WA0131401424003000004000
B1814073726254N08010536WA0131701426003000004000
B1814083726272N08010535WA0132001427003000004000
B1814093726288N08010542WA0132101430003000004000
B1814103726301N08010556WA0132501433003000004000
B1814113726309N08010574WA0132401435003000004000
B1814123726311N08010595WA0132501436003000004000
F181412290527151318512324
B1814133726307N08010615WA0132501436003000004000
F18141329052710151318512324
B1814143726297N08010632WA0132501436003000004000
B1814153726284N08010642WA0132501436003000004000
B1814163726269N08010643WA0132701437003000004000
B1814173726254N08010636WA0132901437003000004000
B1814183726241N08010622WA0133201439003000004000
B1814193726234N08010602WA0133401442003000004000
B1814203726233N08010581WA0133701445003000004000
B1814213726238N08010560WA0133801448003000004000
B1814223726248N08010542WA0134101451003000004000
B1814233726263N08010531WA0134501453003000004000
B1814243726281N08010528WA0134801456003000004000
B1814253726299N08010532WA0135001459003000004000
B1814263726314N08010543WA0135301462003000004000
B1814273726324N08010560WA0135501464003000004000
B1814283726330N08010579WA0135601466003004004000
B1814293726330N08010600WA0135601467003013004000
B1814303726325N08010619WA0135801468003013004000
B1814313726315N08010635WA0135701468003011004000
F181431290510151318512324
B1814323726303N08010646WA0135901469003006004000
B1814333726288N08010651WA0136001469003000004000
B1814343726273N08010649WA0136101470003000004000
B1814353726258N08010640WA0136101470003000004000
B1814363726246N08010625WA0136301471003000004000
B1814373726239N08010605WA0136601474003000004000
F18143729052710151318512324
B1814383726235N08010583WA0136801477003000004000
B1814393726237N08010560WA0137301481003000004000
B1814403726245N08010541WA0137601485003000004000
B1814413726257N08010525WA0138001489003000004000
B1814423726273N08010517WA0138401492003000004000
B1814433726290N08010517WA0138401495003000004000
B1814443726306N08010524WA0138501497003000004000
B1814453726318N08010538WA0138301498003009004000
B1814463726325N08010556WA0138001497003022004000
B1814473726324N08010577WA0137601493003032004000
B1814483726316N08010595WA0137301489003036004000
B1814493726302N08010607WA0137301486003039004000
B1814503726285N08010612WA0137501486003032004000
B1814513726268N08010609WA0137601487003027004000
B1814523726252N08010600WA0137901489003025004000
B1814533726238N08010585WA0138301492003022004000
B1814543726228N08010566WA0138601495003020004000
B1814553726223N08010544WA0138901499003018004000
B1814563726223N08010522WA0139001502003015004000
B1814573726229N08010501WA0139401505003011004000
B1814583726240N08010484WA0139701507003009004000
B1814593726255N08010473WA0139701510003006004000
B1815003726273N08010470WA0140101512003009004000
B1815013726291N08010475WA0140201514003020004000
B1815023726306N08010486WA0140401515003032004000
B1815033726317N08010503WA0140401516003041004000
B1815043726321N08010523WA0140801518003043004000
B1815053726321N08010544WA0140901519003039004000
B1815063726317N08010564WA0140801520003032004000
B1815073726309N08010582WA0140701521003025004000
B1815083726300N08010600WA0140901522003018004000
B1815093726290N08010616WA0141001523003009004000
B1815103726279N08010632WA0140801523003009004000
B1815113726269N08010648WA0140701521003016004000
B1815123726258N08010665WA0140401519003018004000
B1815133726247N08010682WA0140101517003022004000
B1815143726235N08010700WA0139801514003022004000
B1815153726223N08010718WA0139701512003032004000
B1815163726211N08010736WA0139501510003046004000
B1815173726199N08010755WA0139201508003069004000
B1815183726188N08010775WA0139001505003093004000
B1815193726177N08010795WA0138701503003102004000
B1815203726166N08010817WA0138501500003119004000
B1815213726155N08010839WA0138301497003128004000
F1815212905271015134618512324
B1815223726145N08010862WA0138101494003137004000
F18152229052710151318512324
B1815233726134N08010885WA0137501491003144004000
B1815243726123N08010909WA0137301488003144004000
B1815253726113N08010933WA0136901484003137004000
B1815263726102N08010957WA0136701481003118004000
B1815273726090N08010981WA0136301478003097004000
B1815283726078N08011004WA0136201475003081004000
B1815293726066N08011027WA0136001473003067004000
B1815303726053N08011050WA0135701471003062004000
B1815313726040N08011073WA0135501469003062004000
B1815323726027N08011096WA0135301467003060004000
B1815333726014N08011118WA0135101465003060004000
B1815343726000N08011140WA0135001463003067004000
B1815353725987N08011162WA0134801461003072004000
B1815363725972N08011184WA0134701460003076004000
B1815373725958N08011205WA0134501458003083004000
F1815372905271015134618512324
B1815383725944N08011227WA0134401457003083004000
B1815393725930N08011249WA0134301455003081004000
B1815403725916N08011270WA0134101454003069004000
B1815413725902N08011292WA0133801451003055004000
B1815423725887N08011314WA0133601449003037004000
B1815433725873N08011336WA0133301447003023004000
B1815443725858N08011358WA0133201444003013004000
B1815453725843N08011380WA0133001442003004004000
B1815463725827N08011402WA0132901441003002004000
B1815473725812N08011424WA0132701439003000004000
B1815483725797N08011446WA0132901438003006004000
B1815493725782N08011467WA0133401440003009004000
B1815503725767N08011489WA0133601444003009004000
B1815513725753N08011510WA0133701447003009004000
B1815523725739N08011530WA0133701448003000004000
B1815533725725N08011551WA0133701449002000004000
B1815543725711N08011571WA0133601448002000004000
B1815553725698N08011591WA0133401447002000004000
B1815563725684N08011611WA0133101445002000004000
B1815573725670N08011631WA0133101443002000004000
B1815583725657N08011651WA0132901441002000004000
B1815593725643N08011671WA0132701439002004004000
B1816003725629N08011691WA0132501437002020004000
B1816013725615N08011711WA0132201435002041004000
B1816023725602N08011731WA0132101433002057004000
B1816033725588N08011752WA0131801430002062004000
B1816043725574N08011772WA0131601428002057004000
B1816053725559N08011792WA0131301425002043004000
B1816063725545N08011813WA0131201423002032004000
B1816073725531N08011833WA0130901421002020004000
B1816083725517N08011854WA0130601418002011004000
B1816093725502N08011875WA0130601416002009004000
B1816103725488N08011896WA0130501415002011004000
B1816113725473N08011917WA0130401415002018004000
B1816123725459N08011938WA0130401414002025004000
B1816133725445N08011959WA0130201414002027004000
B1816143725432N08011980WA0130201413002027004000
B1816153725418N08012001WA0130001411002027004000
B1816163725405N08012023WA0129901409002029004000
B1816173725392N08012044WA0129701408002039004000
B1816183725379N08012066WA0129601407002048004000
B1816193725366N08012088WA0129401405002057004000
B1816203725353N08012109WA0129201403002071004000
B1816213725340N08012131WA0128901401002086004000
B1816223725327N08012153WA0128801398002095004000
B1816233725314N08012175WA0128601396002093004000
B1816243725301N08012198WA0128301393002081004000
B1816253725287N08012220WA0128001391002062004000
B1816263725274N08012243WA0127901389002043004000
B1816273725260N08012265WA0127901387002029004000
B1816283725247N08012287WA0127701386002020004000
B1816293725233N08012309WA0127601385002011004000
B1816303725219N08012331WA0127501385002002004000
B1816313725205N08012353WA0127401383002000004000
B1816323725192N08012375WA0127201382002004004000
B1816333725178N08012397WA0127001380002011004000
B1816343725164N08012419WA0126701378002022004000
B1816353725150N08012440WA0126701376002029004000
B1816363725136N08012462WA0126701375002027004000
B1816373725123N08012484WA0126601374002022004000
B1816383725109N08012505WA0126401373002015004000
B1816393725095N08012527WA0126301373002015004000
B1816403725082N08012548WA0126201371002018004000
B1816413725068N08012570WA0126101370002025004000
B1816423725055N08012592WA0125701367002032004000
B1816433725041N08012614WA0125301364002039004000
B1816443725027N08012636WA0124801360002046004000
B1816453725013N08012658WA0124401355002048004000
B1816463724999N08012680WA0124101351002055004000
B1816473724984N08012703WA0124001348002057004000
B1816483724969N08012725WA0123901346002060004000
B1816493724954N08012747WA0123701344002065004000
B1816503724939N08012769WA0123601343002065004000
B1816513724925N08012792WA0123401342002065004000
B1816523724910N08012814WA0123301341002060004000
B1816533724896N08012836WA0123301340002053004000
B1816543724881N08012859WA0123301339002043004000
B1816553724867N08012881WA0123301338002034004000
B1816563724853N08012904WA0123201338002032004000
B1816573724839N08012926WA0123101338002032004000
B1816583724824N08012947WA0122901337002039004000
B1816593724810N08012969WA0122901335002050004000
B1817003724795N08012992WA0122801334002060004000
B1817013724781N08013014WA0122701334002074004000
B1817023724766N08013036WA0122801334002081004000
B1817033724752N08013058WA0123201334002081004000
B1817043724738N08013080WA0123701338002076004000
B1817053724724N08013102WA0124101343002062004000
B1817063724712N08013125WA0124801349002048004000
B1817073724705N08013150WA0125501356002034004000
B1817083724705N08013175WA0126701364003027004000
B1817093724713N08013197WA0127401373003024004000
B1817103724727N08013213WA0128101381003027004000
B1817113724743N08013221WA0128601388003036004000
B1817123724761N08013221WA0128901392003041005000
B1817133724776N08013213WA0129301395003043005000
B1817143724788N08013199WA0129201396003043005000
B1817153724795N08013181WA0129401397003036004000
B1817163724798N08013162WA0129601399003029004000
B1817173724796N08013142WA0129701400003022004000
B1817183724790N08013125WA0129601400003013004000
B1817193724778N08013112WA0129501400003006004000
B1817203724764N08013105WA0129701400003000004000
B1817213724748N08013105WA0130201402003000004000
B1817223724733N08013112WA0130601405003000004000
B1817233724721N08013125WA0131001409003000004000
B1817243724713N08013142WA0131001411003000004000
B1817253724710N08013161WA0131201413003000004000
B1817263724713N08013181WA0131401414003000004000
B1817273724720N08013199WA0131301415003004004000
B1817283724733N08013212WA0131401416003020004000
B1817293724748N08013220WA0131301416003043004000
B1817303724764N08013223WA0131401416003069004000
B1817313724781N08013219WA0131601417003076004000
B1817323724796N08013211WA0131801419003079004000
B1817333724809N08013198WA0132001421003069004000
B1817343724819N08013183WA0132401424003055004000
B1817353724825N08013165WA0132601426003039004000
B1817363724829N08013147WA0132501427003025004000
B1817373724828N08013128WA0132401427003016004000
B1817383724823N08013111WA0132401427003011004000
B1817393724812N08013098WA0132501427003023004000
B1817403724799N08013091WA0132601427003044004000
B1817413724784N08013089WA0132701428003065004000
B1817423724768N08013091WA0132801429003079004000
B1817433724753N08013095WA0132901430003074004000
B1817443724738N08013101WA0133401431003060004000
B1817453724723N08013108WA0133401433003046004000
B1817463724709N08013118WA0133101433003034004000
B1817473724696N08013131WA0133301433003029004000
B1817483724685N08013148WA0133401434003024004000
B1817493724679N08013169WA0133801438003020004000
B1817503724676N08013190WA0134301441003013004000
B1817513724679N08013211WA0134401444003004004000
B1817523724685N08013230WA0134501447003000004000
B1817533724696N08013245WA0134501448003007004000
B1817543724709N08013255WA0134401449003023004000
B1817553724725N08013259WA0134101448003046004000
B1817563724741N08013255WA0133901447003074004000
B1817573724755N08013245WA0133601444003090004000
B1817583724765N08013230WA0133201440003100004000
B1817593724771N08013211WA0133101437003107004000
B1818003724771N08013192WA0133201435003111004000
B1818013724766N08013173WA0133201433003121004000
B1818023724757N08013157WA0133501434003125004000
B1818033724746N08013143WA0133501435003118004000
B1818043724733N08013133WA0133601437003102004000
B1818053724719N08013124WA0133701438003076004000
B1818063724704N08013117WA0133801439003055004000
B1818073724689N08013110WA0134001440003044004000
B1818083724674N08013104WA0134201442003034004000
B1818093724658N08013099WA0134101444003029004000
B1818103724642N08013095WA0134301445003025004000
B1818113724625N08013092WA0134301446003018004000
B1818123724609N08013090WA0134401447003013004000
B1818133724591N08013092WA0134501448003011004000
B1818143724574N08013096WA0134601448003016004000
B1818153724558N08013102WA0134801450003032004000
B1818163724542N08013110WA0134701451003046004000
B1818173724526N08013118WA0134601451003060004000
B1818183724510N08013127WA0134301450003074004000
B1818193724494N08013137WA0134201448003081004000
B1818203724478N08013148WA0134001446003097004000
B1818213724463N08013160WA0133801444003113004000
B1818223724448N08013173WA0133501441003125004000
B1818233724433N08013188WA0133001438003132004000
B1818243724420N08013204WA0132601434003135004000
B1818253724407N08013223WA0132301431003137004000
B1818263724395N08013242WA0131701427003137004000
B1818273724383N08013263WA0131301422003142004000
B1818283724372N08013284WA0130801417003142004000
B1818293724360N08013307WA0130401412003135004000
B1818303724349N08013330WA0130201409003125004000
B1818313724339N08013354WA0129901406003109004000
B1818323724328N08013379WA0129501403003090004000
B1818333724318N08013403WA0129301400003081004000
B1818343724307N08013429WA0128901398003074004000
B1818353724297N08013454WA0128901395003074004000
B1818363724287N08013480WA0128601394003079004000
B1818373724277N08013506WA0128501392003079004000
B1818383724267N08013532WA0128501391003076004000
B1818393724257N08013558WA0128501390003067004000
B1818403724247N08013584WA0128401390003057004000
B1818413724237N08013610WA0128401390003053004000
B1818423724227N08013636WA0128501390003046004000
B1818433724218N08013662WA0128501391003041004000
B1818443724208N08013687WA0128301390003034004000
B1818453724199N08013712WA0128201390003022004000
B1818463724190N08013738WA0127901388003013004000
B1818473724181N08013763WA0127901386003009004000
B1818483724172N08013788WA0127501384003011004000
B1818493724163N08013813WA0127201381003015004000
B1818503724154N08013839WA0127101379003022004000
B1818513724145N08013864WA0126901376003029004000
F181851290527101513461851234424
B1818523724136N08013890WA0126601374003032004000
B1818533724127N08013916WA0126401371003036004000
B1818543724118N08013941WA0126101369003048004000
B1818553724109N08013967WA0125901366003060004000
B1818563724099N08013993WA0125601364003072004000
B1818573724090N08014019WA0125301361003074004000
B1818583724080N08014045WA0125001358003065004000
B1818593724070N08014071WA0124601355003053004000
B1819003724061N08014098WA0124401352003036004000
B1819013724051N08014124WA0124101349003025004000
B1819023724041N08014150WA0123901346003018004000
B1819033724031N08014177WA0123601344003015004000
B1819043724021N08014203WA0123501342003018004000
B1819053724011N08014229WA0123501340003022004000
B1819063724001N08014255WA0123501339003027004000
B1819073723990N08014281WA0123401339003027004000
B1819083723980N08014307WA0123301338003027004000
B1819093723969N08014332WA0123301338003029004000
B1819103723957N08014357WA0123201337003032004000
B1819113723945N08014381WA0123101337003034004000
B1819123723932N08014405WA0123401338003037004000
B1819133723918N08014428WA0123401339003034004000
B1819143723905N08014451WA0123801340003029004000
B1819153723895N08014477WA0124401344003022004000
B1819163723891N08014506WA0125301351003015004000
B1819173723893N08014533WA0126301360003013004000
B1819183723903N08014558WA0127301370003018004000
B1819193723918N08014575WA0127801379003025004000
F18191929052710151318512324
B1819203723937N08014584WA0128501387003029005000
F181920290527101518512324
B1819213723956N08014584WA0129001393003029004000
F1819212927101518512324
B1819223723972N08014575WA0129701400003020004000
B1819233723984N08014559WA0130101406003011005000
F181923292710151318512324
B1819243723990N08014539WA0130701411004004005000
F18192429052710151318512324
B1819253723991N08014520WA0130901415003000004000
B1819263723985N08014504WA0130901417003000004000
B1819273723976N08014492WA0130801417003000004000
B1819283723962N08014487WA0130901416003000004000
B1819293723949N08014489WA0130901415003006004000
B1819303723936N08014497WA0131001416003016004000
B1819313723927N08014512WA0131301417003025004000
B1819323723921N08014530WA0131501418003029004000
B1819333723920N08014550WA0131501419003029004000
B1819343723924N08014571WA0131601420003029004000
B1819353723933N08014590WA0131801421003027004000
B1819363723946N08014603WA0131701421003032004000
B1819373723963N08014610WA0131601421003036004000
B1819383723981N08014610WA0131701422003039005000
F1819382905271015131851234424
B1819393723998N08014603WA0131901423003036005000
B1819403724013N08014590WA0132101424003034004000
B1819413724025N08014574WA0132301426003027004000
B1819423724032N08014554WA0132501427003015004000
B1819433724033N08014534WA0132601429003015004000
B1819443724027N08014517WA0132601430003013004000
B1819453724016N08014505WA0132801430003013004000
B1819463724002N08014500WA0132701431003020004000
B1819473723987N08014503WA0133101431003022004000
B1819483723973N08014512WA0133301432003022004000
B1819493723962N08014526WA0133601435003020004000
B1819503723955N08014545WA0133801437003013004000
B1819513723953N08014567WA0134201441003004004000
B1819523723956N08014589WA0134501445003000004000
B1819533723964N08014609WA0134501447003000004000
B1819543723976N08014626WA0134401449003000004000
B1819553723991N08014637WA0134601450003002004000
B1819563724009N08014640WA0134901451003006004000
B1819573724027N08014635WA0134901452003011004000
B1819583724043N08014624WA0134901452003011004000
B1819593724056N08014608WA0135001453003009004000
B1820003724063N08014588WA0135101454003004004000
B1820013724064N08014568WA0135401455003000004000
B1820023724059N08014549WA0135801457003006004000
B1820033724048N08014534WA0136101461003016004000
B1820043724036N08014525WA0136501464003025004000
B1820053724022N08014523WA0136901468003032004000
B1820063724008N08014526WA0137301472003027004000
B1820073723996N08014535WA0137601476003020004000
B1820083723986N08014549WA0137901479003009004000
B1820093723979N08014566WA0138101482003002004000
B1820103723977N08014586WA0138301484003000004000
B1820113723979N08014606WA0138101486003000004000
B1820123723985N08014627WA0137801485003000004000
B1820133723996N08014644WA0137701483003000004000
B1820143724011N08014656WA0137501481003000004000
B1820153724029N08014662WA0137901481003000004000
B1820163724049N08014659WA0138201483003000005000
B1820173724067N08014650WA0138701487003000004000
B1820183724082N08014636WA0139101491003000004000
B1820193724093N08014619WA0139601496003000004000
B1820203724098N08014600WA0140001501003000004000
B1820213724099N08014581WA0140001504003000004000
B1820223724095N08014564WA0140001505003000004000
B1820233724087N08014550WA0140001505003000004000
B1820243724076N08014540WA0140001505003002004000
B1820253724062N08014536WA0140001505003004004000
B1820263724048N08014539WA0140301504003006004000
B1820273724035N08014548WA0140501506003006004000
B1820283724024N08014563WA0140801509003004004000
B1820293724018N08014582WA0141101512003000004000
B1820303724015N08014604WA0141201515003000004000
B1820313724019N08014625WA0141301516003000004000
B1820323724028N08014644WA0141401518003000004000
B1820333724041N08014658WA0141801520003000004000
B1820343724058N08014665WA0141901522003000004000
B1820353724076N08014668WA0142001524003016004000
B1820363724093N08014665WA0142401527003025004000
B1820373724110N08014657WA0142501529003031004000
B1820383724125N08014645WA0142601531003029004000
B1820393724137N08014631WA0142901533003018004000
B1820403724146N08014614WA0143001535003011004000
B1820413724151N08014595WA0143001536003004004000
B1820423724151N08014577WA0143201537003004004000
B1820433724147N08014559WA0143201537003006004000
B1820443724140N08014544WA0143301538003016004000
B1820453724130N08014531WA0143201538003022004000
B1820463724118N08014520WA0143101537003025004000
B1820473724105N08014511WA0142901536003025004000
B1820483724091N08014503WA0142801534003020004000
B1820493724077N08014496WA0142901533003015004000
B1820503724062N08014490WA0142901533003018004000
B1820513724046N08014483WA0143101534003022004000
B1820523724031N08014477WA0143101536003027004000
B1820533724016N08014472WA0143401537003034004000
B1820543724000N08014469WA0143701540003037004000
B1820553723985N08014469WA0144001543003037004000
B1820563723970N08014470WA0144401547003037004000
B1820573723955N08014474WA0144801550003037004000
B1820583723942N08014481WA0145001553003034004000
B1820593723929N08014490WA0145101557003032004000
B1821003723918N08014502WA0145101559003032004000
B1821013723909N08014516WA0145201560003039004000
B1821023723901N08014532WA0145301560003048004000
B1821033723896N08014550WA0145401561003058004000
B1821043723894N08014569WA0145301561003060004000
B1821053723893N08014590WA0145401562003053004000
B1821063723895N08014610WA0145501562003046004000
B1821073723898N08014630WA0145701563003041004000
B1821083723903N08014650WA0145801565003043004000
B1821093723909N08014670WA0146001567003050004000
B1821103723915N08014690WA0146101569003050004000
B1821113723920N08014710WA0146301571003043004000
B1821123723925N08014731WA0146601574003034004000
B1821133723928N08014753WA0147001576003018004000
B1821143723931N08014775WA0147001578003009004000
B1821153723936N08014796WA0146901578003002004000
B1821163723943N08014818WA0146501577003000004000
B1821173723954N08014836WA0146501576003000004000
B1821183723969N08014850WA0147101577003000004000
B1821193723987N08014857WA0147201579003004004000
B1821203724005N08014856WA0147501582003020005000
B1821213724020N08014849WA0147801584003041005000
B1821223724033N08014837WA0147901585003060005000
B1821233724043N08014822WA0147701586003072004000
B1821243724050N08014805WA0147801585003067004000
B1821253724052N08014786WA0147801585003055004000
B1821263724051N08014768WA0147801586003046004000
B1821273724046N08014751WA0147901587003043004000
B1821283724038N08014737WA0148001587003048004000
B1821293724028N08014726WA0148301587003057004000
B1821303724015N08014719WA0148501588003064004000
B1821313724001N08014716WA0148601590003060004000
B1821323723986N08014718WA0148901593003050004000
B1821333723972N08014723WA0149301597003036004000
B1821343723958N08014730WA0149601600003022004000
B1821353723945N08014739WA0149801604003011004000
B1821363723932N08014749WA0149801606003004004000
B1821373723919N08014761WA0149901608003000004000
B1821383723908N08014774WA0150001609003000004000
B1821393723897N08014789WA0150201610003000004000
B1821403723887N08014805WA0150301612003000004000
B1821413723877N08014822WA0150401614003000004000
B1821423723868N08014839WA0150501615003000004000
B1821433723859N08014857WA0150401616003000004000
B1821443723850N08014875WA0150501616003000004000
B1821453723841N08014893WA0150501616003000004000
B1821463723833N08014912WA0150301616003000004000
B1821473723825N08014931WA0149801614003002004000
B1821483723817N08014950WA0149401611003004004000
B1821493723809N08014970WA0149301607003016004000
B1821503723800N08014990WA0149101606003034004000
B1821513723792N08015011WA0148901604003053004000
B1821523723783N08015032WA0148401600003081004000
B1821533723774N08015053WA0148101596003104004000
B1821543723765N08015074WA0147901593003121004000
B1821553723756N08015097WA0147801592003137004000
B1821563723746N08015119WA0147701591003144004000
B1821573723736N08015142WA0147601590003135004000
B1821583723726N08015164WA0147801590003118004000
B1821593723717N08015187WA0147701590003099004000
B1822003723707N08015209WA0147501590003076004000
B1822013723697N08015232WA0147301588003064004000
B1822023723688N08015254WA0147101586003062004000
B1822033723678N08015276WA0146701584003062004000
B1822043723668N08015299WA0146101581003067004000
B1822053723658N08015321WA0145801576003071004000
B1822063723648N08015344WA0145301572003076004000
B1822073723637N08015368WA0145101567003079004000
B1822083723626N08015391WA0144701564003083004000
B1822093723613N08015414WA0144401561003088004000
B1822103723600N08015436WA0144101558003093004000
B1822113723585N08015457WA0143801555003095004000
B1822123723570N08015478WA0143601552003090004000
B1822133723554N08015499WA0143201549003083004000
B1822143723538N08015519WA0143101546003069004000
B1822153723521N08015540WA0142901544003053004000
B1822163723504N08015559WA0142701542003039004000
B1822173723486N08015579WA0142401540003027004000
B1822183723469N08015599WA0142401538003018004000
B1822193723451N08015618WA0142401538003011004000
B1822203723434N08015638WA0142601538003006004000
B1822213723417N08015657WA0142601538003000004000
B1822223723400N08015676WA0142401538003000004000
B1822233723383N08015695WA0142601538003000004000
B1822243723366N08015714WA0142601538003000004000
B1822253723350N08015733WA0142701539003011004000
B1822263723334N08015752WA0142701540003023004000
B1822273723318N08015771WA0142801541003029004000
B1822283723303N08015789WA0143001542003025004000
B1822293723287N08015807WA0142901543003016004000
B1822303723272N08015825WA0142901544003006004000
B1822313723256N08015842WA0142801544003000004000
B1822323723241N08015859WA0142701544003000004000
B1822333723226N08015877WA0142601542003000004000
B1822343723211N08015894WA0142201539003002004000
B1822353723196N08015911WA0141801535003016004000
B1822363723181N08015929WA0141301531003034004000
B1822373723166N08015947WA0141001527003055004000
B1822383723151N08015965WA0140701523003064004000
B1822393723135N08015983WA0140301519003069004000
B1822403723120N08016002WA0140001516003069004000
B1822413723104N08016021WA0139701513003064004000
B1822423723088N08016040WA0139601510003057004000
B1822433723072N08016060WA0139701509003057004000
B1822443723057N08016080WA0139401508003053004000
B1822453723042N08016101WA0139401507003048004000
B1822463723027N08016122WA0139501506003041004000
B1822473723012N08016143WA0139401506003029004000
B1822483722998N08016165WA0139301506003018004000
B1822493722984N08016187WA0139601506003009004000
B1822503722970N08016209WA0139601507003002004000
B1822513722956N08016231WA0139601509003000004000
B1822523722942N08016252WA0139601509003000004000
B1822533722928N08016273WA0139601508003000004000
B1822543722913N08016294WA0139601508003000004000
B1822553722899N08016314WA0139601508003002004000
B1822563722884N08016334WA0139501508003016004000
B1822573722870N08016353WA0139601509003034004000
B1822583722855N08016373WA0139601509003055004000
B1822593722841N08016393WA0139701509003074004000
B1823003722828N08016412WA0140201511003088004000
B1823013722815N08016432WA0140401514003090004000
B1823023722802N08016452WA0140701518003085004000
B1823033722790N08016472WA0140801520003076004000
B1823043722779N08016492WA0140801521003067004000
B1823053722767N08016512WA0140801521003062004000
B1823063722756N08016531WA0140801521003060004000
B1823073722745N08016551WA0141201523003060004000
B1823083722735N08016571WA0141501526003053004000
B1823093722725N08016592WA0141501528003048004000
B1823103722715N08016612WA0141901530003039004000
B1823113722706N08016632WA0142301533003025004000
B1823123722697N08016653WA0142701536003018004000
B1823133722688N08016673WA0142501539003009004000
B1823143722680N08016693WA0142301540003006004000
B1823153722672N08016714WA0142301538003009004000
B1823163722665N08016735WA0142401537003013004000
B1823173722659N08016757WA0142601538003020004000
B1823183722654N08016780WA0142801539003024004000
B1823193722649N08016802WA0142801540003029004000
B1823203722645N08016825WA0142901542003027004000
B1823213722641N08016848WA0143301543003029004000
B1823223722637N08016871WA0143501546003032004000
B1823233722633N08016893WA0143801548003032004000
B1823243722629N08016916WA0144001551003032004000
B1823253722625N08016939WA0144201554003023004000
B1823263722622N08016962WA0144601556003013004000
B1823273722619N08016984WA0144801559003002004000
F182327290527101513321851234424
B1823283722620N08017008WA0144901561003000004000
B1823293722626N08017029WA0145101563003000004000
B1823303722639N08017045WA0145301565003000004000
B1823313722656N08017053WA0145601567003000004000
B1823323722674N08017052WA0145901570003000004000
B1823333722690N08017044WA0146401573003009004000
B1823343722704N08017033WA0146601577003015004000
B1823353722715N08017018WA0146701579003025004000
B1823363722723N08017002WA0147001580003032004000
B1823373722727N08016985WA0146901581003034004000
B1823383722728N08016967WA0147001582003034004000
B1823393722727N08016949WA0146901582003041004000
B1823403722723N08016932WA0146801581003050004000
B1823413722717N08016916WA0146701580003060004000
B1823423722708N08016902WA0146601578003081004000
B1823433722697N08016891WA0146401576003095004000
B1823443722684N08016883WA0146501575003107004000
B1823453722670N08016878WA0146501575003109004000
B1823463722655N08016876WA0146501575003100004000
B1823473722639N08016876WA0146701575003083004000
B1823483722623N08016879WA0146801576003062004000
B1823493722607N08016885WA0146801577003050004000
B1823503722592N08016892WA0147201579003036004000
B1823513722577N08016903WA0147301581003025004000
B1823523722564N08016916WA0147601583003018004000
F1823522905271015131851234424
B1823533722551N08016932WA0147801586003009004000
B1823543722541N08016949WA0148001588003002004000
F182354290527101513321851234424
B1823553722531N08016968WA0148101590003000004000
B1823563722522N08016987WA0148401592003000004000
B1823573722514N08017007WA0148501594003000004000
B1823583722506N08017027WA0148601596003000004000
B1823593722500N08017047WA0148801598003000004000
B1824003722494N08017068WA0148801598003000004000
B1824013722489N08017090WA0148801599003000004000
B1824023722484N08017112WA0148601599003000004000
B1824033722479N08017134WA0148501598003000004000
B1824043722475N08017156WA0148301597003011004000
B1824053722470N08017179WA0148001595003034004000
B1824063722466N08017202WA0147501592003058004000
B1824073722462N08017225WA0146701587003083004000
B1824083722458N08017249WA0146001580003095004000
B1824093722454N08017275WA0145401572003100004000
B1824103722450N08017301WA0145001566003102004000
B1824113722446N08017328WA0144601561003102004000
B1824123722441N08017355WA0144401558003104004000
B1824133722437N08017382WA0144101555003095004000
B1824143722432N08017410WA0143901553003086004000
B1824153722428N08017438WA0143701550003076004000
B1824163722423N08017465WA0143601548003069004000
B1824173722419N08017493WA0143201546003071004000
B1824183722414N08017521WA0143001544003074004000
B1824193722410N08017549WA0143001542003074004000
B1824203722406N08017578WA0142701540003071004000
B1824213722402N08017607WA0142401539003064004000
B1824223722399N08017636WA0142401537003055004000
B1824233722397N08017665WA0142401536003046004000
B1824243722396N08017695WA0142201535003036004000
B1824253722395N08017724WA0142001533003029004000
B1824263722394N08017753WA0141901531003022004000
B1824273722394N08017782WA0141801531003015004000
B1824283722393N08017811WA0141901531003006004000
B1824293722393N08017840WA0142001531003002004000
B1824303722394N08017868WA0142001532003009004000
B1824313722394N08017897WA0142001532003020004000
B1824323722395N08017925WA0141801531003036004000
B1824333722396N08017953WA0141701529003046004000
B1824343722397N08017981WA0141401527003043004000
B1824353722399N08018009WA0141401526003032004000
B1824363722400N08018036WA0141401525003025004000
B1824373722401N08018064WA0141301524003025004000
B1824383722401N08018092WA0141001523003029004000
B1824393722401N08018120WA0140801521003039004000
B1824403722399N08018148WA0140601519003043004000
B1824413722395N08018176WA0140401516003050004000
B1824423722391N08018204WA0140101514003050004000
B1824433722385N08018232WA0140201512003046004000
B1824443722378N08018259WA0140101512003039004000
B1824453722371N08018287WA0140001512003025004000
B1824463722363N08018313WA0139801510003015004000
B1824473722355N08018340WA0139701509003009004000
B1824483722346N08018366WA0139601508003004004000
B1824493722337N08018392WA0139301506003002004000
B1824503722328N08018417WA0139101505003002004000
B1824513722318N08018443WA0139001503003009004000
B1824523722307N08018467WA0139001501003022004000
B1824533722296N08018492WA0138801500003039004000
B1824543722285N08018515WA0138901499003050004000
B1824553722273N08018538WA0138801499003060004000
B1824563722261N08018561WA0138401497003062004000
B1824573722248N08018583WA0138101494003064004000
B1824583722236N08018605WA0137801491003072004000
B1824593722223N08018627WA0137801489003081004000
B1825003722210N08018650WA0137701487003081004000
B1825013722198N08018672WA0137601486003076004000
B1825023722185N08018695WA0137401485003067004000
B1825033722172N08018717WA0137001483003048004000
B1825043722159N08018740WA0136801480003036004000
B1825053722147N08018762WA0136701478003025004000
B1825063722134N08018785WA0136701477003013004000
B1825073722121N08018807WA0136401476003011004000
B1825083722109N08018830WA0136201474003016004000
B1825093722096N08018852WA0136201472003025004000
B1825103722084N08018875WA0136001471003036004000
B1825113722071N08018898WA0135801469003046004000
B1825123722059N08018920WA0135501466003050004000
B1825133722046N08018943WA0135501464003055004000
B1825143722033N08018965WA0135201462003060004000
B1825153722020N08018988WA0135301461003060004000
B1825163722007N08019010WA0135101461003060004000
B1825173721994N08019032WA0134801459003057004000
B1825183721981N08019054WA0134701457003055004000
B1825193721968N08019076WA0134201454003055004000
B1825203721954N08019098WA0134001451003055004000
