ACAM4LM
HFDTE230421
HFFXA050
HFPLTPILOT:JASON ARNOLD            
HFGTYGLIDERTYPE:Discus      
HFGIDGLIDERID:N147JA      
HFDTM100GPSDATUM:
HFRFWFIRMWAREVERSION:F2.6
HFRHWHARDWAREVERSION:300 Series Version 2
HFFTYFRTYPE:CAMBRIDGE AERO INSTRUMENTS, 302+
HFGPS:GARMIN,LVS-25,12,18000
HFPRSPRESSALTSENSOR:INTERSEMA, MS5534-AP, 20000
I033638FXA3941ENL4247REX
LCAMSBVER:5FWVER:F26300
C230421161538230421000103
C0000000N00000000WTAKEOFF     
C3334000N08120000W04Start 4   
C3339917N08142533W38West Aiken
C3327733N08125467W41Williston 
C3259700N08116217W07Allendale 
C3337617N08119733W05Finish    
C0000000N00000000WLANDING     
B1636203337802N08119585WA0005900124000000000000
B1636223337802N08119585WA0005900123000000000000
B1636243337802N08119585WA0005800123000000000000
B1636263337802N08119585WA0005800123000000000000
B1636283337802N08119585WA0005800124000000000000
B1636303337802N08119585WA0005800124000000000000
B1636323337802N08119585WA0005700124000000000000
B1636343337802N08119585WA0005800124000004000000
B1636363337802N08119585WA0005800124000000000000
B1636383337802N08119585WA0005800124000004000000
B1636403337802N08119585WA0005800124000004000000
B1636423337802N08119585WA0005800124000004000000
B1636443337802N08119585WA0005800124000004000000
B1636463337802N08119585WA0005800124000000000000
B1636483337803N08119586WA0005800124000000000000
B1636503337801N08119595WA0005800124000000000000
B1636533337797N08119619WA0005600124000004000000
B1636563337788N08119654WA0005500123000004000000
B1636593337777N08119698WA0005300123000004000000
B1637023337766N08119754WA0005200123000004000000
B1637053337751N08119816WA0005200124000004000000
B1637083337735N08119887WA0005000125000004000000
B1637113337715N08119958WA0005300133000000000000
B1637143337694N08120030WA0006700151000000000000
B1637173337676N08120099WA0007700167000000000000
B1637203337657N08120169WA0009200181000000000000
B1637233337636N08120238WA0010700201000000000000
B1637263337616N08120308WA0012400218000004000000
B1637293337606N08120381WA0014600233000000000000
B1637323337606N08120456WA0015700245000000000000
B1637353337625N08120531WA0016700262000000000000
B1637383337655N08120602WA0018300275000004000000
B1637413337686N08120667WA0019800295000004000000
B1637443337719N08120730WA0021600310000004000000
B1637473337753N08120794WA0023200323000004000000
B1637503337788N08120858WA0024500338000004000000
B1637533337822N08120920WA0026200360000004000000
B1637563337858N08120980WA0028100375000004000000
B1637593337897N08121037WA0029500386000004000000
B1638023337935N08121090WA0031000405000004000000
B1638053337976N08121144WA0032200409000004000000
B1638083338024N08121189WA0032800413000004000000
B1638113338084N08121223WA0033200416000000000000
B1638143338148N08121246WA0033500423000000000000
B1638173338214N08121258WA0034100430000004000000
B1638203338283N08121252WA0034800441000004000000
B1638233338348N08121232WA0035800453000004000000
B1638263338409N08121209WA0037200469000000000000
B1638293338473N08121188WA0038800482000000000000
B1638323338535N08121162WA0040000493000004000000
B1638353338599N08121137WA0041300509000004000000
B1638383338660N08121111WA0043000524000004000000
B1638413338719N08121083WA0044300536000004000000
B1638443338780N08121055WA0045400544000004000000
B1638473338841N08121024WA0046000544000000000000
B1638503338898N08120985WA0046300558000004000000
B1638533338950N08120938WA0047400567000004000000
B1638563338998N08120885WA0048400574000004000000
B1638593339046N08120829WA0049300584000004000000
B1639023339090N08120769WA0050200597000000000000
B1639053339132N08120708WA0051300612000004000000
B1639083339178N08120648WA0052900624000000000000
B1639113339226N08120590WA0053900638000000000000
B1639143339270N08120528WA0055400653000000000000
B1639173339311N08120461WA0057100668000004000000
B1639203339354N08120399WA0058400681000004000000
B1639233339395N08120334WA0059200693000004000000
B1639263339434N08120266WA0060400703000004000000
B1639293339471N08120197WA0061400707000000000000
B1639323339505N08120126WA0062100716000004000000
B1639353339538N08120054WA0062900724000004000000
B1639383339569N08119980WA0063600731000004000000
B1639413339601N08119907WA0064500742000000000000
B1639443339631N08119832WA0065500748000000000000
B1639473339644N08119759WA0066300758000000000000
B1639503339648N08119689WA0066700748000000000000
B1639533339655N08119615WA0065600729000004000000
B1639563339652N08119540WA0064000718000000000000
B1639593339634N08119468WA0062900712000000000000
B1640023339607N08119410WA0062900717000000000000
B1640053339575N08119361WA0063100717000000000000
B1640083339540N08119325WA0063400722000000000000
B1640113339504N08119296WA0063900734000000000000
B1640143339467N08119280WA0065000744000004000000
B1640173339438N08119251WA0065900745000004000000
B1640203339425N08119204WA0066200750000000000000
B1640233339427N08119156WA0066400745000000000000
B1640263339447N08119112WA0065900733000000000000
B1640293339493N08119095WA0065200731000000000000
B1640323339534N08119121WA0065600746000000000000
B1640353339535N08119169WA0066600751000000000000
B1640383339497N08119186WA0067000751000000000000
B1640413339470N08119144WA0067000752000000000000
B1640443339493N08119091WA0067300757000000000000
B1640473339544N08119095WA0067500756000000000000
B1640503339568N08119143WA0068000770000000000000
B1640533339556N08119181WA0069300780000000000000
B1640563339518N08119181WA0069400764000000000000
B1640593339501N08119121WA0068300763000004000000
B1641023339529N08119066WA0068500774000004000000
B1641053339569N08119036WA0069900788000004000000
B1641083339608N08119053WA0071200795000000000000
B1641113339613N08119100WA0071300790000000000000
B1641143339587N08119135WA0071200794000004000000
B1641173339545N08119135WA0071500798000004000000
B1641203339513N08119104WA0072300810000000000000
B1641233339504N08119056WA0073200810000000000000
B1641263339516N08119004WA0072400793000000000000
B1641293339547N08118953WA0071700801000000000000
B1641323339568N08118905WA0072900817000000000000
B1641353339601N08118871WA0073800820000000000000
B1641383339647N08118877WA0074000822000000000000
B1641413339675N08118916WA0074200827000004000000
B1641443339673N08118960WA0074800837000004000000
B1641473339648N08118988WA0075700842000000000000
B1641503339610N08118991WA0076200846000000000000
B1641533339578N08118962WA0076700853000000000000
B1641563339566N08118914WA0077400863000000000000
B1641593339575N08118867WA0078500867000000000000
B1642023339607N08118832WA0078500859000000000000
B1642053339652N08118818WA0078000858000000000000
B1642083339696N08118838WA0078000864000000000000
B1642113339721N08118878WA0078700868000000000000
B1642143339721N08118923WA0079400879000000000000
B1642173339709N08118958WA0080300885000000000000
B1642203339674N08118969WA0080600885000000000000
B1642233339643N08118939WA0080700893000000000000
B1642263339639N08118888WA0081500897000000000000
B1642293339668N08118843WA0082100902000000000000
B1642323339713N08118831WA0082600909000000000000
B1642353339747N08118858WA0083300913000000000000
B1642383339751N08118903WA0083700918000000000000
B1642413339726N08118930WA0084100918000000000000
B1642443339688N08118922WA0084300928000000000000
B1642473339665N08118890WA0085100933000000000000
B1642503339665N08118836WA0085400929000000000000
B1642533339690N08118783WA0085100932000004000000
B1642563339731N08118753WA0085900947000004000000
B1642593339773N08118741WA0087100953000004000000
B1643023339812N08118758WA0087500951000000000000
B1643053339835N08118801WA0087200949000004000000
B1643083339841N08118847WA0087300954000004000000
B1643113339826N08118880WA0087600955000004000000
B1643143339795N08118896WA0087700957000004000000
B1643173339761N08118897WA0088000967000004000000
B1643203339733N08118875WA0088700969000004000000
B1643233339721N08118827WA0089000969000000000000
B1643263339733N08118773WA0089100973000004000000
B1643293339769N08118732WA0089500981000004000000
B1643323339816N08118724WA0090300989000000000000
B1643353339854N08118752WA0091000990000000000000
B1643383339870N08118796WA0091100989000000000000
B1643413339861N08118840WA0090900991000000000000
B1643443339831N08118865WA0091100996000004000000
B1643473339795N08118862WA0091601000000004000000
B1643503339765N08118831WA0091901002000004000000
B1643533339752N08118780WA0092201005000004000000
B1643563339759N08118723WA0092401001000004000000
B1643593339783N08118669WA0092201005000004000000
B1644023339822N08118631WA0092701015000004000000
B1644053339870N08118628WA0093901029000004000000
B1644083339904N08118656WA0094901031000004000000
B1644113339904N08118697WA0095301033000004000000
B1644143339876N08118714WA0095501033000004000000
B1644173339843N08118685WA0095301032000004000000
B1644203339833N08118631WA0095401037000000000000
B1644233339837N08118576WA0095901045000004000000
B1644263339854N08118526WA0096901051000004000000
B1644293339896N08118496WA0097201045000000000000
B1644323339945N08118498WA0096401036000000000000
B1644353339981N08118532WA0095501031000000000000
B1644383339997N08118579WA0095401038000000000000
B1644413339995N08118623WA0096101044000000000000
B1644443339985N08118663WA0096401047000000000000
B1644473339963N08118693WA0096701051000000000000
B1644503339932N08118708WA0096801046000000000000
B1644533339891N08118698WA0096201040000000000000
B1644563339852N08118670WA0095801045000000000000
B1644593339824N08118624WA0096101042000000000000
B1645023339804N08118570WA0096201044000000000000
B1645053339782N08118518WA0096101045000000000000
B1645083339747N08118477WA0095801033000004000000
B1645113339700N08118454WA0094101013000004000000
B1645143339644N08118448WA0092401000000004000000
B1645173339586N08118454WA0091300996000004000000
B1645203339527N08118474WA0091000995000004000000
B1645233339473N08118502WA0091301003000004000000
B1645263339426N08118535WA0092301015000004000000
B1645293339380N08118566WA0092801019000000000000
B1645323339341N08118602WA0093501029000000000000
B1645353339305N08118641WA0094501033000004000000
B1645383339265N08118676WA0094901037000000000000
B1645413339243N08118734WA0095701050000000000000
B1645443339228N08118784WA0097701083000000000000
B1645473339187N08118784WA0100201098000000000000
B1645503339170N08118734WA0101601103000000000000
B1645533339198N08118684WA0102001105000000000000
B1645563339248N08118672WA0102501114000000000000
B1645593339288N08118698WA0103501124000000000000
B1646023339305N08118747WA0104601136000000000000
B1646053339301N08118795WA0105601144000004000000
B1646083339271N08118825WA0106301149000004000000
B1646113339231N08118815WA0107001155000000000000
B1646143339206N08118778WA0107601167000000000000
B1646173339201N08118730WA0108501168000000000000
B1646203339218N08118679WA0108801175000000000000
B1646233339253N08118637WA0109201174000004000000
B1646263339302N08118611WA0109201182000004000000
B1646293339350N08118598WA0110401202000004000000
B1646323339392N08118620WA0112201212000004000000
B1646353339414N08118667WA0112801210000004000000
B1646383339402N08118721WA0112701212000004000000
B1646413339374N08118756WA0113401228000004000000
B1646443339345N08118784WA0114701238000004000000
B1646473339309N08118788WA0116101252000004000000
B1646503339275N08118766WA0116901254000004000000
B1646533339249N08118724WA0117401255000004000000
B1646563339248N08118667WA0117201253000004000000
B1646593339274N08118614WA0117501269000004000000
B1647023339309N08118574WA0119001286000004000000
B1647053339353N08118562WA0120701295000004000000
B1647083339392N08118591WA0121601299000004000000
B1647113339405N08118641WA0122201306000004000000
B1647143339391N08118689WA0122901316000004000000
B1647173339356N08118715WA0123701320000004000000
B1647203339311N08118705WA0124401330000000000000
B1647233339279N08118671WA0125701343000000000000
B1647263339254N08118631WA0126401345000004000000
B1647293339250N08118579WA0127101352000004000000
B1647323339267N08118527WA0127201353000004000000
B1647353339304N08118487WA0127601359000004000000
B1647383339352N08118470WA0128101365000004000000
B1647413339401N08118477WA0128701373000000000000
B1647443339443N08118498WA0129501387000004000000
B1647473339473N08118537WA0130601390000000000000
B1647503339486N08118589WA0130901396000000000000
B1647533339486N08118640WA0131501403000000000000
B1647563339465N08118684WA0132201409000000000000
B1647593339430N08118717WA0132501410000000000000
B1648023339386N08118726WA0132901416000000000000
B1648053339341N08118711WA0133501424000000000000
B1648083339306N08118682WA0133801417000004000000
B1648113339289N08118631WA0133001405000004000000
B1648143339295N08118571WA0131701393000000000000
B1648173339321N08118516WA0131501408000004000000
B1648203339344N08118468WA0133601430000004000000
B1648233339378N08118432WA0135201435000004000000
B1648263339426N08118418WA0135601439000004000000
B1648293339474N08118432WA0135901445000004000000
B1648323339506N08118472WA0136201450000000000000
B1648353339522N08118522WA0137001463000004000000
B1648383339519N08118571WA0138001464000000000000
B1648413339496N08118619WA0137601453000004000000
B1648443339456N08118662WA0136601457000004000000
B1648473339417N08118705WA0137701462000000000000
B1648503339379N08118754WA0137201446000000000000
B1648533339339N08118810WA0136101448000000000000
B1648563339298N08118861WA0135801441000000000000
B1648593339257N08118912WA0135301432000000000000
B1649023339215N08118964WA0134401425000000000000
B1649053339171N08119018WA0133901429000000000000
B1649083339136N08119068WA0135301447000000000000
B1649113339102N08119111WA0136101447000000000000
B1649143339068N08119153WA0135301427000000000000
B1649173339033N08119203WA0133201408000000000000
B1649203339003N08119263WA0132001396000000000000
B1649233338979N08119328WA0130701388000000000000
B1649263338955N08119394WA0130001383000000000000
B1649293338928N08119459WA0129301375000004000000
B1649323338903N08119524WA0128601369000000000000
B1649353338881N08119592WA0128001362000004000000
B1649383338858N08119659WA0127201356000000000000
B1649413338836N08119722WA0127201362000000000000
B1649443338816N08119779WA0127701365000000000000
B1649473338797N08119833WA0127801358000000000000
B1649503338771N08119888WA0127001346000000000000
B1649533338742N08119944WA0125801339000000000000
B1649563338713N08119998WA0125101331000000000000
B1649593338682N08120052WA0125301346000000000000
B1650023338659N08120091WA0127701370000000000000
B1650053338639N08120123WA0128301364000000000000
B1650083338619N08120160WA0127901351000000000000
B1650113338594N08120200WA0126201324000000000000
B1650143338563N08120247WA0123501299000004000000
B1650173338525N08120296WA0121101292000000000000
B1650203338486N08120335WA0121301312000000000000
B1650233338455N08120368WA0122801323000004000000
B1650263338427N08120398WA0123901322000004000000
B1650293338399N08120429WA0123301298000000000000
B1650323338359N08120466WA0120601270000000000000
B1650353338313N08120511WA0118201259000000000000
B1650383338269N08120552WA0117301259000000000000
B1650413338219N08120581WA0117001253000000000000
B1650443338166N08120599WA0116301243000000000000
B1650473338110N08120609WA0115301234000000000000
B1650503338053N08120615WA0114501229000004000000
B1650533337995N08120620WA0113701220000004000000
B1650563337935N08120625WA0112701207000004000000
B1650593337874N08120630WA0111401196000004000000
B1651023337811N08120638WA0110801185000004000000
B1651053337750N08120645WA0109701182000000000000
B1651083337690N08120650WA0109401188000004000000
B1651113337638N08120656WA0110401205000000000000
B1651143337593N08120667WA0111901215000000000000
B1651173337551N08120677WA0112901217000000000000
B1651203337507N08120687WA0112701204000000000000
B1651233337458N08120697WA0111401191000000000000
B1651263337406N08120704WA0110301183000000000000
B1651293337351N08120708WA0109101172000000000000
B1651323337296N08120715WA0108101162000004000000
B1651353337241N08120721WA0107001153000004000000
B1651383337183N08120730WA0106001143000004000000
B1651413337127N08120742WA0105501144000004000000
B1651443337074N08120752WA0105301140000004000000
B1651473337020N08120763WA0104901129000004000000
B1651503336965N08120782WA0104101129000000000000
B1651533336916N08120810WA0104401146000000000000
B1651563336873N08120840WA0106001162000004000000
B1651593336834N08120864WA0107501171000000000000
B1652023336793N08120876WA0108701181000004000000
B1652053336754N08120889WA0109801193000000000000
B1652083336719N08120869WA0110701198000000000000
B1652113336715N08120817WA0111601205000004000000
B1652143336749N08120780WA0112601220000004000000
B1652173336793N08120784WA0114001233000004000000
B1652203336823N08120823WA0115001235000000000000
B1652233336825N08120876WA0115401243000000000000
B1652263336800N08120912WA0116101252000000000000
B1652293336763N08120918WA0117001257000000000000
B1652323336731N08120892WA0117401259000000000000
B1652353336721N08120845WA0117801265000000000000
B1652383336741N08120799WA0118701276000000000000
B1652413336783N08120782WA0119901288000000000000
B1652443336821N08120810WA0121301298000000000000
B1652473336826N08120862WA0121701298000004000000
B1652503336799N08120903WA0121901306000004000000
B1652533336762N08120916WA0122901320000004000000
B1652563336731N08120894WA0124001323000000000000
B1652593336727N08120847WA0124201321000000000000
B1653023336760N08120810WA0124301330000000000000
B1653053336801N08120810WA0125401344000000000000
B1653083336831N08120843WA0126401345000000000000
B1653113336830N08120898WA0126501349000000000000
B1653143336799N08120932WA0127101358000000000000
B1653173336758N08120927WA0127501355000000000000
B1653203336732N08120888WA0127201352000000000000
B1653233336734N08120834WA0127401360000000000000
B1653263336749N08120790WA0128501376000000000000
B1653293336770N08120754WA0129701382000000000000
B1653323336804N08120732WA0130101380000000000000
B1653353336848N08120736WA0129701376000000000000
B1653383336887N08120768WA0129501380000000000000
B1653413336913N08120814WA0130101391000000000000
B1653443336922N08120864WA0131201404000000000000
B1653473336913N08120912WA0132301411000000000000
B1653503336890N08120950WA0132901408000000000000
B1653533336852N08120970WA0132401403000004000000
B1653563336814N08120963WA0132101398000004000000
B1653593336780N08120934WA0131201387000000000000
B1654023336757N08120888WA0129901374000000000000
B1654053336753N08120828WA0129301379000000000000
B1654083336770N08120773WA0130001389000000000000
B1654113336802N08120734WA0131001399000000000000
B1654143336844N08120716WA0131901405000000000000
B1654173336890N08120721WA0132201407000000000000
B1654203336934N08120736WA0132501407000000000000
B1654233336975N08120756WA0132901412000000000000
B1654263337003N08120795WA0133501420000000000000
B1654293336997N08120845WA0133901418000000000000
B1654323336960N08120875WA0133901424000000000000
B1654353336917N08120875WA0134201428000000000000
B1654383336878N08120846WA0134701433000000000000
B1654413336854N08120802WA0135201440000000000000
B1654443336851N08120750WA0136101442000000000000
B1654473336869N08120700WA0136301444000000000000
B1654503336904N08120667WA0136601448000000000000
B1654533336949N08120656WA0136701452000000000000
B1654563336994N08120674WA0137001451000000000000
B1654593337025N08120719WA0136801444000000000000
B1655023337036N08120778WA0136201442000000000000
B1655053337036N08120834WA0136401455000000000000
B1655083337026N08120881WA0137401466000000000000
B1655113336995N08120912WA0138201464000000000000
B1655143336956N08120919WA0137601451000000000000
B1655173336922N08120892WA0136601437000000000000
B1655203336909N08120837WA0135501434000000000000
B1655233336925N08120784WA0135601441000000000000
B1655263336960N08120750WA0136301448000000000000
B1655293337005N08120745WA0136701447000000000000
B1655323337049N08120755WA0136801448000000000000
B1655353337092N08120773WA0136901452000004000000
B1655383337133N08120798WA0137201455000004000000
B1655413337166N08120834WA0137401456000004000000
B1655443337190N08120880WA0137501460000004000000
B1655473337195N08120932WA0137701462000004000000
B1655503337176N08120973WA0137601460000004000000
B1655533337133N08120988WA0137401454000004000000
B1655563337087N08120979WA0136601445000004000000
B1655593337048N08120950WA0136101443000004000000
B1656023337018N08120908WA0135901437000004000000
B1656053337000N08120860WA0135301435000004000000
B1656083336995N08120808WA0135301434000000000000
B1656113337001N08120755WA0135201434000000000000
B1656143337022N08120706WA0135301434000000000000
B1656173337056N08120668WA0135201434000000000000
B1656203337098N08120646WA0135401439000000000000
B1656233337143N08120639WA0135801440000000000000
B1656263337190N08120648WA0136101448000000000000
B1656293337233N08120664WA0136701451000004000000
B1656323337269N08120695WA0136901452000000000000
B1656353337291N08120745WA0136801448000000000000
B1656383337290N08120801WA0136401445000000000000
B1656413337269N08120854WA0135701440000000000000
B1656443337233N08120886WA0135801446000000000000
B1656473337190N08120890WA0136401449000000000000
B1656503337148N08120868WA0136201439000000000000
B1656533337122N08120821WA0135801441000000000000
B1656563337113N08120764WA0136101447000000000000
B1656593337117N08120711WA0136601449000004000000
B1657023337137N08120663WA0136901454000000000000
B1657053337166N08120624WA0137201460000000000000
B1657083337203N08120593WA0137701461000000000000
B1657113337244N08120570WA0138101469000004000000
B1657143337290N08120568WA0138801475000004000000
B1657173337335N08120582WA0139201473000004000000
B1657203337373N08120619WA0139001472000004000000
B1657233337399N08120667WA0139001476000004000000
B1657263337419N08120717WA0139301481000004000000
B1657293337433N08120767WA0140001487000000000000
B1657323337445N08120815WA0140301486000000000000
B1657353337450N08120866WA0139901477000000000000
B1657383337442N08120918WA0139401479000000000000
B1657413337428N08120964WA0139501481000000000000
B1657443337413N08121007WA0139801485000004000000
B1657473337397N08121046WA0140501488000000000000
B1657503337372N08121080WA0140801494000004000000
B1657533337339N08121100WA0141401497000004000000
B1657563337299N08121098WA0141201484000000000000
B1657593337259N08121075WA0140101471000004000000
B1658023337229N08121031WA0138901462000000000000
B1658053337216N08120973WA0138101459000000000000
B1658083337220N08120918WA0137401448000000000000
B1658113337244N08120869WA0137001451000000000000
B1658143337281N08120840WA0136901447000000000000
B1658173337322N08120824WA0136601444000000000000
B1658203337365N08120824WA0136401441000004000000
B1658233337408N08120837WA0135901437000004000000
B1658263337446N08120862WA0135801438000000000000
B1658293337476N08120894WA0135701434000000000000
B1658323337501N08120931WA0135401430000004000000
B1658353337520N08120973WA0135101428000004000000
B1658383337529N08121020WA0135001433000004000000
B1658413337523N08121066WA0135401439000000000000
B1658443337502N08121102WA0135901442000004000000
B1658473337469N08121122WA0136201445000000000000
B1658503337430N08121119WA0136401447000004000000
B1658533337391N08121097WA0136701451000004000000
B1658563337359N08121061WA0137301461000004000000
B1658593337330N08121020WA0138101470000004000000
B1659023337313N08120971WA0138501468000000000000
B1659053337312N08120915WA0138901471000000000000
B1659083337326N08120863WA0139001469000004000000
B1659113337359N08120823WA0138801467000004000000
B1659143337400N08120802WA0138601468000004000000
B1659173337445N08120797WA0138601464000000000000
B1659203337489N08120811WA0138001459000004000000
B1659233337527N08120841WA0137701457000004000000
B1659263337554N08120880WA0137701463000004000000
B1659293337563N08120925WA0138401467000004000000
B1659323337554N08120971WA0138401464000004000000
B1659353337527N08121007WA0138301465000004000000
B1659383337489N08121027WA0138601475000004000000
B1659413337449N08121027WA0139201483000004000000
B1659443337410N08121005WA0140101490000004000000
B1659473337380N08120963WA0141001499000004000000
B1659503337360N08120914WA0141601498000004000000
B1659533337339N08120866WA0141201483000004000000
B1659563337322N08120814WA0139901475000004000000
B1659593337313N08120756WA0139001467000000000000
B1700023337316N08120697WA0138001461000004000000
B1700053337330N08120637WA0137201453000004000000
B1700083337350N08120574WA0136301443000004000000
B1700113337376N08120511WA0135601440000000000000
B1700143337406N08120448WA0135601451000004000000
B1700173337438N08120391WA0136501458000004000000
B1700203337482N08120351WA0137201464000000000000
B1700233337537N08120331WA0137801472000004000000
B1700263337593N08120331WA0138501480000004000000
B1700293337642N08120355WA0139401489000004000000
B1700323337679N08120396WA0140301493000004000000
B1700353337698N08120451WA0140901497000000000000
B1700383337703N08120507WA0141701509000000000000
B1700413337707N08120559WA0142801518000000000000
B1700443337718N08120607WA0143401519000000000000
B1700473337732N08120654WA0143201510000004000000
B1700503337750N08120703WA0142501505000000000000
B1700533337759N08120755WA0141801498000000000000
B1700563337755N08120811WA0141501496000000000000
B1700593337740N08120863WA0141501497000000000000
B1701023337720N08120908WA0141701500000000000000
B1701053337696N08120950WA0142001502000000000000
B1701083337671N08120992WA0142001504000000000000
B1701113337651N08121037WA0142501515000000000000
B1701143337640N08121084WA0143401519000004000000
B1701173337641N08121132WA0143301508000000000000
B1701203337653N08121181WA0142401494000000000000
B1701233337668N08121233WA0141001482000000000000
B1701263337681N08121287WA0139901473000004000000
B1701293337683N08121341WA0139301475000000000000
B1701323337668N08121392WA0139201477000000000000
B1701353337640N08121430WA0139601479000000000000
B1701383337603N08121454WA0139701480000004000000
B1701413337562N08121461WA0139801480000004000000
B1701443337520N08121448WA0139801484000004000000
B1701473337484N08121423WA0140201489000004000000
B1701503337454N08121387WA0140701488000000000000
B1701533337429N08121344WA0140501484000000000000
B1701563337410N08121295WA0140201479000000000000
B1701593337400N08121236WA0139701476000000000000
B1702023337407N08121172WA0139301474000004000000
B1702053337430N08121111WA0139201476000004000000
B1702083337468N08121062WA0139601479000004000000
B1702113337516N08121032WA0139801480000004000000
B1702143337567N08121016WA0139701477000000000000
B1702173337616N08121010WA0139501478000004000000
B1702203337663N08121016WA0139501474000004000000
B1702233337706N08121040WA0139401475000004000000
B1702263337741N08121074WA0139401474000004000000
B1702293337766N08121119WA0139401470000004000000
B1702323337776N08121171WA0138901470000004000000
B1702353337777N08121222WA0139001476000004000000
B1702383337771N08121269WA0139601484000004000000
B1702413337761N08121311WA0140301490000004000000
B1702443337745N08121349WA0140701489000004000000
B1702473337725N08121389WA0140901491000004000000
B1702503337701N08121426WA0141201496000004000000
B1702533337668N08121453WA0141501495000000000000
B1702563337631N08121470WA0141401493000000000000
B1702593337589N08121477WA0141401500000000000000
B1703023337549N08121471WA0142001506000000000000
B1703053337508N08121453WA0142701515000000000000
B1703083337475N08121419WA0143401519000004000000
B1703113337450N08121370WA0143901524000004000000
B1703143337437N08121313WA0144101519000000000000
B1703173337436N08121252WA0143601513000000000000
B1703203337449N08121192WA0142901507000004000000
B1703233337473N08121137WA0142301497000004000000
B1703263337510N08121090WA0141401488000004000000
B1703293337554N08121057WA0140201473000000000000
B1703323337606N08121036WA0138801460000004000000
B1703353337660N08121035WA0138001453000004000000
B1703383337710N08121054WA0137001447000004000000
B1703413337751N08121092WA0136501452000004000000
B1703443337780N08121142WA0136901456000004000000
B1703473337794N08121200WA0137301461000004000000
B1703503337793N08121258WA0137701463000000000000
B1703533337768N08121309WA0137901465000000000000
B1703563337727N08121343WA0138201468000004000000
B1703593337676N08121345WA0138601476000004000000
B1704023337631N08121318WA0139201481000004000000
B1704053337592N08121270WA0139501484000004000000
B1704083337569N08121204WA0140101491000004000000
B1704113337568N08121131WA0141001500000004000000
B1704143337584N08121061WA0141501510000004000000
B1704173337605N08120997WA0142301504000004000000
B1704203337633N08120940WA0142101495000004000000
B1704233337672N08120892WA0141201490000004000000
B1704263337719N08120853WA0140601481000004000000
B1704293337772N08120830WA0139901479000004000000
B1704323337827N08120827WA0139501477000004000000
B1704353337880N08120841WA0139401480000004000000
B1704383337926N08120875WA0139601480000004000000
B1704413337959N08120920WA0139701484000000000000
B1704443337978N08120972WA0140501498000004000000
B1704473337980N08121022WA0141901510000004000000
B1704503337971N08121070WA0142401504000004000000
B1704533337945N08121110WA0142101500000000000000
B1704563337904N08121133WA0141701499000000000000
B1704593337853N08121133WA0141201493000000000000
B1705023337800N08121111WA0140801491000004000000
B1705053337744N08121092WA0140301487000004000000
B1705083337684N08121085WA0139701483000004000000
B1705113337623N08121093WA0139601485000004000000
B1705143337563N08121103WA0140201506000004000000
B1705173337506N08121101WA0142001521000004000000
B1705203337452N08121076WA0143501526000000000000
B1705233337407N08121035WA0143801514000000000000
B1705263337369N08120984WA0142801506000000000000
B1705293337328N08120936WA0142001506000000000000
B1705323337285N08120892WA0142301511000000000000
B1705353337235N08120860WA0142901519000000000000
B1705383337182N08120851WA0143301521000000000000
B1705413337133N08120851WA0143301516000004000000
B1705443337086N08120858WA0142601507000004000000
B1705473337039N08120868WA0141901500000004000000
B1705503336992N08120877WA0141101491000004000000
B1705533336945N08120893WA0140501488000004000000
B1705563336899N08120912WA0140101489000004000000
B1705593336849N08120929WA0140301488000004000000
B1706023336800N08120950WA0139901480000004000000
B1706053336754N08120989WA0139001472000004000000
B1706083336708N08121029WA0138201464000000000000
B1706113336661N08121071WA0137401454000000000000
B1706143336620N08121122WA0136201442000000000000
B1706173336583N08121176WA0135201434000000000000
B1706203336550N08121236WA0134501427000000000000
B1706233336518N08121297WA0133901422000000000000
B1706263336483N08121358WA0133501420000000000000
B1706293336449N08121421WA0133601429000000000000
B1706323336415N08121480WA0134201436000000000000
B1706353336376N08121534WA0135301454000000000000
B1706383336327N08121561WA0137301477000000000000
B1706413336276N08121560WA0139301484000000000000
B1706443336234N08121522WA0140001485000000000000
B1706473336223N08121453WA0140301487000000000000
B1706503336238N08121384WA0140201482000000000000
B1706533336279N08121332WA0139601476000004000000
B1706563336336N08121322WA0138901466000004000000
B1706593336383N08121350WA0137901454000004000000
B1707023336405N08121405WA0137401455000000000000
B1707053336397N08121466WA0137401463000000000000
B1707083336394N08121525WA0138101470000000000000
B1707113336398N08121579WA0139501488000000000000
B1707143336414N08121623WA0141501507000000000000
B1707173336431N08121665WA0142601518000000000000
B1707203336423N08121707WA0143401516000000000000
B1707233336392N08121730WA0143101504000004000000
B1707263336353N08121729WA0142201496000004000000
B1707293336315N08121711WA0141301487000004000000
B1707323336276N08121682WA0140301477000004000000
B1707353336232N08121662WA0139001466000004000000
B1707383336181N08121656WA0138201466000004000000
B1707413336130N08121659WA0138401480000004000000
B1707443336082N08121661WA0139401480000004000000
B1707473336035N08121664WA0139501481000004000000
B1707503335986N08121670WA0139201477000004000000
B1707533335934N08121681WA0139201475000004000000
B1707563335879N08121696WA0138501470000000000000
B1707593335825N08121716WA0138301472000000000000
B1708023335769N08121734WA0138201466000000000000
B1708053335717N08121760WA0137901464000000000000
B1708083335665N08121787WA0137201457000000000000
B1708113335614N08121817WA0137101462000000000000
B1708143335564N08121848WA0137801470000004000000
B1708173335515N08121880WA0138201476000004000000
B1708203335466N08121912WA0139001489000004000000
B1708233335417N08121942WA0140501505000004000000
B1708263335371N08121974WA0142001512000004000000
B1708293335335N08122019WA0142401510000000000000
B1708323335302N08122072WA0142101501000000000000
B1708353335272N08122128WA0141201495000004000000
B1708383335241N08122186WA0140701490000000000000
B1708413335207N08122241WA0140301489000000000000
B1708443335172N08122294WA0139801482000004000000
B1708473335136N08122344WA0139201473000004000000
B1708503335099N08122394WA0138101459000000000000
B1708533335063N08122446WA0137201451000000000000
B1708563335027N08122497WA0136601448000000000000
B1708593334989N08122543WA0136201448000000000000
B1709023334951N08122583WA0136201448000000000000
B1709053334911N08122619WA0136201447000000000000
B1709083334872N08122652WA0136001442000000000000
B1709113334829N08122680WA0135401431000000000000
B1709143334780N08122699WA0134301418000000000000
B1709173334730N08122718WA0133101410000000000000
B1709203334680N08122735WA0132301404000000000000
B1709233334628N08122753WA0131901403000000000000
B1709263334576N08122769WA0131501398000000000000
B1709293334522N08122783WA0131101389000000000000
B1709323334468N08122796WA0130401386000000000000
B1709353334417N08122805WA0130201387000000000000
B1709383334368N08122813WA0130301389000000000000
B1709413334316N08122817WA0130001380000000000000
B1709443334260N08122818WA0129101375000000000000
B1709473334201N08122814WA0128601372000000000000
B1709503334143N08122810WA0128601375000000000000
B1709533334087N08122803WA0129001381000000000000
B1709563334033N08122792WA0129501383000000000000
B1709593333978N08122783WA0129401379000000000000
B1710023333920N08122771WA0129101373000000000000
B1710053333863N08122760WA0128601376000000000000
B1710083333810N08122744WA0128801378000000000000
B1710113333755N08122730WA0129001377000004000000
B1710143333701N08122718WA0128801374000000000000
B1710173333645N08122704WA0128601371000000000000
B1710203333586N08122692WA0128701386000000000000
B1710233333542N08122712WA0131301427000000000000
B1710263333530N08122749WA0135001459000000000000
B1710293333516N08122774WA0137701466000000000000
B1710323333478N08122777WA0137701452000000000000
B1710353333437N08122734WA0137001462000004000000
B1710383333435N08122666WA0138501487000000000000
B1710413333471N08122624WA0140801505000000000000
B1710443333511N08122634WA0142501514000004000000
B1710473333526N08122678WA0143401521000004000000
B1710503333500N08122714WA0144301533000004000000
B1710533333460N08122712WA0145601546000004000000
B1710563333433N08122666WA0146801554000004000000
B1710593333441N08122604WA0147501562000004000000
B1711023333481N08122569WA0148401574000000000000
B1711053333524N08122582WA0149801589000000000000
B1711083333543N08122623WA0151201600000000000000
B1711113333536N08122663WA0152401611000000000000
B1711143333499N08122675WA0153301619000000000000
B1711173333464N08122637WA0153801619000004000000
B1711203333463N08122572WA0153901625000004000000
B1711233333485N08122519WA0154901645000004000000
B1711263333523N08122494WA0156501654000004000000
B1711293333559N08122510WA0157401658000000000000
B1711323333577N08122552WA0157801663000000000000
B1711353333578N08122595WA0158601674000000000000
B1711383333547N08122617WA0159501681000000000000
B1711413333508N08122605WA0160301691000000000000
B1711443333476N08122570WA0160801683000000000000
B1711473333463N08122506WA0160401687000000000000
B1711503333463N08122445WA0161201703000000000000
B1711533333494N08122406WA0162601714000000000000
B1711563333532N08122406WA0163501713000000000000
B1711593333554N08122445WA0162501693000000000000
B1712023333546N08122507WA0160701680000000000000
B1712053333529N08122572WA0159401676000000000000
B1712083333513N08122644WA0159401684000000000000
B1712113333506N08122715WA0160401699000000000000
B1712143333506N08122777WA0162801739000000000000
B1712173333513N08122822WA0166001752000000000000
B1712203333517N08122874WA0166101726000000000000
B1712233333516N08122946WA0164201724000000000000
B1712263333523N08123012WA0165401759000000000000
B1712293333533N08123068WA0167601767000000000000
B1712323333547N08123124WA0167901756000000000000
B1712353333559N08123187WA0166301731000000000000
B1712383333565N08123263WA0164001709000000000000
B1712413333573N08123346WA0161901697000000000000
B1712443333586N08123429WA0161201699000000000000
B1712473333603N08123510WA0161401702000000000000
B1712503333619N08123590WA0161301702000000000000
B1712533333628N08123658WA0163001735000000000000
B1712563333637N08123715WA0165201742000000000000
B1712593333646N08123774WA0164201711000000000000
B1713023333655N08123844WA0161201679000000000000
B1713053333663N08123921WA0159301660000000000000
B1713083333671N08124000WA0157401655000000000000
B1713113333676N08124078WA0156801652000000000000
B1713143333677N08124152WA0156501653000000000000
B1713173333677N08124222WA0156801653000000000000
B1713203333677N08124294WA0156401640000000000000
B1713233333682N08124370WA0155001627000000000000
B1713263333695N08124450WA0153201608000004000000
B1713293333714N08124530WA0152401621000000000000
B1713323333728N08124602WA0153801636000000000000
B1713353333740N08124669WA0154901639000000000000
B1713383333747N08124737WA0155001630000004000000
B1713413333750N08124807WA0153901618000004000000
B1713443333753N08124880WA0152801610000000000000
B1713473333753N08124954WA0152001601000000000000
B1713503333750N08125028WA0151201596000000000000
B1713533333746N08125102WA0151101608000000000000
B1713563333744N08125170WA0152301619000000000000
B1713593333740N08125234WA0153601635000000000000
B1714023333741N08125289WA0155001645000000000000
B1714053333745N08125340WA0156301657000000000000
B1714083333755N08125386WA0157501662000000000000
B1714113333764N08125438WA0157301638000000000000
B1714143333767N08125505WA0155201619000000000000
B1714173333764N08125578WA0153201607000000000000
B1714203333767N08125655WA0152101602000000000000
B1714233333771N08125730WA0151201589000000000000
B1714263333775N08125807WA0149701575000000000000
B1714293333784N08125885WA0148401564000000000000
B1714323333796N08125963WA0147301557000000000000
B1714353333807N08126042WA0146501550000000000000
B1714383333820N08126121WA0146101551000000000000
B1714413333829N08126189WA0147901589000004000000
B1714443333838N08126245WA0151001610000004000000
B1714473333846N08126294WA0153101624000004000000
B1714503333848N08126344WA0152901602000000000000
B1714533333855N08126407WA0150901584000004000000
B1714563333868N08126479WA0149701583000004000000
B1714593333884N08126550WA0149401582000004000000
B1715023333901N08126623WA0149401588000004000000
B1715053333913N08126695WA0150101595000004000000
B1715083333922N08126764WA0151101607000000000000
B1715113333932N08126833WA0151801606000004000000
B1715143333942N08126900WA0152401616000000000000
B1715173333954N08126969WA0152701608000000000000
B1715203333962N08127042WA0151701593000000000000
B1715233333968N08127120WA0150001572000004000000
B1715263333972N08127203WA0147901554000004000000
B1715293333980N08127288WA0146201542000000000000
B1715323333988N08127371WA0145501545000004000000
B1715353333991N08127447WA0146001552000004000000
B1715383333993N08127519WA0146401548000004000000
B1715413333997N08127593WA0145701534000004000000
B1715443334004N08127668WA0144301519000000000000
B1715473334010N08127746WA0142901511000000000000
B1715503334015N08127823WA0142301510000000000000
B1715533334020N08127893WA0142601523000000000000
B1715563334026N08127956WA0143901530000000000000
B1715593334031N08128016WA0144001516000000000000
B1716023334036N08128082WA0142301494000000000000
B1716053334041N08128156WA0140201477000000000000
B1716083334048N08128233WA0138801470000000000000
B1716113334053N08128308WA0138301472000000000000
B1716143334061N08128380WA0138601478000000000000
B1716173334066N08128446WA0139101479000000000000
B1716203334072N08128513WA0139001470000004000000
B1716233334076N08128585WA0138001458000004000000
B1716263334082N08128660WA0136701446000004000000
B1716293334087N08128737WA0135701441000004000000
B1716323334093N08128815WA0135301443000000000000
B1716353334097N08128881WA0136501472000000000000
B1716383334100N08128937WA0138701482000000000000
B1716413334101N08128992WA0139401473000004000000
B1716443334102N08129052WA0138301456000004000000
B1716473334106N08129118WA0136701440000004000000
B1716503334113N08129191WA0135201428000004000000
B1716533334118N08129264WA0134301426000004000000
B1716563334119N08129335WA0134101431000004000000
B1716593334119N08129397WA0134901444000004000000
B1717023334123N08129455WA0136001447000000000000
B1717053334127N08129516WA0135401423000000000000
B1717083334128N08129586WA0133401405000004000000
B1717113334131N08129660WA0131601390000000000000
B1717143334135N08129737WA0130101381000004000000
B1717173334141N08129813WA0129401377000004000000
B1717203334150N08129889WA0129001373000004000000
B1717233334157N08129963WA0128401366000004000000
B1717263334163N08130040WA0127601356000004000000
B1717293334171N08130116WA0126901351000000000000
B1717323334179N08130192WA0126501352000004000000
B1717353334186N08130263WA0126501349000000000000
B1717383334192N08130335WA0125801338000000000000
B1717413334199N08130410WA0124601320000000000000
B1717443334206N08130489WA0122701308000000000000
B1717473334210N08130562WA0123101344000000000000
B1717503334212N08130614WA0126301367000000000000
B1717533334213N08130664WA0127501347000000000000
B1717563334214N08130725WA0125401313000000000000
B1717593334213N08130800WA0121901280000004000000
B1718023334217N08130883WA0119001261000000000000
B1718053334230N08130970WA0117301252000000000000
B1718083334249N08131056WA0116701261000000000000
B1718113334262N08131120WA0119201311000000000000
B1718143334274N08131177WA0122501312000000000000
B1718173334277N08131234WA0122601300000000000000
B1718203334274N08131295WA0121301279000000000000
B1718233334266N08131367WA0119201264000000000000
B1718263334262N08131442WA0118001262000000000000
B1718293334264N08131515WA0118101268000000000000
B1718323334266N08131581WA0118901292000004000000
B1718353334279N08131626WA0121701323000004000000
B1718383334296N08131654WA0124401335000000000000
B1718413334318N08131679WA0125601340000004000000
B1718443334340N08131708WA0126001342000004000000
B1718473334366N08131735WA0126401349000004000000
B1718503334412N08131721WA0126701350000004000000
B1718533334429N08131657WA0126701351000004000000
B1718563334405N08131601WA0127001358000004000000
B1718593334368N08131566WA0127901369000004000000
B1719023334331N08131542WA0129001375000004000000
B1719053334293N08131537WA0129001361000004000000
B1719083334254N08131566WA0126601322000004000000
B1719113334227N08131633WA0122801291000004000000
B1719143334218N08131717WA0120401284000004000000
B1719173334221N08131801WA0119501282000000000000
B1719203334225N08131883WA0119701292000000000000
B1719233334231N08131961WA0120701302000000000000
B1719263334236N08132035WA0121901311000000000000
B1719293334243N08132105WA0122301306000000000000
B1719323334247N08132178WA0121801297000000000000
B1719353334252N08132250WA0120901287000000000000
B1719383334262N08132326WA0119401270000000000000
B1719413334273N08132404WA0118201264000000000000
B1719443334283N08132485WA0117201253000000000000
B1719473334292N08132564WA0116501254000004000000
B1719503334300N08132641WA0116701259000004000000
B1719533334310N08132712WA0117501271000004000000
B1719563334319N08132780WA0118601278000004000000
B1719593334321N08132846WA0119401285000000000000
B1720023334321N08132909WA0120401307000000000000
B1720053334334N08132958WA0122801325000000000000
B1720083334358N08132997WA0124701343000000000000
B1720113334382N08133028WA0126401349000004000000
B1720143334429N08133030WA0126501343000000000000
B1720173334470N08132995WA0126001340000000000000
B1720203334483N08132936WA0125701338000000000000
B1720233334468N08132880WA0125801347000000000000
B1720263334439N08132839WA0126401348000000000000
B1720293334394N08132833WA0125701331000000000000
B1720323334351N08132875WA0123401305000000000000
B1720353334322N08132946WA0121101286000000000000
B1720383334313N08133032WA0120201294000000000000
B1720413334314N08133117WA0121501317000000000000
B1720443334323N08133184WA0125701369000000000000
B1720473334379N08133190WA0130001405000004000000
B1720503334418N08133145WA0132301418000000000000
B1720533334455N08133112WA0133501435000000000000
B1720563334500N08133119WA0135101444000000000000
B1720593334521N08133164WA0135701443000000000000
B1721023334501N08133205WA0135601439000000000000
B1721053334459N08133210WA0135801450000000000000
B1721083334421N08133188WA0136701464000000000000
B1721113334394N08133153WA0137901480000004000000
B1721143334388N08133105WA0139701491000004000000
B1721173334423N08133067WA0140801497000004000000
B1721203334472N08133078WA0141201496000004000000
B1721233334504N08133122WA0141601507000004000000
B1721263334492N08133171WA0142701521000004000000
B1721293334455N08133182WA0143801526000000000000
B1721323334418N08133154WA0144401531000000000000
B1721353334386N08133126WA0145701556000000000000
B1721383334368N08133088WA0147801570000004000000
B1721413334386N08133037WA0148901572000004000000
B1721443334438N08133023WA0149401581000004000000
B1721473334474N08133062WA0150501594000000000000
B1721503334468N08133113WA0151801603000004000000
B1721533334431N08133135WA0152501610000004000000
B1721563334395N08133112WA0153501627000004000000
B1721593334386N08133062WA0155201644000004000000
B1722023334409N08133017WA0156801654000004000000
B1722053334457N08133008WA0157801664000000000000
B1722083334494N08133041WA0158601675000000000000
B1722113334503N08133091WA0159401680000004000000
B1722143334477N08133131WA0159801679000004000000
B1722173334433N08133135WA0160201694000004000000
B1722203334400N08133106WA0161601707000004000000
B1722233334391N08133053WA0162901717000000000000
B1722263334399N08133002WA0164201738000004000000
B1722293334434N08132971WA0166301755000004000000
B1722323334479N08132980WA0167401755000004000000
B1722353334501N08133032WA0167701760000000000000
B1722383334482N08133083WA0168301772000000000000
B1722413334440N08133099WA0169601785000000000000
B1722443334403N08133086WA0171301803000000000000
B1722473334379N08133048WA0172701811000000000000
B1722503334388N08132996WA0173001808000000000000
B1722533334440N08132970WA0172001788000004000000
B1722563334504N08133010WA0169701771000004000000
B1722593334540N08133089WA0167901758000000000000
B1723023334564N08133179WA0166901753000000000000
B1723053334585N08133270WA0166001743000000000000
B1723083334602N08133361WA0165401736000000000000
B1723113334615N08133450WA0164601730000004000000
B1723143334618N08133538WA0164101723000000000000
B1723173334624N08133626WA0163501724000000000000
B1723203334630N08133706WA0164201744000000000000
B1723233334638N08133776WA0165901761000004000000
B1723263334643N08133840WA0167401770000004000000
B1723293334646N08133902WA0168001756000000000000
B1723323334647N08133975WA0166001725000000000000
B1723353334650N08134057WA0163901715000000000000
B1723383334655N08134140WA0162401703000000000000
B1723413334665N08134223WA0161501698000000000000
B1723443334676N08134302WA0161401705000000000000
B1723473334682N08134379WA0161501700000000000000
B1723503334682N08134453WA0161101697000000000000
B1723533334685N08134529WA0160601688000000000000
B1723563334691N08134605WA0159401674000000000000
B1723593334702N08134685WA0158201664000004000000
B1724023334712N08134763WA0157501653000004000000
B1724053334720N08134843WA0156201635000004000000
B1724083334728N08134928WA0154201617000004000000
B1724113334733N08135013WA0152701618000004000000
B1724143334741N08135093WA0152801621000000000000
B1724173334748N08135171WA0152801607000000000000
B1724203334756N08135249WA0152401630000000000000
B1724233334768N08135301WA0155701668000000000000
B1724263334782N08135345WA0158501673000000000000
B1724293334794N08135392WA0158201648000000000000
B1724323334806N08135453WA0155501617000000000000
B1724353334817N08135523WA0152301594000000000000
B1724383334826N08135598WA0150501585000000000000
B1724413334833N08135674WA0149501578000000000000
B1724443334839N08135749WA0148801570000000000000
B1724473334845N08135826WA0147601558000004000000
B1724503334849N08135907WA0146801547000004000000
B1724533334851N08135988WA0145801546000004000000
B1724563334854N08136068WA0145701546000000000000
B1724593334859N08136144WA0145601543000000000000
B1725023334868N08136221WA0145301541000000000000
B1725053334878N08136298WA0144901532000000000000
B1725083334890N08136376WA0143801514000000000000
B1725113334904N08136459WA0141901497000000000000
B1725143334917N08136542WA0140401488000000000000
B1725173334927N08136627WA0139501482000000000000
B1725203334936N08136709WA0139101478000000000000
B1725233334945N08136791WA0138401468000000000000
B1725263334951N08136872WA0137501461000000000000
B1725293334958N08136954WA0137001455000004000000
B1725323334960N08137035WA0136701455000004000000
B1725353334964N08137113WA0136501448000004000000
B1725383334969N08137194WA0135601433000004000000
B1725413334973N08137278WA0134201421000004000000
B1725443334979N08137360WA0133001413000004000000
B1725473334986N08137438WA0132501414000004000000
B1725503335005N08137515WA0131901400000004000000
B1725533335033N08137589WA0130901393000000000000
B1725563335110N08137578WA0130601398000004000000
B1725593335133N08137485WA0129001374000000000000
B1726023335135N08137392WA0127001360000000000000
B1726053335132N08137300WA0126301349000000000000
B1726083335125N08137210WA0125201342000000000000
B1726113335102N08137125WA0124701337000000000000
B1726143335086N08137041WA0124501337000000000000
B1726173335080N08136957WA0124501332000000000000
B1726203335076N08136871WA0123801322000000000000
B1726233335070N08136785WA0123301315000004000000
B1726263335055N08136701WA0122401302000004000000
B1726293335024N08136620WA0121201289000000000000
B1726323334984N08136546WA0120001279000000000000
B1726353334940N08136477WA0118901268000000000000
B1726383334898N08136404WA0117701261000000000000
B1726413334880N08136317WA0117201259000000000000
B1726443334886N08136226WA0117001257000000000000
B1726473334907N08136143WA0117201262000000000000
B1726503334924N08136064WA0117401258000000000000
B1726533334941N08135981WA0116701241000000000000
B1726563334960N08135895WA0115201228000000000000
B1726593334981N08135806WA0113701215000000000000
B1727023334995N08135715WA0112301204000000000000
B1727053335001N08135622WA0111301194000000000000
B1727083335001N08135528WA0110501189000000000000
B1727113335001N08135437WA0110201186000000000000
B1727143334999N08135346WA0110001182000000000000
B1727173334999N08135255WA0109701180000000000000
B1727203334997N08135166WA0109401180000000000000
B1727233334990N08135078WA0109201177000000000000
B1727263334984N08134991WA0108801169000000000000
B1727293334980N08134903WA0108201162000000000000
B1727323334976N08134816WA0107601158000000000000
B1727353334971N08134733WA0107301155000000000000
B1727383334966N08134651WA0107001147000000000000
B1727413334960N08134568WA0106001129000000000000
B1727443334955N08134478WA0104101107000000000000
B1727473334951N08134383WA0102001090000000000000
B1727503334950N08134288WA0100301077000000000000
B1727533334951N08134193WA0099301069000000000000
B1727563334950N08134097WA0098301061000000000000
B1727593334942N08134006WA0097901070000000000000
B1728023334937N08133921WA0098601074000000000000
B1728053334933N08133840WA0098601060000000000000
B1728083334930N08133755WA0097301040000000000000
B1728113334927N08133668WA0095401023000000000000
B1728143334923N08133577WA0093601005000004000000
B1728173334917N08133485WA0092200999000004000000
B1728203334915N08133392WA0091300995000000000000
B1728233334914N08133325WA0092901063000004000000
B1728263334911N08133275WA0097801079000000000000
B1728293334901N08133231WA0099901084000000000000
B1728323334865N08133208WA0100101077000004000000
B1728353334824N08133210WA0100001093000000000000
B1728383334800N08133245WA0101301110000004000000
B1728413334819N08133290WA0103001118000004000000
B1728443334862N08133310WA0103701124000004000000
B1728473334908N08133305WA0104401132000004000000
B1728503334950N08133273WA0104701125000004000000
B1728533334980N08133221WA0104601137000004000000
B1728563334986N08133161WA0105101136000004000000
B1728593334969N08133104WA0105201140000000000000
B1729023334945N08133061WA0106101157000000000000
B1729053334924N08133023WA0108001176000000000000
B1729083334899N08132995WA0109501187000000000000
B1729113334865N08133004WA0110301184000000000000
B1729143334850N08133047WA0110401188000000000000
B1729173334860N08133093WA0111101205000000000000
B1729203334885N08133126WA0112601215000000000000
B1729233334929N08133138WA0113001209000000000000
B1729263334984N08133122WA0112901220000000000000
B1729293335031N08133109WA0114001232000004000000
B1729323335067N08133069WA0114601229000004000000
B1729353335093N08133014WA0113601209000000000000
B1729383335107N08132943WA0111201181000000000000
B1729413335103N08132859WA0108901169000000000000
B1729443335093N08132777WA0108701181000000000000
B1729473335084N08132698WA0109101174000004000000
B1729503335068N08132616WA0108201162000004000000
B1729533335051N08132529WA0107201150000004000000
B1729563335033N08132441WA0106301148000000000000
B1729593335016N08132351WA0106301163000000000000
B1730023335014N08132280WA0108801216000000000000
B1730053335012N08132222WA0113001236000000000000
B1730083334985N08132185WA0115101238000000000000
B1730113334956N08132150WA0115501237000000000000
B1730143334942N08132091WA0114901221000000000000
B1730173334946N08132017WA0113101202000004000000
B1730203334963N08131938WA0111601198000004000000
B1730233334982N08131858WA0111401207000004000000
B1730263334988N08131787WA0113201242000000000000
B1730293334988N08131723WA0115701249000004000000
B1730323334989N08131659WA0116501247000000000000
B1730353334988N08131589WA0116101237000004000000
B1730383334986N08131513WA0115101225000004000000
B1730413334988N08131431WA0113701220000000000000
B1730443334985N08131346WA0113101212000004000000
B1730473334986N08131258WA0112101199000004000000
B1730503334989N08131165WA0110801187000004000000
B1730533334992N08131069WA0109701183000004000000
B1730563334994N08130974WA0109301178000004000000
B1730593334999N08130879WA0109301185000004000000
B1731023335006N08130788WA0109901193000000000000
B1731053335014N08130699WA0110501194000004000000
B1731083335023N08130618WA0112501238000004000000
B1731113335024N08130562WA0117001274000004000000
B1731143334998N08130523WA0119001273000000000000
B1731173334960N08130495WA0119201281000004000000
B1731203334943N08130440WA0120101294000004000000
B1731233334955N08130382WA0121101301000004000000
B1731263334988N08130337WA0122201314000004000000
B1731293335020N08130297WA0123001311000004000000
B1731323335046N08130237WA0122001281000004000000
B1731353335058N08130151WA0119101261000004000000
B1731383335058N08130054WA0117301258000004000000
B1731413335049N08129958WA0117701285000004000000
B1731443335028N08129882WA0120701322000004000000
B1731473335006N08129811WA0122801298000004000000
B1731503334993N08129726WA0120801276000004000000
B1731533334985N08129634WA0119001271000004000000
B1731563334971N08129542WA0118001264000004000000
B1731593334954N08129449WA0117301258000004000000
B1732023334937N08129357WA0117101258000004000000
B1732053334924N08129265WA0117101260000004000000
B1732083334911N08129171WA0116701250000004000000
B1732113334894N08129078WA0115701240000000000000
B1732143334877N08128984WA0114201221000000000000
B1732173334855N08128889WA0112501204000000000000
B1732203334830N08128794WA0111101192000000000000
B1732233334806N08128699WA0110201185000004000000
B1732263334784N08128607WA0109301174000004000000
B1732293334764N08128513WA0108301162000004000000
B1732323334746N08128417WA0106801141000004000000
B1732353334726N08128320WA0104901129000004000000
B1732383334707N08128247WA0106601204000000000000
B1732413334691N08128196WA0112101237000000000000
B1732443334676N08128160WA0115501252000000000000
B1732473334661N08128127WA0116701244000000000000
B1732503334660N08128077WA0115801228000000000000
B1732533334694N08128022WA0114801230000004000000
B1732563334725N08127971WA0114801236000000000000
B1732593334742N08127905WA0114701224000000000000
B1733023334741N08127832WA0113801224000000000000
B1733053334720N08127767WA0114001234000000000000
B1733083334691N08127718WA0114901242000004000000
B1733113334659N08127678WA0115701247000000000000
B1733143334635N08127631WA0115701237000000000000
B1733173334618N08127570WA0113901214000000000000
B1733203334607N08127493WA0111601189000000000000
B1733233334602N08127406WA0109401175000000000000
B1733263334602N08127315WA0108401162000000000000
B1733293334605N08127221WA0107001150000000000000
B1733323334611N08127128WA0106001145000004000000
B1733353334618N08127037WA0105801160000004000000
B1733383334611N08126966WA0108301202000004000000
B1733413334598N08126914WA0112101228000004000000
B1733443334586N08126875WA0114601237000004000000
B1733473334578N08126833WA0115101226000000000000
B1733503334582N08126777WA0114001211000004000000
B1733533334592N08126712WA0112201184000004000000
B1733563334600N08126632WA0109001147000004000000
B1733593334607N08126540WA0105601124000004000000
B1734023334615N08126444WA0103701116000004000000
B1734053334617N08126349WA0102601109000004000000
B1734083334616N08126257WA0101801102000004000000
B1734113334613N08126167WA0101301097000004000000
B1734143334609N08126077WA0100401086000004000000
B1734173334602N08125989WA0099401076000004000000
B1734203334590N08125900WA0098601068000000000000
B1734233334577N08125815WA0097601061000000000000
B1734263334564N08125728WA0097001051000004000000
B1734293334552N08125642WA0096401049000004000000
B1734323334537N08125556WA0095701035000004000000
B1734353334521N08125470WA0094601025000004000000
B1734383334507N08125382WA0093701018000000000000
B1734413334491N08125293WA0092601006000000000000
B1734443334475N08125208WA0091701004000000000000
B1734473334462N08125136WA0093001041000000000000
B1734503334453N08125083WA0096301067000000000000
B1734533334436N08125042WA0098501075000000000000
B1734563334420N08125003WA0099301075000000000000
B1734593334394N08124962WA0099301076000000000000
B1735023334353N08124931WA0099201081000000000000
B1735053334312N08124914WA0099701088000000000000
B1735083334284N08124871WA0100501092000004000000
B1735113334293N08124807WA0100601090000004000000
B1735143334330N08124759WA0100801095000004000000
B1735173334368N08124717WA0101601105000000000000
B1735203334400N08124676WA0102901122000000000000
B1735233334429N08124637WA0104401133000000000000
B1735263334457N08124597WA0105001140000000000000
B1735293334486N08124560WA0106001154000004000000
B1735323334500N08124511WA0106901152000004000000
B1735353334491N08124452WA0106901149000004000000
B1735383334483N08124394WA0106601144000004000000
B1735413334509N08124331WA0105601124000004000000
B1735443334557N08124274WA0103601100000004000000
B1735473334624N08124231WA0101301089000004000000
B1735503334693N08124194WA0100001083000000000000
B1735533334761N08124155WA0099501077000000000000
B1735563334834N08124118WA0098901075000000000000
B1735593334898N08124096WA0099801115000000000000
B1736023334945N08124078WA0103401134000000000000
B1736053334986N08124053WA0104901132000004000000
B1736083335021N08124008WA0104701124000004000000
B1736113335041N08123947WA0103901119000004000000
B1736143335044N08123879WA0103301117000000000000
B1736173335034N08123814WA0103001111000000000000
B1736203335023N08123746WA0101601086000000000000
B1736233335003N08123670WA0099101061000000000000
B1736263334979N08123586WA0096801044000004000000
B1736293334954N08123501WA0095401038000000000000
B1736323334930N08123415WA0094601028000000000000
B1736353334906N08123330WA0093901024000004000000
B1736383334880N08123248WA0093401018000000000000
B1736413334858N08123169WA0093101024000000000000
B1736443334838N08123095WA0093801029000004000000
B1736473334824N08123020WA0093701009000000000000
B1736503334804N08122938WA0091600979000000000000
B1736533334780N08122849WA0088700953000000000000
B1736563334751N08122758WA0086400942000000000000
B1736593334724N08122667WA0085100935000000000000
B1737023334699N08122576WA0084300924000000000000
B1737053334674N08122485WA0083200913000000000000
B1737083334648N08122394WA0082000902000000000000
B1737113334625N08122305WA0081500903000000000000
B1737143334602N08122220WA0081700906000000000000
B1737173334579N08122140WA0081500900000004000000
B1737203334559N08122059WA0080600883000000000000
B1737233334537N08121976WA0079000871000000000000
B1737263334514N08121898WA0078900878000000000000
B1737293334496N08121822WA0079200880000000000000
B1737323334478N08121747WA0078900865000000000000
B1737353334460N08121666WA0077600848000000000000
B1737383334443N08121579WA0075600829000004000000
B1737413334427N08121487WA0073600814000000000000
B1737443334412N08121395WA0072500815000000000000
B1737473334396N08121308WA0072500814000000000000
B1737503334382N08121226WA0073000830000000000000
B1737533334373N08121154WA0074500840000000000000
B1737563334365N08121083WA0074700825000000000000
B1737593334361N08121003WA0072900795000000000000
B1738023334355N08120911WA0070800792000000000000
B1738053334347N08120833WA0072400841000000000000
B1738083334312N08120798WA0076600870000000000000
B1738113334278N08120803WA0078800873000000000000
B1738143334262N08120833WA0078600857000000000000
B1738173334279N08120872WA0077700860000000000000
B1738203334317N08120890WA0077800864000004000000
B1738233334362N08120877WA0077800860000000000000
B1738263334407N08120840WA0077600860000004000000
B1738293334448N08120794WA0077100851000000000000
B1738323334473N08120729WA0076400834000004000000
B1738353334481N08120654WA0074500813000004000000
B1738383334464N08120573WA0072400793000004000000
B1738413334439N08120504WA0071800849000004000000
B1738443334430N08120461WA0076500882000004000000
B1738473334410N08120433WA0079500871000004000000
B1738503334374N08120431WA0078300840000004000000
B1738533334336N08120463WA0075700822000004000000
B1738563334314N08120520WA0073500813000004000000
B1738593334304N08120577WA0073100826000004000000
B1739023334322N08120624WA0073900827000000000000
B1739053334360N08120650WA0074300820000000000000
B1739083334399N08120677WA0073600810000000000000
B1739113334444N08120702WA0072900815000000000000
B1739143334496N08120715WA0072900800000000000000
B1739173334552N08120717WA0071600787000000000000
B1739203334609N08120690WA0070100773000004000000
B1739233334659N08120639WA0068500757000004000000
B1739263334702N08120573WA0067000745000004000000
B1739293334741N08120500WA0065700733000004000000
B1739323334768N08120420WA0064600724000004000000
B1739353334785N08120340WA0064300741000004000000
B1739383334802N08120274WA0065900751000004000000
B1739413334812N08120213WA0066600743000004000000
B1739443334821N08120149WA0065600722000004000000
B1739473334817N08120078WA0063700717000000000000
B1739503334789N08120017WA0064100736000000000000
B1739533334751N08119975WA0065600748000000000000
B1739563334724N08119927WA0066900758000000000000
B1739593334720N08119867WA0067800762000000000000
B1740023334734N08119814WA0068100764000000000000
B1740053334747N08119762WA0068800775000004000000
B1740083334733N08119710WA0069400776000004000000
B1740113334712N08119662WA0069900783000004000000
B1740143334687N08119619WA0070400784000004000000
B1740173334655N08119584WA0070500787000004000000
B1740203334621N08119558WA0070700789000004000000
B1740233334586N08119541WA0070600781000004000000
B1740263334543N08119543WA0069800773000004000000
B1740293334500N08119560WA0068700765000004000000
B1740323334465N08119594WA0067900764000000000000
B1740353334440N08119634WA0068000766000000000000
B1740383334430N08119679WA0067800759000000000000
B1740413334439N08119729WA0066900734000000000000
B1740443334478N08119777WA0064400703000000000000
B1740473334538N08119816WA0061300684000000000000
B1740503334603N08119841WA0059900683000000000000
B1740533334667N08119859WA0059900682000004000000
B1740563334730N08119875WA0059300673000004000000
B1740593334797N08119892WA0058900670000004000000
B1741023334864N08119909WA0058400662000000000000
B1741053334936N08119923WA0057400650000004000000
B1741083335008N08119933WA0057200664000000000000
B1741113335066N08119937WA0059100689000000000000
B1741143335119N08119939WA0059900677000000000000
B1741173335177N08119940WA0058300651000004000000
B1741203335244N08119940WA0055400618000000000000
B1741233335317N08119936WA0052300593000000000000
B1741263335393N08119933WA0050900580000004000000
B1741293335469N08119933WA0049600572000000000000
B1741323335544N08119935WA0048500560000000000000
B1741353335618N08119936WA0047300546000004000000
B1741383335694N08119939WA0046300550000004000000
B1741413335762N08119946WA0047200572000000000000
B1741443335811N08119956WA0050500616000000000000
B1741473335850N08119958WA0054000631000004000000
B1741503335887N08119945WA0055100626000004000000
B1741533335933N08119926WA0054700623000004000000
B1741563335978N08119937WA0054000611000000000000
B1741593336007N08119983WA0052700595000000000000
B1742023336035N08120031WA0051200584000004000000
B1742053336081N08120070WA0049900564000000000000
B1742083336139N08120099WA0047500537000000000000
B1742113336207N08120121WA0045000518000000000000
B1742143336279N08120140WA0043100503000004000000
B1742173336350N08120162WA0042000498000004000000
B1742203336422N08120180WA0041500498000004000000
B1742233336492N08120193WA0042000510000004000000
B1742263336557N08120206WA0042600507000004000000
B1742293336622N08120218WA0041300479000004000000
B1742323336696N08120230WA0038600454000004000000
B1742353336774N08120242WA0037300453000004000000
B1742383336844N08120255WA0037300469000004000000
B1742413336903N08120269WA0038900486000000000000
B1742443336955N08120282WA0040300488000000000000
B1742473337009N08120282WA0040300472000000000000
B1742503337068N08120253WA0038600450000000000000
B1742533337122N08120199WA0036600436000004000000
B1742563337164N08120128WA0035300432000000000000
B1742593337189N08120050WA0035100438000000000000
B1743023337202N08119974WA0036000449000000000000
B1743053337224N08119907WA0037100461000000000000
B1743083337252N08119854WA0038900482000000000000
B1743113337254N08119798WA0040300484000004000000
B1743143337243N08119746WA0040900492000004000000
B1743173337267N08119697WA0041400495000000000000
B1743203337311N08119668WA0041800499000000000000
B1743233337359N08119664WA0042400506000000000000
B1743263337402N08119688WA0042400498000000000000
B1743293337416N08119740WA0041600491000004000000
B1743323337385N08119780WA0040500480000000000000
B1743353337337N08119763WA0039800475000000000000
B1743383337302N08119719WA0039800478000000000000
B1743413337270N08119680WA0040500498000000000000
B1743443337241N08119657WA0042300512000000000000
B1743473337205N08119649WA0043200509000004000000
B1743503337170N08119629WA0043300515000004000000
B1743533337134N08119620WA0043500510000000000000
B1743563337103N08119641WA0043000503000000000000
B1743593337081N08119679WA0042400498000000000000
B1744023337072N08119724WA0041900495000000000000
B1744053337086N08119768WA0041800495000000000000
B1744083337133N08119783WA0041300487000000000000
B1744113337182N08119751WA0040700480000000000000
B1744143337220N08119694WA0039500465000000000000
B1744173337221N08119620WA0038000454000000000000
B1744203337165N08119589WA0035900421000000000000
B1744233337111N08119629WA0033200401000004000000
B1744263337073N08119690WA0031300388000000000000
B1744293337056N08119768WA0030000374000000000000
B1744323337051N08119849WA0029500369000000000000
B1744353337049N08119928WA0028900366000000000000
B1744383337049N08120006WA0028600364000000000000
B1744413337043N08120083WA0027900347000004000000
B1744443337055N08120165WA0026800338000004000000
B1744473337088N08120239WA0025800330000004000000
B1744503337140N08120299WA0024600310000004000000
B1744533337209N08120336WA0023000298000004000000
B1744563337281N08120366WA0021900291000004000000
B1744593337352N08120395WA0021300282000004000000
B1745023337423N08120421WA0020500275000000000000
B1745053337497N08120429WA0019000256000000000000
B1745083337567N08120404WA0017100231000000000000
B1745113337620N08120343WA0014700208000000000000
B1745143337649N08120261WA0013000182000000000000
B1745173337664N08120173WA0010400162000000000000
B1745203337683N08120084WA0008400150000000000000
B1745233337705N08120002WA0007100136000000000000
B1745263337724N08119924WA0006000129000000000000
B1745293337742N08119850WA0005600127000000000000
B1745323337759N08119788WA0005400125000000000000
B1745353337771N08119733WA0005400126000000000000
B1745383337781N08119686WA0005500127000000000000
B1745413337792N08119647WA0005700127000000000000
B1745443337798N08119616WA0005800127000000000000
B1745473337805N08119589WA0005900128000004000000
B1745503337811N08119567WA0006100128000000000000
B1745533337814N08119553WA0006200128000000000000
B1745563337815N08119549WA0006300128000000000000
B1745593337815N08119549WA0006200128000000000000
B1746023337815N08119549WA0006300128000000000000
B1746053337815N08119549WA0006200127000000000000
B1746083337815N08119550WA0006200127000000000000
B1746113337815N08119550WA0006200127000000000000
B1746143337815N08119550WA0006300127000000000000
B1746173337815N08119550WA0006200128000000000000
B1746203337815N08119549WA0006200128000000000000
B1746233337815N08119549WA0006200128000000000000
B1748293337814N08119550WA0006200130000000000000
B1748313337814N08119550WA0006200130000000000000
B1748333337814N08119550WA0006200129000000000000
B1748353337814N08119550WA0006200129000000000000
B1748373337814N08119550WA0006200128000000000000
B1748393337814N08119550WA0006200128000000000000
B1748413337814N08119550WA0006200128000000000000
B1748433337814N08119550WA0006200129000000000000
B1748453337814N08119550WA0006200129000000000000
B1748473337814N08119550WA0006200129000000000000
B1748493337814N08119550WA0006400129000000000000
B1748513337814N08119550WA0006400129000000000000
B1748533337814N08119550WA0006300129000000000000
B1748553337814N08119550WA0006300129000000000000
B1748573337814N08119550WA0006300129000000000000
B1749013337807N08119573WA0006000128000000000000
B1749043337800N08119602WA0005900128000000000000
B1749073337789N08119642WA0005800127000000000000
B1749103337779N08119692WA0005800127000000000000
B1749133337766N08119749WA0005700126000000000000
B1749163337751N08119814WA0005600128000004000000
B1749193337735N08119884WA0005700129000004000000
B1749223337718N08119958WA0006000138000004000000
B1749253337697N08120031WA0006900152000004000000
B1749283337676N08120100WA0008900173000000000000
B1749313337655N08120167WA0010100192000000000000
B1749343337634N08120231WA0012200218000000000000
B1749373337614N08120297WA0014300231000000000000
B1749403337597N08120365WA0015700238000000000000
B1749433337586N08120434WA0016700252000004000000
B1749463337593N08120505WA0017800265000004000000
B1749493337615N08120576WA0018800268000004000000
B1749523337647N08120642WA0019400278000000000000
B1749553337683N08120706WA0020300286000000000000
B1749583337720N08120768WA0021100291000000000000
B1750013337755N08120830WA0022000307000000000000
B1750043337790N08120893WA0023600326000000000000
B1750073337829N08120950WA0025100339000000000000
B1750103337870N08121007WA0025800345000000000000
B1750133337913N08121059WA0026600355000000000000
B1750163337956N08121111WA0027700367000000000000
B1750193338000N08121165WA0028400369000000000000
B1750223338043N08121219WA0028900374000000000000
B1750253338092N08121271WA0029100383000000000000
B1750283338151N08121311WA0030000394000004000000
B1750313338219N08121331WA0031600423000004000000
B1750343338284N08121347WA0034500453000000000000
B1750373338348N08121361WA0037100477000000000000
B1750403338416N08121370WA0039200488000000000000
B1750433338487N08121374WA0040100491000000000000
B1750463338557N08121379WA0040700503000000000000
B1750493338628N08121382WA0041800506000000000000
B1750523338697N08121382WA0042500517000000000000
B1750553338764N08121378WA0043700533000000000000
B1750583338830N08121374WA0045700555000004000000
B1751013338897N08121367WA0047900577000000000000
B1751043338962N08121362WA0049300598000000000000
B1751073339028N08121356WA0051100612000000000000
B1751103339097N08121345WA0052800632000000000000
B1751133339165N08121337WA0054800648000000000000
B1751163339231N08121326WA0056700676000004000000
B1751193339296N08121315WA0059000697000000000000
B1751223339358N08121305WA0061600728000000000000
B1751253339421N08121292WA0064300745000000000000
B1751283339484N08121279WA0065900756000000000000
B1751313339542N08121265WA0067800785000000000000
B1751343339565N08121207WA0070500797000000000000
B1751373339530N08121155WA0070500781000000000000
B1751403339479N08121131WA0069900784000000000000
B1751433339428N08121118WA0070000784000000000000
B1751463339376N08121114WA0069900784000000000000
B1751493339332N08121110WA0071200801000000000000
B1751523339288N08121109WA0071700797000000000000
B1751553339245N08121106WA0071700806000000000000
B1751583339202N08121102WA0072400808000000000000
B1752013339163N08121118WA0072500805000000000000
B1752043339129N08121149WA0072200801000004000000
B1752073339094N08121181WA0072000812000004000000
B1752103339067N08121215WA0073100828000004000000
B1752133339054N08121256WA0074600834000004000000
B1752163339025N08121280WA0075000833000004000000
B1752193338983N08121265WA0074500825000004000000
B1752223338947N08121215WA0074400835000000000000
B1752253338908N08121188WA0075700856000000000000
B1752283338879N08121155WA0077800868000000000000
B1752313338888N08121097WA0078300859000004000000
B1752343338936N08121058WA0077100845000000000000
B1752373338990N08121074WA0076100846000000000000
B1752403339027N08121113WA0076800862000004000000
B1752433339053N08121150WA0078100875000000000000
B1752463339064N08121191WA0079100877000000000000
B1752493339045N08121228WA0078800866000000000000
B1752523339002N08121244WA0077800855000000000000
B1752553338953N08121248WA0077200856000000000000
B1752583338908N08121269WA0077100858000000000000
B1753013338868N08121295WA0077500870000000000000
B1753043338845N08121334WA0078500879000004000000
B1753073338834N08121376WA0079400886000004000000
B1753103338824N08121415WA0080200888000004000000
B1753133338785N08121439WA0080100878000004000000
B1753163338734N08121440WA0079400879000000000000
B1753193338685N08121421WA0079100876000000000000
B1753223338643N08121388WA0079400883000000000000
B1753253338617N08121337WA0079800880000004000000
B1753283338604N08121276WA0079400874000004000000
B1753313338593N08121210WA0078300850000004000000
B1753343338573N08121137WA0076400839000004000000
B1753373338565N08121061WA0075200838000004000000
B1753403338572N08120988WA0075600848000004000000
B1753433338578N08120919WA0077100866000004000000
B1753463338568N08120860WA0078800879000000000000
B1753493338542N08120819WA0080200891000000000000
B1753523338517N08120780WA0081000888000000000000
B1753553338516N08120719WA0080000867000004000000
B1753583338551N08120661WA0078000847000004000000
B1754013338608N08120643WA0076700842000000000000
B1754043338660N08120654WA0076100837000000000000
B1754073338710N08120674WA0075200828000000000000
B1754103338758N08120693WA0075100838000000000000
B1754133338790N08120729WA0075700837000004000000
B1754163338815N08120773WA0075500820000000000000
B1754193338863N08120804WA0073400796000000000000
B1754223338924N08120827WA0071400797000000000000
B1754253338983N08120837WA0071700806000000000000
B1754283339038N08120834WA0072400808000004000000
B1754313339093N08120811WA0072200802000004000000
B1754343339140N08120765WA0071800803000004000000
B1754373339170N08120711WA0072700820000004000000
B1754403339213N08120685WA0073800820000004000000
B1754433339254N08120698WA0074000827000000000000
B1754463339269N08120732WA0075200843000004000000
B1754493339246N08120765WA0076100841000004000000
B1754523339204N08120767WA0076200845000004000000
B1754553339171N08120726WA0076300846000004000000
B1754583339159N08120668WA0076300843000004000000
B1755013339170N08120604WA0075800835000004000000
B1755043339200N08120546WA0075800846000004000000
B1755073339237N08120504WA0076800855000004000000
B1755103339284N08120483WA0077400862000004000000
B1755133339324N08120505WA0078200868000004000000
B1755163339310N08120546WA0078800873000004000000
B1755193339265N08120529WA0079200876000000000000
B1755223339259N08120461WA0079700881000000000000
B1755253339297N08120414WA0080600897000000000000
B1755283339343N08120414WA0081900901000000000000
B1755313339362N08120461WA0081900895000000000000
B1755343339344N08120504WA0081900913000000000000
B1755373339306N08120516WA0083200916000000000000
B1755403339267N08120474WA0083600922000000000000
B1755433339265N08120407WA0084200925000000000000
B1755463339310N08120364WA0084600926000004000000
B1755493339354N08120386WA0085000933000000000000
B1755523339348N08120430WA0085600939000004000000
B1755553339306N08120442WA0085800942000004000000
B1755583339266N08120434WA0086300952000004000000
B1756013339231N08120400WA0087100952000000000000
B1756043339211N08120343WA0087100952000000000000
B1756073339204N08120284WA0087500961000000000000
B1756103339194N08120232WA0088500971000000000000
B1756133339175N08120190WA0088700963000004000000
B1756163339137N08120154WA0087200937000004000000
B1756193339083N08120138WA0084500910000004000000
B1756223339019N08120147WA0082400904000004000000
B1756253338957N08120164WA0082100910000000000000
B1756283338907N08120190WA0084000942000004000000
B1756313338871N08120217WA0086000947000004000000
B1756343338842N08120248WA0086700962000004000000
B1756373338827N08120281WA0088000961000000000000
B1756403338803N08120312WA0087600938000000000000
B1756433338764N08120342WA0084000905000000000000
B1756463338712N08120372WA0082100885000000000000
B1756493338654N08120396WA0079700863000000000000
B1756523338590N08120418WA0077600844000004000000
B1756553338526N08120439WA0075700832000000000000
B1756583338460N08120460WA0074100817000000000000
B1757013338395N08120483WA0072300792000000000000
B1757043338325N08120505WA0069700765000004000000
B1757073338249N08120508WA0067600761000004000000
B1757103338188N08120509WA0068800798000000000000
B1757133338144N08120515WA0072100826000000000000
B1757163338108N08120517WA0074200830000000000000
B1757193338071N08120524WA0074800826000000000000
B1757223338030N08120518WA0074200815000000000000
B1757253337985N08120495WA0072300786000000000000
B1757283337931N08120468WA0069500766000004000000
B1757313337874N08120474WA0068200769000004000000
B1757343337826N08120500WA0068400770000004000000
B1757373337789N08120541WA0068600768000000000000
B1757403337761N08120587WA0068900777000000000000
B1757433337736N08120633WA0069400782000000000000
B1757463337715N08120674WA0070100799000004000000
B1757493337703N08120713WA0071700806000000000000
B1757523337697N08120756WA0072300805000000000000
B1757553337679N08120795WA0072200802000004000000
B1757583337658N08120836WA0072100802000004000000
B1758013337663N08120889WA0072100798000004000000
B1758043337686N08120942WA0071400801000004000000
B1758073337686N08120990WA0072000810000004000000
B1758103337670N08121029WA0073000818000004000000
B1758133337666N08121072WA0073500813000004000000
B1758163337677N08121123WA0073100810000004000000
B1758193337702N08121172WA0072600808000000000000
B1758223337725N08121218WA0073000822000000000000
B1758253337729N08121261WA0074000821000000000000
B1758283337707N08121296WA0073600807000000000000
B1758313337660N08121296WA0071900785000000000000
B1758343337624N08121239WA0070500788000004000000
B1758373337621N08121165WA0070600795000004000000
B1758403337645N08121094WA0071200795000000000000
B1758433337673N08121025WA0071500803000004000000
B1758463337666N08120957WA0072500814000000000000
B1758493337634N08120911WA0073600826000000000000
B1758523337597N08120889WA0074800833000000000000
B1758553337569N08120850WA0075400837000000000000
B1758583337581N08120790WA0075900842000004000000
B1759013337632N08120776WA0076400849000004000000
B1759043337660N08120820WA0077100853000004000000
B1759073337640N08120863WA0077600859000004000000
B1759103337599N08120863WA0078100864000000000000
B1759133337568N08120823WA0078400868000000000000
B1759163337566N08120765WA0079200878000000000000
B1759193337608N08120738WA0079700875000004000000
B1759223337647N08120773WA0079200874000004000000
B1759253337651N08120825WA0079700888000004000000
B1759283337618N08120849WA0081200896000000000000
B1759313337580N08120827WA0081700899000000000000
B1759343337551N08120789WA0082000904000000000000
B1759373337536N08120737WA0082100900000004000000
B1759403337546N08120678WA0081800900000004000000
B1759433337577N08120632WA0081900905000000000000
B1759463337625N08120613WA0082100908000000000000
B1759493337675N08120617WA0082500915000000000000
B1759523337719N08120637WA0083200927000000000000
B1759553337732N08120684WA0084800941000000000000
B1759583337706N08120713WA0086600956000004000000
B1800013337670N08120702WA0087800963000004000000
B1800043337653N08120652WA0088100961000000000000
B1800073337673N08120599WA0088100967000004000000
B1800103337719N08120586WA0088700974000004000000
B1800133337750N08120620WA0089500980000004000000
B1800163337742N08120667WA0090200991000004000000
B1800193337706N08120684WA0091200996000004000000
B1800223337670N08120650WA0091600997000000000000
B1800253337673N08120587WA0091801002000000000000
B1800283337715N08120552WA0092201006000000000000
B1800313337762N08120570WA0092501010000004000000
B1800343337770N08120622WA0093001020000004000000
B1800373337732N08120650WA0094201031000004000000
B1800403337690N08120624WA0095001035000004000000
B1800433337685N08120561WA0095601041000004000000
B1800463337724N08120524WA0096201043000000000000
B1800493337770N08120538WA0096601051000000000000
B1800523337779N08120582WA0097701064000004000000
B1800553337759N08120613WA0098801074000004000000
B1800583337722N08120616WA0099301074000004000000
B1801013337689N08120585WA0099301074000004000000
B1801043337673N08120531WA0099201075000000000000
B1801073337679N08120473WA0099301079000004000000
B1801103337703N08120422WA0099601079000000000000
B1801133337749N08120394WA0099901086000000000000
B1801163337800N08120396WA0100101085000004000000
B1801193337844N08120424WA0100501098000004000000
B1801223337867N08120466WA0101701109000004000000
B1801253337850N08120512WA0103101124000000000000
B1801283337810N08120520WA0104401131000004000000
B1801313337776N08120479WA0105201137000004000000
B1801343337779N08120420WA0105801143000004000000
B1801373337820N08120385WA0106301147000004000000
B1801403337863N08120401WA0106901157000004000000
B1801433337870N08120448WA0107801160000004000000
B1801463337837N08120479WA0108101167000004000000
B1801493337794N08120465WA0108801173000004000000
B1801523337771N08120411WA0109301177000000000000
B1801553337789N08120351WA0109701183000000000000
B1801583337837N08120327WA0110201188000004000000
B1802013337878N08120353WA0110901198000004000000
B1802043337885N08120399WA0111901210000004000000
B1802073337857N08120427WA0112901216000004000000
B1802103337816N08120413WA0113401216000004000000
B1802133337794N08120359WA0113501218000000000000
B1802163337806N08120297WA0113501223000000000000
B1802193337849N08120262WA0114101228000004000000
B1802223337898N08120266WA0114601234000000000000
B1802253337936N08120295WA0115501244000000000000
B1802283337940N08120343WA0116401252000004000000
B1802313337909N08120369WA0117601267000000000000
B1802343337871N08120355WA0118801274000004000000
B1802373337850N08120308WA0119501276000004000000
B1802403337859N08120252WA0119801282000004000000
B1802433337893N08120214WA0120101283000004000000
B1802463337940N08120203WA0120301289000004000000
B1802493337979N08120218WA0121001298000004000000
B1802523338002N08120252WA0121601301000000000000
B1802553338008N08120295WA0121901302000000000000
B1802583337997N08120336WA0121901296000000000000
B1803013337959N08120364WA0121001288000000000000
B1803043337913N08120368WA0120601299000000000000
B1803073337868N08120362WA0121601306000000000000
B1803103337832N08120326WA0122501313000000000000
B1803133337805N08120284WA0123001315000000000000
B1803163337802N08120226WA0123301315000004000000
B1803193337828N08120178WA0123401316000004000000
B1803223337874N08120158WA0123301312000000000000
B1803253337911N08120190WA0122901311000000000000
B1803283337910N08120244WA0122501310000000000000
B1803313337889N08120288WA0122901322000000000000
B1803343337862N08120322WA0123601325000004000000
B1803373337831N08120347WA0123701319000004000000
B1803403337794N08120373WA0122901305000004000000
B1803433337749N08120396WA0122201308000004000000
B1803463337712N08120424WA0122701321000000000000
B1803493337673N08120447WA0123101305000004000000
B1803523337628N08120476WA0121901292000000000000
B1803553337580N08120511WA0120801292000004000000
B1803583337534N08120550WA0120601289000004000000
B1804013337493N08120595WA0120301298000004000000
B1804043337463N08120643WA0121601315000004000000
B1804073337443N08120689WA0124001335000004000000
B1804103337426N08120729WA0125301349000004000000
B1804133337395N08120738WA0126801356000004000000
B1804163337365N08120706WA0127501359000004000000
B1804193337364N08120646WA0127701362000004000000
B1804223337399N08120593WA0128301376000004000000
B1804253337454N08120578WA0129701390000004000000
B1804283337495N08120608WA0131101398000000000000
B1804313337491N08120654WA0131701403000004000000
B1804343337455N08120655WA0132301406000000000000
B1804373337430N08120607WA0132601412000004000000
B1804403337420N08120550WA0133601429000004000000
B1804433337439N08120490WA0134801437000004000000
B1804463337489N08120456WA0135701446000000000000
B1804493337542N08120464WA0136201449000000000000
B1804523337575N08120505WA0136601456000000000000
B1804553337576N08120555WA0136901457000000000000
B1804583337554N08120595WA0137101464000000000000
B1805013337515N08120603WA0137901471000004000000
B1805043337477N08120576WA0138901480000004000000
B1805073337451N08120533WA0140301504000000000000
B1805103337473N08120476WA0142101506000004000000
B1805133337530N08120461WA0142301509000004000000
B1805163337564N08120507WA0142801515000000000000
B1805193337536N08120539WA0143701530000000000000
B1805223337506N08120496WA0145001539000000000000
B1805253337530N08120438WA0146101549000000000000
B1805283337586N08120434WA0146601546000004000000
B1805313337620N08120479WA0147001563000004000000
B1805343337624N08120521WA0148501578000004000000
B1805373337593N08120538WA0149301572000004000000
B1805403337564N08120492WA0148901568000004000000
B1805433337595N08120427WA0148701574000004000000
B1805463337659N08120417WA0149601594000004000000
B1805493337711N08120447WA0151001603000004000000
B1805523337749N08120491WA0151901611000004000000
B1805553337763N08120541WA0153101624000000000000
B1805583337746N08120582WA0153701623000000000000
B1806013337712N08120606WA0153301613000000000000
B1806043337676N08120634WA0152601597000000000000
B1806073337637N08120674WA0150101577000000000000
B1806103337603N08120729WA0148701562000000000000
B1806133337575N08120795WA0147401557000000000000
B1806163337553N08120867WA0146501551000000000000
B1806193337541N08120941WA0146201547000000000000
B1806223337536N08121018WA0145601537000004000000
B1806253337540N08121093WA0144501525000000000000
B1806283337545N08121171WA0143501518000000000000
B1806313337556N08121248WA0142901517000004000000
B1806343337572N08121322WA0143101516000000000000
B1806373337585N08121396WA0142601507000004000000
B1806403337602N08121473WA0141501493000004000000
B1806433337623N08121552WA0140001479000004000000
B1806463337645N08121634WA0139001464000004000000
B1806493337664N08121718WA0137501454000004000000
B1806523337685N08121802WA0136501451000004000000
B1806553337707N08121881WA0136201449000000000000
B1806583337729N08121959WA0136001446000000000000
B1807013337750N08122037WA0135501436000000000000
B1807043337774N08122116WA0134501424000004000000
B1807073337797N08122197WA0133201410000004000000
B1807103337820N08122279WA0131601394000000000000
B1807133337846N08122362WA0130301383000000000000
B1807163337874N08122442WA0129001372000004000000
B1807193337898N08122520WA0128201367000004000000
B1807223337922N08122597WA0127901366000004000000
B1807253337945N08122671WA0127601359000004000000
B1807283337970N08122744WA0127001357000000000000
B1807313337993N08122817WA0126801355000004000000
B1807343338018N08122888WA0126701353000004000000
B1807373338043N08122960WA0126501351000004000000
B1807403338061N08123031WA0126301351000000000000
B1807433338075N08123103WA0126401351000004000000
B1807463338092N08123176WA0126301348000004000000
B1807493338112N08123239WA0127601389000004000000
B1807523338127N08123280WA0131801424000004000000
B1807553338144N08123311WA0134201428000004000000
B1807583338157N08123346WA0133901407000004000000
B1808013338167N08123399WA0131301378000004000000
B1808043338177N08123468WA0128601360000004000000
B1808073338191N08123542WA0126801345000000000000
B1808103338212N08123620WA0125401336000004000000
B1808133338238N08123696WA0125001338000004000000
B1808163338265N08123768WA0125001333000000000000
B1808193338294N08123839WA0124501325000004000000
B1808223338316N08123913WA0123801317000004000000
B1808253338335N08123986WA0123001314000000000000
B1808283338356N08124058WA0122801315000000000000
B1808313338375N08124110WA0125401376000004000000
B1808343338377N08124147WA0129801397000004000000
B1808373338355N08124164WA0131501393000004000000
B1808403338323N08124139WA0131201384000004000000
B1808433338323N08124079WA0130801395000004000000
B1808463338362N08124040WA0131601399000004000000
B1808493338413N08124047WA0132001399000004000000
B1808523338456N08124069WA0132301407000000000000
B1808553338489N08124108WA0132201396000004000000
B1808583338512N08124165WA0130901385000004000000
B1809013338534N08124227WA0129601368000004000000
B1809043338557N08124298WA0127801355000000000000
B1809073338577N08124372WA0126501344000000000000
B1809103338595N08124448WA0125501339000004000000
B1809133338615N08124526WA0125101335000004000000
B1809163338635N08124606WA0124501324000004000000
B1809193338661N08124685WA0123001302000004000000
B1809223338691N08124767WA0121301291000004000000
B1809253338726N08124846WA0120501295000004000000
B1809283338763N08124922WA0120601296000000000000
B1809313338797N08124996WA0120901302000004000000
B1809343338825N08125062WA0122401333000004000000
B1809373338856N08125118WA0124601341000004000000
B1809403338888N08125172WA0124801320000004000000
B1809433338916N08125239WA0122501292000004000000
B1809463338941N08125315WA0120501281000004000000
B1809493338968N08125388WA0119401278000000000000
B1809523338999N08125456WA0119601292000000000000
B1809553339029N08125512WA0121601318000000000000
B1809583339055N08125566WA0122801312000000000000
B1810013339084N08125624WA0122201299000000000000
B1810043339119N08125687WA0120501277000000000000
B1810073339153N08125759WA0118201259000000000000
B1810103339183N08125835WA0116901254000004000000
B1810133339214N08125908WA0116801258000004000000
B1810163339240N08125981WA0116801248000004000000
B1810193339266N08126055WA0116301257000004000000
B1810223339289N08126111WA0118501308000000000000
B1810253339313N08126153WA0122401323000004000000
B1810283339334N08126196WA0123801324000004000000
B1810313339361N08126233WA0124701345000004000000
B1810343339404N08126240WA0126601362000004000000
B1810373339439N08126201WA0128001366000004000000
B1810403339439N08126140WA0128201360000004000000
B1810433339408N08126097WA0128501382000004000000
B1810463339373N08126097WA0130101394000004000000
B1810493339363N08126137WA0131401404000004000000
B1810523339395N08126171WA0132701420000004000000
B1810553339443N08126166WA0133801422000004000000
B1810583339479N08126120WA0134601440000004000000
B1811013339478N08126064WA0136201454000004000000
B1811043339441N08126042WA0137101457000004000000
B1811073339414N08126068WA0137801473000004000000
B1811103339425N08126111WA0139301483000000000000
B1811133339466N08126133WA0140101486000000000000
B1811163339514N08126114WA0141001507000000000000
B1811193339532N08126060WA0142701522000000000000
B1811223339512N08126017WA0144101525000000000000
B1811253339475N08126010WA0144501533000000000000
B1811283339456N08126042WA0145501548000000000000
B1811313339471N08126084WA0146701557000000000000
B1811343339516N08126099WA0147301558000004000000
B1811373339560N08126067WA0148001575000000000000
B1811403339569N08126011WA0149301583000004000000
B1811433339538N08125967WA0150101590000004000000
B1811463339499N08125963WA0151301609000004000000
B1811493339478N08125990WA0152501624000000000000
B1811523339491N08126032WA0153901627000004000000
B1811553339536N08126050WA0154301634000000000000
B1811583339582N08126029WA0155601658000000000000
B1812013339603N08125981WA0157401668000004000000
B1812043339587N08125930WA0158401671000000000000
B1812073339545N08125908WA0158601680000000000000
B1812103339512N08125917WA0159901701000000000000
B1812133339497N08125951WA0161601707000000000000
B1812163339510N08125991WA0162601718000004000000
B1812193339548N08126012WA0163501726000000000000
B1812223339592N08126003WA0164701741000000000000
B1812253339625N08125964WA0166001749000000000000
B1812283339633N08125911WA0166701760000000000000
B1812313339609N08125869WA0167701764000000000000
B1812343339569N08125861WA0168001773000000000000
B1812373339540N08125882WA0169501788000000000000
B1812403339535N08125917WA0170801794000000000000
B1812433339552N08125958WA0171201796000004000000
B1812463339581N08125990WA0172001810000004000000
B1812493339622N08126001WA0173301822000004000000
B1812523339662N08125980WA0173801827000004000000
B1812553339686N08125929WA0174401832000000000000
B1812583339672N08125876WA0174901839000000000000
B1813013339634N08125854WA0175601848000000000000
B1813043339596N08125859WA0176901865000000000000
B1813073339570N08125884WA0178601879000004000000
B1813103339555N08125916WA0180101889000004000000
B1813133339557N08125959WA0180801895000000000000
B1813163339583N08125994WA0181501903000000000000
B1813193339627N08126003WA0182001906000000000000
B1813223339670N08125977WA0182501915000000000000
B1813253339690N08125925WA0183401923000000000000
B1813283339678N08125871WA0183801925000000000000
B1813313339646N08125832WA0184001928000000000000
B1813343339604N08125813WA0184401942000000000000
B1813373339564N08125817WA0185701955000004000000
B1813403339534N08125835WA0187201967000004000000
B1813433339518N08125869WA0188401974000004000000
B1813463339522N08125910WA0189201981000004000000
B1813493339545N08125943WA0189801985000004000000
B1813523339581N08125962WA0190401992000004000000
B1813553339621N08125964WA0191001998000004000000
B1813583339660N08125942WA0191301997000004000000
B1814013339688N08125899WA0191602002000004000000
B1814043339695N08125843WA0191902003000004000000
B1814073339677N08125791WA0192402011000004000000
B1814103339647N08125755WA0193002024000004000000
B1814133339612N08125737WA0194202032000004000000
B1814163339577N08125737WA0195102037000000000000
B1814193339547N08125756WA0195702047000000000000
B1814223339531N08125787WA0196702057000000000000
B1814253339530N08125822WA0197502059000000000000
B1814283339536N08125858WA0197502053000000000000
B1814313339548N08125900WA0196602042000000000000
B1814343339566N08125951WA0195002020000000000000
B1814373339603N08126003WA0193302015000004000000
B1814403339642N08126056WA0193002019000004000000
B1814433339682N08126108WA0193102019000004000000
B1814463339722N08126158WA0193702033000004000000
B1814493339751N08126209WA0195202049000004000000
B1814523339776N08126259WA0196202048000004000000
B1814553339796N08126310WA0196302047000004000000
B1814583339817N08126365WA0195802036000000000000
B1815013339837N08126426WA0194402014000004000000
B1815043339857N08126493WA0192301997000004000000
B1815073339885N08126563WA0190701989000004000000
B1815103339917N08126631WA0189801980000004000000
B1815133339951N08126699WA0188901971000000000000
B1815163339980N08126771WA0188001964000004000000
B1815193340003N08126847WA0187501969000004000000
B1815223340021N08126909WA0188802000000000000000
B1815253340042N08126963WA0190901994000004000000
B1815283340060N08127024WA0190301970000000000000
B1815313340078N08127094WA0188301957000004000000
B1815343340091N08127167WA0186901957000004000000
B1815373340094N08127237WA0187001965000004000000
B1815403340095N08127302WA0187801967000000000000
B1815433340094N08127367WA0187701955000000000000
B1815463340088N08127437WA0186201936000000000000
B1815493340080N08127509WA0184801930000000000000
B1815523340076N08127579WA0184301937000004000000
B1815553340077N08127642WA0185101943000004000000
B1815583340091N08127701WA0185601945000004000000
B1816013340107N08127758WA0185501935000000000000
B1816043340119N08127822WA0184001915000004000000
B1816073340125N08127892WA0182301898000004000000
B1816103340121N08127966WA0180701888000004000000
B1816133340114N08128040WA0180101883000004000000
B1816163340108N08128113WA0179701885000000000000
B1816193340104N08128183WA0179901888000004000000
B1816223340102N08128252WA0180001883000004000000
B1816253340098N08128322WA0179301873000004000000
B1816283340094N08128394WA0178201862000004000000
B1816313340090N08128467WA0177501867000004000000
B1816343340089N08128528WA0178801888000004000000
B1816373340086N08128584WA0179901884000004000000
B1816403340081N08128643WA0179301865000004000000
B1816433340071N08128708WA0177601857000004000000
B1816463340059N08128773WA0176901854000004000000
B1816493340052N08128840WA0176401847000004000000
B1816523340051N08128907WA0175701837000004000000
B1816553340062N08128978WA0174601826000004000000
B1816583340080N08129045WA0173801822000004000000
B1817013340099N08129115WA0173201810000004000000
B1817043340120N08129187WA0172201805000004000000
B1817073340138N08129258WA0171801802000000000000
B1817103340155N08129327WA0171501806000000000000
B1817133340169N08129394WA0171501806000000000000
B1817163340182N08129459WA0172401805000004000000
B1817193340194N08129524WA0171901794000000000000
B1817223340206N08129594WA0170201777000000000000
B1817253340219N08129668WA0168601766000004000000
B1817283340224N08129742WA0167801766000000000000
B1817313340218N08129815WA0167801767000004000000
B1817343340194N08129881WA0167901765000004000000
B1817373340164N08129946WA0167501753000004000000
B1817403340134N08130014WA0166701748000004000000
B1817433340108N08130084WA0166001750000004000000
B1817463340084N08130149WA0166501754000004000000
B1817493340058N08130213WA0166601753000000000000
B1817523340030N08130274WA0166601753000000000000
B1817553339995N08130328WA0166301740000000000000
B1817583339951N08130382WA0164701723000000000000
B1818013339906N08130440WA0163001709000000000000
B1818043339863N08130505WA0161601700000000000000
B1818073339825N08130574WA0161001697000000000000
B1818103339795N08130645WA0161001695000000000000
B1818133339776N08130721WA0160401686000004000000
B1818163339761N08130800WA0159501674000000000000
B1818193339757N08130879WA0158901683000004000000
B1818223339764N08130950WA0159901699000004000000
B1818253339770N08131015WA0160901694000004000000
B1818283339772N08131084WA0160401679000000000000
B1818313339770N08131158WA0158801664000004000000
B1818343339773N08131234WA0157301652000004000000
B1818373339776N08131312WA0156401649000004000000
B1818403339785N08131389WA0155901640000004000000
B1818433339804N08131466WA0154701622000000000000
B1818463339828N08131544WA0152901607000000000000
B1818493339852N08131624WA0151601596000000000000
B1818523339872N08131705WA0150501589000000000000
B1818553339885N08131786WA0150001587000000000000
B1818583339893N08131865WA0149501580000000000000
B1819013339896N08131945WA0148501565000000000000
B1819043339893N08132029WA0147601551000000000000
B1819073339876N08132109WA0146301542000000000000
B1819103339852N08132186WA0145401541000000000000
B1819133339828N08132259WA0145301537000000000000
B1819163339802N08132329WA0145301546000004000000
B1819193339779N08132385WA0147401576000004000000
B1819223339763N08132430WA0149401582000000000000
B1819253339746N08132478WA0149501569000004000000
B1819283339726N08132533WA0147601552000000000000
B1819313339705N08132593WA0147001559000004000000
B1819343339690N08132650WA0147801571000004000000
B1819373339679N08132699WA0149001587000000000000
B1819403339674N08132744WA0150501594000004000000
B1819433339672N08132788WA0151701602000000000000
B1819463339669N08132829WA0152401608000000000000
B1819493339668N08132871WA0152801615000000000000
B1819523339661N08132909WA0153501616000000000000
B1819553339656N08132948WA0153201608000000000000
B1819583339651N08132993WA0152001593000000000000
B1820013339647N08133047WA0150301574000000000000
B1820043339642N08133108WA0148401560000000000000
B1820073339638N08133169WA0147601559000004000000
B1820103339635N08133230WA0146601543000004000000
B1820133339634N08133296WA0145101531000000000000
B1820163339634N08133362WA0144301525000004000000
B1820193339633N08133427WA0143701520000004000000
B1820223339630N08133494WA0143001503000000000000
B1820253339629N08133565WA0140901485000004000000
B1820283339627N08133641WA0139601463000004000000
B1820313339629N08133723WA0137201445000004000000
B1820343339630N08133798WA0136401459000004000000
B1820373339630N08133868WA0136801447000004000000
B1820403339621N08133942WA0135701428000004000000
B1820433339599N08134016WA0133901409000004000000
B1820463339573N08134092WA0132101404000000000000
B1820493339551N08134167WA0131601402000004000000
B1820523339535N08134240WA0132201433000004000000
B1820553339522N08134301WA0134801436000004000000
B1820583339509N08134362WA0134401420000004000000
B1821013339499N08134428WA0133201412000000000000
B1821043339491N08134500WA0132601406000000000000
B1821073339483N08134570WA0131901401000000000000
B1821103339474N08134642WA0131401396000004000000
B1821133339465N08134708WA0131601417000000000000
B1821163339464N08134765WA0133501434000000000000
B1821193339466N08134820WA0134801429000004000000
B1821223339466N08134878WA0134201413000004000000
