ANKL0ZH
HFDTE230421
HFFXA050
HFPLTPILOT:Nelson Howe
HFGTYGLIDERTYPE:Discus 2b
HFGIDGLIDERID:1X       .
HFDTM100GPSDATUM:
HFRFWFIRMWAREVERSION:40 2011-6-17
HFRHWHARDWAREVERSION: NKL ClearNav V1.0
HFFTYFRTYPE:Nielsen Kellerman, ClearNav-IGC
HFGPS:UBLOX,LEA-4H-0-000-1,16Ch,18000 
HFPRSPRESSALTSENSOR:Intersema,MS5534B,20000 
I033638FXA3941ENL4247REX
C230421160705000000000103
C0000000N00000000WTAKEOFF     
C3337283N08124000W02Start 2
C3339887N08142561WArea 38West 
C3327692N08125546WArea 41Willi
C3259670N08116318WArea 07Allen
C3337617N08119732W05Finish
C0000000N00000000WLANDING     
B1624173337798N08119614WA0006400131001000002008
B1624183337798N08119614WA0006300131001000002008
B1624193337798N08119614WA0006400131001000002008
B1624203337798N08119614WA0006300131001000002008
B1624213337798N08119614WA0006400131001000002008
B1624223337798N08119614WA0006300131001000002008
B1624233337798N08119614WA0006300131001000002008
B1624243337798N08119614WA0006300131001000002008
B1624253337798N08119614WA0006300131001000002008
B1624263337798N08119614WA0006300131001000002008
B1624273337798N08119614WA0006300131001000002008
B1624283337798N08119614WA0006400131001000002008
B1624293337798N08119614WA0006400131001000002008
B1624303337798N08119614WA0006300131001002002008
B1624313337798N08119614WA0006300131001006002008
B1624323337798N08119614WA0006300131001009002008
B1624333337798N08119614WA0006300131001015002008
B1624343337798N08119614WA0006300131001022002008
B1624353337798N08119613WA0006400131001025002008
B1624363337798N08119613WA0006400131001022002008
B1624373337798N08119613WA0006400130001022002008
B1624383337798N08119613WA0006300130001020002008
B1624393337798N08119614WA0006300130001022002008
B1624403337798N08119614WA0006400130001022002008
B1624413337798N08119614WA0006400130001015002008
B1624423337798N08119613WA0006300130001009002008
B1624433337798N08119613WA0006400130001000002008
B1624443337798N08119613WA0006400130001000002008
B1624453337798N08119613WA0006300130001000002008
B1624463337798N08119613WA0006300130001000002008
B1624473337798N08119613WA0006300130001000002008
B1624483337798N08119613WA0006300130001000002008
B1624493337798N08119613WA0006400130001000002008
B1624503337798N08119613WA0006300130001000002008
B1624513337798N08119613WA0006400130001000002008
B1624523337798N08119613WA0006400130001000002008
B1624533337798N08119613WA0006500130001000002008
B1624543337798N08119613WA0006400130001000002008
B1624553337798N08119613WA0006400130001000002008
B1624563337798N08119613WA0006400130001000002008
B1624573337798N08119613WA0006400130001000002008
B1624583337798N08119613WA0006400130001000002008
B1624593337798N08119613WA0006400130001000002008
B1625003337798N08119613WA0006300130001000002008
B1625013337798N08119613WA0006400130001000002008
B1625023337798N08119613WA0006400131001000002008
B1625033337798N08119613WA0006300131001000002008
B1625043337798N08119613WA0006400130001000002008
B1625053337798N08119613WA0006400130001000002008
B1625063337798N08119613WA0006400130001000002008
B1625073337798N08119613WA0006300130001000002008
B1625083337798N08119613WA0006300130001000002008
B1625093337798N08119613WA0006300130001000002008
B1625103337798N08119613WA0006400130001000002008
B1625113337798N08119613WA0006300130001000002008
B1625123337798N08119613WA0006400130001000002008
B1625133337798N08119613WA0006400130001000002008
B1625143337798N08119613WA0006300130001000002008
B1625153337798N08119613WA0006300130001000002008
B1625163337798N08119613WA0006300130001000002008
B1625173337798N08119613WA0006300130001000002008
B1625183337798N08119613WA0006300130001000002008
B1625193337798N08119613WA0006300130001000002008
B1625203337798N08119613WA0006300130001000002008
B1625213337798N08119613WA0006400130001000002008
B1625223337798N08119613WA0006300130001000002008
B1625233337798N08119613WA0006400130001000002008
B1625243337798N08119613WA0006400130001000002008
B1625253337798N08119613WA0006300130001000002008
B1625263337798N08119613WA0006300130001000002008
B1625273337798N08119613WA0006300130001000002008
B1625283337798N08119613WA0006300130001000002008
B1625293337798N08119613WA0006300130001000002008
B1625303337798N08119613WA0006300130001004002008
B1625313337798N08119613WA0006300130001016002008
B1625323337798N08119613WA0006300130001027002008
B1625333337798N08119613WA0006400130001032002008
B1625343337798N08119613WA0006300130001023002008
B1625353337798N08119613WA0006400130001013002008
B1625363337798N08119613WA0006400130001002002008
B1625373337798N08119613WA0006300130001000002008
B1625383337798N08119613WA0006400130001000002008
B1625393337798N08119613WA0006400130001000002008
B1625403337798N08119613WA0006400130001000002008
B1625413337798N08119613WA0006400130001000002008
B1625423337798N08119613WA0006400130001000002008
B1625433337798N08119613WA0006400130001000002008
B1625443337798N08119613WA0006300130001000002008
B1625453337798N08119613WA0006300130001000002008
B1625463337798N08119613WA0006400130001000002008
B1625473337798N08119613WA0006300130001000002008
B1625483337798N08119613WA0006300130001000002008
B1625493337798N08119613WA0006300130001000002008
B1625503337798N08119613WA0006300130001000002008
B1625513337798N08119613WA0006300129001000002008
B1625523337798N08119613WA0006400129002000002008
B1625533337798N08119613WA0006300129002000002008
B1625543337798N08119613WA0006300129002000002008
B1625553337798N08119613WA0006200129002000002008
B1625563337798N08119613WA0006300129002000002008
B1625573337798N08119613WA0006300129002000002008
B1625583337798N08119613WA0006200129001000002008
B1625593337798N08119613WA0006300129001000002008
B1626003337798N08119613WA0006400129001000002008
B1626013337798N08119613WA0006300129001000002008
B1626023337798N08119613WA0006300129001000002008
B1626033337798N08119613WA0006300129001000002008
B1626043337798N08119613WA0006300129001000002008
B1626053337798N08119613WA0006300129001000002008
B1626063337798N08119613WA0006300129001000002008
B1626073337798N08119613WA0006400129001000002008
B1626083337798N08119613WA0006400129001000002008
B1626093337798N08119613WA0006300129001000002008
B1626103337798N08119613WA0006300129001000002008
B1626113337798N08119613WA0006400129001000002008
B1626123337798N08119613WA0006400129001000002008
B1626133337798N08119613WA0006400129001000002008
B1626143337798N08119613WA0006300129001000002008
B1626153337798N08119614WA0006400129001000002008
B1626163337797N08119615WA0006300129001000002008
B1626173337797N08119618WA0006300129001007002000
F1626174430090714172801212708
B1626193337795N08119627WA0006200129001048002000
B1626213337791N08119642WA0006300128001093002000
B1626233337787N08119661WA0006000128001142002000
B1626253337781N08119685WA0006200128001186002000
B1626273337775N08119713WA0006200127001221002000
B1626293337768N08119745WA0005900127001258002000
B1626313337760N08119781WA0006200127001249002000
B1626333337752N08119819WA0006400128002197002000
B1626353337743N08119860WA0006800130002146002000
B1626373337732N08119902WA0007500135002111002000
B1626393337720N08119944WA0007900142002090002000
B1626413337708N08119987WA0008400146002072002000
B1626433337695N08120029WA0009100153002062002000
B1626453337679N08120069WA0010200162002057002000
B1626473337664N08120110WA0010800170002052003000
B1626493337650N08120152WA0011000176002052003000
B1626513337635N08120193WA0011800180002050003000
B1626533337618N08120235WA0012200186002043003000
B1626553337602N08120276WA0012900190002046003000
B1626573337585N08120316WA0013300197002052003000
B1626593337567N08120356WA0013700200002055003000
B1627013337551N08120397WA0014500206002052003000
B1627033337535N08120438WA0015200213002050003000
B1627053337519N08120479WA0016200222002048003000
B1627073337503N08120519WA0017000231002041003000
B1627093337489N08120560WA0017600238002037003000
B1627113337478N08120602WA0018400245002037003000
B1627133337468N08120645WA0019500253002037003000
B1627153337460N08120688WA0020000263002037003000
B1627173337452N08120731WA0021000271002037003000
B1627193337443N08120774WA0021800280002037003000
B1627213337433N08120817WA0022800289002037003000
B1627233337424N08120861WA0024100299002039003000
B1627253337414N08120904WA0025400312002043003000
B1627273337409N08120948WA0027200327002043003000
B1627293337410N08120993WA0027700338002043003000
B1627313337415N08121037WA0028500347002046003000
B1627333337420N08121081WA0029200353002041003000
B1627353337429N08121124WA0029700360002043003000
B1627373337443N08121165WA0030400366002050003000
B1627393337461N08121205WA0031000371002050003000
B1627413337484N08121242WA0031500377002052003000
B1627433337507N08121280WA0031800382002048003000
B1627453337531N08121318WA0032400386002043003000
B1627473337561N08121351WA0032500390002043003000
B1627493337595N08121378WA0033200394002043003000
B1627513337630N08121404WA0034300402002046003000
B1627533337666N08121427WA0034700410002046003000
B1627553337706N08121440WA0035100416002050003000
B1627573337748N08121445WA0035500419002050003000
B1627593337790N08121445WA0036100425002048003000
B1628013337832N08121444WA0036800430002050003000
B1628033337874N08121439WA0037300437002048003000
B1628053337914N08121426WA0037600441002046003000
B1628073337953N08121407WA0038200446002041003000
B1628093337990N08121384WA0038800450002037003000
B1628113338024N08121357WA0040100459002037003000
B1628133338055N08121325WA0040800470002037003000
B1628153338082N08121289WA0041500479002037003000
B1628173338107N08121252WA0042600486002037003000
B1628193338129N08121212WA0042800493002037003000
B1628213338146N08121169WA0043200499002037003000
B1628233338160N08121124WA0043500503002037003000
B1628253338170N08121078WA0044200506002037003000
B1628273338178N08121030WA0044600512002037003000
B1628293338185N08120982WA0045400518002039003000
B1628313338192N08120935WA0046700529002048003000
B1628333338202N08120888WA0048200543002060003000
B1628353338210N08120840WA0049100556002065003000
B1628373338217N08120791WA0049600563002062003000
B1628393338225N08120739WA0050000567002055003000
B1628413338236N08120687WA0050900574002048003000
B1628433338245N08120634WA0051700582002046003000
B1628453338252N08120582WA0052300591002043003000
B1628473338258N08120530WA0052800597002041003000
B1628493338264N08120478WA0053700602002041003000
B1628513338269N08120426WA0054500610002043003000
B1628533338273N08120374WA0055100619002041003000
B1628553338277N08120323WA0056100627002039003000
B1628573338282N08120272WA0057000635002041003000
B1628593338288N08120222WA0058700647002046003000
B1629013338296N08120174WA0059900663002048003000
B1629033338307N08120127WA0060900677002046003000
F16290330090714172801212708
B1629053338319N08120080WA0061500684002048003000
B1629073338333N08120033WA0062000688002048003000
B1629093338350N08119988WA0062200693002048003000
B1629113338369N08119945WA0062800697002050003000
B1629133338393N08119905WA0063400702002046003000
B1629153338417N08119865WA0063700707002048003000
B1629173338443N08119827WA0064400712002055003000
B1629193338471N08119789WA0064900717002048003000
B1629213338499N08119752WA0065200722002043003000
B1629233338532N08119720WA0065700727002050003000
B1629253338567N08119692WA0066200731002057003000
B1629273338603N08119667WA0066500736002057003000
B1629293338640N08119642WA0066500739002055003000
B1629313338675N08119617WA0066000738002064003000
B1629333338706N08119588WA0065600735002067003000
B1629353338733N08119556WA0065100728002046003000
B1629373338757N08119519WA0064700722002029003000
B1629393338776N08119479WA0063600714002027003000
B1629413338796N08119439WA0063200707002018003000
B1629433338820N08119401WA0062500701002011003000
F1629434430090714172801212708
B1629453338846N08119365WA0061800695002011003000
B1629473338870N08119326WA0061200688002013003000
B1629493338891N08119285WA0060600682002018003000
B1629513338908N08119240WA0060400677002018003000
F16295230090714172801212708
B1629533338917N08119192WA0060300674002027003000
B1629553338914N08119143WA0060000673002057003000
B1629573338900N08119098WA0059900669002093003000
B1629593338880N08119056WA0059900668002130003000
B1630013338855N08119019WA0060500672002149003000
B1630033338828N08118983WA0060400674002163003000
B1630053338805N08118943WA0060900677002158003000
B1630073338797N08118895WA0062100687002111003000
B1630093338812N08118851WA0063200700003069004000
B1630113338846N08118825WA0063700709003044004000
B1630133338885N08118825WA0064000714003051004000
B1630153338915N08118849WA0064000714004093005000
F163015300907141728012108
B1630173338929N08118886WA0064100714003132004000
F16301830090714172728012108
B1630193338923N08118924WA0063700712003167004000
B1630213338903N08118955WA0063600709002179003000
B1630233338873N08118974WA0063700711002149003000
B1630253338838N08118981WA0063700712002137003000
B1630273338802N08118977WA0064200713002160003000
B1630293338765N08118964WA0064900721002146003000
B1630313338731N08118941WA0065000724002092003000
B1630333338700N08118908WA0065000724002095003000
B1630353338683N08118862WA0065600729002170003000
B1630373338684N08118811WA0065800734002191003000
B1630393338701N08118766WA0065600733002149003000
B1630413338733N08118736WA0065100729002121003000
B1630433338773N08118726WA0064600726003095003000
B1630453338812N08118740WA0064200721003091004000
B1630473338841N08118772WA0063800713003125004000
B1630493338859N08118815WA0063500709002144003000
B1630513338872N08118860WA0064200713002107003000
B1630533338873N08118905WA0065700723003064004000
B1630553338851N08118937WA0066600736003055004000
F163056300714172728012108
B1630573338816N08118940WA0067400746003050004000
B1630593338787N08118914WA0067700752003039004000
B1631013338774N08118868WA0067500753002032004000
B1631033338785N08118819WA0067300752002022003000
F16310430090714172728012108
B1631053338819N08118785WA0067500753003020004000
B1631073338862N08118783WA0068300758005020004000
F163108300907141727012108
B1631093338888N08118816WA0068800767005025004000
F16310930090714172728012108
F163110300907172728012108
B1631113338886N08118860WA0069200768005029005000
F16311130090714172728012108
F1631123007172728012108
B1631133338863N08118888WA0069200772004046005000
F163113300714172728012108
B1631153338827N08118889WA0069100772005081006000
F16311530090714172728012108
F1631163007141727282108
B1631173338797N08118858WA0069200771006111007000
F163117300907141727282108
F163118301307141727282108
B1631193338784N08118805WA0069600776003130004000
F1631193009130714172728012108
B1631213338792N08118751WA0070700783003149004000
B1631233338820N08118710WA0071800796002128004000
F16312430091307141728012108
B1631253338855N08118690WA0072200802003076004000
B1631273338891N08118693WA0072000801003053005000
B1631293338914N08118723WA0071500795003071005000
B1631313338918N08118764WA0071400792004078005000
F163131300907141728012108
F1631323007141728012108
B1631333338900N08118800WA0071900792004048004000
F163133302707141728012108
B1631353338862N08118809WA0072600796003034004000
B1631373338825N08118788WA0073300802003034003000
F163138302713071428012108
B1631393338803N08118746WA0073600805002074003000
B1631413338800N08118695WA0073800806002139003000
F16314130270913071428012108
B1631433338815N08118647WA0073600806002132003000
F1631433027091307141728012108
B1631453338846N08118613WA0073600806003109004000
B1631473338888N08118598WA0073600810003158004000
B1631493338929N08118604WA0073500812003207004000
B1631513338961N08118631WA0073600813003216004000
F16315130270907141728012108
B1631533338978N08118669WA0073700813002186003000
F1631543027091307141728012108
B1631553338979N08118712WA0074200816003130004000
B1631573338967N08118752WA0074800821002081004000
F16315730270907141728012108
B1631593338939N08118778WA0075900829003048004000
B1632013338905N08118775WA0076500838003062004000
B1632033338878N08118745WA0076400841002116004000
F1632033027091307141728012108
B1632053338873N08118698WA0076600839002135003000
F16320530091307141728012108
B1632073338889N08118652WA0076100838002112003000
F1632073027091307141728012108
F16320830091307141728012108
B1632093338923N08118622WA0076100839002090003000
F1632103027091307141728012108
B1632113338963N08118610WA0076200841002074004000
B1632133339004N08118615WA0076500843002097003000
B1632153339039N08118638WA0076800844002144003000
F16321530270907141728012108
B1632173339062N08118675WA0076700844002135004000
F1632183027091307141728012108
B1632193339072N08118717WA0076200842002102004000
B1632213339070N08118762WA0075900838002097003000
B1632233339055N08118803WA0075800837002114004000
B1632253339026N08118830WA0076300835003135004000
B1632273338988N08118833WA0076400837004149004000
F16322730270907141728012108
B1632293338952N08118810WA0076800838003158004000
F1632303027091307141728012108
B1632313338929N08118769WA0076800841003172004000
B1632333338922N08118718WA0077200844002193003000
B1632353338930N08118667WA0077300848002179003000
B1632373338948N08118619WA0077500849002154003000
B1632393338974N08118578WA0077600849002121003000
B1632413339011N08118553WA0078100853002076003000
B1632433339050N08118558WA0078900859003083004000
B1632453339075N08118590WA0079000863003088004000
B1632473339073N08118631WA0078800862004060005000
F16324730270907141728012108
B1632493339045N08118655WA0079000863003048004000
B1632513339007N08118653WA0079500866003050004000
B1632533338977N08118623WA0080300872003076004000
F1632543027091307141728012108
B1632553338965N08118574WA0080200874003128004000
B1632573338977N08118525WA0079900872002132003000
B1632593339013N08118498WA0080200871003097004000
B1633013339053N08118502WA0080400873003100004000
F16330230270913071417282108
B1633033339078N08118537WA0080600874003139004000
F1633033027091307141701282108
B1633053339082N08118579WA0080600874003132004000
B1633073339065N08118617WA0080700874002081004000
B1633093339035N08118639WA0081000875003067004000
B1633113338998N08118647WA0081000877003095004000
B1633133338957N08118640WA0081200878003102004000
B1633153338918N08118614WA0081400882003078004000
B1633173338890N08118570WA0082200887003064005000
B1633193338884N08118515WA0082400892003060004000
B1633213338899N08118465WA0082800896002093003000
B1633233338930N08118431WA0082600898002144004000
B1633253338969N08118419WA0082300896003179004000
B1633273339005N08118434WA0082500895003209004000
F16332830270907141701282108
B1633293339030N08118466WA0082100894003223004000
F1633303027091307141701282108
B1633313339041N08118505WA0082300892002218004000
B1633333339035N08118546WA0082500894002172004000
B1633353339012N08118577WA0082700895002132004000
B1633373338978N08118591WA0082900899003135004000
B1633393338939N08118589WA0083100901003116004000
B1633413338900N08118569WA0083200902002100004000
B1633433338868N08118533WA0083000902002118004000
B1633453338846N08118486WA0082700900002114003000
B1633473338838N08118433WA0082500896002086003000
B1633493338850N08118383WA0082000893002062003000
B1633513338879N08118347WA0081500889002039004000
B1633533338918N08118332WA0080900882003025004000
B1633553338955N08118342WA0079700874002029004000
B1633573338986N08118368WA0079100864002032004000
F16335730270907141701282108
B1633593339009N08118404WA0078000855002032004000
B1634013339025N08118447WA0077800852002053004000
B1634033339034N08118492WA0078300852002060004000
B1634053339026N08118538WA0079300857003060004000
B1634073338994N08118562WA0081300871003083004000
F163407302709071417012108
B1634093338957N08118551WA0081800883004085005000
B1634113338933N08118513WA0081800885003074004000
F16341130270913071417012108
F1634123027091307141701282108
B1634133338929N08118464WA0081400883003104004000
B1634153338943N08118417WA0080900882002156004000
B1634173338973N08118384WA0080800880002202004000
B1634193339010N08118369WA0080400878002216004000
B1634213339050N08118373WA0080300876002188004000
B1634233339084N08118393WA0080100875002184004000
F16342430270907141701282108
B1634253339108N08118427WA0080300875002193004000
B1634273339119N08118469WA0080700877002141004000
B1634293339114N08118512WA0080500878002088004000
F1634293027091307141701282108
B1634313339096N08118550WA0080700876002095004000
F16343130270907141701282108
F1634323027091307141701282108
B1634333339066N08118578WA0080900878003114004000
B1634353339027N08118585WA0081500883003100004000
B1634373338989N08118570WA0082200887003102004000
B1634393338961N08118531WA0082400894003123004000
B1634413338950N08118482WA0082400896002137004000
B1634433338953N08118431WA0081800893002151004000
B1634453338971N08118386WA0081600888002144004000
B1634473339002N08118353WA0081900888002144004000
B1634493339040N08118335WA0081500888002128004000
B1634513339079N08118334WA0081700888002109004000
B1634533339114N08118352WA0082000890002125004000
F16345430270907141701282108
B1634553339139N08118383WA0082400894002116004000
F1634563027091307141701282108
B1634573339153N08118422WA0082000894002083004000
B1634593339155N08118464WA0081800891002109004000
B1635013339143N08118503WA0082000890002160004000
F163501302709130714170128442108
B1635033339120N08118534WA0082200893002172004000
B1635053339090N08118559WA0081900893002135004000
B1635073339056N08118581WA0082200893002081004000
B1635093339020N08118602WA0082600896002048004000
B1635113338983N08118621WA0082200898002034004000
B1635133338946N08118641WA0081800892002041004000
B1635153338909N08118661WA0080600882002053004000
B1635173338870N08118677WA0080200874002055004000
B1635193338830N08118689WA0080000872002048003000
B1635213338789N08118697WA0079400867002055003000
B1635233338748N08118705WA0079000861002065003000
B1635253338706N08118715WA0078900859002067003000
B1635273338665N08118726WA0078500857002060003000
B1635293338624N08118739WA0078000852002050003000
B1635313338583N08118755WA0077800848002065003000
B1635333338541N08118772WA0078000848002069003000
B1635353338500N08118791WA0078200851002053003000
B1635373338459N08118811WA0078700853002053003000
B1635393338418N08118830WA0079800861002062003000
B1635413338377N08118842WA0080500870002050003000
B1635433338337N08118834WA0082000882003034004000
F1635443027091307141701282108
B1635453338312N08118798WA0083000896003027004000
F16354530091307141701282108
B1635473338315N08118750WA0083300905003039004000
F1635483027091307141701282108
B1635493338344N08118714WA0083400908003057004000
F16355030270907141701282108
B1635513338386N08118706WA0084000912003048004000
B1635533338424N08118725WA0084800915004032006000
B1635553338449N08118764WA0086000922003018005000
B1635573338447N08118810WA0087000938003009004000
B1635593338423N08118838WA0087800948003013004000
B1636013338390N08118836WA0088200951003015004000
F1636023027091307141701282108
B1636033338370N08118805WA0088200951003011004000
B1636053338372N08118762WA0088400948003009004000
B1636073338399N08118729WA0089000953003011005000
B1636093338438N08118719WA0090300965003009005000
B1636113338475N08118735WA0091000976003004004000
B1636133338497N08118769WA0091100981002004004000
B1636153338500N08118811WA0091500982002032004000
F16361530270907141701282108
B1636173338481N08118845WA0090900979003062004000
B1636193338447N08118854WA0091100979003050005000
B1636213338415N08118833WA0091700983003027004000
F1636223027091307141701282108
B1636233338403N08118790WA0092300989003022005000
B1636253338417N08118747WA0092800994002032004000
B1636273338450N08118722WA0093200999003037004000
B1636293338491N08118726WA0094101006003032005000
B1636313338522N08118757WA0094401012003024004000
B1636333338530N08118801WA0095001018003022005000
B1636353338516N08118841WA0095501024003022004000
B1636373338487N08118861WA0095901029003018005000
B1636393338454N08118852WA0096201032004009005000
B1636413338433N08118818WA0096501035003004004000
F16364130271307141701282108
B1636433338435N08118774WA0096701038003034004000
B1636453338457N08118738WA0097401042003071004000
F1636453027091307141701282108
F16364630091307141701282108
B1636473338493N08118719WA0098001050003062004000
B1636493338534N08118722WA0098701058003041004000
B1636513338567N08118745WA0099201064002027004000
B1636533338587N08118782WA0099401066003015004000
B1636553338585N08118824WA0099501066003034004000
F163656300907141701282108
B1636573338565N08118858WA0099801068003046004000
F16365727300907141701282108
B1636593338533N08118869WA0100801074003027004000
B1637013338503N08118852WA0101601083003013004000
F1637012730091307141701282108
B1637033338488N08118816WA0102001089002009004000
F16370327301307141701282108
B1637053338497N08118775WA0102101091002009004000
B1637073338528N08118750WA0102701095002009004000
F1637072730091307141701282108
B1637093338568N08118754WA0103001101003006004000
B1637113338594N08118787WA0103301104003013004000
F16371130091307141701282108
B1637133338597N08118831WA0103301104003046004000
B1637153338577N08118867WA0103801106002057004000
F1637162730091307141701282108
B1637173338543N08118878WA0104801112003039004000
B1637193338511N08118862WA0105401119003025004000
B1637213338493N08118826WA0105901125002013004000
B1637233338496N08118781WA0106401129003009004000
B1637253338518N08118745WA0106601132002039004000
F16372630091307141701282108
B1637273338556N08118726WA0107201138003067004000
F1637282730091307141701282108
B1637293338596N08118733WA0107601144003051004000
F16372930091307141701282108
F1637302730091307141701282108
B1637313338626N08118766WA0107801147003032004000
B1637333338634N08118810WA0108101149003029004000
F16373427300907141701282108
B1637353338619N08118850WA0108601152003029004000
B1637373338589N08118868WA0109501157003024004000
B1637393338556N08118859WA0109701163003022004000
F1637402730130907141701282108
B1637413338533N08118828WA0109801163003020004000
F16374227301307141701282108
B1637433338530N08118785WA0110301168002013004000
B1637453338549N08118745WA0110701171002018004000
F1637452730130907141701282108
B1637473338584N08118727WA0111301176003025004000
B1637493338621N08118742WA0111801183003022004000
F16375030130907141701282108
B1637513338641N08118779WA0112101188003043004000
B1637533338638N08118821WA0112001188003057004000
F163753300907141701282108
B1637553338614N08118847WA0112401188004041005000
F16375527300907141701282108
B1637573338581N08118844WA0112901192004034005000
F163758273009071401282108
B1637593338557N08118815WA0113301199004069005000
F16375927301309071401282108
B1638013338550N08118773WA0113701204003088005000
B1638033338564N08118734WA0114001206003058005000
F1638032730130907141701282108
F16380430130907141701282108
B1638053338596N08118715WA0114801215003041005000
B1638073338633N08118718WA0115301225004034005000
B1638093338663N08118742WA0115701228004018006000
B1638113338677N08118781WA0115901227004009005000
F163812300907141701282108
B1638133338670N08118820WA0116001227004004006000
F16381427300907141701282108
B1638153338645N08118846WA0116201229004002005000
B1638173338613N08118845WA0116301231003030005000
B1638193338587N08118819WA0116401231003090005000
F1638202730130907141701282108
B1638213338579N08118778WA0116401232003119004000
B1638233338591N08118738WA0116701234003093004000
B1638253338622N08118711WA0117001237003060004000
B1638273338660N08118708WA0117501241004039005000
B1638293338693N08118731WA0118001245004034006000
F163829300907141701282108
B1638313338710N08118770WA0118301247004032006000
B1638333338705N08118812WA0118201249005022007000
F16383330130907141701282108
F163834300907141701282108
B1638353338681N08118841WA0118301249004013006000
F1638352730130907141701282108
B1638373338648N08118844WA0118201252004025006000
F16383827301309071701282108
B1638393338616N08118823WA0118001251004062005000
F1638392730130907141701282108
B1638413338594N08118784WA0118001248004116005000
B1638433338591N08118737WA0118501252003153004000
B1638453338607N08118694WA0118601255003158004000
B1638473338639N08118665WA0118801257003179004000
B1638493338678N08118657WA0119101259004212005000
B1638513338717N08118669WA0119501262004184006000
B1638533338750N08118695WA0119701264005128007000
F16385327300907141701282108
B1638553338773N08118733WA0120001266006144008000
B1638573338782N08118777WA0120401269005170008000
B1638593338772N08118820WA0120801274005130007000
F1639002730130907141701282108
B1639013338749N08118853WA0121401278004074006000
B1639033338719N08118875WA0121701281005041007000
B1639053338682N08118881WA0122301287004027006000
B1639073338649N08118861WA0123001294004020005000
B1639093338635N08118820WA0123401299003039004000
B1639113338646N08118777WA0123601303003055004000
B1639133338675N08118752WA0124001307003076005000
B1639153338710N08118753WA0124401311004081006000
F16391630130907141701282108
B1639173338737N08118780WA0124501313004055006000
B1639193338747N08118820WA0124901316004062006000
F1639202730130907141701282108
B1639213338741N08118860WA0125101318004069006000
B1639233338719N08118891WA0125501321003053005000
B1639253338685N08118900WA0125901325003034005000
B1639273338654N08118881WA0126001328004036005000
B1639293338640N08118841WA0126101331003081005000
B1639313338649N08118796WA0125801330003107004000
B1639333338677N08118764WA0125901331003097005000
F16393430130907141701282108
B1639353338715N08118756WA0126401333003102005000
B1639373338752N08118768WA0126401335004107006000
B1639393338785N08118794WA0126401336004125006000
F1639402730130907141701282108
B1639413338812N08118829WA0126901339004135006000
F16394127301309071417012808
F1639422730130907141701282108
B1639433338832N08118870WA0127601346004104006000
B1639453338846N08118914WA0127601350004067006000
B1639473338845N08118959WA0128101352004048006000
B1639493338824N08118991WA0128401355004088006000
B1639513338790N08118998WA0129101360004114006000
B1639533338760N08118977WA0129901365004076006000
B1639553338744N08118937WA0130301371004046006000
B1639573338750N08118893WA0130601374004027005000
B1639593338775N08118857WA0130901378003018005000
B1640013338811N08118840WA0131601384003015005000
B1640033338849N08118844WA0132001389003020005000
B1640053338879N08118869WA0132401393003029005000
B1640073338893N08118906WA0132701396003022005000
B1640093338888N08118945WA0132701395003029005000
F16401027300907141701282108
B1640113338866N08118974WA0132401394003095005000
B1640133338834N08118987WA0132301395004132005000
B1640153338800N08118981WA0133001398004130005000
F1640152730130907141701282108
B1640173338768N08118958WA0133201403004144006000
B1640193338746N08118921WA0133701410004116005000
B1640213338740N08118876WA0134301413004069005000
B1640233338753N08118831WA0134401416003046004000
B1640253338784N08118802WA0134601418002058004000
F16402530130907141701282108
B1640273338823N08118795WA0134601419002095004000
F1640272730130907141701282108
B1640293338861N08118811WA0134801421003109004000
F16403027300907141701282108
B1640313338890N08118842WA0135201423002097004000
F1640322730130907141701282108
B1640333338904N08118882WA0135301426003083004000
F16403327301309071417012808
F1640342730130907141701282108
B1640353338903N08118925WA0135201426003111004000
B1640373338888N08118963WA0135201426003144004000
B1640393338860N08118986WA0135301425003142004000
B1640413338824N08118989WA0135401427003167004000
B1640433338789N08118975WA0135401428003184004000
B1640453338761N08118944WA0135401428003197004000
B1640473338746N08118901WA0135201428002220004000
B1640493338749N08118854WA0135301427002230004000
B1640513338770N08118812WA0135401427002202004000
B1640533338803N08118781WA0135601428002144004000
B1640553338842N08118760WA0135701429002133004000
B1640573338884N08118747WA0136101432002116004000
B1640593338928N08118745WA0136101434002076004000
B1641013338972N08118750WA0136201434002050004000
B1641033339014N08118766WA0136601437002041004000
B1641053339052N08118790WA0136701440002050004000
B1641073339084N08118822WA0137101442002083004000
B1641093339110N08118863WA0137301445002090004000
B1641113339130N08118906WA0137001445002067004000
B1641133339145N08118953WA0136501441002104004000
B1641153339153N08119002WA0136301438002172004000
B1641173339155N08119051WA0136301437002195004000
B1641193339152N08119098WA0136501438002198004000
B1641213339146N08119143WA0136701440002200004000
B1641233339137N08119187WA0136801442002207004000
B1641253339124N08119228WA0136501441002214004000
B1641273339107N08119267WA0135501433002221004000
B1641293339086N08119305WA0134801424002242004000
B1641313339063N08119343WA0134301418002260004000
B1641333339037N08119381WA0133901413002237004000
B1641353339009N08119418WA0133001407002214004000
B1641373338981N08119456WA0132501399002200004000
B1641393338952N08119495WA0132401396002160004000
B1641413338924N08119535WA0132501395002134004000
B1641433338897N08119575WA0133001398002118004000
B1641453338870N08119615WA0133501403002107004000
B1641473338844N08119654WA0133901407002111004000
B1641493338819N08119693WA0134101410002095004000
B1641513338795N08119733WA0134501413002076004000
B1641533338773N08119773WA0135001416002076004000
B1641553338751N08119815WA0135601422002065004000
B1641573338731N08119856WA0135901427002043004000
B1641593338711N08119898WA0136301431002034004000
B1642013338690N08119938WA0136601435002034004000
B1642033338669N08119977WA0136701436002036004000
B1642053338647N08120015WA0136401436002048004000
B1642073338624N08120053WA0136001432002062004000
B1642093338600N08120091WA0135201427002093004000
B1642113338574N08120129WA0134601419002107004000
B1642133338547N08120166WA0134101413002076004000
F164213273013095107141701282108
B1642153338519N08120202WA0134001409002043004000
B1642173338490N08120237WA0134301411002029004000
B1642193338463N08120269WA0134101411002031004000
B1642213338436N08120301WA0133801407002050004000
B1642233338411N08120334WA0133501405002076004000
B1642253338388N08120368WA0133201402002118004000
B1642273338366N08120403WA0133001399002151004000
B1642293338345N08120439WA0132701395002135004000
B1642313338325N08120475WA0132201391002100004000
B1642333338305N08120512WA0131801387002081004000
B1642353338286N08120549WA0131601383002072004000
B1642373338267N08120587WA0131501382002079004000
B1642393338248N08120624WA0131401381002130004000
B1642413338231N08120661WA0131301380002193004000
B1642433338214N08120699WA0131301380002230004000
B1642453338198N08120736WA0131201379002235004000
B1642473338182N08120774WA0130801376002223004000
B1642493338168N08120814WA0130901375002211004000
B1642513338154N08120852WA0131001376002198004000
B1642533338139N08120890WA0130901376002158004000
B1642553338125N08120926WA0130701375002137004000
B1642573338111N08120962WA0130801372002153004000
B1642593338098N08120997WA0130601372002132004000
B1643013338084N08121031WA0130801371002109004000
B1643033338071N08121064WA0130701372002135004000
B1643053338057N08121096WA0130701372002186004000
B1643073338045N08121128WA0130401371002218004000
B1643093338035N08121161WA0130001368002220004000
B1643113338025N08121196WA0129201361002228004000
B1643133338016N08121233WA0128801354002225004000
B1643153338007N08121273WA0128501352002176004000
B1643173337997N08121312WA0128301350002123004000
B1643193337987N08121353WA0127901348002107004000
B1643213337977N08121394WA0127101342002102004000
B1643233337968N08121436WA0126101332002111004000
B1643253337958N08121480WA0125401323002126004000
B1643273337949N08121526WA0124901318002114004000
B1643293337939N08121572WA0124701314002111004000
B1643313337929N08121618WA0124601313002104004000
B1643333337919N08121664WA0124301311002076004000
B1643353337909N08121710WA0124101309002062004000
B1643373337900N08121757WA0124301307002064004000
B1643393337891N08121803WA0124201308002069004000
B1643413337883N08121850WA0124401309002074004000
B1643433337876N08121895WA0124801313002074004000
B1643453337869N08121940WA0124701315002055004000
B1643473337863N08121984WA0125101317002072004000
B1643493337858N08122027WA0125201319002118004000
B1643513337854N08122068WA0125701322002156004000
B1643533337851N08122108WA0125701324002200004000
B1643553337847N08122146WA0125601323002239004000
B1643573337844N08122184WA0125201321002260004000
B1643593337841N08122223WA0124801317002265004000
B1644013337837N08122262WA0124301312002223004000
B1644033337833N08122304WA0124301308002162004000
B1644053337830N08122348WA0124101308002148004000
B1644073337830N08122393WA0124101307002135004000
B1644093337829N08122439WA0123701305002121004000
B1644113337829N08122487WA0123101299002135004000
B1644133337829N08122535WA0122701295002128004000
B1644153337830N08122584WA0122801292002093004000
B1644173337833N08122632WA0123801297002069004000
B1644193337844N08122677WA0124301305002051004000
B1644213337862N08122719WA0124501310002044004000
B1644233337887N08122756WA0124601311002044004000
B1644253337919N08122788WA0124701312002048004000
B1644273337955N08122813WA0124001310002055004000
B1644293337993N08122835WA0123101302002065004000
B1644313338034N08122852WA0122501295002076004000
B1644333338074N08122869WA0122101290002076004000
B1644353338115N08122887WA0121401285002079004000
B1644373338156N08122906WA0120601278002090004000
B1644393338196N08122926WA0120201273002104004000
B1644413338235N08122951WA0119901269002095004000
B1644433338273N08122979WA0119401265002074004000
B1644453338309N08123007WA0119001261002055004000
B1644473338345N08123036WA0118501257002048004000
B1644493338381N08123064WA0118201253002043004000
B1644513338417N08123091WA0118101251002034004000
B1644533338451N08123120WA0118201251002062004000
B1644553338484N08123148WA0118001251002081004000
B1644573338516N08123177WA0117901249002067004000
B1644593338548N08123205WA0117401246002102004000
B1645013338580N08123234WA0116801241002139004000
B1645033338612N08123265WA0116201234002139004000
B1645053338643N08123297WA0115601228002130004000
B1645073338674N08123332WA0114901221002100004000
B1645093338704N08123368WA0114401215002076004000
B1645113338734N08123405WA0113801210002071004000
B1645133338763N08123443WA0113601205002064004000
B1645153338792N08123481WA0113501203002060004000
B1645173338822N08123518WA0113401202002062004000
B1645193338855N08123553WA0113401203002083004000
B1645213338888N08123588WA0113101201002107004000
B1645233338923N08123623WA0113301200002090004000
B1645253338957N08123658WA0113801204002057004000
B1645273338992N08123692WA0114201208002046004000
B1645293339027N08123723WA0114501213002053004000
B1645313339062N08123753WA0114901218002069004000
B1645333339097N08123782WA0115301222002072004000
B1645353339132N08123811WA0115301223002065004000
B1645373339168N08123839WA0115501225002058004000
B1645393339202N08123867WA0115101224002046004000
B1645413339235N08123897WA0114801221002060004000
B1645433339268N08123928WA0114401217002130004000
B1645453339301N08123959WA0113901212002144004000
B1645473339333N08123991WA0113701209002121004000
B1645493339364N08124025WA0113301206002132004000
B1645513339395N08124060WA0112701200002121004000
B1645533339427N08124095WA0112201195002107004000
B1645553339459N08124131WA0111901191002116004000
B1645573339492N08124167WA0111901189002102004000
B1645593339524N08124203WA0112401193002071004000
B1646013339555N08124238WA0112401195002057004000
B1646033339586N08124273WA0112201195002036004000
B1646053339617N08124308WA0112301194002024004000
B1646073339648N08124342WA0112601196002022004000
B1646093339680N08124375WA0113101199002046004000
B1646113339712N08124408WA0113801206002060004000
B1646133339743N08124441WA0114601212002044004000
B1646153339765N08124480WA0115301220002041004000
F1646152730095107141701282108
B1646173339770N08124523WA0115501225003057004000
B1646193339755N08124560WA0115901229003060004000
B1646213339724N08124579WA0116601234003041005000
F16462127300951071417012108
B1646233339689N08124570WA0116701238004029005000
F1646242730130951071417012108
B1646253339662N08124533WA0117201241003022005000
F164625273013095107141701282108
B1646273339656N08124485WA0117701247003020004000
B1646293339676N08124440WA0118001250003039004000
F1646302730130907141701282108
B1646313339713N08124414WA0118401254003043004000
B1646333339755N08124411WA0118501257003032004000
F16463430130907141701282108
B1646353339793N08124430WA0118401257003032004000
B1646373339821N08124466WA0118001255003050004000
F16463727300907141701282108
F16463827301309071417012808
B1646393339839N08124511WA0118301252003057005000
F1646392730130907141701282108
B1646413339851N08124560WA0118801257003039004000
B1646433339862N08124609WA0119201261002032004000
B1646453339874N08124658WA0119001262002050004000
B1646473339887N08124708WA0118801258002100004000
B1646493339900N08124757WA0118801257002139004000
B1646513339915N08124807WA0118901257002132004000
B1646533339931N08124856WA0119101258002097004000
B1646553339947N08124904WA0118601256002065004000
B1646573339962N08124954WA0118601253002072004000
B1646593339976N08125004WA0118301251002083004000
B1647013339990N08125054WA0118401250002060004000
B1647033340002N08125104WA0118801253002046004000
B1647053340014N08125154WA0119401258002043004000
B1647073340026N08125202WA0119701263002034004000
B1647093340036N08125251WA0119501262002029004000
B1647113340040N08125300WA0120001266002043004000
B1647133340034N08125346WA0120401270002057004000
B1647153340018N08125385WA0120801275003071004000
B1647173339993N08125413WA0121001279003081004000
B1647193339961N08125426WA0120901279003120004000
B1647213339927N08125425WA0121001278003188004000
B1647233339894N08125408WA0120201273003216004000
B1647253339866N08125377WA0119701267003223004000
B1647273339847N08125336WA0119001263003218004000
B1647293339837N08125287WA0118801259003195004000
B1647313339837N08125236WA0119001260003170004000
B1647333339848N08125185WA0119401263003125004000
B1647353339866N08125136WA0119501266002097004000
B1647373339889N08125091WA0119701268002111004000
B1647393339917N08125049WA0119601269002135004000
B1647413339947N08125008WA0119101267002156004000
B1647433339978N08124967WA0118901263002153004000
B1647453340009N08124925WA0118401260002163004000
B1647473340040N08124883WA0118001256002195004000
B1647493340072N08124842WA0117401250002191004000
B1647513340105N08124800WA0117501246002156004000
B1647533340137N08124758WA0117401247002132004000
B1647553340169N08124717WA0117301246002107004000
B1647573340203N08124677WA0117101244002086004000
B1647593340238N08124638WA0116701241002100004000
B1648013340275N08124601WA0116201236002149004000
B1648033340314N08124567WA0115501231002174004000
B1648053340356N08124536WA0114901225002160004000
B1648073340400N08124508WA0114201216002137004000
B1648093340446N08124483WA0113501209002107004000
B1648113340492N08124461WA0113101202002078004000
B1648133340539N08124442WA0112801199002053004000
B1648153340585N08124425WA0112401196002039004000
B1648173340632N08124410WA0112301193002034004000
B1648193340678N08124396WA0111901193002027004000
B1648213340724N08124382WA0111401187002029004000
B1648233340771N08124370WA0111001182002074004000
B1648253340818N08124358WA0110701178002137004000
B1648273340865N08124347WA0110701177002144004000
B1648293340912N08124334WA0110801177002107004000
B1648313340958N08124319WA0111101178002093004000
B1648333341004N08124304WA0111801183002090004000
B1648353341051N08124299WA0112601190002067004000
B1648373341093N08124315WA0113301198003043004000
F16483730130907141701282108
B1648393341122N08124351WA0113901205003037004000
F164839300907141701282108
B1648413341131N08124397WA0114401212003039005000
B1648433341119N08124442WA0114601215003065005000
B1648453341092N08124478WA0114501214003116005000
F16484527300907141701282108
B1648473341056N08124500WA0114501214003121005000
F1648472730130907141701282108
B1648493341015N08124504WA0114501214003083005000
F16484927300907141701282108
F1648502730130907141701282108
B1648513340976N08124479WA0114401214003064005000
F16485227301307141701282108
B1648533340951N08124431WA0114501214003083004000
B1648553340949N08124375WA0114901217003088004000
B1648573340975N08124331WA0115201219003076005000
F1648582730130907141701282108
B1648593341017N08124318WA0115301222004111005000
F164900301309071701282108
B1649013341055N08124340WA0115701226003126004000
F16490230130907141701282108
B1649033341071N08124383WA0116101231003105005000
B1649053341059N08124431WA0116701238003093005000
B1649073341031N08124464WA0116601241003076004000
F16490727300907141701282108
B1649093340992N08124475WA0116701239003060005000
B1649113340952N08124462WA0116401237003043005000
F1649122730130907141701282108
B1649133340920N08124421WA0116501235003048005000
F16491327301307141701282108
B1649153340910N08124367WA0116601237003088005000
B1649173340925N08124315WA0117001239003132005000
B1649193340959N08124279WA0117101243003153005000
B1649213341002N08124263WA0117201244003125005000
B1649233341046N08124271WA0117801247003095005000
F16492327301309071417012108
F1649242730130907141701282108
B1649253341081N08124301WA0118001250003090005000
B1649273341101N08124342WA0118401254003074005000
B1649293341103N08124388WA0118901257003072005000
B1649313341089N08124432WA0118901260003074004000
B1649333341064N08124468WA0118901258003053004000
B1649353341030N08124492WA0118701257003064005000
B1649373340989N08124497WA0118901256003088005000
B1649393340949N08124478WA0119201258003088005000
F16494027301307141701282108
B1649413340922N08124438WA0119701263003111005000
B1649433340914N08124386WA0120101267003149005000
F164943273013071701282108
F16494427301309071701282108
B1649453340926N08124337WA0120201270003181004000
F1649452730130907141701282108
B1649473340956N08124304WA0120001269003216004000
B1649493340994N08124301WA0119901266003241005000
F164949301309071417012108
B1649513341023N08124327WA0119901264003253005000
F16495130130907141701282108
B1649533341031N08124368WA0119801264003230005000
B1649553341020N08124409WA0119801261003186005000
F1649562730130907141701282108
B1649573340997N08124442WA0119901261003137005000
B1649593340969N08124468WA0119901263003118005000
B1650013340939N08124493WA0119901263003132005000
B1650033340908N08124516WA0119801263003114004000
B1650053340878N08124539WA0119301260003097004000
B1650073340847N08124560WA0118801255003090004000
B1650093340815N08124579WA0118401251003079004000
B1650113340782N08124596WA0117801247003100004000
B1650133340749N08124613WA0117101241003149004000
B1650153340714N08124630WA0116301233003174004000
B1650173340680N08124648WA0115501224003155004000
B1650193340645N08124669WA0114601216003118004000
B1650213340610N08124694WA0113801208003090004000
B1650233340575N08124720WA0113601203003079004000
B1650253340539N08124743WA0113301202003076004000
B1650273340501N08124763WA0113101199003097004000
B1650293340460N08124773WA0113001198003116004000
B1650313340417N08124773WA0112901198003111004000
B1650333340374N08124764WA0112801196003088004000
B1650353340332N08124749WA0112601194003053004000
B1650373340292N08124730WA0112401192003031004000
B1650393340253N08124709WA0112301191003031004000
B1650413340214N08124688WA0112401190003055004000
B1650433340176N08124668WA0112501192003086004000
B1650453340138N08124650WA0112401193003123004000
B1650473340098N08124631WA0112501192003142004000
B1650493340059N08124608WA0113101195003111004000
B1650513340024N08124576WA0114001203003076004000
F16505127301307141701282108
B1650533340005N08124529WA0115401215003053004000
B1650553340010N08124480WA0117101233003032005000
B1650573340036N08124443WA0118001244003015005000
F1650582730130907141701282108
B1650593340072N08124430WA0118501251004009005000
F16510030130907141701282108
B1651013340107N08124449WA0118601256004006005000
B1651033340127N08124489WA0118701260003006005000
B1651053340122N08124532WA0119501264003004005000
B1651073340097N08124561WA0120301272003000005000
F1651072730130907141701282108
B1651093340062N08124563WA0121001281003000005000
F16511027301307141701282108
B1651113340034N08124536WA0121301284003039005000
B1651133340024N08124491WA0121101281003083005000
B1651153340036N08124443WA0121101280003071005000
B1651173340067N08124408WA0121301277003041005000
F16511827301309071417282108
B1651193340111N08124402WA0121601278004022006000
F1651192730130901071417282108
B1651213340147N08124431WA0122201285004018005000
F165122301309010714172108
B1651233340158N08124479WA0122801293003013005000
F16512430130901071417282108
B1651253340141N08124522WA0123401299003006005000
F1651252730130901071417282108
B1651273340107N08124542WA0124101307003039005000
B1651293340069N08124535WA0124801315003062005000
B1651313340041N08124501WA0124701317003062005000
F16513127301301071417282108
B1651333340036N08124452WA0124601316003060005000
B1651353340056N08124407WA0125201315003039005000
B1651373340096N08124383WA0125401317003027005000
F1651372730130901071417282108
B1651393340139N08124389WA0126301324004020005000
F16514030130901071417282108
B1651413340167N08124425WA0126801331004013005000
B1651433340166N08124470WA0127101338003016005000
B1651453340140N08124500WA0127901344003065005000
F1651462730130901071417282108
B1651473340104N08124506WA0128501351003083005000
B1651493340069N08124487WA0128601354003048005000
F16515027301301071417282108
B1651513340049N08124446WA0128301355003046005000
B1651533340052N08124396WA0128301354003095005000
B1651553340077N08124353WA0129001357003111005000
F1651552730130901071417282108
B1651573340116N08124328WA0130001366003074005000
B1651593340158N08124328WA0131201378003046005000
F16520030130901071417282108
B1652013340191N08124352WA0132301389003027005000
B1652033340205N08124392WA0132801394003018005000
B1652053340202N08124435WA0133201400003009005000
F1652062730130901071417282108
B1652073340182N08124470WA0133401403003025005000
B1652093340152N08124489WA0133901406003039005000
B1652113340116N08124489WA0134801414003022005000
B1652133340082N08124469WA0135101420003034005000
B1652153340059N08124430WA0135101422003067005000
B1652173340055N08124382WA0135101422003064005000
B1652193340072N08124337WA0134901421003069005000
B1652213340108N08124308WA0135501422003074005000
B1652233340150N08124307WA0136101426003048005000
B1652253340184N08124334WA0136601433003027005000
F16522630130901071417282108
B1652273340194N08124377WA0136801435003018005000
B1652293340177N08124417WA0137401439003020005000
F1652302730130901071417282108
B1652313340144N08124435WA0138001445003015005000
B1652333340107N08124421WA0138101450003016005000
B1652353340083N08124379WA0138601453003032005000
F16523527301301071417282108
F165236273013010717282108
B1652373340085N08124326WA0138901456003036005000
F16523727301301071417282108
B1652393340112N08124283WA0139601460003027005000
F165240273013010717282108
B1652413340153N08124270WA0139801463004038005000
F16524127301301071417282108
F1652422730130901071417282108
B1652433340192N08124291WA0140501468004046005000
F16524330130901071417282108
F165244300901071417282108
B1652453340214N08124330WA0141501475003029005000
B1652473340216N08124374WA0141501479003015005000
B1652493340198N08124411WA0142101483003006005000
F16524927300901071417282108
B1652513340162N08124426WA0142101485004002005000
B1652533340123N08124409WA0142501488004002006000
F16525427301301071417282108
B1652553340101N08124361WA0142301490003039005000
F165256301301071417282108
B1652573340106N08124305WA0142601493003097005000
B1652593340136N08124261WA0143601500003104005000
F16530030130901071417282108
B1653013340178N08124241WA0144501507003079005000
F16530227301309010714172108
B1653033340221N08124247WA0145301516003062005000
F165303273009010714172108
F165304300901071417282108
B1653053340255N08124275WA0146101523003046005000
B1653073340270N08124318WA0146301526003032005000
B1653093340262N08124364WA0146401528003022005000
B1653113340234N08124395WA0146801530003013005000
F16531127300901071417282108
B1653133340196N08124404WA0147301536003009005000
B1653153340158N08124386WA0148101545003009005000
F1653162730130901071417282108
B1653173340131N08124346WA0148501551003015005000
B1653193340122N08124294WA0148401553003034005000
F16531927301301071417282108
B1653213340135N08124241WA0148601553003057005000
B1653233340166N08124199WA0149101557003062005000
F1653242730130901071417282108
B1653253340209N08124180WA0149901563003060005000
B1653273340253N08124186WA0150901572003050005000
F16532827300901071417282108
B1653293340286N08124215WA0151701582003031005000
F165329300901071417282108
B1653313340300N08124256WA0152801593003020005000
B1653333340295N08124297WA0153601603003011005000
F16533327300901071417282108
B1653353340273N08124326WA0154101609003006005000
B1653373340241N08124339WA0154201612003002005000
F1653372730130901071417282108
B1653393340207N08124329WA0154501614003000005000
F16533927300901071417282108
F1653402730130901071417282108
B1653413340180N08124297WA0154201612003000005000
F16534127301301071417282108
B1653433340170N08124246WA0154101610003000005000
B1653453340183N08124194WA0155401617003000005000
B1653473340211N08124158WA0156801631003016005000
F1653472730130901071417282108
B1653493340249N08124146WA0156801638003053005000
B1653513340286N08124159WA0156801639003060005000
F165352300901071417282108
B1653533340307N08124194WA0157101639003039005000
B1653553340304N08124237WA0157401642003022005000
F16535630270901071417282108
B1653573340278N08124265WA0157901647003011005000
B1653593340243N08124266WA0158401651003015005000
B1654013340211N08124240WA0158801656003018005000
F1654011330270901071417282108
F16540213302701071417282108
B1654033340196N08124194WA0159101660003011005000
B1654053340201N08124144WA0159601665003009005000
B1654073340224N08124100WA0159901667003004005000
F1654071330270901071417282108
B1654093340260N08124075WA0160201669003000005000
B1654113340302N08124078WA0159601668003030005000
B1654133340334N08124106WA0159901667003067005000
F1654133009010714172808
F165414213009010714172808
B1654153340346N08124148WA0160301670003111005000
F16541521300901071417281308
B1654173340339N08124192WA0160901677003142005000
B1654193340319N08124231WA0161201683003114005000
F1654202130270901071417281308
B1654213340293N08124261WA0161401684003072005000
B1654233340262N08124285WA0161601684003041005000
F16542321302709010714281308
F1654242130270901071417281308
B1654253340223N08124290WA0162201689003032005000
B1654273340187N08124271WA0163001695003025005000
F16542821302701071417281308
B1654293340163N08124230WA0163101699003020005000
B1654313340161N08124178WA0163401702003027005000
B1654333340183N08124131WA0163801706003034005000
B1654353340222N08124105WA0164401710003027005000
F1654352130270901071417281308
B1654373340264N08124110WA0164901716003022005000
B1654393340292N08124141WA0165601723003036005000
F165439213009010714172808
F1654402130090107141708
B1654413340299N08124183WA0165601726004074006000
F165441213028090107141708
B1654433340287N08124224WA0165201724004111006000
F16544421302809010714172708
B1654453340256N08124249WA0165401721003100005000
F165445213028090107142708
F16544621302809010714172708
B1654473340216N08124255WA0165501724003062005000
B1654493340176N08124240WA0165401724003046005000
F1654492130280901071417271308
B1654513340145N08124204WA0165601725003081005000
B1654533340127N08124155WA0165701726003118005000
B1654553340120N08124102WA0165901727003137005000
B1654573340121N08124048WA0166001728003134005000
B1654593340131N08123995WA0166501733003095005000
B1655013340148N08123944WA0166801738003095005000
B1655033340171N08123898WA0167001738003123005000
F16550421302809010714171308
B1655053340206N08123865WA0167601743003104005000
B1655073340248N08123852WA0167801747003081005000
B1655093340288N08123862WA0168401752003102005000
F165510213028090107141708
B1655113340317N08123890WA0168601756003121005000
F1655122130280901071408
B1655133340333N08123929WA0168401755003102005000
F165513213028090107141308
F16551421302809010714271308
B1655153340337N08123972WA0168201754003095005000
B1655173340332N08124014WA0168401754003118005000
F1655182130280901071417271308
B1655193340320N08124054WA0168701757003107005000
B1655213340306N08124093WA0169201760003069005000
B1655233340289N08124130WA0169401763003043005000
B1655253340271N08124165WA0169301762003067005000
B1655273340252N08124200WA0169101761003142005000
B1655293340231N08124235WA0168201755003175005000
B1655313340210N08124271WA0167501746003156005000
B1655333340192N08124310WA0167001740003153005000
B1655353340176N08124352WA0166501733003153005000
B1655373340162N08124396WA0166701730003128005000
B1655393340150N08124439WA0167001734003095005000
F16554021302809010714172713
B1655413340140N08124483WA0167601739003076005000
B1655433340130N08124527WA0168701746003067005000
F1655432130280901071417271308
B1655453340121N08124570WA0169401756003043005000
B1655473340112N08124613WA0170101762003034005000
B1655493340104N08124655WA0170601768003046005000
B1655513340096N08124697WA0171601775003048005000
B1655533340088N08124738WA0172401785003034005000
B1655553340080N08124779WA0172901791003018005000
B1655573340074N08124820WA0173501796003015005000
B1655593340070N08124859WA0174001803003022005000
B1656013340065N08124897WA0173601803003046005000
B1656033340057N08124935WA0172901797003081005000
B1656053340047N08124973WA0171601786003107005000
B1656073340033N08125013WA0169701770003104005000
B1656093340017N08125057WA0168001752003088005000
B1656113339999N08125104WA0166701735003081005000
B1656133339981N08125153WA0166101728003076005000
B1656153339964N08125204WA0165301720003071005000
B1656173339947N08125257WA0164701713003067005000
B1656193339931N08125310WA0164001706003065005000
B1656213339915N08125365WA0163301701003065005000
B1656233339900N08125420WA0162601694003065005000
B1656253339887N08125476WA0162101687003053005000
B1656273339875N08125532WA0161601682003034005000
B1656293339863N08125588WA0161601678003036005000
B1656313339853N08125643WA0161601678003039005000
B1656333339843N08125696WA0161401678003032005000
B1656353339833N08125749WA0161001675003027005000
B1656373339823N08125802WA0161101674003020005000
B1656393339814N08125854WA0161401676003027005000
B1656413339803N08125904WA0161501678003029005000
B1656433339793N08125953WA0161401678003018005000
B1656453339782N08126002WA0161101676003011005000
B1656473339771N08126051WA0160901673003004005000
B1656493339760N08126100WA0160601671003011005000
B1656513339748N08126149WA0160201666003039005000
B1656533339737N08126198WA0160101664003050005000
B1656553339725N08126248WA0160301665003041005000
B1656573339714N08126297WA0160501667003037005000
B1656593339702N08126346WA0160401667003032005000
B1657013339691N08126395WA0160201665003018005000
B1657033339679N08126444WA0160501666003009005000
B1657053339666N08126491WA0160501667003013005000
B1657073339653N08126539WA0160901670003025005000
F16570721302809010714172713
B1657093339640N08126585WA0160701671003041005000
F1657102130280901071417271308
B1657113339627N08126631WA0160501670003041005000
B1657133339614N08126677WA0160401668003048005000
B1657153339600N08126722WA0160101666003076005000
B1657173339585N08126768WA0159601661003078005000
B1657193339569N08126814WA0159301658003076005000
B1657213339552N08126861WA0159101655003074005000
B1657233339533N08126907WA0159101654003053005000
B1657253339514N08126952WA0158901654003036005000
B1657273339495N08126997WA0158501652003053005000
B1657293339476N08127042WA0157801647003067005000
B1657313339457N08127087WA0157101639003069005000
B1657333339438N08127133WA0156601633003090005000
B1657353339419N08127180WA0155801626003081005000
B1657373339400N08127227WA0155301620003050005000
B1657393339381N08127275WA0155001616003043005000
B1657413339363N08127323WA0154601612003050005000
B1657433339344N08127370WA0154401609003050005000
B1657453339326N08127417WA0154001607003036005000
B1657473339308N08127464WA0153701602003022005000
B1657493339290N08127510WA0153301600003029005000
B1657513339271N08127556WA0152601595003039005000
B1657533339252N08127602WA0151901589003034005000
B1657553339233N08127649WA0150901579003022005000
B1657573339214N08127699WA0149801568003015005000
B1657593339195N08127750WA0148701557003027005000
B1658013339177N08127803WA0148201550003051005000
B1658033339159N08127856WA0147701545003055005000
B1658053339142N08127910WA0147201540003039005000
B1658073339125N08127963WA0146801536003029005000
B1658093339106N08128016WA0146201531003024005000
B1658113339088N08128069WA0145301524003020005000
B1658133339069N08128122WA0144301513003018005000
B1658153339050N08128176WA0143801506003020005000
B1658173339031N08128229WA0143401501003018005000
B1658193339011N08128283WA0143101499003011005000
B1658213338992N08128336WA0142901496003011005000
B1658233338972N08128389WA0142301493003011005000
B1658253338951N08128442WA0141601487003013005000
B1658273338925N08128493WA0141401481003015005000
B1658293338897N08128542WA0141301480003020005000
B1658313338868N08128590WA0141401480003027005000
B1658333338843N08128639WA0141601482003034005000
B1658353338819N08128688WA0141301483003039005000
B1658373338797N08128737WA0141001480003034005000
B1658393338778N08128787WA0140701477003025005000
B1658413338759N08128838WA0140301472003018005000
B1658433338742N08128890WA0140401469003018005000
B1658453338729N08128944WA0140101468003022005000
B1658473338717N08129001WA0140201468003022005000
B1658493338705N08129058WA0140201468003027005000
B1658513338691N08129114WA0140201468003067005000
B1658533338675N08129168WA0140001469003086005000
B1658553338658N08129220WA0139701467003067005000
B1658573338637N08129270WA0139101462003048005000
B1658593338613N08129318WA0138601457003037005000
B1659013338586N08129363WA0138301452003034005000
B1659033338558N08129407WA0138101451003027005000
B1659053338530N08129451WA0137801448003020005000
B1659073338504N08129496WA0137501445003020005000
B1659093338483N08129543WA0137801445003018005000
B1659113338471N08129593WA0137901446003015005000
B1659133338467N08129644WA0137801447003020005000
B1659153338476N08129694WA0137701444003027005000
B1659173338498N08129737WA0137201439003022005000
B1659193338533N08129768WA0137101436003018005000
B1659213338577N08129779WA0136701432003020005000
B1659233338622N08129770WA0136401428003020005000
B1659253338662N08129743WA0136001424003013005000
F165926213028090107141744271308
B1659273338692N08129699WA0135401419003004005000
B1659293338708N08129646WA0134401411003006005000
F1659302130280901071417271308
B1659313338711N08129589WA0133201398003013005000
B1659333338705N08129529WA0132401387003022005000
B1659353338691N08129470WA0131901383003020005000
B1659373338675N08129412WA0131401380003034005000
B1659393338657N08129355WA0130901378003079005000
B1659413338639N08129299WA0130301373003114005000
B1659433338621N08129242WA0130001368003121005000
B1659453338604N08129185WA0129301364003104005000
B1659473338585N08129129WA0128801359003097005000
B1659493338566N08129073WA0128201354003100005000
B1659513338546N08129017WA0127801350003091005000
B1659533338526N08128961WA0127501346003079005000
B1659553338505N08128905WA0127701346003064005000
B1659573338484N08128849WA0128101349003053005000
B1659593338463N08128796WA0129001356003046005000
B1700013338444N08128743WA0129701362003043005000
B1700033338433N08128687WA0130701370003050005000
B1700053338442N08128633WA0132101385003065005000
B1700073338472N08128596WA0133101398003074005000
B1700093338511N08128583WA0133401405003062005000
F17000921302809010714172708
F1700102130280901071417271308
B1700113338548N08128595WA0133101404004036005000
F170011213009010714171308
F1700122130090107141708
B1700133338573N08128628WA0132601399003020005000
F170013213028090107141708
B1700153338578N08128671WA0132401395004034005000
F17001621302809010714171308
B1700173338562N08128709WA0132301393003074005000
F1700182130280901071417271308
B1700193338534N08128738WA0132001388003086005000
B1700213338498N08128752WA0131701386003104005000
B1700233338459N08128752WA0131901386003158005000
B1700253338420N08128739WA0132201389003144005000
B1700273338387N08128710WA0132701392003109005000
F17002721302801071417271308
B1700293338373N08128663WA0132801396003111005000
B1700313338383N08128613WA0132901397003111005000
B1700333338415N08128576WA0133201399003132005000
F1700342130280901071417271308
B1700353338456N08128562WA0133801404003165005000
B1700373338496N08128571WA0134201411003158005000
B1700393338525N08128597WA0134501415003118005000
F17003921302809010714172708
B1700413338537N08128633WA0134401416003109005000
B1700433338533N08128670WA0134101414003151005000
F1700442130280901071417271308
B1700453338514N08128702WA0133801410003176005000
B1700473338486N08128726WA0134401411003142005000
B1700493338453N08128735WA0134601416003093005000
B1700513338419N08128727WA0134801417003088005000
B1700533338387N08128708WA0134701416003128005000
B1700553338355N08128683WA0134701417003163005000
B1700573338324N08128655WA0134901417003153005000
B1700593338294N08128625WA0135101419003102005000
B1701013338264N08128593WA0135401420003053005000
B1701033338237N08128558WA0135401422003034005000
F17010421302801071417271308
B1701053338223N08128511WA0136101424003029005000
B1701073338235N08128460WA0136901431003024005000
F1701082130280107141727134408
B1701093338269N08128426WA0136801436003024005000
F17010921302801071417271308
F17011021302809010714171308
B1701113338312N08128418WA0137301438004038005000
B1701133338351N08128439WA0137501444003043005000
F170114213028090107141708
B1701153338373N08128474WA0138101447003039005000
B1701173338375N08128515WA0137901448003036005000
F17011721302809010714171308
B1701193338357N08128551WA0138401450003036005000
F1701202130280901071417271308
B1701213338325N08128570WA0138001452003036005000
B1701233338288N08128572WA0138401455003029005000
B1701253338249N08128558WA0139001459003024005000
B1701273338214N08128533WA0139501464003027005000
B1701293338185N08128499WA0139601468003034005000
B1701313338157N08128463WA0139601469003032005000
B1701333338129N08128429WA0139401467003034005000
B1701353338099N08128397WA0139401464003050005000
B1701373338068N08128368WA0139601466003060005000
B1701393338037N08128340WA0139601466003064005000
B1701413338007N08128309WA0140001467003055005000
B1701433337981N08128274WA0140001471003043005000
B1701453337960N08128234WA0140101470003046005000
B1701473337944N08128190WA0140001468003053005000
F17014721302801071417271308
B1701493337943N08128142WA0141001473003064005000
B1701513337958N08128096WA0141401481003064005000
F1701512130280901071417271308
B1701533337980N08128053WA0141901487003048005000
B1701553338009N08128015WA0142301491003029005000
B1701573338047N08127992WA0142601494003029005000
B1701593338090N08127997WA0142501496003036005000
F17020021302809010714171308
B1702013338123N08128027WA0142601496003029005000
F170201213028090107141708
B1702033338139N08128071WA0142301496003020005000
B1702053338133N08128113WA0142201493003018005000
B1702073338110N08128144WA0142301493003032005000
F17020721302809010714171308
B1702093338079N08128164WA0141801491003050005000
B1702113338044N08128175WA0141101486003064005000
B1702133338007N08128177WA0140601479003067005000
B1702153337969N08128167WA0140301474003092005000
B1702173337932N08128147WA0140701475003102005000
B1702193337897N08128122WA0141401480003064005000
B1702213337865N08128091WA0141901485003057005000
B1702233337839N08128053WA0142401490003055005000
B1702253337823N08128007WA0143401499003039005000
F170225213028010714171308
B1702273337828N08127956WA0144701511003025005000
B1702293337852N08127915WA0145801523003013005000
F17022921302809010714171308
B1702313337887N08127888WA0146401532003004005000
B1702333337927N08127875WA0146801538003000005000
B1702353337968N08127877WA0147301542003000005000
B1702373338006N08127894WA0147601546003002005000
B1702393338036N08127925WA0148001551003002005000
F170239213028090107141708
B1702413338053N08127965WA0148501556003000005000
B1702433338055N08128009WA0149201562003000005000
B1702453338042N08128047WA0150001569003000005000
B1702473338018N08128076WA0150501574003002005000
F17024721302809010714171308
B1702493337986N08128090WA0151301581003002005000
B1702513337952N08128089WA0151601586003004005000
B1702533337920N08128072WA0151801588003009005000
B1702553337899N08128037WA0151801588003015005000
F170256213028010714171308
B1702573337897N08127992WA0151801588003018005000
B1702593337916N08127950WA0152101588003009005000
B1703013337949N08127919WA0152501591003002005000
F17030121302809010714171308
B1703033337990N08127905WA0153301596003000005000
B1703053338032N08127909WA0155001610003000005000
B1703073338067N08127929WA0156201626003000005000
B1703093338087N08127961WA0156701636003000005000
B1703113338090N08127998WA0157101640003000005000
B1703133338076N08128031WA0157101643003000005000
B1703153338047N08128048WA0157401644003000005000
B1703173338013N08128043WA0158001648003000005000
B1703193337984N08128019WA0159101656003000005000
B1703213337969N08127980WA0159401663003000005000
F170322213028010714171308
B1703233337975N08127938WA0159601665003013005000
B1703253338001N08127904WA0160001667003041005000
F17032621302809010714171308
B1703273338039N08127886WA0160301670003041005000
B1703293338079N08127892WA0160701675003022005000
B1703313338111N08127919WA0161301679003013005000
F170331213028090107141708
B1703333338120N08127959WA0161601682003011005000
B1703353338103N08127994WA0162001685003009005000
B1703373338071N08128005WA0162301689003016005000
B1703393338038N08127992WA0162901693003030005000
F1703392130280901071408
F170340213028090107141308
B1703413338017N08127954WA0163601700003034005000
F17034121302809010714171308
B1703433338018N08127909WA0164401707003039005000
B1703453338039N08127871WA0164501711003050005000
B1703473338076N08127854WA0164601712003046005000
B1703493338116N08127866WA0165101715003027005000
B1703513338140N08127901WA0165301718003015005000
B1703533338141N08127944WA0165501719003018005000
B1703553338119N08127975WA0166001721003025005000
B1703573338084N08127980WA0166701725003022005000
B1703593338050N08127958WA0167301732003013005000
B1704013338030N08127917WA0168001741003011005000
B1704033338040N08127871WA0168301746003013005000
F170403213028010714171308
B1704053338073N08127840WA0168501749003011005000
F17040621302809010714171308
B1704073338116N08127842WA0168901750004004006000
F170407213028090107141708
B1704093338148N08127873WA0169201749003002006000
B1704113338155N08127920WA0169601747003002006000
B1704133338136N08127958WA0170401747003000006000
F17041421302809010714171308
B1704153338100N08127967WA0171101748004011007000
B1704173338068N08127943WA0171901766004036007000
B1704193338054N08127899WA0172601781003036006000
B1704213338066N08127853WA0172801786003022006000
B1704233338099N08127822WA0173101790003027006000
B1704253338141N08127819WA0173901796003020006000
B1704273338177N08127842WA0174101802003006006000
F170427213028090107141708
B1704293338194N08127880WA0174201804003009005000
F17043021302809010714171308
B1704313338190N08127922WA0174401804003018005000
B1704333338167N08127951WA0175101807003018005000
B1704353338132N08127956WA0175501811003029005000
B1704373338099N08127936WA0175301812003053005000
B1704393338081N08127894WA0175801817003046005000
B1704413338086N08127847WA0176201822003034005000
B1704433338114N08127810WA0177101828003032005000
B1704453338154N08127797WA0177401833003024006000
B1704473338191N08127812WA0177701838004015006000
F170448213028090107141708
B1704493338212N08127850WA0178001839003006006000
B1704513338212N08127892WA0178101840003004005000
F17045221302809010714171308
B1704533338192N08127924WA0178701843003027005000
B1704553338161N08127937WA0178801846003069005000
B1704573338126N08127927WA0178601846003093005000
B1704593338098N08127898WA0178601844003083005000
B1705013338088N08127853WA0178901848003055005000
B1705033338103N08127805WA0179001851003048005000
B1705053338137N08127774WA0179101851003050005000
B1705073338181N08127770WA0178901852003036006000
B1705093338222N08127792WA0178901850003027005000
B1705113338253N08127829WA0178601848003027005000
B1705133338272N08127875WA0178901848003043005000
B1705153338282N08127926WA0179201853003050005000
B1705173338288N08127977WA0179301857003057005000
B1705193338292N08128028WA0179101856003090005000
B1705213338293N08128078WA0179001853003102005000
B1705233338293N08128127WA0178801851003109005000
B1705253338292N08128176WA0178701848003114005000
B1705273338290N08128225WA0178701847003104005000
B1705293338290N08128276WA0178901847003081005000
B1705313338291N08128327WA0179301852003048005000
B1705333338293N08128378WA0179601855003032005000
B1705353338296N08128428WA0179201855003029005000
B1705373338297N08128478WA0179201853003022005000
B1705393338301N08128529WA0178901851003032005000
B1705413338305N08128579WA0178701849003046005000
B1705433338312N08128630WA0178601848003039005000
B1705453338320N08128681WA0178501847003039005000
B1705473338330N08128731WA0178201845003036005000
B1705493338343N08128782WA0177801841003036005000
B1705513338358N08128834WA0177301837003032005000
B1705533338374N08128887WA0176501830003022005000
B1705553338391N08128940WA0175701823003022005000
B1705573338410N08128992WA0175401816003027005000
B1705593338430N08129045WA0174701811003029005000
B1706013338451N08129098WA0174101805003032005000
B1706033338472N08129151WA0173901801003029005000
B1706053338492N08129205WA0173801800003034005000
B1706073338514N08129257WA0174001801003046005000
B1706093338536N08129307WA0173801803003050005000
B1706113338557N08129357WA0173201798003050005000
B1706133338577N08129408WA0172801794003041005000
B1706153338598N08129459WA0172701790003039005000
B1706173338619N08129509WA0172701790003050005000
B1706193338639N08129558WA0172601791003055005000
B1706213338660N08129606WA0172401789003041005000
B1706233338680N08129653WA0172301788003027005000
B1706253338700N08129701WA0172101787003020005000
B1706273338719N08129748WA0171901785003013005000
B1706293338736N08129795WA0171301781003009005000
B1706313338754N08129842WA0170801776003009005000
B1706333338773N08129889WA0170101770003009005000
B1706353338795N08129937WA0169401762003011005000
B1706373338821N08129983WA0168701756003018005000
B1706393338851N08130027WA0168301747003024005000
B1706413338883N08130071WA0169101749003024005000
F170642213028090107141708
B1706433338915N08130113WA0169801761003020005000
F17064421302809010714171308
B1706453338946N08130153WA0169401762003029005000
B1706473338977N08130193WA0169801758003039005000
B1706493339008N08130232WA0171501773003034005000
F170649213028090107141708
B1706513339036N08130267WA0173201792003027005000
B1706533339062N08130298WA0173901805003025005000
F17065421302809010714171308
B1706553339087N08130329WA0172901803003043005000
B1706573339111N08130365WA0171801791003086005000
B1706593339135N08130406WA0171001781003111005000
B1707013339157N08130452WA0170201772003097005000
B1707033339179N08130500WA0169401764003074005000
B1707053339201N08130549WA0168501755003051005000
B1707073339222N08130599WA0167701748003037005000
B1707093339244N08130651WA0167101741003041005000
B1707113339266N08130702WA0166801736003053005000
B1707133339289N08130754WA0166201732003053005000
B1707153339312N08130805WA0165801727003039005000
B1707173339335N08130857WA0165301722003032005000
B1707193339357N08130910WA0164501715003029005000
B1707213339380N08130962WA0163401706003022005000
B1707233339403N08131015WA0162901696003018005000
B1707253339428N08131067WA0162101690003025005000
B1707273339453N08131117WA0161401683003029005000
B1707293339481N08131166WA0160901676003024005000
B1707313339512N08131214WA0160801672003020005000
B1707333339542N08131260WA0160601672003022005000
B1707353339573N08131307WA0160801671003022005000
B1707373339603N08131353WA0161301674003015005000
B1707393339632N08131397WA0162501685003034005000
B1707413339660N08131439WA0162801694003065005000
B1707433339687N08131479WA0162701694003062005000
B1707453339714N08131521WA0162501692003046005000
B1707473339740N08131563WA0163001693003034005000
B1707493339762N08131607WA0163801700003018005000
B1707513339780N08131652WA0165001711003015005000
B1707533339795N08131697WA0166001722003020005000
B1707553339809N08131739WA0166401730003022004000
F1707552130280901071417191308
B1707573339823N08131780WA0166301731003020004000
B1707593339839N08131822WA0166601730003009004000
B1708013339858N08131863WA0167301735003006004000
B1708033339878N08131902WA0168101743003018004000
B1708053339897N08131942WA0168701751003027004000
B1708073339914N08131983WA0169201756003024004000
B1708093339929N08132025WA0169301760003025004000
B1708113339942N08132067WA0169401761003029004000
B1708133339956N08132111WA0169301760003027004000
B1708153339969N08132154WA0169101760003022004000
B1708173339982N08132199WA0169101757003018004000
B1708193339994N08132244WA0169401759003009004000
B1708213340006N08132288WA0169401761003009004000
B1708233340018N08132332WA0168801758003013004000
B1708253340031N08132376WA0168201750003025004000
B1708273340046N08132422WA0167701743003057004000
B1708293340062N08132470WA0167601741003076004000
B1708313340078N08132519WA0167601740003085004000
B1708333340094N08132568WA0168101742003081004000
B1708353340110N08132618WA0168701750003053004000
B1708373340125N08132667WA0168501753003036004000
B1708393340141N08132716WA0167901748003029004000
B1708413340158N08132765WA0167301740003032004000
B1708433340176N08132815WA0166401733003032004000
B1708453340194N08132866WA0165501723003027004000
B1708473340214N08132918WA0164901716003027004000
B1708493340234N08132972WA0164801712003027004000
B1708513340253N08133027WA0164701710003029004000
B1708533340277N08133080WA0165501715003027004000
B1708553340306N08133129WA0166401724003022004000
B1708573340337N08133174WA0167501734003020004000
B1708593340368N08133217WA0168201744003025004000
B1709013340399N08133258WA0168401748003034004000
B1709033340429N08133298WA0168701751003034004000
B1709053340460N08133338WA0168601753003029004000
B1709073340490N08133379WA0168301751003027004000
B1709093340520N08133420WA0168101748003020004000
B1709113340550N08133462WA0167601746003011004000
B1709133340581N08133506WA0167301741003006004000
B1709153340611N08133551WA0166901737003011004000
B1709173340639N08133599WA0166701734003027004000
B1709193340666N08133648WA0166301732003032004000
B1709213340692N08133699WA0165801727003029004000
B1709233340717N08133750WA0165201721003029004000
B1709253340742N08133801WA0164701716003022004000
B1709273340766N08133853WA0164101711003015004000
B1709293340790N08133905WA0163601706003018004000
B1709313340814N08133959WA0163101700003018004000
B1709333340837N08134013WA0162201694003015004000
B1709353340859N08134068WA0161801687003015004000
B1709373340882N08134123WA0162001685003022004000
B1709393340905N08134177WA0162101687003029004000
B1709413340927N08134231WA0161901687003025004000
B1709433340948N08134286WA0161501685003018005000
B1709453340969N08134340WA0161201681003018005000
B1709473340990N08134396WA0160901677003022005000
B1709493341010N08134451WA0160501674003020005000
B1709513341030N08134507WA0159701668003018005000
B1709533341049N08134565WA0159001659003020005000
B1709553341067N08134623WA0158301653003020005000
B1709573341084N08134682WA0157801646003029005000
B1709593341100N08134742WA0157101640003039005000
B1710013341115N08134802WA0156401633003037005000
B1710033341130N08134863WA0155801626003029005000
B1710053341145N08134923WA0155501621003022005000
B1710073341160N08134983WA0155001618003022005000
B1710093341174N08135043WA0154501613003022005000
B1710113341187N08135104WA0154001608003020005000
B1710133341200N08135165WA0153601603003018005000
B1710153341212N08135226WA0153001598003015005000
B1710173341223N08135287WA0152601592003015005000
B1710193341234N08135348WA0151801586003015005000
B1710213341246N08135409WA0151201579003015005000
B1710233341257N08135471WA0150601573003015005000
B1710253341267N08135533WA0150001568003018005000
B1710273341276N08135596WA0149601562003027005000
B1710293341283N08135658WA0149501560003039005000
B1710313341290N08135720WA0149301559003043005000
B1710333341296N08135780WA0149401557003053005000
B1710353341300N08135838WA0150001561003057005000
B1710373341302N08135894WA0150401568003041005000
B1710393341303N08135946WA0149201565003027005000
B1710413341303N08136000WA0147801551003020004000
B1710433341305N08136057WA0146801537003020004000
B1710453341309N08136115WA0146001529003018004000
B1710473341313N08136174WA0145401522003022004000
B1710493341318N08136234WA0144801515003039004000
B1710513341322N08136293WA0144001508003039004000
B1710533341326N08136353WA0143701503003029004000
B1710553341330N08136414WA0143601501003029004000
B1710573341332N08136474WA0143301499003036004000
B1710593341334N08136533WA0143101497003053004000
B1711013341337N08136592WA0143301495003060004000
B1711033341340N08136649WA0144301502003055004000
B1711053341343N08136701WA0145001512003046004000
B1711073341347N08136752WA0145101514003037004000
B1711093341351N08136802WA0145701518003037004000
B1711113341356N08136851WA0146101525003037004000
B1711133341360N08136900WA0146301528003037004000
B1711153341363N08136948WA0146701531003032004000
B1711173341365N08136997WA0146701533003029004000
B1711193341367N08137045WA0146801534003029004000
B1711213341368N08137092WA0146301531003036004000
B1711233341370N08137142WA0145601526003041004000
B1711253341372N08137193WA0144801517003041004000
B1711273341374N08137247WA0144701511003060004000
B1711293341377N08137302WA0145101513003074004000
B1711313341379N08137357WA0146401521003074004000
B1711333341382N08137411WA0147701533003062004000
B1711353341371N08137459WA0149201548003043005000
F17113521302809010714171908
B1711373341338N08137481WA0150101565003037005000
B1711393341299N08137467WA0150101572004048006000
F171139213028090107141708
F17114021302809010714171308
B1711413341275N08137422WA0150201572004093005000
B1711433341276N08137368WA0150401577003149005000
B1711453341297N08137324WA0150501580003170005000
F1711462130280901071417191308
B1711473341331N08137293WA0150501581003144005000
B1711493341370N08137276WA0150401581003128005000
B1711513341412N08137272WA0150601580003116005000
B1711533341454N08137280WA0151101581003076005000
B1711553341495N08137299WA0151101582003043005000
F17115621302809010714171908
B1711573341526N08137331WA0151301584003043005000
F171158213028090107141708
B1711593341534N08137377WA0151901586003053005000
F17115921302809010714171908
F1712002130280901071417191308
B1712013341529N08137423WA0151501584003048005000
B1712033341520N08137468WA0150801579003074005000
B1712053341507N08137511WA0150701575003123005000
B1712073341490N08137552WA0150601575003160005000
B1712093341469N08137590WA0150001572003167005000
B1712113341445N08137626WA0149501564003167005000
B1712133341427N08137666WA0149501562003160005000
B1712153341417N08137707WA0149001559003116005000
B1712173341410N08137748WA0147701549003074005000
B1712193341404N08137792WA0146201536003046005000
B1712213341398N08137839WA0145001522003029005000
B1712233341392N08137887WA0143801509003024005000
B1712253341387N08137938WA0142601496003022005000
B1712273341384N08137989WA0141901486003027005000
B1712293341382N08138040WA0141001478003034005000
B1712313341384N08138091WA0139901468003029004000
B1712333341389N08138142WA0139001458003015004000
B1712353341394N08138193WA0138101449003009004000
B1712373341401N08138245WA0137101439003004004000
B1712393341408N08138298WA0135601426003002004000
B1712413341416N08138354WA0134101412003004004000
B1712433341420N08138412WA0133101399003009004000
B1712453341422N08138471WA0132201390003015004000
B1712473341422N08138531WA0131601383003018004000
B1712493341421N08138592WA0130801375003013004000
B1712513341420N08138652WA0129801367003009004000
B1712533341421N08138714WA0129301360003011004000
B1712553341423N08138776WA0128801355003011004000
B1712573341426N08138838WA0128601350003013004000
B1712593341433N08138900WA0128801351003025004000
B1713013341441N08138959WA0129501356003029004000
B1713033341449N08139017WA0129801363003027004000
B1713053341457N08139073WA0130301365003036004000
B1713073341464N08139127WA0131301372003043004000
B1713093341467N08139176WA0132301386003034004000
B1713113341469N08139222WA0132101389003027004000
B1713133341470N08139268WA0131601385003022004000
B1713153341470N08139314WA0130801379003041004000
B1713173341471N08139361WA0130001369003053004000
B1713193341472N08139410WA0129601362003034004000
B1713213341472N08139460WA0129501361003022004000
B1713233341472N08139509WA0128801357003025004000
B1713253341471N08139558WA0127801348003029004000
B1713273341467N08139609WA0126701337003022004000
B1713293341462N08139661WA0126301330003020004000
B1713313341457N08139713WA0125501325003024004000
B1713333341452N08139766WA0124601314003024004000
B1713353341446N08139821WA0124301309003027004000
B1713373341440N08139876WA0124301308003029004000
B1713393341436N08139931WA0125001310003027004000
B1713413341430N08139984WA0125401317003043004000
B1713433341418N08140032WA0125601322003050004000
B1713453341396N08140074WA0126001325003041004000
B1713473341370N08140111WA0126301328003050004000
B1713493341345N08140147WA0126701332003048004000
B1713513341322N08140182WA0126601334003027004000
B1713533341301N08140218WA0126301332003039004000
B1713553341282N08140257WA0125901329003086004000
B1713573341265N08140298WA0125701324003118004000
B1713593341251N08140342WA0124801318003135004000
B1714013341238N08140387WA0124201312003125004000
B1714033341227N08140434WA0123901306003102004000
B1714053341218N08140483WA0123901304003100004000
B1714073341212N08140533WA0124001305003104004000
B1714093341208N08140583WA0123701304003090004000
B1714113341206N08140634WA0123701303003062004000
B1714133341206N08140685WA0123601302003062004000
B1714153341209N08140737WA0123801301003074004000
B1714173341219N08140787WA0124001305003069004000
B1714193341235N08140835WA0124601309003067004000
B1714213341253N08140880WA0124701313003053004000
B1714233341272N08140925WA0124801315003032004000
B1714253341291N08140969WA0125101318003027004000
B1714273341309N08141013WA0125201321003020004000
B1714293341325N08141058WA0125501322003022004000
B1714313341339N08141103WA0125701324003032004000
B1714333341350N08141150WA0125901326003025004000
B1714353341352N08141197WA0126101328003027004000
B1714373341345N08141241WA0126001327003036004000
B1714393341329N08141282WA0125701326003036004000
B1714413341309N08141321WA0125701325003036004000
B1714433341288N08141360WA0125601324003031004000
B1714453341266N08141400WA0125601326003024004000
B1714473341250N08141443WA0125801326003020004000
B1714493341260N08141491WA0126801330003025005000
B1714513341296N08141519WA0127101335003022005000
F17145221302809010714171913
B1714533341338N08141512WA0127001338003041005000
F1714542130280901071417191308
B1714553341372N08141478WA0127001336003095005000
B1714573341391N08141432WA0126301332003114005000
B1714593341399N08141384WA0125001322003083005000
B1715013341397N08141335WA0123301307003046005000
B1715033341381N08141287WA0122501293003057005000
B1715053341354N08141245WA0122101287003097005000
B1715073341320N08141209WA0121901284003105005000
B1715093341282N08141180WA0122001284003081005000
B1715113341240N08141162WA0122501287003064005000
B1715133341199N08141174WA0123301292003086005000
B1715153341182N08141219WA0124801302003088005000
F17151521302809010714171908
F171516213028090107171908
B1715173341199N08141265WA0125701312004055005000
F1715172130280901071417191308
B1715193341242N08141281WA0126601321003043005000
B1715213341284N08141259WA0127201331003039005000
B1715233341312N08141218WA0127601336003027005000
B1715253341316N08141169WA0127801339003039005000
B1715273341299N08141129WA0128001341003078005000
F17152721302801071417191308
B1715293341268N08141106WA0128501347003121005000
F1715292130280901071417191308
F17153021302809010714171308
B1715313341234N08141099WA0128601350003119005000
F1715312130280901071417191308
B1715333341200N08141105WA0129501357003074005000
B1715353341169N08141123WA0130301366003041005000
B1715373341146N08141155WA0130901373003022005000
B1715393341142N08141198WA0131901379003009005000
B1715413341163N08141235WA0132301384003016005000
B1715433341203N08141250WA0132901390003032005000
B1715453341245N08141234WA0133901397003037005000
B1715473341276N08141198WA0134401405003027005000
B1715493341287N08141151WA0134901409003011005000
B1715513341272N08141110WA0134901412003009005000
B1715533341240N08141092WA0135601415003009005000
F17155321302801071417191308
B1715553341207N08141101WA0136401424003006005000
F17155521302809010714171308
B1715573341186N08141133WA0137001431003009005000
F171558213028090107141708
B1715593341188N08141175WA0137401435003004005000
B1716013341211N08141210WA0137801440003000005000
F17160221302809010714171308
B1716033341250N08141226WA0138301444003000005000
F1716042130280901071417191308
B1716053341292N08141214WA0139301451003000005000
B1716073341321N08141178WA0140401461003000005000
B1716093341327N08141133WA0140901469003004005000
B1716113341310N08141096WA0141301473003020005000
B1716133341281N08141080WA0141701476003029005000
B1716153341250N08141087WA0142101482003020005000
B1716173341229N08141114WA0142401486003032005000
B1716193341227N08141153WA0142401487003051005000
B1716213341247N08141192WA0142601489003041005000
B1716233341283N08141217WA0142801488003025005000
B1716253341327N08141216WA0143501492003013005000
B1716273341366N08141189WA0144501499003009005000
B1716293341386N08141146WA0145201507003004005000
B1716313341380N08141101WA0145501514003009005000
B1716333341355N08141073WA0145601515003058005000
F17163321302801071417191308
B1716353341321N08141069WA0146301519003100005000
F1716362130280901071417191308
B1716373341293N08141088WA0147101527003083005000
B1716393341280N08141122WA0147901536003050005000
F17163921302809010714171908
F1716402130280901071417191308
B1716413341288N08141161WA0148101542003032005000
B1716433341314N08141191WA0148001542003046005000
B1716453341353N08141202WA0148101541003057005000
B1716473341394N08141190WA0148601544003041005000
B1716493341425N08141157WA0149501551003027005000
B1716513341437N08141113WA0149901559003018005000
B1716533341424N08141073WA0149601560003029005000
F17165421302801071417191308
B1716553341395N08141052WA0149201556003048005000
F1716562130280901071417191308
B1716573341361N08141063WA0149501555003053005000
F17165721302809010714171308
B1716593341339N08141096WA0150101560003046005000
F171659213028090107141708
F1717002130280901071417131908
B1717013341339N08141139WA0150601566004046006000
B1717033341363N08141175WA0150801569004095006000
B1717053341402N08141190WA0150801571004156006000
B1717073341444N08141179WA0150901571004181006000
B1717093341478N08141147WA0151301572004179006000
B1717113341496N08141102WA0151601576004158006000
B1717133341495N08141054WA0151801579004114006000
B1717153341481N08141012WA0151901580004090006000
B1717173341454N08140983WA0152201582004118006000
B1717193341420N08140974WA0152501585004137006000
B1717213341388N08140988WA0152901589004128006000
B1717233341363N08141016WA0153301592004095006000
B1717253341343N08141051WA0153501596004057006000
B1717273341325N08141086WA0154001600004041006000
B1717293341308N08141121WA0154301607003032006000
B1717313341298N08141159WA0154101606004043006000
B1717333341303N08141199WA0153801603004057006000
B1717353341328N08141228WA0153401599004052006000
B1717373341367N08141231WA0153401593004055006000
B1717393341404N08141210WA0152501587004074006000
F17173921302809010714171308
B1717413341433N08141172WA0151601581004102006000
B1717433341455N08141125WA0151201575004111006000
F1717432130280901071417131908
B1717453341471N08141073WA0151201575004130006000
B1717473341483N08141019WA0151301577003128006000
B1717493341491N08140965WA0151401578003118006000
B1717513341490N08140912WA0152101583003139006000
B1717533341476N08140865WA0152601590003116006000
B1717553341454N08140823WA0152901593003081006000
B1717573341427N08140788WA0153001596003102006000
F17175721302801071417131908
B1717593341396N08140758WA0153401599004130006000
B1718013341361N08140732WA0153801603004104006000
B1718033341324N08140713WA0154101606004067006000
B1718053341285N08140698WA0154201609004076006000
B1718073341246N08140686WA0154501612004083006000
B1718093341206N08140673WA0154801615004079006000
B1718113341166N08140660WA0155401619004081006000
B1718133341126N08140653WA0155701624004064006000
B1718153341086N08140654WA0156101628004043006000
B1718173341048N08140661WA0156201630004034006000
B1718193341010N08140671WA0155801628004048006000
B1718213340972N08140680WA0155301623004095006000
B1718233340933N08140690WA0154801617004153006000
B1718253340893N08140699WA0154001611004151006000
B1718273340851N08140700WA0153401604004116006000
B1718293340807N08140688WA0152801597004109006000
B1718313340766N08140665WA0152201591004125006000
B1718333340728N08140634WA0151501584004142006000
B1718353340691N08140600WA0151101579004142006000
B1718373340655N08140564WA0150801577004119006000
B1718393340619N08140528WA0150501574004081006000
B1718413340585N08140491WA0150101570004053006000
B1718433340551N08140454WA0149901568004041006000
B1718453340518N08140417WA0149601565004039006000
B1718473340485N08140380WA0149401564004050006000
B1718493340452N08140345WA0148801560004064006000
B1718513340418N08140309WA0148101552004062006000
B1718533340384N08140274WA0147401545004046006000
B1718553340349N08140238WA0147201541004034006000
B1718573340314N08140203WA0147301541004034006000
B1718593340280N08140169WA0147201540004027006000
B1719013340246N08140135WA0146901539004036006000
B1719033340213N08140100WA0146701537004050006000
B1719053340180N08140066WA0146701534004067006000
B1719073340146N08140032WA0147701538004069006000
B1719093340113N08140000WA0149301554004060006000
B1719113340082N08139972WA0150401568004048006000
B1719133340050N08139949WA0150601573004034006000
B1719153340017N08139927WA0150601575004034006000
B1719173339983N08139907WA0150901576004025006000
F1719182130280107141713441908
B1719193339949N08139889WA0151101579003013006000
B1719213339914N08139875WA0151201580003013006000
B1719233339879N08139863WA0150901580003025006000
B1719253339845N08139849WA0150901578003053006000
B1719273339810N08139833WA0150801577003076006000
B1719293339775N08139816WA0151501579003083006000
B1719313339741N08139798WA0152101586003072006000
B1719333339706N08139779WA0153201594003041006000
B1719353339673N08139761WA0154201605003020006000
B1719373339639N08139749WA0154901613003011006000
B1719393339605N08139749WA0156101624003009006000
B1719413339582N08139775WA0157101634004004006000
B1719433339584N08139814WA0157301640004009006000
B1719453339608N08139848WA0158201645003018006000
B1719473339642N08139868WA0158901652003015006000
B1719493339681N08139872WA0159401659003009006000
B1719513339716N08139854WA0159801662003002006000
B1719533339737N08139815WA0159901663003000006000
B1719553339734N08139770WA0160101663003000006000
B1719573339708N08139739WA0160801668003002006000
F17195821302801071417134408
B1719593339672N08139736WA0161701677003002006000
B1720013339642N08139758WA0162301685003000006000
B1720033339625N08139796WA0162801691003000006000
F1720032130280107141713441908
F17200421302801071417441908
B1720053339629N08139839WA0163601698003000006000
F1720052130280107141713441908
B1720073339654N08139873WA0164301704003000006000
B1720093339690N08139884WA0165001709003000006000
B1720113339727N08139869WA0165401715003004006000
B1720133339755N08139836WA0165501716003025006000
B1720153339768N08139790WA0165501717003034006000
B1720173339760N08139745WA0166301720003020006000
B1720193339736N08139710WA0166801727003011006000
B1720213339702N08139694WA0167501733003009006000
B1720233339667N08139700WA0168001741003004006000
B1720253339643N08139728WA0168301746003011006000
B1720273339637N08139769WA0168401746003055006000
B1720293339652N08139809WA0168601748003079006000
B1720313339685N08139835WA0168901750003055006000
B1720333339725N08139838WA0169601754003034006000
B1720353339761N08139816WA0170201761003020006000
B1720373339787N08139777WA0170501766003022006000
B1720393339797N08139730WA0170901769003029006000
B1720413339789N08139683WA0171501772003020006000
B1720433339768N08139643WA0171901777003009006000
B1720453339735N08139618WA0172401783003000006000
B1720473339699N08139613WA0172601786003000006000
B1720493339671N08139633WA0173301792004025006000
B1720513339660N08139672WA0173501797003055006000
F17205121302801071417441908
F1720522130280107141713441908
B1720533339674N08139711WA0173801800003053006000
B1720553339707N08139734WA0174101801003083006000
B1720573339747N08139730WA0174901806003097006000
B1720593339780N08139702WA0175701813003057006000
B1721013339800N08139660WA0176501822003034006000
B1721033339802N08139613WA0177101829003020006000
B1721053339787N08139571WA0177501835003009006000
B1721073339761N08139542WA0177701836003004006000
B1721093339728N08139534WA0177601837003020006000
B1721113339697N08139544WA0177601837003065006000
B1721133339666N08139559WA0177301835003081006000
B1721153339632N08139570WA0177601837003057006000
B1721173339596N08139580WA0177801839003039006000
B1721193339560N08139590WA0178101840003027006000
B1721213339522N08139598WA0178501844003022006000
B1721233339484N08139606WA0178801848003031006000
B1721253339446N08139613WA0179401853003041006000
B1721273339407N08139619WA0180001859003034006000
B1721293339367N08139624WA0180401864003020006000
B1721313339329N08139630WA0180401866003015006000
B1721333339290N08139635WA0180201866003018006000
B1721353339251N08139640WA0180201864003043006000
B1721373339211N08139643WA0179801863003067006000
B1721393339170N08139645WA0179601859003074006000
B1721413339128N08139647WA0179401856003071006000
B1721433339086N08139648WA0179101855003069006000
B1721453339042N08139650WA0178701851003088006000
B1721473338999N08139653WA0177801845003109006000
B1721493338953N08139654WA0177201836003097006000
B1721513338906N08139655WA0176501831003072006000
B1721533338858N08139657WA0176301826003090006000
B1721553338809N08139658WA0176101824003106006000
B1721573338759N08139659WA0175401820003088006000
B1721593338710N08139657WA0174601811003067006000
B1722013338659N08139650WA0173801804003055006000
B1722033338609N08139636WA0173001797003043006000
B1722053338559N08139616WA0172401789003037006000
B1722073338510N08139592WA0171801783003039006000
B1722093338462N08139564WA0171801782003062006000
B1722113338414N08139533WA0171701781003071006000
B1722133338368N08139499WA0171601780003048006000
B1722153338322N08139464WA0170901776003039006000
B1722173338277N08139427WA0170401771003041006000
B1722193338232N08139389WA0170001766003036006000
B1722213338187N08139350WA0169301761003027006000
B1722233338142N08139312WA0169001756003020006000
B1722253338097N08139273WA0168801754003013006000
B1722273338053N08139235WA0168601752003009006000
B1722293338009N08139197WA0168401750003009006000
B1722313337966N08139159WA0168201747003018006000
B1722333337923N08139121WA0167801745003024006000
B1722353337882N08139082WA0167701743003027006000
B1722373337841N08139044WA0168401745003036006000
F17223821300107141713441908
B1722393337802N08139007WA0169001754003036006000
F1722402130280107141713441908
B1722413337765N08138971WA0168601754003032006000
B1722433337729N08138935WA0168101750003036006000
B1722453337693N08138898WA0167401743003041006000
B1722473337656N08138860WA0166701736003046006000
B1722493337619N08138821WA0165901728003064006000
B1722513337582N08138781WA0165001721003074006000
B1722533337545N08138740WA0164101712003064006000
B1722553337508N08138698WA0163501703003048006000
B1722573337470N08138657WA0163201698003041006000
B1722593337432N08138615WA0163701699003043006000
F17225921300107141713441908
B1723013337397N08138574WA0165001711003048006000
B1723033337364N08138537WA0165601721003050006000
F1723042130280107141713441908
B1723053337331N08138501WA0165601722003053006000
B1723073337299N08138464WA0165701723003053006000
B1723093337268N08138428WA0165301722003043006000
B1723113337237N08138393WA0165401720003062006000
B1723133337204N08138359WA0165001719003088006000
B1723153337171N08138324WA0164601714003088006000
B1723173337137N08138287WA0163801708003076006000
B1723193337102N08138248WA0163801703003060006000
B1723213337067N08138208WA0163601704003043006000
B1723233337031N08138169WA0163401703003043006000
B1723253336995N08138130WA0162601696003076006000
B1723273336958N08138091WA0162401692003093006000
B1723293336919N08138052WA0162001689003076006000
B1723313336880N08138013WA0162101688003062006000
B1723333336840N08137976WA0162201689003046006000
B1723353336801N08137939WA0161701687003041006000
F172336213028010714171344190846
B1723373336761N08137903WA0161901684003041006000
B1723393336722N08137868WA0162401690003046006000
B1723413336684N08137836WA0163301695003048006000
B1723433336647N08137805WA0164301705003041006000
B1723453336610N08137776WA0165501716003039006000
B1723473336573N08137747WA0166401726003029006000
B1723493336538N08137720WA0167401736003020006000
B1723513336503N08137695WA0167901744003020006000
B1723533336468N08137671WA0167701745003039006000
B1723553336433N08137644WA0168101746003046006000
B1723573336396N08137616WA0168601750003032006000
B1723593336360N08137587WA0168201751003022006000
B1724013336323N08137557WA0168001747003018006000
B1724033336286N08137526WA0168001746003027006000
B1724053336248N08137493WA0168701748003034006000
B1724073336212N08137459WA0169301755003043006000
B1724093336175N08137427WA0169701760003050006000
B1724113336139N08137396WA0170201765003048006000
B1724133336103N08137366WA0170501767003060006000
B1724153336068N08137336WA0170901771003074006000
B1724173336033N08137306WA0171301776003083006000
B1724193336000N08137277WA0171301777003095006000
B1724213335967N08137246WA0171401778003123006000
B1724233335934N08137216WA0171601779003130006000
B1724253335902N08137186WA0171301778003130006000
B1724273335870N08137154WA0171201776003163006000
B1724293335839N08137122WA0171301776003195006000
B1724313335808N08137090WA0170801775003214006000
B1724333335776N08137058WA0169801767003221006000
B1724353335743N08137025WA0168301755003193006000
B1724373335708N08136991WA0166401736003165006000
B1724393335669N08136955WA0164801718003156006000
B1724413335626N08136917WA0163501705003116006000
B1724433335583N08136876WA0162801695003071006000
B1724453335539N08136835WA0162401689003057006000
B1724473335495N08136793WA0161701684003050006000
B1724493335451N08136749WA0161201679003036006000
B1724513335407N08136705WA0160601674003029006000
B1724533335363N08136663WA0160201669003027006000
B1724553335317N08136622WA0159701664003039006000
B1724573335271N08136582WA0159501660003043006000
B1724593335225N08136543WA0159301659003034006000
B1725013335178N08136505WA0159001657003025006000
B1725033335132N08136467WA0158801655003020006000
