ANKL0Z2
HFDTE230421
HFFXA050
HFPLTPILOT:Fabrizio DiStefano
HFGTYGLIDERTYPE:ASW 19 SE
HFGIDGLIDERID:SE
HFDTM100GPSDATUM:
HFRFWFIRMWAREVERSION:38 2010-7-7
HFRHWHARDWAREVERSION: NKL ClearNav V1.0
HFFTYFRTYPE:Nielsen Kellerman, ClearNav-IGC
HFGPS:UBLOX,LEA-4H-0-000-1,16Ch,18000 
HFPRSPRESSALTSENSOR:Intersema,MS5534B,20000 
I033638FXA3941ENL4247REX
C230421160500000000000103
C0000000N00000000WTAKEOFF     
C3333999N08120000WStart 4
C3318252N08106547WArea Bamburg
C3315446N08123327WArea Barnwel
C3355583N08147695WArea Saluda
C3337617N08119732WFinish
C0000000N00000000WLANDING     
B1637163337803N08119582WA0006500138002000003008
B1637173337803N08119582WA0006500138002000003008
B1637183337803N08119582WA0006500138002000003008
B1637193337803N08119582WA0006500138002000003008
B1637203337803N08119582WA0006500138002000003008
B1637213337803N08119582WA0006600138002000003008
B1637223337803N08119582WA0006600137002000003008
B1637233337803N08119582WA0006500137002000003008
B1637243337803N08119582WA0006500137002000003008
B1637253337803N08119582WA0006500137002000003008
B1637263337803N08119582WA0006500137002000003008
B1637273337803N08119582WA0006500137002000003008
B1637283337803N08119582WA0006500137002000003008
B1637293337804N08119582WA0006500137002000003008
B1637303337804N08119582WA0006500136002000003008
B1637313337804N08119582WA0006500136002000003008
B1637323337804N08119582WA0006500136002000003008
B1637333337804N08119582WA0006400136002000003008
B1637343337804N08119582WA0006500136002000003008
B1637353337804N08119582WA0006500136002000003008
B1637363337804N08119582WA0006500136002000003008
B1637373337804N08119581WA0006500135002000003008
B1637383337804N08119581WA0006500135002000003008
B1637393337804N08119581WA0006500134002000003008
B1637403337804N08119580WA0006600134002000003008
B1637413337805N08119580WA0006500134002000003008
B1637423337805N08119580WA0006600133002000003008
B1637433337805N08119580WA0006500133002000003008
B1637443337805N08119580WA0006500133002000003008
B1637453337805N08119580WA0006500133002000003008
B1637463337805N08119580WA0006500132002000003008
B1637473337805N08119579WA0006600132002000003008
B1637483337805N08119579WA0006600132002000003008
B1637493337805N08119579WA0006500132002000003008
B1637503337805N08119579WA0006500132002000003008
B1637513337805N08119579WA0006500132002000003008
B1637523337805N08119579WA0006500132002000003008
B1637533337805N08119579WA0006500131002000003008
B1637543337805N08119579WA0006500131002000003008
B1637553337805N08119579WA0006500132002000003008
B1637563337805N08119579WA0006500131002000003008
B1637573337805N08119579WA0006500131002000003008
B1637583337805N08119579WA0006400131002000003008
B1637593337805N08119579WA0006500131002000003008
B1638003337805N08119579WA0006400131002000003008
B1638013337805N08119579WA0006500131002000003008
B1638023337805N08119579WA0006500131002000003008
B1638033337805N08119579WA0006500131002000003008
B1638043337805N08119579WA0006500130002000003008
B1638053337805N08119579WA0006500130002000003008
B1638063337805N08119579WA0006400130002000003008
B1638073337805N08119579WA0006500130002000003008
B1638083337805N08119579WA0006500130002000003008
B1638093337805N08119579WA0006500130002000003008
B1638103337805N08119579WA0006400130002000003008
B1638113337805N08119579WA0006500130002000003008
B1638123337805N08119579WA0006400130002000003008
B1638133337805N08119579WA0006400130002000003008
B1638143337805N08119579WA0006500130002000003008
B1638153337805N08119578WA0006400130002000003008
B1638163337806N08119578WA0006500130002000003008
B1638173337806N08119578WA0006500130002000003008
B1638183337806N08119578WA0006400130002000003008
B1638193337806N08119578WA0006400130002000003008
B1638203337806N08119578WA0006500130002000003008
B1638213337806N08119578WA0006500130002000003008
B1638223337806N08119578WA0006400130002000003008
B1638233337806N08119578WA0006400130002000003008
B1638243337806N08119578WA0006400130002000003008
B1638253337806N08119578WA0006400130002000003008
B1638263337806N08119578WA0006400130002000003008
B1638273337806N08119578WA0006500130002000003008
B1638283337806N08119578WA0006500130002000003008
B1638293337806N08119578WA0006400130002000003008
B1638303337806N08119578WA0006400130002000003008
B1638313337806N08119578WA0006400130002000003008
B1638323337806N08119578WA0006500130002000003008
B1638333337806N08119578WA0006400130002000003008
B1638343337806N08119578WA0006500130002000003008
B1638353337806N08119578WA0006500130002000003008
B1638363337806N08119578WA0006500130002000003008
B1638373337806N08119578WA0006500130002000003008
B1638383337806N08119578WA0006400130002000003008
B1638393337806N08119578WA0006500130002000003008
B1638403337806N08119578WA0006500130002000003008
B1638413337806N08119578WA0006500130002000003008
B1638423337806N08119578WA0006500130002000003008
B1638433337806N08119578WA0006500130002000003008
B1638443337806N08119578WA0006400131002000003008
B1638453337806N08119578WA0006500131002000003008
B1638463337806N08119578WA0006600131002000003008
B1638473337806N08119578WA0006500131002000003008
B1638483337806N08119578WA0006400131002000003008
B1638493337806N08119578WA0006500131002000003008
B1638503337806N08119578WA0006500131002000003008
B1638513337805N08119578WA0006500131002000003008
B1638523337805N08119578WA0006500131002000003008
B1638533337805N08119578WA0006400131002000003008
B1638543337805N08119578WA0006500131002000003008
B1638553337805N08119578WA0006400131002000003008
B1638563337805N08119578WA0006600131002000003008
B1638573337805N08119578WA0006400131002000003008
B1638583337805N08119578WA0006500131002000003008
B1638593337805N08119578WA0006500131002000003008
B1639003337805N08119578WA0006500131002000003008
B1639013337805N08119578WA0006500131002000003008
B1639023337805N08119578WA0006400131002000003008
B1639033337806N08119578WA0006500131002000003008
B1639043337806N08119578WA0006400131002000003008
B1639053337806N08119578WA0006400131002000003008
B1639063337806N08119578WA0006500131002000003008
B1639073337806N08119578WA0006400131002000003008
B1639083337806N08119578WA0006400130002000003008
B1639093337806N08119578WA0006400130002000003008
B1639103337805N08119579WA0006400130002000003008
B1639113337805N08119579WA0006400130002000003008
B1639123337805N08119579WA0006400130002000003008
B1639133337805N08119579WA0006400130002000003008
B1639143337805N08119580WA0006300130002000003008
B1639153337805N08119582WA0006300130002000003008
B1639163337804N08119585WA0006100130002022003000
F163916144607090828511730210127
B1639173337803N08119589WA0006200130002041003000
F163917144607090828135117302101
B1639183337802N08119595WA0006200130002066003000
B1639193337801N08119603WA0006100130002094003000
B1639203337799N08119612WA0006000129002117003000
B1639213337797N08119622WA0006100129002147003000
B1639223337794N08119633WA0006100129002172003000
B1639233337792N08119646WA0006100129002195003000
B1639243337789N08119660WA0005700128002211003000
B1639253337786N08119674WA0005800128002209003000
B1639263337783N08119691WA0005800128002195003000
B1639273337779N08119708WA0006000128002163003000
B1639283337775N08119725WA0006200128002135003000
B1639293337770N08119743WA0006300129002114003000
B1639303337765N08119762WA0006400130002101003000
B1639313337760N08119782WA0006400131002094003000
B1639323337755N08119802WA0006700132002082003000
B1639333337750N08119823WA0007000134002077003000
B1639343337746N08119844WA0007100137002070003000
B1639353337742N08119865WA0007500139002066003000
B1639363337738N08119888WA0007600142002061003000
B1639373337733N08119910WA0008200144002057003000
B1639383337729N08119932WA0008300148002059003000
B1639393337724N08119954WA0009200152002061003000
B1639403337719N08119976WA0009300157002064003000
B1639413337714N08119998WA0009700160002068003000
B1639423337709N08120020WA0009800163002064003000
B1639433337704N08120042WA0010200167002059003000
B1639443337698N08120065WA0010500170002057003000
B1639453337693N08120087WA0010600173002057003000
B1639463337688N08120110WA0011100175002061003000
B1639473337684N08120133WA0011300178002064003000
B1639483337679N08120157WA0011800181002066003000
B1639493337676N08120181WA0012100185002064003000
B1639503337672N08120205WA0012600189002064003000
B1639513337670N08120229WA0013100194002064003000
B1639523337669N08120253WA0013500199002064003000
B1639533337668N08120278WA0014200204002059003000
B1639543337668N08120302WA0015000210002057003000
B1639553337668N08120326WA0015800217002057003000
B1639563337669N08120349WA0016400224002059003000
B1639573337669N08120372WA0017000232002061003000
B1639583337670N08120395WA0017700239002054003000
B1639593337672N08120418WA0018600246002052003000
B1640003337673N08120441WA0019000253002045003000
B1640013337675N08120464WA0019700259002050003000
B1640023337677N08120486WA0020400266002054003000
B1640033337680N08120508WA0021200273002054003000
B1640043337683N08120529WA0021700279002064003000
B1640053337687N08120551WA0021900285002054003000
B1640063337693N08120572WA0022400290002057003000
B1640073337699N08120593WA0022900294002061003000
B1640083337706N08120613WA0023200298002057003000
B1640093337714N08120634WA0023300302002064003000
B1640103337722N08120655WA0023500304002061003000
B1640113337731N08120675WA0023600306002061003000
B1640123337742N08120695WA0023800307002061003000
B1640133337753N08120715WA0024000309002059003000
B1640143337765N08120733WA0024200310002061003000
B1640153337779N08120750WA0024500313002061003000
B1640163337794N08120766WA0024800315002057003000
B1640173337809N08120781WA0024800317002052003000
B1640183337826N08120795WA0025100318002050003000
B1640193337844N08120808WA0025300320002040003000
F164019140709082813511730210127
B1640203337862N08120819WA0025900322002045003000
B1640213337881N08120827WA0026400326002050003000
B1640223337901N08120833WA0026900330002050003000
B1640233337921N08120837WA0027700336002055003000
B1640243337942N08120840WA0028000342002059003000
B1640253337962N08120842WA0029100347002061003000
B1640263337981N08120840WA0029200353002061003000
B1640273338001N08120836WA0029600359002059003000
B1640283338021N08120829WA0030200364003052003000
B1640293338040N08120819WA0030500369003052003000
B1640303338057N08120808WA0030500373003050003000
B1640313338073N08120794WA0031300376003052004000
B1640323338089N08120777WA0031600381004055004000
B1640333338103N08120760WA0032200385003048004000
F1640331407090828131730210127
B1640343338116N08120743WA0032400389003045004000
B1640353338129N08120724WA0032600392003045004000
B1640363338142N08120706WA0032900394002043003000
B1640373338155N08120686WA0033000396002043003000
B1640383338166N08120666WA0033100398002045003000
B1640393338178N08120646WA0033100399002048003000
B1640403338188N08120624WA0033300400002048003000
B1640413338199N08120603WA0033400402002048003000
B1640423338209N08120581WA0033600403002045003000
B1640433338219N08120559WA0033600404002047003000
B1640443338228N08120536WA0034000406002050003000
B1640453338236N08120513WA0034200408002050003000
B1640463338242N08120489WA0034400410002050003000
B1640473338248N08120464WA0034700412002045003000
B1640483338253N08120440WA0034800414002050003000
B1640493338258N08120416WA0034900416002054003000
B1640503338263N08120391WA0035300418002057003000
B1640513338269N08120367WA0035700422002055003000
B1640523338275N08120343WA0036300426002045003000
B1640533338280N08120318WA0036800431002043003000
B1640543338286N08120294WA0037200436002045003000
B1640553338290N08120270WA0037600440002048003000
B1640563338295N08120245WA0037900444002048003000
B1640573338300N08120220WA0038000447002048003000
B1640583338305N08120195WA0038300449002048003000
B1640593338310N08120170WA0038600452002050003000
B1641003338316N08120145WA0038800455002055003000
B1641013338321N08120119WA0039000458002052003000
B1641023338326N08120094WA0039400461002052003000
B1641033338331N08120069WA0039500464002050003000
B1641043338336N08120044WA0040000467002052003000
B1641053338341N08120019WA0040200470002057003000
B1641063338346N08119994WA0040700473002057003000
B1641073338350N08119969WA0040800477002057003000
B1641083338354N08119944WA0041100479002055003000
B1641093338358N08119919WA0041300482002057003000
B1641103338362N08119894WA0041600484002061003000
B1641113338366N08119869WA0041900487002061003000
B1641123338371N08119844WA0042000490002061003000
B1641133338376N08119819WA0042200492002059003000
B1641143338382N08119794WA0042200494002057003000
B1641153338388N08119769WA0042500495002061003000
B1641163338393N08119743WA0042900498002064003000
B1641173338398N08119718WA0043700502002066003000
B1641183338401N08119693WA0044300507002066003000
B1641193338405N08119667WA0044500512002057003000
B1641203338408N08119642WA0045300517002059003000
B1641213338412N08119616WA0045700523002057003000
B1641223338416N08119590WA0046100528002059003000
B1641233338420N08119565WA0046400534002068003000
B1641243338425N08119539WA0046900538002068003000
B1641253338430N08119514WA0047500543002066003000
B1641263338436N08119489WA0047600547002061003000
B1641273338442N08119464WA0048100551002059003000
B1641283338449N08119439WA0048500555002050003000
B1641293338457N08119415WA0049100559002054003000
B1641303338467N08119391WA0048800561002054003000
B1641313338477N08119367WA0048900562002054003000
B1641323338489N08119345WA0049000563002061003000
B1641333338502N08119324WA0049400564002061003000
B1641343338517N08119303WA0049800566002066003000
B1641353338532N08119284WA0050000568002068003000
B1641363338548N08119265WA0050200571002066003000
F16413614070828131730210127
B1641373338565N08119246WA0050700575002064003000
B1641383338583N08119227WA0051100578002064003000
B1641393338601N08119209WA0051400582002061003000
F1641391407090828131730210127
B1641403338620N08119192WA0051700585002066003000
B1641413338640N08119176WA0052000588002070003000
B1641423338660N08119161WA0052200591002070003000
B1641433338681N08119148WA0052800595002068003000
B1641443338702N08119135WA0053200598002068003000
B1641453338724N08119124WA0053000601002068003000
B1641463338747N08119114WA0053900604002068003000
B1641473338770N08119106WA0054100608002075003000
B1641483338793N08119101WA0055200613002073003000
B1641493338816N08119098WA0055400617002070003000
B1641503338839N08119097WA0056000623002068003000
B1641513338863N08119098WA0056900629002066003000
B1641523338886N08119101WA0057500636002068003000
B1641533338908N08119105WA0058300644002068003000
B1641543338931N08119110WA0058600650002070003000
B1641553338953N08119116WA0059800657002068003000
B1641563338974N08119122WA0060400665002068003000
B1641573338995N08119128WA0061200673002070003000
B1641583339015N08119133WA0061700679002070003000
B1641593339034N08119135WA0062100684002073003000
B1642003339053N08119135WA0062000687002063003000
B1642013339072N08119133WA0062000687002063003000
B1642023339090N08119130WA0061500685002057003000
B1642033339108N08119126WA0061100683002050003000
B1642043339125N08119120WA0060500679002052003000
B1642053339143N08119114WA0060100674002050003000
B1642063339162N08119108WA0060300669002048003000
B1642073339180N08119100WA0059800664002043003000
B1642083339199N08119092WA0059500660002040003000
B1642093339218N08119083WA0059200656002033003000
B1642103339237N08119073WA0058800652002033003000
B1642113339257N08119063WA0058700649002033003000
B1642123339276N08119053WA0058300646002031003000
B1642133339296N08119042WA0058000642002031003000
B1642143339316N08119030WA0057900640002031003000
B1642153339336N08119019WA0057800638002033003000
B1642163339355N08119007WA0057500637002033003000
B1642173339375N08118996WA0057300636002033003000
B1642183339394N08118984WA0057300634002031003000
B1642193339412N08118971WA0057000632002029003000
B1642203339430N08118959WA0056900631002029003000
B1642213339447N08118946WA0057000629002029003000
B1642223339464N08118932WA0057200629002031003000
B1642233339479N08118918WA0057400630002033003000
B1642243339494N08118903WA0057700633002027003000
B1642253339507N08118888WA0058100636002022003000
B1642263339519N08118873WA0058400640002022003000
B1642273339530N08118858WA0058700644002020003000
B1642283339542N08118843WA0058900647002027003000
B1642293339553N08118829WA0059100649002022003000
B1642303339564N08118816WA0059200651002013003000
B1642313339576N08118803WA0059000652002011003000
B1642323339588N08118791WA0059200652002002003000
B1642333339600N08118779WA0058800652002009003000
B1642343339614N08118770WA0058800650002011003000
B1642353339628N08118762WA0058800649002011003000
B1642363339644N08118756WA0059100650002015003000
B1642373339660N08118751WA0059200651002006003000
B1642383339675N08118746WA0059500653002002003000
B1642393339691N08118741WA0059900656002000003000
B1642403339706N08118736WA0060100659002000003000
B1642413339721N08118730WA0060400661002004003000
B1642423339736N08118725WA0060500663002011003000
B1642433339751N08118720WA0060500664002018003000
B1642443339766N08118718WA0060500664002018003000
B1642453339781N08118717WA0060400664002020003000
B1642463339796N08118720WA0060400663002022003000
B1642473339811N08118725WA0060400662002020003000
B1642483339825N08118734WA0060300662002015003000
B1642493339837N08118744WA0060300661002011003000
B1642503339848N08118757WA0060300660002006003000
B1642513339856N08118772WA0060100659002013003000
B1642523339863N08118789WA0059900657002018003000
B1642533339867N08118806WA0059900655002018003000
B1642543339868N08118823WA0059800654002020003000
B1642553339868N08118840WA0059800653002018003000
B1642563339864N08118856WA0059900652002018003000
F16425614070908281317302101
B1642573339859N08118870WA0060000652002020003000
F1642571407090828131730210127
B1642583339851N08118883WA0060100653002018003000
B1642593339842N08118894WA0060400655002009003000
B1643003339831N08118904WA0060700658002009003000
B1643013339821N08118913WA0061000661002013003000
B1643023339810N08118923WA0061400664002009003000
B1643033339800N08118933WA0061700668002015003000
B1643043339790N08118942WA0062100673002013003000
B1643053339780N08118952WA0062500676002009003000
B1643063339771N08118962WA0062700679002011003000
B1643073339761N08118970WA0062800682002011003000
B1643083339750N08118977WA0062900684002013003000
B1643093339739N08118980WA0063000686002013003000
B1643103339727N08118980WA0062900687002018003000
B1643113339715N08118976WA0063000688002020003000
B1643123339704N08118970WA0063100688002022003000
B1643133339693N08118961WA0063300689002018003000
B1643143339684N08118949WA0063600691002020003000
B1643153339676N08118936WA0064000695002018003000
B1643163339669N08118922WA0064300698002013003000
B1643173339664N08118906WA0064700701002018003000
B1643183339661N08118890WA0065100704002020004000
B1643193339660N08118873WA0065300708002024004000
B1643203339662N08118856WA0065600711002027003000
B1643213339665N08118839WA0065900714002027003000
B1643223339671N08118823WA0066100716002022003000
B1643233339679N08118808WA0066400718002011003000
B1643243339689N08118795WA0066400720002011003000
B1643253339701N08118784WA0066500721002013003000
B1643263339714N08118776WA0066800722002015003000
B1643273339728N08118770WA0067100724002027003000
B1643283339743N08118767WA0067200726002031003000
B1643293339757N08118766WA0067500728002029003000
B1643303339771N08118767WA0067700729002024003000
B1643313339785N08118771WA0067900731002018003000
B1643323339797N08118778WA0068300734002015003000
B1643333339808N08118787WA0068700738002015003000
B1643343339817N08118797WA0069000741002015003000
B1643353339824N08118809WA0069300744002013003000
B1643363339828N08118822WA0069400747002009003000
B1643373339831N08118835WA0069600749002009003000
B1643383339831N08118849WA0069600751002011003000
B1643393339829N08118862WA0069800753002013003000
B1643403339825N08118875WA0069700753002013003000
B1643413339819N08118887WA0069700753002013003000
B1643423339810N08118896WA0069400750002013003000
B1643433339799N08118903WA0069500748002015003000
B1643443339787N08118907WA0069400748002018003000
B1643453339774N08118905WA0069700748002013003000
F16434514070908281730210127
B1643463339761N08118900WA0069700750002013003000
B1643473339749N08118892WA0070000752002011003000
F1643471407090828131730210127
B1643483339738N08118880WA0070200753002013003000
B1643493339729N08118867WA0070500756002015003000
B1643503339722N08118851WA0070800759003015003000
B1643513339718N08118834WA0071100761003015003000
B1643523339715N08118816WA0071300764003018003000
B1643533339715N08118797WA0071700768003024003000
B1643543339718N08118778WA0071800770003029003000
B1643553339723N08118760WA0072000772003033003000
B1643563339730N08118744WA0072100773003022003000
B1643573339739N08118729WA0072200775003018003000
B1643583339751N08118716WA0072400776003015003000
B1643593339763N08118704WA0072600778003013003000
B1644003339776N08118694WA0072800780002022003000
B1644013339790N08118686WA0072800781002020003000
B1644023339806N08118682WA0073200783002020003000
B1644033339821N08118679WA0073200785002022003000
B1644043339836N08118680WA0073500786002018003000
B1644053339851N08118683WA0073700788002020003000
B1644063339865N08118689WA0074000789002015003000
B1644073339877N08118697WA0073700791002018003000
B1644083339888N08118707WA0073800792002020003000
B1644093339898N08118719WA0073900793002024003000
B1644103339904N08118732WA0073900793002027003000
B1644113339908N08118746WA0074000793002027003000
B1644123339910N08118761WA0074200794002024003000
B1644133339909N08118776WA0074400795002018003000
B1644143339905N08118790WA0074700797002020003000
B1644153339900N08118804WA0074800800002018003000
B1644163339893N08118816WA0075000802002022003000
B1644173339884N08118827WA0075100804002031003000
B1644183339874N08118835WA0074900805002034003000
B1644193339863N08118842WA0075300805002036003000
B1644203339851N08118846WA0075400805002041003000
B1644213339838N08118847WA0075400805002041003000
B1644223339825N08118845WA0075500806002043003000
B1644233339812N08118840WA0075700808002052003000
B1644243339799N08118832WA0075700811002050003000
B1644253339788N08118822WA0075800813002050003000
B1644263339777N08118811WA0076000814002047003000
B1644273339767N08118797WA0076100815002041003000
B1644283339759N08118781WA0076400818003038004000
B1644293339753N08118763WA0076600821003036003000
B1644303339749N08118745WA0076700823003031003000
B1644313339747N08118726WA0076900825003024003000
B1644323339747N08118707WA0077200827003024003000
B1644333339750N08118689WA0076900828003018003000
B1644343339755N08118671WA0076700826003022003000
B1644353339763N08118654WA0076600824003018003000
B1644363339772N08118638WA0076400822003013003000
B1644373339784N08118624WA0076400821003018003000
B1644383339797N08118613WA0076500821003011003000
B1644393339812N08118605WA0076500821002015003000
B1644403339828N08118600WA0076800822002018003000
B1644413339844N08118599WA0077100823002015003000
B1644423339860N08118601WA0077100825002018003000
B1644433339876N08118605WA0077300826002013003000
B1644443339891N08118609WA0077600828002006003000
F16444414070908281317302127
B1644453339906N08118614WA0077800831002006003000
F1644451407090828131730210127
B1644463339921N08118618WA0078300833002006003000
F16444614070908281317302127
B1644473339936N08118622WA0078400835002011003000
B1644483339951N08118626WA0078500838002013003000
B1644493339965N08118632WA0078500840002011003000
F1644491407090828131730210127
B1644503339978N08118639WA0078500841002013003000
B1644513339989N08118648WA0078400841002013003000
F16445114070908281317302127
B1644523339999N08118659WA0078300839002011003000
F1644521407090828131730210127
B1644533340006N08118671WA0078400838002011003000
B1644543340011N08118685WA0078200838002009003000
B1644553340013N08118699WA0078300839002004003000
B1644563340014N08118714WA0078300839002011003000
B1644573340012N08118729WA0078400839002009003000
B1644583340007N08118742WA0078600840002009003000
B1644593340000N08118755WA0078700842002011003000
B1645003339992N08118765WA0079100844002011003000
B1645013339982N08118774WA0079400846002020003000
B1645023339971N08118780WA0079500849002020003000
B1645033339959N08118783WA0079800851003015004000
B1645043339947N08118783WA0079800851002018003000
B1645053339934N08118780WA0079700851002013003000
B1645063339922N08118775WA0079700851003013004000
B1645073339911N08118767WA0079800851002015003000
B1645083339900N08118757WA0079900852002015003000
B1645093339890N08118746WA0080100854002020003000
B1645103339881N08118732WA0080300857002024003000
B1645113339874N08118717WA0080400859002033003000
B1645123339868N08118700WA0080400860002031003000
B1645133339864N08118682WA0080400861002031003000
B1645143339863N08118663WA0080700862002031003000
B1645153339864N08118643WA0080800863002022003000
B1645163339867N08118624WA0080800864002024003000
B1645173339874N08118606WA0081000865002022003000
B1645183339882N08118590WA0081100867002015003000
B1645193339893N08118575WA0081400868002020003000
B1645203339906N08118563WA0081600870002018003000
B1645213339919N08118554WA0081600871002018003000
B1645223339934N08118547WA0081700872002022003000
B1645233339950N08118543WA0081800873002022003000
B1645243339965N08118543WA0081700873002022003000
B1645253339981N08118546WA0081700872002020003000
B1645263339996N08118551WA0081800872002020003000
B1645273340010N08118559WA0081900872002022003000
B1645283340023N08118569WA0082100873002018003000
B1645293340034N08118581WA0082100875002018003000
B1645303340043N08118595WA0082300877002018003000
B1645313340050N08118609WA0082700880002018003000
B1645323340054N08118625WA0082800882002022003000
B1645333340055N08118640WA0082900884002022003000
B1645343340054N08118655WA0083000885002015003000
B1645353340049N08118670WA0083100886002013003000
B1645363340043N08118682WA0083100887002013003000
B1645373340033N08118693WA0083200888002013003000
B1645383340022N08118701WA0083400889002018003000
B1645393340010N08118705WA0083500889002015003000
B1645403339997N08118706WA0083500890002013003000
B1645413339984N08118704WA0083400890002013003000
B1645423339971N08118699WA0083100888003018004000
B1645433339958N08118690WA0083200888002020003000
B1645443339947N08118678WA0083100887002024003000
B1645453339937N08118663WA0083200887002027003000
B1645463339929N08118645WA0083400888003022003000
B1645473339923N08118625WA0083600888003015003000
B1645483339919N08118605WA0083400889003011003000
B1645493339917N08118585WA0083600890003009003000
B1645503339916N08118564WA0083700892003006003000
B1645513339915N08118543WA0083800894003013003000
B1645523339914N08118522WA0084100895003015003000
B1645533339914N08118501WA0084400898003015003000
B1645543339914N08118480WA0084600900003018003000
B1645553339914N08118460WA0084800902003011003000
B1645563339917N08118440WA0085100905003011003000
B1645573339923N08118421WA0085500908003013003000
B1645583339933N08118405WA0085500911003009004000
B1645593339946N08118391WA0085700913003018003000
B1646003339962N08118383WA0085700913003013003000
B1646013339979N08118379WA0085900913003006003000
B1646023339997N08118379WA0086100913003006003000
B1646033340014N08118384WA0086200915002000003000
B1646043340031N08118393WA0086300915002002003000
B1646053340045N08118406WA0086500917003006004000
B1646063340057N08118421WA0086600919002011003000
B1646073340065N08118438WA0086800921002013003000
B1646083340070N08118455WA0087100922002018003000
B1646093340073N08118472WA0087300925002022003000
B1646103340071N08118488WA0087700928002024003000
F16461014070908281730210127
B1646113340065N08118502WA0087800930002031003000
B1646123340057N08118514WA0087900932002024003000
F1646121413070908281730210127
B1646133340046N08118521WA0088000933003015004000
B1646143340034N08118526WA0088100934002011003000
B1646153340020N08118526WA0088200934003011004000
B1646163340006N08118522WA0088100934003018004000
B1646173339993N08118513WA0088000933003027004000
B1646183339981N08118500WA0087900933003031004000
B1646193339971N08118484WA0087900933003033003000
B1646203339965N08118464WA0087900933004033004000
B1646213339962N08118443WA0087900933004031004000
B1646223339963N08118421WA0088300934004027003000
B1646233339967N08118399WA0088400936004027003000
B1646243339977N08118380WA0088800938003024003000
B1646253339988N08118362WA0088900940003022004000
B1646263340002N08118348WA0089300942003027004000
B1646273340018N08118338WA0089500944003020004000
B1646283340036N08118333WA0089700946003018004000
B1646293340054N08118331WA0089800947003020004000
B1646303340073N08118334WA0090000949003020004000
B1646313340090N08118340WA0090100951003024003000
B1646323340106N08118349WA0090200952003020004000
B1646333340119N08118361WA0090200954003018003000
B1646343340131N08118376WA0090600955002011003000
B1646353340140N08118392WA0090600957002006003000
B1646363340146N08118408WA0090900959002009003000
B1646373340149N08118426WA0091000960002006003000
B1646383340149N08118442WA0091100961002011003000
B1646393340146N08118457WA0091200963002009003000
B1646403340140N08118471WA0091500965002011003000
B1646413340131N08118481WA0091700967002015003000
B1646423340120N08118489WA0092000969002015003000
B1646433340108N08118494WA0092100972002020003000
B1646443340096N08118496WA0092300974002020003000
B1646453340083N08118496WA0092400975002020003000
B1646463340070N08118491WA0092300975003020004000
B1646473340057N08118484WA0092200975002020003000
B1646483340045N08118474WA0092200975002022003000
B1646493340035N08118460WA0092200976003024004000
B1646503340025N08118445WA0092300978004024003000
B1646513340018N08118427WA0092300979004029003000
B1646523340012N08118407WA0092200980004029003000
B1646533340008N08118387WA0092300980004031003000
B1646543340004N08118367WA0092400980003036003000
B1646553340001N08118346WA0092800982003036003000
B1646563339998N08118325WA0092900985003038003000
B1646573339995N08118305WA0093300989003031003000
B1646583339992N08118285WA0093800993003029003000
B1646593339990N08118265WA0093900996003027003000
B1647003339988N08118245WA0093900999002027003000
B1647013339987N08118226WA0093701000002031003000
B1647023339988N08118207WA0093200998002029003000
B1647033339992N08118188WA0092400993002027003000
B1647043339999N08118170WA0091900987002022003000
B1647053340009N08118153WA0091400981003018003000
B1647063340022N08118139WA0091100976003018004000
F16470614130708281730210127
B1647073340038N08118129WA0090800971003018004000
B1647083340056N08118123WA0090400966003020004000
B1647093340075N08118120WA0090100962002013003000
F1647091413070908281730210127
B1647103340094N08118121WA0089800957002015003000
B1647113340112N08118125WA0089400953002011003000
B1647123340128N08118133WA0088900948002004003000
B1647133340143N08118144WA0088300942002004003000
B1647143340156N08118157WA0088100938002002003000
B1647153340166N08118173WA0087900935002006003000
F16471514130709082817300127
B1647163340174N08118189WA0087700933002011003000
B1647173340179N08118207WA0087900933002018003000
F1647171413070908282117300127
B1647183340182N08118226WA0088200934002020003000
F16471814130709082817300127
B1647193340182N08118243WA0088400935002020003000
F1647191413070908282117300127
B1647203340182N08118261WA0088400938002018003000
B1647213340182N08118278WA0088600939002013003000
B1647223340182N08118295WA0088900942002011003000
B1647233340181N08118312WA0089000944002011003000
B1647243340181N08118328WA0089200946002015003000
B1647253340179N08118343WA0089400948002022003000
B1647263340178N08118358WA0089700951002024003000
B1647273340177N08118373WA0089800953002027003000
B1647283340174N08118387WA0089900955002027003000
B1647293340170N08118400WA0090100958002027003000
B1647303340164N08118412WA0090300959002027003000
B1647313340157N08118422WA0090300960002024003000
B1647323340147N08118430WA0090400961002018003000
B1647333340136N08118437WA0090400961002015003000
B1647343340124N08118440WA0090300961002015003000
B1647353340110N08118441WA0090400961002020003000
B1647363340096N08118438WA0090600962002027003000
B1647373340082N08118433WA0090700964002029003000
F16473714070908282117300127
B1647383340068N08118425WA0090800965003027004000
B1647393340055N08118414WA0091000966002022003000
B1647403340043N08118401WA0091100968002020003000
B1647413340033N08118385WA0091200970003013003000
F1647411413070908282117300127
B1647423340025N08118369WA0091300971003018003000
B1647433340019N08118350WA0091500972003020004000
B1647443340014N08118331WA0091400972003020003000
B1647453340013N08118311WA0091300972003027003000
B1647463340015N08118292WA0091200971003022003000
B1647473340021N08118273WA0091400971003024003000
B1647483340029N08118255WA0091600972003027003000
B1647493340040N08118240WA0091600972002027003000
F16474914130708282117300127
B1647503340053N08118226WA0091600973002031003000
B1647513340068N08118216WA0091600973002027003000
B1647523340085N08118208WA0091700973002024003000
B1647533340102N08118203WA0091700972002020003000
F1647531413070908282117300127
B1647543340119N08118202WA0091700972002020003000
B1647553340136N08118204WA0091900972002020003000
B1647563340151N08118209WA0091800973002020003000
B1647573340166N08118216WA0091900973002020003000
B1647583340178N08118226WA0091600973002015003000
B1647593340189N08118237WA0091800972002015003000
B1648003340198N08118250WA0091800972002015003000
B1648013340205N08118264WA0092000974002018003000
B1648023340210N08118279WA0092100975002022003000
B1648033340213N08118294WA0092200977002027003000
B1648043340213N08118309WA0092400978002029003000
B1648053340212N08118323WA0092500980002031003000
B1648063340208N08118337WA0092700982002029003000
B1648073340202N08118349WA0092700983002024003000
B1648083340195N08118360WA0092900984002024003000
B1648093340187N08118370WA0093000985002027003000
B1648103340177N08118379WA0093300987002024003000
B1648113340166N08118386WA0093400989002029003000
B1648123340155N08118392WA0093600991002029003000
B1648133340143N08118398WA0093700993002020003000
B1648143340131N08118403WA0093800994002020003000
B1648153340118N08118409WA0093800995002013003000
B1648163340106N08118414WA0093900996002011003000
B1648173340093N08118419WA0094000997002015003000
B1648183340080N08118424WA0094100998002020003000
B1648193340068N08118428WA0093900998002022003000
B1648203340055N08118433WA0094000997002022003000
B1648213340041N08118438WA0093900997002027003000
B1648223340028N08118443WA0093900997002020003000
B1648233340014N08118448WA0094000998002024003000
B1648243340001N08118453WA0093900999002029003000
B1648253339987N08118458WA0093900999002020003000
B1648263339973N08118462WA0093700999002024003000
B1648273339959N08118468WA0093600998002020003000
B1648283339946N08118473WA0093500997002015003000
F16482814070908282117300127
B1648293339932N08118479WA0093400997002018003000
B1648303339917N08118484WA0093500997002015003000
F1648301413070908282117300127
B1648313339903N08118489WA0093700998002013003000
B1648323339889N08118493WA0093400998002009003000
B1648333339874N08118497WA0093300998002013003000
B1648343339859N08118501WA0093000997002009003000
B1648353339845N08118505WA0092700994002006003000
B1648363339830N08118510WA0092200990002013003000
B1648373339816N08118515WA0091800986002011003000
B1648383339801N08118521WA0091600984002015003000
B1648393339787N08118527WA0091500982002013003000
F16483914070908282117300127
B1648403339772N08118535WA0091300980002006003000
B1648413339758N08118542WA0091200979002004003000
B1648423339745N08118550WA0091000978002004003000
B1648433339731N08118557WA0090900977002013003000
B1648443339717N08118565WA0090800975002015003000
B1648453339704N08118572WA0090800974002011003000
B1648463339690N08118580WA0090400972002011003000
B1648473339677N08118589WA0090400971002009003000
B1648483339663N08118598WA0090300970002011003000
B1648493339649N08118608WA0090100968002018003000
F1648491413070908282117300127
B1648503339635N08118618WA0090000966002015003000
B1648513339621N08118629WA0089800965002015003000
B1648523339607N08118642WA0089900965002018003000
F16485214130709082821173001
B1648533339593N08118655WA0090100966002020003000
B1648543339580N08118668WA0090400967002022003000
B1648553339566N08118682WA0090800969002027003000
B1648563339553N08118695WA0090900972002027003000
B1648573339539N08118708WA0091200976002024003000
F1648571413070908282117302701
B1648583339526N08118720WA0091700980002027003000
B1648593339512N08118731WA0092200984002027003000
B1649003339499N08118741WA0092500989002024003000
B1649013339485N08118749WA0092800993002022003000
B1649023339470N08118754WA0093000997002024003000
B1649033339456N08118757WA0093301000002027003000
B1649043339441N08118757WA0093401002002031003000
B1649053339426N08118754WA0093401003002036003000
F16490514070908282117302701
B1649063339413N08118749WA0093401003002034003000
B1649073339399N08118742WA0093501003002031003000
B1649083339386N08118733WA0093501003002029003000
B1649093339373N08118722WA0093601003002029003000
F1649091413070908282117302701
B1649103339362N08118709WA0093601004002029003000
B1649113339352N08118695WA0093601005002027003000
B1649123339343N08118680WA0093701006002029003000
B1649133339336N08118664WA0093501005002031003000
B1649143339330N08118645WA0093501003004031003000
B1649153339328N08118627WA0093401003003029003000
B1649163339330N08118609WA0093501001004024004000
B1649173339335N08118592WA0093401000003020003000
F16491714130709082821302701
B1649183339343N08118578WA0093400999003018003000
B1649193339354N08118567WA0093400998003018003000
B1649203339367N08118559WA0093500997003015003000
F1649201413070908282117302701
B1649213339382N08118556WA0093400997003013003000
B1649223339397N08118558WA0093400996004013004000
B1649233339412N08118564WA0093100994003011003000
B1649243339425N08118573WA0093000993002011003000
B1649253339437N08118586WA0092900991002013003000
B1649263339445N08118602WA0093100990002018003000
B1649273339451N08118619WA0093400991002022003000
F16492714130709082817302701
B1649283339453N08118636WA0093700992002027003000
B1649293339452N08118654WA0094000995002029003000
B1649303339449N08118670WA0094500997002029003000
B1649313339441N08118684WA0094901000002029003000
B1649323339431N08118695WA0094801003002029003000
F1649321413070908282117302701
B1649333339418N08118702WA0094801003003027004000
B1649343339404N08118706WA0094801001003024004000
B1649353339389N08118705WA0094701000003020004000
B1649363339374N08118698WA0094600999003020004000
B1649373339361N08118688WA0094400999003015005000
B1649383339350N08118674WA0094400999003013003000
B1649393339344N08118655WA0094200998004013004000
B1649403339341N08118635WA0094200997003011004000
B1649413339342N08118615WA0094200996003015004000
B1649423339347N08118596WA0094100996003009004000
F16494214130709082821302701
B1649433339355N08118580WA0094200997003009004000
B1649443339366N08118566WA0094200998003002003000
F1649441413070908282117302701
B1649453339379N08118556WA0094200998003002004000
B1649463339394N08118550WA0094200997003009004000
B1649473339408N08118548WA0093800994003006003000
B1649483339424N08118548WA0093400992003013003000
B1649493339439N08118553WA0093000990002011003000
B1649503339454N08118561WA0092400984003004004000
B1649513339469N08118573WA0092200981003000004000
B1649523339483N08118587WA0092100978002000003000
B1649533339496N08118602WA0092100976002004004000
B1649543339510N08118617WA0092200975002011003000
B1649553339524N08118633WA0092700978002022003000
B1649563339537N08118649WA0093100981002024003000
B1649573339549N08118666WA0093700988002022003000
B1649583339560N08118683WA0094300995002024003000
B1649593339569N08118700WA0094901001002022003000
B1650003339577N08118718WA0095301007002020003000
B1650013339585N08118735WA0095601012002020004000
B1650023339593N08118752WA0095801017002013004000
B1650033339600N08118769WA0095901019002011004000
B1650043339608N08118786WA0096201021002006004000
B1650053339616N08118804WA0096201021002009004000
B1650063339622N08118822WA0096601025002009004000
B1650073339627N08118839WA0096801028002006004000
B1650083339629N08118857WA0097001030002011004000
B1650093339629N08118874WA0097101031002004003000
B1650103339626N08118890WA0097301032002009003000
B1650113339621N08118905WA0097301033002013003000
B1650123339613N08118918WA0097601034002015004000
B1650133339602N08118928WA0097601035003022004000
B1650143339590N08118934WA0097801036003022004000
B1650153339577N08118936WA0098101038003022004000
B1650163339564N08118935WA0098201039003024004000
B1650173339551N08118930WA0098401041003022004000
F16501714070908282117302701
B1650183339539N08118921WA0098501042003024005000
B1650193339529N08118910WA0098501044003027004000
B1650203339521N08118896WA0098501043003022003000
B1650213339515N08118880WA0098601042004024004000
B1650223339511N08118862WA0098501042004022003000
B1650233339509N08118844WA0098501042004020003000
B1650243339509N08118824WA0098601042003020003000
B1650253339511N08118806WA0098501041003013003000
F1650251413070908282117302701
B1650263339513N08118787WA0098201040003013003000
B1650273339517N08118768WA0098201039003011003000
B1650283339521N08118748WA0098301039003011003000
B1650293339524N08118729WA0098401040003011003000
B1650303339528N08118709WA0098501041003009003000
B1650313339531N08118688WA0098801043003009003000
B1650323339534N08118668WA0099001046002009003000
B1650333339538N08118648WA0099301049002013003000
B1650343339541N08118628WA0099801053002015003000
B1650353339544N08118609WA0100101057002018003000
B1650363339547N08118590WA0100501061002015003000
B1650373339550N08118572WA0100701064002018003000
B1650383339554N08118554WA0100701066002015003000
B1650393339561N08118537WA0100901068002013003000
B1650403339572N08118523WA0100901070002015003000
B1650413339586N08118513WA0100901070003013004000
B1650423339604N08118510WA0101001071004011004000
B1650433339622N08118512WA0101101072004015004000
B1650443339639N08118520WA0101401073004011005000
F16504414070908282117302701
B1650453339652N08118533WA0102001075005015005000
B1650463339660N08118550WA0102401075005013006000
F1650461413070908282117302701
B1650473339663N08118568WA0102901078004011004000
F165047141307090828302701
B1650483339659N08118584WA0103101079004015005000
F1650481413070828302701
B1650493339651N08118597WA0103301082004015005000
F165049141307082821302701
B1650503339639N08118606WA0103701085007024007000
B1650513339625N08118610WA0104001090005020005000
F16505114130708282117302701
B1650523339608N08118606WA0104201096006015006000
F165052141307082821302701
B1650533339593N08118595WA0104501099006011006000
F16505314130708282117302701
B1650543339581N08118580WA0105001102006009006000
B1650553339575N08118563WA0105301105006015006000
B1650563339570N08118548WA0105601108007022006000
B1650573339580N08118528WA0105901111008024006000
F165057141307082821173001
B1650583339589N08118518WA0105901111008027006000
B1650593339603N08118510WA0106101110007029006000
B1651003339619N08118508WA0106301111006029006000
F16510014130708282117302701
B1651013339640N08118511WA0106501114007027007000
F1651011413070908282117302701
B1651023339656N08118519WA0107101117005024005000
B1651033339667N08118533WA0107401120005015005000
B1651043339674N08118548WA0107701122004018005000
B1651053339675N08118564WA0107801124004015005000
B1651063339670N08118581WA0108301126004015005000
B1651073339661N08118595WA0108701128004020005000
B1651083339648N08118606WA0108901134004018005000
B1651093339634N08118610WA0109101136005018006000
B1651103339619N08118610WA0109401139004020005000
B1651113339602N08118605WA0109601146006022007000
B1651123339587N08118595WA0109801148005015005000
B1651133339578N08118578WA0110101150006018005000
B1651143339574N08118557WA0110401153007011007000
B1651153339572N08118537WA0110601157006009006000
B1651163339575N08118517WA0111001160005015006000
B1651173339581N08118498WA0111201160005018005000
B1651183339591N08118482WA0111201162005024005000
B1651193339605N08118471WA0111301163005024005000
B1651203339621N08118465WA0111501164004027005000
B1651213339640N08118464WA0111501165004024005000
B1651223339657N08118467WA0111601166004018004000
B1651233339673N08118475WA0111801167003013004000
B1651243339687N08118487WA0112101170003006004000
B1651253339698N08118502WA0112601173003009004000
B1651263339703N08118519WA0112901174003015004000
B1651273339706N08118535WA0113201176003020004000
B1651283339705N08118552WA0113601179003024004000
B1651293339700N08118567WA0114201181004022004000
B1651303339691N08118580WA0114301184004020004000
B1651313339679N08118591WA0114801189004015005000
B1651323339665N08118597WA0115001191005015005000
B1651333339650N08118599WA0115301195004015005000
B1651343339635N08118595WA0115401197004020005000
B1651353339621N08118588WA0115701199004024005000
B1651363339608N08118577WA0115501203004018004000
B1651373339598N08118563WA0115501205004015004000
B1651383339591N08118545WA0115401207003013004000
B1651393339587N08118526WA0115501207003006004000
B1651403339587N08118506WA0115501209003011004000
B1651413339591N08118486WA0115701209003009004000
F16514114130709082821302701
B1651423339599N08118468WA0115701210003002004000
B1651433339610N08118453WA0115901210003009004000
F1651431413070908282117302701
B1651443339624N08118441WA0116101212003004004000
B1651453339640N08118435WA0116201213003004004000
B1651463339658N08118433WA0116501214003002004000
B1651473339676N08118435WA0116701217003002004000
B1651483339693N08118442WA0116701219003006004000
B1651493339707N08118453WA0117101220003011004000
B1651503339719N08118468WA0117201222003020004000
B1651513339728N08118484WA0117501224003020004000
B1651523339733N08118501WA0117901226003018004000
B1651533339734N08118519WA0118401229003018004000
B1651543339732N08118536WA0118601231003020004000
B1651553339727N08118552WA0118901235003015004000
B1651563339717N08118565WA0118901237003018004000
B1651573339706N08118576WA0119201239003018004000
B1651583339693N08118583WA0119301239003018004000
B1651593339678N08118587WA0119301241003024004000
B1652003339662N08118586WA0119701243003027004000
B1652013339647N08118579WA0119801245003029004000
B1652023339634N08118569WA0119901246003029004000
B1652033339622N08118556WA0120201248003027004000
B1652043339613N08118540WA0120001250003024004000
B1652053339607N08118522WA0120101251003022004000
B1652063339603N08118503WA0120201253003018004000
F16520614130709082117302701
B1652073339604N08118483WA0120201255003013004000
F1652071413070908282117302701
B1652083339608N08118463WA0120201255003009004000
B1652093339615N08118445WA0120201255003006004000
B1652103339625N08118427WA0120401256003006004000
B1652113339637N08118413WA0120601258003013004000
B1652123339652N08118401WA0120701260002020004000
B1652133339668N08118393WA0120801262002022004000
B1652143339685N08118388WA0121001263002024004000
B1652153339702N08118385WA0121201264002024003000
B1652163339719N08118386WA0121401266002024003000
B1652173339736N08118389WA0121401267002027003000
B1652183339752N08118394WA0121501268002024003000
B1652193339769N08118398WA0121601269002024003000
B1652203339786N08118403WA0121801271002027003000
B1652213339802N08118407WA0122401274002027003000
B1652223339819N08118412WA0122601278002029003000
B1652233339836N08118416WA0122801282002031003000
B1652243339852N08118420WA0123101285002029003000
B1652253339869N08118424WA0123101287002024003000
B1652263339885N08118429WA0123101288002022003000
B1652273339900N08118434WA0123201288002018003000
B1652283339915N08118442WA0123001288002015003000
B1652293339927N08118453WA0123001288002020003000
B1652303339937N08118467WA0122901287002022003000
B1652313339945N08118483WA0122701286002022003000
B1652323339950N08118501WA0122601284002015003000
F16523214130709082817302701
B1652333339951N08118520WA0122601284002009003000
B1652343339950N08118539WA0122701283002004003000
B1652353339946N08118557WA0122701283002002003000
B1652363339939N08118574WA0122901283002009003000
F1652361413070908282117302701
B1652373339930N08118590WA0123301285003013003000
B1652383339920N08118605WA0123401287003011003000
B1652393339909N08118618WA0123401288003009003000
B1652403339896N08118630WA0123401289003009003000
B1652413339883N08118640WA0123501289003004003000
B1652423339869N08118650WA0123201289002009003000
B1652433339855N08118659WA0123101288002018003000
B1652443339841N08118667WA0123101287002018003000
B1652453339827N08118676WA0123001287002022003000
B1652463339812N08118684WA0122901286002024003000
B1652473339798N08118692WA0122501285002020003000
B1652483339784N08118701WA0122101282002022003000
B1652493339769N08118709WA0121701279002022003000
B1652503339755N08118717WA0121401275002020003000
B1652513339741N08118726WA0120801271002020003000
B1652523339726N08118734WA0120401267002018003000
B1652533339712N08118743WA0120201263002018003000
B1652543339697N08118752WA0119601259002015003000
B1652553339683N08118761WA0119301256002015003000
B1652563339668N08118769WA0118901252002013003000
B1652573339653N08118778WA0118501249002015003000
B1652583339638N08118786WA0118301246002022003000
B1652593339623N08118793WA0118201244002022003000
B1653003339608N08118801WA0117901241002024003000
B1653013339593N08118808WA0117701240002018003000
B1653023339578N08118815WA0117701238002013003000
B1653033339563N08118822WA0117201235002013003000
B1653043339548N08118830WA0116901233002013003000
B1653053339532N08118837WA0116501230002018003000
B1653063339517N08118845WA0116601228002015003000
F16530614070908282117302701
B1653073339502N08118853WA0116301226002011003000
B1653083339487N08118861WA0116101224002006003000
B1653093339472N08118868WA0115701222002006003000
F1653091413070908282117302701
B1653103339457N08118876WA0115301220002009003000
B1653113339442N08118884WA0115001217002009003000
B1653123339427N08118891WA0114701214002009003000
B1653133339412N08118899WA0114301210002013003000
B1653143339397N08118907WA0113901207002015003000
B1653153339382N08118914WA0113701204002018003000
B1653163339367N08118922WA0113501201002022003000
B1653173339352N08118929WA0113201199002020003000
B1653183339337N08118937WA0113101197002020003000
B1653193339323N08118946WA0112801196002018003000
B1653203339308N08118954WA0112601194002018003000
B1653213339294N08118962WA0112501192002015003000
B1653223339280N08118971WA0112301190002009003000
B1653233339266N08118979WA0112101189002013003000
B1653243339251N08118986WA0111701187002013003000
B1653253339236N08118994WA0111601184002018003000
B1653263339221N08119001WA0111301182002022003000
B1653273339206N08119009WA0111001179002027003000
B1653283339191N08119017WA0110701176002027003000
B1653293339175N08119024WA0110401174002022003000
B1653303339160N08119032WA0110201171002022003000
F16533014070908282117302701
B1653313339145N08119039WA0110001169002018003000
B1653323339130N08119047WA0109701166002020003000
B1653333339115N08119055WA0109601164002022003000
B1653343339101N08119063WA0109401163002022003000
F1653341413070908282117302701
B1653353339087N08119071WA0109201162002022003000
B1653363339073N08119079WA0109201160002015003000
B1653373339059N08119087WA0108901159002011003000
B1653383339045N08119095WA0108701157002011003000
B1653393339032N08119103WA0108701155002011003000
B1653403339018N08119111WA0108401153002018003000
B1653413339004N08119119WA0108001151002015003000
B1653423338990N08119127WA0107701148002011003000
B1653433338976N08119135WA0107701146002011003000
B1653443338962N08119144WA0107501144002009003000
B1653453338949N08119153WA0107301143002013003000
B1653463338935N08119162WA0107101141002022003000
B1653473338922N08119171WA0106901139002018003000
B1653483338909N08119180WA0106601137002022003000
B1653493338896N08119189WA0106301135002018003000
B1653503338883N08119199WA0106101132002013003000
B1653513338870N08119208WA0105901130002022003000
B1653523338857N08119217WA0105701127002018003000
F16535214130709082821173001
B1653533338844N08119226WA0105501125002022003000
B1653543338831N08119235WA0105101122002022003000
B1653553338818N08119244WA0104801119002018003000
B1653563338804N08119253WA0104601117002018003000
B1653573338791N08119262WA0104301114002022003000
B1653583338778N08119270WA0103901111002027003000
F1653581413070908282117302701
B1653593338765N08119278WA0103701108002027003000
B1654003338751N08119286WA0103301105002024003000
B1654013338737N08119294WA0103201102002022003000
B1654023338724N08119303WA0103201100002015003000
B1654033338710N08119312WA0103301100002015003000
B1654043338697N08119321WA0103401102002015003000
B1654053338683N08119330WA0103701104002013003000
B1654063338670N08119339WA0103801106002020003000
B1654073338657N08119349WA0104101108002022003000
B1654083338645N08119359WA0104201110002022003000
B1654093338633N08119368WA0104301111002018003000
B1654103338621N08119378WA0104301113002015003000
B1654113338610N08119388WA0104501113002013003000
B1654123338600N08119397WA0104501114002015003000
B1654133338590N08119408WA0104201114002020003000
B1654143338580N08119418WA0104101112002018003000
B1654153338570N08119428WA0103701110002018003000
B1654163338559N08119438WA0103401107002018003000
B1654173338549N08119449WA0103101103002018003000
B1654183338538N08119459WA0102801099002015003000
B1654193338527N08119469WA0102501096002011003000
B1654203338516N08119480WA0102201093002004003000
B1654213338505N08119492WA0102101090002000003000
B1654223338494N08119504WA0102001088002002003000
B1654233338483N08119516WA0102001087002002003000
B1654243338472N08119528WA0101901086002009003000
B1654253338461N08119540WA0101901085002009003000
B1654263338450N08119552WA0101901085002011003000
B1654273338438N08119564WA0101701084002011003000
B1654283338426N08119575WA0101401083002011003000
B1654293338415N08119586WA0101101080002020003000
B1654303338403N08119597WA0100801078002015003000
B1654313338391N08119608WA0100801075002020003000
B1654323338378N08119619WA0100701073002022003000
B1654333338366N08119630WA0100701072002009003000
B1654343338353N08119641WA0100601072002013003000
B1654353338341N08119652WA0100501071002015003000
B1654363338329N08119663WA0100501069002013003000
B1654373338316N08119674WA0100201068002022003000
B1654383338304N08119684WA0100401068002020003000
B1654393338291N08119694WA0100601069002020003000
B1654403338278N08119704WA0100701071002022003000
B1654413338266N08119713WA0100801073002018003000
B1654423338253N08119723WA0101001074002013003000
B1654433338240N08119733WA0100801074002015003000
B1654443338228N08119743WA0100501073002013003000
B1654453338215N08119753WA0100501071002020003000
B1654463338204N08119764WA0100101070002024003000
B1654473338192N08119774WA0099901068002024003000
B1654483338181N08119785WA0099801066002024003000
B1654493338169N08119795WA0099501064002022003000
B1654503338159N08119805WA0099401062002022003000
B1654513338148N08119815WA0098901060002018003000
B1654523338137N08119825WA0098501056002015003000
B1654533338126N08119834WA0098101052002013003000
B1654543338116N08119844WA0097601047002006003000
B1654553338105N08119853WA0097201042002006003000
B1654563338094N08119863WA0096701038002002003000
B1654573338083N08119873WA0096201033002000003000
B1654583338071N08119883WA0095701028002006003000
B1654593338060N08119893WA0095301023002004003000
B1655003338049N08119903WA0094901018002011003000
B1655013338038N08119913WA0094501015002015003000
B1655023338027N08119924WA0094301012002015003000
B1655033338016N08119934WA0093901009002018003000
B1655043338005N08119944WA0093701006002018003000
B1655053337994N08119955WA0093401003002013003000
B1655063337983N08119965WA0093101000002006003000
B1655073337973N08119975WA0092900997002004003000
B1655083337962N08119985WA0092800995002000003000
B1655093337952N08119996WA0092500994002000003000
B1655103337942N08120007WA0092600992002004003000
B1655113337932N08120018WA0092300991002000003000
B1655123337921N08120029WA0092000988002000003000
B1655133337911N08120040WA0091600986002000003000
B1655143337900N08120051WA0091400983002000003000
B1655153337890N08120062WA0091100980002006003000
B1655163337879N08120074WA0090900978002011003000
B1655173337869N08120086WA0090700975002006003000
B1655183337858N08120098WA0090300973002011003000
B1655193337848N08120111WA0090100969002011003000
B1655203337838N08120123WA0090100967002011003000
B1655213337827N08120136WA0089900965002013003000
B1655223337816N08120149WA0089800964002013003000
B1655233337806N08120162WA0089700963002009003000
B1655243337795N08120174WA0089800963002013003000
B1655253337785N08120187WA0089800963002018003000
B1655263337774N08120199WA0089700963002015003000
B1655273337764N08120211WA0089700963002022003000
B1655283337754N08120223WA0089900963002022003000
B1655293337745N08120235WA0089800963002024003000
B1655303337735N08120246WA0089700963002024003000
B1655313337726N08120258WA0089700963002020003000
B1655323337717N08120270WA0089600962002013003000
B1655333337708N08120281WA0089600962002004003000
B1655343337699N08120293WA0089400961002000003000
B1655353337689N08120304WA0089100960002000003000
B1655363337679N08120315WA0089100958002004003000
B1655373337668N08120325WA0088900956002004003000
B1655383337657N08120334WA0088500954002006003000
B1655393337645N08120343WA0088300952002006003000
B1655403337633N08120351WA0088000950002004003000
B1655413337620N08120358WA0087800947002011003000
B1655423337606N08120363WA0087700944002015003000
B1655433337591N08120368WA0087500943002013003000
B1655443337576N08120372WA0087400941002015003000
B1655453337561N08120375WA0087200939002013003000
B1655463337546N08120377WA0086800937002009003000
B1655473337531N08120378WA0086700934002011003000
B1655483337516N08120380WA0086400932002011003000
B1655493337501N08120381WA0086100930002013003000
B1655503337486N08120381WA0085900927002011003000
B1655513337471N08120383WA0085900925002015003000
B1655523337456N08120384WA0085900924002018003000
B1655533337441N08120386WA0085700924002020003000
B1655543337425N08120388WA0085700923002027003000
B1655553337410N08120390WA0085700923002022003000
B1655563337394N08120392WA0085900924002015003000
B1655573337377N08120393WA0086000925002011003000
B1655583337361N08120395WA0086200927002013003000
B1655593337345N08120397WA0086800929002015003000
B1656003337329N08120399WA0086900932002022003000
B1656013337313N08120402WA0087300936002024003000
B1656023337297N08120405WA0087700939002020003000
B1656033337282N08120408WA0087900943002018003000
B1656043337267N08120412WA0088100946002015003000
B1656053337253N08120416WA0088400949002020003000
B1656063337238N08120419WA0088600952002024003000
F16560614070908282117302701
B1656073337224N08120423WA0088900955002024003000
B1656083337210N08120427WA0089100957002020003000
B1656093337196N08120432WA0089500960002015003000
B1656103337183N08120436WA0089600962002013003000
F1656101413070908282117302701
B1656113337169N08120439WA0090000965002013003000
B1656123337155N08120441WA0090000967002018003000
B1656133337141N08120441WA0090200969002022003000
B1656143337127N08120437WA0090400971002024003000
B1656153337114N08120430WA0090500972002020003000
B1656163337102N08120419WA0090600974002020003000
B1656173337093N08120406WA0090600975002015003000
B1656183337085N08120390WA0090600975003018003000
B1656193337080N08120372WA0090700975003022004000
B1656203337079N08120354WA0090600975002022003000
B1656213337081N08120334WA0090500973004018004000
B1656223337087N08120316WA0090500971004009004000
B1656233337096N08120299WA0090600971002009003000
B1656243337107N08120284WA0090800972002009003000
F16562414130708282117302701
B1656253337121N08120272WA0091000972002013003000
B1656263337135N08120263WA0091000973003018003000
B1656273337151N08120258WA0091100974003018004000
F1656271413070908282117302701
B1656283337168N08120255WA0091000974002015003000
B1656293337185N08120255WA0091000973003018004000
B1656303337202N08120259WA0091100973003015004000
B1656313337219N08120266WA0091100972002015003000
B1656323337234N08120276WA0091000972002011003000
B1656333337247N08120289WA0091100972002002003000
B1656343337259N08120304WA0091300972002006003000
B1656353337269N08120321WA0091400972002009003000
B1656363337279N08120339WA0091600974002015003000
B1656373337289N08120356WA0091800976002018003000
B1656383337299N08120374WA0092200979002015003000
B1656393337308N08120392WA0092700982002015003000
B1656403337318N08120409WA0093100986002013003000
B1656413337326N08120427WA0093300990002018003000
B1656423337333N08120446WA0093700994002018003000
B1656433337337N08120466WA0093800997002020003000
B1656443337338N08120485WA0094201000002022003000
B1656453337335N08120504WA0094301002002022003000
F16564514130709082821173001
B1656463337330N08120522WA0094601005002022003000
B1656473337321N08120537WA0094901007003018003000
B1656483337311N08120550WA0095201009003015004000
B1656493337298N08120561WA0095601013003015004000
F1656491413070908282117302701
B1656503337284N08120567WA0095901016004013004000
B1656513337269N08120570WA0096201018004013004000
B1656523337253N08120568WA0096501020004011004000
B1656533337238N08120562WA0096801023004006004000
B1656543337224N08120553WA0096901025003009004000
B1656553337211N08120541WA0097001028003009003000
B1656563337201N08120526WA0097301030003009003000
B1656573337193N08120508WA0097601033003013003000
B1656583337187N08120489WA0097801036003009003000
B1656593337185N08120468WA0098201039002013003000
B1657003337184N08120447WA0098401041002018003000
B1657013337187N08120427WA0098701044003020003000
B1657023337193N08120407WA0099001047002022003000
B1657033337202N08120389WA0099201050002020003000
B1657043337213N08120373WA0099401052002020003000
B1657053337227N08120360WA0099601054002013003000
B1657063337242N08120350WA0099901056002015003000
B1657073337259N08120344WA0100201058002015003000
B1657083337276N08120341WA0100601061002013003000
B1657093337293N08120343WA0100801064002015003000
B1657103337310N08120348WA0101001066002018003000
B1657113337326N08120357WA0101301068002013003000
B1657123337341N08120368WA0101601070002011003000
B1657133337353N08120382WA0101901073002013003000
B1657143337362N08120399WA0102301076002006003000
B1657153337369N08120418WA0102801080002006003000
B1657163337373N08120438WA0103001084002009003000
B1657173337375N08120457WA0103301088002009003000
B1657183337375N08120477WA0103701091002015003000
F16571814130709082821173001
B1657193337371N08120495WA0103901095002018003000
F165719141307090828173001
B1657203337365N08120513WA0104301098003020003000
B1657213337356N08120528WA0104801101003020004000
B1657223337344N08120540WA0105201105003011004000
F16572214130709082821173001
B1657233337330N08120548WA0105801110003013004000
F1657231413070908282117302701
B1657243337316N08120553WA0106001114003013004000
B1657253337301N08120553WA0106501118003013004000
B1657263337286N08120551WA0106701120003018004000
B1657273337271N08120545WA0107001122003015004000
B1657283337258N08120536WA0107101124003011004000
B1657293337246N08120523WA0107201127003015003000
B1657303337236N08120508WA0107401129003018003000
B1657313337229N08120490WA0107601131003020003000
B1657323337225N08120470WA0108001134003020003000
B1657333337224N08120450WA0108301137003015003000
B1657343337226N08120429WA0108601141003015003000
B1657353337230N08120410WA0108801144003015003000
B1657363337237N08120392WA0109001146003020003000
B1657373337247N08120376WA0109201148002020003000
F16573714130708282117302701
B1657383337260N08120362WA0109401150002018003000
B1657393337274N08120352WA0109601151003015004000
B1657403337289N08120345WA0109701152002018003000
B1657413337306N08120343WA0109901153002013003000
B1657423337323N08120344WA0110101154002020003000
F1657421413070908282117302701
B1657433337339N08120349WA0110201155002020003000
B1657443337355N08120358WA0110401157002018003000
B1657453337368N08120370WA0110601158002018003000
B1657463337379N08120385WA0111001160002009003000
B1657473337388N08120401WA0111201163002013003000
B1657483337395N08120419WA0111501167002018003000
B1657493337398N08120438WA0111701170002022003000
B1657503337400N08120457WA0112001173002022003000
B1657513337398N08120475WA0112201175002018003000
B1657523337394N08120493WA0112401177002011003000
B1657533337388N08120510WA0112601180003013003000
F16575314130709082821173001
B1657543337378N08120524WA0113001183003018003000
B1657553337366N08120536WA0113401187003013003000
B1657563337352N08120545WA0113801190003018003000
B1657573337337N08120551WA0114201193003020003000
F1657571413070908282117302701
B1657583337322N08120554WA0114601197003022003000
B1657593337306N08120555WA0114601200003027003000
B1658003337290N08120552WA0114901202003029004000
B1658013337275N08120546WA0115101205003027004000
B1658023337261N08120537WA0115401207003024004000
B1658033337248N08120525WA0115601209002027003000
B1658043337237N08120511WA0116001212003018003000
B1658053337227N08120495WA0116101216003015003000
B1658063337221N08120477WA0116501218003013003000
B1658073337217N08120458WA0116801222003004003000
B1658083337215N08120439WA0117101224003006003000
B1658093337216N08120420WA0117201226003009003000
B1658103337220N08120401WA0117301228003013003000
B1658113337226N08120383WA0117401229003020003000
B1658123337235N08120366WA0117601230003022003000
B1658133337246N08120351WA0117601231003015003000
F16581314130708282117302701
B1658143337258N08120338WA0117701232002013003000
B1658153337273N08120327WA0117701232002013003000
B1658163337289N08120320WA0117901232002015003000
B1658173337306N08120317WA0117801233002018004000
F1658171413070908282117302701
B1658183337324N08120317WA0118101233002015003000
B1658193337341N08120320WA0118401235002015003000
B1658203337357N08120327WA0118601237002013003000
B1658213337373N08120336WA0118801239002011003000
B1658223337386N08120348WA0119101242002013003000
B1658233337397N08120363WA0119201244002009003000
B1658243337406N08120379WA0119601247002009004000
B1658253337413N08120397WA0119801249002013003000
B1658263337417N08120416WA0119901251002015003000
B1658273337417N08120434WA0120201254002020003000
B1658283337415N08120453WA0120401256002022003000
B1658293337410N08120470WA0120401258002018003000
F16582914130709082817302701
B1658303337401N08120486WA0120601260003020003000
F1658301413070908282117302701
B1658313337390N08120500WA0120801262003018004000
F16583114130709082817302701
B1658323337377N08120510WA0121001263003018004000
F16583214130709082821173001
B1658333337362N08120517WA0121301266003024004000
B1658343337346N08120521WA0121701268004024004000
F1658341413070908282117273001
B1658353337329N08120522WA0122101272003029004000
B1658363337313N08120518WA0122501276003024004000
B1658373337297N08120510WA0122601279003020004000
B1658383337283N08120499WA0122901281003013004000
B1658393337271N08120485WA0123101283003006004000
B1658403337260N08120470WA0123101286003009003000
B1658413337254N08120451WA0123401289003011003000
B1658423337251N08120431WA0123301291003011003000
B1658433337250N08120411WA0123501293003018003000
B1658443337254N08120391WA0123701294003018003000
B1658453337260N08120372WA0123501294003018003000
B1658463337269N08120354WA0123501293003024003000
B1658473337281N08120338WA0123401293003027003000
B1658483337294N08120324WA0123501292003027003000
B1658493337309N08120313WA0123401292002022003000
B1658503337326N08120306WA0123201290002020003000
B1658513337344N08120301WA0123201289002015003000
B1658523337362N08120300WA0123001287002011003000
B1658533337380N08120302WA0122901284002009003000
B1658543337398N08120308WA0123301284002009003000
B1658553337416N08120318WA0123601285002013003000
B1658563337431N08120330WA0124001288002022003000
B1658573337444N08120345WA0124501293002029003000
F16585714130709082821172730
B1658583337455N08120361WA0125101297002027003000
B1658593337463N08120379WA0125401302002027003000
B1659003337468N08120398WA0125801307002022003000
F1659001413070908282117273001
B1659013337470N08120417WA0126201311002027003000
B1659023337469N08120436WA0126501315002029003000
B1659033337466N08120454WA0126701318002020003000
B1659043337459N08120472WA0126901321003022003000
F16590414130709082817273001
B1659053337450N08120487WA0127001324003015004000
B1659063337439N08120500WA0127501327003011004000
F165906141307090828173001
B1659073337426N08120510WA0127601328003011004000
F16590714130709082821173001
B1659083337411N08120516WA0127901330003013004000
B1659093337395N08120521WA0128201332003018004000
F1659091413070908282117273001
B1659103337380N08120520WA0128401334003015004000
B1659113337364N08120516WA0128901336003015004000
B1659123337348N08120508WA0129201340003009004000
B1659133337334N08120496WA0129401343003011004000
B1659143337322N08120483WA0129401346003020004000
B1659153337312N08120466WA0129401348003029003000
B1659163337304N08120448WA0129301349003027003000
B1659173337299N08120428WA0129401349003022003000
B1659183337297N08120408WA0129601349003020003000
B1659193337299N08120386WA0129501350003020003000
B1659203337303N08120366WA0129501351003027003000
B1659213337311N08120347WA0129601351003024003000
B1659223337322N08120330WA0129601351003024003000
B1659233337334N08120315WA0129301350003022004000
B1659243337349N08120303WA0129201349003022004000
B1659253337366N08120295WA0128901347002029003000
B1659263337384N08120291WA0128801344002027003000
B1659273337403N08120290WA0128401340002024003000
B1659283337422N08120292WA0128401338002022003000
B1659293337441N08120297WA0128801336002022003000
B1659303337459N08120306WA0128901335002022003000
B1659313337476N08120317WA0129001337002027003000
B1659323337493N08120329WA0129401340002031003000
B1659333337510N08120342WA0129801344002029003000
B1659343337526N08120354WA0130301348002033003000
B1659353337543N08120366WA0130801352002027003000
B1659363337559N08120378WA0131001356002020003000
B1659373337574N08120391WA0131001359002022003000
B1659383337588N08120405WA0131201361002020003000
F16593814130709082821172730
B1659393337600N08120421WA0131501364002022003000
B1659403337608N08120439WA0131601366002022003000
B1659413337613N08120459WA0131901369002018003000
B1659423337614N08120479WA0132201371002020003000
B1659433337610N08120498WA0132401374002024003000
F1659431413070908282117273001
B1659443337603N08120515WA0132701376002024003000
B1659453337592N08120530WA0133001379003027004000
B1659463337579N08120541WA0133501382003022004000
B1659473337564N08120549WA0133701384003018004000
B1659483337549N08120552WA0133701387003020004000
B1659493337533N08120550WA0133701388003018004000
B1659503337517N08120545WA0133701388003020004000
B1659513337502N08120535WA0133701388003015004000
B1659523337489N08120522WA0133901389003018004000
B1659533337478N08120506WA0134101390003018004000
B1659543337469N08120488WA0134401392003018004000
B1659553337463N08120468WA0134501394003022004000
B1659563337460N08120447WA0134701397003015004000
B1659573337460N08120425WA0135101399003020004000
B1659583337464N08120403WA0135401402003018004000
B1659593337471N08120383WA0135701406003020004000
B1700003337481N08120363WA0136101410003027004000
B1700013337493N08120347WA0136601414003022004000
B1700023337507N08120334WA0137001418003024004000
B1700033337523N08120324WA0137101421003022004000
B1700043337541N08120318WA0137401423003020004000
B1700053337559N08120317WA0137501425003020004000
B1700063337577N08120319WA0137701425003020004000
B1700073337594N08120325WA0137701425002020004000
B1700083337610N08120334WA0137801427002015004000
B1700093337624N08120347WA0138001428002018004000
B1700103337637N08120363WA0138001428002011003000
B1700113337646N08120380WA0137901429002013003000
B1700123337653N08120399WA0138101429002020003000
B1700133337656N08120419WA0138201431002020003000
B1700143337656N08120439WA0138301432002027003000
B1700153337652N08120458WA0138401433003022003000
B1700163337644N08120475WA0138501433003022004000
B1700173337633N08120489WA0138801434003022004000
B1700183337618N08120500WA0139001435003020004000
B1700193337602N08120505WA0139201436004027004000
B1700203337585N08120506WA0139701440004027004000
B1700213337569N08120502WA0139701443004024004000
B1700223337554N08120493WA0139801444003027004000
B1700233337541N08120480WA0139801445003024004000
B1700243337530N08120465WA0140001447003022004000
B1700253337523N08120446WA0140301449003024004000
B1700263337520N08120426WA0140601453003024004000
B1700273337520N08120404WA0141101457003024004000
B1700283337524N08120383WA0141401461003024004000
B1700293337531N08120364WA0141801464003022004000
B1700303337541N08120347WA0142201468003022004000
B1700313337554N08120334WA0142301472003022004000
F17003114130708282117273001
B1700323337569N08120323WA0142601474003020004000
B1700333337585N08120316WA0142601474003018004000
B1700343337602N08120314WA0142701474003015004000
F1700341413070908282117273001
B1700353337620N08120314WA0142701476003018004000
B1700363337637N08120320WA0142901477003015004000
B1700373337652N08120328WA0142801478002018004000
B1700383337666N08120340WA0142901478002018004000
B1700393337679N08120354WA0143001481002015004000
B1700403337690N08120369WA0143001482002022003000
F17004014130709082821172730
B1700413337699N08120386WA0143401484002024003000
B1700423337706N08120404WA0143501485002027003000
F1700421413070908282117273001
B1700433337710N08120423WA0143701487002024003000
B1700443337712N08120442WA0143801489002024003000
B1700453337712N08120460WA0144001491002024003000
B1700463337710N08120478WA0144401494002018003000
B1700473337705N08120496WA0144601497002015003000
B1700483337698N08120512WA0144501499003013003000
B1700493337688N08120527WA0144601500003009003000
B1700503337677N08120538WA0144701500003013003000
B1700513337665N08120548WA0144501499003015003000
B1700523337651N08120554WA0144501498003015003000
B1700533337635N08120558WA0144201497003015003000
B1700543337620N08120558WA0144001494003015003000
B1700553337604N08120556WA0143901492003018004000
B1700563337589N08120549WA0143901491003018004000
B1700573337575N08120538WA0144101492003020004000
B1700583337563N08120524WA0144201492003020004000
B1700593337553N08120509WA0144301494002013003000
B1701003337547N08120490WA0144301495003013003000
B1701013337544N08120470WA0144601497003013003000
B1701023337544N08120449WA0144801498003013003000
B1701033337546N08120427WA0144701500003018003000
B1701043337549N08120406WA0144901501003013003000
B1701053337553N08120385WA0145101502003015003000
B1701063337556N08120364WA0145701505003013003000
B1701073337560N08120342WA0146401509003013003000
B1701083337564N08120321WA0146801514002020003000
B1701093337568N08120300WA0146801519002020003000
B1701103337574N08120281WA0146801522002022003000
B1701113337583N08120263WA0146701523003022004000
B1701123337595N08120249WA0146501521003015004000
B1701133337609N08120239WA0146201519003009004000
F17011314130708282117273001
B1701143337626N08120234WA0146201517003013004000
B1701153337644N08120234WA0146301516003018004000
B1701163337662N08120240WA0146401516003027004000
F1701161413070908282117273001
B1701173337678N08120250WA0146601517003031004000
B1701183337692N08120264WA0146801518003022004000
B1701193337704N08120280WA0147101520002020004000
F17011914130709082821172730
B1701203337714N08120298WA0147501523003015004000
B1701213337722N08120317WA0147701527002015004000
B1701223337727N08120336WA0148001530002015003000
F1701221413070908282117273001
B1701233337730N08120355WA0148301533002015003000
B1701243337731N08120373WA0148501535002015003000
B1701253337729N08120391WA0148501537002011003000
B1701263337725N08120409WA0148701538002011003000
B1701273337718N08120425WA0148801540003009003000
B1701283337709N08120439WA0149101541003009003000
B1701293337698N08120451WA0149501544003009003000
B1701303337686N08120460WA0149801546003009003000
B1701313337673N08120467WA0149801548003009003000
B1701323337659N08120470WA0149801550003009004000
B1701333337645N08120470WA0149701550003011004000
B1701343337631N08120467WA0149701550003011004000
B1701353337617N08120460WA0149801551003009004000
B1701363337604N08120451WA0149901552003009004000
B1701373337593N08120438WA0150001553002011003000
B1701383337583N08120423WA0150301554002015003000
B1701393337575N08120407WA0150301556003020004000
B1701403337568N08120389WA0150401558002022003000
B1701413337562N08120370WA0150601560002020003000
B1701423337557N08120350WA0150901563002018003000
B1701433337551N08120331WA0151101566002011003000
B1701443337546N08120311WA0151301568002004003000
B1701453337540N08120292WA0151401570002002003000
B1701463337535N08120273WA0151501571002004003000
B1701473337531N08120253WA0151401572002004003000
B1701483337528N08120233WA0151301573002004004000
B1701493337529N08120213WA0151301573003013004000
B1701503337532N08120193WA0151301572003015004000
B1701513337539N08120174WA0151301572003022004000
B1701523337548N08120156WA0151301572003027004000
B1701533337560N08120141WA0151301571003022004000
B1701543337573N08120129WA0151101570003015004000
B1701553337588N08120120WA0151001568003009004000
B1701563337604N08120115WA0150601565002009004000
B1701573337622N08120112WA0150401562002004004000
B1701583337639N08120113WA0150401559002009004000
B1701593337657N08120117WA0150301557002009004000
B1702003337674N08120124WA0150201556002009004000
B1702013337689N08120133WA0150301555002013003000
B1702023337703N08120146WA0150401555002006003000
B1702033337715N08120161WA0150701556002009003000
B1702043337725N08120177WA0151001558002006003000
F17020414130709082821172730
B1702053337732N08120195WA0151201562002004003000
B1702063337738N08120213WA0151501565002011003000
B1702073337742N08120232WA0151601567002018003000
F1702071413070908282117273001
B1702083337745N08120251WA0151901568002020003000
B1702093337748N08120270WA0152101571002022003000
B1702103337750N08120289WA0152601575002022003000
B1702113337751N08120307WA0152901579002018003000
B1702123337752N08120325WA0153101581002018003000
B1702133337751N08120343WA0153201584002015003000
B1702143337747N08120360WA0153201585003015003000
B1702153337740N08120376WA0153301586003015003000
B1702163337732N08120390WA0153101586003015003000
B1702173337721N08120402WA0153401586003018003000
B1702183337710N08120411WA0153301585003018003000
B1702193337697N08120419WA0153301586003013003000
B1702203337683N08120424WA0153501587003015004000
F17022014130709082821173001
B1702213337669N08120426WA0153701587003015004000
B1702223337655N08120428WA0153401587003015004000
B1702233337641N08120427WA0153301586003022004000
B1702243337627N08120425WA0152901584003015004000
B1702253337612N08120423WA0152601581003015004000
B1702263337597N08120421WA0152501580002009003000
B1702273337581N08120420WA0152201578002000003000
B1702283337565N08120418WA0152101576002000003000
B1702293337550N08120416WA0151901575002000003000
B1702303337534N08120415WA0151801573002000003000
B1702313337517N08120414WA0151601571002006003000
B1702323337501N08120413WA0151301569002015003000
B1702333337484N08120413WA0151101567002011003000
B1702343337467N08120413WA0151001565002011003000
B1702353337450N08120413WA0150601562002006003000
B1702363337433N08120413WA0150401560002004003000
B1702373337416N08120412WA0150301558002006003000
B1702383337398N08120412WA0150301557002004003000
B1702393337381N08120412WA0150201557002013003000
B1702403337363N08120412WA0150101556002018003000
F170240140709082821173001
B1702413337346N08120412WA0149901555002018003000
B1702423337329N08120412WA0149701554002020003000
B1702433337312N08120411WA0149501552002011003000
B1702443337295N08120411WA0149301550002004003000
B1702453337278N08120411WA0148901547002009003000
F17024514130709082821173001
B1702463337261N08120410WA0148601545002011003000
B1702473337244N08120409WA0148401542002015003000
B1702483337227N08120409WA0148201540002020003000
B1702493337210N08120408WA0148201538002020003000
B1702503337193N08120406WA0148101537002015003000
B1702513337176N08120405WA0148001537002009003000
B1702523337159N08120403WA0147901536002006003000
B1702533337142N08120402WA0147801536002004003000
B1702543337125N08120401WA0147801536002004003000
B1702553337108N08120399WA0147701536002011003000
B1702563337091N08120398WA0147701536002011003000
B1702573337074N08120397WA0147801537002009003000
B1702583337057N08120397WA0147801537002009003000
B1702593337041N08120396WA0147801538002004003000
B1703003337025N08120396WA0147701538002009003000
B1703013337008N08120396WA0147601537002013003000
B1703023336992N08120396WA0147501537002015003000
B1703033336977N08120395WA0147501536002020003000
B1703043336961N08120395WA0147501536002015003000
B1703053336945N08120394WA0147401536002013003000
B1703063336929N08120394WA0147301535002011003000
B1703073336914N08120394WA0147301535002013003000
B1703083336898N08120395WA0147301534002015003000
B1703093336883N08120396WA0147101532002018003000
B1703103336868N08120398WA0146901532002013003000
B1703113336853N08120401WA0146901531002004003000
B1703123336838N08120405WA0146901531002004003000
B1703133336824N08120409WA0146701530002000003000
B1703143336811N08120415WA0146601530002004003000
B1703153336797N08120420WA0146401528002006003000
B1703163336784N08120426WA0146301527002006003000
B1703173336771N08120433WA0146101525002011003000
B1703183336758N08120439WA0145701523002011003000
B1703193336745N08120446WA0145701521002013003000
B1703203336731N08120452WA0145401518002013003000
B1703213336718N08120459WA0144901516002018003000
B1703223336704N08120464WA0144501512002018003000
B1703233336689N08120470WA0144101508002018003000
B1703243336674N08120475WA0143801505002018003000
B1703253336659N08120479WA0143501501002015003000
B1703263336644N08120482WA0143301499002015003000
B1703273336628N08120485WA0143101496002018003000
B1703283336611N08120488WA0142801494002018003000
B1703293336595N08120490WA0142801492002018003000
B1703303336579N08120491WA0142601490002011003000
B1703313336562N08120493WA0142501489002011003000
B1703323336546N08120494WA0142401487002013003000
B1703333336529N08120496WA0142201486002011003000
B1703343336513N08120497WA0142401485002022003000
B1703353336496N08120499WA0141901484002022003000
B1703363336480N08120500WA0141901483002024003000
B1703373336464N08120501WA0141801481002022003000
B1703383336448N08120503WA0141501480002020003000
B1703393336432N08120504WA0141401478002024003000
B1703403336416N08120505WA0141101477002020003000
B1703413336401N08120506WA0140901475002024003000
B1703423336385N08120507WA0140901473002022003000
B1703433336370N08120508WA0140601472002018003000
B1703443336354N08120509WA0140501470002015003000
B1703453336339N08120509WA0140401469002020003000
B1703463336324N08120510WA0140301467002022003000
B1703473336308N08120510WA0140001466002022003000
B1703483336293N08120511WA0140001463002029003000
B1703493336277N08120511WA0139701461002020003000
B1703503336262N08120512WA0139501460002013003000
B1703513336246N08120512WA0139201458002015003000
B1703523336231N08120512WA0139201457002015003000
B1703533336215N08120512WA0139001455002024004000
B1703543336200N08120513WA0138801453002031004000
B1703553336184N08120513WA0138501450002029004000
B1703563336168N08120514WA0138401448002024004000
B1703573336152N08120515WA0138401447002020004000
B1703583336136N08120516WA0138201446002015004000
B1703593336120N08120517WA0138001445002013004000
B1704003336104N08120518WA0137801444002009004000
B1704013336088N08120519WA0137701442002004004000
B1704023336072N08120521WA0137501441002011004000
B1704033336056N08120522WA0137501440002009004000
B1704043336040N08120523WA0137301438002015004000
B1704053336024N08120524WA0137201436002015004000
B1704063336007N08120525WA0136801434002006004000
B1704073335991N08120526WA0136701431002011004000
B1704083335974N08120527WA0136501429002011004000
B1704093335958N08120528WA0136401428002011004000
B1704103335941N08120529WA0136301426002018004000
B1704113335925N08120530WA0136101425002015004000
B1704123335908N08120531WA0136101423002011004000
B1704133335892N08120532WA0135901422002011004000
B1704143335876N08120532WA0135601421002009004000
B1704153335860N08120533WA0135401419002011004000
B1704163335843N08120533WA0135301417002015004000
B1704173335827N08120534WA0135201416002015004000
B1704183335811N08120534WA0135001415002015004000
B1704193335795N08120534WA0135001413002020004000
B1704203335779N08120534WA0134801412002018004000
B1704213335763N08120534WA0134501410002018004000
B1704223335747N08120534WA0134301407002022004000
B1704233335731N08120534WA0133801404002013004000
B1704243335714N08120534WA0133601400002018004000
B1704253335697N08120534WA0133501396002027004000
B1704263335680N08120535WA0132701392002024004000
B1704273335663N08120536WA0132601388002031004000
B1704283335645N08120537WA0132201385002031004000
B1704293335628N08120538WA0132101382002027004000
B1704303335610N08120539WA0131701379002024004000
B1704313335593N08120541WA0131501376002022004000
B1704323335575N08120543WA0131201374002020004000
B1704333335558N08120544WA0131001371002022004000
B1704343335541N08120546WA0130601369002027004000
B1704353335524N08120548WA0130401366002027004000
B1704363335507N08120549WA0130101363002022004000
B1704373335490N08120551WA0129701360002024004000
B1704383335472N08120552WA0128901355002015004000
B1704393335454N08120553WA0128501350002020004000
B1704403335436N08120554WA0127901345002024004000
B1704413335418N08120555WA0127501339002020004000
B1704423335399N08120556WA0127001333002029004000
B1704433335379N08120558WA0126901329002027004000
B1704443335360N08120561WA0126601326002029004000
B1704453335341N08120563WA0126601325002031004000
B1704463335322N08120566WA0126501324002031004000
B1704473335302N08120568WA0126201322002033004000
B1704483335283N08120571WA0126201321002031004000
B1704493335264N08120574WA0126201320002031004000
B1704503335244N08120577WA0126101319002031004000
B1704513335225N08120580WA0125801319002029004000
B1704523335205N08120582WA0126001318002031004000
B1704533335186N08120585WA0126001319002027004000
B1704543335166N08120587WA0125801319002024004000
B1704553335147N08120590WA0125901318002024004000
B1704563335127N08120593WA0126401319002024004000
B1704573335108N08120596WA0126901323002031004000
B1704583335090N08120598WA0127701329002033004000
B1704593335072N08120601WA0128101336002040004000
B1705003335055N08120604WA0128601343002043004000
B1705013335038N08120607WA0129501350002045004000
B1705023335022N08120610WA0130201356002043004000
B1705033335007N08120613WA0130401363002036004000
B1705043334992N08120615WA0130801368002031004000
B1705053334978N08120615WA0131101372002027004000
B1705063334963N08120612WA0131101376002027004000
B1705073334950N08120606WA0131101379003022004000
B1705083334936N08120596WA0130801378003015004000
B1705093334924N08120583WA0130801376003015004000
B1705103334913N08120567WA0130701376003013004000
B1705113334905N08120547WA0130501375003018004000
B1705123334898N08120525WA0130401374003027004000
B1705133334894N08120501WA0130201372003020004000
B1705143334892N08120476WA0130301372003018005000
B1705153334894N08120450WA0130501372003020005000
B1705163334900N08120424WA0130801374003018005000
B1705173334909N08120400WA0131101375003027005000
B1705183334920N08120378WA0131301377003033005000
F170518141307082821173001
B1705193334936N08120357WA0131601376004027006000
B1705203334953N08120340WA0131601376003027005000
B1705213334971N08120325WA0131601376003024005000
B1705223334991N08120315WA0131701375003022005000
B1705233335011N08120308WA0131901373003029005000
B1705243335032N08120305WA0131901372003024004000
B1705253335052N08120306WA0132001371003024004000
F17052514130709082821173001
B1705263335071N08120310WA0131901371003024004000
B1705273335090N08120316WA0132001371003022004000
B1705283335106N08120326WA0132001371003027004000
B1705293335121N08120337WA0132001371003029004000
B1705303335133N08120351WA0131901371003031004000
B1705313335144N08120366WA0131901371003024004000
B1705323335152N08120382WA0132201372003020004000
B1705333335157N08120399WA0132201373003018004000
B1705343335159N08120417WA0132101373003011004000
B1705353335158N08120434WA0132101374003018004000
B1705363335155N08120450WA0132301375003020004000
B1705373335149N08120466WA0132601376003022004000
B1705383335142N08120481WA0132701378003027004000
B1705393335135N08120496WA0132901380003027004000
B1705403335127N08120511WA0133201383003029004000
B1705413335119N08120525WA0133601386003024004000
B1705423335111N08120540WA0133901390003024004000
B1705433335104N08120555WA0134501394003020004000
F170543141307092821173001
B1705443335097N08120570WA0134701398003020004000
B1705453335090N08120584WA0134801402003022004000
B1705463335081N08120597WA0134801404003020004000
B1705473335071N08120609WA0134601404003024004000
B1705483335059N08120619WA0134401403003027004000
B1705493335045N08120625WA0134601401003027004000
B1705503335029N08120629WA0134601400003031004000
F17055014130709082821173001
B1705513335013N08120628WA0134601401003027004000
B1705523334996N08120623WA0134901402003020004000
B1705533334981N08120614WA0135101404003020004000
B1705543334967N08120602WA0135301406003020004000
B1705553334955N08120586WA0135601409003020004000
B1705563334946N08120567WA0135701411003027004000
B1705573334941N08120546WA0136101413003029005000
B1705583334940N08120523WA0136301416003029005000
B1705593334943N08120500WA0136801419003031004000
B1706003334949N08120479WA0136901422003027004000
B1706013334958N08120459WA0137301425003024004000
B1706023334970N08120442WA0137401425003022004000
B1706033334984N08120428WA0137401425003022004000
B1706043335000N08120417WA0137501426003027004000
B1706053335016N08120409WA0137701426003027004000
B1706063335034N08120404WA0137701426003024005000
B1706073335051N08120403WA0137801427003020004000
B1706083335068N08120404WA0137901428003015004000
B1706093335083N08120409WA0138001428003013004000
B1706103335097N08120415WA0138101428003018004000
B1706113335109N08120425WA0137801427002022004000
B1706123335119N08120436WA0137701426003020004000
B1706133335127N08120449WA0137601425003018004000
B1706143335131N08120464WA0137501424003013004000
B1706153335133N08120480WA0137601424003015004000
B1706163335132N08120495WA0137801424003018004000
B1706173335130N08120510WA0137801426003018004000
B1706183335126N08120525WA0137901427003018004000
B1706193335120N08120539WA0137601427003015004000
B1706203335113N08120553WA0137501427003018004000
B1706213335106N08120566WA0137501427003022004000
B1706223335099N08120580WA0137501427003024004000
B1706233335092N08120594WA0137401427003027004000
B1706243335085N08120608WA0137401427003022004000
B1706253335079N08120622WA0137501428003018004000
B1706263335073N08120636WA0137601429003011004000
B1706273335066N08120650WA0137501430003013004000
B1706283335059N08120663WA0137601431003011004000
B1706293335051N08120675WA0137601433002013004000
B1706303335043N08120686WA0137701434002018004000
B1706313335034N08120695WA0137601434002015004000
B1706323335024N08120703WA0137501434002024004000
B1706333335012N08120710WA0137701434002022004000
B1706343335001N08120715WA0137701434002018004000
B1706353334988N08120719WA0137701434002020004000
B1706363334975N08120722WA0137701434002018004000
B1706373334962N08120724WA0137901435002024004000
B1706383334948N08120725WA0137801436002024004000
B1706393334934N08120726WA0137801436002018004000
B1706403334921N08120726WA0137501435002020004000
B1706413334907N08120727WA0137401434002018004000
B1706423334894N08120728WA0137101432002024004000
B1706433334880N08120729WA0136901429002027004000
B1706443334866N08120731WA0136601427002022004000
B1706453334852N08120733WA0136501425002020004000
B1706463334837N08120735WA0136201423002018004000
B1706473334822N08120737WA0136101422002015004000
B1706483334808N08120739WA0136101421002018004000
B1706493334793N08120741WA0136001420002018004000
B1706503334778N08120742WA0135901420002018004000
B1706513334763N08120743WA0135901420002015004000
B1706523334747N08120744WA0135801419002013004000
B1706533334732N08120745WA0135601418002013004000
B1706543334717N08120746WA0135501416002015004000
B1706553334702N08120746WA0135701416002020004000
B1706563334686N08120747WA0135601416002020004000
B1706573334672N08120748WA0135701417002020004000
B1706583334657N08120749WA0135501417002011004000
B1706593334643N08120749WA0135501417002011004000
B1707003334628N08120750WA0135401417002009004000
B1707013334614N08120750WA0135301416002009004000
B1707023334600N08120750WA0135201415002013004000
B1707033334586N08120750WA0135101414002011004000
F170703140709082821173001
B1707043334572N08120750WA0134901413002004004000
B1707053334558N08120750WA0134901412002004004000
B1707063334543N08120750WA0134801411002002004000
B1707073334529N08120751WA0134801410002004004000
B1707083334515N08120751WA0134801410002013004000
B1707093334501N08120752WA0134801410002011004000
B1707103334487N08120752WA0134801410002011004000
B1707113334473N08120753WA0134801410002009004000
F17071114130709082821173001
B1707123334459N08120754WA0135001411002009004000
B1707133334446N08120754WA0135201412002013004000
B1707143334432N08120756WA0135101413002020004000
B1707153334419N08120757WA0135001413002018004000
B1707163334406N08120759WA0134901412002018004000
B1707173334393N08120761WA0134801411002015004000
B1707183334379N08120764WA0134801411002013004000
B1707193334366N08120766WA0134801410002018004000
B1707203334352N08120769WA0134701411002018004000
B1707213334338N08120771WA0134701411002013004000
B1707223334324N08120773WA0134801411002011004000
B1707233334310N08120775WA0134901411002009004000
B1707243334296N08120778WA0134901412002004004000
B1707253334282N08120781WA0134901413002002004000
B1707263334268N08120784WA0135101413002004004000
B1707273334254N08120788WA0135201414002009004000
B1707283334240N08120791WA0135501416002011004000
B1707293334227N08120795WA0135601418002018004000
B1707303334214N08120798WA0136001421002018004000
B1707313334201N08120803WA0136201423002015004000
B1707323334188N08120807WA0136301425002022004000
B1707333334175N08120811WA0136601427002022004000
B1707343334162N08120814WA0136701429002024004000
B1707353334149N08120818WA0136801431002029004000
B1707363334136N08120822WA0136801432002024004000
B1707373334124N08120827WA0136701432002027004000
B1707383334111N08120832WA0136401431002020004000
B1707393334099N08120839WA0136101428002013004000
B1707403334086N08120847WA0135901425002011004000
B1707413334074N08120855WA0135601422002006004000
B1707423334061N08120863WA0135301420002013004000
B1707433334048N08120872WA0135301417002011004000
B1707443334035N08120880WA0135201417002013004000
B1707453334022N08120887WA0135601418002020004000
B1707463334009N08120895WA0135801419002018004000
B1707473333997N08120902WA0135901422002018004000
B1707483333985N08120909WA0136101424002013004000
B1707493333973N08120916WA0136001426002004004000
B1707503333961N08120923WA0136001426002009004000
B1707513333949N08120930WA0136001425002018004000
B1707523333937N08120938WA0136001424002027004000
B1707533333925N08120946WA0135901423002036004000
B1707543333914N08120956WA0135901423002033004000
B1707553333902N08120967WA0136201424002031004000
B1707563333891N08120978WA0136501426002031004000
B1707573333880N08120990WA0136801429002029004000
B1707583333869N08121002WA0137301433002031004000
B1707593333859N08121014WA0137601437002029004000
B1708003333848N08121025WA0137901441002027004000
B1708013333838N08121036WA0138201444002029004000
B1708023333828N08121047WA0138801448002027004000
B1708033333818N08121058WA0139001452002029004000
B1708043333808N08121068WA0139501455002027004000
B1708053333799N08121078WA0139601458002024004000
B1708063333789N08121087WA0139701460002022004000
B1708073333778N08121094WA0139601461002018004000
B1708083333767N08121100WA0139701462002013004000
B1708093333754N08121102WA0139601461002013003000
F1708091413070908282117300119
B1708103333741N08121101WA0139501461002009003000
B1708113333727N08121096WA0139601460002011003000
B1708123333715N08121087WA0139601460003015003000
B1708133333703N08121075WA0139601459003009004000
B1708143333694N08121059WA0139601459003013004000
B1708153333689N08121041WA0139701459003011004000
B1708163333686N08121021WA0139601460003009004000
B1708173333688N08121000WA0139501460003011004000
B1708183333692N08120980WA0139501460003009004000
B1708193333700N08120962WA0139501459003013004000
B1708203333710N08120945WA0139401457003020004000
B1708213333723N08120931WA0139301455003027004000
B1708223333739N08120921WA0139101452003029004000
B1708233333755N08120915WA0139201449003024004000
B1708243333772N08120912WA0139101448003015004000
B1708253333789N08120913WA0139101447003011004000
B1708263333806N08120918WA0138901444003011004000
B1708273333820N08120927WA0138801444003013004000
B1708283333833N08120940WA0138701443003018004000
B1708293333843N08120956WA0138701441003015004000
B1708303333851N08120973WA0138801441003011004000
B1708313333859N08120991WA0138901442002015004000
B1708323333865N08121009WA0139401444002015004000
B1708333333871N08121027WA0139801447002020003000
B1708343333878N08121045WA0140101451002027003000
B1708353333884N08121062WA0140301454002024003000
B1708363333889N08121079WA0140501457002027003000
B1708373333895N08121095WA0140601459002020003000
B1708383333900N08121111WA0140801462002020003000
B1708393333906N08121127WA0141001464002020003000
B1708403333911N08121142WA0141401467002020003000
B1708413333916N08121158WA0141601469002027003000
B1708423333921N08121173WA0141901472002027003000
B1708433333926N08121188WA0141901475002027003000
B1708443333930N08121203WA0142101476002020003000
B1708453333933N08121218WA0141901477002022003000
B1708463333933N08121232WA0141901477002020003000
B1708473333930N08121246WA0141901477002018003000
B1708483333924N08121259WA0141801477002018003000
B1708493333915N08121269WA0141801476003013003000
B1708503333904N08121277WA0141701475003011004000
B1708513333892N08121280WA0142001474003009004000
B1708523333879N08121280WA0142201475003015004000
B1708533333866N08121275WA0142301476003020004000
B1708543333854N08121266WA0142501478003024004000
B1708553333844N08121253WA0142401479003027004000
B1708563333835N08121238WA0142201480003029004000
B1708573333829N08121220WA0142001480003027004000
B1708583333825N08121200WA0141701480003024004000
B1708593333824N08121180WA0141501479003024004000
B1709003333826N08121159WA0141501478003018004000
B1709013333830N08121138WA0141301476003018004000
B1709023333837N08121119WA0141201475003018004000
B1709033333847N08121101WA0141201474003018004000
B1709043333859N08121086WA0141201474003020004000
B1709053333874N08121075WA0141301473003018004000
B1709063333890N08121067WA0141401473003015004000
B1709073333907N08121063WA0141501473003013004000
B1709083333923N08121063WA0141601471003013004000
B1709093333939N08121066WA0141601471003015004000
B1709103333954N08121074WA0141601470003022004000
B1709113333968N08121083WA0141701471003027004000
B1709123333980N08121094WA0141801472002027004000
B1709133333993N08121106WA0141901474002022004000
B1709143334005N08121117WA0142001475002018004000
B1709153334018N08121129WA0142001476002013004000
B1709163334030N08121141WA0142101476002013004000
B1709173334043N08121152WA0142301477002015004000
B1709183334056N08121164WA0142501479002013004000
B1709193334068N08121176WA0142501480003018004000
B1709203334081N08121188WA0142501481003020004000
B1709213334094N08121200WA0142901482003022004000
B1709223334106N08121212WA0143001483003027004000
B1709233334119N08121223WA0143301485003027004000
B1709243334131N08121235WA0143401487003027004000
B1709253334143N08121247WA0143701489003029004000
B1709263334155N08121258WA0144001492003029004000
B1709273334166N08121269WA0144101494003022004000
B1709283334177N08121280WA0144201495003020004000
B1709293334186N08121292WA0144201496003020004000
B1709303334194N08121305WA0144201497003022004000
B1709313334200N08121320WA0144001497003024004000
B1709323334203N08121336WA0144001496003024004000
B1709333334202N08121352WA0144001495003015004000
B1709343334198N08121368WA0143901494003015004000
B1709353334191N08121382WA0143501492003015004000
B1709363334181N08121395WA0143301490003011004000
B1709373334169N08121404WA0143201488003018004000
B1709383334155N08121410WA0143401487003011004000
B1709393334139N08121413WA0143101486003013004000
B1709403334123N08121414WA0143001486003018004000
B1709413334108N08121415WA0143401487003015004000
B1709423334092N08121415WA0143301488003022004000
B1709433334076N08121415WA0143501489003024004000
B1709443334061N08121415WA0143601490003020004000
B1709453334047N08121415WA0143601490003020004000
B1709463334033N08121414WA0143301490003018004000
B1709473334019N08121412WA0143001488002015004000
B1709483334005N08121409WA0142801486002020004000
B1709493333992N08121401WA0142601483002013004000
B1709503333980N08121390WA0142101480003004004000
B1709513333971N08121376WA0142001477003004004000
B1709523333964N08121358WA0142001475003004004000
B1709533333960N08121338WA0142001474003011004000
B1709543333957N08121317WA0142101473003018004000
B1709553333957N08121295WA0142601474003018004000
B1709563333957N08121273WA0142901477003013004000
B1709573333957N08121251WA0143301480003013004000
B1709583333957N08121229WA0143501484003013005000
B1709593333958N08121206WA0143901489003011005000
B1710003333958N08121183WA0144101494003018004000
B1710013333958N08121161WA0144401499003018004000
B1710023333959N08121139WA0144601502003018004000
B1710033333959N08121117WA0144601504003022004000
B1710043333960N08121095WA0144401506003020004000
B1710053333964N08121074WA0144301507003024004000
B1710063333970N08121052WA0144301508003027004000
B1710073333980N08121032WA0144101506003027004000
B1710083333992N08121015WA0144001504003027005000
B1710093334007N08121001WA0144001501003022005000
B1710103334024N08120991WA0144001500003024005000
B1710113334042N08120986WA0144101500003027005000
B1710123334061N08120985WA0144401499003027005000
B1710133334078N08120987WA0144501499003029004000
B1710143334094N08120991WA0144701500003024004000
B1710153334109N08120998WA0145001502003020004000
B1710163334121N08121008WA0145201504002018004000
B1710173334132N08121020WA0145301506002015004000
B1710183334139N08121034WA0145601508003018004000
B1710193334145N08121049WA0145601509003022004000
B1710203334147N08121065WA0145701510003024004000
B1710213334147N08121080WA0145801511003024004000
B1710223334145N08121094WA0145901512003022004000
B1710233334141N08121107WA0145901512003018004000
B1710243334134N08121119WA0145901512003020004000
B1710253334126N08121129WA0145801512003024004000
B1710263334117N08121138WA0145601512003024004000
B1710273334107N08121144WA0145601511003027004000
B1710283334095N08121148WA0145401511003024004000
B1710293334083N08121149WA0145401510003020004000
B1710303334070N08121148WA0145501510003018004000
B1710313334057N08121144WA0145401509003020004000
B1710323334044N08121136WA0145601509003020004000
B1710333334031N08121126WA0145801510003024004000
B1710343334020N08121113WA0146101514003022004000
B1710353334010N08121098WA0146301517003015004000
B1710363334001N08121082WA0146501520003011004000
