ACAM4LM
HFDTE050521
HFFXA050
HFPLTPILOT:JASON ARNOLD            
HFGTYGLIDERTYPE:Discus      
HFGIDGLIDERID:N147JA      
HFDTM100GPSDATUM:
HFRFWFIRMWAREVERSION:F2.6
HFRHWHARDWAREVERSION:300 Series Version 2
HFFTYFRTYPE:CAMBRIDGE AERO INSTRUMENTS, 302+
HFGPS:GARMIN,LVS-25,12,18000
HFPRSPRESSALTSENSOR:INTERSEMA, MS5534-AP, 20000
I033638FXA3941ENL4247REX
LCAMSBVER:5FWVER:F26300
C050521170423050521000103
C0000000N00000000WTAKEOFF     
C3509400N08437000WStart South 
C3532716N08422816WMonroe      
C3512683N08447983WClevlndJtprt
C3519416N08431450WEtowah      
C3513550N08435116WFINISH      
C0000000N00000000WLANDING     
B1754393513417N08435244WA0021700231000004000000
B1754413513417N08435244WA0021800231000004000000
B1754433513417N08435244WA0021800231000004000000
B1754453513417N08435244WA0021800231000004000000
B1754473513417N08435244WA0021800230000004000000
B1754493513417N08435244WA0021700230000004000000
B1754513513417N08435244WA0021700230000004000000
B1754533513417N08435244WA0021700230000004000000
B1754553513417N08435244WA0021700230000000000000
B1754573513417N08435244WA0021700230000000000000
B1754593513417N08435244WA0021800230000000000000
B1755013513417N08435244WA0021800230000000000000
B1755033513417N08435244WA0021800230000000000000
B1755053513417N08435244WA0021700230000004000000
B1755073513418N08435242WA0021700230000000000000
B1755103513429N08435230WA0021700231000000000000
B1755133513444N08435210WA0021700232000000000000
B1755163513469N08435187WA0021700232000000000000
B1755193513502N08435157WA0021600232000004000000
B1755223513539N08435125WA0021600233000004000000
B1755253513582N08435088WA0021600235000004000000
B1755283513628N08435048WA0022000242000004000000
B1755313513673N08435008WA0022800254000004000000
B1755343513721N08434969WA0023500262000004000000
B1755373513769N08434930WA0024500274000004000000
B1755403513820N08434892WA0025600286000004000000
B1755433513871N08434858WA0027300301000004000000
B1755463513923N08434829WA0029200324000004000000
B1755493513974N08434814WA0031000339000004000000
B1755523514026N08434802WA0031800350000004000000
B1755553514076N08434798WA0033400365000000000000
B1755583514126N08434803WA0034600381000004000000
B1756013514174N08434822WA0035900392000004000000
B1756043514217N08434848WA0036700408000000000000
B1756073514256N08434881WA0038200421000004000000
B1756103514287N08434924WA0039700436000000000000
B1756133514315N08434974WA0041400454000000000000
B1756163514338N08435026WA0043100470000004000000
B1756193514352N08435082WA0045000488000000000000
B1756223514357N08435141WA0046800504000000000000
B1756253514352N08435201WA0048500522000000000000
B1756283514339N08435260WA0050200538000000000000
B1756313514318N08435316WA0051800551000000000000
B1756343514283N08435365WA0053000560000000000000
B1756373514237N08435401WA0054000572000000000000
B1756403514192N08435435WA0054600578000000000000
B1756433514143N08435465WA0055500589000000000000
B1756463514085N08435481WA0056400595000004000000
B1756493514024N08435486WA0056800602000004000000
B1756523513962N08435485WA0057800615000004000000
B1756553513899N08435474WA0059000625000004000000
B1756583513840N08435451WA0059800634000004000000
B1757013513781N08435418WA0061300654000004000000
B1757043513723N08435387WA0062800662000004000000
B1757073513663N08435356WA0063800674000004000000
B1757103513604N08435320WA0064800682000004000000
B1757133513547N08435281WA0065300689000004000000
B1757163513490N08435242WA0065900695000004000000
B1757193513433N08435199WA0066700706000004000000
B1757223513378N08435148WA0067700714000000000000
B1757253513325N08435097WA0068500724000000000000
B1757283513269N08435052WA0069500734000000000000
B1757313513214N08435006WA0070600747000004000000
B1757343513161N08434956WA0071900759000004000000
B1757373513109N08434902WA0072800767000000000000
B1757403513060N08434849WA0073900783000004000000
B1757433513010N08434797WA0075300794000004000000
B1757463512965N08434741WA0076500808000004000000
B1757493512918N08434686WA0077400822000004000000
B1757523512871N08434632WA0078700832000004000000
B1757553512830N08434572WA0079900846000004000000
B1757583512791N08434507WA0081300858000004000000
B1758013512748N08434463WA0082500870000004000000
B1758043512701N08434456WA0083800879000004000000
B1758073512662N08434469WA0084000872000004000000
B1758103512627N08434501WA0083000856000004000000
B1758133512601N08434543WA0081600847000004000000
B1758163512581N08434593WA0080700843000000000000
B1758193512572N08434642WA0080700846000004000000
B1758223512568N08434688WA0081000849000004000000
B1758253512566N08434729WA0081400851000004000000
B1758283512551N08434767WA0081100839000004000000
B1758313512519N08434798WA0080100832000000000000
B1758343512480N08434823WA0079500826000000000000
B1758373512438N08434844WA0079000822000000000000
B1758403512395N08434861WA0078700818000000000000
B1758433512347N08434876WA0078200811000000000000
B1758463512298N08434896WA0077500808000004000000
B1758493512248N08434913WA0077300811000004000000
B1758523512203N08434930WA0077800818000004000000
B1758553512160N08434941WA0078500825000004000000
B1758583512121N08434956WA0079200830000000000000
B1759013512087N08434974WA0079700830000000000000
B1759043512053N08434991WA0079500826000000000000
B1759073512016N08435009WA0078600812000004000000
B1759103511966N08435023WA0077300802000004000000
B1759133511916N08435031WA0076800806000004000000
B1759163511866N08435035WA0077100811000004000000
B1759193511821N08435044WA0077500813000004000000
B1759223511779N08435056WA0077900816000004000000
B1759253511743N08435075WA0078300817000004000000
B1759283511708N08435093WA0078400818000004000000
B1759313511673N08435109WA0078300816000000000000
B1759343511632N08435122WA0078000810000000000000
B1759373511595N08435138WA0077600808000000000000
B1759403511559N08435157WA0077500808000000000000
B1759433511522N08435173WA0077400802000000000000
B1759463511478N08435183WA0076500793000000000000
B1759493511426N08435180WA0075700787000000000000
B1759523511372N08435165WA0075300784000000000000
B1759553511320N08435138WA0074900782000000000000
B1759583511268N08435109WA0074500777000004000000
B1800013511218N08435075WA0074400778000000000000
B1800043511167N08435045WA0074700780000004000000
B1800073511115N08435023WA0074500779000004000000
B1800103511063N08435005WA0074400777000004000000
B1800133511010N08434989WA0074200776000000000000
B1800163510958N08434980WA0074500785000004000000
B1800193510907N08434982WA0075200793000004000000
B1800223510860N08434992WA0075500791000000000000
B1800253510813N08435011WA0075600794000000000000
B1800283510770N08435034WA0076200805000000000000
B1800313510731N08435063WA0077000807000000000000
B1800343510704N08435100WA0077400812000000000000
B1800373510677N08435135WA0078200819000000000000
B1800403510649N08435169WA0078500817000004000000
B1800433510623N08435205WA0078700821000000000000
B1800463510600N08435239WA0079200832000000000000
B1800493510574N08435273WA0080300841000004000000
B1800523510547N08435309WA0080700835000000000000
B1800553510521N08435353WA0080500835000000000000
B1800583510501N08435400WA0080700843000004000000
B1801013510488N08435444WA0081600854000004000000
B1801043510480N08435486WA0082400859000000000000
B1801073510470N08435525WA0083000863000000000000
B1801103510457N08435564WA0083100861000000000000
B1801133510435N08435600WA0082900858000004000000
B1801163510402N08435633WA0082500852000004000000
B1801193510362N08435661WA0081900848000004000000
B1801223510321N08435691WA0081700850000004000000
B1801253510280N08435723WA0081900854000004000000
B1801283510243N08435754WA0082600866000004000000
B1801313510218N08435790WA0083700876000000000000
B1801343510204N08435827WA0084700885000000000000
B1801373510197N08435866WA0085200888000000000000
B1801403510194N08435906WA0085300891000004000000
B1801433510200N08435945WA0085800896000004000000
B1801463510207N08435981WA0086400906000000000000
B1801493510215N08436016WA0087100908000000000000
B1801523510226N08436051WA0087700918000004000000
B1801553510233N08436083WA0088200921000000000000
B1801583510243N08436115WA0088500919000000000000
B1802013510250N08436153WA0088200914000000000000
B1802043510258N08436193WA0088000919000000000000
B1802073510266N08436232WA0088700928000000000000
B1802103510272N08436270WA0089500935000000000000
B1802133510274N08436308WA0090100937000000000000
B1802163510272N08436345WA0090300940000004000000
B1802193510271N08436383WA0090500938000004000000
B1802223510272N08436422WA0090400937000000000000
B1802253510276N08436460WA0090400938000000000000
B1802283510279N08436496WA0090400937000000000000
B1802313510282N08436535WA0090300932000000000000
B1802343510284N08436579WA0089600927000000000000
B1802373510284N08436625WA0089300928000000000000
B1802403510287N08436668WA0089400934000000000000
B1802433510293N08436704WA0090200942000000000000
B1802463510296N08436737WA0090800947000000000000
B1802493510295N08436768WA0091400944000000000000
B1802523510288N08436800WA0090700928000000000000
B1802553510279N08436843WA0089200916000000000000
B1802583510274N08436890WA0088200916000004000000
B1803013510271N08436938WA0087900912000004000000
B1803043510271N08436986WA0087600911000004000000
B1803073510272N08437030WA0087800919000004000000
B1803103510271N08437068WA0088600925000004000000
B1803133510265N08437102WA0089100927000004000000
B1803163510262N08437136WA0089300924000004000000
B1803193510265N08437171WA0089000920000004000000
B1803223510269N08437203WA0088800921000004000000
B1803253510274N08437237WA0088700916000004000000
B1803283510280N08437272WA0088200912000004000000
B1803313510284N08437311WA0087700907000004000000
B1803343510283N08437349WA0087700912000004000000
B1803373510279N08437384WA0087800908000004000000
B1803403510270N08437423WA0087300904000004000000
B1803433510270N08437461WA0087300911000000000000
B1803463510284N08437489WA0088000914000004000000
B1803493510310N08437507WA0088000911000004000000
B1803523510339N08437528WA0087400903000000000000
B1803553510369N08437553WA0086700899000004000000
B1803583510395N08437583WA0086600901000004000000
B1804013510409N08437618WA0086700903000004000000
B1804043510410N08437654WA0086800902000004000000
B1804073510401N08437688WA0086900901000000000000
B1804103510382N08437719WA0086500889000000000000
B1804133510350N08437749WA0085300875000004000000
B1804163510314N08437775WA0084100870000004000000
B1804193510270N08437791WA0083900872000000000000
B1804223510226N08437793WA0084000875000004000000
B1804253510188N08437810WA0084300876000000000000
B1804283510154N08437834WA0084300876000000000000
B1804313510126N08437860WA0084600883000004000000
B1804343510103N08437888WA0085100886000004000000
B1804373510077N08437914WA0085200884000004000000
B1804403510036N08437917WA0085200886000000000000
B1804433509996N08437888WA0085300886000000000000
B1804463509975N08437834WA0085300886000000000000
B1804493509983N08437777WA0085300887000000000000
B1804523510022N08437747WA0085300885000004000000
B1804553510057N08437761WA0085500893000004000000
B1804583510071N08437799WA0085900895000004000000
B1805013510063N08437838WA0086100900000000000000
B1805043510049N08437871WA0086700903000004000000
B1805073510024N08437900WA0086900897000004000000
B1805103509988N08437922WA0086400895000000000000
B1805133509949N08437936WA0086400898000000000000
B1805163509906N08437935WA0086600901000000000000
B1805193509864N08437913WA0086800900000004000000
B1805223509829N08437870WA0086700899000000000000
B1805253509815N08437816WA0086700898000000000000
B1805283509837N08437769WA0086300894000000000000
B1805313509873N08437762WA0085900890000004000000
B1805343509907N08437779WA0085100881000004000000
B1805373509928N08437816WA0084300875000000000000
B1805403509933N08437860WA0084200882000000000000
B1805433509934N08437901WA0084500885000000000000
B1805463509931N08437940WA0085200891000000000000
B1805493509927N08437975WA0085700891000004000000
B1805523509925N08438011WA0086000895000000000000
B1805553509924N08438044WA0086400900000000000000
B1805583509927N08438076WA0086900905000000000000
B1806013509927N08438109WA0087400908000000000000
B1806043509898N08438135WA0087600904000000000000
B1806073509853N08438131WA0087200900000004000000
B1806103509811N08438091WA0086700898000004000000
B1806133509797N08438029WA0086700902000000000000
B1806163509815N08437975WA0087100907000004000000
B1806193509849N08437955WA0087600910000004000000
B1806223509881N08437962WA0087600905000004000000
B1806253509902N08437994WA0087200906000000000000
B1806283509912N08438031WA0087500913000000000000
B1806313509914N08438066WA0088500924000000000000
B1806343509920N08438095WA0089500931000000000000
B1806373509916N08438129WA0089900932000000000000
B1806403509893N08438156WA0090000931000004000000
B1806433509856N08438168WA0089700927000004000000
B1806463509814N08438165WA0089300925000004000000
B1806493509769N08438150WA0089200927000000000000
B1806523509734N08438105WA0089300931000000000000
B1806553509728N08438046WA0089700934000000000000
B1806583509752N08437996WA0090000936000004000000
B1807013509789N08437974WA0090200936000000000000
B1807043509827N08437960WA0090300939000000000000
B1807073509862N08437960WA0090500942000004000000
B1807103509885N08437987WA0090800944000000000000
B1807133509889N08438025WA0090800940000000000000
B1807163509868N08438063WA0090300935000000000000
B1807193509834N08438089WA0089900933000000000000
B1807223509789N08438092WA0090100939000000000000
B1807253509743N08438076WA0090700944000000000000
B1807283509703N08438048WA0091100947000000000000
B1807313509677N08438001WA0091200948000000000000
B1807343509680N08437947WA0091300949000000000000
B1807373509710N08437909WA0091300948000000000000
B1807403509749N08437900WA0091400956000000000000
B1807433509780N08437914WA0091900960000004000000
B1807463509795N08437946WA0092300961000000000000
B1807493509793N08437982WA0092400961000000000000
B1807523509773N08438016WA0092500963000000000000
B1807553509754N08438047WA0093200976000004000000
B1807583509752N08438082WA0094200981000000000000
B1808013509739N08438117WA0094300976000004000000
B1808043509698N08438131WA0094200976000004000000
B1808073509654N08438107WA0094000975000004000000
B1808103509630N08438051WA0094100981000004000000
B1808133509626N08437995WA0094700984000004000000
B1808163509646N08437948WA0094800983000004000000
B1808193509678N08437920WA0094300979000004000000
B1808223509719N08437913WA0094100984000004000000
B1808253509754N08437927WA0094400989000004000000
B1808283509785N08437948WA0095100998000004000000
B1808313509803N08437975WA0096101007000004000000
B1808343509803N08438011WA0096901012000004000000
B1808373509789N08438043WA0097601012000004000000
B1808403509758N08438063WA0097301004000004000000
B1808433509715N08438068WA0096200990000004000000
B1808463509664N08438057WA0094800977000004000000
B1808493509611N08438031WA0093600972000004000000
B1808523509559N08437996WA0093000965000004000000
B1808553509508N08437961WA0092700968000004000000
B1808583509457N08437939WA0093300981000004000000
B1809013509413N08437931WA0094700991000000000000
B1809043509375N08437938WA0095500992000000000000
B1809073509339N08437946WA0095500990000000000000
B1809103509300N08437953WA0095200985000000000000
B1809133509260N08437961WA0094800984000000000000
B1809163509225N08437975WA0094800988000000000000
B1809193509191N08437990WA0095100991000000000000
B1809223509158N08438003WA0095200990000000000000
B1809253509119N08438014WA0094900982000000000000
B1809283509076N08438021WA0094100978000000000000
B1809313509034N08438033WA0093700978000000000000
B1809343508993N08438047WA0093900983000000000000
B1809373508956N08438057WA0094200980000000000000
B1809403508914N08438065WA0093700975000000000000
B1809433508868N08438069WA0093400971000000000000
B1809463508826N08438070WA0093300973000000000000
B1809493508783N08438070WA0093500976000000000000
B1809523508742N08438070WA0093700974000000000000
B1809553508699N08438069WA0093400970000000000000
B1809583508654N08438063WA0093000967000000000000
B1810013508608N08438050WA0092800966000000000000
B1810043508560N08438034WA0092600965000000000000
B1810073508515N08438017WA0092600968000004000000
B1810103508469N08437999WA0092900968000000000000
B1810133508425N08437981WA0092900966000000000000
B1810163508380N08437962WA0092600963000000000000
B1810193508333N08437946WA0092400961000000000000
B1810223508286N08437931WA0092200961000000000000
B1810253508239N08437918WA0092300962000004000000
B1810283508192N08437907WA0092400965000004000000
B1810313508147N08437895WA0092800969000004000000
B1810343508103N08437886WA0093200972000004000000
B1810373508060N08437883WA0093500974000004000000
B1810403508018N08437884WA0093700975000004000000
B1810433507975N08437887WA0093700973000004000000
B1810463507932N08437890WA0093600970000004000000
B1810493507886N08437886WA0093300969000004000000
B1810523507840N08437879WA0093200968000004000000
B1810553507793N08437875WA0092900967000004000000
B1810583507748N08437874WA0092800967000004000000
B1811013507702N08437873WA0092900966000000000000
B1811043507657N08437873WA0092900967000000000000
B1811073507613N08437874WA0093000967000000000000
B1811103507568N08437878WA0093000964000000000000
B1811133507523N08437887WA0092600956000000000000
B1811163507474N08437901WA0091600945000000000000
B1811193507425N08437923WA0090700947000000000000
B1811223507380N08437947WA0090800949000000000000
B1811253507341N08437972WA0091100953000000000000
B1811283507305N08437998WA0091500954000000000000
B1811313507269N08438024WA0091600955000000000000
B1811343507232N08438043WA0091700956000004000000
B1811373507193N08438060WA0091900957000004000000
B1811403507154N08438078WA0091700952000004000000
B1811433507116N08438102WA0091300947000000000000
B1811463507081N08438129WA0090800945000000000000
B1811493507046N08438157WA0090600937000000000000
B1811523507006N08438185WA0089800932000004000000
B1811553506964N08438209WA0089600935000004000000
B1811583506926N08438233WA0089800939000004000000
B1812013506890N08438256WA0090200940000004000000
B1812043506851N08438271WA0090300939000004000000
B1812073506808N08438272WA0090500943000004000000
B1812103506765N08438263WA0090900948000004000000
B1812133506723N08438254WA0091100947000004000000
B1812163506681N08438251WA0091200949000000000000
B1812193506639N08438256WA0091300950000004000000
B1812223506599N08438261WA0091300947000004000000
B1812253506556N08438272WA0091000942000004000000
B1812283506512N08438284WA0090500937000004000000
B1812313506467N08438300WA0089900930000004000000
B1812343506423N08438321WA0089400929000004000000
B1812373506384N08438345WA0089200925000004000000
B1812403506349N08438371WA0088900923000004000000
B1812433506319N08438401WA0088700923000004000000
B1812463506297N08438434WA0088500919000004000000
B1812493506278N08438477WA0087400897000004000000
B1812523506250N08438527WA0085400888000004000000
B1812553506220N08438573WA0084900891000000000000
B1812583506193N08438612WA0085600906000004000000
B1813013506164N08438644WA0086700911000000000000
B1813043506136N08438670WA0087200909000000000000
B1813073506122N08438703WA0087200905000000000000
B1813103506135N08438733WA0086800897000000000000
B1813133506168N08438741WA0085900891000004000000
B1813163506207N08438724WA0085400894000004000000
B1813193506239N08438687WA0085900901000004000000
B1813223506262N08438641WA0086100895000004000000
B1813253506289N08438592WA0085100880000004000000
B1813283506320N08438537WA0083700869000004000000
B1813313506352N08438482WA0083100871000004000000
B1813343506380N08438430WA0083400869000004000000
B1813373506415N08438377WA0082500850000004000000
B1813403506454N08438324WA0081100848000000000000
B1813433506496N08438286WA0081600873000000000000
B1813463506531N08438268WA0083500887000000000000
B1813493506562N08438258WA0085000893000000000000
B1813523506590N08438252WA0085800893000000000000
B1813553506618N08438247WA0085700886000000000000
B1813583506652N08438238WA0085100881000000000000
B1814013506687N08438225WA0084200871000000000000
B1814043506727N08438211WA0083400870000000000000
B1814073506766N08438195WA0083500878000000000000
B1814103506803N08438181WA0084400892000000000000
B1814133506834N08438170WA0085600899000004000000
B1814163506865N08438164WA0086400905000004000000
B1814193506892N08438169WA0086900902000004000000
B1814223506909N08438198WA0086700899000004000000
B1814253506907N08438234WA0086700904000004000000
B1814283506887N08438268WA0087000903000000000000
B1814313506848N08438286WA0086900900000000000000
B1814343506800N08438280WA0086600897000000000000
B1814373506759N08438246WA0086300894000000000000
B1814403506733N08438190WA0086200894000004000000
B1814433506722N08438133WA0086300896000004000000
B1814463506734N08438077WA0086400896000000000000
B1814493506764N08438038WA0086200891000000000000
B1814523506803N08438027WA0085800890000000000000
B1814553506835N08438038WA0085900895000000000000
B1814583506860N08438057WA0086300897000000000000
B1815013506877N08438085WA0086500899000000000000
B1815043506894N08438108WA0086800900000000000000
B1815073506915N08438126WA0086800899000000000000
B1815103506943N08438133WA0086300889000000000000
B1815133506981N08438125WA0085000873000000000000
B1815163507026N08438103WA0083300861000000000000
B1815193507072N08438070WA0082200854000000000000
B1815223507120N08438038WA0081500852000000000000
B1815253507168N08438008WA0081300852000000000000
B1815283507216N08437981WA0081300854000000000000
B1815313507266N08437959WA0081600861000004000000
B1815343507315N08437940WA0082300868000004000000
B1815373507362N08437921WA0083100880000004000000
B1815403507402N08437896WA0084800900000000000000
B1815433507432N08437870WA0086900914000004000000
B1815463507461N08437840WA0087700913000004000000
B1815493507492N08437817WA0087500909000004000000
B1815523507527N08437803WA0087300911000004000000
B1815553507558N08437795WA0087800917000004000000
B1815583507591N08437787WA0088100917000004000000
B1816013507622N08437774WA0088100917000004000000
B1816043507654N08437754WA0088100919000004000000
B1816073507685N08437734WA0088300922000004000000
B1816103507717N08437714WA0088800927000004000000
B1816133507749N08437700WA0089000925000000000000
B1816163507782N08437675WA0089300933000000000000
B1816193507808N08437639WA0089900940000000000000
B1816223507826N08437595WA0090700947000000000000
B1816253507847N08437550WA0091200952000000000000
B1816283507877N08437519WA0091400952000000000000
B1816313507910N08437500WA0091600954000000000000
B1816343507944N08437501WA0091700955000000000000
B1816373507974N08437519WA0091400951000000000000
B1816403507996N08437554WA0090900944000000000000
B1816433508005N08437601WA0090500942000004000000
B1816463508014N08437652WA0090300943000000000000
B1816493508023N08437701WA0090300942000000000000
B1816523508031N08437749WA0090300944000000000000
B1816553508038N08437796WA0090500945000000000000
B1816583508044N08437840WA0090700950000000000000
B1817013508053N08437878WA0091600966000004000000
B1817043508062N08437907WA0093100974000004000000
B1817073508070N08437934WA0093600971000004000000
B1817103508079N08437964WA0093300964000000000000
B1817133508091N08437996WA0092900965000000000000
B1817163508090N08438033WA0093500971000000000000
B1817193508085N08438066WA0093700970000004000000
B1817223508083N08438103WA0093300963000004000000
B1817253508085N08438143WA0092300954000000000000
B1817283508095N08438186WA0091300945000000000000
B1817313508117N08438230WA0090500940000000000000
B1817343508146N08438267WA0090400944000000000000
B1817373508173N08438299WA0090600946000004000000
B1817403508199N08438333WA0090800941000000000000
B1817433508226N08438371WA0090300935000004000000
B1817463508254N08438407WA0089800935000000000000
B1817493508282N08438441WA0090000943000000000000
B1817523508304N08438476WA0090700951000000000000
B1817553508315N08438511WA0091800965000004000000
B1817583508324N08438540WA0093000968000000000000
B1818013508339N08438566WA0093300967000004000000
B1818043508363N08438583WA0093200968000004000000
B1818073508391N08438586WA0093300970000004000000
B1818103508420N08438590WA0093500971000004000000
B1818133508449N08438599WA0093700975000004000000
B1818163508473N08438615WA0094100978000004000000
B1818193508495N08438636WA0094000969000000000000
B1818223508520N08438663WA0093000956000000000000
B1818253508549N08438693WA0091800953000000000000
B1818283508582N08438719WA0091500956000004000000
B1818313508618N08438739WA0091800963000004000000
B1818343508650N08438757WA0092400964000004000000
B1818373508686N08438770WA0092100954000004000000
B1818403508727N08438779WA0091100944000004000000
B1818433508767N08438792WA0090800951000004000000
B1818463508803N08438801WA0091700964000004000000
B1818493508837N08438798WA0092700964000004000000
B1818523508868N08438796WA0092800964000004000000
B1818553508900N08438791WA0092700960000004000000
B1818583508931N08438780WA0092300956000004000000
B1819013508965N08438765WA0091300943000004000000
B1819043509005N08438744WA0090100933000000000000
B1819073509047N08438720WA0089300928000000000000
B1819103509089N08438698WA0088700924000000000000
B1819133509134N08438677WA0088300922000000000000
B1819163509177N08438657WA0088200926000000000000
B1819193509217N08438637WA0088500928000004000000
B1819223509256N08438619WA0088700932000004000000
B1819253509292N08438603WA0089400937000000000000
B1819283509326N08438589WA0090000940000004000000
B1819313509359N08438573WA0090200942000004000000
B1819343509392N08438555WA0090300941000004000000
B1819373509427N08438537WA0090100938000004000000
B1819403509460N08438518WA0089900939000004000000
B1819433509494N08438495WA0089800935000004000000
B1819463509528N08438475WA0089400930000004000000
B1819493509567N08438454WA0088600923000004000000
B1819523509608N08438433WA0088000914000000000000
B1819553509651N08438407WA0087000907000004000000
B1819583509691N08438377WA0087000926000000000000
B1820013509710N08438329WA0088900946000000000000
B1820043509713N08438277WA0090500946000000000000
B1820073509738N08438238WA0090700946000000000000
B1820103509773N08438241WA0090700947000000000000
B1820133509801N08438259WA0090800950000000000000
B1820163509821N08438282WA0091200954000004000000
B1820193509837N08438307WA0091700954000004000000
B1820223509851N08438333WA0091800955000004000000
B1820253509868N08438355WA0091800951000004000000
B1820283509882N08438388WA0091400950000000000000
B1820313509899N08438419WA0091400949000004000000
B1820343509919N08438446WA0091100947000004000000
B1820373509934N08438480WA0090800941000000000000
B1820403509942N08438516WA0090600936000000000000
B1820433509950N08438559WA0089800924000004000000
B1820463509958N08438607WA0088500922000004000000
B1820493509967N08438650WA0088500929000004000000
B1820523509975N08438687WA0089300934000000000000
B1820553509984N08438720WA0089700933000004000000
B1820583509994N08438753WA0089500930000004000000
B1821013510005N08438784WA0089300928000004000000
B1821043510015N08438817WA0089000921000004000000
B1821073510032N08438849WA0088300912000004000000
B1821103510055N08438883WA0087400907000000000000
B1821133510079N08438913WA0087300911000000000000
B1821163510103N08438940WA0087500914000000000000
B1821193510126N08438965WA0087900915000000000000
B1821223510146N08438987WA0088000920000000000000
B1821253510166N08439004WA0088500923000000000000
B1821283510184N08439019WA0088800920000000000000
B1821313510206N08439034WA0088400912000000000000
B1821343510235N08439044WA0087800912000000000000
B1821373510269N08439040WA0087600912000000000000
B1821403510301N08439034WA0087600912000000000000
B1821433510335N08439019WA0087600915000000000000
B1821463510367N08438997WA0087500907000000000000
B1821493510399N08438960WA0086700901000000000000
B1821523510419N08438906WA0086300901000000000000
B1821553510425N08438845WA0086200900000000000000
B1821583510415N08438781WA0086100897000000000000
B1822013510397N08438716WA0085600890000000000000
B1822043510369N08438653WA0084900879000000000000
B1822073510330N08438590WA0083700869000004000000
B1822103510285N08438533WA0082600862000000000000
B1822133510236N08438482WA0082100861000000000000
B1822163510187N08438434WA0082000861000004000000
B1822193510137N08438391WA0082100864000000000000
B1822223510089N08438350WA0082600869000000000000
B1822253510044N08438311WA0083100874000000000000
B1822283509999N08438277WA0083700878000000000000
B1822313509957N08438246WA0084100880000000000000
B1822343509914N08438213WA0084100879000000000000
B1822373509871N08438182WA0084100877000004000000
B1822403509827N08438150WA0083600871000004000000
B1822433509781N08438117WA0083000864000004000000
B1822463509733N08438082WA0082500855000004000000
B1822493509682N08438044WA0081500852000004000000
B1822523509632N08438008WA0081500854000004000000
B1822553509582N08437973WA0082200869000000000000
B1822583509541N08437942WA0083500884000004000000
B1823013509499N08437923WA0084700885000004000000
B1823043509457N08437916WA0084900881000000000000
B1823073509411N08437910WA0084700885000004000000
B1823103509370N08437879WA0085400890000004000000
B1823133509355N08437821WA0085400885000004000000
B1823163509378N08437773WA0085400894000004000000
B1823193509413N08437773WA0085800898000000000000
B1823223509421N08437810WA0086500907000004000000
B1823253509390N08437842WA0087300911000004000000
B1823283509343N08437829WA0087700911000004000000
B1823313509313N08437770WA0087400909000004000000
B1823343509318N08437710WA0088000925000004000000
B1823373509349N08437683WA0089200931000004000000
B1823403509375N08437700WA0089700930000000000000
B1823433509372N08437744WA0089500928000004000000
B1823463509339N08437775WA0090100938000004000000
B1823493509292N08437769WA0091100946000004000000
B1823523509260N08437718WA0091200938000004000000
B1823553509257N08437656WA0091100946000004000000
B1823583509284N08437614WA0092000959000000000000
B1824013509317N08437601WA0092900963000000000000
B1824043509343N08437621WA0093300965000000000000
B1824073509352N08437656WA0093700973000000000000
B1824103509331N08437689WA0094500978000000000000
B1824133509288N08437700WA0094700979000000000000
B1824163509243N08437674WA0095000987000000000000
B1824193509222N08437622WA0095700995000000000000
B1824223509232N08437570WA0096300993000000000000
B1824253509264N08437537WA0096000990000000000000
B1824283509300N08437533WA0096000997000000000000
B1824313509325N08437556WA0096701004000000000000
B1824343509322N08437592WA0097601015000000000000
B1824373509294N08437617WA0098401021000000000000
B1824403509252N08437618WA0098501013000000000000
B1824433509208N08437572WA0097801012000000000000
B1824463509196N08437507WA0098101025000000000000
B1824493509216N08437457WA0099301033000000000000
B1824523509249N08437437WA0099901035000004000000
B1824553509282N08437442WA0100001036000000000000
B1824583509303N08437474WA0100301042000004000000
B1825013509312N08437509WA0101301052000000000000
B1825043509294N08437544WA0101901058000000000000
B1825073509253N08437558WA0102101059000000000000
B1825103509208N08437543WA0102501064000000000000
B1825133509177N08437497WA0102801065000004000000
B1825163509173N08437436WA0102901065000004000000
B1825193509200N08437392WA0103001067000000000000
B1825223509235N08437375WA0103101071000000000000
B1825253509264N08437388WA0103601079000000000000
B1825283509278N08437418WA0104401085000000000000
B1825313509275N08437453WA0105001089000000000000
B1825343509253N08437485WA0105301089000000000000
B1825373509218N08437507WA0105701095000000000000
B1825403509179N08437515WA0105901095000000000000
B1825433509136N08437522WA0105701091000000000000
B1825463509093N08437530WA0105401090000000000000
B1825493509048N08437539WA0105301087000000000000
B1825523509004N08437553WA0104901084000000000000
B1825553508956N08437567WA0104501079000000000000
B1825583508909N08437591WA0103801068000000000000
B1826013508867N08437634WA0102501060000004000000
B1826043508836N08437684WA0102101064000000000000
B1826073508811N08437736WA0102501072000000000000
B1826103508796N08437786WA0103301082000000000000
B1826133508783N08437830WA0104501092000004000000
B1826163508768N08437870WA0105301094000004000000
B1826193508754N08437908WA0105501094000004000000
B1826223508741N08437948WA0105401086000000000000
B1826253508729N08437991WA0104701081000000000000
B1826283508718N08438034WA0104101076000000000000
B1826313508706N08438078WA0103801074000000000000
B1826343508696N08438124WA0103301068000000000000
B1826373508694N08438173WA0102701062000000000000
B1826403508703N08438224WA0101901053000004000000
B1826433508718N08438274WA0101501052000000000000
B1826463508738N08438319WA0101501055000000000000
B1826493508761N08438359WA0101601056000000000000
B1826523508783N08438398WA0101601056000004000000
B1826553508802N08438436WA0101801054000000000000
B1826583508824N08438476WA0101001039000000000000
B1827013508858N08438514WA0099501027000000000000
B1827043508900N08438546WA0098501024000000000000
B1827073508941N08438571WA0098301024000000000000
B1827103508983N08438590WA0098501026000000000000
B1827133509024N08438606WA0098501025000000000000
B1827163509065N08438618WA0098201020000000000000
B1827193509106N08438629WA0097901014000000000000
B1827223509148N08438645WA0097401005000000000000
B1827253509188N08438666WA0096500994000000000000
B1827283509227N08438692WA0095600995000000000000
B1827313509252N08438728WA0096001009000000000000
B1827343509262N08438763WA0097401025000000000000
B1827373509261N08438792WA0099001036000000000000
B1827403509255N08438819WA0099701037000000000000
B1827433509258N08438846WA0099601027000000000000
B1827463509264N08438879WA0098701016000000000000
B1827493509273N08438919WA0097100999000000000000
B1827523509287N08438965WA0095500984000000000000
B1827553509309N08439014WA0094100973000004000000
B1827583509340N08439058WA0093700980000000000000
B1828013509374N08439086WA0095501006000000000000
B1828043509403N08439101WA0096701014000004000000
B1828073509430N08439113WA0097301007000000000000
B1828103509465N08439126WA0096400989000000000000
B1828133509505N08439144WA0094400970000004000000
B1828163509551N08439169WA0092600957000004000000
B1828193509594N08439197WA0092000966000004000000
B1828223509632N08439218WA0093100983000004000000
B1828253509651N08439247WA0095501012000000000000
B1828283509654N08439275WA0097801025000000000000
B1828313509648N08439304WA0098701021000000000000
B1828343509613N08439325WA0098201012000000000000
B1828373509567N08439305WA0097401010000000000000
B1828403509539N08439246WA0097401014000000000000
B1828433509544N08439183WA0097901021000000000000
B1828463509573N08439145WA0098601026000000000000
B1828493509607N08439135WA0099001029000004000000
B1828523509632N08439155WA0099701037000000000000
B1828553509638N08439187WA0100401045000000000000
B1828583509620N08439217WA0100601040000000000000
B1829013509581N08439229WA0100301039000000000000
B1829043509538N08439208WA0100301040000000000000
B1829073509504N08439161WA0100401045000000000000
B1829103509496N08439100WA0101001050000004000000
B1829133509513N08439048WA0101201047000004000000
B1829163509544N08439010WA0101101050000000000000
B1829193509574N08438987WA0101801065000000000000
B1829223509606N08438979WA0102601067000004000000
B1829253509630N08438993WA0102801065000004000000
B1829283509645N08439023WA0102501059000004000000
B1829313509658N08439053WA0101901051000004000000
B1829343509671N08439086WA0101201047000004000000
B1829373509684N08439119WA0100901044000000000000
B1829403509699N08439155WA0100601042000000000000
B1829433509723N08439184WA0100301042000000000000
B1829463509751N08439208WA0100401045000000000000
B1829493509780N08439226WA0100901053000000000000
B1829523509808N08439236WA0101601057000000000000
B1829553509838N08439242WA0101901054000000000000
B1829583509872N08439244WA0101401043000000000000
B1830013509910N08439243WA0100401036000000000000
B1830043509950N08439235WA0099701034000000000000
B1830073509989N08439222WA0099601037000004000000
B1830103510025N08439201WA0099901037000000000000
B1830133510062N08439177WA0099601030000000000000
B1830163510100N08439151WA0098701019000000000000
B1830193510144N08439129WA0097101002000000000000
B1830223510194N08439112WA0095700990000000000000
B1830253510248N08439093WA0094000972000004000000
B1830283510304N08439079WA0093000968000000000000
B1830313510360N08439067WA0092500967000000000000
B1830343510412N08439056WA0092600974000000000000
B1830373510460N08439044WA0093100973000004000000
B1830403510508N08439035WA0093000970000004000000
B1830433510555N08439030WA0092800969000004000000
B1830463510599N08439026WA0092800968000000000000
B1830493510643N08439023WA0092500962000000000000
B1830523510688N08439023WA0091700947000004000000
B1830553510738N08439025WA0090300936000000000000
B1830583510786N08439036WA0089500931000000000000
B1831013510831N08439057WA0088700921000004000000
B1831043510873N08439082WA0088500930000004000000
B1831073510907N08439080WA0090800963000004000000
B1831103510933N08439074WA0092900970000004000000
B1831133510959N08439080WA0092800961000004000000
B1831163510971N08439119WA0092100958000004000000
B1831193510951N08439158WA0092200968000004000000
B1831223510908N08439168WA0092900971000004000000
B1831253510863N08439140WA0093200968000000000000
B1831283510842N08439080WA0093100967000000000000
B1831313510867N08439025WA0092900965000004000000
B1831343510906N08439015WA0093100973000004000000
B1831373510926N08439047WA0093700976000004000000
B1831403510938N08439080WA0094100981000004000000
B1831433510958N08439108WA0094600987000000000000
B1831463510980N08439129WA0095400994000000000000
B1831493510993N08439160WA0096100999000004000000
B1831523510993N08439199WA0096401000000004000000
B1831553510956N08439226WA0096601005000004000000
B1831583510909N08439207WA0096901007000004000000
B1832013510885N08439149WA0096901004000004000000
B1832043510893N08439090WA0096901010000000000000
B1832073510921N08439053WA0097401014000000000000
B1832103510956N08439048WA0097901015000000000000
B1832133510987N08439066WA0098101020000000000000
B1832163511007N08439095WA0098701024000000000000
B1832193511002N08439135WA0099001021000000000000
B1832223510974N08439171WA0098701023000000000000
B1832253510929N08439183WA0098501022000000000000
B1832283510882N08439164WA0098801030000000000000
B1832313510850N08439114WA0099501034000000000000
B1832343510839N08439056WA0099801036000000000000
B1832373510850N08439001WA0100001037000000000000
B1832403510878N08438965WA0100401041000000000000
B1832433510915N08438950WA0100701046000000000000
B1832463510948N08438961WA0101201050000000000000
B1832493510969N08438992WA0101301051000000000000
B1832523510972N08439035WA0101401050000000000000
B1832553510952N08439075WA0101301055000000000000
B1832583510933N08439110WA0102001066000000000000
B1833013510925N08439145WA0103001069000000000000
B1833043510902N08439177WA0102801052000004000000
B1833073510857N08439192WA0101801051000004000000
B1833103510812N08439179WA0102101063000004000000
B1833133510772N08439152WA0102801066000004000000
B1833163510731N08439127WA0102801061000004000000
B1833193510692N08439086WA0102201048000000000000
B1833223510644N08439061WA0100801035000004000000
B1833253510588N08439060WA0099301020000004000000
B1833283510532N08439074WA0097701009000000000000
B1833313510478N08439093WA0096800998000000000000
B1833343510422N08439118WA0095800992000000000000
B1833373510365N08439143WA0094900983000000000000
B1833403510310N08439168WA0094500988000004000000
B1833433510262N08439191WA0095200999000000000000
B1833463510228N08439220WA0096201008000000000000
B1833493510196N08439243WA0097001010000000000000
B1833523510162N08439264WA0096901000000000000000
B1833553510120N08439287WA0095600988000000000000
B1833583510076N08439317WA0094100972000000000000
B1834013510036N08439351WA0093900986000000000000
B1834043510006N08439385WA0094900993000000000000
B1834073509985N08439421WA0095500993000004000000
B1834103509977N08439460WA0095700998000000000000
B1834133509972N08439498WA0096001000000000000000
B1834163509964N08439533WA0096300998000000000000
B1834193509950N08439565WA0096200997000000000000
B1834223509923N08439595WA0095900987000000000000
B1834253509881N08439615WA0095100983000004000000
B1834283509834N08439595WA0094900990000004000000
B1834313509816N08439537WA0095400992000004000000
B1834343509830N08439485WA0095700992000004000000
B1834373509864N08439459WA0095500986000004000000
B1834403509901N08439460WA0094700973000004000000
B1834433509936N08439483WA0093400962000000000000
B1834463509971N08439516WA0092200954000000000000
B1834493510006N08439548WA0091800955000000000000
B1834523510041N08439577WA0092200969000004000000
B1834553510068N08439600WA0093600977000004000000
B1834583510089N08439619WA0094800990000004000000
B1835013510110N08439636WA0095200976000004000000
B1835043510137N08439660WA0093400951000000000000
B1835073510172N08439693WA0091600950000004000000
B1835103510211N08439715WA0091800959000000000000
B1835133510246N08439725WA0093600988000004000000
B1835163510272N08439733WA0095500997000000000000
B1835193510283N08439759WA0096200993000000000000
B1835223510276N08439797WA0096000989000000000000
B1835253510257N08439829WA0096100994000000000000
B1835283510217N08439841WA0096200994000000000000
B1835313510175N08439812WA0096200997000000000000
B1835343510153N08439754WA0096701003000004000000
B1835373510159N08439694WA0097001005000004000000
B1835403510189N08439655WA0097201005000004000000
B1835433510227N08439646WA0097101004000000000000
B1835463510258N08439659WA0097101010000000000000
B1835493510275N08439690WA0097701012000000000000
B1835523510283N08439724WA0098001017000000000000
B1835553510289N08439755WA0098501020000000000000
B1835583510280N08439788WA0098701015000000000000
B1836013510256N08439818WA0097901008000000000000
B1836043510211N08439825WA0097301005000000000000
B1836073510163N08439810WA0096901003000004000000
B1836103510119N08439769WA0097101012000004000000
B1836133510089N08439719WA0097601013000004000000
B1836163510077N08439662WA0098001020000004000000
B1836193510079N08439606WA0098701025000000000000
B1836223510092N08439556WA0099101031000000000000
B1836253510123N08439532WA0099501021000004000000
B1836283510161N08439533WA0098901013000004000000
B1836313510189N08439555WA0098501018000004000000
B1836343510198N08439590WA0098901023000004000000
B1836373510183N08439625WA0099101025000004000000
B1836403510149N08439646WA0099501026000000000000
B1836433510106N08439647WA0099401027000000000000
B1836463510062N08439625WA0099601027000000000000
B1836493510027N08439584WA0099701032000000000000
B1836523510005N08439534WA0099901030000000000000
B1836553509997N08439477WA0099801030000000000000
B1836583510010N08439420WA0099901034000000000000
B1837013510032N08439374WA0100501043000000000000
B1837043510059N08439339WA0101001043000000000000
B1837073510093N08439317WA0100801038000000000000
B1837103510127N08439308WA0100501039000000000000
B1837133510158N08439311WA0100801043000004000000
B1837163510185N08439322WA0101101042000000000000
B1837193510207N08439344WA0101001039000000000000
B1837223510222N08439374WA0100801038000000000000
B1837253510228N08439408WA0100501033000000000000
B1837283510232N08439446WA0099901029000000000000
B1837313510239N08439482WA0099501023000000000000
B1837343510252N08439519WA0098801015000000000000
B1837373510270N08439554WA0098201016000004000000
B1837403510280N08439590WA0098501024000004000000
B1837433510284N08439625WA0099301033000004000000
B1837463510285N08439659WA0100101038000004000000
B1837493510285N08439694WA0100501040000004000000
B1837523510275N08439730WA0100501037000004000000
B1837553510252N08439760WA0100301035000000000000
B1837583510217N08439777WA0100001032000000000000
B1838013510174N08439771WA0099701029000000000000
B1838043510131N08439741WA0099401024000000000000
B1838073510094N08439690WA0098501013000004000000
B1838103510058N08439632WA0097301006000000000000
B1838133510020N08439573WA0096801004000004000000
B1838163509981N08439513WA0096701005000004000000
B1838193509940N08439456WA0096901014000004000000
B1838223509898N08439408WA0097901025000004000000
B1838253509853N08439377WA0099301039000004000000
B1838283509812N08439350WA0100601045000000000000
B1838313509801N08439287WA0100601040000000000000
B1838343509823N08439235WA0100401041000000000000
B1838373509862N08439221WA0100301038000000000000
B1838403509892N08439246WA0099701031000000000000
B1838433509903N08439295WA0099401033000000000000
B1838463509912N08439342WA0099801046000000000000
B1838493509921N08439381WA0101101057000000000000
B1838523509910N08439418WA0102101061000000000000
B1838553509893N08439452WA0102601063000000000000
B1838583509879N08439487WA0102801062000004000000
B1839013509854N08439520WA0102501059000004000000
B1839043509817N08439541WA0102501058000004000000
B1839073509776N08439555WA0102401062000004000000
B1839103509733N08439561WA0103001070000000000000
B1839133509689N08439551WA0103601075000004000000
B1839163509650N08439511WA0103801074000004000000
B1839193509628N08439452WA0103401066000004000000
B1839223509622N08439386WA0102801062000004000000
B1839253509639N08439326WA0102701068000004000000
B1839283509668N08439283WA0103001070000004000000
B1839313509702N08439253WA0103301067000004000000
B1839343509742N08439239WA0103001065000004000000
B1839373509782N08439230WA0103301077000004000000
B1839403509820N08439216WA0104101084000000000000
B1839433509855N08439195WA0104901091000004000000
B1839463509893N08439183WA0105201087000004000000
B1839493509924N08439212WA0104501084000000000000
B1839523509938N08439257WA0104101086000000000000
B1839553509934N08439305WA0104601090000000000000
B1839583509914N08439344WA0104901092000000000000
B1840013509872N08439360WA0105001088000000000000
B1840043509823N08439347WA0104901088000000000000
B1840073509778N08439317WA0105101091000000000000
B1840103509754N08439265WA0105601099000000000000
B1840133509741N08439210WA0106201102000000000000
B1840163509739N08439153WA0106501106000000000000
B1840193509746N08439099WA0107001113000000000000
B1840223509764N08439053WA0107901120000000000000
B1840253509797N08439032WA0108301123000000000000
B1840283509825N08439047WA0108501123000000000000
B1840313509832N08439082WA0108601122000000000000
B1840343509824N08439118WA0108501122000000000000
B1840373509801N08439148WA0108701128000000000000
B1840403509764N08439160WA0109301133000000000000
B1840433509723N08439142WA0109601133000004000000
B1840463509694N08439096WA0109701136000004000000
B1840493509685N08439040WA0110201142000004000000
B1840523509684N08438986WA0110601142000004000000
B1840553509704N08438936WA0110701145000004000000
B1840583509737N08438906WA0111201153000004000000
B1841013509769N08438891WA0111901157000000000000
B1841043509802N08438893WA0112301160000000000000
B1841073509828N08438906WA0112601160000000000000
B1841103509858N08438913WA0112401157000000000000
B1841133509897N08438905WA0112001154000000000000
B1841163509933N08438884WA0112001159000000000000
B1841193509970N08438861WA0112101154000000000000
B1841223510011N08438833WA0111201141000004000000
B1841253510061N08438806WA0109701126000004000000
B1841283510115N08438793WA0108601123000004000000
B1841313510170N08438781WA0107801117000000000000
B1841343510226N08438770WA0107301110000004000000
B1841373510283N08438757WA0106601105000004000000
B1841403510341N08438742WA0105801097000004000000
B1841433510400N08438729WA0104901089000004000000
B1841463510461N08438716WA0104001079000004000000
B1841493510523N08438706WA0103301077000004000000
B1841523510584N08438696WA0102901072000000000000
B1841553510646N08438689WA0102601070000000000000
B1841583510705N08438683WA0102401063000000000000
B1842013510766N08438674WA0101801058000000000000
B1842043510828N08438668WA0101401059000004000000
B1842073510885N08438668WA0101601064000004000000
B1842103510938N08438668WA0102201075000004000000
B1842133510985N08438666WA0103201081000004000000
B1842163511033N08438661WA0103501073000004000000
B1842193511084N08438648WA0102601056000000000000
B1842223511141N08438623WA0100901044000000000000
B1842253511198N08438594WA0099801038000000000000
B1842283511255N08438559WA0099201035000000000000
B1842313511312N08438523WA0098901034000000000000
B1842343511368N08438488WA0098701030000000000000
B1842373511424N08438455WA0098401024000000000000
B1842403511481N08438420WA0097901022000004000000
B1842433511536N08438384WA0097801022000000000000
B1842463511589N08438350WA0097901019000000000000
B1842493511645N08438316WA0097501012000000000000
B1842523511702N08438286WA0096601002000000000000
B1842553511764N08438255WA0095600988000004000000
B1842583511827N08438222WA0094100975000004000000
B1843013511892N08438183WA0093000971000000000000
B1843043511955N08438139WA0092600968000000000000
B1843073512016N08438095WA0092800976000004000000
B1843103512072N08438048WA0093500982000004000000
B1843133512124N08438005WA0094600998000000000000
B1843163512170N08437977WA0096201010000000000000
B1843193512213N08437949WA0097301016000000000000
B1843223512254N08437923WA0097401008000000000000
B1843253512302N08437894WA0095600982000000000000
B1843283512358N08437858WA0093000958000000000000
B1843313512419N08437813WA0091000944000000000000
B1843343512479N08437758WA0090200934000004000000
B1843373512536N08437701WA0089200934000004000000
B1843403512590N08437643WA0089000933000000000000
B1843433512642N08437584WA0089000931000004000000
B1843463512690N08437524WA0088900932000004000000
B1843493512737N08437466WA0089000929000000000000
B1843523512784N08437410WA0088800925000000000000
B1843553512832N08437357WA0088100916000004000000
B1843583512883N08437310WA0087700922000004000000
B1844013512922N08437290WA0090400968000004000000
B1844043512943N08437262WA0093500978000004000000
B1844073512966N08437228WA0093300955000000000000
B1844103513006N08437190WA0090700925000000000000
B1844133513058N08437147WA0088000906000004000000
B1844163513114N08437095WA0086100892000004000000
B1844193513169N08437038WA0085000884000004000000
B1844223513223N08436980WA0084500884000004000000
B1844253513275N08436926WA0084600893000004000000
B1844283513322N08436886WA0085900920000004000000
B1844313513360N08436868WA0088800950000004000000
B1844343513386N08436855WA0091900973000000000000
B1844373513409N08436857WA0093800974000000000000
B1844403513439N08436852WA0094000969000000000000
B1844433513468N08436809WA0093800975000000000000
B1844463513472N08436750WA0094500987000000000000
B1844493513442N08436696WA0095300990000000000000
B1844523513392N08436678WA0095500998000000000000
B1844553513355N08436701WA0096701020000004000000
B1844583513346N08436740WA0098301021000004000000
B1845013513364N08436774WA0098501021000004000000
B1845043513396N08436783WA0099001035000000000000
B1845073513425N08436761WA0100101040000000000000
B1845103513447N08436717WA0100201031000000000000
B1845133513464N08436661WA0099701033000000000000
B1845163513483N08436614WA0100301039000004000000
B1845193513520N08436575WA0099501017000004000000
B1845223513568N08436557WA0096900991000004000000
B1845253513626N08436553WA0094600975000004000000
B1845283513686N08436553WA0093200966000004000000
B1845313513747N08436555WA0092400965000004000000
B1845343513806N08436558WA0092000962000004000000
B1845373513866N08436553WA0091700955000000000000
B1845403513924N08436539WA0091600956000004000000
B1845433513980N08436518WA0091500952000004000000
B1845463514036N08436493WA0091100944000000000000
B1845493514092N08436465WA0090400937000004000000
B1845523514149N08436438WA0089600929000004000000
B1845553514208N08436412WA0088900927000000000000
B1845583514265N08436387WA0088500919000000000000
B1846013514325N08436362WA0087500911000000000000
B1846043514382N08436350WA0087900933000004000000
B1846073514427N08436345WA0090400958000004000000
B1846103514460N08436340WA0092800975000004000000
B1846133514490N08436327WA0093900972000004000000
B1846163514522N08436315WA0093100954000004000000
B1846193514568N08436306WA0090100914000004000000
B1846223514626N08436315WA0086500886000004000000
B1846253514685N08436334WA0085500898000004000000
B1846283514741N08436353WA0085900905000004000000
B1846313514793N08436370WA0086300899000004000000
B1846343514846N08436389WA0085800892000004000000
B1846373514899N08436408WA0085400889000004000000
B1846403514946N08436421WA0086100930000004000000
B1846433514973N08436427WA0089900955000004000000
B1846463514986N08436457WA0091600945000000000000
B1846493514965N08436497WA0091000935000004000000
B1846523514945N08436539WA0090200931000000000000
B1846553514960N08436584WA0089200920000004000000
B1846583514997N08436614WA0088500918000004000000
B1847013515042N08436631WA0088300919000004000000
B1847043515089N08436634WA0088200913000000000000
B1847073515144N08436622WA0087000899000004000000
B1847103515203N08436605WA0085800888000004000000
B1847133515266N08436588WA0085600905000004000000
B1847163515306N08436577WA0089300966000000000000
B1847193515331N08436566WA0094000994000000000000
B1847223515355N08436556WA0095800986000000000000
B1847253515393N08436531WA0094600968000000000000
B1847283515433N08436547WA0094000977000000000000
B1847313515450N08436584WA0094600989000000000000
B1847343515456N08436618WA0095800996000000000000
B1847373515465N08436644WA0096200991000000000000
B1847403515496N08436665WA0094600963000000000000
B1847433515549N08436669WA0091400931000004000000
B1847463515615N08436656WA0088600913000004000000
B1847493515684N08436627WA0087600913000004000000
B1847523515747N08436596WA0088500936000004000000
B1847553515797N08436560WA0090500948000004000000
B1847583515847N08436525WA0090700933000004000000
B1848013515901N08436490WA0089400914000004000000
B1848043515961N08436454WA0087600905000004000000
B1848073516024N08436419WA0086700904000000000000
B1848103516082N08436387WA0086700911000000000000
B1848133516138N08436356WA0087300915000004000000
B1848163516193N08436328WA0087800918000004000000
B1848193516245N08436301WA0088300925000000000000
B1848223516291N08436275WA0089100935000004000000
B1848253516336N08436257WA0089900935000004000000
B1848283516382N08436241WA0089400922000004000000
B1848313516434N08436226WA0088200910000004000000
B1848343516489N08436206WA0086900901000004000000
B1848373516546N08436184WA0086000895000000000000
B1848403516603N08436162WA0085600893000000000000
B1848433516659N08436141WA0085500895000000000000
B1848463516711N08436120WA0086100907000000000000
B1848493516757N08436098WA0087900927000000000000
B1848523516793N08436077WA0089500935000000000000
B1848553516828N08436062WA0090300939000000000000
B1848583516861N08436053WA0090700941000000000000
B1849013516891N08436054WA0090800942000000000000
B1849043516919N08436058WA0090700933000004000000
B1849073516956N08436063WA0089500913000000000000
B1849103517001N08436068WA0087200891000000000000
B1849133517056N08436068WA0085000871000004000000
B1849163517117N08436063WA0083000858000000000000
B1849193517170N08436057WA0083400901000004000000
B1849223517198N08436084WA0086800929000004000000
B1849253517200N08436116WA0089500938000004000000
B1849283517173N08436144WA0090200926000004000000
B1849313517121N08436133WA0089000919000004000000
B1849343517086N08436076WA0088300915000004000000
B1849373517100N08436009WA0087800907000004000000
B1849403517140N08435970WA0086900905000004000000
B1849433517175N08435931WA0087200916000004000000
B1849463517205N08435893WA0088200919000004000000
B1849493517243N08435867WA0088200913000004000000
B1849523517278N08435828WA0087600912000000000000
B1849553517290N08435768WA0088300923000000000000
B1849583517300N08435712WA0088800918000000000000
B1850013517326N08435660WA0087600898000000000000
B1850043517372N08435612WA0085100870000000000000
B1850073517426N08435565WA0082700851000000000000
B1850103517487N08435526WA0080800838000004000000
B1850133517549N08435498WA0080100841000000000000
B1850163517607N08435472WA0080100838000004000000
B1850193517666N08435448WA0079800832000000000000
B1850223517721N08435422WA0079600834000000000000
B1850253517773N08435426WA0080000836000000000000
B1850283517814N08435453WA0079900836000000000000
B1850313517853N08435481WA0079800826000000000000
B1850343517898N08435503WA0078900818000000000000
B1850373517949N08435515WA0078100812000000000000
B1850403518004N08435516WA0077500809000004000000
B1850433518057N08435512WA0077200809000000000000
B1850463518111N08435504WA0077000805000000000000
B1850493518166N08435491WA0076800804000000000000
B1850523518219N08435477WA0076800806000000000000
B1850553518273N08435460WA0076800805000000000000
B1850583518325N08435443WA0076700802000000000000
B1851013518373N08435422WA0077100813000004000000
B1851043518416N08435400WA0077900819000004000000
B1851073518452N08435373WA0079100831000004000000
B1851103518478N08435329WA0079800832000004000000
B1851133518503N08435283WA0079800829000004000000
B1851163518533N08435243WA0079300819000004000000
B1851193518576N08435214WA0078100801000004000000
B1851223518626N08435199WA0076500797000004000000
B1851253518673N08435184WA0077000820000000000000
B1851283518711N08435170WA0078600827000000000000
B1851313518747N08435151WA0079400827000000000000
B1851343518784N08435131WA0079200819000000000000
B1851373518823N08435114WA0078600814000004000000
B1851403518864N08435097WA0077800803000004000000
B1851433518910N08435082WA0076600794000004000000
B1851463518959N08435065WA0075800791000000000000
B1851493519007N08435049WA0075500790000000000000
B1851523519054N08435035WA0075300791000004000000
B1851553519098N08435018WA0075700795000000000000
B1851583519140N08435001WA0076000796000000000000
B1852013519177N08434982WA0076100794000000000000
B1852043519218N08434962WA0075700789000000000000
B1852073519257N08434936WA0075600790000000000000
B1852103519298N08434918WA0075600792000000000000
B1852133519337N08434907WA0076300808000000000000
B1852163519370N08434901WA0077700816000004000000
B1852193519397N08434871WA0078500814000004000000
B1852223519395N08434805WA0077800794000004000000
B1852253519350N08434758WA0076700800000000000000
B1852283519305N08434758WA0077400810000000000000
B1852313519276N08434787WA0078300813000000000000
B1852343519270N08434824WA0078900822000000000000
B1852373519285N08434853WA0079500828000000000000
B1852403519319N08434849WA0080000828000000000000
B1852433519348N08434811WA0080100829000000000000
B1852463519352N08434750WA0080000826000000000000
B1852493519322N08434696WA0079800830000000000000
B1852523519279N08434672WA0080400837000000000000
B1852553519237N08434681WA0080600836000000000000
B1852583519209N08434710WA0080800843000000000000
B1853013519188N08434741WA0081400851000000000000
B1853043519197N08434771WA0081700850000000000000
B1853073519222N08434788WA0081600848000004000000
B1853103519254N08434787WA0081500850000004000000
B1853133519285N08434759WA0081500844000004000000
B1853163519305N08434710WA0081000838000004000000
B1853193519306N08434647WA0080400832000004000000
B1853223519272N08434593WA0079900832000004000000
B1853253519236N08434547WA0080200844000000000000
B1853283519202N08434525WA0081500856000000000000
B1853313519167N08434541WA0081700839000000000000
B1853343519157N08434585WA0080300838000004000000
B1853373519166N08434611WA0081000858000000000000
B1853403519187N08434619WA0082000849000004000000
B1853433519220N08434616WA0081100843000004000000
B1853463519249N08434618WA0081100850000000000000
B1853493519276N08434623WA0081000838000000000000
B1853523519315N08434628WA0080200829000000000000
B1853553519353N08434653WA0079500833000000000000
B1853583519366N08434690WA0080600857000000000000
B1854013519350N08434722WA0082400862000000000000
B1854043519330N08434748WA0082500853000000000000
B1854073519320N08434785WA0081300834000000000000
B1854103519319N08434836WA0079600824000000000000
B1854133519330N08434887WA0079100827000000000000
B1854163519350N08434927WA0079600835000000000000
B1854193519370N08434961WA0080000832000000000000
B1854223519388N08435001WA0079000814000004000000
B1854253519415N08435047WA0076900791000004000000
B1854283519457N08435088WA0075200782000004000000
B1854313519505N08435118WA0074500781000000000000
B1854343519557N08435136WA0074500783000000000000
B1854373519609N08435148WA0074300778000000000000
B1854403519664N08435154WA0073900770000000000000
B1854433519721N08435157WA0073100765000000000000
B1854463519779N08435157WA0072600758000000000000
B1854493519839N08435158WA0072100758000004000000
B1854523519895N08435171WA0072100762000004000000
B1854553519944N08435190WA0072600763000004000000
B1854583519993N08435209WA0072700764000000000000
B1855013520039N08435226WA0072700761000000000000
B1855043520086N08435244WA0072500758000004000000
B1855073520132N08435264WA0072200754000004000000
B1855103520178N08435284WA0071400741000004000000
B1855133520230N08435305WA0070100734000000000000
B1855163520280N08435325WA0070200742000004000000
B1855193520324N08435338WA0070700750000000000000
B1855223520366N08435351WA0071200752000004000000
B1855253520406N08435364WA0071400746000000000000
B1855283520450N08435377WA0070700734000000000000
B1855313520496N08435394WA0069600721000000000000
B1855343520544N08435411WA0068800723000004000000
B1855373520592N08435424WA0068700722000004000000
B1855403520637N08435435WA0069100738000004000000
B1855433520675N08435439WA0070400745000004000000
B1855463520711N08435450WA0070600733000000000000
B1855493520754N08435468WA0068900710000004000000
B1855523520808N08435490WA0067000697000000000000
B1855553520862N08435511WA0066200705000000000000
B1855583520908N08435530WA0067500723000000000000
B1856013520943N08435547WA0069400742000000000000
B1856043520971N08435564WA0070700745000000000000
B1856073521000N08435581WA0070700736000004000000
B1856103521034N08435600WA0069800723000004000000
B1856133521070N08435626WA0068400708000004000000
B1856163521107N08435660WA0067000698000004000000
B1856193521139N08435698WA0066200693000000000000
B1856223521179N08435729WA0065700684000004000000
B1856253521225N08435754WA0064500671000004000000
B1856283521276N08435776WA0063300661000004000000
B1856313521329N08435793WA0062300657000000000000
B1856343521384N08435804WA0061900654000004000000
B1856373521438N08435812WA0061600652000000000000
B1856403521491N08435816WA0061400653000004000000
B1856433521542N08435819WA0061500651000004000000
B1856463521593N08435820WA0061500649000000000000
B1856493521645N08435816WA0060900637000004000000
B1856523521701N08435803WA0059800628000000000000
B1856553521758N08435785WA0058900621000004000000
B1856583521815N08435763WA0058700620000000000000
B1857013521868N08435739WA0058500621000000000000
B1857043521922N08435717WA0058600621000000000000
B1857073521974N08435697WA0058300611000000000000
B1857103522030N08435674WA0057400602000000000000
B1857133522087N08435656WA0056600596000000000000
B1857163522141N08435641WA0056200596000000000000
B1857193522193N08435625WA0056400599000000000000
B1857223522244N08435609WA0056400595000000000000
B1857253522295N08435594WA0055800585000000000000
B1857283522347N08435578WA0055000580000000000000
B1857313522399N08435568WA0054500574000000000000
B1857343522452N08435568WA0053800568000000000000
B1857373522504N08435570WA0053500565000000000000
B1857403522557N08435570WA0053200567000000000000
B1857433522603N08435570WA0053900580000000000000
B1857463522641N08435574WA0055300595000000000000
B1857493522673N08435581WA0056500595000000000000
B1857523522703N08435582WA0057000604000000000000
B1857553522729N08435576WA0057700607000000000000
B1857583522759N08435565WA0057700595000000000000
B1858013522795N08435547WA0056900592000000000000
B1858043522829N08435526WA0056400587000000000000
B1858073522867N08435507WA0055400569000004000000
B1858103522912N08435481WA0053600554000004000000
B1858133522963N08435453WA0052100540000004000000
B1858163523019N08435451WA0050800532000000000000
B1858193523072N08435460WA0050300533000004000000
B1858223523120N08435469WA0050700542000000000000
B1858253523165N08435472WA0051400548000000000000
B1858283523206N08435472WA0052000552000000000000
B1858313523244N08435472WA0052200547000000000000
B1858343523284N08435468WA0051700538000004000000
B1858373523327N08435446WA0050900529000004000000
B1858403523367N08435411WA0050100526000004000000
B1858433523404N08435373WA0050100529000000000000
B1858463523443N08435355WA0050200530000000000000
B1858493523477N08435339WA0050600534000000000000
B1858523523508N08435325WA0050600530000004000000
B1858553523540N08435307WA0050100521000004000000
B1858583523577N08435286WA0049200511000004000000
B1859013523614N08435260WA0048500510000004000000
B1859043523651N08435234WA0048400514000004000000
B1859073523677N08435200WA0049100520000004000000
B1859103523704N08435173WA0049400513000004000000
B1859133523740N08435149WA0048500498000004000000
B1859163523765N08435092WA0047500500000004000000
B1859193523755N08435028WA0047800510000004000000
B1859223523730N08434976WA0048300508000004000000
B1859253523699N08434928WA0048100503000000000000
B1859283523660N08434889WA0047800501000000000000
B1859313523617N08434867WA0047800504000004000000
B1859343523577N08434858WA0048000507000004000000
B1859373523536N08434859WA0048300508000004000000
B1859403523500N08434868WA0048300505000004000000
B1859433523471N08434893WA0047900502000004000000
B1859463523443N08434914WA0047900502000004000000
B1859493523425N08434941WA0047700497000000000000
B1859523523418N08434972WA0047300490000000000000
B1859553523432N08435004WA0046600478000000000000
B1859583523465N08435019WA0045700478000000000000
B1900013523500N08435027WA0045500477000000000000
B1900043523538N08435024WA0045300474000000000000
B1900073523574N08435015WA0045300479000000000000
B1900103523605N08435022WA0045500478000000000000
B1900133523638N08435022WA0045400476000004000000
B1900163523673N08435001WA0045000469000004000000
B1900193523700N08434954WA0044500469000004000000
B1900223523705N08434898WA0044800475000004000000
B1900253523708N08434845WA0045100474000004000000
B1900283523704N08434790WA0044800466000004000000
B1900313523683N08434735WA0044100460000004000000
B1900343523647N08434692WA0043500459000004000000
B1900373523605N08434664WA0043500458000004000000
B1900403523561N08434658WA0043300456000004000000
B1900433523519N08434666WA0043100455000004000000
B1900463523483N08434684WA0043100457000004000000
B1900493523451N08434705WA0043500461000000000000
B1900523523421N08434724WA0043600458000000000000
B1900553523386N08434740WA0043100448000000000000
B1900583523341N08434749WA0042200442000000000000
B1901013523301N08434759WA0041800441000000000000
B1901043523258N08434759WA0041700440000000000000
B1901073523215N08434753WA0041500435000000000000
B1901103523171N08434744WA0041000430000000000000
B1901133523126N08434732WA0040500427000000000000
B1901163523081N08434705WA0040100419000000000000
B1901193523045N08434658WA0039400413000000000000
B1901223523012N08434605WA0038900407000000000000
B1901253522981N08434549WA0038200402000000000000
B1901283522949N08434491WA0037800397000000000000
B1901313522918N08434434WA0037300396000000000000
B1901343522886N08434384WA0037500406000004000000
B1901373522850N08434352WA0038600418000004000000
B1901403522815N08434328WA0039000412000004000000
B1901433522790N08434277WA0038200400000004000000
B1901463522797N08434213WA0037500396000004000000
B1901493522827N08434166WA0036800389000004000000
B1901523522867N08434146WA0035900373000004000000
B1901553522911N08434138WA0034600363000004000000
B1901583522955N08434121WA0033700354000004000000
B1902013523001N08434103WA0032600343000004000000
B1902043523048N08434082WA0031900335000004000000
B1902073523094N08434064WA0031000321000004000000
B1902103523142N08434044WA0029900312000004000000
B1902133523191N08434022WA0028800299000004000000
B1902163523240N08434003WA0027700288000000000000
B1902193523293N08433982WA0026600278000004000000
B1902223523347N08433960WA0025500267000004000000
B1902253523397N08433938WA0024500255000004000000
B1902283523447N08433917WA0023400246000004000000
B1902313523490N08433899WA0022600244000004000000
B1902343523529N08433883WA0022500243000004000000
B1902373523560N08433870WA0022700244000004000000
B1902403523588N08433858WA0022800244000004000000
B1902433523614N08433848WA0022800244000004000000
B1902463523636N08433836WA0022900244000000000000
B1902493523655N08433822WA0022900244000000000000
B1902523523668N08433805WA0022900244000000000000
B1902553523679N08433789WA0023000243000004000000
B1902583523688N08433776WA0023000244000004000000
B1903013523695N08433766WA0023100245000000000000
B1903043523699N08433760WA0023100245000000000000
B1903073523701N08433758WA0023100245000000000000
B1903103523701N08433758WA0023100245000000000000
B1903133523701N08433758WA0023100245000000000000
B1903163523701N08433758WA0023100246000000000000
B1903193523701N08433758WA0023100245000000000000
B1903223523701N08433758WA0023100245000004000000
B1903253523701N08433758WA0023100246000004000000
B1903283523701N08433758WA0023100246000004000000
B1903313523701N08433758WA0023100246000000000000
G0003000000BB9EFE9B0000000000000000000000000000000000000000000000
GB1FA520256544CB94E691D176FB392444FAC126B0000000080DDFFEE93FB4A7D
G88371F5E479E323F10188BFBE21D72C167CBE02000000000000000007B72EA9E
