ANKL0ZH
HFDTE240921
HFFXA050
HFPLTPILOT:Nelson Howe
HFGTYGLIDERTYPE:Discus 2b
HFGIDGLIDERID:1X       .
HFDTM100GPSDATUM:
HFRFWFIRMWAREVERSION:40 2011-6-17
HFRHWHARDWAREVERSION: NKL ClearNav V1.0
HFFTYFRTYPE:Nielsen Kellerman, ClearNav-IGC
HFGPS:UBLOX,LEA-4H-0-000-1,16Ch,18000 
HFPRSPRESSALTSENSOR:Intersema,MS5534B,20000 
I033638FXA3941ENL4247REX
C240921161834000000000104
C0000000N00000000WTAKEOFF     
C3731832N08002266WAlt Start A
C3712466N08024500WArea Blacksb
C3757083N07950033WArea Ingalls
C3735483N08032617WArea Union W
C3739867N07948582WArea Eagle R
C3728766N08006133WFinish Cylin
C0000000N00000000WLANDING     
B1628363728602N08006108WA0036000408002000002008
B1628373728602N08006108WA0036000408002000002008
B1628383728602N08006108WA0035900408002000002008
B1628393728602N08006108WA0036100408002000002008
B1628403728602N08006108WA0036000408002000002008
B1628413728602N08006108WA0036000408002000002008
B1628423728602N08006108WA0035900408002000002008
B1628433728602N08006108WA0036100408002000002008
B1628443728602N08006108WA0036000408002000002008
B1628453728602N08006108WA0036000408002000002008
B1628463728602N08006108WA0036000408002000002008
B1628473728602N08006108WA0036000408002000002008
B1628483728602N08006108WA0036000408002000002008
B1628493728603N08006108WA0036100408001000002008
B1628503728603N08006108WA0036000408001000002008
B1628513728603N08006108WA0036000408001000002008
B1628523728603N08006108WA0036000408002000002008
B1628533728603N08006108WA0036100408002000002008
B1628543728603N08006108WA0036000408002000002008
B1628553728603N08006108WA0036000408002000002008
B1628563728603N08006108WA0036000408002000002008
B1628573728603N08006108WA0036000408002000002008
B1628583728603N08006108WA0036000408002000002008
B1628593728603N08006108WA0036000408002000002008
B1629003728603N08006108WA0036000408001000002008
B1629013728603N08006108WA0036000407001000002008
B1629023728603N08006108WA0036100407001000002008
B1629033728603N08006108WA0036000407001000002008
B1629043728603N08006108WA0036000407001000002008
B1629053728603N08006108WA0036000407001000002008
B1629063728603N08006108WA0036000407001000002008
B1629073728603N08006108WA0036000407001000002008
B1629083728603N08006108WA0035900407001000002008
B1629093728603N08006108WA0036000407001000002008
B1629103728603N08006108WA0036000407001000002008
B1629113728603N08006108WA0036000407001000002008
B1629123728603N08006108WA0036000407001000002008
B1629133728603N08006108WA0036000407001000002008
B1629143728603N08006108WA0036100407001000002008
B1629153728603N08006108WA0036100407001000002008
B1629163728603N08006108WA0036100407001000002008
B1629173728603N08006108WA0036000407001000002008
B1629183728603N08006108WA0036000407001000002008
B1629193728603N08006108WA0036000407001000002008
B1629203728603N08006108WA0036000407001000002008
B1629213728603N08006108WA0036000407001000002008
B1629223728603N08006108WA0035900407001000002008
B1629233728603N08006108WA0036000407001000002008
B1629243728603N08006108WA0036000407001000002008
B1629253728603N08006108WA0036000407001000002008
B1629263728603N08006108WA0036000408001000002008
B1629273728603N08006107WA0036000408001000002008
B1629283728603N08006107WA0036000408001000002008
B1629293728603N08006107WA0036000408001000002008
B1629303728603N08006107WA0036100408001000002008
B1629313728603N08006107WA0036000408001000002008
B1629323728603N08006107WA0036000408001000002008
B1629333728603N08006107WA0036000408001000002008
B1629343728603N08006107WA0036000408001000002008
B1629353728603N08006107WA0036100408001002002008
B1629363728603N08006107WA0036000408001011002008
B1629373728603N08006107WA0036000408001018002008
B1629383728603N08006107WA0035900408001024002008
B1629393728603N08006107WA0035900408001027002008
B1629403728603N08006107WA0036000408001024002008
B1629413728603N08006108WA0036100408001020002008
B1629423728603N08006108WA0036000408001015002008
B1629433728603N08006108WA0035900408001013002008
B1629443728603N08006108WA0036100408001011002008
B1629453728603N08006108WA0036000408001013002008
B1629463728603N08006108WA0036100408001015002008
B1629473728603N08006107WA0036000408001015002008
B1629483728603N08006107WA0035900408001022002008
B1629493728603N08006108WA0036000408001025002008
B1629503728603N08006107WA0036000408001027002008
B1629513728603N08006107WA0036000408001027002008
B1629523728603N08006107WA0036000408001024002008
B1629533728603N08006107WA0036000408001022002008
B1629543728603N08006107WA0036000408001020002008
B1629553728603N08006107WA0036000408001015002008
B1629563728603N08006107WA0036000408001009002008
B1629573728603N08006107WA0036000408001004002008
B1629583728603N08006108WA0036000408001002002008
B1629593728603N08006108WA0036000408001002002008
B1630003728603N08006108WA0036000408001002002008
B1630013728603N08006108WA0036000408001000002008
B1630023728603N08006108WA0036000408001000002008
B1630033728603N08006108WA0036100408001000002008
B1630043728603N08006108WA0036000408001000002008
B1630053728603N08006108WA0036000408001000002008
B1630063728603N08006108WA0036000408001000002008
B1630073728603N08006108WA0036000408001000002008
B1630083728603N08006108WA0036000408001000002008
B1630093728603N08006108WA0036000408001000002008
B1630103728603N08006108WA0036000408001000002008
B1630113728603N08006108WA0036000408001002002008
B1630123728603N08006108WA0036000408001009002008
B1630133728603N08006108WA0036000408001015002008
B1630143728603N08006108WA0036000407001020002008
B1630153728603N08006108WA0036000407001022002008
B1630163728603N08006107WA0036000407001024002008
B1630173728603N08006107WA0036000407001022002008
B1630183728603N08006107WA0035900407001018002008
B1630193728603N08006108WA0036100407001013002008
B1630203728603N08006108WA0036000407001006002008
B1630213728603N08006108WA0036000407001002002008
B1630223728603N08006108WA0036000407001002002008
B1630233728603N08006108WA0036000407001002002008
B1630243728603N08006108WA0036100407001004002008
B1630253728603N08006108WA0036000407001011002008
B1630263728603N08006108WA0036000407001015002008
B1630273728603N08006108WA0036000407001020002008
B1630283728603N08006107WA0036000407001027002008
B1630293728603N08006107WA0036100407001027002008
B1630303728603N08006107WA0036000407001029002008
B1630313728603N08006107WA0036000407001034002008
B1630323728602N08006107WA0036000407001036002008
B1630333728602N08006107WA0036000407001046002008
B1630343728603N08006108WA0036100407001050002008
B1630353728604N08006108WA0036000407001050002008
B1630363728607N08006108WA0036100407001050002000
F163036510524464413152918202330
B1630373728611N08006108WA0035900407001053002000
B1630383728615N08006108WA0035900407001060002000
B1630393728621N08006109WA0035900407001071002000
B1630403728628N08006109WA0035900407001085002000
B1630413728636N08006110WA0035800406001099002000
B1630423728644N08006111WA0035800406001118002000
B1630433728654N08006112WA0035700406001141002000
B1630443728665N08006113WA0035800405001160002000
B1630453728676N08006114WA0035800405001170002000
B1630463728689N08006114WA0035500405001170002000
B1630473728702N08006116WA0035700404001153002000
B1630483728716N08006117WA0035600404001132002000
B1630493728731N08006118WA0035500404001111002000
B1630503728746N08006120WA0035700404001093002000
B1630513728762N08006121WA0035800404001076002000
B1630523728778N08006122WA0035800404001064002000
B1630533728795N08006122WA0036300405001055002000
B1630543728813N08006122WA0036300407001046002000
B1630553728830N08006121WA0036200408001041002000
B1630563728849N08006122WA0036300409001039002000
B1630573728867N08006124WA0036500410001037002000
B1630583728886N08006126WA0036600411001037002000
B1630593728904N08006129WA0036900412001037002000
B1631003728924N08006131WA0037100415001034002000
B1631013728943N08006133WA0037600418001032002000
B1631023728962N08006134WA0038000421001032002000
B1631033728982N08006134WA0038000425001032002000
B1631043729002N08006134WA0038300427001034002000
B1631053729022N08006132WA0038400429001037002000
B1631063729042N08006129WA0038600431001037002000
B1631073729063N08006125WA0038700432001034002000
B1631083729083N08006120WA0039200434001034002000
B1631093729103N08006115WA0039500438001034002000
B1631103729123N08006109WA0039800441001032002000
B1631113729142N08006104WA0040000444001034002000
B1631123729162N08006098WA0040300447001034002000
B1631133729182N08006092WA0040400450001034002000
B1631143729202N08006086WA0040600451001037002000
B1631153729222N08006080WA0041000453001037002000
B1631163729242N08006074WA0041300456001034002000
B1631173729262N08006067WA0041700459001034002000
B1631183729283N08006062WA0041800462001034002000
B1631193729303N08006057WA0042300465001034002000
B1631203729324N08006055WA0042500469001037002000
B1631213729345N08006055WA0043100472001037002000
B1631223729366N08006055WA0043300476001037002000
B1631233729388N08006055WA0043900481001037002000
B1631243729409N08006056WA0044200485001037002000
B1631253729430N08006057WA0044500490001037002000
B1631263729451N08006059WA0045000493001037002000
B1631273729472N08006062WA0045200497001037002000
B1631283729492N08006065WA0045600500001037002000
B1631293729513N08006069WA0045900504001037002000
B1631303729534N08006073WA0046100507001037002000
B1631313729556N08006076WA0046200509001034002000
B1631323729577N08006079WA0046800511001034002000
B1631333729599N08006083WA0047100514001034002000
B1631343729621N08006085WA0047300518001034002000
B1631353729642N08006088WA0047600521001037002000
B1631363729665N08006090WA0047800523001037002000
B1631373729687N08006092WA0048400526001037002000
B1631383729709N08006093WA0048800531001037002000
B1631393729731N08006093WA0049300535001039002000
B1631403729753N08006090WA0049800541001039002000
B1631413729775N08006085WA0050200546001041002000
B1631423729796N08006078WA0050800551001041002000
B1631433729816N08006069WA0051200556002039002000
B1631443729835N08006058WA0051700561002041002000
B1631453729854N08006044WA0052200567002041002000
B1631463729871N08006029WA0052700571002041002000
B1631473729887N08006012WA0053100576002041002000
B1631483729901N08005994WA0053600580002039002000
B1631493729914N08005974WA0053900584002037002000
B1631503729927N08005952WA0054400588002037002000
B1631513729938N08005930WA0054900592002037002000
B1631523729947N08005907WA0055400597002037002000
B1631533729956N08005883WA0055700602002037002000
B1631543729963N08005859WA0056200606002037002000
B1631553729969N08005834WA0056600610002037002000
B1631563729974N08005808WA0057000615002037002000
B1631573729977N08005782WA0057600619002039002000
B1631583729977N08005756WA0058200625002039002000
B1631593729976N08005730WA0058800631002039003000
B1632003729973N08005705WA0059300638002039002000
B1632013729968N08005680WA0059700644002037002000
B1632023729962N08005655WA0059700648002037002000
B1632033729955N08005631WA0060000650002037002000
B1632043729947N08005607WA0060200651002037002000
B1632053729937N08005583WA0060400652002037003000
B1632063729926N08005561WA0060300653002037003000
B1632073729912N08005540WA0060300654002037003000
B1632083729898N08005521WA0060500655002037003000
B1632093729882N08005502WA0060800656002037003000
B1632103729865N08005486WA0061200658002037002000
B1632113729847N08005470WA0061400661002037002000
B1632123729828N08005456WA0061800665002037002000
B1632133729809N08005444WA0062200668002037002000
B1632143729789N08005433WA0062500671002037002000
B1632153729768N08005423WA0062900675002037002000
B1632163729747N08005415WA0063200679002037002000
B1632173729726N08005409WA0063600682002037002000
B1632183729704N08005403WA0064000686002037002000
B1632193729683N08005399WA0064200690002037002000
B1632203729661N08005395WA0064600693002037002000
B1632213729639N08005392WA0065000697002037002000
B1632223729618N08005390WA0065700701002037002000
B1632233729596N08005388WA0066100706002037002000
B1632243729574N08005387WA0066500711002037002000
B1632253729553N08005387WA0067000716002037002000
B1632263729532N08005387WA0067400720002037002000
B1632273729510N08005386WA0067400723002037002000
B1632283729489N08005386WA0067500725002037002000
B1632293729467N08005385WA0067600726002037002000
B1632303729446N08005384WA0067700726002037002000
B1632313729425N08005383WA0067900728002037002000
B1632323729404N08005383WA0068300730002037002000
B1632333729384N08005384WA0068600733002037002000
B1632343729363N08005386WA0068900736002037002000
B1632353729343N08005388WA0069100739002037002000
B1632363729323N08005390WA0069200742002037002000
B1632373729302N08005392WA0069300743002037002000
B1632383729282N08005393WA0069400744002037002000
B1632393729261N08005394WA0069400745002037002000
B1632403729240N08005396WA0069300746002037002000
B1632413729219N08005398WA0069300745002034002000
B1632423729198N08005399WA0069300744002034002000
B1632433729177N08005402WA0069300743002034002000
B1632443729156N08005405WA0069100743002034002000
B1632453729135N08005410WA0069300743002037002000
B1632463729114N08005415WA0069500744002037002000
B1632473729093N08005422WA0069800746002037002000
B1632483729073N08005430WA0069900749002037002000
B1632493729053N08005441WA0070000751002037002000
B1632503729035N08005453WA0070300753002037002000
B1632513729017N08005467WA0070500755002037002000
B1632523729001N08005483WA0070900757002037002000
B1632533728986N08005500WA0071100760002037002000
B1632543728972N08005519WA0071400763002037002000
B1632553728959N08005539WA0071800765002034002000
B1632563728948N08005559WA0072200769002032002000
B1632573728937N08005581WA0072600773002032002000
B1632583728928N08005603WA0072500776002032002000
B1632593728919N08005625WA0072700778002032002000
B1633003728911N08005648WA0072900779002034002000
B1633013728903N08005671WA0072900780002032002000
B1633023728897N08005694WA0073100781002029002000
B1633033728892N08005719WA0073100782002032002000
B1633043728887N08005743WA0073300784002029002000
B1633053728884N08005768WA0073500785002029002000
B1633063728882N08005793WA0073800787002029002000
B1633073728880N08005818WA0074000789002027002000
B1633083728880N08005843WA0074300792002027002000
B1633093728881N08005868WA0074500794002029002000
B1633103728883N08005893WA0074800797002032002000
B1633113728887N08005917WA0075100799002032002000
B1633123728892N08005941WA0075500802002032002000
B1633133728897N08005965WA0075800806002032002000
B1633143728902N08005989WA0076000810002032002000
B1633153728908N08006012WA0076400813002032002000
B1633163728914N08006035WA0076500816002032002000
B1633173728922N08006058WA0076700818002029002000
B1633183728931N08006079WA0077000820002027002000
B1633193728941N08006100WA0077200822002027002000
B1633203728953N08006119WA0077700824002029002000
B1633213728965N08006138WA0078100828002032002000
B1633223728978N08006155WA0078400832002034002000
B1633233728991N08006173WA0078900837002037002000
B1633243729004N08006191WA0079000840002037002000
B1633253729016N08006209WA0079400844002037002000
B1633263729029N08006228WA0080000848002037002000
B1633273729041N08006247WA0080400852002037002000
B1633283729055N08006264WA0081100857002037002000
B1633293729071N08006279WA0081800864002037002000
B1633303729088N08006292WA0082700871002037002000
B1633313729106N08006303WA0082700877002037002000
B1633323729125N08006315WA0083400883002037002000
B1633333729142N08006329WA0084000888002034002000
B1633343729158N08006343WA0084700894002034002000
B1633353729174N08006359WA0085100899002034002000
B1633363729189N08006376WA0085800905002034002000
B1633373729203N08006392WA0086200911002037002000
B1633383729218N08006409WA0086900917002037002000
B1633393729233N08006425WA0087300922002037002000
B1633403729248N08006440WA0088000928002037002000
B1633413729262N08006456WA0088600935002037002000
B1633423729276N08006473WA0089100942002037002000
B1633433729288N08006492WA0089500947002037002000
B1633443729300N08006511WA0090000952002037002000
B1633453729310N08006531WA0090600957002037002000
B1633463729320N08006552WA0091000962002037002000
B1633473729329N08006573WA0091400967002037002000
B1633483729337N08006594WA0091700971002037002000
B1633493729346N08006615WA0092000974002037002000
B1633503729354N08006636WA0092400978002037002000
B1633513729362N08006658WA0092800981002037002000
B1633523729369N08006680WA0093100985002037002000
B1633533729376N08006703WA0093200988002037002000
B1633543729381N08006726WA0093800990002039002000
B1633553729386N08006749WA0094000993002039002000
B1633563729389N08006773WA0094700997002039002000
B1633573729391N08006796WA0095301003002041002000
B1633583729391N08006820WA0096001010002041002000
B1633593729391N08006844WA0096501016002043002000
B1634003729388N08006868WA0097301022002043002000
B1634013729385N08006892WA0097501028002041002000
B1634023729379N08006916WA0097701032002039002000
B1634033729372N08006940WA0097701035002037002000
B1634043729365N08006963WA0097901036002037002000
B1634053729357N08006987WA0098101037002037002000
B1634063729349N08007010WA0098201038002037002000
B1634073729340N08007033WA0098501039002037002000
B1634083729330N08007055WA0098601041002037002000
B1634093729318N08007077WA0099001043002039002000
B1634103729306N08007097WA0099201045002039002000
B1634113729293N08007117WA0099501048002039002000
B1634123729280N08007136WA0100001052002039002000
B1634133729267N08007155WA0100401056002037002000
B1634143729253N08007172WA0100901061002039002000
F163414510524441315291820233002
B1634153729238N08007189WA0100901065002041002000
B1634163729222N08007204WA0101001067002041002000
B1634173729206N08007220WA0101601069002043002000
B1634183729190N08007235WA0101801072002041002000
B1634193729173N08007251WA0101801074002039002000
B1634203729157N08007266WA0102101076002039002000
B1634213729141N08007281WA0102401077002037002000
B1634223729125N08007296WA0102401079002037002000
B1634233729107N08007310WA0103001082002037002000
B1634243729090N08007323WA0103001084002039002000
B1634253729071N08007335WA0103101086002041002000
B1634263729053N08007347WA0103501088002043002000
B1634273729035N08007360WA0103301089002043002000
B1634283729017N08007374WA0103401090002043003000
B1634293729000N08007388WA0103601090002041003000
B1634303728982N08007401WA0103901092002039003000
B1634313728963N08007414WA0104301094002041003000
B1634323728945N08007426WA0104701098002039003000
B1634333728926N08007438WA0105101103002041003000
B1634343728906N08007449WA0105501107002043003000
B1634353728887N08007460WA0105501110002043003000
B1634363728867N08007471WA0105901112002046003000
B1634373728847N08007481WA0106301115002046003000
B1634383728827N08007492WA0106801118002046003000
B1634393728807N08007502WA0106701122002046003000
B1634403728787N08007512WA0106801125002046003000
B1634413728767N08007522WA0106801125002043003000
B1634423728747N08007532WA0106901126002041003000
B1634433728726N08007542WA0107101127002039003000
B1634443728705N08007551WA0107301128002039003000
B1634453728685N08007561WA0107401130002039003000
B1634463728665N08007572WA0107701132002041003000
B1634473728645N08007583WA0108101135002041003000
B1634483728626N08007593WA0108301138002039003000
B1634493728606N08007604WA0108701141002039003000
B1634503728586N08007614WA0108801144002037003000
B1634513728567N08007624WA0109101146002037003000
B1634523728547N08007634WA0109201149002037003000
B1634533728527N08007644WA0109301150002037003000
B1634543728506N08007654WA0109401151002037003000
B1634553728486N08007663WA0109601152002037003000
B1634563728466N08007672WA0109901154002037003000
B1634573728446N08007682WA0110101157002037003000
B1634583728426N08007692WA0110301159002037003000
B1634593728406N08007702WA0110501161002037003000
B1635003728385N08007711WA0110501162002037002000
B1635013728365N08007721WA0111001163002037002000
B1635023728345N08007730WA0110801165002039002000
B1635033728324N08007739WA0111101167002043002000
B1635043728304N08007747WA0111601170002048002000
B1635053728284N08007756WA0111901174002050002000
B1635063728266N08007766WA0111801177002050002000
B1635073728248N08007777WA0111701178002055002000
B1635083728231N08007789WA0111401178002060002000
B1635093728215N08007802WA0111301176002064002000
B1635103728199N08007814WA0111101175002069002000
B1635113728183N08007827WA0111001174002062003000
B1635123728168N08007839WA0111101173002055003000
B1635133728152N08007850WA0111401173002050003000
B1635143728137N08007862WA0111401175002046003000
B1635153728121N08007872WA0111501176002053003000
B1635163728106N08007882WA0111701178002064003000
B1635173728090N08007891WA0112001179002081003000
B1635183728074N08007899WA0112001181002097003000
B1635193728058N08007907WA0111901181002104003000
B1635203728042N08007915WA0111701180002109003000
B1635213728026N08007923WA0111601179002109003000
B1635223728010N08007929WA0111401177002111003000
B1635233727994N08007934WA0111301176002118003000
B1635243727977N08007939WA0111301174002123003000
B1635253727960N08007941WA0111201173002127003000
B1635263727943N08007940WA0110801171002132003000
B1635273727926N08007934WA0110601169002130003000
B1635283727912N08007923WA0110501167003125003000
B1635293727901N08007907WA0110401165003118003000
B1635303727894N08007886WA0110101164003107003000
B1635313727891N08007865WA0110301162003100003000
B1635323727894N08007843WA0110201162003097003000
B1635333727900N08007822WA0110101162003100003000
B1635343727909N08007802WA0110001161003107003000
B1635353727920N08007783WA0109901159002116003000
B1635363727932N08007766WA0109501158002125003000
B1635373727946N08007750WA0109301156002132003000
B1635383727962N08007736WA0109101154002139003000
B1635393727978N08007723WA0109001152002142003000
B1635403727994N08007711WA0108701150002139003000
B1635413728012N08007700WA0108601148002139003000
B1635423728030N08007690WA0108301146002137003000
B1635433728049N08007680WA0108301145002137003000
B1635443728067N08007671WA0108401145002135003000
B1635453728086N08007661WA0108401145002123003000
B1635463728105N08007652WA0108301145002109003000
B1635473728124N08007643WA0108101145002097003000
B1635483728143N08007634WA0107701142002090003000
B1635493728162N08007626WA0107301139002095003000
B1635503728182N08007617WA0107101136002097003000
B1635513728201N08007609WA0106701132002097003000
B1635523728220N08007601WA0106601130002100003000
B1635533728239N08007593WA0106501128002097003000
B1635543728258N08007584WA0106401126002097003000
B1635553728277N08007575WA0106201124002095003000
B1635563728296N08007566WA0105801122002090003000
B1635573728315N08007557WA0105401119002083003000
B1635583728334N08007547WA0105201115002076003000
B1635593728353N08007537WA0104801112002069003000
B1636003728372N08007527WA0104601109002062003000
B1636013728390N08007516WA0104301107002055003000
B1636023728409N08007504WA0104201105002048003000
B1636033728427N08007492WA0104001103002043003000
B1636043728445N08007479WA0103901101002039003000
B1636053728462N08007466WA0103701099002037003000
B1636063728480N08007454WA0103601098002034003000
B1636073728497N08007441WA0103601097002034003000
B1636083728515N08007429WA0103601096002034003000
B1636093728532N08007416WA0103501096002034003000
B1636103728549N08007404WA0103301094002044003000
B1636113728566N08007391WA0103201093002051003000
B1636123728583N08007378WA0102901091002055003000
B1636133728599N08007365WA0102801089002057003000
B1636143728616N08007352WA0102501086002055003000
B1636153728632N08007339WA0102401084002057003000
B1636163728649N08007326WA0102301083002062003000
B1636173728665N08007314WA0102001082002067003000
B1636183728682N08007301WA0101901080002067003000
B1636193728698N08007289WA0101601078002062003000
B1636203728715N08007276WA0101601077002060003000
B1636213728731N08007263WA0101501075002067003000
B1636223728747N08007251WA0101501075002078003000
B1636233728763N08007238WA0101401074002086003000
B1636243728779N08007226WA0101001073002086003000
B1636253728795N08007214WA0101001071002074003000
B1636263728811N08007201WA0100901068002060003000
B1636273728827N08007188WA0100901068002048003000
B1636283728842N08007175WA0100501067002041003000
B1636293728857N08007160WA0100301064002036003000
B1636303728871N08007143WA0100001061002032003000
B1636313728883N08007125WA0099701058002029003000
B1636323728895N08007105WA0099501055002029003000
B1636333728906N08007084WA0099101052002032003000
B1636343728916N08007062WA0098701048002034003000
B1636353728925N08007039WA0098401045002034003000
B1636363728934N08007016WA0098101042002032003000
B1636373728943N08006992WA0097601038002029003000
B1636383728953N08006969WA0097301035002029003000
B1636393728963N08006945WA0097001032002032003000
B1636403728974N08006923WA0097001029002041003000
B1636413728986N08006901WA0096701027002053003000
B1636423728999N08006879WA0096501025002067003000
B1636433729012N08006859WA0096201023002083003000
B1636443729025N08006838WA0096101022002085003000
B1636453729039N08006818WA0096001020002090003000
B1636463729053N08006798WA0096001019002083003000
B1636473729066N08006778WA0096001018002067003000
B1636483729080N08006759WA0095901018002058003000
B1636493729094N08006739WA0095801017002044003000
B1636503729107N08006720WA0096001017002037003000
B1636513729120N08006700WA0096101018002039003000
B1636523729133N08006681WA0096101019002039003000
B1636533729145N08006662WA0096201019002036003000
B1636543729157N08006641WA0096401020002036003000
B1636553729168N08006621WA0096501022002039003000
B1636563729179N08006600WA0096701024002046003000
B1636573729190N08006580WA0096701025002060003000
B1636583729201N08006560WA0096701025002076003000
B1636593729212N08006540WA0096801026002090003000
B1637003729222N08006520WA0096901026002107003000
B1637013729233N08006500WA0096801026002111003000
B1637023729244N08006481WA0096801026002107003000
B1637033729256N08006462WA0096901027002100003000
B1637043729267N08006443WA0096701027002083003000
B1637053729279N08006424WA0096701027002074003000
B1637063729291N08006406WA0096601025002069003000
B1637073729303N08006387WA0096601024002058003000
B1637083729314N08006368WA0096501023002051003000
B1637093729325N08006349WA0096301022002048003000
B1637103729337N08006330WA0096101020002048003000
B1637113729348N08006310WA0095701018002055003000
B1637123729360N08006291WA0095401015002057003000
B1637133729372N08006271WA0095301012002053003000
B1637143729385N08006251WA0095201011002048003000
B1637153729397N08006231WA0095201011002048003000
B1637163729410N08006211WA0095101010002053003000
B1637173729423N08006191WA0094901009002057003000
B1637183729436N08006171WA0094701007002060003000
B1637193729449N08006152WA0094801006002055003000
B1637203729463N08006133WA0094801006002045003000
B1637213729478N08006116WA0094801006002038003000
B1637223729495N08006102WA0095301008002034003000
F1637225105244413152918202302
B1637233729513N08006094WA0095601010002032003000
B1637243729532N08006092WA0096001014003032003000
B1637253729550N08006098WA0096601019003032004000
B1637263729565N08006110WA0097101024003032004000
F163726510524441315291830202302
B1637273729576N08006128WA0097701029003029004000
B1637283729583N08006149WA0098101034003025004000
B1637293729584N08006172WA0098401038003020004000
B1637303729580N08006194WA0098801042003015003000
B1637313729572N08006215WA0099201045003013003000
B1637323729560N08006232WA0099401049003011003000
B1637333729545N08006245WA0099701052003009003000
B1637343729528N08006254WA0099601055003002003000
B1637353729509N08006258WA0099601056002000003000
B1637363729491N08006256WA0099901056002000003000
B1637373729474N08006248WA0100001057002000003000
B1637383729459N08006234WA0099801058002009003000
B1637393729448N08006216WA0099801058002027003000
B1637403729439N08006196WA0099701057002048003000
F1637405105244413152918302023
B1637413729434N08006174WA0099401056002074003000
B1637423729432N08006151WA0099201054002088003000
F163742510524441315291830202302
B1637433729433N08006128WA0099001052002097003000
B1637443729437N08006105WA0098901051002104003000
B1637453729443N08006083WA0098901050002097003000
B1637463729452N08006063WA0099101050002085003000
B1637473729463N08006046WA0099201051002071003000
F1637475105244413152918202302
B1637483729476N08006032WA0099101051002060003000
B1637493729491N08006020WA0099301051002060003000
B1637503729506N08006011WA0099201051002062003000
B1637513729523N08006004WA0099301052002060003000
F163751510524441315291830202302
B1637523729540N08005999WA0099201052002053003000
B1637533729557N08005998WA0099201052002051003000
B1637543729574N08006002WA0099301053002053003000
B1637553729591N08006011WA0099401054003060003000
B1637563729606N08006025WA0099201055003062003000
B1637573729619N08006042WA0099401055003055003000
B1637583729630N08006061WA0099501056003043003000
B1637593729636N08006084WA0099801057003032004000
B1638003729636N08006107WA0100101060003022004000
B1638013729629N08006128WA0100701064003020004000
B1638023729616N08006144WA0100901068003027003000
B1638033729598N08006154WA0100501069003034003000
B1638043729579N08006158WA0100301067003048003000
F1638045105241315291830202302
B1638053729560N08006156WA0100201065003055003000
B1638063729541N08006146WA0100101064003053003000
B1638073729524N08006130WA0100101063003050004000
B1638083729511N08006109WA0100101063003043003000
B1638093729503N08006085WA0099901063003046004000
B1638103729500N08006059WA0100201063003048003000
B1638113729502N08006034WA0100501065003048003000
B1638123729509N08006011WA0100701067003048003000
B1638133729520N08005992WA0101001069002041003000
B1638143729536N08005979WA0101101072002034003000
B1638153729553N08005971WA0101301074002029003000
B1638163729572N08005970WA0101401076002025003000
B1638173729590N08005976WA0101401077003018003000
B1638183729606N08005988WA0101501077003015004000
B1638193729619N08006006WA0101801078003025004000
B1638203729627N08006028WA0101701079003034004000
B1638213729630N08006051WA0101701080003038004000
B1638223729627N08006075WA0102001081003041004000
B1638233729619N08006097WA0102001081003036004000
B1638243729605N08006114WA0102301081003041004000
B1638253729587N08006127WA0102301081003053004000
B1638263729567N08006134WA0102301082003064004000
B1638273729546N08006137WA0102201082002076003000
B1638283729524N08006134WA0102101081003079004000
B1638293729503N08006126WA0102101080003081003000
B1638303729483N08006114WA0102101080003079003000
B1638313729465N08006097WA0102101080002069003000
B1638323729449N08006078WA0102101080003055003000
B1638333729435N08006056WA0102101080002043003000
B1638343729425N08006032WA0102301081002041003000
B1638353729417N08006006WA0102301082002041003000
B1638363729412N08005980WA0102201082002048003000
B1638373729410N08005954WA0102201082002055003000
B1638383729410N08005928WA0102001081002053003000
B1638393729414N08005903WA0102101080002050003000
B1638403729421N08005880WA0102201080002046003000
B1638413729430N08005859WA0102101080002046003000
B1638423729440N08005838WA0102101081002051003000
B1638433729451N08005819WA0102301081002055003000
B1638443729463N08005799WA0102001080002064003000
B1638453729475N08005780WA0101701079002071003000
B1638463729488N08005762WA0101701078002074003000
B1638473729502N08005744WA0101801077002074003000
B1638483729517N08005728WA0101801078002067003000
F1638485105244413152918202302
B1638493729534N08005714WA0101801078002057003000
B1638503729551N08005702WA0101601078002050003000
B1638513729570N08005690WA0101501077002046003000
B1638523729589N08005681WA0101501076002039003000
F163852510524441315291830202302
B1638533729609N08005674WA0101501076002029003000
F1638530524441315291830202302
B1638543729630N08005672WA0101701077002025004000
B1638553729651N08005676WA0101901078003027004000
B1638563729670N08005687WA0101901079003036004000
B1638573729688N08005702WA0102001080003053004000
B1638583729703N08005721WA0101901080003069004000
B1638593729715N08005743WA0101901080003083004000
B1639003729724N08005766WA0102001080003093004000
B1639013729730N08005791WA0101901080003088004000
B1639023729733N08005818WA0101801080003076004000
B1639033729733N08005844WA0101901079003067004000
B1639043729730N08005870WA0102001080003062004000
B1639053729724N08005894WA0102001080003067004000
B1639063729715N08005917WA0102101081002079004000
B1639073729703N08005938WA0101901081002079004000
B1639083729689N08005957WA0101901080002079004000
B1639093729674N08005974WA0101901080002076004000
B1639103729657N08005990WA0101601078002071004000
B1639113729639N08006003WA0101501076002071004000
B1639123729620N08006014WA0101501074002064004000
B1639133729600N08006022WA0101301074002057004000
B1639143729579N08006026WA0101501074002055004000
B1639153729557N08006027WA0101901075003055004000
B1639163729537N08006023WA0102101078003060004000
B1639173729518N08006015WA0102301081003065004000
B1639183729499N08006005WA0102501082003065004000
B1639193729482N08005993WA0102401083003058004000
B1639203729466N08005978WA0102401084003048004000
B1639213729452N08005960WA0102601084003041004000
B1639223729440N08005941WA0102901086002032004000
B1639233729431N08005920WA0103301088003029004000
B1639243729424N08005898WA0103601091003029004000
B1639253729420N08005875WA0103901095003024004000
B1639263729420N08005852WA0104101099003018004000
B1639273729423N08005829WA0104101101003013004000
B1639283729429N08005808WA0104301102003018004000
B1639293729437N08005789WA0104201102003030004000
B1639303729448N08005772WA0104401101003043004000
F16393005244413152918202302
B1639313729462N08005759WA0104401102003057004000
B1639323729477N08005749WA0104301102003057004000
F1639320524441315291830202302
B1639333729493N08005742WA0104301103003050004000
B1639343729511N08005738WA0104201102003041004000
B1639353729528N08005735WA0104101102003029004000
B1639363729547N08005734WA0104101101003022004000
B1639373729566N08005732WA0104001101003015004000
F163937510524441315291830202302
B1639383729585N08005731WA0104001100003011004000
B1639393729604N08005730WA0104001099003006004000
B1639403729623N08005731WA0103901099003006004000
B1639413729643N08005733WA0103801099003013004000
B1639423729662N08005737WA0104001099003027004000
B1639433729681N08005745WA0104101099003046004000
B1639443729698N08005756WA0104301101003062004000
B1639453729713N08005771WA0104301102003076004000
B1639463729726N08005787WA0104201103003081004000
B1639473729737N08005805WA0104101102003081004000
B1639483729748N08005824WA0103701101003078004000
B1639493729757N08005843WA0103401098003071004000
B1639503729766N08005863WA0103301095003069004000
B1639513729773N08005884WA0103001093003067004000
B1639523729780N08005906WA0102801091003067004000
B1639533729785N08005928WA0102601089003067004000
B1639543729790N08005951WA0102301086003062004000
B1639553729794N08005973WA0102201085003057004000
B1639563729797N08005997WA0101901083003048004000
B1639573729799N08006020WA0101701081003043004000
B1639583729801N08006044WA0101501078003048004000
B1639593729803N08006067WA0101301076003055004000
B1640003729804N08006091WA0101201074003069004000
B1640013729805N08006115WA0101301073003081004000
B1640023729805N08006140WA0101101073003090004000
B1640033729806N08006164WA0101401073003088004000
B1640043729807N08006188WA0101401074002081004000
B1640053729809N08006212WA0101701076002067004000
B1640063729810N08006236WA0101801078002051004000
B1640073729813N08006260WA0102001080002039004000
B1640083729818N08006283WA0102101081002025004000
B1640093729823N08006307WA0102001082002018004000
B1640103729829N08006330WA0102001082002013004000
B1640113729835N08006352WA0102301083002013004000
B1640123729842N08006375WA0102501084002013004000
B1640133729848N08006398WA0102801086002011004000
B1640143729853N08006420WA0103101089002004004000
B1640153729858N08006443WA0103201092002000004000
B1640163729862N08006465WA0103401094002000004000
B1640173729865N08006488WA0103401095002000004000
B1640183729868N08006511WA0103401096002000004000
B1640193729869N08006534WA0103701096002000004000
B1640203729869N08006557WA0104001098002004004000
B1640213729866N08006579WA0104201101002009004000
B1640223729860N08006600WA0104401103002018004000
B1640233729851N08006620WA0104501105002022004000
B1640243729840N08006637WA0104701107003022004000
B1640253729826N08006651WA0104801108003027004000
B1640263729810N08006661WA0105001109003027004000
B1640273729792N08006666WA0104901110003029004000
B1640283729774N08006666WA0104801110003034004000
B1640293729755N08006661WA0104801110003029004000
B1640303729737N08006651WA0104701109003025004000
B1640313729720N08006638WA0104601107003018004000
B1640323729704N08006622WA0104601107003011004000
B1640333729689N08006603WA0104601108003006004000
B1640343729675N08006583WA0104501108003004004000
B1640353729663N08006561WA0104501107003004004000
B1640363729652N08006538WA0104801108003009004000
B1640373729644N08006513WA0105201110003015004000
B1640383729639N08006486WA0105401113003020004000
B1640393729638N08006460WA0105501115003020004000
B1640403729641N08006434WA0105801118003018004000
B1640413729649N08006410WA0106001120003015004000
F1640415105441315291830202302
B1640423729660N08006390WA0106001122003020004000
B1640433729675N08006373WA0106201122003032004000
F16404351054413152918202302
B1640443729691N08006360WA0106101123003034004000
B1640453729710N08006353WA0106401124003036004000
B1640463729729N08006351WA0106701126003031004000
B1640473729747N08006356WA0107201129003020004000
F1640475105244413152918202302
B1640483729764N08006367WA0107601133003013004000
B1640493729777N08006385WA0108201138003006004000
B1640503729785N08006406WA0108401143003000004000
B1640513729788N08006428WA0109001148003000004000
B1640523729785N08006450WA0109301152003000004000
B1640533729777N08006471WA0109501154003000004000
B1640543729765N08006487WA0109601156003000004000
F164054510524441315291830202302
B1640553729749N08006498WA0109801158003000004000
B1640563729731N08006503WA0109801160003000004000
B1640573729712N08006501WA0109901161003000004000
B1640583729695N08006492WA0110101162003000004000
B1640593729680N08006478WA0110301163003000004000
B1641003729669N08006459WA0110301164003002004000
B1641013729661N08006437WA0110301165003013004000
B1641023729659N08006414WA0110501166003029004000
B1641033729660N08006390WA0110601166003043004000
B1641043729666N08006368WA0110601166003053004000
B1641053729674N08006347WA0110601167003053004000
B1641063729685N08006329WA0110701168003048004000
B1641073729699N08006313WA0110901169003046004000
B1641083729714N08006301WA0111201170003043004000
B1641093729731N08006293WA0111201171003046004000
B1641103729749N08006289WA0111201173003043004000
B1641113729767N08006291WA0111201174003034004000
B1641123729785N08006297WA0111601175003022004000
B1641133729801N08006308WA0111601176003018004000
B1641143729814N08006324WA0111801177003018004000
B1641153729823N08006344WA0112001179003018004000
B1641163729827N08006367WA0112101181003015004000
B1641173729828N08006390WA0112101182003009004000
B1641183729824N08006412WA0112101182003002004000
B1641193729818N08006434WA0112201182003002004000
B1641203729808N08006454WA0112201182003009004000
B1641213729795N08006471WA0112601183003020004000
B1641223729780N08006484WA0112701185003039004000
B1641233729763N08006494WA0112901187003053004000
B1641243729744N08006499WA0113001189003057004000
B1641253729725N08006499WA0113201191003053004000
B1641263729706N08006495WA0113001192003039004000
B1641273729688N08006487WA0113101191003025004000
B1641283729670N08006475WA0113301192003018004000
B1641293729655N08006459WA0113501193003022004000
B1641303729642N08006440WA0113301194003027004000
B1641313729632N08006418WA0113601195003032004000
B1641323729624N08006394WA0113601196003029004000
B1641333729620N08006369WA0113801197003027004000
B1641343729618N08006344WA0113901199003034004000
B1641353729620N08006319WA0113901200003046004000
B1641363729626N08006295WA0114101201003062004000
B1641373729635N08006273WA0114301202003071004000
B1641383729647N08006254WA0114201203003076004000
B1641393729661N08006237WA0114101203003076004000
B1641403729676N08006223WA0114301203003071004000
B1641413729694N08006212WA0114201203003062004000
B1641423729712N08006205WA0114701204003048004000
B1641433729731N08006202WA0114801207003036004000
B1641443729750N08006205WA0115001209003032004000
B1641453729768N08006212WA0115101211003032004000
B1641463729783N08006225WA0115301212003036004000
B1641473729796N08006242WA0115601215003046004000
B1641483729805N08006262WA0115801217003046004000
B1641493729811N08006283WA0115801218003046004000
B1641503729813N08006306WA0116101220003044004000
B1641513729810N08006329WA0116201222003041004000
B1641523729804N08006350WA0116401224003046004000
B1641533729795N08006370WA0116501225003048004000
B1641543729783N08006388WA0116501226003048004000
B1641553729768N08006403WA0116401227003041004000
B1641563729752N08006415WA0116501227003029004000
B1641573729734N08006423WA0116601227003020004000
B1641583729715N08006427WA0116701228003011004000
B1641593729695N08006427WA0116801229003011004000
B1642003729676N08006421WA0116901230003020004000
B1642013729658N08006410WA0116901230003027004000
B1642023729642N08006394WA0116801230003034004000
F1642025105241315291830202302
B1642033729629N08006374WA0116801230003032004000
B1642043729620N08006351WA0116901230003027005000
B1642053729616N08006324WA0116901230003031005000
B1642063729617N08006297WA0116901230003038004000
B1642073729622N08006271WA0117001230003045004000
B1642083729631N08006247WA0117201231003050004000
B1642093729644N08006227WA0117301233003043004000
B1642103729660N08006211WA0117601236003036004000
B1642113729678N08006199WA0117501237003031004000
B1642123729697N08006191WA0117601237003022004000
B1642133729717N08006190WA0117601237003018004000
B1642143729737N08006195WA0117601238003011004000
B1642153729755N08006205WA0117801239003006004000
B1642163729772N08006221WA0118201241003006005000
B1642173729784N08006240WA0118601243003011005000
B1642183729794N08006263WA0119001247003018005000
B1642193729799N08006287WA0119201251003022005000
B1642203729802N08006311WA0119301253003029004000
B1642213729800N08006336WA0119601256003032004000
B1642223729795N08006359WA0120001258003034004000
B1642233729786N08006380WA0119901260003034004000
B1642243729773N08006398WA0120101262003025004000
B1642253729757N08006412WA0120401264003018004000
B1642263729739N08006422WA0120501266003009004000
B1642273729720N08006426WA0120801268003002004000
B1642283729700N08006425WA0121001270003002004000
B1642293729681N08006419WA0121101272003000005000
B1642303729663N08006408WA0121201273003000005000
B1642313729648N08006392WA0121501274003000005000
B1642323729635N08006371WA0121701276003000005000
B1642333729626N08006348WA0121701279003000005000
B1642343729621N08006323WA0122001280003004005000
B1642353729618N08006298WA0122201282003009005000
B1642363729620N08006272WA0122301284003013005000
B1642373729625N08006247WA0122501286003015005000
B1642383729633N08006224WA0122701288003011005000
B1642393729644N08006204WA0122901290003006005000
B1642403729657N08006186WA0123201292003002005000
B1642413729673N08006172WA0123401295003000005000
B1642423729690N08006164WA0123901297003000005000
B1642433729708N08006161WA0124001300003000005000
B1642443729726N08006164WA0124201303003000005000
B1642453729742N08006173WA0124301305003000005000
B1642463729756N08006185WA0124501307003006005000
B1642473729768N08006201WA0124701308003018005000
B1642483729777N08006219WA0124701309003036005000
B1642493729783N08006240WA0124901310003048005000
B1642503729786N08006262WA0125101312003053005000
B1642513729786N08006284WA0125101313003053005000
B1642523729782N08006307WA0125201314003043005000
B1642533729775N08006328WA0125201315003032005000
B1642543729765N08006347WA0125401316003020005000
B1642553729752N08006363WA0125501317003011005000
B1642563729736N08006375WA0125501318003004005000
B1642573729719N08006383WA0125901319003000005000
B1642583729700N08006384WA0125801320003000005000
B1642593729681N08006381WA0126001322003000005000
B1643003729663N08006373WA0126001322003002005000
B1643013729646N08006360WA0126001323003011005000
F16430151051315291830202302
B1643023729632N08006343WA0126301324003025005000
B1643033729621N08006323WA0126401326003034005000
B1643043729612N08006300WA0126701328003036005000
B1643053729607N08006275WA0127001330003032005000
B1643063729606N08006250WA0127101333003025005000
B1643073729607N08006225WA0127601336003018005000
F1643075105241315291830202302
B1643083729612N08006202WA0127701338003011005000
B1643093729619N08006180WA0128001340003006005000
B1643103729629N08006160WA0128201343003000005000
B1643113729641N08006142WA0128401345003000005000
B1643123729655N08006128WA0128501347003000005000
B1643133729670N08006116WA0128701348003000005000
B1643143729687N08006106WA0128801351003000005000
F164314510524441315291830202302
B1643153729704N08006100WA0128801352003000005000
B1643163729722N08006096WA0128901353003002005000
B1643173729739N08006095WA0128901353003000005000
B1643183729757N08006097WA0129001354003000005000
B1643193729773N08006103WA0129101355003009005000
B1643203729788N08006113WA0129301356003023005000
B1643213729802N08006125WA0129401357003043005000
B1643223729813N08006140WA0129401358003062005000
F1643225105241315291830202302
B1643233729822N08006158WA0129401359003071005000
B1643243729828N08006178WA0129401359003074005000
B1643253729831N08006199WA0129501360003074005000
B1643263729831N08006220WA0129401359003071005000
B1643273729828N08006241WA0129301358003067005000
B1643283729822N08006261WA0129201357003062005000
B1643293729814N08006281WA0129101356003060005000
B1643303729803N08006298WA0129001355003055005000
B1643313729789N08006313WA0129001354003050005000
B1643323729773N08006325WA0128601352003050005000
B1643333729756N08006334WA0128701351003050005000
B1643343729737N08006341WA0129101352003055005000
B1643353729719N08006346WA0129301354003057005000
B1643363729700N08006347WA0129401356003055005000
B1643373729681N08006343WA0129601357003048005000
B1643383729664N08006335WA0129901360003043005000
B1643393729648N08006322WA0130301362003046005000
F16433951051315291830202302
B1643403729635N08006305WA0130301365003048005000
B1643413729625N08006286WA0130301366003057005000
F1643415105241315291830202302
B1643423729616N08006264WA0130401367003064005000
B1643433729611N08006242WA0130701368003067005000
B1643443729609N08006218WA0130701369003065005000
B1643453729610N08006194WA0130701371003053005000
B1643463729614N08006172WA0130701371003036005000
B1643473729622N08006150WA0130701372003027005000
B1643483729633N08006132WA0131001373003022005000
B1643493729647N08006117WA0131001373003018005000
B1643503729663N08006106WA0131101374003013005000
B1643513729681N08006101WA0131301375003009005000
B1643523729699N08006102WA0131401377003006005000
B1643533729716N08006108WA0131601378003004005000
B1643543729732N08006119WA0131901379003004005000
B1643553729746N08006134WA0131901382003002005000
B1643563729758N08006152WA0132301384003000005000
B1643573729766N08006173WA0132401386003000005000
B1643583729771N08006196WA0132601388003000005000
B1643593729773N08006219WA0132701389003000005000
B1644003729771N08006242WA0132701390003002005000
B1644013729764N08006264WA0132601390003004005000
B1644023729754N08006283WA0132801391003006005000
B1644033729740N08006299WA0132601390003006005000
B1644043729724N08006310WA0132601389003004005000
B1644053729706N08006317WA0132701389003002005000
B1644063729687N08006318WA0133101390003002005000
B1644073729669N08006314WA0133601393003002005000
B1644083729651N08006305WA0134201398003011005000
B1644093729636N08006293WA0135001405003020005000
B1644103729624N08006277WA0135601411003025005000
F16441051051315291830202302
B1644113729614N08006260WA0135701417003027005000
B1644123729606N08006241WA0136001420003020005000
F164412510513152918302023
B1644133729602N08006221WA0136101422003020005000
F16441351052413152918302023
B1644143729599N08006201WA0136301424003020005000
B1644153729599N08006181WA0136401425003025005000
B1644163729602N08006161WA0136601426003027005000
F1644165105241315291830202302
B1644173729607N08006142WA0136801427003020005000
B1644183729615N08006124WA0136701429003013005000
B1644193729624N08006109WA0136901430003004005000
B1644203729636N08006095WA0137101433003000005000
B1644213729650N08006085WA0137301435003000005000
B1644223729664N08006078WA0137401437003000005000
B1644233729680N08006074WA0137601438003000005000
B1644243729696N08006074WA0137801440003000005000
B1644253729711N08006078WA0138101442003000005000
B1644263729726N08006085WA0138301445003000005000
B1644273729739N08006095WA0138501447003000005000
B1644283729752N08006107WA0138601450003000005000
B1644293729762N08006122WA0138801451003000005000
B1644303729771N08006138WA0138901452003000005000
B1644313729777N08006156WA0138801453003000005000
B1644323729780N08006176WA0138901453003000005000
B1644333729780N08006196WA0139001455003000005000
B1644343729777N08006215WA0139101456003000005000
B1644353729771N08006233WA0138901456003002005000
B1644363729762N08006249WA0139101456003000005000
B1644373729751N08006264WA0138901456003000005000
B1644383729738N08006275WA0139001455003000005000
B1644393729723N08006284WA0138901455003002005000
B1644403729707N08006288WA0138801454003009005000
B1644413729690N08006288WA0138801453003015005000
B1644423729674N08006283WA0138801453003025005000
B1644433729658N08006272WA0138901453003029005000
B1644443729644N08006258WA0138701453003034005000
B1644453729633N08006240WA0138801452003036005000
B1644463729626N08006219WA0138801452003034005000
B1644473729621N08006196WA0138901453003032005000
F16444751052413152918302023
B1644483729620N08006173WA0139101454003036005000
F1644485105241315291830202302
B1644493729622N08006150WA0139201455003039005000
B1644503729627N08006127WA0139201456003036005000
B1644513729634N08006106WA0139401457003034005000
B1644523729644N08006086WA0139701459003025005000
B1644533729655N08006069WA0139801461003020005000
B1644543729669N08006054WA0140101463003018005000
B1644553729685N08006043WA0140301465003020005000
B1644563729701N08006036WA0140501467003025005000
B1644573729719N08006032WA0140901470003027005000
B1644583729736N08006031WA0141301474003027005000
B1644593729753N08006033WA0141201477003020005000
B1645003729770N08006038WA0141201477003018005000
B1645013729786N08006046WA0141401478003022005000
B1645023729800N08006059WA0141501479003036005000
B1645033729812N08006074WA0141601480003055005000
B1645043729821N08006092WA0141601480003067005000
B1645053729827N08006112WA0141601481003072005000
B1645063729829N08006133WA0141601482003065005000
B1645073729827N08006154WA0141501482003050005000
B1645083729821N08006174WA0141501481003041005000
B1645093729813N08006193WA0141401480003034005000
B1645103729801N08006209WA0141301479003041005000
B1645113729787N08006222WA0141201477003053005000
B1645123729771N08006232WA0141101476003060005000
B1645133729754N08006238WA0141001475003062005000
B1645143729735N08006240WA0141001474003060005000
B1645153729717N08006238WA0140901473003060005000
B1645163729698N08006232WA0141001473003067005000
B1645173729681N08006222WA0140801472003078005000
B1645183729665N08006209WA0140801472003090005000
B1645193729651N08006192WA0140901471003100005000
B1645203729640N08006174WA0140801471003104005000
B1645213729630N08006153WA0140901471003109005000
B1645223729622N08006132WA0141001472003116005000
B1645233729616N08006109WA0141501475003116005000
B1645243729612N08006086WA0141901478003107005000
B1645253729611N08006063WA0142301481003095005000
B1645263729610N08006039WA0142401485003072005000
B1645273729611N08006016WA0142601487003053005000
B1645283729613N08005993WA0142801489003041005000
B1645293729618N08005971WA0143001490003034005000
B1645303729626N08005950WA0142801491003034005000
F16453051052413152918302302
B1645313729636N08005932WA0142801491003034005000
B1645323729649N08005917WA0142801491003037005000
B1645333729664N08005906WA0142901491003037005000
F1645335105241315291830202302
B1645343729680N08005900WA0143001491003034005000
B1645353729697N08005898WA0143101492003034005000
B1645363729713N08005902WA0143201494003036005000
B1645373729727N08005911WA0143401495003039005000
B1645383729738N08005925WA0143601497003046005000
F16453851052413152918202302
B1645393729747N08005942WA0143401498003057005000
B1645403729751N08005961WA0143301497003067005000
B1645413729750N08005981WA0143101495003076005000
B1645423729745N08006001WA0143101494003091005000
F1645425105241315291830202302
B1645433729737N08006020WA0143001493003095005000
B1645443729726N08006037WA0143101492003102005000
B1645453729712N08006050WA0143101492003107005000
B1645463729695N08006061WA0143301493003092005000
B1645473729677N08006066WA0143401495003081005000
B1645483729658N08006067WA0143701497003062005000
B1645493729640N08006061WA0144001500003043005000
B1645503729623N08006051WA0144301503003034005000
B1645513729609N08006036WA0144601506003025005000
B1645523729599N08006017WA0144901509003018005000
B1645533729593N08005995WA0145201513003011005000
B1645543729592N08005972WA0145401516003006005000
B1645553729596N08005950WA0145301517003002005000
F16455551052413152918302302
B1645563729604N08005930WA0145201517003000005000
B1645573729616N08005914WA0145201517003000005000
B1645583729631N08005902WA0145101515003009005000
B1645593729647N08005896WA0144901514003018005000
B1646003729664N08005896WA0145001513003032005000
B1646013729680N08005903WA0145301514003041005000
F1646015105241315291830202302
B1646023729693N08005917WA0145701517003039005000
F16460251052413152918202302
B1646033729700N08005934WA0146201521003034005000
B1646043729702N08005954WA0146701526003022005000
B1646053729697N08005973WA0147001530003015005000
B1646063729687N08005989WA0147401534003009005000
B1646073729673N08006000WA0147701538003002005000
F1646075105241315291830202302
B1646083729657N08006006WA0147901541003000005000
B1646093729640N08006005WA0148001543003000005000
B1646103729624N08005997WA0148001544003000005000
B1646113729612N08005983WA0148001544003000005000
B1646123729603N08005963WA0148101545003000005000
B1646133729599N08005941WA0148101545003000005000
B1646143729601N08005918WA0148001545003000005000
B1646153729607N08005896WA0147901544003000005000
B1646163729617N08005878WA0148001544003004005000
B1646173729631N08005864WA0148101545003020005000
B1646183729647N08005855WA0148101545003029005000
F16461851052413152918202302
B1646193729663N08005853WA0148301546003043005000
B1646203729679N08005857WA0148501547003046005000
B1646213729693N08005867WA0148901550003041005000
F1646215105241315291830202302
B1646223729703N08005882WA0149201553003036005000
F16462251052413152918202302
B1646233729709N08005899WA0149501555003022005000
B1646243729712N08005919WA0149501557003018005000
B1646253729710N08005938WA0149501558003018005000
F1646255105241315291830202302
B1646263729704N08005957WA0149601559003018005000
B1646273729694N08005973WA0149901560003022005000
B1646283729680N08005985WA0149901562003022005000
B1646293729664N08005992WA0150101563003018005000
B1646303729647N08005994WA0150401565003013005000
B1646313729629N08005990WA0150701567003006005000
B1646323729613N08005980WA0151001570003002005000
B1646333729600N08005965WA0151101573003000005000
B1646343729591N08005946WA0151201574003000005000
B1646353729587N08005924WA0151401576003000005000
F164635510513152918302023
B1646363729588N08005902WA0151401577003000005000
B1646373729593N08005881WA0151301577003000005000
F16463751051315291830202302
B1646383729603N08005863WA0151301577003000005000
F164638510513152918302302
B1646393729617N08005850WA0151201576003004005000
B1646403729632N08005842WA0150901575003013005000
B1646413729648N08005840WA0150701573003023005000
B1646423729664N08005843WA0150901572003039005000
F16464251052413152918302302
B1646433729678N08005853WA0151101573003046005000
B1646443729689N08005867WA0151401574003046005000
B1646453729697N08005885WA0151601576003041005000
F1646455105241315291830202302
B1646463729700N08005905WA0151701578003029005000
B1646473729698N08005925WA0151701580003020005000
B1646483729693N08005945WA0151701581003013005000
B1646493729685N08005963WA0151501580003018005000
B1646503729673N08005979WA0151801580003023005000
B1646513729659N08005992WA0152101581003025005000
B1646523729643N08006002WA0152101583003027005000
B1646533729625N08006008WA0152001584003020005000
B1646543729607N08006010WA0152001584003015005000
B1646553729588N08006007WA0152401585003015005000
B1646563729570N08005998WA0152501586003015005000
B1646573729554N08005985WA0152401586003018005000
B1646583729540N08005968WA0152501587003018005000
B1646593729530N08005946WA0152801589003020005000
B1647003729525N08005923WA0152901591003018005000
F16470051052413152918302023
B1647013729524N08005898WA0153101593003015005000
B1647023729528N08005875WA0153201595003011005000
B1647033729537N08005855WA0153501596003004005000
B1647043729550N08005839WA0153501598003000005000
F1647045105241315291830202302
B1647053729565N08005828WA0153701599003000005000
B1647063729582N08005823WA0153901600003000005000
B1647073729598N08005824WA0153801601003000005000
B1647083729613N08005829WA0153801601003011005000
B1647093729626N08005839WA0153801600003023005000
B1647103729638N08005853WA0153801601003039005000
B1647113729646N08005870WA0154201602003048005000
B1647123729651N08005889WA0154501605003048005000
B1647133729653N08005909WA0154601607003041005000
B1647143729652N08005930WA0154801609003032005000
B1647153729647N08005949WA0154701610003027005000
B1647163729639N08005968WA0154801610003020005000
B1647173729628N08005985WA0154801611003015005000
B1647183729614N08005998WA0155001612003009005000
B1647193729598N08006009WA0155001612003002005000
B1647203729580N08006015WA0155001613003000005000
B1647213729562N08006019WA0155101614003000005000
B1647223729544N08006018WA0155201615003000005000
B1647233729526N08006012WA0155701616003000005000
B1647243729509N08006002WA0155801619003002005000
B1647253729494N08005988WA0156201622003006005000
B1647263729482N08005971WA0156201624003006005000
B1647273729472N08005952WA0156301626003002005000
B1647283729465N08005930WA0156401627003002005000
B1647293729460N08005908WA0156501628003004005000
B1647303729459N08005885WA0156401628003013005000
B1647313729462N08005863WA0156401628003025005000
B1647323729468N08005841WA0156401628003034005000
B1647333729476N08005821WA0156401627003046005000
B1647343729486N08005803WA0156501628003053005000
B1647353729498N08005787WA0156501629003060005000
B1647363729511N08005773WA0156701630003065005000
B1647373729525N08005761WA0157001632003058005000
B1647383729540N08005752WA0157001633003051005000
B1647393729556N08005746WA0156901634003048005000
B1647403729571N08005743WA0156901634003043005000
B1647413729587N08005744WA0156801633003043005000
B1647423729601N08005749WA0156701632003046005000
B1647433729615N08005757WA0156501631003041005000
B1647443729626N08005768WA0156401630003039005000
B1647453729636N08005782WA0156301629003043005000
B1647463729642N08005798WA0156501628003041005000
B1647473729645N08005817WA0156601629003039005000
B1647483729645N08005836WA0156501629003032005000
B1647493729644N08005856WA0156301628003022005000
B1647503729640N08005876WA0156101627003022005000
B1647513729634N08005896WA0156101626003032005000
B1647523729626N08005914WA0156101626003048005000
B1647533729616N08005932WA0156301626003057005000
B1647543729605N08005948WA0156201626003057005000
B1647553729591N08005962WA0156101626003050005000
B1647563729577N08005975WA0156001625003046005000
B1647573729562N08005986WA0156001625003050005000
B1647583729545N08005995WA0156101626003062005000
B1647593729528N08006003WA0156101626003071005000
B1648003729510N08006008WA0156201627003069005000
B1648013729492N08006012WA0156401628003060005000
B1648023729473N08006013WA0156501629003046005000
B1648033729454N08006012WA0156701630003032005000
B1648043729435N08006007WA0156901632003027005000
B1648053729417N08006000WA0157101634003027005000
B1648063729400N08005989WA0157301636003027005000
F16480651051315291830202302
B1648073729385N08005974WA0157501638003027005000
B1648083729372N08005957WA0157501639003025005000
B1648093729361N08005938WA0157501639003020005000
F1648095105241315291830202302
B1648103729353N08005917WA0157401639003022005000
B1648113729348N08005893WA0157401638003036005000
B1648123729347N08005869WA0157401638003050005000
B1648133729349N08005845WA0157301637003064005000
B1648143729353N08005822WA0157401637003076005000
B1648153729361N08005800WA0157201636003076005000
B1648163729372N08005780WA0157101636003074005000
B1648173729384N08005763WA0157201635003072005000
B1648183729399N08005749WA0157201635003067005000
B1648193729415N08005738WA0157301636003067005000
B1648203729433N08005732WA0157401637003069005000
B1648213729450N08005730WA0157701639003071005000
B1648223729467N08005732WA0157801641003074005000
B1648233729483N08005737WA0158101643003071005000
B1648243729498N08005745WA0158001644003062005000
B1648253729511N08005755WA0158101645003050005000
B1648263729523N08005768WA0158101646003041005000
B1648273729533N08005784WA0158301647003036005000
B1648283729539N08005801WA0158401649003041005000
B1648293729544N08005820WA0158601650003050005000
B1648303729545N08005839WA0158601650003060005000
B1648313729544N08005859WA0158601651003064005000
B1648323729539N08005878WA0159001653003064005000
B1648333729532N08005896WA0159201655003064005000
B1648343729522N08005911WA0159601658003064005000
B1648353729511N08005924WA0159901661003069005000
B1648363729498N08005934WA0160101664003074005000
B1648373729484N08005941WA0160201666003076005000
B1648383729469N08005944WA0160201667003071005000
B1648393729454N08005943WA0160001667003064005000
B1648403729438N08005939WA0159801665003055005000
B1648413729423N08005932WA0159601663003043005000
B1648423729409N08005921WA0159701662003034005000
B1648433729396N08005906WA0159801662003029005000
B1648443729386N08005888WA0160001662003029005000
B1648453729378N08005868WA0159901663003034005000
B1648463729373N08005846WA0159801663003046005000
B1648473729371N08005824WA0159801663003053005000
B1648483729373N08005803WA0159801662003060005000
F16484851051315291830202302
B1648493729379N08005782WA0159601661003069005000
B1648503729388N08005765WA0159601661003074005000
B1648513729400N08005751WA0159501660003086005000
B1648523729413N08005741WA0159401659003098005000
F1648525105241315291830202302
B1648533729428N08005735WA0159401659003105005000
B1648543729443N08005734WA0159301658003112005000
B1648553729458N08005738WA0159301658003112005000
B1648563729471N08005747WA0159401657003112005000
B1648573729482N08005759WA0159401656003105005000
B1648583729489N08005774WA0159201656003095005000
B1648593729494N08005791WA0159101656003088005000
B1649003729496N08005810WA0159101656003086005000
B1649013729495N08005828WA0159101656003090005000
B1649023729492N08005847WA0159001656003100005000
B1649033729487N08005865WA0159001655003107005000
B1649043729479N08005882WA0159001655003109005000
B1649053729468N08005897WA0159001654003112005000
B1649063729455N08005910WA0158801654003112005000
B1649073729441N08005921WA0158901653003109005000
B1649083729426N08005930WA0158801652003107005000
B1649093729409N08005936WA0158701652003107005000
B1649103729391N08005940WA0158701651003107005000
B1649113729373N08005941WA0158801651003104005000
B1649123729354N08005940WA0158601650003095005000
B1649133729336N08005937WA0158401649003083005000
B1649143729317N08005931WA0158501647003069005000
B1649153729299N08005923WA0158601647003057005000
B1649163729281N08005912WA0158701649003050005000
B1649173729264N08005899WA0158401650003041005000
B1649183729248N08005885WA0158201648003036005000
B1649193729233N08005869WA0158301647003043005000
F16491951051315291830202302
B1649203729221N08005850WA0158901648003053005000
B1649213729212N08005828WA0159101651003067005000
B1649223729206N08005805WA0159201653003071005000
F1649225105241315291830202302
B1649233729203N08005782WA0159001655003069005000
B1649243729203N08005759WA0159101655003072005000
B1649253729206N08005737WA0159001655003074005000
B1649263729211N08005716WA0159101654003083005000
B1649273729220N08005697WA0159101654003093005000
B1649283729230N08005681WA0159101654003097005000
B1649293729242N08005668WA0158801654003097005000
B1649303729256N08005657WA0158701653003092005000
B1649313729270N08005650WA0158601651003088005000
B1649323729285N08005647WA0158501648003088005000
B1649333729301N08005646WA0158401647003090005000
B1649343729316N08005649WA0158301646003097005000
B1649353729330N08005655WA0158201645003104005000
B1649363729344N08005664WA0157901645003107005000
B1649373729357N08005674WA0157901644003111005000
B1649383729369N08005688WA0157901644003111005000
B1649393729379N08005703WA0158101644003109005000
B1649403729387N08005719WA0158201645003102005000
B1649413729393N08005736WA0158201646003088005000
B1649423729397N08005754WA0158101647003081005000
B1649433729399N08005772WA0158001648003076005000
B1649443729400N08005791WA0158001647003081005000
B1649453729400N08005809WA0157901646003093005000
B1649463729399N08005828WA0157701645003102005000
B1649473729397N08005847WA0157601643003111005000
B1649483729394N08005866WA0157401642003118005000
B1649493729390N08005885WA0157201641003123005000
B1649503729386N08005904WA0157201639003130005000
B1649513729380N08005923WA0157501639003128005000
B1649523729373N08005942WA0157501640003118005000
B1649533729365N08005960WA0157601641003109005000
B1649543729356N08005978WA0157701642003093005000
B1649553729345N08005994WA0157501642003083005000
B1649563729334N08006010WA0157701642003081005000
B1649573729322N08006025WA0157901642003079005000
B1649583729309N08006040WA0157701642003079005000
B1649593729296N08006054WA0157601642003076005000
B1650003729282N08006068WA0157601641003072005000
B1650013729267N08006082WA0157701640003064005000
B1650023729252N08006096WA0157701640003057005000
B1650033729237N08006110WA0157801641003050005000
B1650043729221N08006123WA0157801641003039005000
B1650053729205N08006137WA0157801642003027005000
B1650063729189N08006151WA0157701642003018005000
B1650073729173N08006165WA0157701641003009005000
B1650083729156N08006178WA0157801641003009005000
B1650093729138N08006188WA0157801641003009005000
B1650103729119N08006192WA0157901642003013005000
B1650113729100N08006190WA0158701643003022005000
B1650123729082N08006181WA0158601646003029005000
B1650133729067N08006167WA0158701649003046005000
F16501351051315291830202302
B1650143729056N08006148WA0158901651003057005000
B1650153729048N08006127WA0159201653003067005000
B1650163729044N08006104WA0159301655003074005000
F1650165105241315291830202302
B1650173729043N08006081WA0159301656003069005000
B1650183729046N08006058WA0159101657003064005000
B1650193729052N08006038WA0158901656003059005000
F16501951051315291830202302
B1650203729062N08006020WA0158901655003059005000
B1650213729074N08006006WA0158801653003067005000
B1650223729088N08005998WA0158701652003081005000
F1650225105241315291830202302
B1650233729104N08005995WA0158401650003095005000
B1650243729119N08005999WA0158301648003105005000
B1650253729133N08006008WA0158001646003112005000
B1650263729143N08006022WA0158001645003102005000
B1650273729150N08006040WA0158201645003093005000
B1650283729154N08006059WA0158201645003090005000
B1650293729153N08006079WA0158401646003088005000
B1650303729150N08006099WA0158301647003088005000
B1650313729145N08006118WA0158201648003085005000
B1650323729139N08006137WA0158201647003076005000
B1650333729131N08006155WA0157901646003069005000
B1650343729122N08006173WA0157701644003072005000
B1650353729111N08006189WA0157501642003076005000
B1650363729098N08006204WA0157401639003079005000
B1650373729085N08006219WA0157201637003081005000
B1650383729070N08006233WA0157201636003086005000
B1650393729055N08006246WA0157201635003083005000
B1650403729040N08006259WA0157101635003081005000
B1650413729024N08006272WA0156501632003076005000
B1650423729008N08006285WA0156201629003074005000
B1650433728992N08006298WA0156001626003081005000
B1650443728976N08006311WA0155901623003088005000
B1650453728960N08006325WA0155901621003093005000
B1650463728944N08006338WA0155901621003090005000
B1650473728928N08006352WA0155901621003086005000
B1650483728912N08006367WA0156001622003084005000
B1650493728896N08006381WA0156301623003079005000
B1650503728880N08006395WA0156601625003074005000
B1650513728864N08006409WA0156601627003065005000
B1650523728848N08006423WA0156701628003055005000
B1650533728832N08006437WA0157101630003046005000
B1650543728815N08006451WA0157301633003034005000
B1650553728799N08006464WA0157301634003025005000
B1650563728782N08006476WA0157601635003015005000
B1650573728764N08006484WA0158001638003011005000
B1650583728744N08006485WA0158401642003013005000
B1650593728726N08006480WA0158801647003020005000
B1651003728709N08006469WA0159201652003027005000
B1651013728695N08006454WA0159301655003032005000
B1651023728684N08006436WA0159401656003034005000
F16510251051315291830202302
B1651033728677N08006415WA0159101656003036005000
B1651043728674N08006394WA0159001654003043005000
B1651053728676N08006374WA0159001653003055005000
B1651063728680N08006355WA0159001651003069005000
F1651065105241315291830202302
B1651073728688N08006339WA0158701650003081005000
B1651083728698N08006326WA0158501649003088005000
F16510851052413152918202302
B1651093728709N08006316WA0158301647003093005000
B1651103728722N08006308WA0157801645003088005000
B1651113728735N08006303WA0157501641003083005000
B1651123728749N08006299WA0157001637003076005000
F1651125105241315291830202302
B1651133728764N08006299WA0156701633003067005000
B1651143728779N08006301WA0156601630003064005000
B1651153728795N08006306WA0156601628003062005000
B1651163728810N08006315WA0156601628003057005000
B1651173728824N08006325WA0156601629003053005000
B1651183728838N08006338WA0156801630003046005000
B1651193728851N08006351WA0157001633003034005000
B1651203728863N08006365WA0157201635003027005000
B1651213728875N08006379WA0157301637003025005000
B1651223728887N08006394WA0157701639003018005000
B1651233728899N08006409WA0157701641003013005000
B1651243728910N08006424WA0157801643003009005000
B1651253728921N08006439WA0158101645003002005000
B1651263728931N08006456WA0158501647003002005000
B1651273728936N08006476WA0158801650003006005000
B1651283728938N08006496WA0159201653003016005000
B1651293728936N08006517WA0159301655003025005000
B1651303728930N08006537WA0159401657003029005000
B1651313728921N08006556WA0159701658003034005000
B1651323728909N08006572WA0159401658003032005000
B1651333728895N08006585WA0159301658003029005000
B1651343728878N08006594WA0159401658003025005000
B1651353728860N08006597WA0159701658003020005000
B1651363728841N08006594WA0159501659003018005000
B1651373728824N08006586WA0159301659003018005000
B1651383728810N08006572WA0159401659003025005000
B1651393728800N08006554WA0159601659003032005000
B1651403728794N08006533WA0159701660003041005000
F16514051051315291830202302
B1651413728792N08006512WA0159701660003048005000
B1651423728794N08006491WA0159701661003057005000
B1651433728799N08006472WA0159601661003064005000
B1651443728807N08006454WA0159501660003071005000
F1651445105241315291830202302
B1651453728817N08006438WA0159401660003076005000
B1651463728830N08006425WA0159401659003071005000
B1651473728844N08006415WA0159401658003062005000
B1651483728860N08006408WA0159401659003048005000
B1651493728876N08006405WA0159601660003034005000
B1651503728892N08006407WA0159801662003022005000
B1651513728907N08006413WA0159901663003022005000
B1651523728921N08006424WA0159901664003022005000
B1651533728932N08006438WA0160301665003027005000
B1651543728939N08006455WA0160601667003039005000
B1651553728943N08006474WA0160801670003043005000
B1651563728944N08006494WA0160901672003053005000
B1651573728941N08006514WA0161001673003057005000
B1651583728936N08006533WA0160801674003053005000
B1651593728929N08006552WA0160501672003048005000
B1652003728919N08006569WA0160301670003046005000
B1652013728907N08006585WA0160301668003050005000
B1652023728893N08006599WA0160201667003057005000
B1652033728876N08006608WA0160201667003057005000
B1652043728859N08006614WA0160301666003053005000
B1652053728840N08006615WA0160201666003044005000
B1652063728822N08006611WA0160401666003044005000
B1652073728805N08006602WA0160701668003051005000
B1652083728790N08006589WA0161001670003053005000
B1652093728778N08006574WA0161001672003053005000
B1652103728768N08006556WA0160901673003050005000
B1652113728760N08006537WA0161001672003053005000
B1652123728755N08006517WA0160901671003057005000
F16521251051315291830202302
B1652133728753N08006495WA0160801670003064005000
B1652143728754N08006474WA0160901671003067005000
B1652153728759N08006453WA0161101673003062005000
B1652163728766N08006434WA0161301674003055005000
B1652173728776N08006418WA0161101675003048005000
B1652183728789N08006405WA0161101675003039005000
F1652185105241315291830202302
B1652193728803N08006397WA0161201676003027005000
B1652203728818N08006393WA0161501677003020005000
B1652213728834N08006395WA0161501678003018005000
B1652223728849N08006402WA0161701680003018005000
B1652233728862N08006413WA0161701681003025005000
B1652243728872N08006428WA0161701681003034005000
B1652253728879N08006446WA0161701681003041005000
B1652263728882N08006466WA0161801681003048005000
B1652273728882N08006487WA0161601681003048005000
B1652283728880N08006508WA0161501680003043005000
B1652293728874N08006528WA0161301679003036005000
B1652303728865N08006547WA0161401678003034005000
B1652313728853N08006564WA0161501677003043005000
B1652323728838N08006577WA0161701678003057005000
B1652333728822N08006586WA0161901679003074005000
B1652343728804N08006590WA0161801680003088005000
B1652353728787N08006590WA0161801681003097005000
B1652363728770N08006584WA0161701681003102005000
B1652373728754N08006574WA0161601680003100005000
B1652383728740N08006560WA0161501679003093005000
B1652393728730N08006543WA0161401678003081005000
B1652403728722N08006522WA0161601678003081005000
B1652413728718N08006501WA0161801679004088005000
B1652423728718N08006479WA0161901680004097005000
B1652433728720N08006458WA0162001682004102005000
F16524351052413152918302302
B1652443728725N08006439WA0162101683004093005000
B1652453728733N08006421WA0162201685004074005000
B1652463728743N08006406WA0162001686004055005000
B1652473728755N08006393WA0162101685004041005000
B1652483728768N08006383WA0162301686004034005000
B1652493728782N08006377WA0162301686004039005000
B1652503728798N08006373WA0162301687004048005000
F1652505105241315291830202302
B1652513728813N08006372WA0162401687004057005000
B1652523728829N08006373WA0162401687004060005000
B1652533728844N08006375WA0162301688004062005000
B1652543728860N08006378WA0162401688004060005000
B1652553728875N08006382WA0162401689004062005000
B1652563728891N08006386WA0162301689004069005000
B1652573728906N08006391WA0161901687004074005000
B1652583728922N08006395WA0161501685004079005000
B1652593728938N08006399WA0161101681004076005000
B1653003728955N08006403WA0160901677004083005000
B1653013728971N08006406WA0160801675004088005000
B1653023728988N08006409WA0160601673004090005000
B1653033729005N08006413WA0160501672004099005000
B1653043729021N08006417WA0160201670004099005000
B1653053729038N08006421WA0160001668004102005000
B1653063729055N08006425WA0160001666004107005000
B1653073729072N08006429WA0159701665004109005000
B1653083729089N08006433WA0159801664004109005000
B1653093729106N08006437WA0159801664004109005000
B1653103729124N08006440WA0159901664004109005000
B1653113729141N08006444WA0160001664004109005000
B1653123729158N08006447WA0160101665004107005000
B1653133729176N08006450WA0159801665004097005000
B1653143729193N08006454WA0159601664004081005000
B1653153729210N08006457WA0159501662004067005000
B1653163729227N08006460WA0159201660004060005000
B1653173729245N08006463WA0159101658004057005000
B1653183729262N08006464WA0158701655004064005000
B1653193729280N08006465WA0158601653004072005000
B1653203729298N08006466WA0158401650004079005000
B1653213729316N08006466WA0158201648004083005000
B1653223729334N08006467WA0158101646004083005000
B1653233729353N08006468WA0158101645004086005000
B1653243729371N08006469WA0157901644004088005000
B1653253729390N08006470WA0157701643004095005000
B1653263729409N08006471WA0157501641004102005000
B1653273729427N08006472WA0157301639004102005000
B1653283729446N08006474WA0157301637004095005000
B1653293729465N08006476WA0157401637004083005000
B1653303729483N08006479WA0157501638004067005000
B1653313729501N08006482WA0157701639004053005000
B1653323729518N08006485WA0157801640004041005000
B1653333729536N08006489WA0157801641004034005000
B1653343729552N08006494WA0157701641004039005000
B1653353729569N08006498WA0157501641004048005000
B1653363729585N08006504WA0157601640004064005000
B1653373729602N08006509WA0157601640004078005000
B1653383729618N08006514WA0157601640004086005000
B1653393729634N08006519WA0157501640004083005000
B1653403729650N08006524WA0157701640004072005000
B1653413729665N08006529WA0157501641004055005000
B1653423729681N08006534WA0157701641003048005000
F165342510524441315291830202302
B1653433729696N08006539WA0157801641003053005000
B1653443729712N08006544WA0157701641003067005000
B1653453729727N08006549WA0157801641003085005000
B1653463729742N08006554WA0157601641003100005000
B1653473729757N08006559WA0157601640003109005000
B1653483729772N08006564WA0157601640003116005000
B1653493729787N08006570WA0157701640003121005000
F165349510524104413152918302023
B1653503729802N08006575WA0157601640003125005000
B1653513729817N08006581WA0157401639003127005000
B1653523729832N08006586WA0157201638003120005000
B1653533729847N08006592WA0157201637003116005000
B1653543729863N08006597WA0157001636003102005000
B1653553729878N08006603WA0157001635003081005000
B1653563729893N08006609WA0156801634003074005000
B1653573729908N08006614WA0156801633003069005000
B1653583729923N08006620WA0156501631003074005000
B1653593729938N08006627WA0156501630003086005000
B1654003729953N08006633WA0156401629003090005000
B1654013729968N08006639WA0156101627003093005000
B1654023729983N08006645WA0155601624003097005000
B1654033729999N08006650WA0155601622003102005000
B1654043730015N08006655WA0155501620003107005000
B1654053730030N08006659WA0155101618003109005000
B1654063730046N08006663WA0154801615003100005000
B1654073730063N08006666WA0154301612003088005000
B1654083730079N08006669WA0154301608003076005000
B1654093730096N08006670WA0154201606003067005000
B1654103730113N08006672WA0154001604003069005000
B1654113730129N08006674WA0153901603003074005000
B1654123730146N08006675WA0153801603003083005000
B1654133730162N08006676WA0153701602003095005000
B1654143730179N08006677WA0153401600003102005000
B1654153730195N08006678WA0153201598003109005000
B1654163730212N08006678WA0152901595003109005000
B1654173730228N08006678WA0152801593003102005000
B1654183730245N08006677WA0152701591003095005000
B1654193730262N08006676WA0152501589003083005000
B1654203730278N08006676WA0152401587003074005000
B1654213730295N08006675WA0152301586003069005000
B1654223730312N08006675WA0152101585003067005000
B1654233730328N08006674WA0152001584003069005000
B1654243730344N08006673WA0151801582003074005000
B1654253730361N08006672WA0151701581003081005000
B1654263730377N08006672WA0151601580003088005000
B1654273730394N08006671WA0151301578003095005000
B1654283730410N08006671WA0150901575003102005000
B1654293730427N08006670WA0150701572003107005000
B1654303730444N08006670WA0150501570003111005000
B1654313730461N08006669WA0150501568003116005000
B1654323730478N08006669WA0150401567003118005000
B1654333730495N08006668WA0150401567003123005000
B1654343730512N08006668WA0150301566003125005000
B1654353730529N08006667WA0150401566003127005000
B1654363730546N08006667WA0150601566003130005000
B1654373730563N08006666WA0150501567003127005000
B1654383730581N08006664WA0150701568003116005000
B1654393730598N08006662WA0150601569003104005000
B1654403730615N08006660WA0150501569003088005000
B1654413730632N08006657WA0150401568003067005000
B1654423730650N08006653WA0150401567003055005000
B1654433730667N08006648WA0150101566003051005000
B1654443730684N08006643WA0149801563003053005000
B1654453730701N08006638WA0149601561003065005000
B1654463730718N08006631WA0149601559003081005000
B1654473730735N08006623WA0149601558003093005000
B1654483730752N08006614WA0149601558003102005000
B1654493730769N08006604WA0149701558003109005000
B1654503730786N08006593WA0149601558003109005000
B1654513730802N08006582WA0149601557003102005000
B1654523730819N08006571WA0149501557003088005000
B1654533730836N08006560WA0149401556003076005000
B1654543730854N08006548WA0149201555003072005000
B1654553730871N08006536WA0149201554003067005000
B1654563730889N08006524WA0149101554003067005000
B1654573730906N08006511WA0149101553003057005000
B1654583730924N08006498WA0148901552003043005000
B1654593730942N08006485WA0148701550003029005000
B1655003730959N08006471WA0148601548003018005000
B1655013730977N08006458WA0148701548003013005000
B1655023730995N08006445WA0148701548003011005000
B1655033731012N08006432WA0148601549003013005000
B1655043731030N08006418WA0148301548003013005000
B1655053731046N08006403WA0148201546003013005000
B1655063731063N08006389WA0148201544003018005000
B1655073731080N08006374WA0148101543003023005000
B1655083731096N08006359WA0147801542003030005000
B1655093731112N08006344WA0147801541003037005000
B1655103731129N08006329WA0147501539003037005000
B1655113731145N08006314WA0147401537003039005000
B1655123731161N08006298WA0147201535003041005000
B1655133731178N08006282WA0147001533003046005000
B1655143731194N08006266WA0146801531003050005000
B1655153731211N08006250WA0146601529003045005000
B1655163731228N08006234WA0146401528003038005000
B1655173731244N08006218WA0146401526003027005000
B1655183731260N08006202WA0146301525003015005000
B1655193731276N08006185WA0146301525003015005000
B1655203731292N08006169WA0146301525003022005000
B1655213731308N08006153WA0146601526003032005000
B1655223731323N08006136WA0146601527003039005000
B1655233731338N08006120WA0146501527003039005000
B1655243731353N08006103WA0146401527003032005000
B1655253731368N08006086WA0146501526003022005000
B1655263731382N08006070WA0146501527003013005000
B1655273731396N08006053WA0146401527003009005000
B1655283731411N08006037WA0146401527003004005000
B1655293731425N08006021WA0146401526003002005000
B1655303731439N08006006WA0146301526003009005000
B1655313731452N08005990WA0146101524003018005000
B1655323731466N08005974WA0145901523003034005000
B1655333731480N08005958WA0145601520003053005000
B1655343731494N08005943WA0145401518003064005000
B1655353731508N08005927WA0145101515003071005000
B1655363731522N08005911WA0144901512003071005000
B1655373731536N08005896WA0144601510003067005000
B1655383731550N08005880WA0144401508003064005000
B1655393731565N08005864WA0144301506003062005000
B1655403731579N08005849WA0144001504003062005000
B1655413731593N08005834WA0144001502003062005000
B1655423731608N08005819WA0143701499003057005000
B1655433731623N08005804WA0143501497003050005000
B1655443731637N08005789WA0143301496003043005000
B1655453731652N08005774WA0143201494003041005000
B1655463731666N08005758WA0143301493003043005000
B1655473731681N08005743WA0143201493003053005000
B1655483731695N08005729WA0143101493003067005000
B1655493731709N08005714WA0143201493003081005000
B1655503731723N08005700WA0143101493003092005000
B1655513731737N08005686WA0142901492003099005000
B1655523731751N08005672WA0142701490003102005000
B1655533731766N08005658WA0142601488003104005000
B1655543731780N08005644WA0142501487003107005000
B1655553731794N08005631WA0142401486003107005000
B1655563731807N08005616WA0142101484003109005000
B1655573731821N08005602WA0142001482003109005000
B1655583731835N08005588WA0141801481003109005000
B1655593731849N08005574WA0141801480003116005000
B1656003731863N08005560WA0141501478003121005000
B1656013731876N08005546WA0141301477003125005000
B1656023731890N08005532WA0141201475003127005000
B1656033731904N08005517WA0141001473003125005000
B1656043731918N08005503WA0140801471003125005000
B1656053731932N08005489WA0140701470003123005000
B1656063731946N08005475WA0140501468003123005000
B1656073731960N08005460WA0140401466003123005000
B1656083731974N08005445WA0140201465003121005000
B1656093731988N08005430WA0140001463003121005000
B1656103732002N08005415WA0139901462003123005000
B1656113732016N08005399WA0139801461003125005000
B1656123732030N08005383WA0139901460003130005000
B1656133732045N08005367WA0139801459003135005000
B1656143732059N08005351WA0139701458003137005000
B1656153732073N08005336WA0139601457003140005000
B1656163732088N08005320WA0139401456003133005000
B1656173732103N08005304WA0139401455003126005000
B1656183732118N08005288WA0139101455003107005000
B1656193732133N08005272WA0139101453003081005000
B1656203732148N08005256WA0138801451003062005000
B1656213732163N08005240WA0138801450003037005000
B1656223732179N08005224WA0138801450003025005000
B1656233732195N08005209WA0139101450003018005000
B1656243732210N08005192WA0139201451003018005000
B1656253732226N08005176WA0139201452003032005000
B1656263732241N08005159WA0139201453003048005000
B1656273732256N08005142WA0139201454003060005000
B1656283732272N08005126WA0139001454003062005000
B1656293732287N08005110WA0138901452003055005000
B1656303732303N08005093WA0138801450003041005000
B1656313732318N08005077WA0138901449003036005000
B1656323732334N08005061WA0138901449003041005000
B1656333732349N08005045WA0138901450003046005000
B1656343732365N08005029WA0138901450003050005000
B1656353732381N08005013WA0139101451003048005000
B1656363732397N08004997WA0139201452003036005000
B1656373732412N08004981WA0139101452003022005000
B1656383732427N08004964WA0139101453003015005000
B1656393732443N08004947WA0139201453003009005000
B1656403732458N08004930WA0139301454003004005000
B1656413732472N08004913WA0139501455003004005000
B1656423732487N08004895WA0139601456003000005000
B1656433732502N08004878WA0139601457003000005000
B1656443732517N08004862WA0139501457003002005000
B1656453732533N08004846WA0139401457003004005000
B1656463732550N08004833WA0139301456003004005000
B1656473732567N08004822WA0139001454003009005000
B1656483732585N08004813WA0139001452003013005000
B1656493732603N08004805WA0139001451003018005000
B1656503732621N08004797WA0138901450003024005000
F165650510524104413152918202302
B1656513732639N08004789WA0138901450003024005000
B1656523732657N08004781WA0139101451003027005000
B1656533732674N08004771WA0139101451003034005000
B1656543732690N08004762WA0139101452003036005000
B1656553732706N08004752WA0138901452003039005000
B1656563732721N08004741WA0139001452003043005000
B1656573732737N08004730WA0138901451003046005000
B1656583732752N08004718WA0138801450003050005000
B1656593732766N08004707WA0138801449003055005000
B1657003732781N08004695WA0138701448003055005000
B1657013732796N08004684WA0138601448003057005000
B1657023732812N08004672WA0138501447003067005000
F165702510524104413152918302023
B1657033732827N08004661WA0138401446003081005000
B1657043732842N08004649WA0138301445003095005000
B1657053732857N08004637WA0138101443003104005000
B1657063732873N08004626WA0138001442003104005000
B1657073732888N08004614WA0137901441003095005000
B1657083732904N08004602WA0137701439003086005000
B1657093732919N08004591WA0137701438003079005000
B1657103732935N08004579WA0137401437003079005000
B1657113732951N08004568WA0137301435003090005000
B1657123732967N08004556WA0137201434003100005000
B1657133732983N08004545WA0137001432003107005000
B1657143732999N08004533WA0136801430003112005000
B1657153733015N08004521WA0136701428003112005000
B1657163733032N08004509WA0136401427003112005000
B1657173733049N08004497WA0136201425003112005000
B1657183733065N08004485WA0136001423003114005000
B1657193733082N08004473WA0135901421003116005000
B1657203733099N08004461WA0135901420003118005000
B1657213733116N08004448WA0135901419003121005000
B1657223733132N08004435WA0135901419003118005000
B1657233733149N08004423WA0135901419003116005000
B1657243733166N08004410WA0136001419003111005000
B1657253733183N08004398WA0135901420003104005000
B1657263733200N08004385WA0136101420003095005000
B1657273733216N08004373WA0136101420003083005000
B1657283733232N08004360WA0135701420003067005000
B1657293733248N08004346WA0135401418003057005000
B1657303733265N08004333WA0135101415003057005000
B1657313733281N08004319WA0134901412003062005000
B1657323733297N08004306WA0134901410003074005000
F165732510524104413152918202302
B1657333733315N08004295WA0134701409003086005000
B1657343733333N08004287WA0134801408003093005000
B1657353733351N08004280WA0134601407003097005000
B1657363733370N08004276WA0134301406003104005000
F165736510524104413152918302023
B1657373733389N08004275WA0134101404003107005000
B1657383733408N08004277WA0134101402003114005000
B1657393733427N08004281WA0133901401003118005000
B1657403733445N08004287WA0133701399003123005000
B1657413733463N08004296WA0133801399003127005000
B1657423733479N08004307WA0133801398003127005000
B1657433733495N08004321WA0133801398003125005000
B1657443733509N08004337WA0133601398003121005000
B1657453733522N08004355WA0133501397003116005000
B1657463733533N08004374WA0133401396003112005000
B1657473733544N08004396WA0133201395003109005000
B1657483733552N08004419WA0133201394003097005000
B1657493733560N08004442WA0133301394003083005000
B1657503733567N08004466WA0133401395003064005000
B1657513733575N08004490WA0133601396003043005000
B1657523733581N08004513WA0133701397003034005000
B1657533733588N08004537WA0133501398003022005000
B1657543733594N08004561WA0133301398003018005000
B1657553733600N08004584WA0133201397003020005000
B1657563733605N08004608WA0133101396003018005000
B1657573733609N08004632WA0133101395003015005000
B1657583733613N08004656WA0133101395003011005000
B1657593733617N08004680WA0133101395003004005000
B1658003733619N08004704WA0133001395003004005000
B1658013733619N08004728WA0133401395003004005000
B1658023733616N08004752WA0133801398003002005000
B1658033733610N08004774WA0134201402003002005000
B1658043733601N08004794WA0134301405003007005000
B1658053733590N08004812WA0134401406003018005000
B1658063733576N08004827WA0134201406003037005000
B1658073733560N08004838WA0134101405003055005000
B1658083733542N08004845WA0133901403003057005000
B1658093733522N08004847WA0133601401003057005000
B1658103733503N08004843WA0133501399003060005000
B1658113733484N08004834WA0133401397003062005000
B1658123733466N08004821WA0133101395003072005000
B1658133733449N08004804WA0132901393003083005000
B1658143733435N08004785WA0133001392003090005000
B1658153733423N08004764WA0133301392003095005000
B1658163733413N08004741WA0133601395003088005000
B1658173733406N08004717WA0133801398003078005000
B1658183733402N08004693WA0134201401003064005000
B1658193733401N08004669WA0134501404003048005000
B1658203733404N08004646WA0134601407003043005000
B1658213733409N08004623WA0134301408003041005000
B1658223733416N08004602WA0134201407003043005000
B1658233733426N08004582WA0134101406003055005000
B1658243733438N08004564WA0134001404003071005000
B1658253733451N08004548WA0133801403003085005000
B1658263733466N08004535WA0133801402003097005000
B1658273733483N08004526WA0133701401003104005000
B1658283733501N08004520WA0133601401003107005000
B1658293733519N08004517WA0133401399003109005000
B1658303733537N08004517WA0133201398003112005000
B1658313733554N08004519WA0133001395003112005000
B1658323733572N08004525WA0132701393003112005000
B1658333733590N08004532WA0132401391003107005000
B1658343733607N08004542WA0132401389003097005000
B1658353733623N08004554WA0132001387003086005000
B1658363733638N08004566WA0132101385003074005000
B1658373733654N08004580WA0131801383003069005000
B1658383733668N08004596WA0131901382003072005000
B1658393733681N08004613WA0131701381003079005000
B1658403733693N08004631WA0131701381003088005000
B1658413733704N08004651WA0131501380003097005000
B1658423733713N08004671WA0131401378003104005000
B1658433733721N08004692WA0131001377003109005000
B1658443733728N08004713WA0131001375003114005000
B1658453733734N08004735WA0130901373003116005000
B1658463733740N08004757WA0130801372003121005000
B1658473733745N08004779WA0130901372003123005000
B1658483733749N08004801WA0130901372003118005000
B1658493733753N08004822WA0130901372003113005000
B1658503733756N08004844WA0130801372003106005000
B1658513733760N08004866WA0130701371003104005000
B1658523733764N08004888WA0130501370003104005000
B1658533733767N08004910WA0130701370003097005000
B1658543733770N08004933WA0130901370003085005000
B1658553733772N08004956WA0130901372003067005000
B1658563733772N08004979WA0131201374003050005000
B1658573733768N08005001WA0131501376003039005000
B1658583733760N08005021WA0131701378003029005000
B1658593733747N08005038WA0131901380003022005000
B1659003733732N08005051WA0132101382003013005000
B1659013733714N08005058WA0132301384003009005000
B1659023733694N08005060WA0132401386003004005000
B1659033733675N08005055WA0132501387003002005000
B1659043733657N08005044WA0132801389004002005000
B1659053733642N08005028WA0133001391003006005000
F165905510510441315291830202302
B1659063733629N08005009WA0133001393003011005000
B1659073733620N08004987WA0133101393003020005000
B1659083733615N08004963WA0133101393003036005000
F165908510524104413152918302023
B1659093733614N08004940WA0133201394003053005000
B1659103733617N08004917WA0133201394003074005000
B1659113733622N08004896WA0133101394003093005000
B1659123733630N08004876WA0133301395003104005000
B1659133733640N08004859WA0133101395003109005000
B1659143733652N08004845WA0133101394003112005000
B1659153733666N08004835WA0133301394003107005000
B1659163733680N08004827WA0133501396003100005000
B1659173733695N08004823WA0133401397003093005000
B1659183733710N08004822WA0133301396003090005000
B1659193733725N08004823WA0133101395003095005000
B1659203733739N08004828WA0132901394003104005000
B1659213733753N08004835WA0132801393003114005000
B1659223733767N08004845WA0132701392003116005000
B1659233733779N08004858WA0132601390003116005000
B1659243733791N08004872WA0132501389003114005000
B1659253733801N08004888WA0132401388003102005000
B1659263733811N08004905WA0132501388003093005000
B1659273733819N08004924WA0132301388003078005000
B1659283733826N08004944WA0132201387003071005000
B1659293733833N08004963WA0132201385003074005000
B1659303733839N08004983WA0132101385003081005000
B1659313733845N08005004WA0132301385003095005000
B1659323733850N08005024WA0132401386003100005000
B1659333733854N08005045WA0132401387003097005000
B1659343733858N08005066WA0132101387003088005000
B1659353733861N08005086WA0132001385003078005000
B1659363733864N08005108WA0131801384003076005000
B1659373733865N08005129WA0131701382003083005000
B1659383733864N08005150WA0131601381003095005000
B1659393733862N08005171WA0131401380003104005000
B1659403733856N08005192WA0131401379003109005000
F165940510524441315291830202302
B1659413733848N08005211WA0131401378003114005000
B1659423733838N08005228WA0131301377003114005000
B1659433733825N08005242WA0131101375003114005000
B1659443733810N08005254WA0130801373003114005000
B1659453733794N08005263WA0130601371003114005000
B1659463733776N08005268WA0130401368003118005000
B1659473733758N08005272WA0129901365003123005000
B1659483733740N08005272WA0129501360003118005000
B1659493733721N08005270WA0129001355003106005000
B1659503733702N08005266WA0128901351003088005000
F165950510524104413152918302023
B1659513733682N08005259WA0128301348003071005000
B1659523733663N08005250WA0128001345003069005000
B1659533733644N08005239WA0127901342003076005000
B1659543733625N08005229WA0127701340003086005000
B1659553733605N08005219WA0127401338003095005000
B1659563733585N08005209WA0127101335003097005000
B1659573733565N08005200WA0127001334003097005000
B1659583733545N08005192WA0127001332003102005000
B1659593733525N08005183WA0126901332003104005000
B1700003733505N08005175WA0126801331003109005000
B1700013733485N08005168WA0126501329003112005000
B1700023733464N08005160WA0126501327003109005000
B1700033733444N08005152WA0126501326003102005000
B1700043733424N08005144WA0126401326003090005000
B1700053733403N08005137WA0126401325003079005000
B1700063733383N08005130WA0126501325003072005000
B1700073733362N08005123WA0126501326003069005000
B1700083733341N08005116WA0126801327003067005000
B1700093733320N08005109WA0126601328003060005000
B1700103733300N08005103WA0126501328003048005000
B1700113733279N08005097WA0126401326003036005000
B1700123733258N08005093WA0126201325003027005000
B1700133733237N08005090WA0126301324003020005000
B1700143733216N08005087WA0126101324003018005000
B1700153733195N08005085WA0126101323003018005000
B1700163733174N08005084WA0125901322003018005000
F170016052410441315291830202302
B1700173733153N08005083WA0126101322003018005000
B1700183733132N08005083WA0126601323003015005000
B1700193733112N08005084WA0126701326003011005000
B1700203733092N08005085WA0126701327003006005000
F1700200524101315291830202302
B1700213733072N08005085WA0126601328003004005000
B1700223733053N08005083WA0126801327003011005000
B1700233733035N08005077WA0126701328003023005000
B1700243733017N08005068WA0127101329003041005000
B1700253733002N08005054WA0127401332003060005000
F17002505101315291830202302
B1700263732990N08005036WA0127301334003069005000
B1700273732981N08005016WA0127301335003074005000
B1700283732975N08004994WA0127301334003074005000
F1700280524101315291830202302
B1700293732972N08004971WA0127101334003069005000
B1700303732973N08004948WA0127401335003064005000
B1700313732978N08004925WA0127501336003055005000
B1700323732987N08004905WA0127601337003048005000
B1700333732999N08004888WA0128001340003050005000
B1700343733015N08004876WA0128301343003055005000
B1700353733031N08004869WA0128401345003067005000
B1700363733049N08004865WA0128501346003079005000
B1700373733066N08004865WA0128201346003090005000
F170037510524101315291830202302
B1700383733083N08004868WA0128001344003100005000
B1700393733100N08004874WA0127801342003104005000
B1700403733116N08004883WA0127501340003109005000
B1700413733130N08004896WA0127401338003109005000
B1700423733143N08004911WA0127201336003109005000
B1700433733154N08004928WA0127001333003112005000
B1700443733164N08004948WA0126701331003116005000
B1700453733172N08004969WA0126701330003118005000
B1700463733176N08004991WA0126601329003121005000
B1700473733179N08005015WA0126501328003118005000
B1700483733178N08005038WA0126401327003114005000
B1700493733175N08005060WA0126301326003111005000
B1700503733169N08005082WA0126301326003107005000
B1700513733160N08005103WA0126001324003102005000
B1700523733150N08005122WA0125701321003090005000
B1700533733138N08005140WA0125401318003076005000
B1700543733125N08005156WA0125301316003064005000
B1700553733110N08005171WA0125301314003060005000
B1700563733094N08005184WA0124701312003057005000
B1700573733077N08005195WA0124701309003060005000
B1700583733059N08005204WA0124701308003067005000
B1700593733040N08005211WA0124701308003076005000
B1701003733021N08005216WA0124801308003088005000
B1701013733002N08005219WA0124601308003100005000
B1701023732983N08005221WA0124501307003104005000
B1701033732963N08005220WA0124401306003104005000
B1701043732943N08005218WA0124301304003102005000
B1701053732923N08005214WA0124301304003092005000
B1701063732904N08005208WA0124301304003085005000
B1701073732884N08005202WA0124201304003088005000
B1701083732865N08005194WA0124101303003093005000
B1701093732846N08005186WA0124201303003104005000
B1701103732826N08005177WA0124101302003118005000
B1701113732807N08005168WA0124101302003123005000
B1701123732789N08005158WA0124001301003127005000
B1701133732770N08005148WA0123901301003127005000
B1701143732751N08005138WA0123901300003123005000
B1701153732732N08005127WA0123701299003118005000
B1701163732714N08005117WA0123701299003104005000
B1701173732695N08005106WA0123601299003088005000
B1701183732677N08005095WA0123501298003071005000
B1701193732659N08005083WA0123401297003050005000
B1701203732640N08005072WA0123401295003038005000
B1701213732621N08005062WA0123301294003031005000
B1701223732601N08005054WA0123201294003034005000
B1701233732581N08005047WA0123101293003045005000
B1701243732561N08005043WA0122901292003057005000
B1701253732541N08005039WA0122801291003067005000
B1701263732520N08005036WA0122801289003064005000
B1701273732500N08005034WA0122501288003055005000
B1701283732480N08005033WA0122701286003050005000
B1701293732459N08005032WA0122901287003043005000
B1701303732439N08005032WA0122801288003039005000
B1701313732419N08005032WA0122901289003039005000
B1701323732399N08005030WA0123101290003034005000
B1701333732379N08005024WA0123601292003032005000
B1701343732362N08005011WA0124201296003027005000
B1701353732348N08004994WA0124601301003020005000
B1701363732338N08004972WA0124901306003015005000
B1701373732331N08004949WA0124901310003009005000
B1701383732329N08004925WA0125001311003016005000
B1701393732331N08004901WA0125301312003027005000
B1701403732336N08004878WA0125401314003032005000
B1701413732345N08004856WA0125501316003041005000
B1701423732355N08004837WA0125301316003039005000
B1701433732368N08004820WA0125301316003032005000
B1701443732384N08004807WA0125301315003036005000
B1701453732400N08004798WA0125101314003041005000
B1701463732418N08004794WA0125001313003048005000
B1701473732435N08004794WA0124701311003059005000
B1701483732452N08004798WA0124501309003064005000
B1701493732468N08004807WA0124501307003074005000
B1701503732482N08004819WA0124001305003083005000
B1701513732493N08004835WA0123801302003088005000
B1701523732502N08004854WA0123401299003086005000
B1701533732507N08004875WA0123101296003076005000
B1701543732510N08004896WA0122901293003069005000
B1701553732508N08004918WA0122801290003064005000
B1701563732504N08004940WA0122701288003067005000
B1701573732496N08004960WA0122501287003074005000
B1701583732486N08004979WA0122201285003076005000
B1701593732474N08004996WA0122001283003076005000
B1702003732460N08005012WA0122101282003074005000
B1702013732443N08005024WA0122201282003062005000
B1702023732426N08005035WA0122301282003053005000
B1702033732407N08005043WA0122001281003041005000
B1702043732387N08005048WA0122301281003041005000
B1702053732366N08005048WA0122401282003050005000
B1702063732346N08005044WA0122701284003055005000
B1702073732327N08005034WA0122801286003057005000
B1702083732310N08005020WA0122901288003050005000
B1702093732296N08005001WA0123001290003041005000
B1702103732285N08004980WA0123201291003044005000
B1702113732277N08004956WA0123401292003053005000
B1702123732275N08004930WA0123501293003062005000
