ANKL0Z2
HFDTE200421
HFFXA050
HFPLTPILOT:Fabrizio DiStefano
HFGTYGLIDERTYPE:ASW 19 SE
HFGIDGLIDERID:SE
HFDTM100GPSDATUM:
HFRFWFIRMWAREVERSION:38 2010-7-7
HFRHWHARDWAREVERSION: NKL ClearNav V1.0
HFFTYFRTYPE:Nielsen Kellerman, ClearNav-IGC
HFGPS:UBLOX,LEA-4H-0-000-1,16Ch,18000 
HFPRSPRESSALTSENSOR:Intersema,MS5534B,20000 
I033638FXA3941ENL4247REX
C200421174511000000000101
C0000000N00000000WTAKEOFF     
C3333999N08120000WStart 4
C3332183N08135966WErnies
C3337617N08119732WFinish
C0000000N00000000WLANDING     
B1800523337820N08119513WA0012000122002000003008
B1800533337820N08119513WA0011900122002000003008
B1800543337820N08119513WA0012100122002000003008
B1800553337821N08119513WA0012200122002000003008
B1800563337821N08119513WA0012200122002000003008
B1800573337821N08119513WA0012100123002000003008
B1800583337821N08119513WA0012100123002000003008
B1800593337821N08119513WA0012100123002000003008
B1801003337821N08119513WA0012200123002000003008
B1801013337821N08119513WA0012100123002000003008
B1801023337821N08119513WA0012100123002000003008
B1801033337821N08119513WA0012100124002000003008
B1801043337821N08119513WA0012000124002000003008
B1801053337821N08119512WA0012000124002000003008
B1801063337821N08119512WA0012000124002000003008
B1801073337821N08119512WA0012000124002000003008
B1801083337821N08119512WA0012000124002000003008
B1801093337821N08119512WA0012100124002000003008
B1801103337821N08119512WA0012100122002000003008
B1801113337821N08119512WA0012000121002000003008
B1801123337821N08119511WA0012000120002000003008
B1801133337821N08119511WA0012100120002000003008
B1801143337821N08119511WA0012000119002000003008
B1801153337821N08119511WA0012100119002000003008
B1801163337821N08119511WA0012100118002000003008
B1801173337821N08119511WA0012000118002000003008
B1801183337821N08119511WA0012100118002000003008
B1801193337821N08119511WA0012100117002000003008
B1801203337821N08119511WA0012000117002000003008
B1801213337821N08119511WA0012000117002000003008
B1801223337822N08119511WA0012100117002000003008
B1801233337822N08119511WA0012000116002000003008
B1801243337822N08119511WA0012000116002000003008
B1801253337822N08119511WA0012100116002000003008
B1801263337822N08119511WA0012000116002000003008
B1801273337822N08119511WA0012100116002000003008
B1801283337821N08119511WA0012100116002000003008
B1801293337822N08119511WA0012100116002000003008
B1801303337822N08119511WA0012000116002000003008
B1801313337822N08119511WA0012100116002000003008
B1801323337822N08119511WA0012100116002000003008
B1801333337822N08119511WA0012100116002000003008
B1801343337821N08119510WA0012100116002000003008
B1801353337821N08119510WA0012100116002000003008
B1801363337821N08119510WA0012000116002000003008
B1801373337821N08119510WA0012000116002000003008
B1801383337821N08119510WA0011900116002000003008
B1801393337821N08119510WA0012100115002000003008
B1801403337821N08119510WA0012000115002000003008
B1801413337822N08119510WA0012000115002000003008
B1801423337822N08119510WA0012100115002000003008
B1801433337822N08119510WA0012000115002000003008
B1801443337822N08119510WA0012100115002000003008
B1801453337822N08119510WA0012100115002000003008
B1801463337822N08119510WA0012000115002000003008
B1801473337822N08119510WA0012000115002000003008
B1801483337822N08119510WA0012100115002000003008
B1801493337822N08119510WA0012100115002000003008
B1801503337822N08119510WA0012000115002000003008
B1801513337822N08119510WA0012100115002000003008
B1801523337822N08119510WA0012000115002000003008
B1801533337822N08119510WA0012100115002000003008
B1801543337822N08119510WA0012000115002000003008
B1801553337822N08119509WA0012000115002000003008
B1801563337822N08119509WA0012100115002000003008
B1801573337822N08119509WA0012100114002000003008
B1801583337822N08119509WA0012100114002000003008
B1801593337822N08119509WA0012000114002000003008
B1802003337822N08119509WA0012000114002000003008
B1802013337822N08119509WA0012000114002000003008
B1802023337822N08119509WA0012000114002000003008
B1802033337822N08119509WA0012000114002000003008
B1802043337822N08119509WA0012000113002000003008
B1802053337822N08119509WA0012000113002000003008
B1802063337822N08119509WA0012000113002000003008
B1802073337822N08119509WA0011900113002000003008
B1802083337822N08119508WA0012000113002000003008
B1802093337822N08119508WA0012000113002000003008
B1802103337822N08119508WA0012100113002000003008
B1802113337822N08119508WA0012000113002000003008
B1802123337822N08119508WA0012000113002000003008
B1802133337822N08119508WA0012000113002000003008
B1802143337822N08119508WA0012100113002000003008
B1802153337822N08119508WA0012100113002000003008
B1802163337822N08119508WA0012000113002000003008
B1802173337822N08119508WA0012000113002000003008
B1802183337822N08119508WA0012000113002000003008
B1802193337822N08119508WA0012100113002000003008
B1802203337822N08119507WA0012100113002000003008
B1802213337822N08119507WA0012000112002000003008
B1802223337822N08119507WA0012000112002000003008
B1802233337822N08119507WA0012000112002000003008
B1802243337822N08119507WA0012000112002000003008
B1802253337822N08119507WA0012000111002000003008
B1802263337822N08119507WA0012100111002000003008
B1802273337822N08119507WA0012000111002000003008
B1802283337822N08119507WA0012000111002000003008
B1802293337822N08119507WA0012100111002000003008
B1802303337822N08119507WA0012100111002000003008
B1802313337822N08119507WA0012000111002000003008
B1802323337822N08119507WA0012100111002000003008
B1802333337822N08119507WA0012100111002000003008
B1802343337822N08119507WA0012000111002000003008
B1802353337822N08119507WA0012000111002000003008
B1802363337822N08119507WA0012100112002000003008
B1802373337822N08119507WA0012100112002000003008
B1802383337822N08119507WA0012100112002000003008
B1802393337822N08119507WA0012100112002000003008
B1802403337822N08119507WA0012000112002000003008
B1802413337822N08119507WA0012000112002000003008
B1802423337822N08119507WA0012100112002000003008
B1802433337822N08119507WA0012000111003000003008
B1802443337822N08119507WA0012000111003000003008
B1802453337822N08119507WA0012100112003000003008
B1802463337822N08119508WA0012000112003000003008
B1802473337822N08119508WA0012000112003000004008
B1802483337822N08119508WA0012100112003000004008
B1802493337822N08119508WA0012000112003000004008
B1802503337822N08119509WA0012100112003000004008
B1802513337821N08119511WA0012100112003000004008
B1802523337821N08119514WA0012000112003020004000
F180252462251301314070121170819
B1802533337819N08119519WA0011900112003066004000
B1802543337818N08119525WA0011900112004121005000
B1802553337816N08119533WA0011900112003172004000
B1802563337814N08119541WA0012000112003222004000
B1802573337811N08119551WA0011700111004264006000
B1802583337809N08119563WA0011800111004298006000
B1802593337806N08119575WA0011900111005326006000
B1803003337803N08119588WA0011800111004331005000
B1803013337799N08119603WA0011700111006314007000
B1803023337795N08119618WA0011900111005282006000
B1803033337791N08119635WA0011800111006243008000
B1803043337788N08119652WA0011700111004209006000
B1803053337784N08119671WA0011800111005188006000
B1803063337780N08119690WA0011800112005174006000
B1803073337776N08119710WA0012000112006158008000
B1803083337770N08119731WA0012300114006149008000
B1803093337765N08119752WA0012800117007142010000
B1803103337760N08119773WA0012900118006142007000
B1803113337755N08119795WA0013000120006151008000
B1803123337751N08119816WA0013300120006153007000
B1803133337746N08119837WA0013500122006153007000
B1803143337742N08119859WA0013700123005153007000
B1803153337737N08119882WA0013900123006153008000
B1803163337732N08119904WA0014200124005158007000
B1803173337726N08119927WA0014500125004156006000
B1803183337720N08119949WA0014900129005151007000
B1803193337714N08119971WA0015400131004149005000
B1803203337707N08119993WA0015800135004144005000
B1803213337700N08120015WA0016100140005151006000
B1803223337693N08120038WA0016600143005149006000
B1803233337685N08120061WA0017200147010142012000
B1803243337677N08120084WA0017400155008135010000
B1803253337667N08120106WA0017900163007123008000
B1803263337657N08120127WA0018400173005123006000
B1803273337648N08120145WA0019100177003123004000
B1803283337638N08120163WA0019400180003123004000
B1803293337627N08120180WA0020000184003121004000
F180329462230131407012117081928
B1803303337617N08120197WA0021000189003121004000
B1803313337606N08120212WA0021800196004121005000
B1803323337596N08120228WA0022500205005128007000
B1803333337586N08120243WA0023200212003142004000
B1803343337576N08120259WA0023500218007149009000
B1803353337566N08120276WA0024000223007158009000
B1803363337556N08120293WA0024500229006158008000
B1803373337546N08120310WA0024900235006146007000
B1803383337536N08120326WA0025300239005144006000
B1803393337525N08120343WA0025800244004140006000
B1803403337515N08120359WA0026200249004140006000
B1803413337505N08120376WA0026400252004142006000
B1803423337495N08120393WA0026400256004142005000
B1803433337486N08120410WA0026800261004137005000
B1803443337476N08120426WA0027300265003128004000
B1803453337467N08120442WA0027600270003123005000
B1803463337457N08120458WA0028200276003107005000
B1803473337447N08120473WA0028900281003096004000
B1803483337438N08120488WA0029100287003086005000
B1803493337428N08120503WA0029300289003077004000
B1803503337419N08120518WA0029700292003075004000
B1803513337409N08120533WA0030000296003070004000
B1803523337399N08120548WA0030300299003070004000
B1803533337388N08120563WA0030500302003066004000
B1803543337377N08120577WA0030700304003066004000
B1803553337366N08120591WA0030900306003064004000
B1803563337355N08120606WA0031000307003064005000
B1803573337344N08120621WA0031000307003066004000
B1803583337333N08120636WA0031000307003061004000
B1803593337321N08120651WA0031400309003061005000
B1804003337309N08120666WA0031800312003057005000
B1804013337297N08120681WA0032200318003055005000
B1804023337284N08120696WA0032600322003057004000
B1804033337271N08120709WA0032900326003059004000
B1804043337258N08120721WA0033200330003059004000
B1804053337244N08120733WA0033800334003059004000
B1804063337230N08120743WA0034200339003055004000
B1804073337215N08120752WA0034600344003052004000
B1804083337200N08120759WA0035100349003055004000
B1804093337185N08120766WA0035500354003057004000
B1804103337169N08120772WA0036000359003059004000
B1804113337154N08120777WA0036500363003061005000
B1804123337139N08120781WA0037200368003057004000
B1804133337123N08120784WA0037500374003059004000
B1804143337107N08120785WA0038000379003064004000
B1804153337092N08120785WA0038700384004054005000
B1804163337076N08120784WA0039400390004057005000
B1804173337061N08120782WA0039900395004050005000
B1804183337046N08120779WA0040400400004045006000
B1804193337030N08120774WA0040800404004052006000
F1804194622301314070121170819
B1804203337015N08120768WA0041500410005050006000
F18042046223013070121170819
B1804213337001N08120759WA0041800416005052006000
B1804223336987N08120750WA0042400420005052006000
F1804224622283013070121170819
B1804233336972N08120740WA0042900426005052006000
B1804243336959N08120729WA0043400431005055006000
B1804253336945N08120717WA0043800437005057006000
F180425462228301314070121170819
B1804263336932N08120705WA0044500442005059006000
B1804273336920N08120691WA0045000448005059007000
F1804274622283013070121170819
B1804283336910N08120676WA0045600454005064006000
B1804293336900N08120659WA0046100460005064007000
B1804303336892N08120642WA0046700465005061007000
B1804313336885N08120624WA0047300471005061006000
F18043146223013070121170819
B1804323336878N08120606WA0047700476005057006000
F1804324622301314070121170819
B1804333336872N08120588WA0048300481005055006000
F180433462228301314070121170819
B1804343336866N08120570WA0048600486004057005000
B1804353336860N08120551WA0049100490004055005000
B1804363336855N08120532WA0049400495004055005000
B1804373336850N08120511WA0049700500003050004000
B1804383336846N08120491WA0050100504003048004000
B1804393336843N08120471WA0050600509003050004000
B1804403336839N08120451WA0051200514003050004000
B1804413336836N08120431WA0051900519002057003000
B1804423336833N08120411WA0052400524002057003000
B1804433336830N08120391WA0053100530002057003000
B1804443336828N08120371WA0053500535002059003000
F1804442228301314070121170819
B1804453336825N08120351WA0053400538002052003000
B1804463336822N08120330WA0053700540002047003000
B1804473336820N08120310WA0054100542002047003000
B1804483336817N08120290WA0054400546002045003000
B1804493336814N08120270WA0054800549002052003000
B1804503336812N08120249WA0055100553002052003000
B1804513336809N08120229WA0055600558002054003000
B1804523336807N08120209WA0056200564002057003000
B1804533336804N08120189WA0056700569002057003000
B1804543336802N08120169WA0057300575002061003000
B1804553336800N08120149WA0057900581002059003000
B1804563336798N08120129WA0058500587002059003000
B1804573336795N08120109WA0058900593002057003000
B1804583336793N08120089WA0059400598002057003000
B1804593336791N08120068WA0059800603002057003000
B1805003336789N08120048WA0060200607002050003000
B1805013336788N08120027WA0060500611002048003000
B1805023336786N08120006WA0060900616002045003000
B1805033336785N08119985WA0061700621002045003000
B1805043336782N08119965WA0062200627002050003000
B1805053336780N08119944WA0062500632002052003000
B1805063336778N08119923WA0062900636002052003000
B1805073336776N08119902WA0063300640002048003000
B1805083336774N08119881WA0063800645002045003000
B1805093336773N08119860WA0064300651002045003000
B1805103336772N08119839WA0064800656002052003000
B1805113336770N08119819WA0065200661002057003000
B1805123336769N08119798WA0066000667002061003000
B1805133336768N08119778WA0066500673002064003000
B1805143336767N08119758WA0066800678002059003000
B1805153336766N08119738WA0067400683002061003000
B1805163336765N08119718WA0067700689002059003000
B1805173336763N08119698WA0068400693002059003000
B1805183336762N08119678WA0068800698002059003000
B1805193336761N08119657WA0069100702002059003000
B1805203336760N08119637WA0069500707002057003000
B1805213336758N08119617WA0069600710002055003000
B1805223336757N08119597WA0070200713002052003000
B1805233336755N08119577WA0070500718002048003000
B1805243336753N08119557WA0070900722002050003000
B1805253336751N08119537WA0071000725002048003000
B1805263336749N08119517WA0071300727002050003000
B1805273336748N08119496WA0071500729002052003000
B1805283336747N08119476WA0071900732002055003000
B1805293336746N08119455WA0072400736002052003000
B1805303336745N08119435WA0072900740002052003000
B1805313336744N08119414WA0073500744002050003000
B1805323336743N08119394WA0073500748002048003000
B1805333336742N08119374WA0073900751002052003000
B1805343336739N08119356WA0074300755002055003000
B1805353336734N08119340WA0074800760002061003000
B1805363336728N08119327WA0075100763002061003000
B1805373336720N08119316WA0075200766002059003000
B1805383336711N08119307WA0075100766002052004000
B1805393336703N08119298WA0075100766002045003000
B1805403336696N08119288WA0074800764002038003000
F18054022301314070121170819
B1805413336690N08119276WA0075100763002038003000
B1805423336686N08119262WA0074900761002038003000
B1805433336684N08119246WA0074600759002034003000
F1805432228301314070121170819
B1805443336686N08119230WA0074500756002036003000
B1805453336690N08119213WA0074200754002027003000
B1805463336697N08119197WA0073900751002022003000
F18054622283013140701210819
B1805473336706N08119181WA0073800749002020003000
B1805483336717N08119167WA0073500746002015003000
B1805493336730N08119154WA0073300743002018003000
F1805492228301314070121170819
B1805503336743N08119141WA0073400741002018003000
B1805513336757N08119129WA0073200740002018003000
B1805523336772N08119118WA0073000739002018003000
B1805533336787N08119108WA0073000739002018003000
B1805543336804N08119100WA0073000738002018003000
B1805553336821N08119094WA0072800737002011003000
B1805563336839N08119090WA0072400735002004003000
B1805573336857N08119088WA0072300733002002003000
B1805583336876N08119087WA0072100730002000003000
B1805593336895N08119088WA0071700728002002003000
B1806003336914N08119090WA0071500725002009002000
B1806013336933N08119092WA0071200722002004002000
B1806023336953N08119093WA0071000720002009002000
B1806033336973N08119095WA0070800718002004002000
B1806043336993N08119097WA0070700717002000002000
B1806053337013N08119098WA0070300715002002002000
B1806063337033N08119099WA0070300713002000002000
B1806073337053N08119101WA0070100712002006002000
B1806083337073N08119103WA0070100711002013002000
B1806093337093N08119105WA0070000711002013002000
B1806103337112N08119108WA0069900711002013002000
B1806113337131N08119112WA0069800710002011002000
B1806123337151N08119116WA0069500709002011002000
B1806133337170N08119120WA0069500707002006002000
B1806143337189N08119124WA0069300705002009002000
B1806153337208N08119129WA0069100704002006002000
B1806163337227N08119134WA0068800702002004002000
B1806173337246N08119140WA0068500699002006002000
B1806183337265N08119146WA0068200696002002002000
B1806193337284N08119152WA0067900693002000002000
B1806203337304N08119159WA0067500690002002002000
B1806213337323N08119165WA0067300687002006002000
F18062128301314070121170819
B1806223337342N08119171WA0067100684002011002000
B1806233337362N08119176WA0066800682002015002000
B1806243337382N08119181WA0066600679002009002000
B1806253337402N08119186WA0066400676002006002000
B1806263337422N08119190WA0066100674002004002000
F1806262228301314070121170819
B1806273337442N08119194WA0066000672002004002000
B1806283337462N08119197WA0066100671002004002000
B1806293337482N08119200WA0066400672002006002000
B1806303337503N08119203WA0066900676002009002000
B1806313337523N08119206WA0067500681002006002000
B1806323337543N08119209WA0068100687002013002000
B1806333337562N08119210WA0068400692002011002000
B1806343337581N08119211WA0068900697002011002000
B1806353337599N08119213WA0069100701002015002000
B1806363337617N08119215WA0069300704002015002000
B1806373337634N08119219WA0069400705002018002000
B1806383337651N08119225WA0069400707002022002000
B1806393337667N08119233WA0069400707002020002000
B1806403337681N08119245WA0069600708002024002000
F18064028301314070121170819
B1806413337693N08119259WA0069900709002027003000
B1806423337703N08119276WA0070100711002024003000
B1806433337709N08119294WA0070300714002024003000
F1806432228301314070121170819
B1806443337712N08119312WA0070600717002024003000
B1806453337712N08119329WA0070700718003024003000
B1806463337709N08119345WA0070900720003022003000
B1806473337703N08119359WA0071000721003027003000
B1806483337694N08119371WA0070900722003027003000
B1806493337684N08119380WA0071000722003029003000
B1806503337673N08119386WA0071100721003033003000
B1806513337662N08119388WA0071200721002036003000
B1806523337650N08119385WA0071200722003031003000
B1806533337639N08119379WA0071400723003031003000
B1806543337630N08119369WA0071500723003029004000
B1806553337623N08119357WA0071700724003024003000
B1806563337619N08119342WA0071800725002024003000
B1806573337618N08119326WA0072100727002022003000
B1806583337621N08119310WA0072600729002020003000
B1806593337627N08119294WA0073000732002022003000
F18065922283013140701210819
B1807003337637N08119280WA0073300735002024003000
B1807013337649N08119268WA0073600738002022003000
B1807023337663N08119258WA0073800741002020003000
F1807021722283013140701210819
B1807033337679N08119250WA0073800743002018003000
B1807043337696N08119246WA0074000744002018003000
B1807053337713N08119244WA0073900744002020003000
B1807063337730N08119247WA0073800744002022003000
B1807073337748N08119253WA0073900744002024003000
B1807083337764N08119262WA0073900744002027003000
B1807093337778N08119275WA0074000744002029003000
F18070917283013140701210819
B1807103337791N08119291WA0074200744003033003000
B1807113337801N08119309WA0074200745002036003000
B1807123337808N08119328WA0074500746002036003000
F1807121722283013140701210819
B1807133337812N08119347WA0074600749002033003000
B1807143337813N08119365WA0074700750002027003000
B1807153337810N08119382WA0074900752002024003000
B1807163337805N08119398WA0074900753002015003000
B1807173337798N08119411WA0074700753002015003000
B1807183337790N08119422WA0074900752002022003000
B1807193337779N08119429WA0075000753002022003000
B1807203337768N08119434WA0075000753002024003000
B1807213337757N08119435WA0075100753002024003000
B1807223337746N08119433WA0075100754002018003000
B1807233337736N08119428WA0075100754002013003000
B1807243337727N08119419WA0075200755002022003000
B1807253337720N08119408WA0075300755002020003000
B1807263337715N08119395WA0075600755002027003000
B1807273337713N08119380WA0075700756002027003000
B1807283337713N08119363WA0076000758002024003000
B1807293337715N08119346WA0076400761002029003000
B1807303337717N08119329WA0076800764002029003000
B1807313337719N08119313WA0077000768002027003000
F18073122283013140701210819
B1807323337722N08119296WA0077400771002027003000
B1807333337725N08119279WA0077900776002020003000
B1807343337730N08119262WA0078300780002020003000
B1807353337738N08119247WA0078500785002022003000
B1807363337749N08119233WA0078700788002022003000
B1807373337762N08119222WA0078800791002022003000
B1807383337777N08119213WA0078900791002022003000
F1807381722283013140701210819
B1807393337794N08119208WA0078800791002024003000
B1807403337812N08119206WA0078900791003022003000
B1807413337830N08119207WA0078800791002027003000
B1807423337848N08119211WA0078900791002020003000
B1807433337865N08119219WA0079000791003022003000
B1807443337881N08119231WA0079000791003020003000
F18074417283013140701210819
B1807453337896N08119245WA0079200792002022003000
B1807463337909N08119261WA0079300793002027003000
B1807473337919N08119280WA0079600795002031003000
F1807471722283013140701210819
B1807483337926N08119299WA0080000798002038003000
F18074817283013140701210819
B1807493337929N08119317WA0080100801002036003000
B1807503337930N08119336WA0080400804002038003000
B1807513337928N08119353WA0080500806002036003000
F1807511722283013140701210819
B1807523337924N08119368WA0080500806002033003000
B1807533337917N08119382WA0080400807002027003000
B1807543337908N08119393WA0080600807002024003000
B1807553337898N08119403WA0080700807002024003000
B1807563337886N08119408WA0080600808002024003000
B1807573337874N08119410WA0080700809002029003000
B1807583337861N08119408WA0080900810002031003000
B1807593337850N08119404WA0080800811002031003000
B1808003337839N08119396WA0080900811002031003000
B1808013337830N08119386WA0081500813002036003000
B1808023337823N08119372WA0081900816002033003000
B1808033337818N08119357WA0082300821002036003000
B1808043337817N08119341WA0082800825002036003000
B1808053337818N08119325WA0083100830002036003000
F18080522283013140701210819
B1808063337821N08119308WA0083500834002034003000
B1808073337827N08119292WA0083700837002031003000
B1808083337836N08119277WA0084000839002027003000
B1808093337846N08119262WA0084200842002022003000
B1808103337859N08119250WA0084400843002022003000
F1808101722283013140701210819
B1808113337874N08119239WA0084300844002018003000
B1808123337889N08119229WA0084400845002020003000
B1808133337905N08119221WA0084500846002018003000
B1808143337922N08119216WA0084500847002022003000
B1808153337939N08119214WA0084500848002027003000
B1808163337956N08119214WA0084500848002027003000
B1808173337974N08119217WA0084400848002036003000
B1808183337991N08119224WA0084500848002038003000
B1808193338007N08119233WA0084600849002041003000
B1808203338023N08119244WA0084700849002041003000
F18082017283013140701210819
B1808213338036N08119258WA0084400848002036003000
B1808223338048N08119275WA0084400847002029003000
B1808233338057N08119292WA0084500847002024003000
F1808231722283013140701210819
B1808243338064N08119311WA0084600847002020003000
B1808253338067N08119330WA0084800849002022003000
B1808263338067N08119348WA0085000851002027003000
B1808273338064N08119365WA0085300853002027003000
B1808283338059N08119380WA0085300855002031003000
B1808293338052N08119393WA0085400856002031003000
B1808303338044N08119403WA0085500857003031003000
B1808313338034N08119411WA0085200857002027003000
B1808323338023N08119416WA0085300856002024003000
B1808333338012N08119417WA0085200856002022003000
B1808343338000N08119415WA0085300855002018003000
B1808353337989N08119409WA0085300854002020003000
B1808363337979N08119400WA0085600855002022003000
B1808373337971N08119388WA0085700857002024003000
B1808383337963N08119375WA0085900859002022003000
B1808393337957N08119361WA0086300862002024003000
B1808403337951N08119347WA0086600865002022003000
B1808413337945N08119333WA0087200869002020003000
B1808423337940N08119319WA0087300873002022003000
B1808433337935N08119305WA0087500876002020003000
B1808443337932N08119289WA0087400877002020003000
B1808453337931N08119273WA0087400877002015003000
B1808463337934N08119256WA0087300877002018003000
B1808473337939N08119239WA0087300877002022003000
F18084722283013140701210819
B1808483337948N08119223WA0087400877002024003000
B1808493337959N08119210WA0087500877002031003000
B1808503337972N08119198WA0087500877002033003000
F1808501722283013140701210819
B1808513337987N08119190WA0087400878002031003000
B1808523338002N08119185WA0087500878002033003000
B1808533338019N08119183WA0087500878002024003000
B1808543338035N08119185WA0087400878002020003000
B1808553338052N08119191WA0087600878002020003000
B1808563338068N08119199WA0087600878002020003000
B1808573338083N08119211WA0087500878002029003000
B1808583338097N08119223WA0087500878002033003000
B1808593338111N08119237WA0087500878002029003000
B1809003338125N08119250WA0087600880002027003000
B1809013338139N08119264WA0087800881002024003000
B1809023338153N08119277WA0087900883002024003000
B1809033338168N08119291WA0088200885002031003000
B1809043338183N08119305WA0088200888002033003000
B1809053338197N08119319WA0088300889002036003000
B1809063338211N08119333WA0088200890002031003000
B1809073338223N08119349WA0088200890002031003000
B1809083338232N08119367WA0088300890002031003000
B1809093338239N08119386WA0088400891002024003000
B1809103338242N08119404WA0088600893003022003000
F18091017283013140701210819
B1809113338243N08119421WA0088700894003020003000
B1809123338240N08119438WA0088900896003013003000
B1809133338235N08119452WA0088900896003020003000
F1809131722283013140701210819
B1809143338227N08119463WA0089200897003027003000
B1809153338217N08119471WA0089200898003029003000
B1809163338207N08119476WA0089000898003033003000
B1809173338195N08119479WA0089000897003033003000
B1809183338184N08119478WA0089100897002027003000
B1809193338174N08119474WA0089100897002022003000
B1809203338164N08119467WA0089200897003022003000
B1809213338154N08119457WA0089500898003022004000
B1809223338147N08119445WA0089900900003027003000
B1809233338141N08119432WA0090200903003031003000
B1809243338136N08119418WA0090600907002027003000
B1809253338131N08119404WA0091000911002022003000
B1809263338127N08119390WA0091400915002022003000
B1809273338123N08119376WA0091800919002020003000
B1809283338121N08119362WA0092000923002024003000
B1809293338122N08119346WA0092300926002022003000
B1809303338126N08119331WA0092000927002015003000
B1809313338133N08119317WA0092000926002013003000
B1809323338145N08119303WA0092200927002015003000
B1809333338159N08119293WA0092200927002020003000
B1809343338175N08119285WA0092200928003029003000
B1809353338193N08119283WA0092400929003029004000
B1809363338211N08119285WA0092600931003024004000
B1809373338228N08119291WA0092800932003024003000
B1809383338245N08119301WA0092700934003022003000
F18093817283013140701210819
B1809393338258N08119314WA0092900934002024003000
B1809403338270N08119329WA0092900934002022003000
B1809413338278N08119347WA0093000934002024003000
B1809423338283N08119366WA0093100935002029003000
B1809433338284N08119384WA0093100936003027003000
F1809431722283013140701210819
B1809443338282N08119401WA0093300936003031003000
B1809453338276N08119417WA0093300937003031003000
B1809463338268N08119430WA0093200937003029003000
B1809473338257N08119440WA0093300939003027003000
B1809483338245N08119447WA0093500939002029003000
B1809493338233N08119450WA0093700940002029003000
B1809503338220N08119449WA0094000942002027003000
B1809513338208N08119444WA0094400946003033003000
B1809523338197N08119435WA0094900950002027003000
B1809533338189N08119423WA0095200954002022003000
B1809543338183N08119409WA0095700957002020003000
B1809553338181N08119392WA0095800960002020003000
B1809563338182N08119375WA0096100963002022003000
B1809573338187N08119358WA0096200966002024003000
B1809583338195N08119341WA0096300966002029003000
B1809593338206N08119327WA0096400968002027003000
B1810003338221N08119316WA0096500969002027003000
B1810013338237N08119308WA0096500970002029003000
B1810023338254N08119303WA0096500971002027003000
B1810033338272N08119303WA0096700972002027003000
B1810043338290N08119307WA0096800974003024003000
B1810053338306N08119316WA0096900975003024004000
B1810063338321N08119328WA0096800975002027003000
F18100617283013140701210819
B1810073338333N08119343WA0097000975002029003000
B1810083338343N08119360WA0097200976002036003000
B1810093338351N08119378WA0097200978002029003000
F1810091722283013140701210819
B1810103338357N08119397WA0097500980002024003000
B1810113338363N08119416WA0097900983002020003000
B1810123338369N08119435WA0098100986002015003000
B1810133338374N08119454WA0098200989002022003000
B1810143338377N08119472WA0098200990002027003000
B1810153338378N08119490WA0098200991002029003000
B1810163338376N08119507WA0098200991002027003000
B1810173338372N08119523WA0098000990002022003000
B1810183338365N08119536WA0097800988002018003000
B1810193338356N08119547WA0097700986002015003000
B1810203338345N08119556WA0097600985002018003000
B1810213338334N08119560WA0097800984002018003000
B1810223338321N08119562WA0097700984002015003000
B1810233338309N08119559WA0097700984002015003000
B1810243338298N08119554WA0097800985002020003000
B1810253338286N08119546WA0097900985003024003000
B1810263338276N08119536WA0098100986003029003000
B1810273338266N08119525WA0098400988002033003000
B1810283338257N08119512WA0098900991002031003000
B1810293338249N08119499WA0099300995002029003000
B1810303338241N08119486WA0099700999002029003000
B1810313338234N08119472WA0099801003002027003000
B1810323338230N08119456WA0099701005002027003000
B1810333338227N08119439WA0099801006002027003000
B1810343338228N08119421WA0099801006002027003000
B1810353338232N08119402WA0100001006002024003000
B1810363338239N08119385WA0099801007002018003000
B1810373338248N08119368WA0100001008002011003000
B1810383338259N08119354WA0099901008002011003000
B1810393338273N08119342WA0099801007002011003000
B1810403338287N08119331WA0099801006002015003000
B1810413338303N08119323WA0099701006002020003000
B1810423338320N08119317WA0099701005002018003000
B1810433338337N08119314WA0099601004002018003000
B1810443338353N08119313WA0099701004002018003000
B1810453338370N08119316WA0099701005002013003000
B1810463338386N08119320WA0099801005002006003000
B1810473338402N08119327WA0100001006002006003000
B1810483338417N08119335WA0100001006002006003000
B1810493338431N08119345WA0100101007002011003000
B1810503338445N08119357WA0100101008002011003000
B1810513338457N08119370WA0100301009002006003000
B1810523338467N08119385WA0100501010002006003000
B1810533338476N08119401WA0100601012002000003000
B1810543338484N08119417WA0100701015002002003000
B1810553338492N08119434WA0101101017002006003000
B1810563338500N08119451WA0101101020002002003000
B1810573338508N08119468WA0101301021002004003000
B1810583338516N08119484WA0101301022002009003000
F181058172228301314070121081903
B1810593338524N08119500WA0101301023002002003000
B1811003338530N08119517WA0101201024002004003000
B1811013338534N08119534WA0101201024002009003000
B1811023338536N08119550WA0101201022002009003000
B1811033338536N08119567WA0101101021002015003000
B1811043338533N08119582WA0100901020002018003000
B1811053338528N08119596WA0100801020002013003000
B1811063338521N08119608WA0101001019002009003000
B1811073338513N08119618WA0101001019002004003000
B1811083338504N08119625WA0101001019002000003000
B1811093338493N08119630WA0101001019002004003000
B1811103338483N08119631WA0101201020002006003000
B1811113338473N08119630WA0101201021002004003000
B1811123338463N08119627WA0101201021002009003000
B1811133338454N08119620WA0101201021002009003000
B1811143338446N08119609WA0101501022002011003000
B1811153338440N08119597WA0101701024002015003000
B1811163338435N08119583WA0102001026002013003000
B1811173338432N08119567WA0102201029002013003000
F1811172228301314070121081903
B1811183338430N08119551WA0102301031002013003000
B1811193338428N08119535WA0102601033002011003000
F181119172228301314070121081903
B1811203338426N08119518WA0102801034002013003000
B1811213338425N08119501WA0103001035002013003000
B1811223338424N08119484WA0103301037002013003000
F1811222228301314070121081903
B1811233338426N08119467WA0103601040002018003000
B1811243338429N08119449WA0103701043002018003000
B1811253338435N08119432WA0103901045002022003000
B1811263338442N08119416WA0104101046002018003000
B1811273338451N08119401WA0104001047002018003000
F181127172228301314070121081903
B1811283338462N08119386WA0104001048002013003000
B1811293338474N08119374WA0104101049002004003000
B1811303338488N08119363WA0104101049002011003000
B1811313338503N08119355WA0104201049002009003000
B1811323338519N08119349WA0104301049002015003000
B1811333338536N08119345WA0104301050002018003000
B1811343338552N08119342WA0104501051002018003000
B1811353338568N08119343WA0104601052002022003000
B1811363338585N08119345WA0104601052002020003000
F1811361722283013140701210819
B1811373338600N08119350WA0104601053002022003000
B1811383338616N08119357WA0104601054002015003000
B1811393338630N08119367WA0104701054002013003000
B1811403338643N08119379WA0104801054002011003000
F18114017283013140701210819
B1811413338654N08119393WA0104701054002011003000
B1811423338663N08119409WA0104501054002020003000
F1811421728301314070121030819
B1811433338669N08119426WA0104601054002022003000
F181143172228301314070121030819
B1811443338673N08119443WA0104801054002027003000
B1811453338673N08119460WA0104801055002031003000
B1811463338671N08119476WA0104801056002031003000
B1811473338666N08119491WA0104901056002029003000
B1811483338658N08119503WA0105001057002029003000
B1811493338648N08119513WA0105001057002027003000
B1811503338637N08119520WA0105001057002027003000
B1811513338625N08119523WA0105001058002031003000
B1811523338612N08119523WA0105301059002033003000
B1811533338599N08119520WA0105601062002036003000
B1811543338588N08119514WA0105801064002033003000
B1811553338577N08119504WA0105901066002033003000
B1811563338568N08119492WA0106101067002029003000
B1811573338562N08119477WA0106401068002029003000
B1811583338558N08119461WA0106301070002029003000
B1811593338558N08119443WA0106601072002029003000
B1812003338560N08119426WA0106801074002027003000
B1812013338565N08119408WA0106801075002018003000
B1812023338574N08119393WA0106801076002018003000
B1812033338585N08119379WA0106801076002011003000
B1812043338600N08119368WA0106701076002013003000
B1812053338616N08119362WA0106501075002015003000
B1812063338633N08119361WA0106501073002009003000
B1812073338650N08119364WA0106401072003006003000
B1812083338667N08119373WA0106301072002009003000
B1812093338683N08119384WA0106301071002011003000
F1812091728301314070121030819
B1812103338696N08119398WA0106501071002013003000
B1812113338707N08119414WA0106501071002011003000
B1812123338716N08119431WA0106501072002009003000
F181212172228301314070121030819
B1812133338721N08119449WA0106701073002009003000
B1812143338723N08119467WA0106701074002013003000
F1812141722283013140701210319
B1812153338721N08119485WA0107001075002018003000
B1812163338717N08119501WA0107001077002020003000
B1812173338710N08119515WA0107001078002024003000
F181217172228301314070121030819
B1812183338702N08119529WA0107001080002022003000
B1812193338692N08119542WA0107301081002024003000
B1812203338683N08119554WA0107501083002022003000
B1812213338672N08119566WA0107501085002018003000
B1812223338662N08119576WA0107701086002022003000
B1812233338650N08119585WA0108001088002022003000
B1812243338637N08119589WA0108201090002022003000
B1812253338624N08119590WA0108401092002018003000
B1812263338611N08119586WA0108501094002013003000
B1812273338599N08119579WA0108701096002015003000
B1812283338589N08119569WA0108801097002015003000
B1812293338581N08119556WA0108801097002015003000
B1812303338576N08119540WA0108801098002018003000
B1812313338573N08119523WA0109001098002020003000
F1812311722283013070121030819
B1812323338572N08119505WA0109101098002018003000
F181232172228301314070121030819
B1812333338575N08119487WA0109101099002027003000
B1812343338581N08119469WA0109201099002027003000
B1812353338590N08119453WA0109201099002027003000
B1812363338602N08119440WA0109101099002033003000
B1812373338616N08119429WA0108801098002029003000
B1812383338632N08119421WA0108701097002024003000
B1812393338649N08119417WA0108701096002020003000
B1812403338666N08119416WA0108601095002011003000
B1812413338684N08119419WA0108701094002004003000
F1812411722283013140701210819
B1812423338701N08119427WA0108801094002006003000
B1812433338718N08119436WA0108901095002006003000
B1812443338732N08119449WA0109201097002013003000
B1812453338745N08119464WA0109401100002020003000
B1812463338755N08119480WA0109801102002018003000
B1812473338762N08119497WA0110001105002018003000
F181247172228301314070121030819
B1812483338767N08119515WA0110201107002018003000
B1812493338770N08119532WA0110301110002018003000
B1812503338772N08119550WA0110501112002013003000
B1812513338773N08119568WA0110601114002006003000
F1812511722283013140701210319
B1812523338774N08119586WA0110801115002002003000
B1812533338774N08119604WA0111201117002004003000
B1812543338774N08119622WA0111401120002011003000
B1812553338773N08119640WA0111701122002018003000
B1812563338771N08119658WA0111901125002024003000
F181256172228301314070121030819
B1812573338767N08119675WA0112101128002020003000
B1812583338761N08119690WA0112401131002015003000
B1812593338754N08119703WA0112701134002020003000
B1813003338744N08119713WA0112801136002018003000
B1813013338734N08119719WA0112901138002015003000
B1813023338722N08119721WA0112701138002018003000
B1813033338710N08119719WA0112501137002015003000
B1813043338699N08119714WA0112501135002015003000
B1813053338688N08119705WA0112401134002020003000
B1813063338680N08119692WA0112401134002024003000
B1813073338673N08119677WA0112401133002027003000
B1813083338669N08119660WA0112401132002029003000
F18130817223013070121030819
B1813093338668N08119643WA0112201131002029003000
F1813091722143013070121030819
B1813103338669N08119625WA0112001129002031003000
B1813113338673N08119607WA0111801126002027003000
F181311172214301328070121030819
B1813123338680N08119589WA0111401123002022003000
B1813133338689N08119573WA0111401120002018003000
B1813143338702N08119558WA0111201119002015003000
B1813153338717N08119547WA0111301119002011003000
B1813163338733N08119539WA0111401119002013003000
B1813173338751N08119535WA0111401120002013003000
B1813183338769N08119535WA0111701122002009003000
B1813193338787N08119539WA0111901123002011003000
B1813203338803N08119546WA0111801124002009003000
F1813201722143013280701210819
B1813213338819N08119555WA0111801125002015003000
B1813223338835N08119564WA0111801125002015003000
B1813233338852N08119573WA0112001126002022003000
F181323172214301328070121030819
B1813243338868N08119583WA0112201128002027003000
B1813253338884N08119592WA0112401131002024003000
B1813263338901N08119601WA0112501133002027003000
B1813273338918N08119610WA0112801136002022003000
B1813283338934N08119619WA0112701137002020003000
B1813293338950N08119628WA0112601137002022003000
B1813303338966N08119639WA0112301136002024003000
B1813313338981N08119651WA0112201135002022003000
F1813311714301328070121030819
B1813323338994N08119666WA0112001132002022003000
B1813333339005N08119681WA0111801130002020003000
B1813343339016N08119698WA0111601128002018003000
F181334172214301328070121030819
B1813353339023N08119717WA0111501126002015003000
B1813363339028N08119735WA0111401125002013003000
B1813373339028N08119753WA0111201124002011003000
B1813383339025N08119769WA0111201124002009003000
B1813393339018N08119783WA0111401124002013003000
B1813403339010N08119795WA0111501124002013003000
B1813413338999N08119803WA0111601125002015003000
B1813423338988N08119807WA0111601126002018003000
B1813433338977N08119810WA0111701127002018003000
B1813443338965N08119811WA0111901129002013003000
B1813453338953N08119812WA0111901130002013003000
B1813463338941N08119812WA0111901131002015003000
B1813473338929N08119813WA0112001132002020003000
B1813483338917N08119810WA0112101133002022003000
B1813493338906N08119806WA0112001134002027003000
B1813503338895N08119799WA0112001134002029003000
F1813501722143013070121030819
B1813513338886N08119789WA0111901133002024003000
B1813523338878N08119777WA0112201133002027003000
F18135217223013070121030819
B1813533338872N08119763WA0112501135002022003000
B1813543338868N08119748WA0112801137002015003000
B1813553338867N08119731WA0113401141002018003000
F1813551722143013070121030819
B1813563338868N08119714WA0113901147002022003000
F181356172214301328070121030819
B1813573338872N08119698WA0114201151002022003000
B1813583338878N08119682WA0114501154002022003000
B1813593338887N08119668WA0114401156002020003000
B1814003338899N08119655WA0114401157002013003000
B1814013338913N08119646WA0114601158002013003000
B1814023338930N08119639WA0114801160002011003000
B1814033338947N08119636WA0115001162002009003000
B1814043338964N08119637WA0115201164002011003000
F1814041722143013280701210819
B1814053338981N08119641WA0115401165002011003000
B1814063338997N08119649WA0115301167002015003000
B1814073339012N08119661WA0115301167002013003000
F18140717143013280701210819
B1814083339024N08119675WA0115401167002013003000
B1814093339034N08119691WA0115301166002013003000
B1814103339040N08119709WA0115101166002013003000
B1814113339043N08119727WA0115301165002020003000
F1814111722143013280701210819
B1814123339043N08119746WA0115301165002022003000
F1814121722143013280701210319
B1814133339039N08119763WA0115701167002027003000
B1814143339033N08119778WA0115801168002027003000
B1814153339024N08119792WA0115801170002027003000
F181415172214301328070121030819
B1814163339016N08119805WA0116001171002020003000
B1814173339008N08119817WA0116001172002015003000
B1814183338998N08119829WA0116101173002015003000
B1814193338988N08119837WA0116101173002013003000
B1814203338977N08119842WA0116001173002018003000
B1814213338965N08119844WA0116001172002013003000
B1814223338954N08119843WA0115701170002011003000
B1814233338942N08119837WA0115701169002011003000
B1814243338932N08119828WA0115301167002006003000
F1814241722143028070121030819
B1814253338924N08119817WA0115201165002011003000
F1814251722143013070121030819
B1814263338916N08119803WA0114901163002013003000
F181426172214301328070121030819
B1814273338909N08119789WA0114901161002018003000
B1814283338902N08119775WA0114801159002024003000
B1814293338896N08119761WA0114801159002027003000
B1814303338889N08119746WA0114801158002027003000
B1814313338884N08119731WA0114701158002022003000
B1814323338879N08119716WA0114701157002020003000
B1814333338875N08119700WA0114701156002011003000
B1814343338873N08119683WA0114701157002004003000
B1814353338874N08119666WA0114801158002004003000
B1814363338879N08119650WA0114701157002004003000
B1814373338888N08119635WA0114401156002009003000
B1814383338899N08119622WA0114001153002013003000
B1814393338914N08119612WA0113401149002013003000
B1814403338930N08119606WA0113001144002006003000
B1814413338948N08119603WA0112801139002009003000
B1814423338966N08119602WA0112401136002009003000
B1814433338985N08119604WA0112301133002009003000
B1814443339005N08119607WA0112201133003013003000
B1814453339024N08119609WA0112201133003013003000
B1814463339044N08119612WA0112501134002009003000
B1814473339063N08119614WA0112801136002009003000
B1814483339082N08119616WA0113301140002011003000
B1814493339101N08119618WA0113401145002009003000
B1814503339119N08119619WA0113701148002013003000
B1814513339137N08119621WA0113801151002018003000
B1814523339155N08119623WA0113901153002022003000
B1814533339173N08119627WA0113901154002029003000
B1814543339190N08119633WA0113901155002036003000
B1814553339207N08119642WA0113901155002036003000
F1814551722143013280701210819
B1814563339222N08119653WA0113901155002036003000
B1814573339235N08119667WA0113701154002033003000
F18145717143013280701210819
B1814583339247N08119683WA0113801154002033003000
B1814593339255N08119701WA0113801153002033003000
F1814591714301328070121030819
B1815003339261N08119719WA0113601152002033003000
F181500172214301328070121030819
B1815013339265N08119738WA0113501151003033003000
B1815023339267N08119757WA0113401150003029003000
B1815033339268N08119777WA0113501149003024003000
B1815043339267N08119797WA0113701151003018003000
B1815053339265N08119815WA0114101153003013003000
B1815063339260N08119832WA0114401156003015003000
B1815073339254N08119847WA0114801161003015003000
B1815083339246N08119858WA0115001164002018003000
B1815093339237N08119867WA0115301166002022003000
B1815103339228N08119872WA0115301167002020003000
B1815113339218N08119874WA0115301167002020003000
B1815123339208N08119873WA0115401167002020003000
B1815133339198N08119869WA0115301167002018003000
B1815143339188N08119864WA0115501168002020003000
F1815141722143013070121030819
B1815153339179N08119856WA0115601168002020003000
F18151517223013070121030819
B1815163339170N08119847WA0115601169002022003000
B1815173339162N08119838WA0115701171002029003000
B1815183339153N08119828WA0116001172002031003000
B1815193339145N08119818WA0116101173002036003000
B1815203339137N08119808WA0116201175002031003000
B1815213339129N08119797WA0116201176002024003000
B1815223339122N08119785WA0116301176002022003000
F181522172214301328070121030819
B1815233339116N08119773WA0116301176002022003000
B1815243339111N08119759WA0116501176002022003000
B1815253339108N08119744WA0116701178002024003000
B1815263339108N08119728WA0116701180002024003000
B1815273339112N08119712WA0116701180002022003000
B1815283339118N08119696WA0116601180002027003000
B1815293339128N08119682WA0116501179002024003000
B1815303339140N08119670WA0116401178002020003000
B1815313339155N08119660WA0116401177002015003000
B1815323339171N08119653WA0116301177002018003000
B1815333339189N08119650WA0116401176002020003000
B1815343339206N08119650WA0116301175002024003000
B1815353339224N08119654WA0116701175002022003000
F1815351722143013280121030819
B1815363339240N08119660WA0116601175002015003000
F181536172214301328070121030819
B1815373339256N08119669WA0116801177002011003000
B1815383339271N08119680WA0117001178002009003000
B1815393339285N08119691WA0117301181002013003000
B1815403339299N08119704WA0117401182002020003000
B1815413339311N08119718WA0117401184002027003000
B1815423339321N08119733WA0117501184002029003000
B1815433339329N08119750WA0117401184002031003000
B1815443339335N08119767WA0117601185002031003000
B1815453339339N08119785WA0117701186002029003000
B1815463339341N08119803WA0117601187002029003000
F1815461722143013280721030819
B1815473339340N08119820WA0117601187003034003000
B1815483339336N08119836WA0117501187003031003000
B1815493339329N08119849WA0117901188003029003000
F1815491722143013280701030819
B1815503339321N08119861WA0118101191003029003000
F181550172214301328070121030819
B1815513339311N08119867WA0118301193002027003000
B1815523339300N08119870WA0118301194002024003000
B1815533339290N08119867WA0118401195002020003000
B1815543339279N08119860WA0118401194002018003000
F1815541722301328070121030819
B1815553339270N08119849WA0118201193002018003000
B1815563339265N08119834WA0118301192002018003000
B1815573339262N08119817WA0118301192002027003000
B1815583339263N08119798WA0118501192002024003000
F181558172214301328070121030819
B1815593339268N08119780WA0118701193002024003000
B1816003339276N08119763WA0119001195002022003000
B1816013339287N08119748WA0119101197002018003000
B1816023339301N08119736WA0119101199003024003000
B1816033339318N08119728WA0119201199003018003000
B1816043339335N08119724WA0119401200003022003000
B1816053339353N08119723WA0119401202003024003000
B1816063339371N08119727WA0119601203003022003000
F1816061722143013280701210819
B1816073339388N08119734WA0119501204003024003000
F18160717221430132801210819
B1816083339403N08119745WA0119701204002027003000
F1816081722143013280701210819
B1816093339416N08119758WA0119601205002029003000
F18160917143013280701210819
B1816103339426N08119774WA0119701205002031003000
F18161017143013280701030819
B1816113339433N08119792WA0119601205002036003000
B1816123339437N08119810WA0119601205002036003000
F1816121722143013280701030819
B1816133339437N08119828WA0119501205002031003000
B1816143339433N08119845WA0119801205003029003000
F181614172214301328070121030819
B1816153339427N08119859WA0119901207003031003000
F1816151722143013280701030819
B1816163339419N08119871WA0120201208003031003000
F181616172214301328070121030819
B1816173339409N08119879WA0120401211002036003000
B1816183339398N08119884WA0120501214002038003000
B1816193339388N08119885WA0120701216002036003000
B1816203339377N08119883WA0120901217002036003000
B1816213339367N08119878WA0120701217002036003000
B1816223339357N08119872WA0120801217002033003000
F1816221722301328070121030819
B1816233339348N08119864WA0120801218002027003000
B1816243339339N08119854WA0120901218002027003000
B1816253339332N08119843WA0121101220002020003000
B1816263339325N08119832WA0121301222002020003000
B1816273339321N08119818WA0121401223002024003000
F181627172214301328070121030819
B1816283339318N08119804WA0121401224002022003000
B1816293339318N08119789WA0121301224002022003000
B1816303339320N08119773WA0121301224002022003000
B1816313339325N08119757WA0121301224002024003000
F1816312214301328070121030819
B1816323339332N08119742WA0121301224002022003000
B1816333339343N08119727WA0121401224002027003000
B1816343339356N08119716WA0121601225002029003000
B1816353339371N08119707WA0121601225003029003000
F181635172214301328070121030819
B1816363339387N08119702WA0121501226002031003000
B1816373339405N08119701WA0121601227002033003000
B1816383339423N08119704WA0121701227002031003000
B1816393339439N08119712WA0122001228002029003000
F1816391722143013280701210819
B1816403339454N08119723WA0122201230002029003000
B1816413339467N08119737WA0122401231002027003000
F18164117143013280701210819
B1816423339477N08119752WA0122601233002022003000
B1816433339484N08119769WA0122801235002020003000
F181643172214301328070121030819
B1816443339488N08119787WA0122801237002018003000
F1816441714301328070121030819
B1816453339489N08119804WA0122901239002018003000
F181645172214301328070121030819
B1816463339487N08119820WA0122901239002022003000
B1816473339483N08119834WA0123101240002020003000
B1816483339476N08119846WA0123301240002024003000
B1816493339467N08119855WA0123401242002027003000
B1816503339456N08119861WA0123301242002031003000
B1816513339445N08119864WA0123301243002038003000
B1816523339434N08119863WA0123401243002041003000
B1816533339423N08119858WA0123401244002041003000
B1816543339413N08119850WA0123601245002038003000
B1816553339404N08119839WA0123701245002038003000
B1816563339398N08119826WA0123701246002036003000
B1816573339394N08119812WA0123801247002033003000
B1816583339392N08119795WA0123901248002031003000
B1816593339394N08119778WA0124001249002029003000
B1817003339398N08119762WA0124201249002024003000
F1817002214301328070121030819
B1817013339406N08119746WA0124201250002020003000
B1817023339417N08119732WA0124101252002015003000
B1817033339431N08119721WA0124401253002018003000
B1817043339446N08119712WA0124501253002022003000
F181704172214301328070121030819
B1817053339463N08119707WA0124601254002027003000
B1817063339480N08119706WA0124701256002033003000
B1817073339497N08119708WA0125101257002033003000
B1817083339513N08119715WA0125101258002031003000
F1817081722143013280701210819
B1817093339527N08119725WA0125301260002031003000
F18170917143013280701210819
B1817103339539N08119739WA0125301261002027003000
B1817113339548N08119754WA0125301261002022003000
B1817123339555N08119771WA0125401262002024003000
F181712172214301328070121030819
B1817133339558N08119789WA0125401263002027003000
B1817143339559N08119806WA0125701265002024003000
F1817141722143013280721030819
B1817153339556N08119823WA0125701265003027003000
B1817163339550N08119837WA0125701265003024003000
B1817173339542N08119849WA0125801265003020003000
F181717172214301328070121030819
B1817183339531N08119856WA0125701266002027003000
B1817193339519N08119858WA0125801267002029003000
B1817203339507N08119855WA0125901267002031003000
B1817213339497N08119847WA0126101268002036003000
B1817223339488N08119835WA0126201269002036003000
B1817233339483N08119821WA0126401271002033003000
B1817243339482N08119804WA0126401271002031003000
B1817253339483N08119787WA0126501272002029003000
B1817263339488N08119771WA0126601272002024003000
B1817273339496N08119755WA0126701273002020003000
F1817272214301328070121030819
B1817283339508N08119741WA0126801274003022003000
B1817293339522N08119731WA0126901275003018003000
B1817303339538N08119724WA0126901275003022003000
F181730172214301328070121030819
B1817313339555N08119723WA0127001275003031003000
B1817323339572N08119727WA0127201276003031003000
B1817333339588N08119736WA0127301278003038003000
F18173317143013280701210819
B1817343339602N08119748WA0127401279002038003000
B1817353339612N08119764WA0127701281002036003000
B1817363339618N08119781WA0127601282002031003000
B1817373339620N08119799WA0127701283002031003000
F1817371722143013280701030819
B1817383339617N08119815WA0127701283002031003000
B1817393339611N08119830WA0127701282003027003000
B1817403339602N08119841WA0127801282003029003000
B1817413339590N08119848WA0127701282003022003000
F181741172214301328070121030819
B1817423339578N08119851WA0127601282003015003000
B1817433339566N08119848WA0127801282003020004000
B1817443339554N08119840WA0127901284003025003000
B1817453339545N08119828WA0128201284003029003000
B1817463339540N08119812WA0128201285003038003000
B1817473339539N08119795WA0128201286002041003000
B1817483339543N08119777WA0128501288002041003000
B1817493339550N08119760WA0128801289002046003000
B1817503339560N08119745WA0128701290003048003000
B1817513339573N08119732WA0128801291003048003000
B1817523339588N08119722WA0128801292003050003000
B1817533339604N08119717WA0128901292003050004000
B1817543339623N08119716WA0129001293003048003000
B1817553339641N08119720WA0129101294003045003000
B1817563339657N08119729WA0129101295003041003000
F1817561714301328070121030819
B1817573339671N08119743WA0129401297003031003000
B1817583339682N08119760WA0129601299002022003000
B1817593339689N08119778WA0129701301003022003000
F18175917221430132807010319
B1818003339692N08119796WA0129601303003025003000
B1818013339690N08119814WA0129601303003031003000
F1818011722143013280701030819
B1818023339685N08119830WA0129401301003036003000
F1818021722143013280721030819
B1818033339677N08119844WA0129501301003036003000
B1818043339666N08119855WA0129501300003036003000
F181804172214301328070121030819
B1818053339653N08119863WA0129601301003036003000
B1818063339639N08119868WA0129801303003038003000
B1818073339626N08119870WA0129801304003036003000
B1818083339612N08119869WA0130001306002031003000
B1818093339599N08119865WA0130101307002031003000
B1818103339588N08119857WA0130201308002031003000
B1818113339578N08119847WA0130101308002031003000
B1818123339571N08119833WA0130201308002031003000
B1818133339567N08119817WA0130101308002029003000
B1818143339566N08119800WA0130201307002024003000
B1818153339569N08119782WA0129801307002022003000
B1818163339576N08119764WA0129901306002018003000
F1818162214301328070121030819
B1818173339586N08119748WA0129801304003013003000
B1818183339598N08119735WA0129601303003015003000
F181818172214301328070121030819
B1818193339613N08119724WA0129301302003015003000
B1818203339630N08119718WA0129401300003018003000
B1818213339648N08119715WA0129501299003020003000
B1818223339667N08119716WA0129601299003020003000
B1818233339685N08119722WA0130001302003022003000
B1818243339702N08119731WA0130201305003027003000
B1818253339717N08119743WA0130501309003029003000
F1818251714301328070121030819
B1818263339729N08119758WA0130701311002031003000
B1818273339738N08119774WA0131001314002031003000
B1818283339745N08119792WA0131301316002029003000
B1818293339749N08119809WA0131301319002027003000
B1818303339751N08119826WA0131301320003020003000
F181830172214301328070121030819
B1818313339750N08119842WA0131401321003022003000
B1818323339746N08119857WA0131201321003022003000
F1818321722143013280721030819
B1818333339739N08119871WA0131201320003024003000
B1818343339731N08119882WA0131101320003029003000
F181834172214301328070121030819
B1818353339721N08119890WA0130901318003027003000
B1818363339710N08119896WA0130601316003024003000
B1818373339698N08119899WA0130401314002024003000
B1818383339686N08119899WA0130301312002022003000
B1818393339675N08119896WA0129901310002022003000
B1818403339665N08119889WA0129701307002020003000
B1818413339656N08119880WA0129401304002018003000
B1818423339648N08119867WA0129101301002018003000
B1818433339643N08119853WA0128901299002009003000
B1818443339641N08119837WA0128901296002006003000
F1818442214301328070121030819
B1818453339641N08119819WA0128801295002006003000
B1818463339644N08119801WA0128601294003000003000
B1818473339648N08119783WA0128701294003004003000
B1818483339654N08119765WA0128501293003009003000
F181848172214301328070121030819
B1818493339659N08119747WA0128501292003009003000
B1818503339664N08119729WA0128401290003013003000
B1818513339668N08119710WA0128201289003011003000
B1818523339672N08119690WA0128301289003011003000
B1818533339676N08119671WA0128401290002009003000
B1818543339678N08119652WA0128301291002011003000
B1818553339678N08119633WA0128301292002015003000
B1818563339676N08119615WA0128301293002015003000
B1818573339673N08119598WA0128401293002018003000
B1818583339667N08119582WA0128201293002013003000
B1818593339659N08119567WA0128201292002011003000
B1819003339650N08119554WA0127901290002004003000
F1819002214301328070121030819
B1819013339639N08119542WA0127601288002000003000
F181901172214301328070121030819
B1819023339628N08119531WA0127401286002000003000
B1819033339615N08119522WA0127301285002000003000
B1819043339602N08119514WA0127201284002004003000
B1819053339588N08119508WA0127101282002011003000
B1819063339574N08119504WA0127001281002011003000
B1819073339560N08119502WA0126901281002013003000
B1819083339545N08119501WA0126901280002011003000
B1819093339531N08119501WA0126601280002009003000
B1819103339518N08119503WA0126601279002011003000
B1819113339504N08119505WA0126401278002011003000
B1819123339491N08119508WA0125901276002009003000
B1819133339478N08119512WA0125601273002006003000
B1819143339465N08119516WA0125201269002004003000
B1819153339451N08119520WA0124901266002002003000
B1819163339437N08119525WA0124501262002009003000
B1819173339424N08119529WA0124201259002013003000
B1819183339409N08119534WA0124001256002015003000
B1819193339395N08119539WA0123701254002018003000
B1819203339381N08119544WA0123501251002020003000
B1819213339366N08119549WA0123301249002020003000
B1819223339352N08119555WA0123101247002020003000
B1819233339337N08119561WA0122801245002020003000
B1819243339322N08119567WA0122701243002018003000
B1819253339308N08119573WA0122501242002013003000
B1819263339293N08119579WA0122301240002015003000
B1819273339279N08119585WA0122301239002015003000
B1819283339264N08119592WA0122301239002015003000
B1819293339250N08119598WA0122201238002020003000
B1819303339236N08119604WA0122101238002013003000
B1819313339222N08119609WA0122001237002011003000
B1819323339209N08119615WA0121701236002013003000
B1819333339195N08119621WA0121501233002013003000
B1819343339181N08119626WA0121301231002015003000
B1819353339167N08119632WA0121301230002011003000
B1819363339153N08119638WA0121101228002006003000
B1819373339139N08119644WA0121101227002006003000
B1819383339125N08119651WA0121001227002013003000
B1819393339112N08119657WA0121001226002020003000
B1819403339099N08119664WA0121001226002022003000
B1819413339086N08119672WA0120901226002015003000
B1819423339073N08119680WA0120901226002011003000
B1819433339061N08119688WA0120901225002011003000
B1819443339048N08119697WA0120701224002011003000
B1819453339036N08119707WA0120501223002018003000
B1819463339024N08119716WA0120301221002013003000
B1819473339013N08119726WA0120301220002013003000
B1819483339001N08119736WA0120001219002013003000
B1819493338989N08119746WA0120001218002013003000
B1819503338977N08119756WA0120001217002018003000
B1819513338966N08119766WA0119801215002013003000
B1819523338955N08119777WA0119701215002013003000
B1819533338944N08119788WA0119601214002013003000
B1819543338933N08119800WA0119501213002013003000
B1819553338923N08119811WA0119401212002011003000
B1819563338913N08119823WA0119201211002004003000
B1819573338903N08119834WA0119001209002002003000
B1819583338893N08119846WA0118901207002002003000
B1819593338884N08119858WA0118901206002002003000
B1820003338874N08119870WA0118601204002002003000
B1820013338865N08119883WA0118401202002004003000
B1820023338855N08119896WA0118101200002002003000
B1820033338846N08119909WA0118001197002006003000
B1820043338836N08119923WA0117801195002013003000
B1820053338827N08119936WA0117701194002011003000
B1820063338817N08119950WA0117801193002011003000
B1820073338808N08119963WA0117701193002011003000
B1820083338798N08119976WA0117801193002009003000
B1820093338788N08119989WA0117601193002009003000
B1820103338777N08120002WA0117601193002009003000
B1820113338767N08120014WA0117501192002006003000
B1820123338756N08120026WA0117401191002002003000
B1820133338745N08120039WA0117401191002004003000
B1820143338735N08120051WA0117401191002004003000
B1820153338724N08120064WA0117401190002006003000
B1820163338713N08120076WA0117601191002006003000
B1820173338702N08120088WA0117601192002004003000
B1820183338691N08120100WA0117701193002006003000
B1820193338680N08120112WA0117801194002006003000
B1820203338669N08120124WA0117901194002018003000
B1820213338659N08120136WA0117901195002022003000
B1820223338648N08120148WA0117901195002024003000
B1820233338638N08120160WA0117701195002031003000
B1820243338627N08120172WA0117701194002027003000
B1820253338617N08120184WA0117901193002027003000
B1820263338606N08120197WA0117701193002029003000
B1820273338596N08120210WA0117801193002029003000
B1820283338586N08120223WA0117801193002033003000
B1820293338576N08120235WA0117701193002036003000
B1820303338566N08120248WA0117601193002033003000
B1820313338557N08120261WA0117401192002031003000
B1820323338547N08120274WA0117401191002027003000
B1820333338537N08120287WA0117401190002024003000
B1820343338527N08120300WA0117201189002020003000
B1820353338518N08120313WA0117301189002015003000
B1820363338508N08120326WA0117301189002015003000
B1820373338498N08120339WA0117201189002009003000
B1820383338488N08120351WA0117301189002011003000
B1820393338478N08120364WA0117101188002011003000
B1820403338467N08120375WA0117101186002009003000
B1820413338456N08120387WA0117001185002006003000
B1820423338445N08120399WA0117001186002004003000
B1820433338433N08120411WA0117201186002006003000
B1820443338422N08120423WA0116801185002009003000
B1820453338411N08120434WA0116601183002015003000
B1820463338400N08120446WA0116501181002018003000
B1820473338389N08120458WA0116401180002011003000
B1820483338377N08120470WA0116401179002011003000
B1820493338366N08120481WA0116401179002009003000
B1820503338355N08120492WA0116301178002006003000
B1820513338344N08120503WA0116301178002013003000
B1820523338333N08120514WA0116401178002006003000
B1820533338321N08120525WA0116801179002009003000
B1820543338310N08120536WA0116901180002004003000
B1820553338299N08120547WA0117001182002000003000
B1820563338288N08120558WA0117301184002006003000
B1820573338277N08120569WA0117401187002004003000
B1820583338267N08120580WA0117601189002011003000
B1820593338256N08120590WA0117601190002013003000
B1821003338245N08120600WA0117701191002011003000
B1821013338234N08120609WA0117601191002015003000
B1821023338222N08120617WA0117601191002020003000
B1821033338210N08120624WA0117701191002022003000
B1821043338198N08120629WA0117601191002024003000
B1821053338185N08120632WA0117701191002020003000
B1821063338172N08120633WA0117601191002013003000
B1821073338159N08120631WA0117601190002011003000
B1821083338147N08120627WA0117801189002011003000
B1821093338135N08120620WA0118001190002015003000
B1821103338125N08120609WA0118101192002018003000
B1821113338117N08120597WA0118301194002018003000
B1821123338110N08120582WA0118501196002015003000
B1821133338105N08120566WA0118501197003013003000
B1821143338104N08120549WA0118601198003013003000
B1821153338104N08120531WA0118801198003013004000
B1821163338108N08120513WA0118701198003015004000
B1821173338113N08120496WA0118601198003013004000
B1821183338121N08120479WA0118701197003011004000
B1821193338130N08120463WA0118701197003013004000
B1821203338142N08120449WA0118701197003011004000
B1821213338156N08120437WA0118701197003013004000
B1821223338171N08120427WA0118901198003015004000
B1821233338188N08120420WA0119001200003015004000
B1821243338205N08120416WA0119101201003018004000
B1821253338223N08120415WA0119401203003020004000
B1821263338240N08120417WA0119401204003022004000
B1821273338258N08120421WA0118801202003022004000
B1821283338277N08120426WA0118601199003018004000
B1821293338296N08120431WA0118501197003011004000
B1821303338317N08120436WA0118401196003006004000
B1821313338337N08120441WA0118501196003006004000
B1821323338358N08120445WA0118301197003011004000
B1821333338380N08120448WA0118401197003020004000
B1821343338401N08120449WA0118301196003024004000
B1821353338422N08120448WA0118501196003029004000
B1821363338443N08120443WA0118501197003033004000
B1821373338463N08120437WA0118601197003031004000
B1821383338482N08120431WA0118601198003029004000
B1821393338502N08120426WA0119001200003024004000
B1821403338521N08120424WA0119001202003024004000
B1821413338539N08120424WA0119101203003020004000
B1821423338558N08120427WA0119101203003020004000
B1821433338575N08120434WA0119101204003020004000
B1821443338592N08120443WA0119101204003015004000
F1821441722143013280701210819
B1821453338608N08120454WA0119101204003011004000
B1821463338623N08120466WA0118901203003009004000
B1821473338636N08120481WA0118801202003009004000
B1821483338649N08120497WA0118801201003009004000
B1821493338659N08120514WA0118901201003015004000
F182149172214301328070121030819
B1821503338667N08120532WA0118801201003015004000
B1821513338672N08120551WA0119001201003013004000
B1821523338676N08120569WA0119001201003006004000
B1821533338678N08120588WA0119001202003004004000
B1821543338678N08120607WA0119101202003006004000
B1821553338675N08120625WA0119101203003009004000
B1821563338671N08120643WA0119201204003015004000
B1821573338665N08120659WA0119201205003020004000
F1821571722143013280721030819
B1821583338659N08120675WA0119101206003020004000
B1821593338651N08120691WA0119201206003024004000
F182159172214301328070121030819
B1822003338644N08120707WA0119201206003029004000
B1822013338636N08120723WA0119301207003029004000
B1822023338629N08120738WA0119601208003029004000
B1822033338621N08120754WA0119601209003022004000
B1822043338613N08120769WA0119701210003020004000
B1822053338605N08120784WA0119701211003020004000
B1822063338597N08120799WA0119901212003024004000
B1822073338588N08120812WA0120001214003031004000
B1822083338578N08120823WA0120101215003031004000
B1822093338567N08120831WA0120001215003033004000
B1822103338555N08120837WA0119701214003027004000
B1822113338543N08120840WA0119601212003018004000
B1822123338531N08120840WA0119501210003011003000
B1822133338519N08120838WA0119501208003004003000
B1822143338507N08120832WA0119601208003006003000
F1822141722143013070121030819
B1822153338496N08120825WA0119501207003011003000
B1822163338486N08120816WA0119601207003015003000
B1822173338478N08120805WA0119501208003018003000
B1822183338470N08120792WA0119501208003018003000
B1822193338464N08120779WA0119501207003013003000
B1822203338459N08120764WA0119401206003006004000
B1822213338456N08120749WA0118901204003000004000
F182221172214301328070121030819
B1822223338455N08120732WA0118801202003000004000
F1822222214301328070121030819
B1822233338456N08120715WA0118701200003002004000
F182223172214301328070121030819
B1822243338458N08120697WA0118601198003006004000
F1822242214301328070121030819
B1822253338463N08120680WA0118501197003011004000
B1822263338470N08120662WA0118301195003006004000
B1822273338479N08120646WA0118301194003000004000
F182227172214301328070121030819
B1822283338489N08120631WA0118401194003002004000
B1822293338503N08120617WA0118501195003004004000
B1822303338519N08120605WA0118601196003009004000
B1822313338536N08120596WA0118701198003015004000
B1822323338553N08120590WA0118901199003013004000
B1822333338571N08120586WA0118901200003015004000
B1822343338589N08120584WA0119001201003013004000
B1822353338607N08120583WA0119201203003015004000
B1822363338625N08120581WA0119301204003018004000
B1822373338644N08120580WA0119301206003020004000
B1822383338662N08120579WA0119501207003027004000
B1822393338680N08120578WA0119401208003022004000
B1822403338698N08120578WA0119501208003022004000
B1822413338716N08120581WA0119301208003022004000
F1822411722143013280701210819
B1822423338734N08120586WA0119401208003018004000
B1822433338751N08120594WA0119701210003020004000
B1822443338768N08120604WA0119901211003022004000
B1822453338784N08120616WA0120101213003018004000
B1822463338799N08120629WA0120201214003018004000
B1822473338813N08120644WA0120301216003015004000
F182247172214301328070121030819
B1822483338826N08120660WA0120401216003013004000
B1822493338838N08120677WA0120501217003015004000
B1822503338848N08120694WA0120601218003018004000
F1822501722143013280701210819
B1822513338858N08120713WA0120701219003018004000
B1822523338866N08120731WA0120501220003018004000
B1822533338872N08120751WA0120801221003020004000
F182253172214301328070121030819
B1822543338877N08120770WA0120801222003024004000
B1822553338880N08120790WA0121101223003031004000
B1822563338883N08120809WA0121201225003029004000
B1822573338883N08120829WA0121201226003022004000
B1822583338883N08120848WA0121201227003020004000
B1822593338881N08120866WA0121201227003018004000
B1823003338878N08120884WA0121101226003024004000
B1823013338873N08120901WA0121101225003031004000
F1823011722143013280721030819
B1823023338866N08120917WA0121001225003033004000
B1823033338857N08120931WA0121001224003031004000
B1823043338847N08120944WA0121001224003029004000
B1823053338836N08120954WA0120801223003024004000
F182305172214301328070121030819
B1823063338824N08120962WA0120601222003015004000
B1823073338810N08120968WA0120501220003015004000
B1823083338797N08120972WA0120401219003013004000
B1823093338783N08120972WA0120301217003013004000
B1823103338769N08120971WA0120301216003018004000
B1823113338755N08120967WA0120001215003018004000
B1823123338741N08120961WA0119801214003022004000
B1823133338728N08120955WA0119801212003027004000
B1823143338716N08120947WA0119901210003027004000
B1823153338704N08120938WA0119701210003022004000
B1823163338692N08120929WA0119501209003020004000
B1823173338680N08120920WA0119401208003015004000
B1823183338668N08120912WA0119501208003018004000
B1823193338656N08120903WA0119401208003022004000
B1823203338644N08120896WA0119401207003015004000
B1823213338632N08120889WA0119301207003013004000
B1823223338619N08120883WA0119301207003011004000
F1823221722143028070121030819
B1823233338606N08120877WA0119101207003011004000
B1823243338594N08120871WA0119001206003015004000
B1823253338581N08120864WA0119101205003011004000
B1823263338569N08120858WA0119101205003011004000
B1823273338556N08120851WA0118901204003009004000
B1823283338543N08120844WA0118801204003009004000
B1823293338531N08120837WA0118601203003013004000
B1823303338518N08120830WA0118301201003004004000
B1823313338506N08120824WA0118201199003002004000
B1823323338493N08120817WA0118001197003002003000
B1823333338480N08120811WA0117801196003004003000
F182333172214301328070121030819
B1823343338467N08120806WA0117501194003013003000
B1823353338453N08120801WA0117201192003011003000
B1823363338440N08120795WA0116601189003009003000
F1823361722143028070121030819
B1823373338426N08120790WA0116101183003006003000
B1823383338411N08120785WA0115601177003006003000
B1823393338395N08120779WA0115301172003013003000
B1823403338379N08120773WA0114901168003013003000
B1823413338363N08120768WA0114401164003015003000
F18234117221430070121030819
B1823423338346N08120762WA0114301160003015004000
F1823421722143013070121030819
B1823433338329N08120757WA0114301157003015004000
B1823443338313N08120752WA0114201156003015004000
B1823453338296N08120747WA0114001155003013004000
B1823463338280N08120742WA0114001155003015004000
F182346172214301328070121030819
B1823473338263N08120737WA0114301155003020004000
B1823483338248N08120732WA0114301156003022004000
B1823493338232N08120727WA0114301157003027004000
B1823503338217N08120723WA0114301158003027004000
B1823513338201N08120719WA0114101158003027004000
B1823523338186N08120717WA0114101158003031004000
B1823533338170N08120716WA0114201157003031004000
B1823543338154N08120717WA0114001156003033003000
F1823541722143013070121030819
B1823553338139N08120720WA0113901156003029003000
B1823563338123N08120725WA0113801156003027003000
B1823573338109N08120732WA0113801155003029003000
B1823583338094N08120739WA0113701154003022003000
F182358172214301328070121030819
B1823593338080N08120748WA0113701154003022003000
B1824003338067N08120758WA0113701154003024003000
B1824013338054N08120768WA0113701153003020004000
B1824023338041N08120778WA0113601152003020004000
B1824033338028N08120788WA0113501151003024004000
B1824043338015N08120798WA0113201150003022004000
B1824053338002N08120808WA0113101149003024004000
B1824063337989N08120819WA0113101147003027004000
B1824073337977N08120829WA0113001146003027004000
B1824083337964N08120840WA0112801145003027004000
B1824093337952N08120851WA0112701144003024004000
B1824103337939N08120862WA0112401142003029004000
B1824113337927N08120872WA0112401140003024004000
B1824123337914N08120883WA0112301139003024004000
B1824133337901N08120893WA0112301138003027004000
B1824143337888N08120903WA0112201137003027004000
B1824153337875N08120913WA0112001136003027004000
B1824163337862N08120923WA0112001135003024004000
B1824173337849N08120933WA0112101135003022003000
B1824183337836N08120942WA0112001135003020003000
B1824193337824N08120952WA0112001135003024003000
B1824203337811N08120961WA0112001135003024003000
B1824213337799N08120970WA0111901135003022003000
B1824223337787N08120978WA0111901135003020003000
B1824233337775N08120987WA0111901134003015003000
B1824243337762N08120995WA0111801133003015003000
B1824253337750N08121004WA0111601132003013003000
B1824263337738N08121013WA0111501131003013003000
B1824273337725N08121021WA0111301130003009003000
B1824283337713N08121031WA0111301129003009003000
B1824293337701N08121040WA0111101127003013003000
B1824303337689N08121049WA0111001126003013003000
B1824313337676N08121059WA0110801124003013003000
B1824323337664N08121069WA0110601122003009003000
B1824333337652N08121079WA0110401120003004003000
B1824343337639N08121089WA0110401119003006003000
B1824353337627N08121099WA0110401118003011003000
B1824363337614N08121109WA0110501118003011003000
B1824373337602N08121119WA0110401118003018003000
B1824383337589N08121129WA0110401118003011003000
B1824393337577N08121139WA0110401118003011003000
B1824403337565N08121149WA0110401118003011003000
B1824413337553N08121159WA0110401118003002003000
B1824423337541N08121169WA0110501118003006003000
B1824433337529N08121179WA0110501119003006003000
B1824443337517N08121190WA0110501119003011003000
B1824453337505N08121200WA0110501120003013003000
B1824463337494N08121210WA0110501120003018003000
B1824473337482N08121220WA0110601120003022003000
B1824483337470N08121230WA0110601120003027003000
B1824493337458N08121240WA0110601120003029003000
B1824503337446N08121250WA0110601120003029003000
B1824513337434N08121260WA0110701120003029003000
B1824523337422N08121271WA0110701120003027003000
B1824533337410N08121281WA0110601121003031003000
B1824543337397N08121291WA0110601120003024003000
B1824553337385N08121301WA0110501120003018003000
B1824563337373N08121312WA0110501119003011003000
B1824573337360N08121323WA0110301118003011003000
B1824583337348N08121333WA0110401118003013003000
B1824593337335N08121344WA0110201117003015003000
B1825003337322N08121355WA0110101116003015003000
B1825013337309N08121366WA0109901115003009003000
B1825023337296N08121377WA0110001114003004003000
B1825033337283N08121388WA0109601112003004003000
B1825043337270N08121398WA0109501110003009003000
B1825053337256N08121409WA0109301109003009003000
B1825063337243N08121420WA0109101107003011003000
B1825073337229N08121432WA0109001105003013003000
B1825083337216N08121443WA0108801104003011003000
B1825093337203N08121454WA0108701102003013003000
B1825103337189N08121466WA0108701101003015003000
B1825113337176N08121477WA0108701100003018003000
B1825123337163N08121489WA0108401100003020003000
B1825133337150N08121500WA0108201098003024003000
B1825143337136N08121511WA0107801095003029003000
B1825153337123N08121521WA0107701092003024003000
B1825163337108N08121532WA0107401089003024003000
B1825173337094N08121542WA0107301087003027004000
B1825183337080N08121553WA0107101085003020004000
B1825193337066N08121564WA0107001083003024004000
B1825203337052N08121574WA0106801082003022004000
B1825213337037N08121584WA0106701081003022003000
B1825223337023N08121594WA0106701081003029003000
B1825233337009N08121603WA0106801081003024003000
B1825243336996N08121613WA0106701081003024004000
B1825253336983N08121623WA0106501080003022004000
B1825263336970N08121634WA0106301078003020004000
B1825273336958N08121646WA0106001076003022004000
B1825283336947N08121658WA0105801074003027004000
B1825293336935N08121670WA0105701072003029004000
B1825303336924N08121682WA0105501071003029004000
B1825313336912N08121694WA0105501070003029004000
B1825323336900N08121706WA0105401069003029004000
B1825333336888N08121717WA0105201068003027004000
B1825343336876N08121729WA0105201067003024004000
B1825353336864N08121740WA0105201066003024004000
B1825363336852N08121752WA0105001065003024004000
B1825373336840N08121763WA0104901064003024004000
B1825383336828N08121775WA0104801064003024004000
B1825393336816N08121786WA0104701063003027004000
B1825403336804N08121797WA0104601062003022004000
B1825413336791N08121808WA0104501061003022004000
B1825423336779N08121819WA0104501060003024004000
B1825433336767N08121831WA0104501060003020004000
B1825443336755N08121842WA0104301058003024004000
B1825453336743N08121853WA0104101057003022004000
B1825463336731N08121865WA0103901056003018004000
B1825473336720N08121876WA0103901055003013004000
B1825483336708N08121887WA0104001054003015004000
B1825493336696N08121898WA0104001053003015004000
B1825503336685N08121909WA0104101053003018003000
B1825513336673N08121920WA0103901053003018003000
B1825523336662N08121930WA0103701052003009003000
B1825533336650N08121940WA0103701051003009003000
B1825543336638N08121950WA0103701051003009003000
B1825553336626N08121960WA0103701051003013003000
B1825563336614N08121970WA0103901051003013003000
B1825573336602N08121980WA0103701050003009003000
B1825583336590N08121990WA0103701050003013003000
B1825593336578N08122000WA0103701050003011003000
B1826003336566N08122010WA0103601049003020003000
B1826013336554N08122020WA0103701049003022003000
B1826023336542N08122030WA0103601050003015003000
B1826033336530N08122040WA0103601051003022003000
B1826043336518N08122049WA0103601050003022003000
B1826053336506N08122059WA0103301049003027003000
B1826063336495N08122069WA0103001047003031003000
B1826073336483N08122079WA0103001045003022003000
B1826083336471N08122088WA0102701043002013003000
B1826093336459N08122098WA0102701041002011003000
B1826103336447N08122108WA0102501040002009003000
B1826113336434N08122117WA0102401039002013003000
B1826123336422N08122127WA0102401038002015003000
B1826133336410N08122136WA0102301037002011003000
B1826143336397N08122145WA0102301036002011003000
B1826153336385N08122155WA0102101036002011003000
B1826163336372N08122164WA0102101035002011003000
B1826173336360N08122173WA0102001035002013003000
B1826183336348N08122182WA0101901034002015003000
B1826193336335N08122191WA0101801032002015003000
B1826203336323N08122200WA0101701031002020003000
B1826213336310N08122210WA0101501029002022003000
B1826223336298N08122220WA0101401028002020003000
B1826233336285N08122229WA0101401027002020003000
B1826243336272N08122239WA0101101025002018003000
B1826253336259N08122249WA0100901024002015003000
B1826263336246N08122259WA0100901022003015003000
B1826273336233N08122269WA0100701021003015003000
B1826283336220N08122280WA0100801020003018003000
B1826293336207N08122290WA0100401018003020003000
B1826303336194N08122301WA0100101016003022003000
B1826313336181N08122312WA0100001014003024003000
B1826323336169N08122323WA0099801012003024003000
B1826333336156N08122334WA0099501010003024003000
B1826343336143N08122345WA0099401009003022003000
B1826353336130N08122356WA0099401007003020003000
B1826363336118N08122367WA0099301006003018003000
B1826373336105N08122377WA0099201005003020004000
B1826383336093N08122388WA0098901004003020004000
B1826393336080N08122399WA0098801002003020004000
B1826403336068N08122410WA0098901001003020004000
B1826413336055N08122421WA0098801000003018004000
B1826423336043N08122432WA0098601000003020004000
B1826433336031N08122443WA0098600999003020004000
B1826443336019N08122454WA0098500998003020004000
B1826453336006N08122465WA0098300997003020004000
B1826463335994N08122476WA0098000995003020004000
B1826473335982N08122487WA0097900993003018004000
B1826483335970N08122498WA0097700991003018004000
B1826493335958N08122510WA0097300989003018004000
B1826503335946N08122522WA0097400987003018004000
B1826513335934N08122534WA0097300986003022004000
B1826523335922N08122547WA0097300986003022004000
B1826533335911N08122560WA0097300985003024004000
B1826543335900N08122573WA0097300985003022004000
B1826553335888N08122586WA0097200985003018004000
B1826563335877N08122598WA0097000984003020004000
B1826573335867N08122611WA0096900983003020004000
B1826583335856N08122624WA0096800982003022004000
B1826593335845N08122637WA0096700981003024004000
B1827003335834N08122650WA0096400980003022004000
B1827013335824N08122662WA0096300978003018004000
B1827023335813N08122675WA0096100976003015004000
B1827033335802N08122688WA0095900974003015004000
B1827043335791N08122701WA0095600972003009004000
B1827053335781N08122715WA0095600970003013004000
B1827063335772N08122731WA0095400969003013004000
B1827073335764N08122749WA0095400968003013004000
B1827083335758N08122768WA0095200967003020004000
B1827093335755N08122788WA0095200966003018004000
B1827103335753N08122810WA0095200966003020004000
B1827113335755N08122831WA0095200966003020004000
B1827123335758N08122854WA0095000965003020004000
B1827133335765N08122875WA0094800964003020004000
B1827143335774N08122896WA0094700962003018004000
B1827153335785N08122916WA0094400961003020004000
B1827163335799N08122934WA0094400959003020004000
B1827173335815N08122950WA0094200959003022004000
B1827183335832N08122964WA0094100958003022004000
B1827193335851N08122977WA0093900956003020004000
B1827203335870N08122988WA0093900955003020004000
B1827213335889N08122998WA0093700954003018004000
B1827223335909N08123007WA0093500952003013004000
B1827233335929N08123016WA0093500951003015004000
B1827243335949N08123024WA0093400950003015004000
B1827253335969N08123032WA0093300949003015004000
B1827263335989N08123040WA0093200948003018004000
B1827273336009N08123048WA0093000947003013004000
B1827283336028N08123056WA0092800946003013004000
B1827293336048N08123064WA0092400944003011004000
B1827303336067N08123072WA0092200940003013004000
B1827313336087N08123079WA0092100937003015004000
B1827323336107N08123087WA0091900935003011004000
B1827333336128N08123094WA0091800934003009004000
B1827343336149N08123100WA0091800933003009004000
B1827353336170N08123105WA0091700932003009004000
B1827363336192N08123111WA0091600931003013004000
B1827373336213N08123116WA0091500931003015004000
B1827383336235N08123122WA0091500930003013004000
B1827393336256N08123128WA0091500931003013004000
B1827403336277N08123134WA0091500931003018004000
B1827413336298N08123140WA0091400931003020004000
B1827423336319N08123148WA0091400930003020004000
B1827433336339N08123155WA0091400930003020004000
B1827443336359N08123164WA0091400931003013004000
B1827453336379N08123172WA0091400931003013004000
B1827463336399N08123180WA0091400930003013004000
B1827473336418N08123189WA0091200930003013004000
B1827483336438N08123198WA0091400930003015004000
B1827493336458N08123207WA0091400930003013004000
B1827503336477N08123216WA0091500930003013004000
B1827513336496N08123226WA0091500930003011004000
B1827523336514N08123238WA0091100930003011004000
B1827533336531N08123250WA0091100929003013004000
B1827543336548N08123263WA0090900928003015004000
B1827553336566N08123276WA0090900926003011004000
B1827563336583N08123289WA0090600925003006004000
B1827573336600N08123303WA0090400923003002004000
B1827583336617N08123316WA0090200921003000004000
B1827593336635N08123329WA0089900918003006004000
B1828003336653N08123343WA0089700916003015004000
B1828013336672N08123356WA0089400914003018004000
B1828023336690N08123369WA0089100911003022004000
B1828033336709N08123382WA0088900908003024004000
B1828043336728N08123395WA0088700906003022004000
B1828053336748N08123408WA0088400903003022004000
B1828063336768N08123421WA0088200901003024004000
B1828073336787N08123434WA0088100899003024004000
B1828083336807N08123447WA0088100898003020004000
B1828093336827N08123460WA0087900897003027004000
B1828103336847N08123472WA0087800897003020004000
B1828113336867N08123485WA0087800896003022004000
B1828123336887N08123498WA0087800896003024004000
B1828133336907N08123510WA0087800897003022004000
B1828143336927N08123523WA0087800897003024004000
B1828153336946N08123535WA0087800897003024004000
B1828163336966N08123547WA0087800896003029004000
B1828173336986N08123559WA0087800896003024004000
B1828183337005N08123570WA0087900897003027004000
B1828193337025N08123581WA0087800897003022004000
B1828203337045N08123591WA0087800897003020004000
B1828213337065N08123600WA0087600896003024004000
B1828223337085N08123609WA0087500896003022004000
B1828233337105N08123617WA0087600895003018004000
B1828243337125N08123626WA0087400894003013004000
B1828253337145N08123634WA0087300893003011004000
B1828263337165N08123641WA0087300893003013004000
B1828273337185N08123649WA0087200892003018004000
B1828283337206N08123656WA0087000891003020004000
B1828293337226N08123664WA0087100890003020004000
B1828303337246N08123671WA0086900889003013004000
B1828313337266N08123679WA0086700888003015004000
B1828323337286N08123687WA0086700887003011004000
B1828333337307N08123694WA0086700886003006004000
B1828343337327N08123702WA0086700886003011004000
B1828353337347N08123710WA0086600885003004004000
B1828363337368N08123717WA0086500884003009004000
B1828373337388N08123725WA0086700884003009004000
B1828383337408N08123732WA0086600884003004004000
B1828393337428N08123738WA0086800886003004004000
B1828403337448N08123745WA0087000887003006004000
B1828413337467N08123752WA0086800888003011004000
B1828423337486N08123758WA0086700888003013004000
B1828433337505N08123764WA0086700887003015004000
B1828443337524N08123770WA0086500886003013004000
B1828453337543N08123776WA0086600884003013004000
B1828463337562N08123781WA0086600884003015004000
B1828473337581N08123787WA0086500885003018004000
B1828483337600N08123793WA0086700885003018004000
B1828493337619N08123798WA0086700886003015004000
B1828503337638N08123803WA0086800886003015004000
B1828513337657N08123807WA0086800887003015004000
B1828523337675N08123812WA0087000887003015004000
B1828533337694N08123816WA0087100888003018004000
B1828543337712N08123820WA0087100889003011004000
B1828553337730N08123823WA0087200890003009004000
B1828563337748N08123826WA0087200890003009004000
B1828573337766N08123830WA0087200890003009004000
B1828583337784N08123832WA0087100889003015004000
B1828593337803N08123835WA0087000889003013004000
B1829003337821N08123837WA0087100888003006004000
B1829013337839N08123840WA0086800887003004004000
B1829023337857N08123844WA0086900886003002004000
B1829033337875N08123850WA0086700885003006004000
B1829043337892N08123859WA0086600884003013004000
B1829053337908N08123870WA0086400883003015004000
B1829063337922N08123884WA0086100881003013004000
B1829073337935N08123901WA0086100878003009004000
B1829083337946N08123918WA0085900876003009004000
B1829093337954N08123938WA0085800874003009004000
B1829103337960N08123957WA0085700873003011004000
B1829113337963N08123977WA0085600873003015004000
F1829111722143013280701210319
B1829123337963N08123997WA0085500872003015004000
B1829133337960N08124015WA0085600872003009004000
B1829143337954N08124031WA0085300871003011004000
B1829153337946N08124045WA0085100869003004004000
F182915172214301328070121030819
B1829163337936N08124056WA0084700866003000004000
F1829161722143013280721030819
B1829173337924N08124064WA0084500863003002004000
B1829183337911N08124070WA0084400859003002004000
F182918172214301328070121030819
B1829193337897N08124072WA0084000856003006004000
B1829203337883N08124073WA0083900854003013004000
B1829213337869N08124071WA0083900853003011004000
B1829223337855N08124067WA0083800852003011004000
B1829233337842N08124061WA0083800851003013004000
B1829243337830N08124053WA0083800850003011004000
B1829253337819N08124043WA0083600850003015004000
B1829263337808N08124032WA0083400848003013004000
B1829273337799N08124020WA0083400847003013004000
B1829283337790N08124006WA0083200845003015004000
B1829293337782N08123992WA0083200845003015004000
B1829303337776N08123976WA0083100844003015004000
B1829313337769N08123961WA0083000843003015004000
B1829323337763N08123945WA0082900842003013004000
B1829333337758N08123929WA0082900841003013004000
B1829343337752N08123912WA0082900840003013004000
B1829353337747N08123896WA0082800840003013004000
B1829363337741N08123880WA0082900840003015004000
B1829373337735N08123863WA0083000840003015004000
B1829383337729N08123847WA0083300841003013004000
B1829393337723N08123831WA0083500844003013004000
B1829403337718N08123815WA0083600846003013004000
B1829413337713N08123800WA0083600848003013004000
B1829423337708N08123785WA0083500848003022004000
B1829433337702N08123769WA0083400847003024004000
B1829443337697N08123754WA0083200846003027004000
B1829453337691N08123739WA0083100845003027004000
B1829463337685N08123724WA0082900843003022004000
B1829473337678N08123709WA0082700841003015004000
B1829483337672N08123694WA0082500840003013004000
B1829493337667N08123678WA0082400838003011004000
B1829503337661N08123662WA0082200837003011004000
B1829513337655N08123646WA0082100835003015004000
B1829523337649N08123630WA0081900834003015004000
B1829533337643N08123614WA0081800832003013004000
B1829543337637N08123598WA0081800830003013004000
B1829553337631N08123582WA0081500829003013004000
B1829563337626N08123565WA0081300827003013004000
B1829573337620N08123548WA0081200826003015004000
B1829583337614N08123531WA0081200825003011004000
B1829593337608N08123514WA0081000824003006004000
B1830003337602N08123497WA0080800823003002004000
B1830013337597N08123480WA0080700822003006004000
B1830023337591N08123463WA0080600821003013004000
B1830033337585N08123446WA0080500820003018004000
B1830043337579N08123429WA0080400819003022004000
B1830053337572N08123413WA0080200818003020004000
B1830063337566N08123397WA0080100816003015004000
B1830073337559N08123380WA0080200816003015004000
B1830083337553N08123364WA0080000815003018004000
B1830093337546N08123348WA0079900814003013004000
B1830103337539N08123331WA0079900814003018004000
B1830113337533N08123315WA0079700813003015004000
B1830123337526N08123299WA0079600812003013004000
B1830133337519N08123283WA0079600811003015004000
B1830143337512N08123267WA0079500810003013004000
B1830153337505N08123250WA0079700810003015004000
B1830163337498N08123234WA0079600810003015004000
B1830173337491N08123218WA0079700811003018004000
B1830183337484N08123202WA0079800812003018004000
B1830193337478N08123186WA0079900814003022004000
B1830203337472N08123170WA0080100815003022004000
B1830213337466N08123155WA0080100816003018004000
B1830223337460N08123140WA0080000817003018004000
B1830233337454N08123125WA0079800817003009004000
B1830243337448N08123110WA0079700815003009004000
B1830253337442N08123095WA0079500813003011004000
B1830263337436N08123080WA0079400811003009004000
B1830273337430N08123064WA0079200809003013004000
B1830283337423N08123048WA0079100808003013004000
B1830293337417N08123032WA0079100807003009004000
B1830303337411N08123016WA0079100806003009004000
B1830313337404N08123000WA0079000806003009004000
B1830323337397N08122984WA0079100806003009004000
B1830333337391N08122968WA0079100806003011004000
B1830343337384N08122952WA0079100806003013004000
B1830353337377N08122936WA0079000806003013004000
B1830363337370N08122920WA0079000806003013004000
B1830373337363N08122904WA0078700805003013004000
B1830383337356N08122888WA0078600804003013004000
B1830393337349N08122872WA0078600803003013004000
B1830403337343N08122855WA0078500803003013004000
B1830413337337N08122838WA0078400802003018004000
B1830423337330N08122821WA0078300801003020004000
B1830433337324N08122804WA0078200800003022004000
B1830443337318N08122786WA0078400800003022004000
B1830453337312N08122769WA0078600800003018004000
B1830463337305N08122752WA0078700802003018004000
B1830473337299N08122735WA0078900804003018004000
B1830483337293N08122718WA0079200807003022004000
B1830493337287N08122702WA0079300809003029004000
B1830503337281N08122686WA0079500811003034004000
B1830513337275N08122671WA0079700813003034004000
B1830523337269N08122656WA0080100815003031004000
B1830533337264N08122642WA0080200817003036004000
B1830543337259N08122627WA0080400819003036004000
B1830553337254N08122613WA0080400821003043004000
B1830563337250N08122598WA0080400821003045004000
B1830573337248N08122582WA0080300821003043004000
B1830583337248N08122565WA0080100820003040004000
B1830593337250N08122547WA0079900819003036004000
B1831003337255N08122530WA0079600816003027004000
B1831013337263N08122513WA0079500813003020004000
B1831023337274N08122497WA0079300811003015004000
B1831033337288N08122484WA0079200808003011004000
B1831043337303N08122473WA0079100807003015004000
B1831053337320N08122465WA0078900806003018004000
B1831063337339N08122459WA0078700805003013004000
B1831073337357N08122456WA0078600803003009004000
B1831083337376N08122456WA0078500802003009004000
B1831093337394N08122461WA0078400800003004004000
F1831091722143013280701210819
B1831103337412N08122468WA0078300798003009004000
B1831113337428N08122477WA0078000795003006004000
B1831123337444N08122489WA0077800792003000004000
B1831133337458N08122503WA0077700789003002004000
B1831143337472N08122517WA0077400787003000004000
B1831153337484N08122533WA0077300784003000004000
F183115172214301328070121030819
B1831163337496N08122549WA0077100782003006004000
B1831173337506N08122566WA0077000780003006004000
B1831183337514N08122584WA0076700779003013004000
B1831193337522N08122603WA0076700777003013004000
B1831203337528N08122621WA0076500776003011004000
B1831213337534N08122640WA0076500775003011004000
B1831223337539N08122660WA0076500774003011004000
B1831233337545N08122679WA0076600774003011004000
B1831243337550N08122698WA0076700775003013004000
B1831253337555N08122717WA0076700776003015004000
F1831251722143013280721030819
B1831263337560N08122736WA0076700776003015004000
B1831273337565N08122755WA0076800777003018004000
B1831283337570N08122773WA0076800778003018004000
F183128172214301328070121030819
B1831293337575N08122792WA0076800779003018004000
B1831303337580N08122811WA0076700779003018004000
B1831313337585N08122829WA0076700779003018004000
B1831323337590N08122848WA0076700779003015004000
B1831333337595N08122867WA0076500779003013004000
B1831343337600N08122885WA0076500777003011004000
B1831353337605N08122904WA0076500776003009004000
B1831363337610N08122924WA0076400776003011004000
B1831373337615N08122943WA0076300776003013004000
B1831383337620N08122962WA0076400776003009004000
B1831393337624N08122981WA0076300775003004004000
B1831403337629N08123001WA0076200774003002004000
B1831413337634N08123020WA0076300774003000004000
B1831423337639N08123039WA0076300774003004004000
B1831433337644N08123059WA0076300774003009004000
B1831443337649N08123079WA0076100775003009004000
B1831453337654N08123098WA0076300775003013004000
B1831463337660N08123118WA0076400775003011004000
B1831473337665N08123138WA0076500775003013004000
B1831483337671N08123157WA0076500776003015004000
B1831493337677N08123177WA0076400776003009004000
B1831503337683N08123196WA0076400776003013004000
B1831513337688N08123215WA0076400776003018004000
B1831523337691N08123234WA0076400776003022004000
B1831533337692N08123253WA0076200775003029004000
B1831543337691N08123271WA0076300775003031004000
B1831553337687N08123288WA0076000773003029004000
B1831563337681N08123304WA0075900772003022004000
B1831573337673N08123317WA0075700770003015004000
B1831583337663N08123329WA0075400768003011004000
B1831593337652N08123338WA0075300766003009004000
B1832003337640N08123345WA0075300764003011004000
B1832013337627N08123349WA0074900762003006004000
B1832023337615N08123350WA0074800759003002004000
B1832033337602N08123349WA0074700757003000004000
B1832043337590N08123345WA0074800755003000004000
B1832053337578N08123338WA0074600754003000004000
B1832063337567N08123330WA0074600753003006004000
B1832073337557N08123319WA0074400751003013004000
B1832083337548N08123308WA0074200750003013004000
B1832093337540N08123294WA0074300749003015004000
B1832103337533N08123280WA0074200748003013004000
B1832113337527N08123265WA0074200747003011004000
B1832123337523N08123249WA0073800746003013004000
B1832133337520N08123233WA0073700745003013004000
B1832143337518N08123216WA0073500743003013004000
B1832153337516N08123199WA0073400741003015004000
B1832163337514N08123181WA0073200739003013004000
B1832173337513N08123163WA0073100738003009004000
B1832183337512N08123145WA0073100736003009004000
B1832193337512N08123127WA0073000735003006004000
B1832203337511N08123109WA0072900734003006004000
B1832213337510N08123091WA0073000733003009004000
B1832223337509N08123074WA0072900733003004004000
B1832233337508N08123056WA0072600732003000004000
B1832243337507N08123039WA0072600731003000004000
B1832253337505N08123022WA0072300729003000004000
B1832263337504N08123004WA0072100726003002004000
B1832273337502N08122986WA0072100724003006004000
B1832283337500N08122968WA0071800723003009004000
B1832293337498N08122950WA0071700721003011004000
B1832303337495N08122931WA0071700721003013004000
B1832313337493N08122911WA0071800721003013004000
B1832323337491N08122892WA0071700721003013004000
B1832333337488N08122873WA0072000722003011004000
B1832343337486N08122854WA0072000723003013004000
B1832353337484N08122834WA0072200725003018004000
B1832363337482N08122815WA0072200727003020004000
B1832373337480N08122796WA0072400729003022004000
B1832383337477N08122777WA0072600732002022004000
B1832393337475N08122759WA0072900735002022004000
B1832403337473N08122741WA0073000738002024004000
B1832413337471N08122723WA0073100740002029004000
B1832423337468N08122705WA0073300742002027004000
B1832433337466N08122688WA0073300744002027004000
B1832443337464N08122670WA0073400746002027004000
B1832453337462N08122653WA0073600747002029004000
B1832463337461N08122635WA0073600748002036004000
B1832473337459N08122618WA0073700749002041004000
B1832483337457N08122600WA0073800750002043004000
B1832493337456N08122583WA0073900751002038004000
B1832503337454N08122566WA0074000752002036004000
B1832513337453N08122549WA0074100753002031004000
B1832523337454N08122531WA0074200754003029004000
B1832533337457N08122513WA0074300755003024004000
B1832543337463N08122495WA0074100755003027004000
B1832553337471N08122478WA0073900753003027004000
B1832563337482N08122462WA0073800752003022004000
B1832573337496N08122449WA0073800750003024004000
B1832583337512N08122437WA0073800749003020004000
B1832593337530N08122428WA0073800750003018004000
B1833003337549N08122423WA0074000750003013004000
B1833013337568N08122420WA0074100751003013004000
B1833023337587N08122421WA0074100751003013004000
B1833033337606N08122424WA0074200751003013004000
B1833043337625N08122430WA0074100751003013004000
B1833053337642N08122438WA0074000751003013004000
F183305172214301328070121081906
B1833063337659N08122449WA0074000750003011004000
B1833073337674N08122461WA0074000749003011004000
B1833083337687N08122475WA0073800747003015004000
B1833093337699N08122491WA0073700746003013004000
F183309172214301328070121030819
B1833103337708N08122508WA0073500745003015004000
B1833113337715N08122526WA0073300743003015004000
B1833123337719N08122544WA0073100741003013004000
F183312172214301328070121031906
B1833133337720N08122561WA0072800739003009004000
B1833143337719N08122579WA0072500736003002004000
B1833153337715N08122595WA0072200734003000004000
B1833163337709N08122610WA0072000731003000004000
B1833173337701N08122624WA0071800729003004004000
F183317172214301328070121030819
B1833183337692N08122636WA0071500726003004004000
B1833193337682N08122645WA0071400724003006004000
B1833203337670N08122653WA0071200722003004004000
B1833213337658N08122658WA0070900721003006004000
B1833223337646N08122660WA0070800719003013004000
B1833233337634N08122662WA0070800717003011004000
B1833243337622N08122663WA0070700717003009004000
B1833253337609N08122664WA0070700716003009004000
B1833263337597N08122665WA0070800716003009004000
B1833273337584N08122667WA0070900717003011004000
B1833283337572N08122668WA0071200719003018004000
B1833293337559N08122670WA0071300721003015004000
F183329172230132807012103081906
B1833303337547N08122672WA0071600723003011004000
B1833313337535N08122673WA0071700725003006004000
B1833323337523N08122675WA0071900727003004004000
B1833333337511N08122676WA0072100730003006004000
