ANKL0ZH
HFDTE200421
HFFXA050
HFPLTPILOT:Nelson Howe
HFGTYGLIDERTYPE:Discus 2b
HFGIDGLIDERID:1X       .
HFDTM100GPSDATUM:
HFRFWFIRMWAREVERSION:40 2011-6-17
HFRHWHARDWAREVERSION: NKL ClearNav V1.0
HFFTYFRTYPE:Nielsen Kellerman, ClearNav-IGC
HFGPS:UBLOX,LEA-4H-0-000-1,16Ch,18000 
HFPRSPRESSALTSENSOR:Intersema,MS5534B,20000 
I033638FXA3941ENL4247REX
C200421161215000000000100
C0000000N00000000WTAKEOFF     
C3337283N08115499W03Start 3
C3337617N08119732W05Finish
C0000000N00000000WLANDING     
B1733263337816N08119565WA0011900125002000003008
B1733273337816N08119565WA0011900125002000003008
B1733283337816N08119565WA0011900125002000003008
B1733293337816N08119565WA0012000125002000003008
B1733303337816N08119565WA0011900126002000003008
B1733313337816N08119565WA0011800126002000003008
B1733323337816N08119565WA0011900126002000003008
B1733333337816N08119565WA0011900126002000003008
B1733343337816N08119565WA0011800126002000003008
B1733353337816N08119565WA0011900125002000003008
B1733363337816N08119565WA0011900125002000003008
B1733373337816N08119565WA0011900125002000003008
B1733383337816N08119565WA0012000125002000003008
B1733393337816N08119565WA0012000125002000003008
B1733403337816N08119564WA0011900125002002003008
B1733413337816N08119564WA0011900125002002003008
B1733423337816N08119564WA0012000125002000003008
B1733433337816N08119564WA0012000126002000003008
B1733443337816N08119564WA0012000126002000003008
B1733453337816N08119564WA0011900126002000003008
B1733463337816N08119564WA0012000126002000003008
B1733473337816N08119564WA0011900126002000003008
B1733483337816N08119564WA0012000126002000003008
B1733493337816N08119564WA0012000126002000003008
B1733503337816N08119564WA0012000126002000003008
B1733513337815N08119564WA0011900126002004003008
B1733523337815N08119564WA0012000126002016003008
B1733533337815N08119564WA0012000126002025003008
B1733543337815N08119564WA0012000125002032003008
B1733553337815N08119564WA0011900125002036003008
B1733563337815N08119564WA0011900125002034003008
B1733573337815N08119564WA0011800125002032003008
B1733583337815N08119564WA0011900125002027003008
B1733593337815N08119564WA0012000126002020003008
B1734003337816N08119564WA0011900126002013003008
B1734013337816N08119563WA0011900126002009003008
B1734023337816N08119563WA0012000126002002003008
B1734033337816N08119563WA0011900126002000003008
B1734043337816N08119564WA0012000125002000003008
B1734053337816N08119564WA0012000125002000003008
B1734063337816N08119564WA0012000125002000003008
B1734073337815N08119564WA0011900125002000003008
B1734083337815N08119564WA0012000125002000003008
B1734093337815N08119564WA0011900125002000003008
B1734103337815N08119564WA0011900125002000003008
B1734113337815N08119564WA0012000125002000003008
B1734123337815N08119564WA0011900124002000003008
B1734133337816N08119564WA0011900124002000003008
B1734143337816N08119564WA0012000124002000003008
B1734153337816N08119564WA0012000124002000003008
B1734163337816N08119564WA0011900124002000003008
B1734173337816N08119564WA0011900124002000003008
B1734183337816N08119564WA0012000124002000003008
B1734193337816N08119564WA0011800124002000003008
B1734203337816N08119564WA0011900124002000003008
B1734213337816N08119564WA0012000124002000003008
B1734223337816N08119564WA0011900124002000003008
B1734233337816N08119564WA0012000124002000003008
B1734243337816N08119564WA0011900123002000003008
B1734253337816N08119564WA0012000123002000003008
B1734263337816N08119564WA0011900123002000003008
B1734273337816N08119564WA0011900123002000003008
B1734283337815N08119564WA0011900123002000003008
B1734293337815N08119564WA0011900123002000003008
B1734303337815N08119564WA0011900122002000003008
B1734313337815N08119564WA0011900122002000003008
B1734323337815N08119564WA0011900122002000003008
B1734333337815N08119564WA0011900122002000003008
B1734343337815N08119564WA0011900122002000003008
B1734353337815N08119564WA0011900122002000003008
B1734363337815N08119564WA0011900122002000003008
B1734373337815N08119564WA0011900122002000003008
B1734383337815N08119564WA0011900122002000003008
B1734393337815N08119564WA0012000122002000003008
B1734403337815N08119564WA0011900122002000003008
B1734413337815N08119564WA0011900122002000003008
B1734423337815N08119563WA0012000122002000003008
B1734433337816N08119563WA0011900122002000003008
B1734443337816N08119563WA0011900122002000003008
B1734453337816N08119563WA0011900122002000003008
B1734463337816N08119563WA0011900122002000003008
B1734473337816N08119563WA0011900122002000003008
B1734483337816N08119563WA0011900122002000003008
B1734493337816N08119563WA0011800122002000003008
B1734503337816N08119563WA0011900122002000003008
B1734513337816N08119563WA0011800122002000003008
B1734523337816N08119563WA0012000122002000003008
B1734533337816N08119563WA0011900122002006003008
B1734543337816N08119563WA0011900122002009003008
B1734553337816N08119563WA0011900122002006003008
B1734563337816N08119563WA0011900122002000003008
B1734573337816N08119564WA0012000122002000003008
B1734583337816N08119564WA0011900122002000003008
B1734593337816N08119564WA0012000122002000003008
B1735003337816N08119564WA0011900122002000003008
B1735013337816N08119564WA0012000122002000003008
B1735023337816N08119564WA0011900122002000003008
B1735033337816N08119564WA0011900122002000003008
B1735043337816N08119564WA0011900122002000003008
B1735053337816N08119564WA0012000122002000003008
B1735063337816N08119564WA0012000122002000003008
B1735073337816N08119564WA0012000122002000003008
B1735083337816N08119564WA0011900122002000003008
B1735093337816N08119564WA0011900122002000003008
B1735103337816N08119564WA0011900122002000003008
B1735113337816N08119564WA0011900122002000003008
B1735123337816N08119564WA0012000122002000003008
B1735133337816N08119564WA0012000122002000003008
B1735143337816N08119564WA0011900122002000003008
B1735153337816N08119564WA0011900122002000003008
B1735163337816N08119564WA0011900122002000003008
B1735173337816N08119564WA0011900122002000003008
B1735183337816N08119564WA0011900122002000003008
B1735193337816N08119564WA0012000122002000003008
B1735203337816N08119564WA0012000122002000003008
B1735213337816N08119564WA0011900122002000003008
B1735223337816N08119564WA0011900122002000003008
B1735233337816N08119565WA0012000122002000003008
B1735243337815N08119566WA0011900122002006003008
B1735253337815N08119568WA0011900122002015003008
B1735263337814N08119571WA0011900122002022003000
F1735263017011307281444082119
B1735283337812N08119582WA0011900122002046003000
B1735303337809N08119597WA0011800122002076003000
B1735323337804N08119619WA0011900122002125003000
B1735343337798N08119644WA0011500122002174003000
B1735363337790N08119675WA0011600122002174003000
B1735383337782N08119710WA0011800121002142003000
B1735403337772N08119747WA0012100123002107003000
B1735423337762N08119786WA0012800127002079003000
B1735443337753N08119828WA0013300134002060003000
B1735463337744N08119871WA0013900140002046003000
B1735483337735N08119915WA0014800147002037003000
B1735503337725N08119959WA0015300154002037003000
B1735523337716N08120004WA0016100159002037003000
B1735543337706N08120050WA0016700167002037003000
B1735563337697N08120096WA0018000177002039003000
B1735583337687N08120141WA0019100190002046003000
B1736003337679N08120186WA0019700199002046003000
B1736023337670N08120233WA0020100203002039003000
B1736043337662N08120280WA0021200211002037003000
B1736063337655N08120327WA0022200221002041003000
B1736083337648N08120373WA0022700229002041003000
B1736103337640N08120420WA0023100234002037003000
B1736123337631N08120466WA0023800239002037003000
B1736143337619N08120511WA0024700248002037003000
B1736163337604N08120554WA0025400255002037003000
B1736183337590N08120598WA0025800260002037003000
B1736203337576N08120644WA0026500266002039003000
B1736223337565N08120690WA0027200273002041003000
B1736243337554N08120737WA0028100280002043003000
B1736263337543N08120783WA0028800288002041003000
B1736283337532N08120828WA0029600297002031003000
B1736303337518N08120872WA0030400304002032003000
B1736323337504N08120915WA0030900311002034003000
F17363330170113072814440821
B1736343337488N08120956WA0031600317002034003000
B1736363337470N08120998WA0032000322002037003000
B1736383337452N08121038WA0033700332002041003000
B1736403337429N08121073WA0034600347002046003000
B1736423337402N08121105WA0034800352002043003000
B1736443337372N08121136WA0035500356002046003000
B1736463337340N08121164WA0036300363002052003000
F1736463017011307281444082119
B1736483337305N08121184WA0037300374002052003000
B1736503337269N08121196WA0038100384002048003000
B1736523337234N08121208WA0039100394002046003000
B1736543337200N08121216WA0040200407002046003000
B1736563337165N08121217WA0041600418002046003000
B1736583337130N08121212WA0042400430002041003000
F173659301701130728144408222119
B1737003337096N08121204WA0043100439002037003000
B1737023337062N08121193WA0043800446002041003000
B1737043337028N08121182WA0044200452002046003000
B1737063336995N08121169WA0045000459002048003000
B1737083336962N08121155WA0045900467002052003000
B1737103336931N08121138WA0046600476002057003000
B1737123336901N08121117WA0047600484002057003000
B1737143336873N08121093WA0048600495002062003000
B1737163336848N08121066WA0049300504002064003000
B1737183336825N08121036WA0050300513002055003000
B1737203336804N08121005WA0051300523002046003000
B1737223336783N08120972WA0051900532002039003000
B1737243336768N08120936WA0052800540002043003000
B1737263336756N08120896WA0054000550002048003000
B1737283336744N08120857WA0054900562002043003000
B1737303336734N08120817WA0056300573002041003000
B1737323336729N08120774WA0057200586002039003000
B1737343336727N08120730WA0058100596002037003000
B1737363336728N08120686WA0059500608002043003000
B1737383336732N08120642WA0060900622002060003000
B1737403336739N08120597WA0061900635002067003000
F1737413017011307281408222119
B1737423336748N08120553WA0062800645002057003000
B1737443336758N08120509WA0063600654002046003000
B1737463336771N08120466WA0064600663002046003000
B1737483336787N08120425WA0065400671002048003000
B1737503336803N08120383WA0066200679002050003000
B1737523336818N08120342WA0066700686002048003000
B1737543336833N08120301WA0067200692002041003000
B1737563336848N08120260WA0067500696002039003000
B1737583336864N08120219WA0068000700002037003000
B1738003336880N08120178WA0068200703002032003000
B1738023336896N08120137WA0068500705002032003000
B1738043336913N08120095WA0069000709002034003000
B1738063336928N08120053WA0069300713002034003000
B1738083336940N08120010WA0070100718002034003000
B1738103336953N08119968WA0071400728002036003000
B1738123336969N08119927WA0072600740002039003000
B1738143336989N08119889WA0073400752002039003000
B1738163337013N08119852WA0073800759002039003000
B1738183337038N08119817WA0073700762002050003000
B1738203337062N08119784WA0074100764002050003000
B1738223337083N08119748WA0074500767002032003000
B1738243337098N08119711WA0075200772002024003000
B1738263337107N08119672WA0075700777002015003000
B1738283337114N08119633WA0075800781002004003000
B1738303337121N08119595WA0076100784002000003000
B1738323337128N08119557WA0076200786002000003000
F173832301701130728140822512119
B1738343337135N08119520WA0076300787002000003000
B1738363337143N08119484WA0076200788002011003000
B1738383337152N08119448WA0076000786002043003000
B1738403337166N08119413WA0076000786002081003000
B1738423337189N08119383WA0076000786002104003000
F1738433017011307281408222119
B1738443337222N08119364WA0075700783002109003000
B1738463337260N08119354WA0075200779002109003000
B1738483337301N08119352WA0074600774002121003000
B1738503337342N08119354WA0074200769002130003000
B1738523337384N08119360WA0074000766002106003000
B1738543337425N08119369WA0073600763002074003000
B1738563337467N08119379WA0073200758002076003000
B1738583337508N08119393WA0072400752002086003000
B1739003337550N08119410WA0072000746002071003000
B1739023337591N08119431WA0071900743002053003000
B1739043337631N08119453WA0071400740002057003000
B1739063337672N08119474WA0071300738002071003000
B1739083337712N08119494WA0071000735002074003000
B1739103337752N08119513WA0070800733002062003000
B1739123337793N08119529WA0070600730002039003000
B1739143337834N08119539WA0070300727002032003000
B1739163337875N08119544WA0069900723002032003000
B1739183337916N08119548WA0069300718002024003000
B1739203337957N08119554WA0068500711002020003000
F173921301701130728140822211951
B1739223337999N08119563WA0067900704002018003000
B1739243338040N08119575WA0067400700002013003000
B1739263338081N08119588WA0067200695002006003000
B1739283338121N08119601WA0067200693002002003000
B1739303338161N08119613WA0066600689002000003000
B1739323338202N08119625WA0065800683002004003000
B1739343338243N08119636WA0065400676002025003000
B1739363338285N08119646WA0065000672002046003000
B1739383338328N08119657WA0065200670002052003000
B1739403338370N08119670WA0065700674002050003000
B1739423338413N08119688WA0066100680002039003000
F1739433017011307281408211951
B1739443338450N08119717WA0067000686002020003000
F1739453017010728144622211951
B1739463338469N08119761WA0067900695003013003000
F173947301701080728144622211951
B1739483338459N08119801WA0069000707003022004000
F1739483017010807281422211951
B1739503338434N08119819WA0069500715003024004000
B1739523338406N08119812WA0069500716004015005000
F173953301701080728141322211951
B1739543338384N08119789WA0070000720003004004000
B1739563338374N08119753WA0070600724003000004000
B1739583338382N08119713WA0071000731002000003000
B1740003338410N08119684WA0071300735002000003000
F17400130170108072814132119
B1740023338449N08119679WA0071800739002000004000
B1740043338487N08119698WA0071900742003000004000
B1740063338510N08119737WA0072300744003000004000
F1740073017010807281413222119
B1740083338511N08119783WA0072500746003000004000
B1740103338491N08119818WA0072700748002000004000
B1740123338460N08119829WA0073200751003000004000
B1740143338430N08119817WA0073900756003000004000
B1740163338410N08119789WA0074400762003000004000
B1740183338407N08119750WA0075200770002000004000
B1740203338426N08119713WA0076000777002000003000
B1740223338461N08119691WA0076200783002000003000
B1740243338501N08119685WA0076000783003013004000
B1740263338539N08119701WA0075600779003029004000
F17402630170108072814132119
B1740283338566N08119737WA0075700777003029004000
F1740293017010807281413222119
B1740303338578N08119784WA0075700780003027004000
B1740323338576N08119833WA0075600780003015004000
B1740343338559N08119874WA0075700780003004004000
B1740363338528N08119896WA0076100784003009004000
F17403730170108072814132221
B1740383338496N08119890WA0076500788003034004000
B1740403338475N08119859WA0077100792003041004000
F174040301701080728141321
B1740423338471N08119817WA0077800798003025004000
F17404230170108072814132221
B1740443338490N08119780WA0078400806003022004000
F17404430170107281413222119
F1740453017010807281413222119
B1740463338527N08119760WA0078700809003034004000
B1740483338569N08119759WA0078600811003032004000
F17404830170108072814132119
B1740503338609N08119780WA0078600811003018004000
B1740523338636N08119821WA0079000811003009004000
F1740533017010807281413222119
B1740543338641N08119871WA0078800813003002004000
B1740563338624N08119915WA0079100816002018004000
B1740583338594N08119941WA0079500822002041004000
B1741003338559N08119949WA0079800825002043004000
B1741023338524N08119941WA0079600823002034004000
B1741043338494N08119919WA0079600820002039004000
F17410530170108072813222119
B1741063338476N08119882WA0080200824003060004000
F1741063017010807281413222119
B1741083338474N08119837WA0081000832003060004000
B1741103338489N08119795WA0081300838002041004000
B1741123338516N08119761WA0081600840002020003000
B1741143338552N08119737WA0081200839002022003000
B1741163338594N08119728WA0081600839002043004000
B1741183338637N08119735WA0081200839002064003000
B1741203338679N08119753WA0081000836002088003000
B1741223338717N08119781WA0081200836002102003000
B1741243338753N08119815WA0081500838002088003000
B1741263338784N08119853WA0081400839002060003000
F17412730170108072814132119
B1741283338812N08119895WA0081200836002053003000
B1741303338835N08119941WA0080700833002069003000
B1741323338852N08119990WA0080000827002067003000
F1741323017010807281413222119
B1741343338861N08120042WA0080200824002048003000
B1741363338867N08120093WA0081100830002048003000
B1741383338870N08120141WA0081200836002041003000
B1741403338870N08120186WA0081300838002046003000
B1741423338868N08120229WA0080900835002057003000
B1741443338859N08120270WA0080600831002048003000
B1741463338844N08120307WA0080500828002032003000
B1741483338824N08120341WA0079600824002031003000
B1741503338800N08120371WA0078900816002053003000
B1741523338773N08120399WA0078200808002069003000
B1741543338743N08120426WA0077900803002064003000
B1741563338712N08120451WA0077400798002048003000
B1741583338681N08120476WA0077000794002032003000
B1742003338650N08120501WA0076800790002013003000
B1742023338620N08120525WA0076600789002011003000
B1742043338590N08120548WA0076300786002025003000
B1742063338560N08120571WA0075600780002020003000
B1742083338530N08120594WA0075000772002009003000
B1742103338500N08120619WA0074500766002004003000
B1742123338469N08120645WA0074100762002000003000
B1742143338437N08120672WA0073900760002002003000
B1742163338406N08120700WA0073600758002009003000
B1742183338374N08120729WA0073100754002015003000
B1742203338343N08120759WA0073000750002013003000
B1742223338312N08120790WA0072600747002009003000
B1742243338281N08120821WA0071800742002006003000
B1742263338248N08120851WA0071200735002000003000
B1742283338214N08120878WA0070800729002000003000
B1742303338179N08120905WA0070400725002000003000
B1742323338144N08120928WA0070400724002000003000
B1742343338110N08120951WA0070100722002000003000
B1742363338076N08120973WA0069700718002000003000
B1742383338042N08120996WA0069300714002000003000
B1742403338008N08121018WA0069100711002000003000
B1742423337974N08121039WA0069000710002000003000
B1742443337942N08121063WA0068800708002000003000
B1742463337911N08121088WA0068900707002002003000
B1742483337881N08121115WA0068800708002002003000
B1742503337853N08121143WA0069000708002000003000
B1742523337824N08121171WA0069200710002000003000
B1742543337795N08121197WA0069400712002000003000
B1742563337766N08121221WA0070000716002000003000
B1742583337736N08121244WA0070300720002000003000
B1743003337706N08121263WA0070300722002000003000
F174301301701080728145113222119
B1743023337674N08121274WA0070800723002002003000
B1743043337644N08121265WA0071700730002009003000
B1743063337624N08121239WA0072400739003011003000
B1743083337620N08121203WA0072400744003013004000
B1743103337636N08121166WA0072700746003025004000
B1743123337666N08121138WA0072500746003034004000
F1743133017010807281413222119
B1743143337705N08121122WA0072200743003039004000
B1743163337746N08121125WA0072100742003060004000
B1743183337783N08121146WA0072300742002081003000
B1743203337812N08121178WA0071800742002074003000
B1743223337835N08121217WA0071600739002067003000
B1743243337853N08121260WA0071300736002074003000
B1743263337865N08121307WA0071300735002067003000
B1743283337869N08121356WA0071400735002041003000
B1743303337856N08121398WA0071800739002043003000
B1743323337828N08121420WA0072000743002055003000
B1743343337797N08121423WA0071700741003060004000
F17433530170108072814132221
B1743363337769N08121408WA0071300736003057004000
B1743383337751N08121378WA0071100732003039003000
F1743383017010807281413221921
B1743403337738N08121339WA0070600729002027003000
B1743423337727N08121298WA0070600729002018003000
B1743443337711N08121258WA0070600729002009003000
B1743463337691N08121220WA0070600729002000003000
B1743483337670N08121184WA0071200731002000003000
B1743503337663N08121140WA0072800741002006003000
B1743523337681N08121100WA0073900757003022003000
B1743543337718N08121091WA0074500768006022004000
F17435430170108072814131921
F1743553017010807141921
B1743563337755N08121110WA0074300777004009004000
F1743563017010807131921
B1743583337781N08121146WA0074100775003016004000
F174358301701080728131921
F17435930170108072814132221
B1744003337786N08121189WA0074000772003046004000
B1744023337770N08121224WA0073700768003065004000
F17440330170108072814221921
B1744043337741N08121237WA0073700765003067004000
F174405301701080728142221
B1744063337712N08121222WA0073800764004055005000
F17440730170108072814132221
B1744083337698N08121185WA0074400770003055005000
B1744103337704N08121141WA0075100777003060004000
B1744123337727N08121102WA0075000778003041004000
F1744123017010807281413221921
B1744143337766N08121079WA0075300779003025005000
F17441430170108072814131921
B1744163337811N08121079WA0075300783003015004000
B1744183337853N08121099WA0074800779003011004000
B1744203337886N08121134WA0074500772003037004000
F1744213017010807281413221921
B1744223337903N08121181WA0074400770003074004000
B1744243337904N08121230WA0074100769002090003000
B1744263337894N08121277WA0074100768002093003000
B1744283337875N08121319WA0074000767002079003000
B1744303337853N08121358WA0074300768002076003000
B1744323337830N08121396WA0074800771002081003000
B1744343337805N08121431WA0075100774002062003000
B1744363337778N08121465WA0075100775002048003000
F174436301701080728141351221921
B1744383337748N08121493WA0075700777002048003000
B1744403337713N08121501WA0077100785003036004000
F17444130170108072814132221
B1744423337686N08121481WA0078100799003032004000
F174443301701080728141321
B1744443337678N08121443WA0078400806003041004000
F17444430170108072814132221
B1744463337687N08121402WA0078400807003041004000
F1744463017010807281413192221
B1744483337711N08121369WA0078300807003027003000
F17444930170108072814131921
B1744503337748N08121351WA0078500807003029004000
B1744523337788N08121356WA0078700809003052003000
B1744543337822N08121381WA0078800812002069003000
B1744563337846N08121419WA0079100815002058003000
B1744583337854N08121463WA0079400817002029003000
F1744583017010807281413192221
B1745003337842N08121504WA0079500820002011003000
B1745023337814N08121525WA0079800822003002003000
F17450330170108072814131921
B1745043337783N08121519WA0080100824003000004000
F174504301701080728141321
F17450530170108072814132221
B1745063337761N08121490WA0080300827003002004000
F174506301701080728141321
F17450730170108072814132221
B1745083337762N08121447WA0080600829003029004000
B1745103337783N08121407WA0080700831003039004000
F1745103017010807281413192221
B1745123337818N08121380WA0080900834002029003000
F17451330170108072814131921
B1745143337859N08121375WA0081100835003029004000
B1745163337896N08121399WA0081500838003039004000
F174516301701072814131921
F17451730170108072814131921
B1745183337918N08121442WA0081800841002048003000
F1745193017010807281413192221
B1745203337921N08121488WA0082000844002039003000
B1745223337906N08121528WA0082400848002020003000
F17452330170108072814192221
B1745243337877N08121546WA0083000853003015004000
F174525301701080728141921
B1745263337847N08121536WA0083500857003013004000
F1745263017010807281421
F17452730170108072814132221
B1745283337828N08121505WA0083400859003004004000
F174528301701080728141321
B1745303337831N08121462WA0083300859003000004000
F17453030170108072814132221
F1745313017010807281413192221
B1745323337856N08121426WA0083700859002000003000
F17453330170108072814131921
B1745343337896N08121411WA0083800863002020003000
B1745363337939N08121418WA0083800864002050003000
B1745383337975N08121447WA0083600861003055004000
F174538301701072814131921
F17453930170108072814131921
B1745403337996N08121494WA0083700861003041004000
F1745403017010807281413192221
B1745423337998N08121545WA0083900865003029004000
B1745443337981N08121588WA0084400869003022003000
B1745463337950N08121615WA0084600873003015004000
B1745483337915N08121618WA0085100876003009004000
F17454930170108072814132221
B1745503337884N08121596WA0085300880003006004000
B1745523337869N08121559WA0085500882003015004000
B1745543337875N08121513WA0085500882003029004000
F1745553017010807281413192221
B1745563337901N08121477WA0085800884002050003000
B1745583337939N08121456WA0086300888002055003000
B1746003337982N08121451WA0086600893002039003000
B1746023338024N08121463WA0087200898002025003000
B1746043338057N08121494WA0087800903003013003000
F17460530170108072814192221
B1746063338071N08121538WA0088400909003030004000
B1746083338062N08121577WA0089000916003062003000
B1746103338037N08121598WA0089000919003062004000
F1746103017010807281413192221
B1746123338006N08121600WA0089200919003036003000
B1746143337978N08121583WA0089500920003018003000
F17461430170108072814132221
F174615301701080728142221
B1746163337959N08121553WA0089700923002018003000
F174616301701080728192221
F17461730170108072814192221
B1746183337949N08121516WA0089600923002041003000
F17461930170107281413192221
B1746203337948N08121474WA0089300924002055003000
F174620301701072813192221
F17462130170108072813192221
B1746223337958N08121433WA0089100921002043003000
F1746223017010807281413192221
B1746243337976N08121393WA0089400921002037003000
B1746263338004N08121358WA0089400922002046003000
B1746283338040N08121332WA0089500923002050003000
B1746303338082N08121321WA0090100927002050003000
B1746323338125N08121327WA0090500932002041003000
B1746343338163N08121350WA0090700935003015003000
B1746363338190N08121389WA0091100939003004003000
B1746383338202N08121435WA0091100942003002003000
B1746403338196N08121479WA0091400944003027003000
B1746423338175N08121511WA0091400946003057003000
B1746443338144N08121527WA0091400945003048003000
B1746463338112N08121524WA0091600946002053003000
B1746483338082N08121505WA0091800946002064003000
B1746503338063N08121470WA0092300949002046003000
F17465030170108072813192221
F1746513017010807281413192221
B1746523338057N08121427WA0092600953003025003000
B1746543338070N08121383WA0093500959003011003000
B1746563338101N08121353WA0093700965003013003000
F17465730170108072814131921
B1746583338142N08121348WA0093700966003051003000
B1747003338180N08121368WA0093700965003074003000
B1747023338208N08121405WA0093700965002062003000
F1747033017010807281413192221
B1747043338221N08121449WA0094100965002043003000
B1747063338218N08121494WA0094600971002025003000
B1747083338200N08121527WA0095000975002025003000
B1747103338171N08121543WA0095200977002029003000
B1747123338140N08121539WA0095200977003015003000
B1747143338113N08121517WA0095400978003002003000
F17471430170108072814132221
B1747163338100N08121481WA0095800981003006003000
F1747163017010807281413192221
B1747183338105N08121439WA0095900984003046003000
B1747203338131N08121405WA0096300986002074003000
B1747223338168N08121385WA0096000987002062003000
B1747243338209N08121376WA0095800985002053003000
B1747263338252N08121378WA0095800983002065003000
B1747283338296N08121391WA0095800985002060003000
B1747303338338N08121410WA0095700984002034003000
B1747323338377N08121437WA0095800984002029003000
B1747343338412N08121471WA0095900984002034003000
F174734301701080728141319224621
B1747363338437N08121514WA0096900988002053003000
B1747383338443N08121562WA0097500998003053003000
B1747403338433N08121602WA0098301006002027003000
F1747413017010807281413192221
B1747423338411N08121631WA0099001014002013003000
B1747443338385N08121645WA0099701022002006003000
B1747463338357N08121645WA0100001025003004003000
B1747483338332N08121629WA0100101027002002003000
B1747503338315N08121601WA0100201027003004003000
B1747523338311N08121562WA0100701031003009003000
B1747543338323N08121524WA0101301037002002003000
B1747563338352N08121498WA0102101045002000003000
B1747583338389N08121496WA0102501051003000003000
B1748003338420N08121519WA0102601054002000003000
F17480130170108072814192221
B1748023338437N08121556WA0102701054002000003000
F1748033017010807281413192221
B1748043338436N08121596WA0102801058002000003000
B1748063338419N08121626WA0102901059002004003000
F17480630170108072814192221
F1748073017010807281413192221
B1748083338391N08121635WA0102901058003002003000
B1748103338364N08121622WA0102901057003011004000
F17481030170108072814132221
F1748113017010807281413192221
B1748123338347N08121589WA0103201059003020004000
B1748143338348N08121548WA0103601064003013004000
B1748163338369N08121511WA0104001067002018003000
F17481630170108072814131921
F1748173017010807281413192221
B1748183338404N08121488WA0104301070002020003000
B1748203338445N08121485WA0104701073003009003000
B1748223338484N08121503WA0105101078003002004000
F17482230170108072814131921
B1748243338510N08121538WA0105601081003011004000
F174824301701080728141921
F17482530170108072814192221
B1748263338520N08121581WA0105901084002037003000
F1748263017010807281413192221
B1748283338515N08121621WA0106001087002039003000
B1748303338496N08121652WA0106201090002013003000
B1748323338468N08121666WA0106801093003000004000
B1748343338438N08121658WA0107201097003006004000
B1748363338418N08121632WA0107501101003006004000
B1748383338414N08121592WA0107901106003000004000
B1748403338430N08121554WA0108501111002000003000
B1748423338463N08121531WA0108901116002004003000
B1748443338502N08121530WA0109201120002004003000
B1748463338537N08121550WA0109501123003002003000
B1748483338561N08121586WA0109701125002004003000
B1748503338565N08121629WA0109801127002000003000
B1748523338550N08121664WA0110001129002000003000
B1748543338523N08121683WA0110301130003000004000
B1748563338491N08121681WA0110401132003000003000
B1748583338464N08121659WA0110501132003000004000
B1749003338449N08121622WA0110401132003034004000
B1749023338451N08121576WA0110601134003060004000
B1749043338468N08121531WA0110901134002039003000
B1749063338499N08121495WA0111801142003018003000
B1749083338541N08121479WA0112701151003006004000
B1749103338585N08121483WA0113201158003002004000
B1749123338621N08121507WA0113601163003000004000
B1749143338645N08121545WA0113901167003002003000
F17491430170108072814192221
B1749163338652N08121589WA0114301171003029003000
F1749163017010807281413192221
B1749183338644N08121630WA0114501175002039003000
B1749203338624N08121660WA0114801177002020003000
B1749223338595N08121674WA0114901178003004004000
B1749243338564N08121668WA0115001179003000004000
B1749263338538N08121644WA0115201181003000004000
B1749283338524N08121606WA0115601184003023004000
B1749303338524N08121562WA0116001190003036004000
B1749323338537N08121519WA0116401194002018003000
B1749343338564N08121482WA0116601198002006003000
B1749363338600N08121456WA0117001201003034003000
B1749383338642N08121448WA0117601207002055003000
B1749403338683N08121460WA0117801210003039003000
B1749423338717N08121487WA0117901211003032004000
B1749443338740N08121526WA0118101214003032003000
B1749463338748N08121570WA0118501218002020003000
B1749483338742N08121610WA0119101223003006003000
B1749503338720N08121637WA0119301226003002004000
B1749523338690N08121641WA0119401227003006004000
B1749543338664N08121621WA0119501227003009004000
B1749563338654N08121581WA0119701228003011004000
B1749583338668N08121538WA0120001231003027004000
F17495930010807281413192221
B1750003338699N08121505WA0120101233003032004000
F1750003017010807281413192221
B1750023338740N08121487WA0120201233002015003000
B1750043338784N08121491WA0120501235002016003000
B1750063338821N08121517WA0120601237003053004000
B1750083338845N08121557WA0120901238002097003000
B1750103338856N08121602WA0120701238002100003000
B1750123338855N08121647WA0120901238002062003000
B1750143338840N08121687WA0121101241002034003000
B1750163338815N08121714WA0121501244002020003000
B1750183338783N08121722WA0121801248003011004000
B1750203338751N08121709WA0122201250003004004000
B1750223338729N08121678WA0122701253003011004000
B1750243338721N08121634WA0123101258003018004000
B1750263338731N08121588WA0123501264003009003000
B1750283338754N08121548WA0123601267002002003000
B1750303338788N08121517WA0123701268002000003000
B1750323338832N08121501WA0123801269002000003000
B1750343338876N08121506WA0124001270003000003000
B1750363338914N08121533WA0124301273003011004000
B1750383338939N08121573WA0124701277003058004000
B1750403338950N08121618WA0125201282003079003000
B1750423338947N08121661WA0125401285002057003000
B1750443338934N08121699WA0125601288002036003000
B1750463338910N08121726WA0125901290002020003000
B1750483338880N08121739WA0126401294003006003000
B1750503338849N08121734WA0126901299003000003000
B1750523338823N08121712WA0127601305003011003000
B1750543338807N08121678WA0128101311002020003000
F17505430170108071413192221
F1750553017010807281413192221
B1750563338805N08121636WA0128201314002006003000
B1750583338819N08121595WA0128201314003000003000
B1751003338850N08121562WA0128001314003011003000
B1751023338891N08121546WA0128101314003039003000
B1751043338934N08121551WA0128001313003057004000
B1751063338974N08121577WA0128101312003057004000
B1751083339000N08121617WA0128401314003043003000
F17510830170108072814192221
B1751103339008N08121663WA0128701317003022004000
F1751103017010807281413192221
B1751123338997N08121703WA0129001321003013004000
B1751143338971N08121728WA0129501326003009004000
B1751163338939N08121731WA0130501332003002003000
B1751183338912N08121713WA0131501341003000004000
B1751203338896N08121680WA0131801348002000003000
F17512030170108071413192221
B1751223338891N08121640WA0131701350003000003000
F17512230170108072814131921
B1751243338902N08121598WA0132001350002000003000
F1751243017010807281413192221
B1751263338928N08121563WA0132601354002027003000
B1751283338962N08121539WA0132801359002055003000
B1751303339001N08121528WA0132401358002043003000
B1751323339042N08121533WA0132301356003025003000
B1751343339082N08121552WA0132401356003022004000
B1751363339113N08121585WA0132701358003032004000
B1751383339131N08121626WA0133101362003037003000
B1751403339133N08121669WA0133701367003029003000
B1751423339122N08121706WA0134201373002013003000
B1751443339099N08121729WA0134401376003002003000
B1751463339070N08121736WA0135101380003000003000
B1751483339042N08121727WA0135601386002000003000
B1751503339020N08121704WA0135901390003000003000
B1751523339006N08121669WA0136201393003000003000
B1751543339004N08121628WA0136001394002000003000
B1751563339014N08121586WA0136201394002004003000
B1751583339037N08121550WA0136501397002027003000
B1752003339069N08121521WA0137001402002025003000
B1752023339105N08121504WA0137301406002029003000
B1752043339143N08121500WA0137201408002067003000
B1752063339180N08121512WA0137501408003097003000
B1752083339209N08121537WA0137501410003088003000
B1752103339229N08121571WA0137401409002069003000
B1752123339242N08121611WA0137101406002078003000
B1752143339248N08121652WA0137501408002090003000
B1752163339249N08121692WA0137901412002069003000
B1752183339249N08121732WA0138401417002036003000
B1752203339247N08121772WA0138601419002018003000
B1752223339244N08121811WA0138601420002004003000
B1752243339239N08121849WA0138701421002002003000
B1752263339227N08121884WA0138601421002011003000
B1752283339204N08121904WA0138901420003027004000
B1752303339176N08121900WA0138901422003039004000
B1752323339154N08121877WA0138401419003053004000
B1752343339140N08121843WA0138101415003081004000
B1752363339135N08121801WA0137401410003086004000
F17523630170108072814131921
F1752373017010807281413192221
B1752383339140N08121756WA0137101405003067003000
B1752403339150N08121709WA0137101404002067003000
B1752423339164N08121662WA0137001405002057003000
B1752443339183N08121617WA0136801404002034003000
B1752463339204N08121572WA0136701403002039003000
B1752483339227N08121528WA0137101403002057003000
B1752503339253N08121486WA0137101405002048003000
B1752523339286N08121450WA0137201406002027003000
B1752543339323N08121418WA0136901405002022003000
B1752563339365N08121392WA0136301400002015003000
B1752583339411N08121374WA0136301397002009003000
B1753003339459N08121369WA0136101397002011003000
B1753023339507N08121375WA0135901394002009003000
B1753043339553N08121392WA0135901392002002003000
B1753063339597N08121415WA0135501391002000003000
B1753083339640N08121441WA0135201388002009003000
B1753103339682N08121468WA0134901383002029003000
B1753123339723N08121497WA0134901383002032003000
B1753143339764N08121525WA0135101383002018003000
B1753163339805N08121553WA0135001382002009003000
B1753183339846N08121580WA0134701381002009003000
B1753203339887N08121607WA0134501378002006003000
B1753223339928N08121634WA0134001373002023003000
B1753243339970N08121661WA0134001370002032003000
B1753263340012N08121687WA0133701368002020003000
B1753283340053N08121713WA0133301366002020003000
B1753303340094N08121738WA0133001362002015003000
B1753323340134N08121764WA0132401357002006003000
B1753343340175N08121790WA0131701351002004003000
B1753363340217N08121817WA0131401346002018003000
B1753383340258N08121845WA0131001342002025003000
B1753403340301N08121872WA0130701338002011003000
B1753423340344N08121899WA0130501335002002003000
B1753443340388N08121924WA0130401333002000003000
B1753463340432N08121949WA0130101331002000003000
B1753483340477N08121973WA0129801329002000003000
B1753503340523N08121996WA0129701327002000003000
B1753523340568N08122018WA0129801327002000003000
B1753543340613N08122041WA0130001328002000003000
B1753563340656N08122064WA0130001328002002003000
B1753583340699N08122086WA0129901328002013003000
B1754003340742N08122108WA0129801327002009003000
B1754023340785N08122129WA0129601326002002003000
B1754043340828N08122149WA0129301323002000003000
B1754063340871N08122168WA0129001319002011003000
B1754083340913N08122187WA0129101318002048003000
B1754103340956N08122204WA0129101320002057003000
B1754123340998N08122220WA0128801318002039003000
B1754143341039N08122236WA0128901317002036003000
F175415301701080728141319224421
B1754163341079N08122251WA0129101318002046004000
B1754183341118N08122265WA0129301320002043004000
B1754203341157N08122279WA0129401322002048004000
B1754223341195N08122295WA0129301321002081004000
B1754243341231N08122313WA0129201321002118004000
B1754263341266N08122333WA0129201319002141004000
B1754283341299N08122356WA0129101320002155004000
B1754303341331N08122381WA0129101320002163004000
B1754323341363N08122407WA0129101319002168004000
B1754343341393N08122434WA0128901318002168004000
B1754363341423N08122463WA0129001317002170004000
B1754383341451N08122494WA0129001318002172004000
B1754403341477N08122525WA0128901318002158004000
B1754423341503N08122559WA0129101319002111004000
B1754443341526N08122593WA0129201321002074004000
B1754463341549N08122628WA0129101321002060004000
B1754483341570N08122664WA0128901320002057004000
B1754503341591N08122701WA0128901318002069004000
B1754523341611N08122739WA0128701317002079004000
B1754543341629N08122777WA0128601315002097004000
B1754563341645N08122818WA0128501315002126004000
B1754583341658N08122859WA0128301313002146004000
F175459301701080728141319222146
B1755003341668N08122903WA0128101310002142004000
B1755023341676N08122947WA0128101309003123004000
B1755043341679N08122992WA0128501312003095004000
B1755063341679N08123036WA0128901316002060004000
B1755083341676N08123079WA0129401321002032004000
B1755103341668N08123120WA0130001327002013004000
B1755123341652N08123155WA0130701332003016004000
B1755143341628N08123181WA0131501341003030004000
B1755163341600N08123195WA0132501349003025004000
F1755173017010807281413192221
B1755183341572N08123192WA0133201358003006004000
B1755203341552N08123170WA0133701365003004004000
B1755223341547N08123135WA0133801369003011004000
B1755243341561N08123100WA0134001371003009004000
B1755263341589N08123075WA0134001372003002004000
B1755283341625N08123067WA0134201374003000004000
B1755303341661N08123080WA0134401376003000004000
B1755323341687N08123109WA0134601377003000004000
B1755343341699N08123148WA0134701378003000004000
B1755363341694N08123187WA0134701379003000004000
B1755383341673N08123217WA0134601380003004004000
B1755403341644N08123230WA0134801381003004004000
B1755423341613N08123223WA0135001381003006004000
B1755443341590N08123196WA0135201384003020004000
B1755463341579N08123157WA0135601388003018004000
B1755483341582N08123113WA0135701391003006004000
B1755503341602N08123072WA0135901393003006004000
B1755523341636N08123044WA0136201396003004004000
B1755543341678N08123032WA0136101396003000004000
B1755563341719N08123042WA0136201398003006004000
B1755583341755N08123070WA0136501399003022004000
B1756003341779N08123110WA0136901402003046004000
B1756023341792N08123156WA0137401407003041004000
B1756043341794N08123202WA0137801412003018004000
B1756063341782N08123243WA0138401418003009004000
B1756083341757N08123269WA0138701422003002004000
B1756103341726N08123277WA0139101426003009004000
B1756123341698N08123266WA0139401429003020004000
B1756143341678N08123238WA0139601431003025004000
B1756163341671N08123200WA0139801431003060004000
F17561630170108072814131921
B1756183341680N08123159WA0139701431003086004000
F1756183017010807281413192221
B1756203341704N08123122WA0139701431003076004000
B1756223341738N08123095WA0139701431003097004000
B1756243341778N08123080WA0139801431003109004000
B1756263341819N08123075WA0140101433003083004000
B1756283341860N08123080WA0140801439003060004000
B1756303341898N08123094WA0141401445003032004000
B1756323341931N08123117WA0141901450003011004000
B1756343341956N08123148WA0142301453003013004000
F17563530170108072814192221
B1756363341965N08123186WA0142101455003048004000
F1756373017010807281413192221
B1756383341956N08123218WA0142201453003095004000
B1756403341933N08123237WA0142101452003118004000
B1756423341905N08123238WA0142601455003121004000
B1756443341880N08123226WA0142901461003088004000
B1756463341862N08123201WA0143301465003046004000
B1756483341855N08123166WA0143401467003020004000
B1756503341865N08123129WA0143301467003016004000
B1756523341893N08123100WA0143101466003027004000
B1756543341931N08123090WA0143301465003025004000
B1756563341969N08123100WA0143601468003009004000
B1756583342000N08123127WA0144101472003000004000
B1757003342021N08123164WA0144601477003000004000
B1757023342025N08123205WA0144701480003007004000
B1757043342014N08123238WA0144801482003041004000
B1757063341989N08123257WA0145001482003067004000
B1757083341960N08123258WA0144801482003053004000
B1757103341934N08123241WA0144801480003053004000
F17571130170108072813192221
B1757123341915N08123209WA0145001482003057004000
F1757133017010807281413192221
B1757143341908N08123167WA0145201485003034004000
F17571430170108072814131921
B1757163341913N08123123WA0145301487003022004000
B1757183341931N08123081WA0145201487003034004000
F1757183017010807281413192221
B1757203341961N08123048WA0145401488003067004000
B1757223341999N08123029WA0145601490003095004000
B1757243342040N08123025WA0145601492003086004000
B1757263342081N08123035WA0145701492003076004000
B1757283342118N08123057WA0145901492003097004000
B1757303342146N08123090WA0146101496003090004000
B1757323342160N08123131WA0146601499003055004000
B1757343342161N08123174WA0146201499003053004000
B1757363342150N08123210WA0146401500003088004000
B1757383342130N08123238WA0146901502003121004000
B1757403342105N08123257WA0147201506003104004000
B1757423342077N08123269WA0147501508003058004000
B1757443342049N08123267WA0147701510003048004000
B1757463342024N08123251WA0147901512003069004000
B1757483342006N08123222WA0147601512003086004000
B1757503341998N08123186WA0147501510003100004000
F17575130170108072814131921
B1757523341997N08123145WA0147501510003102004000
B1757543342004N08123104WA0147401511003086004000
F1757543017010807281413192221
B1757563342021N08123064WA0147501511003085004000
B1757583342047N08123030WA0147501512003111004000
B1758003342079N08123004WA0147701512003135004000
B1758023342117N08122986WA0148001514003142004000
B1758043342156N08122979WA0148201517003142004000
B1758063342195N08122981WA0148401518003132004000
B1758083342233N08122995WA0148101518003097004000
B1758103342265N08123019WA0148101517003067004000
B1758123342291N08123052WA0148501518003060004000
B1758143342309N08123089WA0148801521003051004000
B1758163342321N08123128WA0149001524003034004000
B1758183342328N08123168WA0149201527003015004000
B1758203342328N08123208WA0149301528003004004000
B1758223342319N08123243WA0149501529003004004000
B1758243342302N08123272WA0149601531003004004000
B1758263342279N08123291WA0149701531003002004000
B1758283342252N08123303WA0149801532003000004000
B1758303342223N08123305WA0149801531003013004000
B1758323342197N08123294WA0150001533003053004000
B1758343342173N08123276WA0149601531003093004000
F17583530170108071413192221
B1758363342156N08123248WA0149001526003095004000
F1758363017010807281413192221
F17583730170108072814131921
B1758383342149N08123213WA0149401525003064004000
B1758403342148N08123175WA0149501528003048004000
F1758413017010807281413192221
B1758423342155N08123136WA0149101527003071004000
B1758443342170N08123098WA0148901525003100004000
F17584430010807281413192221
F1758453017010807281413192221
B1758463342193N08123063WA0148601521003111004000
B1758483342222N08123033WA0148601520003123004000
B1758503342258N08123013WA0148501519003116004000
B1758523342297N08123008WA0148501519003104004000
B1758543342337N08123017WA0148301518003097004000
B1758563342374N08123038WA0148201517003076004000
B1758583342406N08123066WA0148301517003067004000
B1759003342436N08123098WA0148601520003055004000
B1759023342462N08123133WA0148501520003036004000
B1759043342487N08123171WA0148501520003036004000
B1759063342510N08123210WA0148701519003043004000
B1759083342526N08123251WA0149201522003050004000
B1759103342532N08123294WA0149801528003050004000
B1759123342526N08123331WA0150301534003039004000
F17591230170108072814131922
F1759133017010807281413192221
B1759143342508N08123355WA0150801540003022004000
B1759163342483N08123364WA0150601541003006004000
B1759183342459N08123358WA0150201537003013004000
B1759203342437N08123340WA0149601531003032004000
F17592130170108071413192221
B1759223342417N08123314WA0148801524003039004000
F1759223017010807281413192221
B1759243342398N08123285WA0148801521003046004000
B1759263342380N08123255WA0148501519003072004000
B1759283342361N08123224WA0148301517003107004000
B1759303342342N08123193WA0148101515003125004000
B1759323342321N08123163WA0147801512003106004000
B1759343342301N08123131WA0147801510003078004000
B1759363342283N08123096WA0147701508003064004000
B1759383342266N08123061WA0147501507003041004000
B1759403342251N08123023WA0147201505003034004000
B1759423342236N08122985WA0146801501003060004000
B1759443342221N08122947WA0146801499003074004000
B1759463342206N08122909WA0146301496003062004000
B1759483342192N08122870WA0145701490003046004000
B1759503342178N08122831WA0145301484003032004000
F175950301701080728141319222146
B1759523342163N08122791WA0144801480003034004000
B1759543342149N08122752WA0144301475003041004000
B1759563342134N08122712WA0144201471003046004000
B1759583342120N08122671WA0144101470003058004000
B1800003342106N08122631WA0144001470003046004000
B1800023342092N08122591WA0143801468003018004000
B1800043342078N08122552WA0143601465003004004000
B1800063342064N08122513WA0143501463003000004000
B1800083342050N08122474WA0143401462003000004000
B1800103342037N08122436WA0143301462003011004000
B1800123342023N08122398WA0143201461003041004000
B1800143342010N08122360WA0142901457003076004000
B1800163341998N08122322WA0142701455003109004000
B1800183341986N08122282WA0142501453003118004000
B1800203341974N08122242WA0142401452003093004000
B1800223341963N08122203WA0142501452003048004000
B1800243341952N08122165WA0142401452003055004000
B1800263341941N08122128WA0142201451003090004000
B1800283341929N08122091WA0141901448003116004000
B1800303341918N08122054WA0141601444003132004000
B1800323341906N08122018WA0141301441003139004000
B1800343341894N08121981WA0141201439003142004000
B1800363341882N08121945WA0140801436003140004000
B1800383341870N08121909WA0140401433003144004000
B1800403341857N08121873WA0139801428003149004000
B1800423341843N08121838WA0139401422003132004000
B1800443341828N08121802WA0139001417003093004000
B1800463341813N08121766WA0138501413003060004000
B1800483341798N08121729WA0138001409003064004000
B1800503341783N08121694WA0138201406003067004000
B1800523341767N08121660WA0138201407003043004000
B1800543341750N08121629WA0138101408003036004000
B1800563341734N08121599WA0138001407003043004000
B1800583341717N08121570WA0137901406003053004000
B1801003341700N08121541WA0137601404003067004000
B1801023341682N08121514WA0137701403003086004000
B1801043341663N08121487WA0137801404003092004000
B1801063341645N08121461WA0137701404003076004000
B1801083341625N08121435WA0137801405003062004000
B1801103341606N08121410WA0138001407003064004000
B1801123341585N08121388WA0138001409003064004000
B1801143341564N08121365WA0137901408003055004000
B1801163341543N08121341WA0137901407003074004000
B1801183341523N08121317WA0138001407003100004000
B1801203341502N08121292WA0138101407003088004000
B1801223341482N08121267WA0137801407003064004000
B1801243341462N08121242WA0137201403003069004000
B1801263341441N08121217WA0136401395003095004000
B1801283341420N08121190WA0135801389003109004000
B1801303341400N08121163WA0135001382003088004000
B1801323341380N08121134WA0134101373003050004000
B1801343341359N08121104WA0133301365003029004000
B1801363341337N08121073WA0133001358003018004000
B1801383341314N08121042WA0132401353003013004000
B1801403341288N08121013WA0132401349003027004000
B1801423341258N08120990WA0132201349003036004000
B1801443341226N08120974WA0132601351003025004000
B1801463341193N08120962WA0133001356003020004000
B1801483341160N08120955WA0133201360003020004000
B1801503341129N08120951WA0133701362003013004000
B1801523341098N08120948WA0133501365003016004000
B1801543341067N08120948WA0133201363003027004000
B1801563341038N08120948WA0132901360003039004000
B1801583341009N08120950WA0132601357003039004000
B1802003340981N08120953WA0132201354003032004000
B1802023340953N08120959WA0132101351003055004000
B1802043340927N08120970WA0131501346003083004000
B1802063340902N08120984WA0130701337003071004000
B1802083340876N08120997WA0130001332003046004000
B1802103340851N08121009WA0129201324003029004000
B1802123340823N08121019WA0128801317003018004000
B1802143340794N08121027WA0128201312003020004000
B1802163340764N08121037WA0127801308003043004000
B1802183340733N08121051WA0127501304003046004000
B1802203340702N08121069WA0127301303003022004000
B1802223340671N08121090WA0127301302003027004000
B1802243340639N08121112WA0127401301003048004000
B1802263340608N08121138WA0127301301003059004000
B1802283340576N08121163WA0127201300003060004000
B1802303340542N08121184WA0127401300003060004000
B1802323340506N08121199WA0127701303003050004000
B1802343340470N08121205WA0127901306003034004000
B1802363340434N08121203WA0128601312003039004000
B1802383340402N08121190WA0129401318003050004000
F180238301701080728141319222144
B1802403340377N08121163WA0129901324003043004000
F1802403017010807141319222144
F180241301701080728141319222144
B1802423340365N08121126WA0130101329003027004000
B1802443340366N08121085WA0130401332003015004000
B1802463340380N08121045WA0130701335003009004000
F1802463001080728141319222144
B1802483340408N08121013WA0131201340003013004000
F1802483017010807281413192221
B1802503340446N08120996WA0132101348003025004000
B1802523340487N08120997WA0132801358003020004000
B1802543340525N08121015WA0133201364003006004000
B1802563340556N08121046WA0133401366003000004000
B1802583340577N08121087WA0133701369003000004000
B1803003340586N08121133WA0134201374003000004000
B1803023340581N08121176WA0134601378003000004000
F18030330170108072814131922
B1803043340562N08121211WA0134801382003000004000
F1803043017010807281413192221
B1803063340535N08121231WA0135201383003000004000
B1803083340505N08121230WA0135701386003018004000
B1803103340483N08121210WA0135701389003050004000
B1803123340472N08121179WA0135901390003072004000
B1803143340474N08121142WA0135901392003079004000
B1803163340491N08121105WA0136401395003050004000
B1803183340520N08121079WA0136801400003025004000
B1803203340558N08121067WA0136901402003011004000
B1803223340599N08121070WA0137101404003002004000
B1803243340637N08121089WA0137701408003004004000
B1803263340668N08121122WA0138101413003013004000
B1803283340685N08121165WA0138401418003011004000
B1803303340685N08121210WA0138801422003000004000
F18033130170108072814131922
B1803323340672N08121248WA0139001425003000004000
F1803333017010807281413192221
B1803343340647N08121273WA0139301427003000004000
B1803363340618N08121279WA0139601429003006004000
B1803383340591N08121265WA0139801431003027004000
B1803403340574N08121239WA0139901432003053004000
B1803423340568N08121204WA0140001433003053004000
B1803443340576N08121167WA0140201435003036004000
F18034530010807281413192221
B1803463340594N08121132WA0140401437003032004000
F1803463017010807281413192221
B1803483340622N08121101WA0140701440003022004000
B1803503340657N08121081WA0141001443003013004000
B1803523340696N08121077WA0141701448003006004000
B1803543340734N08121090WA0142201455003000004000
B1803563340764N08121120WA0142601459003000004000
B1803583340777N08121162WA0142601460003002004000
B1804003340772N08121204WA0142601461003006004000
F18040130170108072814131922
B1804023340755N08121238WA0142801461003011004000
F1804023017010807281413192221
B1804043340728N08121259WA0142801462003006004000
B1804063340698N08121264WA0142801460003002004000
B1804083340671N08121249WA0142901461003002004000
B1804103340656N08121217WA0143101462003023004000
B1804123340656N08121177WA0143301464003064004000
B1804143340671N08121136WA0143301467003069004000
F18041430010807281413192221
B1804163340698N08121102WA0143301467003041004000
F1804163017010807281413192221
B1804183340735N08121076WA0143101465003036004000
B1804203340777N08121057WA0143301466003043004000
B1804223340821N08121048WA0143801469003034004000
B1804243340867N08121047WA0144401473003020004000
B1804263340911N08121061WA0144701478003011004000
B1804283340947N08121092WA0145501485003004004000
B1804303340970N08121134WA0146001492003000004000
B1804323340977N08121181WA0146701498003018004000
B1804343340966N08121222WA0146801502003037004000
F18043430170108072814131922
B1804363340943N08121251WA0146701502003043004000
F1804363017010807281413192221
B1804383340913N08121266WA0146901502003041004000
B1804403340881N08121269WA0147401505003022004000
B1804423340850N08121262WA0148001508003006004000
B1804443340823N08121244WA0148201513003002004000
B1804463340807N08121213WA0149001519003023004000
B1804483340804N08121175WA0149601527003027004000
B1804503340812N08121136WA0149801531003009004000
F18045130010807281413192221
B1804523340832N08121100WA0149901532003004004000
F1804523017010807281413192221
B1804543340863N08121073WA0150301535003002004000
B1804563340903N08121063WA0150401537003000004000
B1804583340944N08121070WA0150701541003000004000
B1805003340981N08121091WA0151301544003000004000
B1805023341010N08121125WA0151801550003000004000
B1805043341022N08121168WA0152301555003002004000
B1805063341017N08121208WA0152601559003002004000
B1805083340997N08121236WA0152701560003000004000
B1805103340968N08121242WA0153001562003000004000
B1805123340943N08121226WA0153301565003000004000
B1805143340929N08121194WA0153401566003002004000
B1805163340931N08121153WA0153801568003022004000
B1805183340948N08121113WA0153801570003022004000
F18051830010807281413192221
F1805193017010807281413192221
B1805203340982N08121087WA0154401574003011004000
F18052130170108072814131921
B1805223341023N08121082WA0154501577003009004000
B1805243341062N08121099WA0154901580003013004000
B1805263341092N08121132WA0155101583003009004000
F1805263017010807281413192221
B1805283341108N08121176WA0155201584003000004000
B1805303341107N08121221WA0155501587003000004000
F18053130170108072814131922
B1805323341091N08121259WA0155501589003002004000
F1805333017010807281413192221
B1805343341064N08121282WA0155901590003000004000
B1805363341032N08121287WA0155801590003000004000
B1805383341004N08121273WA0155901590003018004000
B1805403340985N08121241WA0156001591003034004000
B1805423340982N08121199WA0156001592003037004000
B1805443340994N08121155WA0156101592003058004000
B1805463341023N08121120WA0156301595003076004000
B1805483341064N08121099WA0156601595003071004000
B1805503341109N08121097WA0156701598003053004000
B1805523341151N08121115WA0157401603003027004000
B1805543341184N08121150WA0157601607003011004000
B1805563341202N08121194WA0158201612003016004000
B1805583341205N08121241WA0158301615003032004000
B1806003341193N08121282WA0158501617003029004000
B1806023341168N08121309WA0158801619003022004000
B1806043341137N08121317WA0158701620003015004000
B1806063341109N08121303WA0159101622003020004000
B1806083341091N08121271WA0159201624003034004000
B1806103341089N08121230WA0159501626003058004000
B1806123341106N08121189WA0159601630003079004000
B1806143341137N08121158WA0159901632003088004000
B1806163341176N08121143WA0160101634003081004000
B1806183341218N08121146WA0160501637003048004000
B1806203341256N08121165WA0160601641003025004000
B1806223341287N08121197WA0160801643003043004000
B1806243341308N08121238WA0161201646003069004000
B1806263341319N08121282WA0161401648003057004000
B1806283341319N08121325WA0161601651003034004000
B1806303341308N08121364WA0161801652003018004000
B1806323341285N08121389WA0162101655003022004000
F18063230170108072814192221
B1806343341258N08121396WA0162601658003034004000
F1806343017010807281413192221
B1806363341235N08121382WA0162901661003037004000
B1806383341223N08121353WA0163001664003044004000
B1806403341225N08121317WA0163101666003060004000
B1806423341243N08121284WA0162801665003085004000
B1806443341277N08121263WA0162701662003097004000
B1806463341316N08121261WA0162801661003079004000
B1806483341354N08121279WA0163001663003060004000
B1806503341383N08121309WA0163201666003067004000
B1806523341401N08121348WA0163501668003062004000
B1806543341406N08121389WA0163601669003039004000
B1806563341400N08121427WA0163401670003039004000
B1806583341387N08121462WA0163401669003071004000
B1807003341372N08121495WA0163001667003107004000
B1807023341356N08121528WA0162701663003128004000
B1807043341340N08121561WA0162301658003140004000
B1807063341323N08121594WA0161501650003121004000
B1807083341307N08121628WA0160601640003090004000
B1807103341290N08121665WA0159901632003069004000
B1807123341274N08121702WA0159101625003074004000
B1807143341256N08121739WA0158501618003086004000
B1807163341236N08121773WA0158001611003069004000
B1807183341216N08121807WA0157701606003041004000
B1807203341194N08121839WA0157301603003022004000
B1807223341174N08121872WA0156901598003018004000
B1807243341153N08121904WA0156901596003034004000
B1807263341132N08121935WA0156801597003072004000
B1807283341112N08121966WA0156801596003095004000
B1807303341090N08121995WA0156801596003090004000
B1807323341068N08122022WA0156601596003069004000
B1807343341045N08122048WA0156401594003076004000
B1807363341022N08122073WA0155801589003095004000
B1807383340998N08122099WA0155401584003104004000
B1807403340973N08122125WA0154901578003107004000
B1807423340947N08122151WA0154401573003085004000
B1807443340920N08122177WA0154101570003057004000
B1807463340893N08122203WA0153501566003032004000
B1807483340865N08122229WA0153101560003015004000
B1807503340836N08122256WA0152901556003004004000
B1807523340808N08122282WA0153001557003000004000
B1807543340780N08122308WA0152801556003011004000
B1807563340753N08122334WA0152901555003032004000
B1807583340726N08122359WA0153101556003034004000
B1808003340699N08122384WA0153001557003022004000
B1808023340673N08122407WA0153001557003015004000
B1808043340647N08122429WA0152801555003009004000
B1808063340620N08122450WA0152601554003002004000
B1808083340593N08122469WA0152301551003023004000
B1808103340566N08122487WA0151801547003050004000
B1808123340538N08122504WA0151801545003055004000
B1808143340511N08122521WA0151701543003046004000
B1808163340483N08122538WA0151601542003039004000
B1808183340455N08122554WA0151401541003046004000
B1808203340426N08122568WA0151601541003036004000
B1808223340397N08122582WA0151601543003020004000
B1808243340369N08122596WA0151501542003020004000
B1808263340341N08122612WA0151001540003041004000
B1808283340313N08122630WA0150701535003050004000
B1808303340284N08122648WA0150401532003036004000
B1808323340254N08122668WA0150101529003046004000
B1808343340224N08122689WA0149801526003076004000
B1808363340194N08122711WA0149201522003074004000
B1808383340164N08122736WA0149001518003046004000
B1808403340136N08122765WA0149001515003027004000
B1808423340112N08122801WA0149301516003022004000
B1808443340096N08122844WA0150001523003031004000
B1808463340088N08122892WA0150301528003025004000
B1808483340087N08122943WA0150601532003009004000
B1808503340088N08122994WA0149901531003002004000
F18085030170108072814131922
F1808513017010807281413192221
B1808523340090N08123048WA0148701521003009004000
B1808543340091N08123104WA0148001509003037004000
B1808563340091N08123163WA0147701504003043004000
F18085630170108072814131922
B1808583340090N08123221WA0147801505003027004000
B1809003340087N08123278WA0148301508003020004000
F1809003017010807281413192221
B1809023340084N08123334WA0148501511003027004000
B1809043340082N08123389WA0148801513003029004000
B1809063340082N08123443WA0149001517003022004000
B1809083340082N08123495WA0148901517003030004000
B1809103340081N08123547WA0148501515003034004000
B1809123340080N08123598WA0148001509003025004000
F18091230170108072814131922
B1809143340079N08123651WA0147701505003013004000
F1809143017010807281413192221
B1809163340077N08123703WA0147301501003004004000
B1809183340078N08123755WA0147001498003000004000
B1809203340082N08123808WA0146501493003000004000
B1809223340087N08123861WA0146201488003000004000
B1809243340085N08123913WA0146301487003000004000
B1809263340072N08123957WA0146401490003000004000
F18092630170108072814131922
F1809273017010807281413192221
B1809283340048N08123989WA0146601492003004004000
B1809303340017N08124004WA0146501493003006004000
B1809323339985N08124002WA0146601493003018004000
B1809343339956N08123984WA0146301491003060004000
B1809363339932N08123955WA0145801487003095004000
B1809383339916N08123916WA0145301481003099004000
B1809403339906N08123874WA0145301478003095004000
B1809423339899N08123829WA0144901477003081004000
B1809443339895N08123783WA0144401474003050004000
B1809463339891N08123736WA0143701468003036004000
B1809483339890N08123688WA0143201462003057004000
B1809503339889N08123639WA0142901457003074004000
F180951301701080728141319222146
B1809523339889N08123590WA0142501453003069004000
B1809543339891N08123541WA0142201451003074004000
B1809563339896N08123491WA0142001448003064004000
B1809583339902N08123442WA0141701446003036004000
B1810003339909N08123393WA0141401443003020004000
B1810023339916N08123344WA0140901441003009004000
B1810043339923N08123295WA0140901438003002004000
B1810063339932N08123247WA0140701436003000004000
B1810083339944N08123199WA0140501434003004004000
B1810103339959N08123152WA0140301434003006004000
B1810123339974N08123106WA0139901431003011004000
B1810143339988N08123060WA0139001424003025004000
B1810163339998N08123012WA0138401417003034004000
B1810183340005N08122963WA0137701409003034004000
B1810203340010N08122913WA0137701404003034004000
B1810223340019N08122864WA0137701404003034004000
B1810243340039N08122819WA0138101408003025004000
F1810253017010728141319222146
B1810263340072N08122787WA0138701414003048004000
F181027301701080728141319222146
B1810283340113N08122771WA0138901418003067004000
B1810303340155N08122768WA0139201421003048004000
B1810323340197N08122775WA0139001423003041004000
B1810343340238N08122788WA0139001422003032004000
B1810363340278N08122809WA0139001421003022004000
B1810383340314N08122837WA0139101422003024004000
B1810403340347N08122870WA0139401423003020004000
F181040301701080728141319220321
B1810423340378N08122907WA0140001427003022004000
B1810443340403N08122948WA0140801435003025004000
B1810463340417N08122993WA0141801443003011004000
B1810483340412N08123038WA0142401452003002004000
B1810503340393N08123073WA0142901457003000004000
B1810523340364N08123096WA0143201461003000004000
B1810543340332N08123099WA0143601464003000004000
B1810563340305N08123081WA0144101469003000004000
B1810583340293N08123045WA0144601474003018004000
B1811003340300N08123004WA0145101479003050004000
B1811023340322N08122969WA0145301483003071004000
B1811043340355N08122948WA0145501486003069004000
B1811063340394N08122940WA0146101489003058004000
B1811083340434N08122943WA0146301493003034004000
B1811103340472N08122959WA0146901497003011004000
B1811123340500N08122993WA0147601504003002004000
B1811143340509N08123036WA0148201512003000004000
B1811163340495N08123070WA0148701517003000004000
B1811183340467N08123082WA0149101520003000004000
B1811203340440N08123067WA0149301523003000004000
B1811223340430N08123032WA0149501524003000004000
F1811223017010807281413190321
B1811243340443N08122994WA0149801526003000004000
F1811243017010807281413192221
B1811263340476N08122972WA0150301530003000004000
F18112630170108072814131921
F1811273017010807281413192221
B1811283340515N08122975WA0151201537003002004000
B1811303340547N08123001WA0151901544003000004000
F181131301701080728141319220321
B1811323340563N08123041WA0152401550003000004000
B1811343340560N08123083WA0152801555003000004000
B1811363340541N08123113WA0153201559003000004000
B1811383340513N08123120WA0153701564003000004000
B1811403340488N08123105WA0154101568003000004000
B1811423340477N08123073WA0154301571003000004000
F1811423017010807281413190321
B1811443340483N08123035WA0154401573003000004000
F1811453017010807281413192221
B1811463340509N08123004WA0154701575003018004000
B1811483340546N08122996WA0155101578003050004000
B1811503340579N08123017WA0155501582003051004000
F181151301701080728141319220321
B1811523340593N08123057WA0155601585003037004000
B1811543340584N08123096WA0156001589003025004000
B1811563340558N08123115WA0156301592003009004000
B1811583340529N08123107WA0156401594003002004000
B1812003340513N08123075WA0156401594003000004000
F1812013017010807281413190321
B1812023340519N08123033WA0156301594003030004000
F181203301701080728141319220321
B1812043340546N08122999WA0156601594003057004000
F1812043017010807281413192221
B1812063340586N08122984WA0157201598003053004000
B1812083340627N08122992WA0157501603003065004000
B1812103340660N08123021WA0158001607003062004000
B1812123340677N08123065WA0158301611003036004000
F181212301701080728141319220321
B1812143340674N08123111WA0158501615003020004000
B1812163340654N08123144WA0158901618003009004000
B1812183340624N08123159WA0159301622003002004000
B1812203340593N08123154WA0159601624003004004000
B1812223340570N08123128WA0160101628003009004000
B1812243340561N08123090WA0160101631003009004000
F1812243017010807281413190321
B1812263340571N08123048WA0160101632003013004000
B1812283340599N08123014WA0159701631003053004000
F18122830170108072814131921
B1812303340639N08122997WA0159801629003090004000
F1812313017010807281413192221
B1812323340682N08123000WA0160201631003111004000
B1812343340720N08123023WA0160601635003135004000
F181235301701080728141319220321
B1812363340747N08123061WA0161101641003109004000
B1812383340758N08123107WA0161401645003062004000
B1812403340753N08123153WA0161701649003036004000
B1812423340733N08123188WA0162001652003022004000
B1812443340704N08123206WA0162301655003022004000
B1812463340674N08123202WA0162801658003043004000
B1812483340653N08123177WA0163301663003050004000
B1812503340645N08123140WA0163201666003055004000
F1812503017010807281413190321
B1812523340654N08123100WA0163301666003074004000
B1812543340677N08123065WA0163201666003088004000
F1812553017010807281413192221
B1812563340711N08123040WA0163101664003123004000
B1812583340752N08123029WA0163201664003163004000
B1813003340793N08123034WA0163801668003149004000
F181300301701080728141319220321
B1813023340833N08123051WA0164001672003092004000
B1813043340869N08123081WA0164401676003048004000
B1813063340896N08123120WA0165001680003025004000
B1813083340905N08123166WA0165801689003025004000
B1813103340892N08123203WA0166301697003022004000
B1813123340868N08123223WA0166701701003022004000
B1813143340842N08123223WA0166401700003064004000
B1813163340820N08123205WA0166201697003123004000
B1813183340806N08123173WA0166001695003142004000
B1813203340804N08123133WA0166301696003118004000
B1813223340816N08123091WA0166801699003081004000
B1813243340844N08123057WA0167601707003048004000
F1813253017010807281413192221
B1813263340882N08123038WA0168301714003032004000
F18132730170108072814131921
B1813283340924N08123038WA0169001722003018004000
F1813283017010807281413192221
B1813303340962N08123058WA0169601729003004004000
F181331301701080728141319220321
B1813323340990N08123094WA0169801733003000004000
B1813343341001N08123138WA0170001735003000004000
B1813363340994N08123182WA0170101736003002004000
B1813383340973N08123212WA0170101736003000004000
B1813403340944N08123227WA0169901735003011004000
B1813423340914N08123223WA0169901733003046004000
B1813443340890N08123200WA0170301734003074004000
B1813463340876N08123166WA0170901739003097004000
F1813473017010807281413190321
B1813483340876N08123126WA0171801747003116004000
B1813503340889N08123089WA0171901753003116004000
B1813523340915N08123057WA0171401752003100004000
F181353301701080728141319220321
B1813543340951N08123035WA0171401748003069004000
F1813543017010807281413190321
F181355301701080728141319220321
B1813563340993N08123028WA0171701750003041004000
B1813583341036N08123037WA0172101752003022004000
B1814003341073N08123065WA0172201755003006004000
B1814023341098N08123106WA0172601759003016004000
B1814043341109N08123153WA0172901763003041004000
B1814063341105N08123199WA0173001765003048004000
B1814083341090N08123239WA0172801765003048004000
F1814083017010807281413192203
B1814103341065N08123267WA0172401762003050004000
F1814103017010807281419220321
B1814123341035N08123280WA0172601759003062004000
F181412301701080728141319220321
B1814143341005N08123274WA0172701760003078004000
B1814163340981N08123252WA0173101763003116004000
B1814183340969N08123219WA0173301767003158004000
B1814203340969N08123180WA0173201768003174004000
B1814223340978N08123140WA0173201768003172004000
B1814243340991N08123099WA0173301767003135004000
B1814263341011N08123059WA0173401768003093004000
B1814283341038N08123024WA0173801771003074004000
F1814293017010807281413192221
B1814303341075N08123004WA0174301775003088004000
B1814323341115N08123002WA0174401778003116004000
B1814343341153N08123020WA0174801780003097004000
F181434301701080728141319222146
B1814363341184N08123052WA0174601781003060004000
F181436301701080728141319220321
B1814383341204N08123093WA0174801783003041004000
B1814403341217N08123138WA0174801785003046004000
B1814423341222N08123185WA0174701785003085004000
B1814443341223N08123231WA0174701783003114004000
B1814463341222N08123277WA0174201781003130004000
F1814463017010807281413192203
B1814483341220N08123322WA0174001777003146004000
B1814503341216N08123368WA0173601773003153004000
B1814523341212N08123413WA0173301770003142004000
B1814543341206N08123459WA0172901765003135004000
B1814563341199N08123505WA0172501761003142004000
B1814583341192N08123551WA0172201756003113004000
B1815003341184N08123597WA0171601751003071004000
B1815023341176N08123643WA0171101746003041004000
B1815043341168N08123690WA0170601741003032004000
F181505301701080728141319220321
B1815063341160N08123737WA0170101734003037004000
B1815083341152N08123785WA0169401728003034004000
B1815103341142N08123833WA0168901721003025004000
B1815123341132N08123882WA0168301716003022004000
B1815143341122N08123930WA0167901711003024004000
B1815163341112N08123979WA0167501706003018004000
B1815183341100N08124028WA0166901702003020004000
B1815203341089N08124077WA0166701698003020004000
B1815223341077N08124125WA0166201694003006004000
B1815243341065N08124175WA0166001690003000004000
B1815263341055N08124224WA0166001689003000004000
B1815283341046N08124274WA0165901689003000004000
B1815303341037N08124323WA0166001688003000004000
B1815323341028N08124372WA0165801688003000004000
B1815343341019N08124421WA0165801687003002004000
B1815363341010N08124469WA0165501686003004004000
B1815383341001N08124517WA0165001681003000004000
B1815403340993N08124566WA0164401676003000004000
B1815423340986N08124616WA0164401673003000004000
B1815443340978N08124666WA0164401672003000004000
B1815463340970N08124714WA0164501673003002004000
B1815483340964N08124762WA0164401674003015004000
B1815503340958N08124810WA0164301673003027004000
B1815523340952N08124857WA0164401672003027004000
B1815543340945N08124904WA0164701674003036004000
B1815563340939N08124949WA0164901677003053004000
B1815583340934N08124994WA0164801677003053004000
B1816003340928N08125039WA0164801676003043004000
F1816003017010807281413192203
B1816023340921N08125082WA0164601675003048004000
F181602301701080728141319220321
B1816043340914N08125127WA0164501674003064004000
F1816053017010807281413192203
B1816063340906N08125171WA0164501673003078004000
B1816083340898N08125215WA0164401673003067004000
B1816103340890N08125259WA0164301672003036004000
B1816123340881N08125304WA0163801669003027004000
F181613301701080728141319220321
B1816143340874N08125349WA0163401665003032004000
B1816163340866N08125396WA0162801659003018004000
B1816183340859N08125443WA0162101652003011004000
B1816203340852N08125492WA0161501646003022004000
B1816223340845N08125542WA0161001641003018004000
B1816243340838N08125592WA0160701637003004004000
B1816263340832N08125643WA0160101632003000004000
B1816283340826N08125695WA0159701627003000004000
F1816293017010807281413192203
B1816303340822N08125748WA0159201623003000004000
B1816323340818N08125801WA0159301621003000004000
B1816343340814N08125854WA0159301621003000004000
B1816363340811N08125906WA0159101620003000004000
B1816383340808N08125959WA0159101619003000004000
B1816403340805N08126011WA0159001619003004004000
B1816423340802N08126062WA0158901618003011004000
B1816443340799N08126113WA0159001617003002004000
B1816463340795N08126163WA0159101618003011004000
B1816483340792N08126213WA0158801618003020004000
B1816503340788N08126263WA0158401614003022004000
B1816523340786N08126313WA0157801608003029004000
B1816543340784N08126363WA0157301602003022004000
B1816563340781N08126414WA0156901597003011004000
B1816583340779N08126465WA0156701595003004004000
B1817003340777N08126516WA0156701593003004004000
B1817023340776N08126566WA0156401592003009004000
B1817043340774N08126617WA0156301590003018004000
B1817063340772N08126667WA0156001588003041004000
F18170730170807281413192203
B1817083340770N08126717WA0155701586003050004000
B1817103340769N08126767WA0155601584003034004000
F1817113017080728141319220321
B1817123340767N08126817WA0155401581003013004000
B1817143340765N08126867WA0154901579003006004000
B1817163340762N08126918WA0154401574003004004000
F181716301701080728141319220321
B1817183340757N08126968WA0153701566003009004000
B1817203340751N08127020WA0153401561003015004000
B1817223340745N08127072WA0153301559003009004000
B1817243340739N08127123WA0153201557003002004000
B1817263340733N08127175WA0153401558003000004000
B1817283340730N08127226WA0153601561003000004000
F1817293017010807281413192203
B1817303340726N08127276WA0153301562003000004000
F18173030170807281413192203
F181731301701080728141319220321
B1817323340723N08127326WA0152301555003002004000
B1817343340719N08127379WA0151501544003018004000
F1817343017080728141319220321
B1817363340715N08127433WA0151301540003013004000
F18173630170807281413192203
F1817373017010807281413192203
B1817383340711N08127487WA0151101538003004004000
F181739301701080728141319220321
B1817403340708N08127541WA0150801535003020004000
F1817403017010807281413192203
F181741301701080728141319220321
B1817423340704N08127595WA0150801533003027004000
F1817423017010807281413192203
B1817443340700N08127650WA0151001535003022004000
B1817463340697N08127703WA0151001536003022004000
B1817483340694N08127756WA0151101536003009004000
B1817503340691N08127808WA0151001536003000004000
B1817523340688N08127860WA0150801535003000004000
B1817543340684N08127913WA0150501533003006004000
B1817563340681N08127966WA0150201529003020004000
B1817583340677N08128019WA0150101527003025004000
B1818003340673N08128072WA0150101527003013004000
B1818023340670N08128123WA0150301529003009004000
B1818043340667N08128174WA0150401531003020004000
B1818063340664N08128223WA0150501531003032004000
B1818083340661N08128272WA0150301530003034004000
B1818103340657N08128320WA0149901528003029004000
B1818123340654N08128368WA0149801525003022004000
F181813301701080728141319220321
B1818143340650N08128415WA0149801524003027004000
B1818163340646N08128461WA0149701523003050004000
B1818183340642N08128507WA0149301522003064004000
B1818203340639N08128554WA0148901517003048004000
B1818223340636N08128602WA0148601513003022004000
B1818243340633N08128651WA0148701513003022004000
F1818243017010807281413192203
B1818263340631N08128699WA0148801514003022004000
B1818283340627N08128747WA0148901515003009004000
B1818303340624N08128793WA0149001516003025004000
B1818323340619N08128839WA0148901516003048004000
B1818343340614N08128885WA0148801515003048004000
B1818363340610N08128930WA0148301510003041004000
B1818383340606N08128977WA0148401510003034004000
B1818403340602N08129025WA0148501512003027004000
B1818423340599N08129072WA0148701514003013004000
B1818443340596N08129119WA0148901516003004004000
B1818463340592N08129166WA0148901516003018004000
B1818483340589N08129211WA0149301517003039004000
B1818503340585N08129256WA0149401521003046004000
B1818523340580N08129301WA0149601523003032004000
B1818543340575N08129344WA0149501522003020004000
F181855301701080728141319220321
B1818563340570N08129386WA0149401522003058004000
B1818583340564N08129428WA0149501521003107004000
B1819003340558N08129468WA0149501522003130004000
B1819023340553N08129508WA0149601523003156004000
B1819043340548N08129546WA0149501523003181004000
B1819063340542N08129585WA0149101519003200004000
B1819083340537N08129625WA0148701515003211004000
B1819103340531N08129665WA0148301511003214004000
F1819113017010807281413192203
B1819123340524N08129706WA0148001507003211004000
B1819143340518N08129747WA0147701505003205004000
B1819163340511N08129789WA0147401502003193004000
F181916301701080728141319220321
B1819183340504N08129831WA0147201499003162004000
B1819203340497N08129873WA0147101497003109004000
B1819223340491N08129916WA0146901496003074004000
B1819243340486N08129957WA0147001495003053004000
B1819263340481N08129998WA0147101496003058004000
B1819283340476N08130037WA0147001496003083004000
B1819303340471N08130076WA0146901495003095004000
B1819323340466N08130115WA0146501492003125004000
B1819343340463N08130156WA0145801488003167004000
B1819363340461N08130198WA0145001480003200004000
B1819383340459N08130243WA0144601474003209004000
F1819383017010807281413192203
B1819403340458N08130288WA0144501472003188004000
B1819423340456N08130333WA0144301470003170004000
B1819443340456N08130378WA0144201468003168004000
F181945301701080728141319220321
B1819463340455N08130422WA0144201467003160004000
B1819483340455N08130466WA0144101467003149004000
B1819503340455N08130509WA0143901466003153004000
B1819523340455N08130552WA0144001465003172004000
B1819543340455N08130593WA0144101466003155004000
B1819563340454N08130634WA0144001467003097004000
B1819583340454N08130675WA0143601465003095004000
B1820003340454N08130717WA0143001459003146004000
B1820023340453N08130761WA0142301452003167004000
B1820043340450N08130806WA0141801446003130004000
B1820063340446N08130852WA0141101440003079004000
B1820083340441N08130899WA0140901435003076004000
B1820103340435N08130946WA0141001434003076004000
F1820103017010807281413192203
B1820123340428N08130992WA0140901435003057004000
F182013301701080728141319220321
B1820143340421N08131037WA0140301431003067004000
B1820163340414N08131084WA0139501425003065004000
B1820183340407N08131133WA0139101418003034004000
B1820203340400N08131184WA0138501413003015004000
B1820223340393N08131236WA0138001409003018004000
B1820243340386N08131289WA0137801405003020004000
B1820263340379N08131343WA0137901405003018004000
B1820283340372N08131397WA0137701404003037004000
F1820293017010807281413192203
B1820303340365N08131450WA0137701403003044004000
B1820323340358N08131503WA0137601403003032004000
B1820343340352N08131555WA0137801403003027004000
B1820363340346N08131607WA0137501402003020004000
B1820383340340N08131659WA0137301400003020004000
B1820403340333N08131710WA0137201398003020004000
B1820423340327N08131761WA0137101397003009004000
B1820443340321N08131811WA0136801395003002004000
F182045301701080728141319220321
B1820463340314N08131861WA0136101391003000004000
B1820483340307N08131912WA0135401384003000004000
B1820503340299N08131964WA0134601376003000004000
B1820523340290N08132018WA0133901369003000004000
B1820543340280N08132073WA0133701364003002004000
B1820563340270N08132127WA0133901363003016004000
B1820583340259N08132181WA0134101366003029004000
B1821003340249N08132233WA0134301368003022004000
B1821023340239N08132284WA0134601370003009004000
F1821023017010807281413192203
B1821043340229N08132333WA0134601371003002004000
B1821063340219N08132380WA0134201370003000004000
F182107301701080728141319220321
B1821083340208N08132428WA0133601365003000004000
B1821103340198N08132477WA0133001359003009004000
B1821123340189N08132528WA0132701354003029004000
B1821143340180N08132580WA0132501351003039004000
B1821163340170N08132632WA0132901352003043004000
F1821163017010807281413192203
B1821183340162N08132684WA0133601358003036004000
F182119301701080728141319220321
B1821203340153N08132733WA0134201365003034004000
B1821223340145N08132781WA0134801371003048004000
B1821243340138N08132827WA0135201377003048004000
B1821263340132N08132872WA0135701381003050004000
B1821283340126N08132916WA0136001384003046004000
B1821303340120N08132957WA0136001386003027004000
B1821323340117N08132999WA0135701385003029004000
B1821343340121N08133043WA0135501381003055004000
B1821363340138N08133086WA0135301380003081004000
B1821383340169N08133118WA0135001377003081004000
B1821403340212N08133135WA0134801373003072004000
B1821423340257N08133135WA0134301368003093004000
B1821443340302N08133124WA0133301361003114004000
B1821463340348N08133109WA0132301352003125004000
B1821483340396N08133098WA0131801344003144004000
B1821503340446N08133093WA0131701342003144004000
B1821523340496N08133094WA0131401341003146004000
B1821543340547N08133100WA0131101338003144004000
B1821563340598N08133108WA0130601335003114004000
B1821583340649N08133117WA0130401332003069004000
B1822003340700N08133128WA0130101329003036004000
B1822023340751N08133142WA0129701325003015004000
B1822043340802N08133157WA0129501322003002004000
B1822063340850N08133180WA0129401321003000004000
B1822083340891N08133213WA0129201320003000004000
B1822103340919N08133260WA0128801318003009004000
B1822123340936N08133312WA0127801310003029004000
B1822143340940N08133366WA0127001300003041004000
B1822163340932N08133419WA0126001291003048004000
B1822183340916N08133470WA0125101281003041004000
B1822203340896N08133520WA0124301272003027004000
B1822223340875N08133570WA0123901265003018004000
B1822243340854N08133621WA0123501260003013004000
B1822263340835N08133673WA0123201257003020004000
B1822283340818N08133726WA0123001254003032004000
B1822303340802N08133780WA0123301256003048004000
B1822323340787N08133832WA0123701260003074004000
F1822333017010807281413192203
B1822343340772N08133883WA0124101264003079004000
B1822363340758N08133933WA0124201266003053004000
F18223630170807281413192203
F1822373017080728141319220321
B1822383340745N08133982WA0124101265003029004000
B1822403340731N08134030WA0123801263003015004000
F182241301701080728141319220321
B1822423340717N08134077WA0123601260003004004000
B1822443340702N08134124WA0123201258003000004000
B1822463340688N08134172WA0123101256003000004000
B1822483340674N08134219WA0123101254003000004000
F1822483017080728141319220321
B1822503340659N08134267WA0123301255003006004000
B1822523340645N08134313WA0123301257003022004000
B1822543340632N08134360WA0123301257003027004000
F182255301701080728141319220321
B1822563340617N08134405WA0122301252003011004000
B1822583340602N08134452WA0121601243003000004000
B1823003340586N08134499WA0121301237003000004000
B1823023340569N08134546WA0120701233003000004000
B1823043340550N08134592WA0120201228003000004000
B1823063340530N08134637WA0119901223003000004000
B1823083340509N08134682WA0119401219003000004000
B1823103340487N08134726WA0118901213003000004000
B1823123340466N08134770WA0118601209003000004000
B1823143340444N08134814WA0118401206003000004000
B1823163340421N08134856WA0118401204003000004000
B1823183340399N08134898WA0118601206003011004000
B1823203340376N08134937WA0118901209003020004000
B1823223340354N08134977WA0118801210003009004000
B1823243340333N08135017WA0118901211003009004000
B1823263340313N08135058WA0118801210003011004000
B1823283340293N08135100WA0119101210003009004000
B1823303340275N08135142WA0119501215003011004000
B1823323340258N08135183WA0120001220003018004000
B1823343340241N08135222WA0120501225003029004000
B1823363340225N08135261WA0120301227003046004000
B1823383340209N08135299WA0120301226003057004000
B1823403340194N08135337WA0120201225003043004000
B1823423340179N08135374WA0119801222003029004000
B1823443340166N08135413WA0119601219003048004000
F1823453017080728141319220321
B1823463340153N08135453WA0119401218003076004000
B1823483340142N08135493WA0118901214003064004000
F182348301701080728141319220321
B1823503340128N08135534WA0118301208003057004000
B1823523340113N08135574WA0117801203003086004000
B1823543340096N08135615WA0117301197003107004000
B1823563340079N08135657WA0117101194003093004000
B1823583340060N08135698WA0117101191003067004000
F1823583017080728141319220321
F182359301701080728141319220321
B1824003340041N08135739WA0117101192003046004000
B1824023340022N08135780WA0117101193003027004000
B1824043340005N08135822WA0117301194003030004000
B1824063339990N08135865WA0117301196003037004000
B1824083339977N08135909WA0117701197003039004000
B1824103339966N08135953WA0118101201003039004000
F182410301708072814131922032146
B1824123339959N08135998WA0118901207003041004000
F1824123017080728141319220346
B1824143339954N08136043WA0119201212003034004000
F182415301701080728141319220346
B1824163339951N08136088WA0119501216003018004000
F182416301701080728141319220321
B1824183339953N08136133WA0120001220003013004000
B1824203339966N08136177WA0120801227003020004000
B1824223339994N08136211WA0121301233003027004000
B1824243340032N08136227WA0121501236003036004000
B1824263340071N08136220WA0121601237003053004000
B1824283340102N08136195WA0122001239003081004000
B1824303340118N08136160WA0122101241003102004000
B1824323340120N08136125WA0121901239003088004000
F1824323017010807281413192221
B1824343340109N08136094WA0121601236003097004000
F182434301701080728141319220321
B1824363340088N08136072WA0121601235003135004000
B1824383340061N08136062WA0121501235003149004000
B1824403340033N08136065WA0121601236003151004000
B1824423340007N08136081WA0121701237003132004000
B1824443339986N08136109WA0121401236003093004000
B1824463339968N08136145WA0120901233003055004000
B1824483339954N08136184WA0120801230003050004000
B1824503339941N08136227WA0120501227003074004000
B1824523339931N08136272WA0120001225003086004000
B1824543339924N08136319WA0119901221003088004000
B1824563339920N08136368WA0119901221003090004000
B1824583339916N08136418WA0120001223003097004000
B1825003339912N08136468WA0119801222003088004000
B1825023339908N08136517WA0118701215003060004000
B1825043339904N08136567WA0118001207003043004000
B1825063339900N08136619WA0117301200003034004000
B1825083339896N08136672WA0116701194003024004000
B1825103339892N08136725WA0116301188003015004000
B1825123339886N08136779WA0116001185003011004000
B1825143339880N08136832WA0115801182003034004000
B1825163339873N08136884WA0115501180003048004000
B1825183339865N08136936WA0114901175003032004000
B1825203339857N08136987WA0114601171003015004000
B1825223339847N08137037WA0114401167003004004000
B1825243339835N08137086WA0114601167003000004000
B1825263339822N08137134WA0114901169003000004000
B1825283339810N08137181WA0114801171003006004000
B1825303339797N08137228WA0114701169003013004000
B1825323339785N08137274WA0114601168003009004000
B1825343339772N08137320WA0114501166003000004000
F1825353017010807281413192203
B1825363339762N08137367WA0114801167003000004000
B1825383339753N08137414WA0115401172003020004000
B1825403339746N08137461WA0115901179003048004000
B1825423339741N08137508WA0116301183003044004000
B1825443339736N08137554WA0116601187003027004000
B1825463339734N08137600WA0117001190003020004000
B1825483339734N08137647WA0117701195003022004000
F182548301701080728141319220321
B1825503339741N08137692WA0117901201003022004000
B1825523339750N08137738WA0118201202003018004000
B1825543339750N08137781WA0118701208003020004000
B1825563339735N08137811WA0120201217003025004000
B1825583339711N08137812WA0120501227003041004000
B1826003339697N08137787WA0120401229003064004000
B1826023339703N08137751WA0120501228003076004000
B1826043339729N08137723WA0120401228003102004000
F18260430170108072814131921
B1826063339767N08137715WA0120401229003128004000
F182606301701082814131921
F18260730170108281413192221
B1826083339804N08137723WA0120101227003151004000
F182609301701080728141319220321
B1826103339840N08137742WA0119801224003174004000
F1826103017010807281413192221
F182611301701080728141319220321
B1826123339873N08137770WA0119401221003165004000
B1826143339902N08137804WA0119201217003121004000
B1826163339927N08137843WA0119101216003078004000
B1826183339944N08137886WA0119401216003083004000
B1826203339952N08137931WA0119601219003092004000
B1826223339957N08137975WA0119901222003071004000
B1826243339960N08138020WA0120501226003067004000
B1826263339955N08138063WA0120801231003062004000
B1826283339937N08138095WA0121701237003043004000
B1826303339909N08138099WA0122501245003022004000
F1826313017010807281413190321
B1826323339894N08138070WA0123001252003011004000
F182632301701080728141319220321
B1826343339905N08138031WA0123001253003044004000
F18263530170108072814131921
B1826363339938N08138009WA0123001253003083004000
F182637301701072814131921
B1826383339976N08138014WA0123101254003074004000
B1826403340003N08138043WA0122801254003057004000
F18264030170107281413190321
F1826413017010728141319220321
B1826423340005N08138082WA0122601254003069004000
B1826443339984N08138105WA0123101254003093005000
F1826443017010807281419220321
B1826463339957N08138097WA0123701257003116005000
B1826483339945N08138065WA0124101261003104004000
F182649301701080728141319220321
B1826503339956N08138025WA0124001261003069004000
F1826513017010807281413192221
B1826523339989N08138000WA0123301257003074004000
F18265230170108072814131921
B1826543340030N08138004WA0123201254003090004000
F1826543017010728141921
F182655301701072814131921
B1826563340060N08138036WA0123301254003100005000
F1826563017010728141319220321
B1826583340068N08138078WA0123501256003107004000
F182659301701080728141319220321
B1827003340055N08138115WA0123801260003107004000
B1827023340029N08138133WA0124201261003097004000
F1827023017010807281419220321
F182703301701080728141319220321
B1827043340001N08138123WA0124401264003079004000
B1827063339986N08138088WA0125001269003060004000
B1827083339992N08138046WA0125301274003034004000
B1827103340019N08138012WA0125601277003036004000
F18271030170108072814131921
B1827123340058N08138000WA0126201282003062004000
F182713301701072814131921
B1827143340094N08138015WA0126301286003057004000
F18271530170107281413190321
B1827163340112N08138048WA0126401287003046004000
F1827163017010728141319220321
B1827183340103N08138080WA0126201285003076004000
F1827183017010807281419220321
F18271930170108072814192203
B1827203340078N08138088WA0126201285003114004000
F1827203017010807281419220321
B1827223340055N08138068WA0126401285003114004000
B1827243340047N08138031WA0127301290003095004000
F182724301701080728141319220321
B1827263340056N08137990WA0127801298003074004000
B1827283340080N08137957WA0128001304003048004000
F1827283017010807281413192221
F18272930170108072814131921
B1827303340114N08137940WA0127701303003053004000
B1827323340152N08137946WA0127601300003062004000
F182732301701072814131921
B1827343340180N08137976WA0127801300003046004000
F1827353017010728141319220321
B1827363340183N08138016WA0127801301003062004000
F18273730170107281419220321
B1827383340161N08138040WA0127801301003085004000
F1827383017010807281419220321
B1827403340133N08138035WA0127801299003076004000
F18274030170108072814190321
F1827413017010807281419220321
B1827423340116N08138001WA0127501297003067005000
F1827433017010807281413190321
B1827443340124N08137955WA0128201299003074005000
F182744301701080728141319220321
B1827463340157N08137926WA0128501303003083004000
F18274630170108072814131921
B1827483340198N08137925WA0128601305003084004000
F182748301701072814131921
B1827503340229N08137954WA0129801311003072005000
F1827503017010728141319220321
B1827523340235N08137994WA0130401323003055004000
F182752301701080728141319220321
B1827543340219N08138022WA0130901329003051005000
F1827543017010807281419220321
B1827563340194N08138025WA0131101333003039004000
B1827583340174N08138003WA0131001331003020004000
F182759301701080728141319220321
B1828003340174N08137963WA0130801330003009004000
F1828013017010728141319220321
B1828023340198N08137927WA0131001332003015004000
F18280230170107281413192221
F182803301701072814131921
B1828043340235N08137912WA0131001333003050004000
F18280530170108072814131921
B1828063340273N08137922WA0131501335003076004000
F182806301701072814131921
B1828083340303N08137950WA0131901338003057004000
F182808301701080728141319220321
B1828103340321N08137988WA0132101343003027004000
B1828123340324N08138028WA0132301346003029004000
B1828143340312N08138062WA0132401348003048004000
B1828163340287N08138080WA0132101347003048004000
B1828183340258N08138074WA0132001344003036004000
B1828203340238N08138044WA0132001344003029004000
F1828213017010807281413220321
B1828223340234N08138000WA0132501346003045004000
F182822301701080728141319220321
B1828243340250N08137956WA0133301354003069004000
F18282530170107281413192221
B1828263340281N08137925WA0133801362003067004000
B1828283340319N08137912WA0134201367003067004000
B1828303340356N08137920WA0134501371003069004000
B1828323340385N08137946WA0135001373003050004000
F1828323017010807281413192221
F182833301701080728141319220321
B1828343340401N08137982WA0135201377003036004000
B1828363340399N08138018WA0135301379003034004000
B1828383340380N08138041WA0135601382003027004000
B1828403340354N08138045WA0135601382003024004000
B1828423340331N08138028WA0135501379003036004000
B1828443340323N08137991WA0134601374003069004000
B1828463340336N08137949WA0134501370003114004000
F1828473017010807281413192221
B1828483340370N08137921WA0134601371003153004000
F18284830170108072814131921
B1828503340412N08137911WA0134901373003149004000
F1828513017010807281413192221
B1828523340453N08137919WA0135301377003099004000
F182853301701080728141319220321
B1828543340489N08137941WA0135701380003076004000
F1828543017010828141319220321
F182855301701080728141319220321
B1828563340514N08137976WA0136401386003069004000
F1828573017010728141319220321
B1828583340521N08138016WA0136901393003048004000
F182859301701080728141319220321
B1829003340506N08138045WA0137101397003029004000
F1829003017010807281419220321
B1829023340480N08138046WA0137101396003020004000
B1829043340464N08138016WA0137301395003025004000
F182904301701080728141319220321
B1829063340473N08137974WA0138001401003050004000
F18290730170108072814131921
B1829083340504N08137946WA0138201406003055004000
B1829103340543N08137945WA0138701410003029004000
F182911301701072814131921
B1829123340574N08137971WA0139201415003011004000
F182912301701072814190321
F182913301701072814220321
B1829143340585N08138008WA0139501422003000004000
F18291530170107281413220321
B1829163340575N08138040WA0139601424003000004000
F1829163017010807281413220321
F18291730170108072814220321
B1829183340549N08138047WA0139801422003000005000
F1829193017010807281419220321
B1829203340528N08138026WA0139501420003018005000
B1829223340524N08137987WA0140001421003057004000
F182922301701080728141319220321
B1829243340543N08137948WA0140301427003067004000
F1829253017010807281413192221
B1829263340577N08137925WA0140801430003050004000
F18292730170108072814131921
B1829283340617N08137928WA0140801433003048004000
F182928301701072814131921
B1829303340648N08137954WA0141201436003083004000
F1829303017010728141319220321
F18293130170107281413220321
B1829323340665N08137992WA0141401441003083004000
F1829323017010728141319220321
B1829343340665N08138032WA0141501443003046004000
F182935301701080728141319220321
B1829363340651N08138063WA0141501442003031004000
F1829373017010807281419220321
B1829383340623N08138077WA0141501442003018004000
B1829403340596N08138065WA0142101445003006004000
B1829423340581N08138033WA0142401449003004004000
F182942301701080728141319220321
B1829443340588N08137991WA0142601452003030004000
B1829463340615N08137958WA0142801455003057004000
F1829463017010807281413192221
F18294730170108072814132221
B1829483340653N08137942WA0142601455003060004000
F1829483017010807281413192221
B1829503340694N08137951WA0142901454003046004000
F18295030170107281413192221
B1829523340726N08137981WA0143001455003027004000
F1829523017010728141319220321
B1829543340741N08138023WA0143101457003027004000
B1829563340737N08138065WA0143201457003029004000
F182957301701080728141319220321
B1829583340715N08138095WA0143401458003029004000
B1830003340685N08138106WA0143801461003027004000
B1830023340655N08138097WA0144101463003053004000
B1830043340633N08138070WA0143901462003086004000
B1830063340623N08138030WA0144101464003088004000
B1830083340629N08137985WA0144401467003088004000
B1830103340650N08137942WA0144501469003081004000
B1830123340683N08137909WA0144801472003081004000
F1830123017010807281413192221
B1830143340725N08137894WA0145101475003069004000
F18301430170108072814131921
B1830163340767N08137902WA0145501479003039004000
F183017301701072814131921
B1830183340801N08137931WA0145601481003025004000
F1830193017010728141319220321
B1830203340819N08137975WA0145901484003029004000
B1830223340820N08138020WA0145901487003034004000
B1830243340807N08138059WA0145901487003041004000
F183024301701080728141319220321
B1830263340783N08138087WA0145901487003072004000
B1830283340754N08138105WA0146101488003079004000
B1830303340722N08138111WA0146101487003093004000
B1830323340690N08138102WA0146201488003135004000
B1830343340667N08138074WA0146501490003158004000
B1830363340657N08138034WA0146501492003172004000
B1830383340665N08137988WA0146701494003151004000
B1830403340687N08137945WA0146701497003104004000
B1830423340718N08137908WA0146901498003084004000
F1830433017010807281413192221
B1830443340757N08137881WA0147001500003074004000
F183045301701080728141319220321
B1830463340800N08137866WA0147301502003062004000
B1830483340846N08137863WA0147701506003057004000
B1830503340890N08137873WA0147901509003041004000
B1830523340929N08137896WA0148401512003029004000
F1830523017010728141319220321
B1830543340956N08137932WA0149001518003057004000
B1830563340966N08137976WA0149501524003067004000
F183057301701080728141319220321
B1830583340958N08138013WA0150001528003057004000
B1831003340935N08138034WA0150001530003085004000
B1831023340907N08138036WA0150101531003095004000
B1831043340879N08138028WA0150101530003071004000
B1831063340851N08138014WA0150301531003067004000
B1831083340827N08137993WA0150801534003060004000
B1831103340811N08137959WA0151601541003050004000
B1831123340816N08137919WA0152701552003043004000
B1831143340840N08137888WA0153101560003020004000
F18311430170108072814131921
B1831163340875N08137877WA0152801561003011004000
B1831183340910N08137890WA0152201557003034004000
F183118301701072814131921
F18311930170107281413190321
B1831203340932N08137925WA0152101553003072005000
F1831213017010728141319220321
B1831223340935N08137966WA0152301555003104004000
F183123301701080728141319220321
B1831243340921N08138000WA0152701559003095004000
B1831263340896N08138016WA0153201563003055004000
B1831283340869N08138010WA0153701567003039004000
B1831303340853N08137980WA0154101569003034004000
F1831313017010807281413220321
B1831323340855N08137941WA0154301572003027004000
F183132301701080728141319220321
B1831343340875N08137903WA0154501575003011004000
F1831353017010807281413192221
B1831363340910N08137880WA0154801577003000004000
F18313730170108072814131921
B1831383340951N08137879WA0154901580003002004000
F183139301701072814131921
B1831403340984N08137901WA0155101581003004004000
F1831403017010728141319220321
B1831423341001N08137939WA0155101581003023004000
B1831443340997N08137978WA0154901580003039004000
B1831463340976N08138004WA0155101577003027004000
F18314630170107281419220321
B1831483340946N08138001WA0155701580003018004000
F1831493017010807281419220321
B1831503340927N08137971WA0156301585003020004000
F1831503017010728141319220321
B1831523340929N08137928WA0156801591003024004000
F183152301701080728141319220321
F1831533017010728141319220321
B1831543340951N08137891WA0157301598003020004000
F18315530170107281413192221
B1831563340987N08137873WA0157401601003013004000
F1831563017010807281413192221
B1831583341026N08137876WA0157501602003027004000
F18315930170107281413192221
B1832003341058N08137900WA0157601603003048004000
F1832013017010728141319220321
B1832023341076N08137939WA0157701605003053004000
F183203301701080728141319220321
B1832043341079N08137980WA0158101608003043004000
B1832063341071N08138017WA0158001609003022004000
B1832083341050N08138044WA0158101609003015004000
B1832103341020N08138050WA0158501610003020004000
B1832123340992N08138034WA0158901613003018004000
B1832143340977N08138000WA0159501619003022004000
B1832163340980N08137956WA0160201625003032004000
B1832183340999N08137917WA0160301631003020004000
B1832203341032N08137890WA0160401633003004004000
F1832203017010807281413192221
B1832223341071N08137884WA0160601634003000004000
F18322230170108072814131921
B1832243341107N08137901WA0160701636003032004000
F183224301701072814131921
F1832253017010728141319220321
B1832263341129N08137935WA0160701635003072004000
B1832283341135N08137977WA0160601636003079004000
B1832303341126N08138016WA0160501635003060004000
