ACAM4LM
HFDTE200421
HFFXA050
HFPLTPILOT:JASON ARNOLD            
HFGTYGLIDERTYPE:Discus      
HFGIDGLIDERID:N147JA      
HFDTM100GPSDATUM:
HFRFWFIRMWAREVERSION:F2.6
HFRHWHARDWAREVERSION:300 Series Version 2
HFFTYFRTYPE:CAMBRIDGE AERO INSTRUMENTS, 302+
HFGPS:GARMIN,LVS-25,12,18000
HFPRSPRESSALTSENSOR:INTERSEMA, MS5534-AP, 20000
I033638FXA3941ENL4247REX
LCAMSBVER:5FWVER:F26300
C200421175155200421000100
C0000000N00000000WTAKEOFF     
C3334000N08120000W04Start 4   
C3337617N08119733W05Finish    
C0000000N00000000WLANDING     
B1759393337833N08119520WA0011000125000000000000
B1759413337833N08119520WA0011000126000000000000
B1759433337833N08119520WA0011100126000000000000
B1759453337833N08119520WA0011100126000000000000
B1759473337833N08119520WA0011100127000000000000
B1759493337833N08119520WA0011100127000000000000
B1759513337833N08119520WA0011100128000000000000
B1759533337833N08119520WA0011100128000000000000
B1759553337833N08119520WA0011100128000000000000
B1759573337833N08119520WA0011000128000000000000
B1759593337833N08119520WA0011000129000000000000
B1800013337833N08119520WA0011000129000000000000
B1800033337833N08119520WA0011000130000000000000
B1800053337833N08119520WA0011100130000000000000
B1800073337833N08119523WA0011100130000000000000
B1800093337829N08119532WA0011100130000000000000
B1800123337820N08119559WA0010800129000000000000
B1800153337809N08119598WA0010600128000000000000
B1800183337794N08119650WA0010600129000000000000
B1800213337780N08119712WA0010400129000000000000
B1800243337764N08119777WA0010700137000000000000
B1800273337748N08119846WA0011300147000000000000
B1800303337728N08119915WA0012100159000000000000
B1800333337703N08119982WA0013500177000000000000
B1800363337681N08120049WA0015100196000000000000
B1800393337659N08120114WA0016300214000000000000
B1800423337646N08120180WA0018200235000000000000
B1800453337637N08120247WA0020300258000000000000
B1800483337629N08120312WA0022500278000000000000
B1800513337621N08120373WA0024500301000000000000
B1800543337614N08120434WA0026400317000000000000
B1800573337602N08120492WA0028200333000000000000
B1801003337586N08120548WA0030000348000000000000
B1801033337560N08120599WA0031200357000000000000
B1801063337530N08120648WA0031900366000000000000
B1801093337501N08120698WA0032800381000000000000
B1801123337471N08120747WA0034600393000000000000
B1801153337437N08120794WA0035500403000000000000
B1801183337397N08120830WA0036400415000000000000
B1801213337354N08120862WA0037500427000000000000
B1801243337311N08120892WA0038800440000000000000
B1801273337267N08120915WA0040300454000000000000
B1801303337220N08120929WA0041500468000000000000
B1801333337177N08120938WA0043200489000000000000
B1801363337134N08120942WA0045100504000000000000
B1801393337090N08120944WA0046500518000000000000
B1801423337046N08120941WA0048100535000000000000
B1801453337001N08120934WA0049800549000000000000
B1801483336956N08120928WA0051200566000000000000
B1801513336910N08120921WA0052700582000000000000
B1801543336865N08120910WA0053900602000000000000
B1801573336823N08120892WA0056000624000000000000
B1802003336782N08120868WA0058000639000000000000
B1802033336745N08120837WA0059800668000000000000
B1802063336711N08120803WA0062500690000000000000
B1802093336685N08120756WA0064700710000000000000
B1802123336669N08120700WA0066800729000000000000
B1802153336658N08120642WA0069000752000000000000
B1802183336661N08120577WA0071400777000000000000
B1802213336676N08120515WA0073700801000000000000
B1802243336691N08120451WA0075600814000000000000
B1802273336697N08120392WA0076500825000000000000
B1802303336693N08120340WA0077900830000000000000
B1802333336692N08120292WA0078200826000000000000
B1802363336708N08120242WA0077800817000000000000
B1802393336741N08120193WA0076800808000000000000
B1802423336788N08120157WA0076200804000000000000
B1802453336840N08120135WA0075800800000000000000
B1802483336896N08120125WA0075500797000000000000
B1802513336951N08120119WA0075100795000000000000
B1802543337005N08120114WA0074900790000000000000
B1802573337060N08120109WA0074400784000000000000
B1803003337114N08120104WA0073900781000000000000
B1803033337170N08120097WA0073900790000000000000
B1803063337215N08120078WA0075200806000000000000
B1803093337246N08120045WA0076400812000000000000
B1803123337283N08120024WA0076800813000000000000
B1803153337329N08120027WA0077000815000000000000
B1803183337368N08120056WA0077000813000000000000
B1803213337391N08120105WA0076900809000000000000
B1803243337386N08120156WA0076500807000000000000
B1803273337358N08120184WA0076300801000000000000
B1803303337321N08120174WA0075700799000000000000
B1803333337294N08120156WA0076000814000000000000
B1803363337280N08120126WA0077100823000000000000
B1803393337286N08120087WA0077900819000000000000
B1803423337315N08120049WA0077600816000000000000
B1803453337358N08120030WA0077500824000000000000
B1803483337403N08120039WA0078200828000000000000
B1803513337437N08120075WA0078800832000000000000
B1803543337447N08120123WA0078800825000000000000
B1803573337430N08120167WA0078100820000000000000
B1804003337398N08120187WA0077900823000000000000
B1804033337367N08120180WA0078300830000000000000
B1804063337341N08120161WA0078900840000000000000
B1804093337317N08120143WA0079800841000000000000
B1804123337300N08120112WA0079600833000000000000
B1804153337307N08120066WA0079100833000000000000
B1804183337325N08120021WA0079000834000000000000
B1804213337350N08119980WA0079100832000000000000
B1804243337393N08119956WA0079000829000000000000
B1804273337443N08119954WA0078700827000000000000
B1804303337491N08119980WA0078300823000000000000
B1804333337528N08120022WA0078300828000000000000
B1804363337571N08120050WA0079000838000000000000
B1804393337616N08120054WA0079800845000000000000
B1804423337657N08120041WA0080300843000000000000
B1804453337701N08120037WA0080000838000000000000
B1804483337744N08120060WA0079700839000000000000
B1804513337772N08120101WA0079600837000000000000
B1804543337779N08120151WA0079600836000000000000
B1804573337764N08120193WA0079300830000000000000
B1805003337735N08120218WA0078700824000000000000
B1805033337701N08120223WA0078200823000000000000
B1805063337667N08120223WA0078000822000000000000
B1805093337633N08120219WA0077800818000000000000
B1805123337598N08120216WA0077600822000000000000
B1805153337564N08120217WA0078100826000000000000
B1805183337541N08120190WA0078400829000000000000
B1805213337551N08120144WA0078900835000000000000
B1805243337590N08120112WA0079200832000000000000
B1805273337644N08120117WA0078800828000000000000
B1805303337686N08120154WA0078400825000000000000
B1805333337702N08120210WA0078500831000000000000
B1805363337692N08120260WA0078800835000000000000
B1805393337663N08120286WA0079400841000000000000
B1805423337634N08120278WA0080000846000000000000
B1805453337624N08120247WA0080400843000000000000
B1805483337627N08120206WA0080200838000000000000
B1805513337645N08120164WA0079600833000000000000
B1805543337673N08120123WA0079300834000000000000
B1805573337707N08120086WA0079300834000000000000
B1806003337751N08120058WA0079300835000000000000
B1806033337794N08120032WA0079500838000000000000
B1806063337827N08119995WA0079600836000000000000
B1806093337853N08119956WA0079300829000000000000
B1806123337893N08119924WA0078800828000000000000
B1806153337939N08119907WA0078700828000000000000
B1806183337983N08119891WA0078700828000000000000
B1806213338019N08119866WA0078800826000000000000
B1806243338056N08119837WA0078200816000000000000
B1806273338093N08119803WA0077600821000000000000
B1806303338119N08119770WA0078400837000000000000
B1806333338160N08119757WA0079700841000000000000
B1806363338204N08119779WA0079900835000000000000
B1806393338226N08119832WA0079600839000000000000
B1806423338216N08119881WA0079900843000000000000
B1806453338190N08119904WA0080300849000000000000
B1806483338162N08119896WA0080800852000000000000
B1806513338149N08119866WA0081200856000000000000
B1806543338157N08119826WA0081500856000000000000
B1806573338191N08119793WA0081600861000000000000
B1807003338238N08119792WA0082000869000000000000
B1807033338278N08119820WA0082700872000000000000
B1807063338297N08119870WA0083000872000000000000
B1807093338286N08119918WA0083000873000000000000
B1807123338261N08119940WA0083300883000000000000
B1807153338238N08119928WA0084100885000000000000
B1807183338234N08119891WA0084200885000000000000
B1807213338255N08119850WA0084300887000000000000
B1807243338295N08119828WA0085000900000000000000
B1807273338338N08119832WA0086100906000000000000
B1807303338375N08119859WA0086500910000000000000
B1807333338398N08119907WA0086800911000000000000
B1807363338396N08119957WA0086800910000000000000
B1807393338374N08119992WA0086800915000000000000
B1807423338348N08119996WA0087400921000000000000
B1807453338329N08119972WA0087700919000000000000
B1807483338329N08119928WA0087600923000000000000
B1807513338348N08119887WA0088000933000000000000
B1807543338381N08119859WA0089300940000000000000
B1807573338425N08119857WA0089700941000000000000
B1808003338466N08119887WA0089800943000000000000
B1808033338491N08119936WA0090000946000000000000
B1808063338494N08119989WA0090200946000000000000
B1808093338474N08120031WA0090300951000000000000
B1808123338448N08120050WA0090900959000000000000
B1808153338425N08120039WA0091800969000000000000
B1808183338418N08120006WA0092600971000000000000
B1808213338434N08119965WA0092700975000000000000
B1808243338468N08119936WA0093300980000000000000
B1808273338513N08119933WA0093700982000000000000
B1808303338555N08119962WA0093800986000000000000
B1808333338577N08120011WA0094200988000000000000
B1808363338583N08120066WA0094300988000000000000
B1808393338570N08120109WA0094500995000000000000
B1808423338548N08120131WA0095301004000000000000
B1808453338522N08120131WA0095901006000000000000
B1808483338500N08120113WA0096301010000000000000
B1808513338490N08120079WA0096701016000000000000
B1808543338496N08120039WA0097201022000000000000
B1808573338522N08120002WA0098101034000000000000
B1809003338563N08119982WA0098901035000000000000
B1809033338609N08119982WA0099101036000000000000
B1809063338654N08120006WA0099101037000000000000
B1809093338686N08120049WA0099301039000000000000
B1809123338704N08120101WA0099501040000000000000
B1809153338704N08120154WA0099301038000000000000
B1809183338687N08120197WA0099501046000000000000
B1809213338660N08120219WA0100101050000000000000
B1809243338632N08120226WA0100601052000000000000
B1809273338603N08120212WA0100601049000000000000
B1809303338583N08120180WA0100201045000000000000
B1809333338580N08120136WA0100101049000000000000
B1809363338591N08120093WA0100501053000000000000
B1809393338612N08120053WA0100901059000000000000
B1809423338639N08120019WA0101801068000000000000
B1809453338681N08120000WA0102401074000000000000
B1809483338729N08120004WA0102801075000000000000
B1809513338775N08120034WA0102801074000000000000
B1809543338802N08120083WA0102901079000000000000
B1809573338808N08120135WA0103401083000000000000
B1810003338793N08120177WA0103601084000000000000
B1810033338767N08120200WA0103801088000000000000
B1810063338739N08120204WA0104601099000000000000
B1810093338715N08120193WA0105401104000000000000
B1810123338702N08120167WA0106301107000000000000
B1810153338702N08120130WA0106401105000000000000
B1810183338720N08120088WA0106301106000000000000
B1810213338750N08120056WA0106801119000000000000
B1810243338790N08120036WA0107601124000000000000
B1810273338836N08120032WA0108001127000000000000
B1810303338881N08120045WA0108401130000000000000
B1810333338920N08120078WA0108901136000000000000
B1810363338947N08120121WA0109401138000000000000
B1810393338960N08120171WA0109501141000000000000
B1810423338954N08120218WA0109801144000000000000
B1810453338934N08120249WA0110101145000000000000
B1810483338907N08120262WA0110001144000000000000
B1810513338880N08120255WA0110101147000000000000
B1810543338863N08120227WA0110201148000000000000
B1810573338859N08120188WA0110501154000000000000
B1811003338862N08120148WA0111001163000000000000
B1811033338869N08120109WA0112101173000000000000
B1811063338894N08120075WA0112801173000000000000
B1811093338937N08120058WA0112901175000000000000
B1811123338985N08120066WA0113201180000000000000
B1811153339028N08120095WA0113701186000000000000
B1811183339057N08120140WA0114301191000000000000
B1811213339064N08120193WA0114801194000000000000
B1811243339053N08120239WA0115001194000000000000
B1811273339027N08120264WA0115201197000000000000
B1811303338998N08120266WA0115401200000000000000
B1811333338975N08120248WA0115701205000000000000
B1811363338960N08120218WA0116401216000000000000
B1811393338953N08120187WA0117301224000000000000
B1811423338959N08120148WA0118001225000000000000
B1811453338984N08120114WA0118201228000000000000
B1811483339024N08120096WA0118501231000000000000
B1811513339066N08120082WA0119101244000000000000
B1811543339109N08120080WA0119901248000000000000
B1811573339146N08120108WA0120101242000000000000
B1812003339167N08120160WA0119401233000000000000
B1812033339165N08120217WA0118901234000000000000
B1812063339144N08120261WA0118901238000000000000
B1812093339114N08120283WA0119501245000000000000
B1812123339085N08120292WA0120301255000000000000
B1812153339057N08120288WA0121301264000000000000
B1812183339029N08120279WA0122101269000000000000
B1812213339007N08120256WA0122501275000000000000
B1812243338994N08120223WA0123001282000000000000
B1812273339001N08120184WA0123701285000000000000
B1812303339025N08120149WA0124001287000000000000
B1812333339063N08120130WA0124301295000000000000
B1812363339106N08120128WA0124901296000000000000
B1812393339149N08120147WA0125001296000000000000
B1812423339184N08120187WA0125101302000000000000
B1812453339202N08120239WA0125701310000000000000
B1812483339202N08120290WA0126601317000000000000
B1812513339187N08120331WA0127201321000000000000
B1812543339161N08120359WA0127601323000000000000
B1812573339127N08120365WA0127901328000000000000
B1813003339098N08120355WA0128201333000000000000
B1813033339076N08120326WA0128501331000000000000
B1813063339072N08120286WA0128501335000000000000
B1813093339087N08120243WA0128701334000000000000
B1813123339118N08120210WA0128801338000000000000
B1813153339162N08120195WA0129101342000000000000
B1813183339209N08120197WA0129901349000000000000
B1813213339254N08120216WA0130401353000000000000
B1813243339293N08120252WA0131001362000000000000
B1813273339308N08120304WA0131701366000000000000
B1813303339295N08120352WA0132101371000000000000
B1813333339265N08120373WA0132501375000000000000
B1813363339232N08120362WA0132701372000000000000
B1813393339214N08120329WA0132701383000000000000
B1813423339219N08120287WA0133701394000000000000
B1813453339249N08120257WA0134901402000000000000
B1813483339295N08120251WA0135601406000000000000
B1813513339336N08120277WA0136001411000000000000
B1813543339362N08120325WA0136401417000000000000
B1813573339366N08120378WA0137001421000000000000
B1814003339350N08120424WA0137401423000000000000
B1814033339321N08120451WA0137601423000000000000
B1814063339285N08120456WA0137401421000000000000
B1814093339252N08120442WA0137301422000000000000
B1814123339232N08120409WA0137701429000000000000
B1814153339236N08120368WA0138201430000000000000
B1814183339262N08120334WA0138301431000000000000
B1814213339305N08120321WA0138501434000000000000
B1814243339352N08120327WA0138801438000000000000
B1814273339393N08120357WA0139301449000000000000
B1814303339415N08120405WA0140201458000000000000
B1814333339415N08120457WA0141001463000000000000
B1814363339392N08120496WA0141601464000000000000
B1814393339360N08120513WA0141701466000000000000
B1814423339328N08120504WA0142001471000000000000
B1814453339311N08120476WA0142501475000000000000
B1814483339306N08120440WA0142501465000000000000
B1814513339326N08120401WA0141701460000000000000
B1814543339367N08120377WA0141601467000000000000
B1814573339412N08120370WA0142301473000000000000
B1815003339457N08120378WA0142601481000000000000
B1815033339500N08120399WA0143401487000000000000
B1815063339532N08120437WA0144201493000000000000
B1815093339555N08120482WA0144501495000000000000
B1815123339571N08120533WA0144601495000000000000
B1815153339578N08120587WA0144501491000000000000
B1815183339573N08120638WA0144101488000000000000
B1815213339556N08120682WA0143801483000000000000
B1815243339527N08120711WA0143201477000000000000
B1815273339492N08120721WA0142801476000000000000
B1815303339458N08120726WA0142701474000000000000
B1815333339425N08120729WA0142601473000000000000
B1815363339389N08120728WA0142501472000000000000
B1815393339354N08120725WA0142201468000000000000
B1815423339319N08120721WA0141901470000000000000
B1815453339285N08120716WA0141901467000000000000
B1815483339252N08120711WA0141601460000000000000
B1815513339215N08120703WA0140701451000000000000
B1815543339179N08120690WA0139901449000000000000
B1815573339144N08120676WA0139701447000000000000
B1816003339107N08120665WA0139401442000000000000
B1816033339071N08120660WA0138901437000000000000
B1816063339035N08120661WA0138501435000000000000
B1816093338999N08120664WA0138401434000000000000
B1816123338967N08120664WA0138401434000000000000
B1816153338934N08120661WA0138301430000000000000
B1816183338902N08120659WA0137901427000000000000
B1816213338869N08120658WA0137501423000000000000
B1816243338837N08120658WA0137201420000000000000
B1816273338804N08120656WA0136801416000000000000
B1816303338771N08120654WA0136301408000000000000
B1816333338733N08120651WA0135701407000000000000
B1816363338695N08120656WA0135701410000000000000
B1816393338663N08120667WA0135901411000000000000
B1816423338629N08120677WA0135701402000000000000
B1816453338593N08120685WA0134901395000000000000
B1816483338555N08120690WA0134101390000000000000
B1816513338517N08120694WA0133801388000000000000
B1816543338479N08120694WA0133501383000000000000
B1816573338440N08120691WA0133101377000000000000
B1817003338400N08120689WA0132301366000000000000
B1817033338359N08120684WA0131401363000000000000
B1817063338318N08120677WA0131301366000000000000
B1817093338283N08120661WA0131901376000000000000
B1817123338256N08120635WA0132701382000000000000
B1817153338236N08120599WA0133301387000000000000
B1817183338229N08120555WA0133601388000000000000
B1817213338238N08120505WA0133701381000000000000
B1817243338266N08120463WA0133101377000000000000
B1817273338314N08120435WA0133101381000000000000
B1817303338366N08120424WA0133301385000000000000
B1817333338414N08120412WA0133701392000000000000
B1817363338460N08120399WA0134101392000000000000
B1817393338508N08120403WA0134001388000000000000
B1817423338555N08120426WA0133901385000000000000
B1817453338591N08120465WA0133601385000000000000
B1817483338616N08120516WA0133501385000000000000
B1817513338626N08120570WA0133601386000000000000
B1817543338624N08120622WA0133701388000000000000
B1817573338612N08120669WA0133801385000000000000
B1818003338586N08120703WA0133401378000000000000
B1818033338555N08120713WA0133001376000000000000
B1818063338524N08120703WA0132801376000000000000
B1818093338499N08120678WA0132901380000000000000
B1818123338476N08120654WA0133301386000000000000
B1818153338455N08120629WA0134001392000000000000
B1818183338440N08120594WA0134501397000000000000
B1818213338438N08120554WA0134901395000000000000
B1818243338446N08120508WA0134701393000000000000
B1818273338468N08120461WA0134401392000000000000
B1818303338502N08120422WA0134501395000000000000
B1818333338546N08120395WA0134801399000000000000
B1818363338595N08120386WA0135001394000000000000
B1818393338647N08120395WA0134501389000000000000
B1818423338694N08120425WA0134101386000000000000
B1818453338730N08120469WA0133701382000000000000
B1818483338754N08120525WA0133601382000000000000
B1818513338758N08120586WA0133401384000000000000
B1818543338750N08120639WA0133701387000000000000
B1818573338732N08120684WA0134101391000000000000
B1819003338704N08120716WA0134401391000000000000
B1819033338671N08120728WA0134301391000000000000
B1819063338637N08120723WA0134401399000000000000
B1819093338611N08120702WA0135101405000000000000
B1819123338608N08120656WA0135801408000000000000
B1819153338645N08120619WA0136101411000000000000
B1819183338697N08120621WA0136401413000000000000
B1819213338734N08120660WA0136601415000000000000
B1819243338745N08120712WA0136901420000000000000
B1819273338729N08120751WA0137301425000000000000
B1819303338700N08120764WA0137801425000000000000
B1819333338674N08120747WA0137701425000000000000
B1819363338656N08120712WA0137801427000000000000
B1819393338639N08120674WA0137901429000000000000
B1819423338621N08120639WA0137701423000000000000
B1819453338599N08120602WA0136801409000000000000
B1819483338576N08120561WA0136101409000000000000
B1819513338555N08120522WA0136201414000000000000
B1819543338533N08120486WA0136501416000000000000
B1819573338508N08120452WA0136701415000000000000
B1820003338483N08120416WA0136401408000000000000
B1820033338457N08120379WA0136001406000000000000
B1820063338430N08120346WA0135801406000000000000
B1820093338401N08120313WA0135801406000000000000
B1820123338373N08120282WA0136101412000000000000
B1820153338346N08120253WA0136401414000000000000
B1820183338317N08120227WA0136501412000000000000
B1820213338287N08120206WA0136301409000000000000
B1820243338252N08120188WA0136101404000000000000
B1820273338217N08120173WA0135601400000000000000
B1820303338182N08120154WA0135301401000000000000
B1820333338148N08120135WA0135201400000000000000
B1820363338114N08120117WA0135101401000000000000
B1820393338080N08120099WA0135101399000000000000
B1820423338047N08120083WA0135001397000000000000
B1820453338010N08120066WA0134801395000000000000
B1820483337978N08120049WA0134701398000000000000
B1820513337949N08120034WA0135001401000000000000
B1820543337922N08120018WA0135101394000000000000
B1820573337893N08119998WA0134401386000000000000
B1821003337862N08119976WA0134001386000000000000
B1821033337833N08119952WA0133801386000000000000
B1821063337809N08119927WA0134001389000000000000
B1821093337787N08119904WA0134201386000000000000
B1821123337762N08119876WA0133801376000000000000
B1821153337732N08119849WA0132901372000000000000
B1821183337701N08119822WA0132301369000000000000
B1821213337671N08119794WA0132101371000000000000
B1821243337641N08119767WA0132001369000000000000
B1821273337611N08119741WA0131801370000000000000
B1821303337582N08119715WA0132001370000000000000
B1821333337556N08119689WA0132101369000000000000
B1821363337529N08119663WA0131701365000000000000
B1821393337499N08119638WA0131301358000000000000
B1821423337468N08119616WA0130801355000000000000
B1821453337434N08119595WA0130501352000000000000
B1821483337402N08119577WA0130101350000000000000
B1821513337371N08119559WA0130001348000000000000
B1821543337339N08119543WA0129701344000000000000
B1821573337308N08119530WA0129401344000000000000
B1822003337280N08119523WA0129701347000000000000
B1822033337250N08119523WA0129801347000000000000
B1822063337220N08119523WA0129501344000000000000
B1822093337189N08119525WA0129301338000000000000
B1822123337157N08119528WA0128801339000000000000
B1822153337127N08119529WA0128801339000000000000
B1822183337099N08119529WA0129001340000000000000
B1822213337072N08119529WA0129001338000000000000
B1822243337043N08119533WA0128601332000000000000
B1822273337012N08119542WA0128101326000000000000
B1822303336982N08119555WA0127701326000000000000
B1822333336953N08119575WA0127501324000000000000
B1822363336926N08119594WA0127201316000000000000
B1822393336893N08119612WA0126101305000000000000
B1822423336857N08119631WA0125401301000000000000
B1822453336821N08119649WA0125101302000000000000
B1822483336787N08119672WA0125201303000000000000
B1822513336756N08119701WA0125201302000000000000
B1822543336724N08119731WA0125001298000000000000
B1822573336693N08119761WA0124701297000000000000
B1823003336662N08119790WA0124501297000000000000
B1823033336631N08119819WA0124601298000000000000
B1823063336605N08119848WA0124601298000000000000
B1823093336584N08119883WA0124801297000000000000
B1823123336566N08119918WA0124501292000000000000
B1823153336545N08119954WA0124001283000000000000
B1823183336519N08119991WA0123101275000000000000
B1823213336489N08120022WA0122801276000000000000
B1823243336464N08120053WA0122801277000000000000
B1823273336441N08120086WA0122701277000000000000
B1823303336419N08120118WA0122701272000000000000
B1823333336393N08120147WA0122201266000000000000
B1823363336363N08120173WA0121601259000000000000
B1823393336333N08120199WA0121101257000000000000
B1823423336306N08120232WA0120801252000000000000
B1823453336280N08120268WA0120401247000000000000
B1823483336254N08120305WA0119901242000000000000
B1823513336227N08120343WA0119401241000000000000
B1823543336201N08120378WA0119401243000000000000
B1823573336178N08120416WA0119601247000000000000
B1824003336158N08120451WA0120001245000000000000
B1824033336138N08120489WA0119701240000000000000
B1824063336120N08120531WA0119101231000000000000
B1824093336099N08120580WA0118301225000000000000
B1824123336077N08120629WA0117501219000000000000
B1824153336056N08120678WA0117301224000000000000
B1824183336037N08120725WA0117701229000000000000
B1824213336020N08120769WA0118201232000000000000
B1824243336003N08120811WA0118301230000000000000
B1824273335985N08120854WA0118201227000000000000
B1824303335964N08120898WA0117501219000000000000
B1824333335941N08120942WA0117101218000000000000
B1824363335920N08120988WA0116901219000000000000
B1824393335899N08121032WA0117101221000000000000
B1824423335877N08121074WA0117301222000000000000
B1824453335856N08121115WA0117401222000000000000
B1824483335837N08121157WA0117401220000000000000
B1824513335817N08121198WA0117101216000000000000
B1824543335800N08121245WA0116801215000000000000
B1824573335785N08121293WA0116401210000000000000
B1825003335768N08121340WA0116201208000000000000
B1825033335748N08121387WA0116001209000000000000
B1825063335730N08121431WA0116001207000000000000
B1825093335712N08121475WA0115901204000000000000
B1825123335695N08121522WA0115501201000000000000
B1825153335679N08121570WA0115201199000000000000
B1825183335666N08121621WA0114901193000000000000
B1825213335653N08121673WA0114301189000000000000
B1825243335639N08121722WA0114001187000000000000
B1825273335625N08121772WA0113701183000000000000
B1825303335613N08121820WA0113301180000000000000
B1825333335603N08121869WA0113101175000000000000
B1825363335593N08121921WA0112401166000000000000
B1825393335587N08121977WA0111801164000000000000
B1825423335580N08122030WA0111401156000000000000
B1825453335570N08122089WA0110601150000000000000
B1825483335560N08122147WA0110001144000000000000
B1825513335551N08122207WA0109501141000000000000
B1825543335544N08122268WA0109001137000000000000
B1825573335540N08122329WA0108701133000000000000
B1826003335539N08122392WA0108501135000000000000
B1826033335541N08122452WA0108801140000000000000
B1826063335548N08122505WA0109401145000000000000
B1826093335556N08122557WA0109901146000000000000
B1826123335565N08122608WA0109701139000000000000
B1826153335575N08122663WA0109201130000000000000
B1826183335586N08122721WA0108401127000000000000
B1826213335596N08122778WA0108001124000000000000
B1826243335613N08122836WA0107601115000000000000
B1826273335642N08122896WA0106601105000000000000
B1826303335677N08122951WA0106001105000000000000
B1826333335718N08122999WA0105801101000000000000
B1826363335762N08123043WA0105401098000000000000
B1826393335809N08123085WA0104901090000000000000
B1826423335860N08123124WA0104101082000000000000
B1826453335913N08123160WA0103401078000000000000
B1826483335965N08123199WA0103101078000000000000
B1826513336020N08123229WA0103501088000000000000
B1826543336076N08123238WA0104301094000000000000
B1826573336129N08123232WA0105001100000000000000
B1827003336180N08123219WA0105601103000000000000
B1827033336230N08123216WA0105801100000000000000
B1827063336281N08123243WA0105501099000000000000
B1827093336314N08123293WA0105301099000000000000
B1827123336316N08123347WA0105401100000000000000
B1827153336294N08123381WA0105401100000000000000
B1827183336264N08123385WA0105601099000000000000
B1827213336242N08123362WA0105501098000000000000
B1827243336224N08123330WA0105301096000000000000
B1827273336214N08123293WA0105201093000000000000
B1827303336211N08123250WA0104801091000000000000
B1827333336223N08123200WA0104801093000000000000
B1827363336247N08123156WA0105001095000000000000
B1827393336293N08123134WA0105301098000000000000
B1827423336342N08123142WA0105501097000000000000
B1827453336385N08123172WA0105301093000000000000
B1827483336414N08123219WA0105001091000000000000
B1827513336428N08123271WA0104701088000000000000
B1827543336427N08123323WA0104401086000000000000
B1827573336420N08123371WA0104201086000000000000
B1828003336407N08123414WA0104101085000000000000
B1828033336383N08123442WA0104101084000000000000
B1828063336355N08123462WA0104101085000000000000
B1828093336327N08123476WA0104001081000000000000
B1828123336298N08123480WA0103701077000000000000
B1828153336269N08123466WA0103401072000000000000
B1828183336249N08123437WA0102801068000000000000
B1828213336233N08123399WA0102601070000000000000
B1828243336215N08123371WA0102701070000000000000
B1828273336199N08123341WA0102701068000000000000
B1828303336191N08123300WA0102601067000000000000
B1828333336195N08123256WA0102301062000000000000
B1828363336211N08123209WA0101901056000000000000
B1828393336233N08123164WA0101301048000000000000
B1828423336260N08123118WA0100701043000000000000
B1828453336295N08123079WA0100101038000000000000
B1828483336341N08123048WA0099501032000000000000
B1828513336392N08123030WA0099001029000000000000
B1828543336445N08123021WA0098701025000000000000
B1828573336501N08123021WA0098201019000000000000
B1829003336558N08123033WA0097601019000000000000
B1829033336613N08123047WA0097601021000000000000
B1829063336666N08123065WA0097701018000000000000
B1829093336718N08123089WA0097401016000000000000
B1829123336770N08123111WA0097101012000000000000
B1829153336821N08123134WA0096701010000000000000
B1829183336871N08123159WA0096701010000000000000
B1829213336918N08123186WA0096501007000000000000
B1829243336958N08123226WA0096301004000000000000
B1829273336986N08123277WA0096001002000000000000
B1829303337003N08123329WA0095901002000000000000
B1829333337016N08123382WA0095901000000000000000
B1829363337026N08123434WA0095700997000000000000
B1829393337044N08123488WA0095200990000000000000
B1829423337070N08123541WA0094800988000000000000
B1829453337099N08123593WA0094600990000000000000
B1829483337130N08123641WA0094800992000000000000
B1829513337164N08123687WA0095000993000000000000
B1829543337204N08123723WA0095200996000000000000
B1829573337248N08123746WA0095300996000000000000
B1830003337296N08123759WA0095400994000000000000
B1830033337345N08123767WA0095100992000000000000
B1830063337394N08123767WA0094900989000000000000
B1830093337445N08123762WA0094500982000000000000
B1830123337499N08123755WA0093700974000000000000
B1830153337555N08123745WA0092900970000000000000
B1830183337611N08123735WA0092500966000000000000
B1830213337667N08123723WA0092100962000000000000
B1830243337723N08123714WA0091700961000000000000
B1830273337779N08123705WA0091800960000000000000
B1830303337832N08123696WA0091700960000000000000
B1830333337884N08123684WA0091600957000000000000
B1830363337933N08123666WA0091600958000000000000
B1830393337980N08123642WA0091600957000000000000
B1830423338021N08123612WA0091500957000000000000
B1830453338058N08123579WA0091400954000000000000
B1830483338093N08123538WA0090800943000000000000
B1830513338127N08123489WA0089600933000000000000
B1830543338154N08123436WA0088800926000000000000
B1830573338179N08123378WA0088100923000000000000
B1831003338201N08123320WA0087800918000000000000
B1831033338223N08123264WA0087600922000000000000
B1831063338243N08123212WA0088100930000000000000
B1831093338255N08123163WA0088800933000000000000
B1831123338266N08123115WA0089300937000000000000
B1831153338262N08123072WA0089500938000000000000
B1831183338247N08123038WA0089700938000000000000
B1831213338225N08123016WA0089600933000000000000
B1831243338206N08122981WA0089100929000000000000
B1831273338210N08122929WA0088700928000000000000
B1831303338247N08122890WA0089200939000000000000
B1831333338295N08122886WA0090000944000000000000
B1831363338338N08122910WA0090300940000000000000
B1831393338359N08122959WA0089800934000000000000
B1831423338353N08123003WA0089600939000000000000
B1831453338333N08123025WA0089900941000000000000
B1831483338307N08123022WA0089900934000000000000
B1831513338286N08122991WA0089200928000000000000
B1831543338281N08122948WA0089000933000000000000
B1831573338281N08122907WA0089400939000000000000
B1832003338299N08122865WA0089900942000000000000
B1832033338338N08122836WA0090100939000000000000
B1832063338387N08122831WA0089800933000000000000
B1832093338438N08122847WA0089300929000000000000
B1832123338479N08122882WA0088900927000000000000
B1832153338505N08122927WA0088900925000000000000
B1832183338513N08122978WA0088700926000000000000
B1832213338507N08123022WA0088600927000000000000
B1832243338495N08123060WA0088800928000000000000
B1832273338478N08123090WA0089000927000000000000
B1832303338452N08123107WA0088900926000000000000
B1832333338426N08123089WA0088900927000000000000
B1832363338420N08123047WA0089000929000000000000
B1832393338439N08123004WA0089100930000000000000
B1832423338477N08122974WA0089200929000000000000
B1832453338515N08122944WA0089300933000000000000
B1832483338542N08122905WA0089500934000000000000
B1832513338557N08122864WA0089600933000000000000
B1832543338565N08122823WA0089300928000000000000
B1832573338574N08122778WA0088500913000000000000
B1833003338587N08122726WA0087000901000000000000
B1833033338602N08122674WA0086100898000000000000
B1833063338617N08122622WA0085600892000000000000
B1833093338632N08122570WA0084800881000000000000
B1833123338647N08122513WA0083700873000000000000
B1833153338658N08122454WA0083000869000000000000
B1833183338667N08122397WA0082800865000000000000
B1833213338671N08122342WA0082600864000000000000
B1833243338671N08122292WA0082500864000000000000
B1833273338665N08122245WA0082600864000000000000
B1833303338668N08122199WA0082400860000000000000
B1833333338685N08122150WA0082000852000000000000
B1833363338712N08122103WA0081300843000000000000
B1833393338755N08122060WA0080300835000000000000
B1833423338807N08122026WA0079600832000000000000
B1833453338862N08121999WA0079300831000000000000
B1833483338914N08121971WA0079600837000000000000
B1833513338964N08121945WA0079900840000000000000
B1833543339018N08121934WA0080100841000000000000
B1833573339072N08121939WA0080100839000000000000
B1834003339126N08121956WA0080000838000000000000
B1834033339171N08121986WA0080000839000000000000
B1834063339201N08122032WA0080300844000000000000
B1834093339211N08122080WA0080800848000000000000
B1834123339209N08122127WA0081000849000000000000
B1834153339210N08122173WA0081300853000000000000
B1834183339206N08122219WA0081500851000000000000
B1834213339176N08122229WA0081000844000000000000
B1834243339153N08122206WA0080800849000000000000
B1834273339144N08122169WA0081200850000000000000
B1834303339150N08122127WA0081300851000000000000
B1834333339166N08122084WA0081300849000000000000
B1834363339184N08122038WA0081000841000000000000
B1834393339198N08121985WA0080000826000000000000
B1834423339204N08121925WA0078700822000000000000
B1834453339206N08121864WA0078300822000000000000
B1834483339205N08121805WA0078200822000000000000
B1834513339205N08121747WA0078100817000000000000
B1834543339205N08121690WA0077800818000000000000
B1834573339201N08121636WA0077900818000000000000
B1835003339197N08121582WA0077800816000000000000
B1835033339191N08121531WA0078200828000000000000
B1835063339181N08121491WA0079300838000000000000
B1835093339178N08121451WA0080100838000000000000
B1835123339201N08121408WA0080100838000000000000
B1835153339246N08121386WA0080100835000000000000
B1835183339297N08121400WA0079900829000000000000
B1835213339330N08121444WA0079300822000000000000
B1835243339335N08121496WA0078500815000000000000
B1835273339319N08121540WA0077600808000000000000
B1835303339297N08121579WA0077300813000000000000
B1835333339270N08121605WA0077700818000000000000
B1835363339241N08121617WA0078300824000000000000
B1835393339217N08121635WA0078700826000000000000
B1835423339191N08121651WA0078600821000000000000
B1835453339163N08121634WA0078400820000000000000
B1835483339149N08121599WA0078200819000000000000
B1835513339148N08121556WA0078200819000000000000
B1835543339161N08121513WA0078300819000000000000
B1835573339185N08121474WA0078100812000000000000
B1836003339223N08121444WA0077600804000000000000
B1836033339270N08121428WA0076700796000000000000
B1836063339321N08121434WA0075700788000000000000
B1836093339370N08121448WA0075000780000000000000
B1836123339423N08121453WA0074100771000000000000
B1836153339479N08121438WA0073000759000000000000
B1836183339529N08121404WA0072000758000000000000
B1836213339574N08121367WA0071900758000000000000
B1836243339616N08121330WA0071900755000000000000
B1836273339655N08121288WA0071700756000000000000
B1836303339690N08121249WA0071900758000000000000
B1836333339714N08121209WA0072200762000000000000
B1836363339731N08121167WA0072300762000000000000
B1836393339742N08121126WA0072300759000000000000
B1836423339751N08121083WA0072200761000000000000
B1836453339764N08121044WA0072300763000000000000
B1836483339798N08121011WA0072400760000000000000
B1836513339843N08120996WA0072200756000000000000
B1836543339895N08121001WA0071700749000000000000
B1836573339943N08121032WA0071000740000000000000
B1837003339973N08121084WA0070000731000000000000
B1837033339982N08121141WA0069200723000000000000
B1837063339987N08121194WA0068700720000000000000
B1837093339998N08121250WA0068200714000000000000
B1837123340004N08121305WA0067400705000000000000
B1837153339991N08121356WA0066900698000000000000
B1837183339972N08121395WA0066500703000000000000
B1837213339943N08121401WA0066800703000000000000
B1837243339921N08121384WA0066900703000000000000
B1837273339906N08121361WA0066900699000000000000
B1837303339882N08121339WA0066000688000000000000
B1837333339855N08121326WA0065600691000000000000
B1837363339829N08121314WA0065300684000000000000
B1837393339800N08121298WA0064400673000000000000
B1837423339769N08121279WA0063400664000000000000
B1837453339737N08121258WA0062600659000000000000
B1837483339703N08121240WA0062300659000000000000
B1837513339669N08121226WA0062100657000000000000
B1837543339636N08121214WA0061900654000000000000
B1837573339605N08121197WA0061700653000000000000
B1838003339573N08121198WA0061800657000000000000
B1838033339543N08121205WA0062100658000000000000
B1838063339514N08121210WA0062400660000000000000
B1838093339488N08121200WA0062400660000000000000
B1838123339469N08121176WA0062600664000000000000
B1838153339460N08121142WA0062800665000000000000
B1838183339466N08121102WA0062900662000000000000
B1838213339490N08121062WA0062600657000000000000
B1838243339525N08121028WA0062100649000000000000
B1838273339548N08120984WA0061000637000000000000
B1838303339548N08120933WA0059800626000000000000
B1838333339530N08120890WA0059200620000000000000
B1838363339499N08120862WA0058300612000000000000
B1838393339460N08120850WA0057500607000000000000
B1838423339419N08120853WA0056900601000000000000
B1838453339379N08120862WA0056700606000000000000
B1838483339344N08120868WA0057200611000000000000
B1838513339309N08120876WA0057400608000000000000
B1838543339270N08120882WA0057000601000000000000
B1838573339231N08120888WA0056700603000000000000
B1839003339194N08120894WA0057100614000000000000
B1839033339167N08120914WA0058000619000000000000
B1839063339141N08120933WA0058600622000000000000
B1839093339114N08120941WA0058500616000000000000
B1839123339083N08120934WA0058000603000000000000
B1839153339048N08120915WA0056700590000000000000
B1839183339014N08120888WA0055600586000000000000
B1839213338980N08120855WA0055100584000000000000
B1839243338946N08120823WA0054800586000000000000
B1839273338914N08120790WA0055000589000000000000
B1839303338882N08120760WA0055300597000000000000
B1839333338862N08120730WA0056600609000000000000
B1839363338854N08120694WA0057400608000000000000
B1839393338838N08120664WA0057200601000000000000
B1839423338814N08120641WA0056900600000000000000
B1839453338790N08120619WA0056700596000000000000
B1839483338775N08120581WA0056000589000000000000
B1839513338769N08120533WA0055600589000000000000
B1839543338767N08120485WA0055600590000000000000
B1839573338778N08120439WA0055800594000000000000
B1840003338797N08120398WA0056400596000000000000
B1840033338808N08120352WA0056300591000000000000
B1840063338793N08120313WA0055900590000000000000
B1840093338764N08120291WA0055700589000000000000
B1840123338733N08120290WA0055700592000000000000
B1840153338707N08120305WA0056100594000000000000
B1840183338684N08120322WA0056300595000000000000
B1840213338656N08120316WA0056200592000000000000
B1840243338633N08120290WA0056000591000000000000
B1840273338629N08120247WA0056000593000000000000
B1840303338647N08120203WA0056200595000000000000
B1840333338685N08120175WA0056500598000000000000
B1840363338734N08120180WA0056600593000000000000
B1840393338773N08120219WA0055900579000000000000
B1840423338778N08120278WA0054600571000000000000
B1840453338751N08120316WA0053900571000000000000
B1840483338721N08120338WA0053900577000000000000
B1840513338699N08120366WA0054500578000000000000
B1840543338672N08120387WA0054800582000000000000
B1840573338648N08120417WA0055100585000000000000
B1841003338621N08120424WA0055300586000000000000
B1841033338606N08120388WA0055300584000000000000
B1841063338628N08120346WA0055400588000000000000
B1841093338671N08120330WA0055600587000000000000
B1841123338717N08120348WA0055800592000000000000
B1841153338743N08120390WA0056500601000000000000
B1841183338734N08120431WA0056900598000000000000
B1841213338704N08120444WA0056700594000000000000
B1841243338680N08120417WA0056400598000000000000
B1841273338681N08120373WA0056900603000000000000
B1841303338715N08120342WA0057100601000000000000
B1841333338765N08120344WA0057000601000000000000
B1841363338803N08120377WA0057700616000000000000
B1841393338810N08120422WA0058400615000000000000
B1841423338786N08120453WA0058100608000000000000
B1841453338755N08120447WA0057800613000000000000
B1841483338738N08120413WA0058200617000000000000
B1841513338742N08120370WA0058500622000000000000
B1841543338762N08120331WA0059000620000000000000
B1841573338807N08120310WA0058700617000000000000
B1842003338854N08120325WA0058600617000000000000
B1842033338886N08120370WA0058400613000000000000
B1842063338889N08120421WA0058500626000000000000
B1842093338877N08120455WA0059700636000000000000
B1842123338850N08120457WA0060100625000000000000
B1842153338828N08120425WA0059200620000000000000
B1842183338837N08120374WA0059000629000000000000
B1842213338876N08120346WA0059900635000000000000
B1842243338923N08120355WA0060300634000000000000
B1842273338957N08120398WA0060000625000000000000
B1842303338951N08120453WA0059400631000000000000
B1842333338919N08120473WA0059800637000000000000
B1842363338895N08120442WA0060400637000000000000
B1842393338901N08120392WA0060700644000000000000
B1842423338941N08120362WA0061200649000000000000
B1842453338989N08120374WA0061600650000000000000
B1842483339019N08120421WA0061400643000000000000
B1842513339014N08120474WA0061200649000000000000
B1842543338989N08120504WA0061600652000000000000
B1842573338957N08120502WA0062000655000000000000
B1843003338934N08120474WA0062100657000000000000
B1843033338940N08120427WA0062400658000000000000
B1843063338977N08120394WA0062700662000000000000
B1843093339024N08120391WA0063200665000000000000
B1843123339061N08120429WA0063000657000000000000
B1843153339063N08120486WA0062500659000000000000
B1843183339036N08120517WA0062700665000000000000
B1843213339002N08120509WA0063200668000000000000
B1843243338981N08120477WA0063400671000000000000
B1843273338984N08120430WA0063900677000000000000
B1843303339010N08120388WA0064400677000000000000
B1843333339062N08120377WA0064200670000000000000
B1843363339109N08120408WA0064000678000000000000
B1843393339120N08120459WA0064700684000000000000
B1843423339106N08120499WA0065200688000000000000
B1843453339075N08120507WA0065400688000000000000
B1843483339049N08120483WA0065600691000000000000
B1843513339036N08120447WA0066000699000000000000
B1843543339053N08120401WA0066300691000000000000
B1843573339100N08120374WA0065600684000000000000
B1844003339153N08120383WA0065000686000000000000
B1844033339192N08120418WA0065400692000000000000
B1844063339209N08120465WA0065900695000000000000
B1844093339206N08120513WA0066200697000000000000
B1844123339181N08120542WA0066500701000000000000
B1844153339150N08120533WA0066800706000000000000
B1844183339137N08120495WA0067300708000000000000
B1844213339149N08120448WA0067600711000000000000
B1844243339187N08120414WA0067800708000000000000
B1844273339240N08120411WA0067400703000000000000
B1844303339284N08120446WA0067400710000000000000
B1844333339291N08120498WA0067900715000000000000
B1844363339270N08120529WA0068200718000000000000
B1844393339237N08120521WA0068500719000000000000
B1844423339224N08120478WA0068500718000000000000
B1844453339243N08120430WA0068600725000000000000
B1844483339287N08120404WA0069100723000000000000
B1844513339339N08120408WA0069000721000000000000
B1844543339379N08120446WA0068900723000000000000
B1844573339395N08120496WA0069000727000000000000
B1845003339386N08120542WA0069300731000000000000
B1845033339363N08120572WA0069600736000000000000
B1845063339334N08120573WA0070000734000000000000
B1845093339310N08120544WA0070000737000000000000
B1845123339311N08120496WA0070300740000000000000
B1845153339340N08120456WA0070600741000000000000
B1845183339387N08120437WA0070700742000000000000
B1845213339438N08120447WA0070700741000000000000
B1845243339477N08120483WA0070700743000000000000
B1845273339496N08120534WA0070700742000000000000
B1845303339495N08120585WA0070700742000000000000
B1845333339479N08120628WA0070600746000000000000
B1845363339452N08120651WA0071300755000000000000
B1845393339423N08120643WA0072300763000000000000
B1845423339412N08120608WA0072900763000000000000
B1845453339426N08120561WA0072500755000000000000
B1845483339473N08120533WA0071900754000000000000
B1845513339525N08120542WA0072200764000000000000
B1845543339560N08120582WA0073000768000000000000
B1845573339566N08120629WA0073200769000000000000
B1846003339547N08120664WA0073100765000000000000
B1846033339514N08120664WA0072900765000000000000
B1846063339488N08120641WA0072900769000000000000
B1846093339479N08120599WA0073300768000000000000
B1846123339492N08120551WA0073400771000000000000
B1846153339523N08120512WA0073500766000000000000
B1846183339573N08120492WA0073200763000000000000
B1846213339626N08120503WA0073100767000000000000
B1846243339664N08120544WA0073600778000000000000
B1846273339677N08120594WA0074400780000000000000
B1846303339665N08120634WA0074600780000000000000
B1846333339638N08120654WA0074500779000000000000
B1846363339607N08120651WA0074600784000000000000
B1846393339588N08120624WA0075100787000000000000
B1846423339588N08120581WA0075300787000000000000
B1846453339607N08120535WA0075000779000000000000
B1846483339648N08120502WA0074500771000000000000
B1846513339701N08120492WA0073900773000000000000
B1846543339751N08120511WA0074000776000000000000
B1846573339789N08120551WA0074300781000000000000
B1847003339808N08120598WA0074800786000000000000
B1847033339803N08120641WA0075200786000000000000
B1847063339778N08120661WA0075100784000000000000
B1847093339750N08120654WA0075200786000000000000
B1847123339737N08120615WA0075400789000000000000
B1847153339751N08120567WA0075500790000000000000
B1847183339791N08120534WA0076000796000000000000
B1847213339841N08120533WA0076200794000000000000
B1847243339886N08120559WA0076200797000000000000
B1847273339912N08120604WA0076400800000000000000
B1847303339912N08120652WA0076600800000000000000
B1847333339895N08120685WA0076500798000000000000
B1847363339865N08120698WA0076500803000000000000
B1847393339839N08120691WA0077000807000000000000
B1847423339831N08120651WA0077300806000000000000
B1847453339863N08120604WA0077100804000000000000
B1847483339915N08120590WA0077200813000000000000
B1847513339959N08120617WA0078100819000000000000
B1847543339977N08120664WA0078400817000000000000
B1847573339969N08120708WA0078200815000000000000
B1848003339942N08120728WA0078300823000000000000
B1848033339916N08120716WA0078900825000000000000
B1848063339906N08120678WA0079200825000000000000
B1848093339919N08120632WA0078900821000000000000
B1848123339956N08120594WA0078600823000000000000
B1848153340007N08120586WA0079200828000000000000
B1848183340052N08120609WA0079400829000000000000
B1848213340082N08120654WA0079400828000000000000
B1848243340094N08120704WA0079400827000000000000
B1848273340084N08120752WA0079200825000000000000
B1848303340058N08120780WA0079200832000000000000
B1848333340025N08120777WA0079700838000000000000
B1848363340008N08120739WA0080500847000000000000
B1848393340019N08120693WA0081200847000000000000
B1848423340054N08120654WA0081000839000000000000
B1848453340108N08120635WA0080200837000000000000
B1848483340162N08120655WA0080300844000000000000
B1848513340185N08120706WA0081000849000000000000
B1848543340180N08120752WA0081200848000000000000
B1848573340154N08120781WA0081300849000000000000
B1849003340123N08120773WA0081400855000000000000
B1849033340108N08120734WA0082100862000000000000
B1849063340121N08120686WA0082600860000000000000
B1849093340162N08120651WA0082400853000000000000
B1849123340218N08120650WA0081700849000000000000
B1849153340268N08120677WA0081400854000000000000
B1849183340297N08120725WA0081900859000000000000
B1849213340305N08120777WA0082200858000000000000
B1849243340289N08120821WA0082100859000000000000
B1849273340259N08120841WA0082600870000000000000
B1849303340232N08120821WA0083600878000000000000
B1849333340229N08120778WA0084400882000000000000
B1849363340258N08120734WA0084600881000000000000
B1849393340309N08120717WA0084500879000000000000
B1849423340361N08120737WA0084200877000000000000
B1849453340392N08120788WA0084200879000000000000
B1849483340398N08120841WA0084300880000000000000
B1849513340380N08120885WA0084300884000000000000
B1849543340348N08120898WA0084600888000000000000
B1849573340319N08120876WA0085100893000000000000
B1850003340314N08120828WA0085300888000000000000
B1850033340340N08120777WA0084900882000000000000
B1850063340390N08120747WA0084400884000000000000
B1850093340448N08120747WA0084600888000000000000
B1850123340497N08120775WA0085200894000000000000
B1850153340531N08120820WA0085600895000000000000
B1850183340549N08120872WA0085800896000000000000
B1850213340553N08120923WA0086100901000000000000
B1850243340531N08120955WA0086500903000000000000
B1850273340501N08120958WA0086800906000000000000
B1850303340476N08120932WA0087100908000000000000
B1850333340474N08120888WA0087400913000000000000
B1850363340493N08120841WA0087700914000000000000
B1850393340539N08120811WA0088000917000000000000
B1850423340591N08120819WA0088400925000000000000
B1850453340626N08120858WA0088900925000000000000
B1850483340632N08120910WA0088900926000000000000
B1850513340608N08120940WA0089000929000000000000
B1850543340576N08120932WA0089400935000000000000
B1850573340565N08120894WA0089900938000000000000
B1851003340574N08120849WA0090300940000000000000
B1851033340610N08120811WA0090300939000000000000
B1851063340662N08120801WA0090400941000000000000
B1851093340712N08120817WA0090500942000000000000
B1851123340745N08120862WA0090500942000000000000
B1851153340762N08120915WA0090500945000000000000
B1851183340760N08120963WA0090800948000000000000
B1851213340734N08120989WA0091200952000000000000
B1851243340705N08120977WA0091600953000000000000
B1851273340691N08120940WA0091700951000000000000
B1851303340701N08120889WA0091400949000000000000
B1851333340740N08120847WA0091300953000000000000
B1851363340793N08120834WA0091700959000000000000
B1851393340845N08120846WA0092200962000000000000
B1851423340886N08120882WA0092600964000000000000
B1851453340910N08120932WA0092600962000000000000
B1851483340921N08120986WA0092100957000000000000
B1851513340923N08121044WA0091200950000000000000
B1851543340916N08121100WA0091000947000000000000
B1851573340904N08121155WA0090600937000000000000
B1852003340891N08121217WA0089700929000000000000
B1852033340869N08121279WA0088900932000000000000
B1852063340827N08121306WA0089800954000000000000
B1852093340793N08121289WA0092000974000000000000
B1852123340799N08121239WA0093900986000000000000
B1852153340843N08121211WA0094900988000000000000
B1852183340895N08121224WA0095000982000000000000
B1852213340923N08121278WA0094900994000000000000
B1852243340913N08121326WA0095801004000000000000
B1852273340883N08121341WA0096801009000000000000
B1852303340855N08121323WA0097201009000000000000
B1852333340844N08121276WA0097301014000000000000
B1852363340861N08121226WA0097801018000000000000
B1852393340904N08121194WA0098201020000000000000
B1852423340956N08121200WA0098301017000000000000
B1852453340999N08121237WA0098001014000000000000
B1852483341025N08121289WA0098001021000000000000
B1852513341024N08121341WA0098801034000000000000
B1852543340999N08121370WA0099601038000000000000
B1852573340968N08121363WA0100001039000000000000
B1853003340952N08121324WA0100101042000000000000
B1853033340962N08121274WA0100501049000000000000
B1853063340998N08121233WA0101101050000000000000
B1853093341050N08121214WA0101301052000000000000
B1853123341103N08121223WA0101501059000000000000
B1853153341143N08121257WA0102101064000000000000
B1853183341163N08121306WA0102601064000000000000
B1853213341163N08121358WA0102701069000000000000
B1853243341147N08121396WA0103001070000000000000
B1853273341117N08121406WA0103001068000000000000
B1853303341090N08121384WA0103001068000000000000
B1853333341076N08121343WA0103001068000000000000
B1853363341085N08121288WA0103001069000000000000
B1853393341115N08121236WA0102801069000000000000
B1853423341163N08121204WA0103001077000000000000
B1853453341217N08121200WA0103901083000000000000
B1853483341267N08121220WA0104501088000000000000
B1853513341308N08121253WA0104801086000000000000
B1853543341325N08121308WA0104701085000000000000
B1853573341319N08121362WA0104701094000000000000
B1854003341295N08121395WA0105401096000000000000
B1854033341261N08121391WA0105701098000000000000
B1854063341237N08121363WA0106101101000000000000
B1854093341232N08121315WA0106301102000000000000
B1854123341248N08121266WA0106601104000000000000
B1854153341290N08121230WA0106401102000000000000
B1854183341345N08121219WA0106301104000000000000
B1854213341397N08121235WA0106601110000000000000
B1854243341433N08121275WA0107001111000000000000
B1854273341447N08121328WA0107201113000000000000
B1854303341442N08121378WA0107601123000000000000
B1854333341423N08121412WA0108301123000000000000
B1854363341394N08121415WA0108401119000000000000
B1854393341367N08121395WA0108301123000000000000
B1854423341350N08121357WA0108301121000000000000
B1854453341358N08121306WA0107901117000000000000
B1854483341388N08121258WA0107701117000000000000
B1854513341430N08121222WA0107701118000000000000
B1854543341484N08121214WA0107901119000000000000
B1854573341533N08121241WA0108001118000000000000
B1855003341562N08121292WA0108001120000000000000
B1855033341567N08121347WA0108101123000000000000
B1855063341547N08121389WA0108501135000000000000
B1855093341524N08121412WA0109601139000000000000
B1855123341495N08121391WA0110001140000000000000
B1855153341503N08121340WA0110101141000000000000
B1855183341549N08121309WA0110101140000000000000
B1855213341599N08121328WA0110301144000000000000
B1855243341618N08121378WA0110601152000000000000
B1855273341601N08121413WA0111201153000000000000
B1855303341571N08121426WA0111301152000000000000
B1855333341542N08121422WA0111601159000000000000
B1855363341523N08121392WA0111701155000000000000
B1855393341501N08121356WA0110701138000000000000
B1855423341464N08121322WA0109001122000000000000
B1855453341415N08121305WA0107101102000000000000
B1855483341360N08121305WA0105501097000000000000
B1855513341307N08121318WA0104901090000000000000
B1855543341254N08121337WA0104201085000000000000
B1855573341203N08121365WA0103801083000000000000
B1856003341155N08121387WA0103601084000000000000
B1856033341105N08121404WA0104001088000000000000
B1856063341061N08121417WA0105001118000000000000
B1856093341034N08121435WA0107901152000000000000
B1856123341029N08121470WA0111001164000000000000
B1856153341017N08121504WA0112001156000000000000
B1856183340987N08121508WA0111201144000000000000
B1856213340966N08121469WA0110101139000000000000
B1856243340982N08121415WA0109701142000000000000
B1856273341030N08121384WA0110001151000000000000
B1856303341079N08121384WA0111101165000000000000
B1856333341116N08121423WA0112401168000000000000
B1856363341108N08121474WA0112701170000000000000
B1856393341073N08121477WA0112801173000000000000
B1856423341057N08121432WA0113001175000000000000
B1856453341076N08121384WA0113701183000000000000
B1856483341125N08121367WA0114101188000000000000
B1856513341170N08121397WA0114601190000000000000
B1856543341182N08121456WA0114901187000000000000
B1856573341159N08121503WA0114801199000000000000
B1857003341126N08121488WA0115901210000000000000
B1857033341126N08121441WA0116601209000000000000
B1857063341164N08121404WA0116701205000000000000
B1857093341219N08121406WA0116701214000000000000
B1857123341263N08121431WA0117501223000000000000
B1857153341280N08121484WA0118001218000000000000
B1857183341261N08121530WA0117801223000000000000
B1857213341232N08121547WA0118401231000000000000
B1857243341206N08121523WA0118901227000000000000
B1857273341191N08121483WA0118401225000000000000
B1857303341189N08121439WA0118701233000000000000
B1857333341195N08121393WA0119001229000000000000
B1857363341222N08121347WA0118701228000000000000
B1857393341269N08121319WA0119301240000000000000
B1857423341317N08121335WA0120301245000000000000
B1857453341336N08121388WA0120301241000000000000
B1857483341320N08121428WA0120201248000000000000
B1857513341293N08121440WA0120701249000000000000
B1857543341267N08121436WA0120801247000000000000
B1857573341243N08121412WA0120401240000000000000
B1858003341234N08121366WA0119901241000000000000
B1858033341242N08121317WA0120401254000000000000
B1858063341269N08121276WA0121501265000000000000
B1858093341317N08121265WA0122601274000000000000
B1858123341358N08121301WA0123101273000000000000
B1858153341358N08121356WA0123501285000000000000
B1858183341325N08121370WA0124501290000000000000
B1858213341297N08121352WA0125001296000000000000
B1858243341290N08121305WA0125401292000000000000
B1858273341329N08121262WA0125101291000000000000
B1858303341384N08121279WA0125201299000000000000
B1858333341394N08121332WA0126301315000000000000
B1858363341369N08121361WA0127601324000000000000
B1858393341339N08121361WA0128301326000000000000
B1858423341319N08121321WA0128301321000000000000
B1858453341338N08121266WA0128101322000000000000
B1858483341386N08121240WA0128001317000000000000
B1858513341437N08121270WA0127401318000000000000
B1858543341445N08121319WA0128701345000000000000
B1858573341421N08121340WA0130701354000000000000
B1859003341393N08121326WA0131101347000000000000
B1859033341381N08121275WA0130601347000000000000
B1859063341412N08121226WA0130901350000000000000
B1859093341460N08121205WA0130801343000000000000
B1859123341510N08121233WA0130001335000000000000
B1859153341521N08121287WA0130001361000000000000
B1859183341495N08121311WA0132101377000000000000
B1859213341467N08121298WA0133401370000000000000
B1859243341454N08121246WA0132801365000000000000
B1859273341475N08121192WA0132901383000000000000
B1859303341521N08121167WA0134001381000000000000
B1859333341575N08121187WA0133701369000000000000
B1859363341596N08121241WA0133001382000000000000
B1859393341599N08121288WA0134101398000000000000
B1859423341575N08121314WA0135301400000000000000
B1859453341544N08121301WA0135601399000000000000
B1859483341523N08121269WA0135801403000000000000
B1859513341520N08121217WA0135701393000000000000
B1859543341546N08121162WA0135301402000000000000
B1859573341592N08121129WA0135901405000000000000
B1900003341646N08121127WA0136001401000000000000
B1900033341693N08121161WA0135701398000000000000
B1900063341711N08121213WA0135401397000000000000
B1900093341716N08121259WA0135801410000000000000
B1900123341718N08121300WA0136801418000000000000
B1900153341700N08121326WA0137201414000000000000
B1900183341666N08121318WA0136601402000000000000
B1900213341635N08121287WA0135601393000000000000
B1900243341596N08121266WA0134401380000000000000
B1900273341555N08121265WA0134301392000000000000
B1900303341516N08121274WA0134401387000000000000
B1900333341475N08121288WA0133601374000000000000
B1900363341432N08121306WA0132201362000000000000
B1900393341386N08121328WA0131201356000000000000
B1900423341342N08121353WA0130401348000000000000
B1900453341298N08121378WA0130001344000000000000
B1900483341255N08121404WA0129201335000000000000
B1900513341209N08121432WA0128401333000000000000
B1900543341169N08121460WA0128601341000000000000
B1900573341134N08121492WA0129201346000000000000
B1901003341105N08121526WA0129701346000000000000
B1901033341074N08121560WA0129701340000000000000
B1901063341040N08121594WA0128901330000000000000
B1901093341003N08121626WA0128201327000000000000
B1901123340964N08121656WA0127701323000000000000
B1901153340923N08121686WA0127201317000000000000
B1901183340884N08121720WA0126601311000000000000
B1901213340848N08121757WA0126301305000000000000
B1901243340809N08121794WA0125501294000000000000
B1901273340767N08121830WA0124401284000000000000
B1901303340727N08121870WA0123601282000000000000
B1901333340687N08121913WA0123301282000000000000
B1901363340657N08121967WA0123401283000000000000
B1901393340635N08122028WA0123501285000000000000
B1901423340601N08122076WA0123701292000000000000
B1901453340561N08122110WA0124601300000000000000
B1901483340519N08122136WA0125601310000000000000
B1901513340478N08122153WA0126501317000000000000
B1901543340435N08122156WA0127001319000000000000
B1901573340393N08122147WA0127201322000000000000
B1902003340354N08122127WA0127701331000000000000
B1902033340325N08122090WA0128701343000000000000
B1902063340319N08122038WA0129901354000000000000
B1902093340345N08121993WA0131001358000000000000
B1902123340390N08121977WA0131601364000000000000
B1902153340436N08121994WA0132001364000000000000
B1902183340465N08122037WA0132101366000000000000
B1902213340471N08122089WA0132601374000000000000
B1902243340450N08122127WA0133401381000000000000
B1902273340415N08122133WA0134301390000000000000
B1902303340389N08122104WA0134901397000000000000
B1902333340388N08122056WA0135301398000000000000
B1902363340419N08122017WA0135401396000000000000
B1902393340468N08122007WA0135301399000000000000
B1902423340515N08122017WA0135601404000000000000
B1902453340557N08122047WA0136001409000000000000
B1902483340576N08122097WA0136601417000000000000
B1902513340559N08122137WA0137101413000000000000
B1902543340524N08122149WA0136901413000000000000
B1902573340491N08122124WA0136901418000000000000
B1903003340472N08122080WA0137601433000000000000
B1903033340472N08122032WA0138601436000000000000
B1903063340500N08121991WA0139101436000000000000
B1903093340549N08121986WA0138801429000000000000
B1903123340588N08122030WA0137901415000000000000
B1903153340575N08122094WA0136701411000000000000
B1903183340531N08122125WA0136401410000000000000
B1903213340479N08122132WA0136001408000000000000
B1903243340426N08122128WA0135501397000000000000
B1903273340370N08122115WA0134701391000000000000
B1903303340316N08122102WA0134201390000000000000
B1903333340263N08122091WA0134101387000000000000
B1903363340212N08122080WA0133901389000000000000
B1903393340164N08122065WA0134201400000000000000
B1903423340120N08122055WA0135001397000000000000
B1903453340073N08122042WA0134501386000000000000
B1903483340024N08122023WA0133301372000000000000
B1903513339973N08121997WA0132201372000000000000
B1903543339929N08121973WA0132801387000000000000
B1903573339889N08121952WA0133801387000000000000
B1904003339846N08121930WA0133401376000000000000
B1904033339800N08121904WA0132601369000000000000
B1904063339751N08121874WA0131901367000000000000
B1904093339700N08121844WA0131601364000000000000
B1904123339649N08121813WA0131301363000000000000
B1904153339601N08121782WA0131401370000000000000
B1904183339557N08121748WA0131801371000000000000
B1904213339518N08121711WA0132001369000000000000
B1904243339480N08121666WA0131801369000000000000
B1904273339443N08121626WA0132201377000000000000
B1904303339404N08121592WA0132401367000000000000
B1904333339356N08121574WA0131501358000000000000
B1904363339305N08121575WA0130701353000000000000
B1904393339254N08121579WA0130101345000000000000
B1904423339202N08121582WA0129001333000000000000
B1904453339148N08121581WA0128401335000000000000
B1904483339093N08121575WA0128301325000000000000
B1904513339035N08121569WA0127801349000000000000
B1904543339018N08121610WA0131101398000000000000
B1904573339027N08121651WA0134801402000000000000
B1905003339059N08121683WA0135301389000000000000
B1905033339113N08121690WA0134401390000000000000
B1905063339154N08121655WA0134401393000000000000
B1905093339155N08121596WA0134501392000000000000
B1905123339141N08121547WA0134801408000000000000
B1905153339161N08121499WA0135801410000000000000
B1905183339207N08121474WA0136201408000000000000
B1905213339254N08121493WA0136101408000000000000
B1905243339274N08121544WA0136101407000000000000
B1905273339269N08121595WA0136201412000000000000
B1905303339249N08121636WA0136401410000000000000
B1905333339220N08121668WA0136201410000000000000
B1905363339188N08121687WA0136701418000000000000
B1905393339154N08121698WA0137201420000000000000
B1905423339118N08121690WA0137101416000000000000
B1905453339083N08121659WA0136701406000000000000
B1905483339046N08121616WA0135801399000000000000
B1905513339011N08121565WA0134901391000000000000
B1905543338977N08121508WA0134101382000000000000
B1905573338944N08121445WA0133301378000000000000
B1906003338912N08121379WA0132901378000000000000
B1906033338884N08121314WA0132801378000000000000
B1906063338862N08121250WA0133001387000000000000
B1906093338841N08121196WA0134201399000000000000
B1906123338819N08121149WA0134901393000000000000
B1906153338790N08121106WA0134201380000000000000
B1906183338755N08121063WA0132701367000000000000
B1906213338715N08121022WA0131401356000000000000
B1906243338673N08120981WA0131001358000000000000
B1906273338634N08120945WA0131301363000000000000
B1906303338604N08120902WA0131401360000000000000
B1906333338578N08120851WA0131101347000000000000
B1906363338555N08120790WA0129601331000000000000
B1906393338535N08120723WA0128201324000000000000
B1906423338524N08120654WA0127901332000000000000
B1906453338512N08120591WA0128401337000000000000
B1906483338502N08120533WA0128801333000000000000
B1906513338489N08120476WA0128701327000000000000
B1906543338472N08120418WA0127901318000000000000
B1906573338453N08120359WA0127001308000000000000
B1907003338434N08120295WA0126001301000000000000
B1907033338416N08120231WA0125501298000000000000
B1907063338394N08120174WA0125301297000000000000
B1907093338370N08120118WA0125001293000000000000
B1907123338347N08120063WA0124301285000000000000
B1907153338321N08120009WA0124001280000000000000
B1907183338295N08119954WA0123501274000000000000
B1907213338269N08119898WA0122801268000000000000
B1907243338243N08119840WA0122101260000000000000
B1907273338218N08119781WA0121501258000000000000
B1907303338195N08119724WA0121601264000000000000
B1907333338173N08119671WA0122001270000000000000
B1907363338151N08119624WA0122701274000000000000
B1907393338127N08119585WA0123101275000000000000
B1907423338099N08119554WA0123301279000000000000
B1907453338073N08119525WA0123601281000000000000
B1907483338049N08119491WA0123601274000000000000
B1907513338032N08119443WA0122801260000000000000
B1907543338005N08119397WA0121301244000000000000
B1907573337965N08119359WA0120101241000000000000
B1908003337920N08119328WA0119701240000000000000
B1908033337878N08119299WA0119801252000000000000
B1908063337840N08119273WA0120801256000000000000
B1908093337801N08119257WA0121001254000000000000
B1908123337763N08119237WA0120701246000000000000
B1908153337728N08119203WA0120101242000000000000
B1908183337699N08119160WA0119901245000000000000
B1908213337671N08119124WA0121001268000000000000
B1908243337641N08119117WA0123101282000000000000
B1908273337619N08119107WA0123901281000000000000
B1908303337610N08119064WA0123401270000000000000
B1908333337624N08119005WA0121801252000000000000
B1908363337654N08118944WA0120201239000000000000
B1908393337690N08118880WA0118901229000000000000
B1908423337727N08118815WA0118401231000000000000
B1908453337753N08118748WA0118501234000000000000
B1908483337763N08118680WA0118601232000000000000
B1908513337763N08118615WA0118701233000000000000
B1908543337757N08118553WA0118701234000000000000
B1908573337742N08118498WA0118901235000000000000
B1909003337729N08118445WA0119101233000000000000
B1909033337715N08118389WA0118801225000000000000
B1909063337698N08118332WA0118001218000000000000
B1909093337681N08118273WA0117401213000000000000
B1909123337668N08118212WA0117201214000000000000
B1909153337659N08118151WA0117201217000000000000
B1909183337657N08118093WA0117601224000000000000
B1909213337658N08118035WA0118301228000000000000
B1909243337668N08117981WA0118901232000000000000
B1909273337676N08117928WA0119101228000000000000
B1909303337705N08117874WA0118501214000000000000
B1909333337755N08117831WA0117101203000000000000
B1909363337810N08117791WA0115701191000000000000
B1909393337870N08117756WA0114801192000000000000
B1909423337930N08117725WA0115301200000000000000
B1909453337987N08117699WA0115801203000000000000
B1909483338047N08117683WA0115701198000000000000
B1909513338110N08117678WA0115001192000000000000
B1909543338175N08117678WA0114601192000000000000
B1909573338239N08117681WA0114601196000000000000
B1910003338295N08117687WA0115201210000000000000
B1910033338344N08117694WA0116701216000000000000
B1910063338394N08117700WA0117101212000000000000
B1910093338447N08117708WA0116801209000000000000
B1910123338503N08117713WA0116201204000000000000
B1910153338559N08117717WA0116101207000000000000
B1910183338615N08117720WA0116001200000000000000
B1910213338676N08117723WA0115101190000000000000
B1910243338739N08117716WA0114301188000000000000
B1910273338803N08117704WA0114101184000000000000
B1910303338868N08117697WA0113701183000000000000
B1910333338934N08117694WA0113301180000000000000
B1910363338999N08117692WA0113201182000000000000
B1910393339063N08117690WA0113201178000000000000
B1910423339129N08117684WA0112501171000000000000
B1910453339194N08117677WA0112301171000000000000
B1910483339258N08117666WA0112301174000000000000
B1910513339319N08117655WA0112601182000000000000
B1910543339376N08117640WA0113401185000000000000
B1910573339435N08117627WA0113301173000000000000
B1911003339496N08117613WA0112301164000000000000
B1911033339560N08117596WA0111401159000000000000
B1911063339623N08117580WA0110801153000000000000
B1911093339688N08117569WA0110001139000000000000
B1911123339757N08117557WA0108101116000000000000
B1911153339830N08117535WA0106401109000000000000
B1911183339899N08117508WA0106701128000000000000
B1911213339955N08117482WA0109001155000000000000
B1911243340006N08117463WA0111001165000000000000
B1911273340055N08117470WA0112101173000000000000
B1911303340098N08117496WA0113001176000000000000
B1911333340124N08117539WA0113001172000000000000
B1911363340130N08117592WA0112701165000000000000
B1911393340110N08117634WA0112201161000000000000
B1911423340073N08117645WA0111501156000000000000
B1911453340039N08117622WA0111201151000000000000
B1911483340024N08117570WA0110701149000000000000
B1911513340019N08117514WA0110701158000000000000
B1911543340019N08117470WA0112101176000000000000
B1911573340042N08117431WA0113201171000000000000
B1912003340090N08117411WA0112501156000000000000
B1912033340149N08117414WA0111401152000000000000
B1912063340206N08117424WA0110801150000000000000
B1912093340259N08117443WA0110801152000000000000
B1912123340305N08117470WA0111301162000000000000
B1912153340350N08117475WA0112001167000000000000
B1912183340392N08117476WA0112801169000000000000
B1912213340433N08117487WA0112601161000000000000
B1912243340472N08117521WA0111801153000000000000
B1912273340496N08117570WA0111201151000000000000
B1912303340519N08117618WA0111201155000000000000
B1912333340545N08117660WA0111401156000000000000
B1912363340566N08117703WA0111501154000000000000
B1912393340584N08117747WA0111401155000000000000
B1912423340610N08117786WA0111301150000000000000
B1912453340649N08117812WA0111001149000000000000
B1912483340683N08117843WA0110701144000000000000
B1912513340712N08117879WA0110301135000000000000
B1912543340743N08117920WA0109001116000000000000
B1912573340783N08117964WA0107201103000000000000
B1913003340830N08117999WA0106801112000000000000
B1913033340878N08118029WA0107101114000000000000
B1913063340923N08118056WA0107501123000000000000
B1913093340966N08118081WA0108401128000000000000
B1913123341009N08118106WA0108601127000000000000
B1913153341055N08118128WA0108401122000000000000
B1913183341104N08118152WA0108201130000000000000
B1913213341152N08118167WA0109001140000000000000
B1913243341187N08118199WA0110101149000000000000
B1913273341193N08118242WA0110901153000000000000
B1913303341167N08118267WA0111301157000000000000
B1913333341138N08118250WA0111701166000000000000
B1913363341133N08118202WA0112501171000000000000
B1913393341164N08118154WA0113001171000000000000
B1913423341217N08118137WA0113201179000000000000
B1913453341268N08118151WA0113901184000000000000
B1913483341299N08118191WA0114701194000000000000
B1913513341299N08118238WA0115601202000000000000
B1913543341273N08118263WA0116401210000000000000
B1913573341245N08118251WA0117701228000000000000
B1914003341232N08118215WA0119301239000000000000
B1914033341239N08118164WA0119801235000000000000
B1914063341274N08118117WA0119701234000000000000
B1914093341330N08118098WA0119701239000000000000
B1914123341381N08118126WA0120501251000000000000
B1914153341399N08118173WA0121401260000000000000
B1914183341382N08118208WA0122201263000000000000
B1914213341349N08118210WA0122501270000000000000
B1914243341329N08118175WA0123501287000000000000
B1914273341337N08118128WA0124801289000000000000
B1914303341373N08118086WA0125001286000000000000
B1914333341430N08118076WA0124801290000000000000
B1914363341477N08118102WA0125201298000000000000
B1914393341498N08118149WA0125901303000000000000
B1914423341488N08118189WA0126301305000000000000
B1914453341459N08118203WA0126401300000000000000
B1914483341428N08118177WA0126101304000000000000
B1914513341419N08118132WA0126901317000000000000
B1914543341434N08118080WA0127601317000000000000
B1914573341479N08118041WA0127801321000000000000
B1915003341536N08118037WA0128401329000000000000
B1915033341581N08118064WA0129101336000000000000
B1915063341602N08118108WA0129801340000000000000
B1915093341594N08118149WA0129901341000000000000
B1915123341570N08118172WA0129901335000000000000
B1915153341534N08118167WA0129201327000000000000
B1915183341503N08118133WA0128901340000000000000
B1915213341495N08118082WA0129901351000000000000
B1915243341520N08118032WA0131101359000000000000
B1915273341564N08117999WA0131701358000000000000
B1915303341616N08117985WA0132001366000000000000
B1915333341670N08117990WA0132701374000000000000
B1915363341716N08118016WA0133301378000000000000
B1915393341744N08118060WA0133701379000000000000
B1915423341742N08118102WA0133901379000000000000
B1915453341722N08118126WA0133401364000000000000
B1915483341683N08118121WA0131901355000000000000
B1915513341650N08118106WA0132201372000000000000
B1915543341625N08118074WA0133301382000000000000
B1915573341612N08118034WA0134401389000000000000
B1916003341622N08117982WA0134901396000000000000
B1916033341658N08117942WA0135501395000000000000
B1916063341711N08117929WA0135401389000000000000
B1916093341767N08117942WA0134601384000000000000
B1916123341817N08117973WA0134401395000000000000
B1916153341846N08118017WA0135701412000000000000
B1916183341854N08118061WA0136901414000000000000
B1916213341835N08118089WA0137101410000000000000
B1916243341804N08118094WA0136701404000000000000
B1916273341776N08118110WA0136501411000000000000
B1916303341753N08118129WA0137201419000000000000
B1916333341728N08118150WA0137801424000000000000
B1916363341705N08118172WA0138501435000000000000
B1916393341687N08118195WA0139501445000000000000
B1916423341662N08118199WA0140301448000000000000
B1916453341636N08118177WA0140501446000000000000
B1916483341627N08118130WA0140301446000000000000
B1916513341642N08118076WA0140001440000000000000
B1916543341681N08118029WA0139401431000000000000
B1916573341739N08118002WA0138501422000000000000
B1917003341802N08117998WA0137501418000000000000
B1917033341863N08118002WA0137501427000000000000
B1917063341921N08118007WA0138201436000000000000
B1917093341975N08118019WA0139201448000000000000
B1917123342023N08118033WA0140301452000000000000
B1917153342065N08118056WA0140701456000000000000
B1917183342100N08118082WA0141201459000000000000
B1917213342125N08118117WA0141401457000000000000
B1917243342135N08118160WA0141001450000000000000
B1917273342130N08118208WA0139901435000000000000
B1917303342114N08118259WA0138801427000000000000
B1917333342092N08118312WA0137701416000000000000
B1917363342065N08118367WA0137001418000000000000
B1917393342040N08118415WA0137301432000000000000
B1917423342018N08118459WA0138701444000000000000
B1917453342000N08118502WA0139801445000000000000
B1917483341982N08118549WA0139901440000000000000
B1917513341960N08118598WA0139401437000000000000
B1917543341939N08118639WA0140201467000000000000
B1917573341919N08118670WA0142601485000000000000
B1918003341905N08118702WA0144101491000000000000
B1918033341893N08118739WA0144901494000000000000
B1918063341863N08118763WA0144901492000000000000
B1918093341824N08118757WA0144801497000000000000
B1918123341802N08118718WA0145401505000000000000
B1918153341810N08118671WA0146001506000000000000
B1918183341846N08118633WA0146401514000000000000
B1918213341889N08118613WA0147101517000000000000
B1918243341939N08118631WA0147001512000000000000
B1918273341973N08118680WA0146701515000000000000
B1918303341991N08118740WA0147101520000000000000
B1918333341997N08118799WA0147801535000000000000
B1918363341997N08118851WA0149601552000000000000
B1918393342000N08118899WA0151201566000000000000
B1918423342022N08118940WA0152501574000000000000
B1918453342053N08118974WA0153101575000000000000
B1918483342062N08119025WA0153101573000000000000
B1918513342038N08119064WA0152801573000000000000
B1918543342001N08119061WA0153001583000000000000
B1918573341982N08119027WA0154101598000000000000
B1919003341979N08118988WA0155301605000000000000
B1919033341992N08118948WA0155901602000000000000
B1919063342018N08118905WA0155601605000000000000
B1919093342052N08118877WA0156301617000000000000
B1919123342096N08118871WA0157201621000000000000
B1919153342142N08118879WA0158001634000000000000
B1919183342184N08118888WA0159001637000000000000
B1919213342221N08118921WA0159001636000000000000
B1919243342242N08118971WA0158801634000000000000
B1919273342246N08119026WA0159201645000000000000
B1919303342216N08119051WA0160201655000000000000
B1919333342187N08119027WA0161201662000000000000
B1919363342192N08118981WA0161701664000000000000
B1919393342230N08118948WA0161601656000000000000
B1919423342286N08118958WA0160501646000000000000
B1919453342330N08119010WA0159801647000000000000
B1919483342351N08119072WA0160301660000000000000
B1919513342360N08119133WA0161301666000000000000
B1919543342361N08119191WA0162201674000000000000
B1919573342360N08119251WA0162101651000000000000
B1920003342356N08119321WA0160001629000000000000
B1920033342356N08119398WA0157801611000000000000
B1920063342359N08119478WA0156301608000000000000
B1920093342360N08119555WA0155901609000000000000
B1920123342364N08119631WA0155901612000000000000
B1920153342370N08119703WA0156401613000000000000
B1920183342377N08119776WA0156101605000000000000
B1920213342382N08119850WA0155601603000000000000
B1920243342389N08119926WA0155001597000000000000
B1920273342398N08120000WA0154901604000000000000
B1920303342409N08120066WA0155801617000000000000
B1920333342421N08120128WA0156901624000000000000
B1920363342433N08120188WA0157501622000000000000
B1920393342446N08120251WA0156901611000000000000
B1920423342457N08120318WA0155701598000000000000
B1920453342470N08120390WA0154501590000000000000
B1920483342485N08120461WA0154001582000000000000
B1920513342502N08120534WA0153101575000000000000
B1920543342517N08120607WA0152201563000000000000
B1920573342522N08120684WA0151001550000000000000
B1921003342513N08120755WA0149901540000000000000
B1921033342490N08120817WA0149101538000000000000
B1921063342459N08120867WA0148801531000000000000
B1921093342428N08120915WA0148201525000000000000
B1921123342394N08120960WA0147901528000000000000
B1921153342361N08121006WA0147801520000000000000
B1921183342324N08121051WA0146901508000000000000
B1921213342283N08121097WA0145601500000000000000
B1921243342243N08121139WA0145401509000000000000
B1921273342205N08121176WA0146001510000000000000
B1921303342169N08121214WA0146001501000000000000
B1921333342132N08121254WA0145101489000000000000
B1921363342093N08121298WA0143801477000000000000
B1921393342052N08121345WA0142501464000000000000
B1921423342010N08121393WA0141401460000000000000
B1921453341971N08121439WA0141201463000000000000
B1921483341935N08121484WA0141401462000000000000
B1921513341897N08121529WA0140901452000000000000
B1921543341857N08121573WA0140101449000000000000
B1921573341819N08121616WA0140401459000000000000
B1922003341785N08121656WA0141101462000000000000
B1922033341752N08121694WA0141201459000000000000
B1922063341716N08121734WA0140801449000000000000
B1922093341680N08121778WA0140101445000000000000
B1922123341642N08121821WA0139601447000000000000
B1922153341609N08121861WA0139701443000000000000
B1922183341573N08121906WA0139001432000000000000
B1922213341536N08121951WA0138201429000000000000
B1922243341502N08121991WA0138301436000000000000
B1922273341471N08122033WA0138401429000000000000
B1922303341437N08122077WA0137201408000000000000
B1922333341398N08122127WA0135201393000000000000
B1922363341359N08122180WA0134201390000000000000
B1922393341324N08122232WA0134201402000000000000
B1922423341293N08122280WA0135501414000000000000
B1922453341265N08122325WA0136601415000000000000
B1922483341237N08122370WA0136701411000000000000
B1922513341207N08122416WA0136001396000000000000
B1922543341174N08122466WA0134901403000000000000
B1922573341146N08122513WA0135601410000000000000
B1923003341120N08122558WA0136201411000000000000
B1923033341095N08122604WA0136301408000000000000
B1923063341069N08122650WA0135901402000000000000
B1923093341044N08122699WA0135001393000000000000
B1923123341016N08122749WA0134301386000000000000
B1923153340986N08122801WA0133601381000000000000
B1923183340955N08122851WA0133901399000000000000
B1923213340934N08122892WA0135401418000000000000
B1923243340918N08122929WA0137301422000000000000
B1923273340900N08122965WA0137201409000000000000
B1923303340877N08123007WA0135601391000000000000
B1923333340853N08123060WA0133601375000000000000
B1923363340831N08123120WA0132101364000000000000
B1923393340812N08123183WA0131401361000000000000
B1923423340793N08123247WA0131201361000000000000
B1923453340775N08123310WA0131301361000000000000
B1923483340756N08123369WA0131201359000000000000
B1923513340738N08123428WA0131201358000000000000
B1923543340718N08123484WA0131001355000000000000
B1923573340700N08123541WA0130701345000000000000
B1924003340682N08123603WA0129401337000000000000
B1924033340663N08123666WA0128701329000000000000
B1924063340644N08123728WA0128001322000000000000
B1924093340623N08123791WA0127301311000000000000
B1924123340602N08123857WA0126301300000000000000
B1924153340582N08123919WA0125801313000000000000
B1924183340566N08123976WA0126601313000000000000
B1924213340548N08124034WA0126201297000000000000
B1924243340528N08124093WA0125101282000000000000
B1924273340506N08124155WA0123801277000000000000
B1924303340487N08124216WA0123001272000000000000
B1924333340468N08124277WA0122601267000000000000
B1924363340449N08124338WA0122101266000000000000
B1924393340431N08124395WA0122301273000000000000
B1924423340414N08124444WA0123301279000000000000
B1924453340397N08124493WA0123101269000000000000
B1924483340375N08124541WA0122301253000000000000
B1924513340340N08124582WA0120701234000000000000
B1924543340293N08124610WA0118701226000000000000
B1924573340244N08124625WA0118001225000000000000
B1925003340198N08124645WA0118201237000000000000
B1925033340160N08124672WA0119301240000000000000
B1925063340123N08124697WA0119501233000000000000
B1925093340084N08124720WA0118401222000000000000
B1925123340039N08124741WA0117601214000000000000
B1925153339990N08124764WA0116501193000000000000
B1925183339937N08124789WA0114601184000000000000
B1925213339883N08124815WA0113901186000000000000
B1925243339831N08124840WA0113901188000000000000
B1925273339782N08124862WA0114401201000000000000
B1925303339737N08124880WA0115601208000000000000
B1925333339692N08124892WA0116501223000000000000
B1925363339657N08124897WA0118301244000000000000
B1925393339631N08124916WA0120101253000000000000
B1925423339629N08124959WA0121301262000000000000
B1925453339656N08124998WA0122001262000000000000
B1925483339704N08125020WA0121601256000000000000
B1925513339759N08125014WA0121301256000000000000
B1925543339803N08124981WA0121401260000000000000
B1925573339831N08124932WA0121501259000000000000
B1926003339847N08124877WA0121401259000000000000
B1926033339851N08124821WA0121401258000000000000
B1926063339839N08124769WA0121401255000000000000
B1926093339813N08124727WA0120801249000000000000
B1926123339776N08124698WA0120301243000000000000
B1926153339731N08124689WA0119701235000000000000
B1926183339683N08124697WA0118901227000000000000
B1926213339636N08124721WA0117901224000000000000
B1926243339597N08124749WA0118501258000000000000
B1926273339568N08124754WA0121601282000000000000
B1926303339545N08124771WA0123601280000000000000
B1926333339538N08124811WA0123501270000000000000
B1926363339539N08124863WA0122701265000000000000
B1926393339543N08124919WA0122101263000000000000
B1926423339540N08124974WA0122101264000000000000
B1926453339527N08125028WA0121701249000000000000
B1926483339506N08125084WA0120201234000000000000
B1926513339482N08125143WA0118601219000000000000
B1926543339454N08125204WA0117201208000000000000
B1926573339427N08125263WA0116501216000000000000
B1927003339408N08125314WA0118001241000000000000
B1927033339404N08125357WA0120401259000000000000
B1927063339415N08125399WA0122201269000000000000
B1927093339427N08125442WA0123001271000000000000
B1927123339448N08125486WA0123101271000000000000
B1927153339493N08125508WA0123101270000000000000
B1927183339543N08125491WA0123101273000000000000
B1927213339574N08125447WA0123501278000000000000
B1927243339584N08125395WA0123401272000000000000
B1927273339579N08125343WA0123001270000000000000
B1927303339562N08125296WA0122601264000000000000
B1927333339532N08125260WA0121601251000000000000
B1927363339492N08125243WA0120901246000000000000
B1927393339451N08125243WA0120301250000000000000
B1927423339413N08125244WA0120701253000000000000
B1927453339380N08125235WA0121301262000000000000
B1927483339352N08125228WA0122101262000000000000
B1927513339322N08125227WA0121801258000000000000
B1927543339291N08125228WA0121601256000000000000
B1927573339259N08125214WA0121101249000000000000
B1928003339231N08125182WA0120101236000000000000
B1928033339204N08125136WA0118801226000000000000
B1928063339179N08125081WA0117801221000000000000
B1928093339158N08125024WA0117501220000000000000
B1928123339141N08124964WA0117301219000000000000
B1928153339135N08124902WA0117301218000000000000
B1928183339139N08124837WA0117001215000000000000
B1928213339136N08124771WA0116801207000000000000
B1928243339127N08124702WA0116101199000000000000
B1928273339111N08124636WA0115201195000000000000
B1928303339093N08124576WA0115001201000000000000
B1928333339081N08124517WA0116601231000000000000
B1928363339067N08124467WA0118801247000000000000
B1928393339040N08124435WA0120401258000000000000
B1928423339010N08124416WA0121701273000000000000
B1928453338979N08124412WA0123101280000000000000
B1928483338958N08124437WA0123901286000000000000
B1928513338959N08124485WA0124401285000000000000
B1928543338990N08124530WA0124301288000000000000
B1928573339045N08124551WA0124301289000000000000
B1929003339100N08124532WA0125201307000000000000
B1929033339142N08124499WA0126901326000000000000
B1929063339163N08124454WA0128401335000000000000
B1929093339155N08124408WA0128501328000000000000
B1929123339126N08124383WA0128601338000000000000
B1929153339093N08124387WA0129301347000000000000
B1929183339077N08124422WA0130201352000000000000
B1929213339092N08124472WA0130601349000000000000
B1929243339133N08124513WA0130401352000000000000
B1929273339189N08124526WA0130901364000000000000
B1929303339239N08124499WA0132001378000000000000
B1929333339259N08124450WA0133501392000000000000
B1929363339254N08124403WA0134401393000000000000
B1929393339228N08124376WA0134901402000000000000
B1929423339200N08124377WA0136001417000000000000
B1929453339184N08124403WA0137101419000000000000
B1929483339189N08124447WA0136901409000000000000
B1929513339227N08124495WA0136101408000000000000
B1929543339283N08124520WA0136401421000000000000
B1929573339339N08124522WA0137601432000000000000
B1930003339388N08124494WA0138801440000000000000
B1930033339414N08124444WA0139601449000000000000
B1930063339414N08124392WA0140201452000000000000
B1930093339391N08124357WA0140401454000000000000
B1930123339357N08124351WA0140601461000000000000
B1930153339334N08124385WA0141501476000000000000
B1930183339343N08124433WA0142701483000000000000
B1930213339378N08124473WA0143601486000000000000
B1930243339432N08124487WA0144001491000000000000
B1930273339483N08124459WA0144401497000000000000
B1930303339509N08124408WA0145201505000000000000
B1930333339514N08124356WA0145801509000000000000
B1930363339504N08124309WA0146101511000000000000
B1930393339477N08124285WA0146401516000000000000
B1930423339444N08124290WA0147101526000000000000
B1930453339431N08124331WA0148201537000000000000
B1930483339453N08124379WA0148901537000000000000
B1930513339503N08124405WA0149101539000000000000
B1930543339561N08124396WA0149501551000000000000
B1930573339607N08124361WA0150901567000000000000
B1931003339630N08124312WA0152101572000000000000
B1931033339627N08124262WA0152101565000000000000
B1931063339599N08124231WA0151501562000000000000
B1931093339564N08124233WA0151801574000000000000
B1931123339540N08124259WA0152801588000000000000
B1931153339534N08124300WA0153701583000000000000
B1931183339553N08124355WA0153201574000000000000
B1931213339603N08124392WA0152601577000000000000
B1931243339666N08124390WA0153201593000000000000
B1931273339718N08124363WA0154701611000000000000
B1931303339750N08124317WA0156601625000000000000
B1931333339747N08124270WA0157801628000000000000
B1931363339725N08124243WA0157901624000000000000
B1931393339694N08124247WA0157501618000000000000
B1931423339672N08124283WA0157501630000000000000
B1931453339666N08124329WA0158201636000000000000
B1931483339688N08124377WA0158701636000000000000
B1931513339738N08124408WA0158801634000000000000
B1931543339799N08124405WA0159001644000000000000
B1931573339844N08124369WA0160101657000000000000
B1932003339873N08124320WA0161001663000000000000
B1932033339880N08124266WA0161801672000000000000
B1932063339864N08124223WA0162301675000000000000
B1932093339833N08124204WA0162501673000000000000
B1932123339798N08124218WA0162401673000000000000
B1932153339777N08124257WA0162301680000000000000
B1932183339777N08124309WA0163001685000000000000
B1932213339803N08124360WA0163601690000000000000
B1932243339850N08124396WA0164201695000000000000
B1932273339909N08124402WA0164701696000000000000
B1932303339960N08124368WA0165101705000000000000
B1932333339982N08124312WA0165901714000000000000
B1932363339980N08124255WA0166801721000000000000
B1932393339956N08124218WA0167401729000000000000
B1932423339924N08124227WA0167901733000000000000
B1932453339908N08124266WA0168301734000000000000
B1932483339921N08124314WA0168601739000000000000
B1932513339963N08124352WA0168901738000000000000
B1932543340020N08124364WA0168701734000000000000
B1932573340078N08124343WA0168701741000000000000
B1933003340120N08124295WA0169201752000000000000
B1933033340146N08124242WA0170401763000000000000
B1933063340151N08124186WA0171301760000000000000
B1933093340133N08124140WA0170801751000000000000
B1933123340099N08124112WA0170001748000000000000
B1933153340059N08124109WA0169701748000000000000
B1933183340025N08124135WA0169801753000000000000
B1933213340002N08124175WA0170201760000000000000
B1933243339993N08124223WA0170901761000000000000
B1933273339999N08124277WA0171201760000000000000
B1933303340028N08124329WA0171201765000000000000
B1933333340071N08124369WA0171601766000000000000
B1933363340123N08124396WA0171801769000000000000
B1933393340180N08124403WA0172101773000000000000
B1933423340233N08124383WA0172501776000000000000
B1933453340280N08124343WA0172701779000000000000
B1933483340316N08124292WA0172801779000000000000
B1933513340336N08124233WA0172901784000000000000
B1933543340346N08124175WA0173401791000000000000
B1933573340341N08124125WA0174101793000000000000
B1934003340323N08124084WA0174301788000000000000
B1934033340289N08124057WA0173401780000000000000
B1934063340251N08124049WA0173101786000000000000
B1934093340221N08124073WA0173701796000000000000
B1934123340211N08124122WA0174301794000000000000
B1934153340223N08124182WA0174101790000000000000
B1934183340249N08124240WA0173701780000000000000
B1934213340289N08124301WA0172601772000000000000
B1934243340331N08124364WA0171901770000000000000
B1934273340367N08124428WA0172001776000000000000
B1934303340402N08124487WA0172701784000000000000
B1934333340436N08124548WA0173801797000000000000
B1934363340462N08124606WA0175401814000000000000
B1934393340478N08124662WA0176801821000000000000
B1934423340497N08124714WA0177901831000000000000
B1934453340524N08124766WA0178501833000000000000
B1934483340550N08124821WA0177801805000000000000
B1934513340574N08124893WA0174901772000000000000
B1934543340598N08124974WA0172101762000000000000
B1934573340621N08125054WA0171001760000000000000
B1935003340643N08125133WA0170401751000000000000
B1935033340665N08125214WA0169901748000000000000
B1935063340683N08125292WA0169601748000000000000
B1935093340695N08125373WA0169301742000000000000
B1935123340699N08125451WA0168801740000000000000
B1935153340697N08125523WA0169201747000000000000
B1935183340696N08125594WA0169801751000000000000
B1935213340693N08125664WA0169801746000000000000
B1935243340688N08125737WA0169601748000000000000
B1935273340688N08125806WA0170201757000000000000
B1935303340692N08125872WA0170901768000000000000
B1935333340684N08125929WA0172101785000000000000
B1935363340670N08125975WA0173801798000000000000
B1935393340660N08126017WA0175001801000000000000
B1935423340654N08126063WA0175501803000000000000
B1935453340654N08126110WA0175501796000000000000
B1935483340656N08126164WA0174601783000000000000
B1935513340665N08126225WA0173101769000000000000
B1935543340680N08126293WA0171801761000000000000
B1935573340700N08126361WA0171001758000000000000
B1936003340718N08126430WA0170701756000000000000
B1936033340732N08126497WA0170601757000000000000
B1936063340744N08126563WA0170601758000000000000
B1936093340752N08126628WA0170801759000000000000
B1936123340760N08126692WA0170801758000000000000
B1936153340766N08126755WA0170601753000000000000
B1936183340773N08126818WA0170101748000000000000
B1936213340779N08126882WA0169701742000000000000
B1936243340787N08126948WA0169101737000000000000
B1936273340792N08127013WA0168501729000000000000
B1936303340797N08127080WA0167701726000000000000
B1936333340804N08127146WA0167201720000000000000
B1936363340812N08127213WA0166801716000000000000
B1936393340819N08127281WA0166401712000000000000
B1936423340827N08127347WA0166201712000000000000
B1936453340838N08127411WA0166201713000000000000
B1936483340847N08127473WA0166101710000000000000
B1936513340857N08127535WA0166001708000000000000
B1936543340868N08127596WA0165801703000000000000
B1936573340877N08127658WA0165201697000000000000
B1937003340887N08127722WA0164401690000000000000
B1937033340896N08127787WA0163801688000000000000
B1937063340905N08127849WA0163701687000000000000
B1937093340912N08127910WA0163701687000000000000
B1937123340920N08127971WA0163501681000000000000
B1937153340927N08128032WA0162901675000000000000
B1937183340936N08128095WA0162601672000000000000
B1937213340943N08128157WA0162201669000000000000
B1937243340948N08128218WA0162201670000000000000
B1937273340953N08128278WA0162101667000000000000
B1937303340959N08128339WA0161701660000000000000
B1937333340964N08128403WA0161101652000000000000
B1937363340969N08128468WA0160401648000000000000
B1937393340973N08128533WA0159901646000000000000
B1937423340981N08128597WA0159901648000000000000
B1937453340990N08128658WA0160101651000000000000
B1937483340999N08128718WA0160401655000000000000
B1937513341005N08128772WA0161101667000000000000
B1937543341012N08128822WA0162001669000000000000
B1937573341017N08128872WA0162101664000000000000
B1938003341022N08128926WA0161701660000000000000
B1938033341027N08128981WA0161301656000000000000
B1938063341034N08129039WA0161001653000000000000
B1938093341040N08129096WA0160801653000000000000
B1938123341046N08129152WA0160601647000000000000
B1938153341050N08129212WA0159901641000000000000
B1938183341053N08129270WA0159501642000000000000
B1938213341064N08129327WA0159401640000000000000
B1938243341078N08129384WA0159101636000000000000
B1938273341096N08129440WA0158701627000000000000
B1938303341116N08129500WA0157801613000000000000
B1938333341137N08129564WA0156301597000000000000
B1938363341155N08129633WA0154701586000000000000
B1938393341174N08129700WA0153701580000000000000
B1938423341195N08129768WA0153201572000000000000
B1938453341209N08129839WA0152201555000000000000
B1938483341216N08129912WA0150701544000000000000
B1938513341221N08129986WA0149601539000000000000
B1938543341226N08130057WA0149001537000000000000
B1938573341233N08130127WA0148901533000000000000
B1939003341242N08130196WA0148601526000000000000
B1939033341250N08130265WA0147801507000000000000
B1939063341251N08130336WA0146001493000000000000
B1939093341248N08130410WA0144701486000000000000
B1939123341246N08130483WA0144001483000000000000
B1939153341250N08130556WA0143701480000000000000
B1939183341258N08130629WA0143401479000000000000
B1939213341267N08130700WA0143301477000000000000
B1939243341278N08130768WA0143501489000000000000
B1939273341290N08130830WA0144501492000000000000
B1939303341303N08130892WA0144401483000000000000
B1939333341313N08130960WA0143101468000000000000
B1939363341323N08131034WA0142001461000000000000
B1939393341333N08131111WA0141501451000000000000
B1939423341342N08131189WA0140301444000000000000
B1939453341352N08131266WA0140001448000000000000
B1939483341364N08131341WA0140101445000000000000
B1939513341375N08131414WA0140201445000000000000
B1939543341385N08131487WA0140001446000000000000
B1939573341397N08131558WA0140101447000000000000
B1940003341410N08131628WA0140301455000000000000
B1940033341419N08131691WA0141201468000000000000
B1940063341428N08131747WA0142301469000000000000
B1940093341436N08131805WA0142101456000000000000
B1940123341440N08131869WA0140901441000000000000
B1940153341443N08131936WA0140001431000000000000
B1940183341449N08132007WA0138901424000000000000
B1940213341455N08132078WA0138301420000000000000
B1940243341460N08132147WA0137901419000000000000
B1940273341467N08132215WA0137601416000000000000
B1940303341475N08132282WA0137401412000000000000
B1940333341481N08132348WA0137101404000000000000
B1940363341485N08132416WA0136301396000000000000
B1940393341477N08132480WA0135301392000000000000
B1940423341472N08132543WA0135101388000000000000
B1940453341485N08132614WA0134101377000000000000
B1940483341512N08132684WA0133301368000000000000
B1940513341547N08132753WA0132301360000000000000
B1940543341588N08132819WA0131701356000000000000
B1940573341633N08132881WA0131401363000000000000
B1941003341676N08132933WA0132501382000000000000
B1941033341718N08132978WA0134101394000000000000
B1941063341757N08133018WA0135301397000000000000
B1941093341796N08133058WA0135601396000000000000
B1941123341836N08133100WA0135601398000000000000
B1941153341883N08133131WA0135801402000000000000
B1941183341935N08133151WA0136301407000000000000
B1941213341988N08133156WA0136901412000000000000
B1941243342039N08133139WA0137101410000000000000
B1941273342080N08133099WA0136801402000000000000
B1941303342103N08133043WA0136001398000000000000
B1941333342103N08132988WA0135701398000000000000
B1941363342077N08132953WA0135601395000000000000
B1941393342038N08132956WA0135201390000000000000
B1941423342008N08132987WA0134801391000000000000
B1941453341986N08133026WA0135301399000000000000
B1941483341975N08133071WA0135801402000000000000
B1941513341974N08133122WA0136101399000000000000
B1941543341982N08133179WA0135901399000000000000
B1941573341997N08133235WA0135701393000000000000
B1942003342018N08133295WA0134701376000000000000
B1942033342048N08133360WA0133101364000000000000
B1942063342086N08133425WA0132101365000000000000
B1942093342127N08133489WA0131901363000000000000
B1942123342171N08133551WA0131901368000000000000
B1942153342216N08133611WA0132401369000000000000
B1942183342261N08133667WA0132101357000000000000
B1942213342309N08133724WA0131001346000000000000
B1942243342356N08133782WA0129901335000000000000
B1942273342404N08133841WA0129201332000000000000
B1942303342452N08133898WA0128901330000000000000
B1942333342500N08133955WA0128701325000000000000
B1942363342551N08134012WA0128001315000000000000
B1942393342604N08134071WA0127101310000000000000
B1942423342659N08134126WA0126801313000000000000
B1942453342712N08134179WA0127201321000000000000
B1942483342764N08134230WA0127701319000000000000
B1942513342816N08134280WA0127701316000000000000
B1942543342867N08134331WA0127201311000000000000
B1942573342920N08134383WA0126601303000000000000
