ANKL0ZH
HFDTE250921
HFFXA050
HFPLTPILOT:Nelson Howe
HFGTYGLIDERTYPE:Discus 2b
HFGIDGLIDERID:1X       .
HFDTM100GPSDATUM:
HFRFWFIRMWAREVERSION:40 2011-6-17
HFRHWHARDWAREVERSION: NKL ClearNav V1.0
HFFTYFRTYPE:Nielsen Kellerman, ClearNav-IGC
HFGPS:UBLOX,LEA-4H-0-000-1,16Ch,18000 
HFPRSPRESSALTSENSOR:Intersema,MS5534B,20000 
I033638FXA3941ENL4247REX
C250921170157000000000104
C0000000N00000000WTAKEOFF     
C3731832N08002266WAlt Start A
C3721313N08032219WArea Mountai
C3745527N08000117WArea Covingt
C3725502N08022719WArea Maggie
C3739843N07948640WArea Eagle R
C3728766N08006133WFinish Cylin
C0000000N00000000WLANDING     
B1707413728591N08006113WA0037900403002067002008
B1707423728591N08006113WA0037900403002064002008
B1707433728591N08006113WA0037900403002060002008
B1707443728591N08006112WA0037900403002039002008
B1707453728591N08006112WA0038000402002034002008
B1707463728591N08006112WA0038000402002034002008
B1707473728591N08006113WA0038000402002034002008
B1707483728591N08006113WA0037900402002039002008
B1707493728591N08006113WA0038000402002032002008
B1707503728591N08006113WA0037900402002018002008
B1707513728592N08006113WA0038000402002006002008
B1707523728592N08006113WA0038000402002002002008
B1707533728592N08006113WA0038000402002002002008
B1707543728592N08006113WA0038000402002002002008
B1707553728592N08006113WA0038100402002002002008
B1707563728592N08006113WA0038000402002000002008
B1707573728591N08006113WA0038000402002000002008
B1707583728591N08006113WA0037900402002000002008
B1707593728591N08006113WA0038000402002000002008
B1708003728591N08006113WA0037900402002000002008
B1708013728592N08006113WA0038000402002000002008
B1708023728591N08006113WA0037900402002000002008
B1708033728592N08006113WA0038000402002000002008
B1708043728592N08006113WA0037900402002000002008
B1708053728592N08006113WA0037900402002000002008
B1708063728592N08006113WA0037900402002000002008
B1708073728592N08006113WA0037900402002000002008
B1708083728592N08006113WA0038000402002000002008
B1708093728592N08006113WA0038000402002000002008
B1708103728592N08006113WA0038000401002000002008
B1708113728592N08006113WA0038100401002000002008
B1708123728592N08006113WA0037900401002000002008
B1708133728592N08006113WA0038000401002000002008
B1708143728592N08006113WA0038000401002000002008
B1708153728592N08006113WA0038000401002004002008
B1708163728592N08006113WA0038000401002002002008
B1708173728592N08006113WA0038000401002000002008
B1708183728592N08006113WA0038000401002000002008
B1708193728592N08006113WA0038000401002002002008
B1708203728592N08006113WA0038000401002006002008
B1708213728592N08006113WA0038000401002009002008
B1708223728592N08006113WA0037900400002013002008
B1708233728592N08006113WA0037900400002020002008
B1708243728592N08006113WA0037900400002025002008
B1708253728592N08006112WA0038000400002029002008
B1708263728592N08006112WA0037900400002022002008
B1708273728592N08006112WA0037900400002013002008
B1708283728592N08006112WA0037900400002006002008
B1708293728592N08006112WA0038000400002002002008
B1708303728592N08006112WA0038000400002006002008
B1708313728592N08006113WA0037900400002011002008
B1708323728592N08006113WA0037900400002013002008
B1708333728592N08006113WA0038000400002013002008
B1708343728592N08006113WA0038000400002009002008
B1708353728592N08006113WA0038000400002000002008
B1708363728592N08006113WA0038000400002000002008
B1708373728592N08006113WA0037900400002006002008
B1708383728592N08006112WA0038000400002011002008
B1708393728592N08006112WA0038000401002013002008
B1708403728592N08006112WA0038000401002011002008
B1708413728592N08006112WA0037900401002002002008
B1708423728592N08006112WA0037900401002000002008
B1708433728592N08006112WA0037900401002000002008
B1708443728592N08006112WA0038000401002000002008
B1708453728592N08006112WA0037900401002000002008
B1708463728592N08006112WA0038000402002000002008
B1708473728592N08006112WA0038000402002000002008
B1708483728592N08006112WA0038000402002009002008
B1708493728592N08006112WA0037900402002018002008
B1708503728592N08006112WA0037900402002018002008
B1708513728592N08006112WA0038000402002009002008
B1708523728592N08006112WA0038000402002000002008
B1708533728592N08006112WA0037900402002000002008
B1708543728592N08006112WA0038000402002000002008
B1708553728592N08006112WA0038000402002002002008
B1708563728592N08006112WA0037900402002004002008
B1708573728592N08006112WA0038000402002002002008
B1708583728592N08006112WA0038000402002000002008
B1708593728592N08006112WA0037900402002000002008
B1709003728592N08006112WA0037900402002000002008
B1709013728592N08006112WA0037900402002000002008
B1709023728592N08006112WA0037900402002000002008
B1709033728592N08006112WA0037900402002000002008
B1709043728592N08006112WA0038000402002000002008
B1709053728592N08006112WA0037900402002000002008
B1709063728592N08006112WA0037900402002000002008
B1709073728592N08006112WA0037900402002000002008
B1709083728592N08006112WA0037900402002000002008
B1709093728592N08006112WA0037900402002002002008
B1709103728592N08006112WA0037900402002011002008
B1709113728592N08006112WA0038000402002015002008
B1709123728592N08006112WA0037900402002011002008
B1709133728592N08006112WA0038000402002009002008
B1709143728592N08006112WA0037900402002006002008
B1709153728592N08006112WA0037900402002006002008
B1709163728592N08006112WA0037900402002004002008
B1709173728592N08006112WA0037900402002000002008
B1709183728592N08006112WA0037900402002000002008
B1709193728592N08006112WA0038100402002000002008
B1709203728592N08006112WA0038000402002000002008
B1709213728592N08006112WA0038100402002000002008
B1709223728592N08006112WA0038000402002000002008
B1709233728592N08006112WA0037900402002000002008
B1709243728592N08006112WA0037900402002000002008
B1709253728592N08006112WA0038000402002000002008
B1709263728592N08006112WA0037900402002000002008
B1709273728592N08006112WA0037900402002000002008
B1709283728592N08006112WA0037900402002000002008
B1709293728592N08006112WA0037900402002009002008
B1709303728592N08006112WA0038000402002011002008
B1709313728592N08006112WA0037900402002011002008
B1709323728592N08006112WA0037900402002004002008
B1709333728592N08006113WA0037900402002000002008
B1709343728592N08006113WA0038000402002000002008
B1709353728592N08006112WA0037900402002000002008
B1709363728592N08006113WA0037900402002000002008
B1709373728592N08006113WA0037900402002000002008
B1709383728593N08006113WA0038000402002000002008
B1709393728593N08006112WA0038000402002000002008
B1709403728595N08006112WA0038000402002000002008
B1709413728598N08006112WA0038000402002006002000
F17094144052415132918462351
B1709423728601N08006112WA0037900402002018002000
B1709433728606N08006112WA0038000402002036002000
B1709443728612N08006112WA0038100402002053002000
B1709453728619N08006112WA0037900402002072002000
B1709463728627N08006112WA0037900402002090003000
B1709473728635N08006112WA0037700402002114003000
B1709483728645N08006112WA0037700402002135003000
B1709493728656N08006112WA0037800401002151003000
B1709503728667N08006113WA0037800401002160003000
B1709513728680N08006113WA0037600401002149003000
B1709523728693N08006114WA0037700401002132003000
B1709533728707N08006115WA0037700401002111003000
B1709543728721N08006116WA0037800401002093003000
B1709553728736N08006116WA0037800402002083003000
B1709563728752N08006117WA0038200403002074003000
B1709573728767N08006117WA0038400405002067003000
B1709583728784N08006116WA0038500406002060003000
B1709593728801N08006116WA0038700408002053003000
F1709594405241513291846202351
B1710003728817N08006116WA0039000409002046003000
B1710013728834N08006117WA0039200412002041003000
B1710023728852N08006118WA0039100414002039003000
B1710033728870N08006120WA0039500415002034003000
B1710043728887N08006122WA0039700417002034003000
B1710053728905N08006124WA0040100420002034003000
B1710063728924N08006124WA0040000423002034003000
B1710073728942N08006124WA0040400425002037003000
B1710083728961N08006123WA0040400426002037003000
B1710093728980N08006121WA0040800428002037003000
B1710103728999N08006119WA0041100430002037003000
B1710113729018N08006116WA0041500433002037002000
B1710123729038N08006113WA0041900437002037002000
B1710133729057N08006109WA0042100442002037002000
B1710143729077N08006106WA0042600445002037002000
B1710153729096N08006102WA0042700448002037002000
B1710163729116N08006098WA0042800451002037002000
B1710173729136N08006094WA0043000452002037002000
B1710183729156N08006091WA0043200453002037002000
B1710193729177N08006088WA0043400454002037002000
B1710203729197N08006085WA0043500456002037002000
B1710213729218N08006082WA0043900458002037002000
B1710223729239N08006080WA0044200461002037002000
B1710233729259N08006077WA0044600465002037002000
B1710243729280N08006075WA0045300469002037002000
B1710253729301N08006072WA0045700475002037002000
B1710263729321N08006070WA0046200480002037002000
B1710273729342N08006067WA0046800485002037002000
B1710283729362N08006065WA0047400490002037002000
B1710293729382N08006064WA0047700496002037002000
B1710303729403N08006062WA0048300500002037002000
B1710313729423N08006060WA0048200504001037002000
F171031440524101513291846202351
B1710323729444N08006058WA0048600507001037002000
B1710333729464N08006056WA0048600509001037002000
B1710343729485N08006054WA0048800511001037002000
B1710353729506N08006051WA0049100513001037002000
B1710363729527N08006048WA0049400516001037002000
B1710373729548N08006044WA0049600519001037002000
B1710383729569N08006041WA0049700521001037002000
B1710393729590N08006037WA0050300523001037002000
B1710403729611N08006034WA0050700528001037002000
B1710413729632N08006031WA0051000532001037002000
B1710423729653N08006028WA0051300536001037002000
B1710433729674N08006025WA0051800539001037002000
B1710443729695N08006022WA0052000543001037002000
B1710453729716N08006018WA0052400546001037002000
B1710463729738N08006014WA0052600549001037002000
B1710473729759N08006007WA0053100552001037002000
B1710483729780N08005999WA0053500556001037002000
B1710493729801N08005989WA0053900560001037002000
B1710503729821N08005976WA0054400565002039002000
B1710513729841N08005961WA0054900570002041002000
B1710523729859N08005943WA0055200575002041002000
B1710533729876N08005923WA0055700579002041003000
B1710543729891N08005900WA0055900583002039003000
B1710553729906N08005876WA0056100586002037003000
B1710563729918N08005850WA0056500589002037003000
B1710573729930N08005823WA0056600592002037003000
B1710583729940N08005795WA0056900594002037003000
B1710593729949N08005766WA0057000595002037003000
B1711003729957N08005736WA0057400597002037003000
B1711013729962N08005705WA0057800600002037003000
B1711023729966N08005675WA0058100604002037003000
B1711033729968N08005644WA0058400608002037003000
B1711043729968N08005613WA0058800612003037003000
B1711053729965N08005582WA0059200616003037003000
B1711063729961N08005551WA0059300619003037003000
B1711073729955N08005522WA0059600622003037003000
B1711083729947N08005493WA0059900624003037003000
B1711093729937N08005465WA0060500628002037003000
B1711103729926N08005438WA0061200633002037003000
B1711113729913N08005413WA0062000640003037003000
B1711123729898N08005390WA0062500648002037003000
B1711133729883N08005367WA0063100654002037003000
B1711143729866N08005346WA0063500659002037003000
B1711153729848N08005327WA0063800664002037003000
B1711163729830N08005309WA0064300668002037003000
B1711173729810N08005294WA0064500672002037003000
B1711183729790N08005280WA0064800675002037003000
B1711193729769N08005268WA0065300679002037003000
B1711203729748N08005257WA0065800683002037003000
B1711213729727N08005248WA0066200688002037003000
B1711223729705N08005241WA0066700692002037003000
B1711233729684N08005237WA0067300698002037003000
B1711243729663N08005234WA0067900703002037003000
B1711253729642N08005232WA0068400709002037003000
B1711263729622N08005233WA0068800715002037003000
B1711273729602N08005235WA0069200720002037003000
B1711283729582N08005238WA0069600723002037002000
B1711293729563N08005244WA0069600726002037003000
B1711303729544N08005250WA0070000729002034002000
B1711313729525N08005258WA0070300732002034002000
B1711323729507N08005267WA0070500735002032002000
B1711333729489N08005276WA0070800738002029002000
B1711343729471N08005286WA0071100741002029002000
B1711353729453N08005295WA0071300743002029002000
B1711363729436N08005305WA0071500746002032002000
B1711373729418N08005314WA0071900748002034002000
B1711383729402N08005325WA0072100751002034002000
B1711393729385N08005335WA0072400754002032002000
B1711403729369N08005346WA0072500756002032002000
B1711413729353N08005358WA0073000759002027002000
B1711423729337N08005370WA0073200762002027002000
B1711433729322N08005382WA0073500765002027002000
B1711443729307N08005394WA0073700768002024002000
B1711453729292N08005407WA0073900770002027002000
B1711463729277N08005420WA0073900772002027002000
B1711473729262N08005434WA0074200773002027002000
B1711483729247N08005448WA0074100774002027002000
B1711493729233N08005463WA0074400775002027002000
B1711503729218N08005477WA0074500776002027002000
B1711513729204N08005492WA0074800778002027002000
B1711523729190N08005508WA0075000780002029002000
B1711533729177N08005524WA0075200783002029002000
B1711543729164N08005541WA0075400785002032002000
B1711553729153N08005559WA0075900787002032002000
B1711563729142N08005577WA0076300791002029002000
B1711573729131N08005596WA0076600795002029002000
B1711583729121N08005615WA0076900798002031002000
B1711593729112N08005635WA0077200802002034002000
B1712003729106N08005656WA0077400805002036002000
B1712013729101N08005677WA0077700807002039002000
B1712023729096N08005698WA0078000810002037002000
B1712033729092N08005720WA0078200813002037002000
B1712043729089N08005741WA0078500816002037002000
B1712053729086N08005762WA0078800819002034002000
B1712063729085N08005783WA0079200822002032002000
B1712073729085N08005804WA0079400826002029002000
B1712083729085N08005825WA0079700829002027002000
B1712093729086N08005846WA0080100832002027002000
B1712103729087N08005867WA0080300836002024002000
B1712113729089N08005888WA0080800839002024002000
B1712123729092N08005909WA0081100842002024002000
B1712133729095N08005929WA0081500845002024002000
B1712143729100N08005948WA0081900849002027002000
B1712153729105N08005968WA0082300853002027002000
B1712163729111N08005986WA0082700857002027002000
B1712173729117N08006005WA0082700861002027002000
B1712183729122N08006024WA0082900863002027002000
B1712193729127N08006043WA0083200865002027002000
B1712203729132N08006062WA0083700868002027002000
B1712213729138N08006080WA0084000872002027002000
B1712223729145N08006098WA0084300875002027002000
B1712233729153N08006114WA0084600878002027002000
B1712243729161N08006131WA0084900882002027002000
B1712253729169N08006148WA0085300886002029002000
B1712263729176N08006166WA0085600889002029002000
B1712273729183N08006184WA0086200894002029002000
B1712283729190N08006201WA0086500899002029002000
B1712293729199N08006218WA0087000903002027002000
B1712303729208N08006234WA0087100906002027002000
B1712313729216N08006251WA0087200909002027002000
B1712323729225N08006268WA0087400910002027002000
B1712333729232N08006286WA0087600912002029002000
B1712343729239N08006304WA0087700914002032002000
B1712353729246N08006322WA0087900915002034002000
B1712363729253N08006341WA0088100917002037002000
B1712373729259N08006360WA0088300919002037002000
B1712383729264N08006380WA0088500921002039002000
B1712393729269N08006401WA0088500922002041002000
B1712403729272N08006421WA0088800924002041002000
B1712413729274N08006443WA0089000926002046002000
B1712423729275N08006464WA0089500928002048002000
B1712433729276N08006485WA0089600931002050002000
B1712443729275N08006506WA0090000934002050002000
B1712453729274N08006527WA0090100937002046002000
B1712463729273N08006548WA0090300939002041002000
B1712473729271N08006569WA0090500941002039002000
B1712483729268N08006590WA0090700943002041002000
B1712493729264N08006611WA0091000945002043002000
B1712503729259N08006632WA0091100947002043002000
B1712513729254N08006652WA0091400950002043002000
B1712523729248N08006673WA0091800952002043002000
B1712533729242N08006693WA0092000954002041002000
B1712543729237N08006713WA0092200957002039002000
B1712553729231N08006733WA0092600959002034002000
B1712563729225N08006753WA0093000963002029002000
B1712573729219N08006773WA0093300966002027002000
B1712583729213N08006793WA0093500969002027002000
B1712593729208N08006813WA0093700972002024002000
B1713003729203N08006834WA0094100975002024002000
B1713013729199N08006854WA0094500978002024002000
B1713023729193N08006874WA0094600980002024002000
B1713033729187N08006893WA0094800983002027002000
B1713043729180N08006913WA0094900985002027002000
B1713053729173N08006933WA0095100987002027002000
B1713063729166N08006952WA0095400989002024002000
B1713073729160N08006972WA0095500991002024002000
B1713083729154N08006991WA0095800993002022002000
B1713093729148N08007011WA0096000995002022002000
B1713103729141N08007030WA0096300998002027002000
B1713113729133N08007049WA0096500999002029002000
B1713123729125N08007067WA0096501001002034002000
B1713133729115N08007085WA0096601002002037002000
B1713143729106N08007103WA0096901004002037002000
B1713153729097N08007121WA0096901006002034002000
B1713163729088N08007139WA0097201007002032002000
B1713173729078N08007156WA0097501010002034002000
B1713183729069N08007173WA0097801012002034002000
B1713193729059N08007190WA0098001015002036002000
B1713203729049N08007207WA0098301017002036002000
B1713213729040N08007224WA0098401019002032002000
B1713223729031N08007242WA0098501022002029002000
B1713233729022N08007259WA0098701023002027002000
B1713243729012N08007276WA0098901025002027002000
B1713253729000N08007293WA0098801026002027002000
B1713263728989N08007309WA0099001027002029002000
B1713273728976N08007326WA0099101028002032002000
B1713283728964N08007342WA0099501029002034002000
B1713293728951N08007358WA0099701031002037002000
B1713303728939N08007374WA0100101034002037002000
B1713313728927N08007391WA0100501038002037002000
B1713323728916N08007408WA0101201042002037002000
B1713333728905N08007425WA0101701047002037002000
B1713343728894N08007443WA0102101053002037002000
B1713353728883N08007461WA0102801059002039002000
B1713363728872N08007478WA0103001064002039002000
B1713373728861N08007495WA0103501069002039002000
B1713383728848N08007511WA0104001073002039002000
B1713393728835N08007526WA0104301078002037002000
B1713403728821N08007541WA0104801082002034002000
B1713413728808N08007555WA0105101086002032002000
B1713423728794N08007569WA0105501090002029002000
B1713433728780N08007584WA0105801094002027002000
B1713443728767N08007599WA0106001097002027002000
B1713453728753N08007614WA0106201099002027002000
B1713463728738N08007628WA0106401100002027002000
B1713473728724N08007642WA0106501102002027002000
B1713483728708N08007656WA0106801103002029002000
B1713493728692N08007670WA0107001106002032002000
B1713503728676N08007683WA0107501109002034002000
B1713513728660N08007696WA0108001113002037002000
B1713523728644N08007709WA0108101117002037002000
B1713533728628N08007721WA0108501120002037002000
B1713543728610N08007732WA0109001123002037002000
B1713553728593N08007743WA0109201127002037002000
B1713563728575N08007752WA0109801131002037002000
B1713573728557N08007762WA0109901134002034002000
B1713583728539N08007771WA0110101137002034002000
B1713593728521N08007780WA0110501140002034002000
B1714003728503N08007788WA0110701143002032002000
B1714013728486N08007796WA0110901146002032002000
B1714023728467N08007803WA0111201149002032002000
B1714033728449N08007810WA0111601151002032002000
B1714043728431N08007817WA0112001154002034002000
B1714053728413N08007823WA0112301158002039002000
B1714063728394N08007828WA0112801163002041002000
B1714073728375N08007834WA0113201167002046002000
B1714083728356N08007839WA0113901172002048002000
B1714093728338N08007845WA0114601178002046002000
B1714103728319N08007852WA0115601186002046002000
B1714113728300N08007858WA0115501194002043002000
B1714123728281N08007864WA0115701198002041002000
B1714133728262N08007870WA0115801201002048002000
B1714143728244N08007878WA0115901204002050002000
B1714153728228N08007889WA0116001205002048002000
B1714163728215N08007903WA0116101204002048002000
B1714173728205N08007921WA0116301205002036003000
B1714183728200N08007940WA0116701208002029003000
B1714193728201N08007959WA0117101212003022003000
B1714203728207N08007975WA0117601216003013003000
B1714213728217N08007988WA0117801219003009004000
B1714223728229N08007997WA0117901223003004004000
B1714233728244N08008001WA0118201225003011004000
B1714243728259N08008001WA0118001226003023004000
B1714253728275N08007997WA0118201226003036004000
B1714263728290N08007990WA0118301226003050003000
B1714273728304N08007980WA0118401227003057003000
B1714283728318N08007967WA0118001226003064003000
B1714293728331N08007952WA0118001225003069003000
B1714303728342N08007934WA0117901224002071003000
B1714313728352N08007915WA0118001224002076003000
B1714323728360N08007894WA0118101224002076003000
B1714333728367N08007872WA0118101225002076003000
B1714343728373N08007849WA0118101225002079003000
B1714353728377N08007826WA0118001225002079003000
B1714363728380N08007802WA0118001225002079003000
B1714373728381N08007777WA0117901224002081003000
B1714383728381N08007752WA0117801223002083003000
B1714393728379N08007727WA0117701222002086003000
B1714403728377N08007703WA0117701221002093003000
B1714413728373N08007678WA0117601221002097003000
B1714423728367N08007654WA0117501220002097003000
B1714433728360N08007631WA0117401218002097003000
B1714443728350N08007609WA0117001216002093003000
B1714453728338N08007590WA0117201214002088003000
B1714463728323N08007573WA0117501215002083003000
B1714473728308N08007559WA0117701216002076003000
B1714483728291N08007549WA0117701218002072003000
B1714493728273N08007541WA0117701220002060003000
B1714503728256N08007537WA0117401220002051003000
B1714513728238N08007534WA0117601219002041003000
B1714523728220N08007533WA0117501218002036003000
B1714533728203N08007534WA0117301217002043003000
B1714543728185N08007538WA0117201216002053003000
B1714553728169N08007543WA0117201216002064003000
B1714563728153N08007549WA0117301217002071003000
B1714573728137N08007556WA0117501218002069003000
B1714583728121N08007563WA0117401218002060003000
B1714593728106N08007571WA0117401218002050003000
B1715003728091N08007579WA0117501219002041003000
B1715013728076N08007587WA0117401218002044003000
B1715023728060N08007595WA0117301218002051003000
B1715033728045N08007602WA0117201218002051003000
B1715043728029N08007610WA0117301217002053003000
B1715053728014N08007617WA0117401217002048003000
B1715063727998N08007625WA0117401218002041003000
B1715073727983N08007633WA0117201218002034003000
B1715083727968N08007641WA0117201217002023003000
B1715093727953N08007650WA0117201216002011003000
B1715103727938N08007658WA0117101215002004003000
B1715113727923N08007667WA0116901215002006003000
B1715123727907N08007675WA0117001214002009003000
B1715133727892N08007683WA0117001213002013003000
B1715143727876N08007691WA0116701213002018003000
B1715153727861N08007699WA0116601212002029003000
B1715163727845N08007706WA0116301210002043003000
B1715173727830N08007714WA0116201208002057003000
B1715183727814N08007721WA0116001207002072003000
B1715193727799N08007729WA0115701204002074003000
B1715203727783N08007737WA0115401202002074003000
B1715213727767N08007745WA0115101198002069003000
B1715223727750N08007753WA0115301196002062003000
B1715233727732N08007761WA0115001195002055003000
B1715243727715N08007768WA0115001195002048003000
B1715253727697N08007776WA0115001195002041003000
B1715263727679N08007784WA0115001194002032003000
B1715273727661N08007791WA0114901193002025003000
B1715283727644N08007799WA0115001193002020003000
B1715293727626N08007808WA0115101193002018003000
B1715303727609N08007816WA0115301195002015003000
B1715313727591N08007825WA0115401196002013003000
B1715323727574N08007833WA0115301197002009003000
B1715333727557N08007842WA0115301198002004003000
B1715343727540N08007851WA0115501198002002003000
B1715353727523N08007860WA0115501199002000003000
B1715363727507N08007870WA0115301199002000003000
B1715373727491N08007881WA0115201198002002003000
B1715383727476N08007891WA0115301197002004003000
B1715393727461N08007903WA0115401197002002003000
B1715403727447N08007915WA0115601198002006003000
B1715413727433N08007927WA0116101200002013003000
B1715423727419N08007939WA0116101202002023003000
B1715433727405N08007951WA0116001204002039003000
B1715443727391N08007963WA0116001204002043003000
B1715453727378N08007976WA0116201205002041003000
B1715463727366N08007991WA0116001205002032003000
B1715473727355N08008006WA0115801205002020003000
B1715483727347N08008022WA0116001204002015003000
B1715493727342N08008039WA0115901204002015003000
B1715503727340N08008057WA0115901204002020003000
B1715513727341N08008074WA0116001204002022003000
B1715523727346N08008089WA0116101204002027003000
B1715533727353N08008101WA0116401205003029003000
B1715543727364N08008110WA0116501207003032004000
B1715553727376N08008115WA0116201208003039003000
B1715563727389N08008118WA0116101207003041003000
B1715573727403N08008116WA0116001206003046003000
B1715583727418N08008111WA0116001205003048003000
B1715593727432N08008103WA0115801203003048003000
B1716003727445N08008092WA0116001202003050003000
B1716013727457N08008077WA0115901201003050003000
B1716023727469N08008061WA0115501201002048003000
B1716033727480N08008043WA0115201199002043003000
B1716043727491N08008024WA0115201197002036003000
B1716053727502N08008006WA0115101196002036003000
B1716063727513N08007986WA0114701194002043003000
B1716073727524N08007967WA0114601191002055003000
B1716083727535N08007947WA0114601190002069003000
B1716093727546N08007926WA0114401189002079003000
B1716103727556N08007906WA0114201187002086003000
B1716113727566N08007885WA0114301185002086003000
B1716123727576N08007864WA0114101185002078003000
B1716133727586N08007842WA0114701185002064003000
B1716143727596N08007821WA0114201186002050003000
B1716153727607N08007800WA0114401186002039003000
B1716163727618N08007780WA0114601187002034003000
B1716173727629N08007760WA0114901189002034003000
B1716183727642N08007742WA0115101192002032003000
B1716193727654N08007724WA0115101194002034003000
B1716203727666N08007706WA0115001195002034003000
B1716213727677N08007687WA0114901194002034003000
B1716223727688N08007667WA0114801194002034003000
B1716233727698N08007646WA0114701193002029003000
B1716243727708N08007624WA0114701192002022003000
B1716253727719N08007604WA0114901192002013003000
B1716263727730N08007585WA0114901192002006003000
B1716273727743N08007567WA0114601192002000003000
B1716283727756N08007550WA0114601191002000003000
B1716293727769N08007534WA0114501190002000003000
B1716303727783N08007519WA0114401188002000003000
B1716313727798N08007506WA0114401188002006003000
B1716323727813N08007493WA0114201187002006003000
B1716333727829N08007481WA0114101187002011003000
B1716343727845N08007470WA0114501186002009003000
B1716353727861N08007460WA0114501188002006003000
B1716363727878N08007451WA0114401189002013003000
B1716373727895N08007442WA0114501190002015003000
B1716383727912N08007433WA0114701190002015003000
B1716393727930N08007424WA0114901192002013003000
B1716403727947N08007416WA0114901193002006003000
B1716413727965N08007408WA0115101194002002003000
B1716423727983N08007400WA0115001194002002003000
B1716433728001N08007392WA0115001194002002003000
B1716443728019N08007383WA0114701194002002003000
B1716453728037N08007375WA0114601193002004003000
B1716463728056N08007366WA0114701191002009003000
B1716473728075N08007357WA0114601190002020003000
B1716483728094N08007349WA0114601190002027003000
B1716493728113N08007341WA0114601189002031003000
B1716503728133N08007333WA0114501189002034003000
B1716513728152N08007325WA0114501189002029003000
B1716523728172N08007317WA0114401189002027003000
B1716533728192N08007309WA0114301189002022003000
B1716543728211N08007301WA0114501188002015003000
B1716553728231N08007293WA0114601189002009003000
B1716563728250N08007285WA0114701189002004003000
B1716573728270N08007281WA0114901191002002003000
B1716583728287N08007283WA0115001193003000003000
B1716593728302N08007291WA0115501195003000004000
B1717003728312N08007305WA0115701197003002004000
B1717013728316N08007321WA0115701199003006004000
B1717023728315N08007337WA0115401200003016004000
B1717033728309N08007353WA0115201198003025004000
B1717043728300N08007366WA0114701195003032004000
B1717053728287N08007377WA0114501191003034004000
B1717063728273N08007384WA0114001186003029004000
B1717073728257N08007388WA0113401181003027004000
B1717083728240N08007390WA0112801176003029004000
B1717093728222N08007390WA0111901169003039004000
B1717103728203N08007389WA0111601162003050004000
B1717113728183N08007384WA0111001156003053004000
B1717123728163N08007377WA0110401152003051004000
B1717133728143N08007367WA0110201147003041004000
B1717143728122N08007358WA0110001143002029003000
B1717153728101N08007347WA0109601141002022003000
B1717163728080N08007337WA0109001137002015003000
B1717173728059N08007327WA0108901134002011003000
B1717183728038N08007317WA0108901132002009003000
B1717193728017N08007307WA0109101132002013003000
B1717203727996N08007297WA0109201133002015003000
B1717213727975N08007287WA0109201135002018003000
B1717223727954N08007277WA0109701136002018003000
B1717233727934N08007266WA0110201140002011003000
B1717243727916N08007253WA0111001145002006003000
B1717253727900N08007237WA0111401152002002003000
B1717263727886N08007217WA0111901158003000004000
B1717273727878N08007194WA0112601164003000004000
B1717283727876N08007169WA0113401172003002004000
B1717293727882N08007145WA0113701178003002004000
B1717303727892N08007124WA0113801184003002004000
B1717313727907N08007108WA0113901187003002004000
B1717323727925N08007101WA0113801187003004004000
B1717333727943N08007102WA0113801187003016004000
B1717343727960N08007111WA0113701186004027004000
B1717353727974N08007126WA0113401184004046004000
B1717363727982N08007146WA0113201182004062004000
B1717373727986N08007168WA0113101180004067004000
B1717383727985N08007190WA0112701177003072004000
B1717393727979N08007211WA0112601174003067004000
B1717403727970N08007230WA0112301173003055004000
B1717413727958N08007247WA0112101171002048004000
B1717423727943N08007261WA0111801168002043003000
B1717433727926N08007272WA0111701165002048003000
B1717443727908N08007277WA0111601163002053003000
B1717453727888N08007274WA0111601162002057004000
B1717463727870N08007265WA0111601162003062004000
F1717464405241015132918202351
B1717473727855N08007248WA0111801163003060004000
F17174705241015132918202351
B1717483727845N08007227WA0112201165003060004000
B1717493727839N08007201WA0112701168004053004000
B1717503727841N08007175WA0113301173004041005000
B1717513727849N08007150WA0113401178004029004000
B1717523727862N08007130WA0113901182004015004000
B1717533727880N08007117WA0114501186003009004000
B1717543727900N08007111WA0114501190003009004000
B1717553727920N08007112WA0114301191003013004000
B1717563727939N08007120WA0114301192003027004000
B1717573727955N08007133WA0114201191003036004000
B1717583727969N08007150WA0114101190003041004000
B1717593727978N08007170WA0113801188003050004000
B1718003727984N08007192WA0113901187003053004000
B1718013727984N08007214WA0113801186003060004000
B1718023727981N08007236WA0113601185003067004000
B1718033727974N08007257WA0113501185003067004000
B1718043727965N08007277WA0113301183003072004000
B1718053727954N08007295WA0113101182002076004000
B1718063727941N08007311WA0112801179002076004000
B1718073727926N08007325WA0112301176002074004000
B1718083727909N08007338WA0112501173002069004000
B1718093727891N08007345WA0112601172003065004000
B1718103727871N08007347WA0112701173003067004000
B1718113727851N08007341WA0112901174003067004000
B1718123727831N08007330WA0112801175003067004000
B1718133727815N08007313WA0112801175003064005000
B1718143727802N08007291WA0113101175004055005000
B1718153727794N08007266WA0113301176003048005000
B1718163727793N08007238WA0113601179004046005000
B1718173727797N08007212WA0113901182004053005000
B1718183727807N08007188WA0114401186003065004000
F1718180524101513442918202351
B1718193727820N08007167WA0114701190003076004000
B1718203727835N08007151WA0114901193003076004000
B1718213727853N08007139WA0115001196003065004000
B1718223727872N08007132WA0115401199003050004000
B1718233727891N08007130WA0115501201003034004000
B1718243727910N08007134WA0115801204003020004000
B1718253727927N08007145WA0116101206003011004000
B1718263727939N08007162WA0116201208003006004000
B1718273727945N08007182WA0116301209003006004000
B1718283727944N08007202WA0116301210003011004000
B1718293727937N08007220WA0116301210003013004000
B1718303727924N08007234WA0116101209003020004000
B1718313727909N08007240WA0116101208003025004000
B1718323727892N08007239WA0115901206003027004000
B1718333727874N08007233WA0115501203003032004000
B1718343727857N08007222WA0115001199003034004000
B1718353727842N08007207WA0115001196003041004000
B1718363727828N08007187WA0114801194003050004000
B1718373727817N08007164WA0114901192003055004000
B1718383727809N08007138WA0114501192003053004000
B1718393727805N08007111WA0115101192003041005000
B1718403727807N08007084WA0115301195003029004000
B1718413727816N08007059WA0115601199003029004000
B1718423727831N08007041WA0116101203003036004000
B1718433727849N08007031WA0116401206003048004000
B1718443727868N08007028WA0116401209003065004000
B1718453727887N08007033WA0116701211003079004000
B1718463727904N08007045WA0116901213003081004000
B1718473727917N08007061WA0117001214003076004000
B1718483727926N08007081WA0117101215003067004000
B1718493727930N08007102WA0117101216003048005000
B1718503727927N08007123WA0117301217003041005000
B1718513727918N08007140WA0117301218003043004000
B1718523727904N08007153WA0117301218003053004000
B1718533727888N08007158WA0117301218003067004000
B1718543727869N08007157WA0117401217003074004000
B1718553727851N08007150WA0117201217003076004000
B1718563727834N08007137WA0117301217003079004000
B1718573727820N08007119WA0117101216003074004000
F17185705241015132918202351
B1718583727808N08007097WA0116901214003067005000
B1718593727800N08007072WA0117401215003060004000
B1719003727798N08007045WA0117601218003043005000
B1719013727802N08007019WA0117701220003036004000
B1719023727811N08006996WA0118001223003029004000
B1719033727826N08006979WA0118501227003025004000
B1719043727844N08006971WA0118801231003029005000
B1719053727863N08006972WA0119201234003036004000
B1719063727881N08006980WA0119101236003048004000
B1719073727896N08006994WA0119201237003053004000
F1719070524101513442918202351
B1719083727907N08007012WA0119201237003051005000
B1719093727914N08007033WA0119301238003046005000
B1719103727914N08007055WA0119201238003041005000
B1719113727909N08007076WA0119301239003039005000
B1719123727900N08007095WA0119501240003036004000
B1719133727886N08007107WA0119501241003029004000
B1719143727868N08007112WA0119701242003031004000
B1719153727849N08007109WA0119801243003041005000
F17191505241513442918202351
B1719163727832N08007099WA0119801243003046005000
B1719173727816N08007083WA0119501242003050005000
B1719183727804N08007063WA0119401239003046005000
B1719193727796N08007038WA0119501239003036005000
B1719203727793N08007011WA0119501239003029005000
F1719200524101513442918202351
B1719213727797N08006984WA0119701241003027005000
B1719223727806N08006959WA0120001243003029004000
B1719233727820N08006939WA0120301246003032004000
B1719243727837N08006925WA0120901249003039004000
B1719253727857N08006918WA0120901253003043004000
B1719263727877N08006916WA0120901255003043004000
B1719273727896N08006920WA0121201256003048004000
B1719283727914N08006930WA0121101258003048004000
B1719293727929N08006945WA0121001258003046004000
B1719303727941N08006963WA0120801256003046005000
B1719313727949N08006984WA0120901255003048005000
B1719323727951N08007006WA0120801255003050005000
B1719333727948N08007028WA0121001256003050005000
B1719343727939N08007048WA0121001256003046005000
B1719353727926N08007063WA0121001257003039004000
B1719363727910N08007072WA0121001256003032004000
F17193605241015132918202351
B1719373727892N08007075WA0120901255003029005000
B1719383727873N08007073WA0120701253003032005000
B1719393727854N08007064WA0120301250003036005000
B1719403727837N08007051WA0120001247003041005000
B1719413727821N08007032WA0120001245003048005000
B1719423727809N08007009WA0120001244003057005000
B1719433727800N08006984WA0120101244003057005000
B1719443727796N08006957WA0120101245003055005000
B1719453727795N08006928WA0120301247003046005000
B1719463727799N08006901WA0120701250003029005000
B1719473727808N08006875WA0121001253003022005000
B1719483727820N08006854WA0121201256003022004000
F171948052410151329182351
B1719493727837N08006838WA0121601259003027004000
B1719503727856N08006831WA0121701262003032005000
B1719513727875N08006832WA0121901264003029005000
B1719523727893N08006841WA0122001266003027005000
B1719533727907N08006857WA0122101267003029005000
B1719543727915N08006877WA0122201267003039005000
B1719553727918N08006899WA0122101268003046005000
B1719563727917N08006922WA0121801267003048005000
F17195605241015132918202351
B1719573727911N08006944WA0121601265003043005000
B1719583727901N08006965WA0121501263003032005000
B1719593727887N08006982WA0121301262003027005000
B1720003727870N08006994WA0121401262003027004000
B1720013727851N08007000WA0121501262003036004000
B1720023727831N08006999WA0121501262003050005000
B1720033727811N08006991WA0121501262003065005000
B1720043727793N08006978WA0121401261003079005000
B1720053727778N08006959WA0121601261003086005000
B1720063727766N08006935WA0121901262003083005000
B1720073727759N08006909WA0122301265003074005000
B1720083727758N08006881WA0122901269003062005000
B1720093727764N08006855WA0123201273003055005000
B1720103727775N08006832WA0123401277003048005000
B1720113727791N08006814WA0123501280003043005000
B1720123727809N08006802WA0123201281003036004000
B1720133727828N08006795WA0123201281003022004000
B1720143727849N08006796WA0123301280003015005000
B1720153727868N08006803WA0123401280003015005000
B1720163727884N08006816WA0123601281003022005000
B1720173727897N08006835WA0123701282003039005000
B1720183727906N08006856WA0123701283003055005000
B1720193727912N08006879WA0123401282003062005000
B1720203727915N08006902WA0123501281003060005000
B1720213727915N08006926WA0123601281003048005000
B1720223727911N08006949WA0123601282003041005000
B1720233727905N08006971WA0123801282003043005000
B1720243727897N08006992WA0124201284003048005000
B1720253727886N08007011WA0124101287003050005000
B1720263727875N08007029WA0124001288003048005000
B1720273727863N08007045WA0123801287003048005000
B1720283727850N08007061WA0123401284003046005000
B1720293727837N08007075WA0123201281003050005000
B1720303727823N08007089WA0123001278003055005000
B1720313727808N08007102WA0122601276003055005000
B1720323727792N08007114WA0122701273003055005000
B1720333727776N08007125WA0122401271003050005000
B1720343727760N08007135WA0122201270003050005000
B1720353727743N08007144WA0122301269003048005000
B1720363727727N08007154WA0122201268003046005000
B1720373727710N08007163WA0121701266003046005000
B1720383727694N08007173WA0121701264003039005000
B1720393727678N08007183WA0122101263003032005000
B1720403727662N08007192WA0122101264003027005000
B1720413727646N08007202WA0121901264003018004000
B1720423727630N08007213WA0122001264003011004000
B1720433727614N08007224WA0122001264003006004000
B1720443727599N08007236WA0122001264003016004000
B1720453727584N08007249WA0121901264003029004000
B1720463727570N08007263WA0121501263003043004000
B1720473727556N08007278WA0121201260003052004000
B1720483727542N08007294WA0120801256003052004000
B1720493727528N08007310WA0120601252003057004000
B1720503727513N08007326WA0119901248003060004000
B1720513727498N08007343WA0119401243003064004000
B1720523727482N08007360WA0118901238003060004000
B1720533727465N08007376WA0118701233003053004000
B1720543727448N08007392WA0118701230003046004000
B1720553727430N08007409WA0119001230003036004000
B1720563727411N08007425WA0119101231003034004000
B1720573727392N08007441WA0119001233003025004000
B1720583727375N08007458WA0119301235003020004000
B1720593727360N08007479WA0119501237003015004000
B1721003727351N08007502WA0120501240003011004000
B1721013727349N08007526WA0121301247003013005000
B1721023727355N08007550WA0121901257003009005000
B1721033727365N08007570WA0122801266003006005000
B1721043727380N08007585WA0123201273003004005000
B1721053727397N08007594WA0123401278003000005000
B1721063727415N08007597WA0123601281004000005000
B1721073727433N08007591WA0124001283004000005000
B1721083727450N08007577WA0124301286004000005000
B1721093727463N08007558WA0124401289004000005000
B1721103727472N08007535WA0124601290003000005000
B1721113727475N08007510WA0124701291003000005000
B1721123727473N08007485WA0125201293003000005000
B1721133727465N08007462WA0125401295003000005000
B1721143727451N08007444WA0125701298003000005000
B1721153727434N08007433WA0125901300003000005000
B1721163727414N08007430WA0126601304003000005000
B1721173727395N08007435WA0126801307003000005000
B1721183727377N08007446WA0127201311003000005000
B1721193727363N08007462WA0127701313003000005000
B1721203727354N08007482WA0127901317003000005000
B1721213727351N08007505WA0128201320003000005000
B1721223727353N08007527WA0128601324003004005000
B1721233727359N08007548WA0128901328003013005000
B1721243727370N08007565WA0129201332003020005000
B1721253727384N08007578WA0129401335003022005000
B1721263727400N08007586WA0130001338003013005000
B1721273727417N08007588WA0130201342003006005000
B1721283727434N08007583WA0130501345003002005000
B1721293727450N08007573WA0131101348003000005000
B1721303727462N08007556WA0131401352003000005000
B1721313727471N08007535WA0131701356003000005000
B1721323727475N08007512WA0131901359003000005000
B1721333727474N08007488WA0132001361003000005000
B1721343727468N08007465WA0132601363003002005000
B1721353727457N08007445WA0133201368003000005000
B1721363727442N08007431WA0134001374003000005000
B1721373727425N08007423WA0134601380003000005000
B1721383727407N08007422WA0134701385003000005000
B1721393727389N08007427WA0135001388003000005000
B1721403727374N08007437WA0135101390003000005000
B1721413727362N08007453WA0135301392003000005000
B1721423727355N08007473WA0135401394003000005000
B1721433727353N08007494WA0135501395003000005000
B1721443727357N08007514WA0135701397003000005000
B1721453727365N08007533WA0135901399003000005000
B1721463727377N08007547WA0136501402003000005000
B1721473727391N08007556WA0137101407003000005000
B1721483727407N08007560WA0137601413003000005000
B1721493727423N08007557WA0138001418003000005000
B1721503727438N08007549WA0138501423003000005000
B1721513727451N08007535WA0139301428003000005000
B1721523727460N08007516WA0139801434003000005000
B1721533727465N08007495WA0139901438003000005000
B1721543727465N08007472WA0140001441003000005000
B1721553727462N08007449WA0140301443003000005000
B1721563727453N08007428WA0140701446003000005000
B1721573727440N08007411WA0141301450003000005000
B1721583727423N08007402WA0142001456003000005000
B1721593727405N08007400WA0142601461003000005000
B1722003727388N08007404WA0143101467003000005000
B1722013727374N08007414WA0143601472003000005000
B1722023727362N08007429WA0143901477003000005000
F172202052410151329182351
B1722033727355N08007446WA0144301481003000005000
B1722043727352N08007463WA0144301483003000005000
F17220405241015132918202351
B1722053727353N08007481WA0144401485003000005000
B1722063727358N08007496WA0144601487003000005000
B1722073727368N08007508WA0145001489003000005000
B1722083727380N08007515WA0145301493003000005000
B1722093727393N08007518WA0145601496003000005000
B1722103727407N08007516WA0146201501003000005000
B1722113727420N08007510WA0146301504003000005000
B1722123727433N08007499WA0146401507003000005000
B1722133727443N08007485WA0146801509003000005000
B1722143727451N08007466WA0146801511003000005000
B1722153727456N08007445WA0147401514003000005000
B1722163727457N08007422WA0147801517003000005000
B1722173727454N08007398WA0148101520003000005000
B1722183727447N08007376WA0148501523003000005000
B1722193727437N08007356WA0149001528003000005000
B1722203727423N08007341WA0150201535003000005000
B1722213727407N08007332WA0150901544003000005000
B1722223727390N08007328WA0151401551003000005000
B1722233727373N08007331WA0151901557003000005000
B1722243727358N08007339WA0152101561003000005000
B1722253727345N08007351WA0152401564003000005000
B1722263727337N08007367WA0152401566003000005000
F172226052410151329182351
B1722273727333N08007385WA0152701568003000005000
B1722283727333N08007403WA0152801570003000005000
F17222805241015132918202351
B1722293727337N08007420WA0153101573003006005000
B1722303727344N08007435WA0153401576003013005000
B1722313727354N08007447WA0153801579003009005000
B1722323727367N08007454WA0154201583003002005000
B1722333727381N08007458WA0154201586003000005000
B1722343727395N08007458WA0154301588003000005000
B1722353727409N08007453WA0154101588003000005000
B1722363727423N08007444WA0154101587003002005000
B1722373727435N08007431WA0154101587003013005000
B1722383727445N08007415WA0154101587003025005000
B1722393727452N08007397WA0154101587003041005000
B1722403727456N08007376WA0154201587003051005000
B1722413727458N08007354WA0154301587003051005000
B1722423727457N08007330WA0154301588003046005000
B1722433727453N08007307WA0154601589003034005000
B1722443727447N08007284WA0154601590003018005000
B1722453727437N08007263WA0154901591003011005000
B1722463727425N08007244WA0155301594003006005000
B1722473727411N08007228WA0155501597003002005000
B1722483727395N08007216WA0155901600003006005000
B1722493727378N08007209WA0156301604003011005000
B1722503727359N08007207WA0156601608003011005000
B1722513727341N08007209WA0157401613003011005000
B1722523727324N08007217WA0157701619003006005000
B1722533727308N08007228WA0158301624003000005000
B1722543727295N08007242WA0158901630003000005000
B1722553727285N08007260WA0159201634003000005000
F17225505241015134429182351
B1722563727279N08007279WA0159001637003000005000
B1722573727277N08007298WA0159401639003000005000
F1722570524101513442918202351
B1722583727279N08007317WA0159701641003000005000
B1722593727285N08007334WA0160001645003000005000
B1723003727294N08007348WA0160101648003000005000
B1723013727307N08007359WA0160301650003000005000
B1723023727321N08007365WA0160701653003000005000
B1723033727336N08007365WA0161001656003000005000
B1723043727352N08007360WA0161401660003000005000
B1723053727366N08007350WA0161701663003000005000
B1723063727379N08007336WA0161801666003000005000
B1723073727389N08007319WA0162101667003000005000
B1723083727397N08007299WA0161801668003000005000
B1723093727401N08007278WA0161801667003004005000
B1723103727402N08007255WA0162001666003016005000
B1723113727398N08007232WA0162301667003022005000
B1723123727390N08007210WA0162501669003025005000
B1723133727379N08007191WA0162401670003018005000
B1723143727365N08007174WA0162701671003011005000
B1723153727348N08007163WA0163201674003004005000
B1723163727330N08007156WA0163601678003000005000
B1723173727311N08007156WA0164101682003000005000
B1723183727292N08007160WA0164501687003000005000
B1723193727276N08007170WA0165101692003000005000
B1723203727262N08007184WA0165501697003000005000
B1723213727252N08007201WA0166001702003000005000
B1723223727246N08007220WA0166201705003000005000
B1723233727242N08007239WA0166201707003000005000
B1723243727243N08007258WA0166201708003000005000
B1723253727246N08007276WA0166401709003000005000
B1723263727252N08007294WA0166601712003000005000
B1723273727261N08007310WA0166801714003000005000
B1723283727271N08007324WA0166701716003000005000
B1723293727283N08007336WA0166701716003000005000
B1723303727296N08007345WA0166801716003000005000
B1723313727311N08007351WA0166601716003000005000
B1723323727327N08007353WA0166401715003014005000
B1723333727343N08007351WA0166301714003030005000
F17233305241015134429182351
B1723343727358N08007344WA0166201712003046005000
B1723353727373N08007334WA0165801709003043005000
B1723363727385N08007319WA0165501706003041005000
B1723373727396N08007300WA0165701705003039005000
B1723383727403N08007278WA0166001705003039005000
B1723393727407N08007255WA0166201707003048005000
B1723403727409N08007230WA0166601710003062005000
B1723413727410N08007207WA0166501712003072005000
B1723423727409N08007183WA0166701714003079005000
B1723433727406N08007159WA0166901715003079005000
B1723443727401N08007137WA0167101717003067005000
B1723453727395N08007115WA0167601720003055005000
B1723463727387N08007094WA0167701722003041005000
B1723473727377N08007075WA0168101726003025005000
B1723483727366N08007056WA0168501729003013005000
B1723493727353N08007040WA0168501732003002005000
B1723503727339N08007025WA0168601735003000005000
B1723513727323N08007013WA0168601735003000005000
B1723523727305N08007003WA0168301735003002005000
B1723533727287N08006997WA0168201734003006005000
B1723543727268N08006996WA0168301733003006005000
B1723553727250N08007001WA0168301732003006005000
B1723563727234N08007012WA0168401732003009005000
B1723573727220N08007027WA0168901733003018005000
B1723583727209N08007046WA0169001737003027005000
B1723593727201N08007066WA0169501742003032005000
B1724003727198N08007088WA0169701746003027005000
B1724013727198N08007110WA0170201750003016005000
B1724023727203N08007130WA0170501754003004005000
B1724033727212N08007146WA0171001759003000005000
B1724043727225N08007158WA0171401763003000005000
B1724053727240N08007164WA0171901767003000005000
B1724063727255N08007164WA0172001770003000005000
B1724073727271N08007158WA0172301773003000005000
B1724083727285N08007146WA0172601775003000005000
B1724093727296N08007130WA0172701777003000005000
B1724103727304N08007110WA0172901779003000005000
B1724113727306N08007087WA0173401782003000005000
B1724123727303N08007064WA0173501784003000005000
B1724133727295N08007043WA0173701786003000005000
B1724143727283N08007024WA0173701787003000005000
B1724153727267N08007009WA0173701789003000005000
B1724163727249N08006998WA0173901789003000005000
B1724173727230N08006993WA0174001789003000005000
B1724183727211N08006995WA0174601791003000005000
B1724193727193N08007003WA0174801794003000005000
B1724203727178N08007016WA0175201798003000005000
B1724213727167N08007033WA0175801802003000005000
B1724223727159N08007053WA0176201807003000005000
B1724233727155N08007073WA0176501811003000005000
B1724243727155N08007093WA0176801815003000005000
B1724253727158N08007112WA0177201819003000005000
B1724263727165N08007129WA0177301822003000005000
B1724273727174N08007143WA0177701825003000005000
B1724283727186N08007154WA0177901828003000005000
B1724293727200N08007160WA0178201831003000005000
B1724303727215N08007161WA0178601834003000005000
B1724313727230N08007157WA0179101838003000005000
B1724323727244N08007148WA0179601843003000005000
B1724333727255N08007135WA0180001848003000005000
B1724343727264N08007118WA0180201852003000005000
B1724353727269N08007099WA0180601854003000005000
B1724363727272N08007079WA0180601856003000005000
B1724373727271N08007058WA0180601857003000005000
B1724383727267N08007037WA0180901858003000005000
B1724393727260N08007017WA0180801859003000005000
B1724403727250N08006999WA0180901859003000005000
B1724413727236N08006983WA0181101860003000005000
B1724423727221N08006971WA0181101861003000005000
B1724433727203N08006963WA0180901861003004005000
B1724443727185N08006959WA0181001860003011005000
B1724453727166N08006961WA0181301861003013005000
B1724463727149N08006968WA0181301863003011005000
B1724473727134N08006979WA0181701865003006005000
B1724483727122N08006995WA0182101868003006005000
B1724493727114N08007013WA0182201870003009005000
B1724503727109N08007032WA0182301873003009005000
B1724513727109N08007052WA0182301875003009005000
B1724523727111N08007071WA0182601876003002005000
B1724533727118N08007089WA0182801877003000005000
B1724543727127N08007104WA0183001879003000005000
B1724553727138N08007116WA0183201881003000005000
B1724563727152N08007126WA0183201883003000005000
B1724573727166N08007132WA0183401885003000005000
B1724583727181N08007134WA0183601887003000005000
B1724593727197N08007132WA0183701888003000005000
B1725003727212N08007126WA0184001889003000005000
B1725013727226N08007117WA0183801890003002005000
B1725023727239N08007104WA0183601889003023005000
B1725033727251N08007089WA0183501888003048005000
B1725043727260N08007070WA0183401886003065005000
B1725053727266N08007049WA0183501885003069005000
B1725063727269N08007026WA0183601885003069005000
B1725073727270N08007002WA0183701887003057005000
B1725083727269N08006978WA0184001889003046005000
B1725093727265N08006954WA0184401892003034005000
B1725103727261N08006929WA0184601895003020005000
B1725113727255N08006905WA0184701898003013005000
B1725123727249N08006881WA0184701898003006005000
B1725133727241N08006857WA0184901899003004005000
B1725143727230N08006834WA0185401902003002005000
B1725153727216N08006814WA0185801906003000005000
B1725163727200N08006797WA0186101910003000005000
B1725173727182N08006784WA0186401913003000005000
B1725183727163N08006778WA0186701916003000005000
B1725193727144N08006777WA0187001919003000005000
B1725203727126N08006782WA0187301921003007005000
B1725213727111N08006792WA0187401923003023005000
B1725223727099N08006805WA0187701925003041005000
B1725233727092N08006820WA0187401926003057005000
B1725243727089N08006837WA0187501927003062005000
B1725253727089N08006853WA0187601927003069005000
B1725263727093N08006867WA0187501927003071005000
B1725273727100N08006879WA0187501927003069005000
B1725283727110N08006888WA0187601927003071005000
B1725293727122N08006891WA0187501927003076005000
B1725303727135N08006890WA0187401926003083005000
B1725313727149N08006884WA0187101925003095005000
B1725323727162N08006875WA0186901924003104005000
B1725333727175N08006863WA0186901923003100005000
B1725343727188N08006851WA0187101923003090005000
B1725353727201N08006839WA0187101924003074005000
B1725363727214N08006827WA0187401925003053005000
B1725373727228N08006816WA0187401927003039005000
B1725383727241N08006806WA0187601928003025005000
B1725393727255N08006796WA0187901930003015005000
B1725403727270N08006787WA0188201933003011005000
B1725413727284N08006779WA0188401936003009005000
B1725423727298N08006769WA0188401938003013005000
B1725433727312N08006759WA0188601939003013005000
B1725443727326N08006749WA0188601940003013005000
B1725453727340N08006738WA0188701941003013005000
B1725463727354N08006725WA0188701941003006005000
B1725473727367N08006711WA0188801941003004005000
B1725483727380N08006696WA0188901941003011005000
B1725493727392N08006679WA0188701942003018005000
B1725503727405N08006663WA0188601941003027005000
B1725513727418N08006646WA0188501940003037005000
B1725523727431N08006629WA0188801939003039005000
B1725533727445N08006612WA0188401939003041005000
B1725543727459N08006596WA0188201938003041005000
B1725553727473N08006579WA0187901936003039005000
B1725563727488N08006564WA0187901934003032005000
B1725573727503N08006549WA0187701933003027005000
B1725583727519N08006536WA0187601932003024005000
B1725593727536N08006524WA0187501930003027005000
B1726003727553N08006513WA0187201928003034005000
B1726013727570N08006504WA0186801925003041005000
B1726023727588N08006494WA0186301921003050005000
B1726033727607N08006486WA0185801917003060005000
B1726043727626N08006478WA0185401913003062005000
B1726053727646N08006471WA0185001909003057005000
B1726063727666N08006463WA0184701905003053005000
B1726073727686N08006456WA0184201901003041005000
B1726083727707N08006448WA0183801896003034005000
B1726093727728N08006441WA0183301892003027005000
B1726103727750N08006433WA0182901888003018005000
B1726113727772N08006425WA0182701884003011005000
B1726123727794N08006418WA0182301881003002005000
B1726133727816N08006410WA0182101878003000005000
B1726143727839N08006402WA0181801875003000005000
B1726153727862N08006395WA0181601873003000005000
B1726163727885N08006387WA0181301871003000005000
B1726173727908N08006379WA0181301869003000005000
B1726183727931N08006371WA0181001868003000005000
B1726193727954N08006363WA0180901866003011005000
B1726203727977N08006354WA0180701865003020005000
B1726213728000N08006346WA0180701864003029005000
B1726223728023N08006339WA0180601863003036005000
B1726233728046N08006333WA0180401862003036005000
B1726243728069N08006326WA0180301860003039005000
B1726253728091N08006320WA0179801858003039005000
B1726263728114N08006313WA0179801855003034005000
B1726273728137N08006307WA0179601854003029005000
B1726283728159N08006300WA0179601852003022005000
B1726293728182N08006293WA0179501852003015005000
B1726303728204N08006287WA0179601851003009005000
B1726313728226N08006280WA0179501851003004005000
B1726323728247N08006273WA0179301850003000005000
B1726333728269N08006265WA0179401849003000005000
B1726343728290N08006257WA0179201848003000005000
B1726353728311N08006250WA0179101847003000005000
B1726363728333N08006243WA0179001846003000005000
B1726373728354N08006236WA0179001845003000005000
B1726383728375N08006229WA0178601843003000005000
B1726393728397N08006223WA0178301840003000005000
B1726403728418N08006216WA0178201838003000005000
B1726413728440N08006211WA0178101837003000005000
B1726423728461N08006205WA0177901835003000005000
B1726433728483N08006198WA0178001835003000005000
B1726443728504N08006192WA0178101835003000005000
B1726453728526N08006186WA0178001835003000005000
B1726463728547N08006181WA0178001835003000005000
B1726473728568N08006175WA0177801835003002005000
B1726483728589N08006169WA0177801834003002005000
B1726493728610N08006163WA0177801833003002005000
B1726503728630N08006158WA0177601833003002005000
B1726513728651N08006152WA0177601831003000005000
B1726523728672N08006147WA0177501830003000005000
B1726533728692N08006142WA0177401829003000005000
B1726543728713N08006136WA0177201827003000005000
B1726553728733N08006131WA0177101826003000005000
B1726563728754N08006125WA0177001825003000005000
B1726573728774N08006119WA0177001824003000005000
B1726583728795N08006113WA0176801824003000005000
B1726593728815N08006107WA0176601823003000005000
B1727003728836N08006102WA0176601822003000005000
B1727013728856N08006096WA0176601822003000005000
B1727023728876N08006091WA0176401821003000005000
B1727033728897N08006086WA0176201819003000005000
B1727043728917N08006081WA0176201818003000004000
F1727040524101513442918272351
B1727053728938N08006076WA0176101816003000004000
B1727063728958N08006071WA0176001815003000004000
B1727073728979N08006066WA0175901814003000004000
B1727083728999N08006060WA0175701813003000004000
B1727093729019N08006055WA0175601811003000004000
B1727103729040N08006048WA0175401810003000004000
B1727113729060N08006041WA0175401809003000004000
B1727123729080N08006034WA0175301808003000004000
B1727133729100N08006027WA0175001807003000004000
B1727143729121N08006019WA0174901805003000004000
B1727153729141N08006012WA0174801804003000004000
B1727163729161N08006005WA0174801803003000004000
B1727173729181N08005998WA0174701802003000004000
B1727183729202N08005991WA0174501801003000004000
B1727193729222N08005985WA0174201799003000004000
B1727203729243N08005978WA0173901796003000004000
B1727213729264N08005972WA0173701794003000004000
B1727223729285N08005966WA0173401792003000004000
B1727233729306N08005961WA0173201789003000004000
B1727243729328N08005955WA0173001787003000004000
B1727253729349N08005949WA0172801785003000004000
B1727263729371N08005943WA0172501783003000004000
B1727273729393N08005937WA0172201780003000004000
B1727283729416N08005931WA0172001778003000004000
B1727293729438N08005925WA0171701775003000004000
B1727303729461N08005920WA0171601773003000004000
B1727313729484N08005914WA0171401771003000004000
B1727323729506N08005908WA0171201769003009004000
B1727333729529N08005903WA0170801767003013004000
B1727343729552N08005897WA0170601764003015004000
B1727353729575N08005892WA0170601763003013004000
B1727363729598N08005886WA0170501761003011004000
B1727373729621N08005880WA0170201759003006004000
B1727383729643N08005875WA0170001757003002004000
B1727393729666N08005870WA0169901756003000004000
B1727403729689N08005867WA0169801754003000004000
B1727413729712N08005866WA0169601753003000004000
B1727423729735N08005867WA0169501752003000004000
B1727433729758N08005869WA0169401751003000004000
B1727443729780N08005872WA0169301750003000004000
B1727453729803N08005874WA0169301749003000004000
B1727463729826N08005876WA0169301749003000004000
B1727473729848N08005879WA0169601750003004004000
B1727483729870N08005881WA0169701751003004004000
B1727493729892N08005883WA0169901753003004004000
B1727503729914N08005886WA0169801754003002004000
B1727513729935N08005888WA0169901754003000004000
B1727523729957N08005891WA0169901755003000004000
B1727533729978N08005894WA0169901755003000004000
B1727543729999N08005897WA0169801755003000004000
B1727553730020N08005901WA0169501754003002004000
B1727563730042N08005904WA0169301752003009004000
B1727573730063N08005908WA0169101749003018004000
B1727583730085N08005911WA0168801747003025004000
B1727593730107N08005915WA0168701746003029004000
B1728003730129N08005919WA0168601744003029004000
B1728013730151N08005923WA0168501742003027004000
B1728023730172N08005929WA0168401741003022004000
B1728033730194N08005934WA0168401741003018004000
B1728043730215N08005941WA0168501741003013004000
B1728053730236N08005947WA0168401740003006004000
B1728063730257N08005954WA0168101739003004004000
B1728073730277N08005960WA0167801737003000004000
B1728083730298N08005967WA0167601735003000004000
B1728093730320N08005973WA0167401733003000004000
B1728103730341N08005977WA0167201731003000004000
B1728113730363N08005981WA0166901728003000004000
B1728123730385N08005984WA0166601726003000004000
B1728133730407N08005986WA0166501723003000004000
B1728143730429N08005988WA0166401721003000004000
B1728153730451N08005990WA0166301720003000004000
B1728163730473N08005992WA0166301719003000004000
B1728173730495N08005994WA0166101718003000004000
B1728183730517N08005995WA0166201718003000004000
B1728193730539N08005997WA0166301718003000004000
B1728203730561N08005998WA0166201718003000004000
B1728213730582N08005999WA0166101718003000004000
B1728223730604N08006001WA0165901717003000004000
B1728233730625N08006002WA0165501715003000004000
B1728243730647N08006002WA0165201712003000004000
B1728253730668N08006003WA0164901708003000004000
B1728263730690N08006003WA0164901705003000004000
B1728273730712N08006002WA0164801704003000004000
B1728283730734N08006001WA0164801704003000004000
B1728293730756N08006000WA0164701703003000004000
B1728303730778N08005999WA0164701703003000004000
B1728313730799N08005997WA0164901703003000004000
B1728323730820N08005996WA0164901703003000004000
B1728333730841N08005994WA0164901704003000004000
B1728343730862N08005992WA0165001704003000004000
B1728353730883N08005989WA0165001705003000004000
B1728363730903N08005987WA0165101706003000004000
B1728373730923N08005984WA0165201706003000004000
B1728383730942N08005982WA0165101706003000004000
B1728393730962N08005979WA0165101706003000004000
B1728403730981N08005976WA0165301706003000004000
B1728413731000N08005972WA0165201706003000004000
B1728423731019N08005969WA0165201707003000004000
B1728433731038N08005965WA0165301708003000004000
B1728443731056N08005961WA0165501709003000004000
B1728453731074N08005957WA0165501710003000004000
B1728463731092N08005952WA0165701710003000004000
B1728473731110N08005948WA0165601711003000004000
B1728483731127N08005943WA0165501710003002004000
B1728493731145N08005939WA0165701710003000004000
B1728503731162N08005934WA0165701711003000004000
B1728513731179N08005929WA0165701711003000004000
B1728523731196N08005925WA0165601711003000004000
B1728533731213N08005920WA0165601711003000004000
B1728543731230N08005915WA0165501710003000004000
B1728553731246N08005910WA0165501709003009004000
B1728563731263N08005905WA0165601709003015004000
B1728573731279N08005899WA0165401709003018004000
B1728583731296N08005894WA0165301708003015004000
B1728593731312N08005888WA0165201706003009004000
B1729003731329N08005883WA0164901705003002004000
B1729013731345N08005877WA0164601702003000004000
B1729023731362N08005872WA0164201699003000004000
B1729033731379N08005865WA0164001695003000004000
B1729043731396N08005858WA0163501692003011004000
B1729053731413N08005850WA0163401688003027004000
B1729063731431N08005841WA0162901685003041004000
B1729073731448N08005831WA0162501681003053004000
B1729083731465N08005819WA0162301678003053004000
B1729093731482N08005804WA0162101676003048004000
B1729103731497N08005787WA0161801673003044004000
B1729113731510N08005767WA0161401670003037004000
B1729123731523N08005745WA0161101666003037004000
B1729133731533N08005721WA0160801664003039004000
B1729143731542N08005695WA0160501661003036004000
B1729153731550N08005668WA0160201657003032004000
B1729163731556N08005640WA0159901654003025004000
B1729173731563N08005611WA0159601651003013004000
B1729183731568N08005582WA0159401648003004004000
B1729193731573N08005553WA0159001645003000004000
B1729203731578N08005524WA0158901643003000004000
B1729213731583N08005494WA0158801641003000004000
B1729223731587N08005465WA0158501639003000004000
B1729233731591N08005435WA0158301637003000004000
B1729243731595N08005406WA0158001634003000004000
B1729253731599N08005377WA0157701631003000004000
B1729263731603N08005348WA0157501628003000004000
B1729273731607N08005319WA0157501626003000004000
B1729283731610N08005289WA0157401626003000004000
B1729293731613N08005259WA0157101625003000004000
B1729303731615N08005230WA0156901623003000004000
B1729313731618N08005200WA0156901621003000004000
B1729323731620N08005170WA0156901621003000004000
B1729333731623N08005140WA0156801620003002004000
B1729343731626N08005110WA0156701619003004004000
B1729353731629N08005080WA0156501618003011004000
B1729363731632N08005051WA0156701617003015004000
B1729373731635N08005021WA0156801617003015004000
B1729383731639N08004992WA0156801619003013004000
B1729393731642N08004963WA0156901620003004004000
B1729403731645N08004934WA0157001620003000004000
B1729413731649N08004905WA0156801620003000004000
B1729423731653N08004877WA0156701619003000004000
B1729433731657N08004848WA0156701618003000004000
B1729443731661N08004820WA0156701618003000004000
B1729453731665N08004792WA0156801618003000004000
B1729463731670N08004763WA0156601618003000004000
B1729473731674N08004735WA0156401618003000004000
B1729483731679N08004707WA0156401617003000004000
B1729493731683N08004679WA0156301615003000004000
B1729503731688N08004651WA0156301614003000004000
B1729513731693N08004622WA0156401615003000004000
B1729523731698N08004594WA0156701616003000004000
B1729533731703N08004565WA0156801618003000004000
B1729543731709N08004537WA0157201621003000004000
B1729553731715N08004509WA0157501623003000004000
B1729563731721N08004481WA0157901626003000004000
B1729573731727N08004453WA0158101630003000004000
B1729583731732N08004426WA0158401633003000004000
B1729593731738N08004398WA0158701636003000004000
B1730003731743N08004371WA0158701639003000004000
F173000052410151344291827235146
B1730013731748N08004344WA0158701640003000004000
B1730023731752N08004317WA0158801640003000004000
B1730033731756N08004290WA0158701639003000004000
B1730043731760N08004263WA0158701638003000004000
B1730053731764N08004236WA0159001638003000004000
B1730063731769N08004210WA0158701638003000004000
B1730073731776N08004184WA0158501638003000004000
B1730083731785N08004160WA0158701638003000004000
B1730093731797N08004137WA0158801638003000004000
B1730103731811N08004117WA0158601639003000004000
B1730113731826N08004100WA0158601639003000004000
B1730123731844N08004086WA0158301638003000004000
B1730133731862N08004074WA0158001635003000004000
B1730143731882N08004064WA0157601632003000004000
B1730153731902N08004057WA0157301629003000004000
B1730163731923N08004052WA0156701625003000004000
B1730173731944N08004047WA0156401621003000004000
B1730183731966N08004045WA0156201617003002004000
B1730193731987N08004044WA0155901614003004004000
B1730203732009N08004044WA0155801612003002004000
B1730213732030N08004046WA0155401610003002004000
B1730223732052N08004048WA0154901606003000004000
B1730233732073N08004052WA0154401602003000004000
B1730243732095N08004056WA0154001597003000004000
B1730253732116N08004062WA0153601593003000004000
B1730263732138N08004067WA0153201589003000004000
B1730273732160N08004073WA0152801585003000004000
B1730283732182N08004080WA0152401581003000004000
B1730293732204N08004087WA0152101577003000004000
B1730303732226N08004095WA0151701574003000004000
B1730313732249N08004103WA0151301570003000004000
B1730323732271N08004110WA0151001567003000004000
B1730333732294N08004117WA0151001565003000004000
B1730343732317N08004123WA0150901564003000004000
B1730353732340N08004128WA0150801562003000004000
B1730363732363N08004134WA0150601561003000004000
B1730373732386N08004138WA0150601560003000004000
B1730383732409N08004141WA0150501559003000004000
B1730393732432N08004145WA0150101558003000004000
B1730403732456N08004147WA0150201557003000004000
B1730413732479N08004150WA0150101555003000004000
B1730423732502N08004152WA0150101555003000004000
B1730433732524N08004153WA0150201555003000004000
B1730443732547N08004154WA0150101554003000004000
B1730453732569N08004155WA0150101554003000004000
B1730463732592N08004156WA0150201554003000004000
B1730473732614N08004156WA0150201554003000004000
B1730483732636N08004157WA0150201555003000004000
B1730493732657N08004157WA0150201555003000004000
B1730503732679N08004157WA0150201555003000004000
B1730513732700N08004156WA0150201554003000004000
B1730523732721N08004156WA0150101553003000004000
B1730533732742N08004154WA0150001553003000004000
B1730543732764N08004153WA0149901553003000004000
B1730553732785N08004151WA0149801552003000004000
B1730563732805N08004150WA0150001551003000004000
B1730573732826N08004148WA0149801551003000004000
B1730583732847N08004146WA0149801551003002004000
B1730593732868N08004145WA0149901551003006004000
B1731003732888N08004143WA0149801551003006004000
B1731013732908N08004142WA0149701550003004004000
B1731023732928N08004141WA0149501549003002004000
B1731033732948N08004140WA0149401547003000004000
B1731043732969N08004139WA0149201546003000004000
B1731053732989N08004139WA0149201544003002004000
B1731063733009N08004140WA0149201543003004004000
B1731073733029N08004142WA0149501544003011004000
B1731083733049N08004145WA0149501546003013004000
B1731093733069N08004149WA0149701548003015004000
B1731103733088N08004156WA0149801549003013004000
B1731113733106N08004165WA0150101551003006004000
B1731123733123N08004175WA0150401553003009004000
B1731133733139N08004187WA0150801556003011004000
B1731143733154N08004200WA0150901560003018004000
B1731153733168N08004214WA0150901562003020004000
B1731163733182N08004230WA0151001563003018004000
B1731173733193N08004248WA0151301563003013004000
B1731183733202N08004267WA0151401565003009004000
B1731193733210N08004286WA0151501566003006004000
B1731203733216N08004306WA0151401566003002004000
B1731213733220N08004327WA0151501566003000004000
B1731223733224N08004347WA0151601567003000004000
B1731233733226N08004368WA0151601567003000004000
F1731230524101513291827235146
B1731243733226N08004388WA0151401567003000004000
B1731253733224N08004409WA0151301565003000004000
B1731263733221N08004429WA0151101564003000004000
B1731273733216N08004449WA0151101562003004004000
B1731283733210N08004469WA0150901560003020004000
B1731293733203N08004488WA0150601558003041004000
B1731303733195N08004508WA0150201555003060004000
B1731313733186N08004527WA0149901551003067004000
B1731323733176N08004546WA0149501548003067004000
B1731333733165N08004565WA0149201545003062004000
B1731343733154N08004585WA0148901542003053004000
B1731353733142N08004604WA0148401538003050004000
B1731363733129N08004623WA0148101534003050004000
B1731373733116N08004643WA0147901532003050004000
B1731383733102N08004663WA0147501529003048004000
B1731393733088N08004682WA0147101526003043004000
B1731403733074N08004702WA0146701522003036004000
B1731413733059N08004722WA0146401518003022004000
B1731423733044N08004741WA0146001514003018004000
B1731433733029N08004761WA0145901511003013004000
B1731443733014N08004781WA0146001510003016004000
B1731453732998N08004801WA0146101511003022004000
B1731463732983N08004821WA0146401513003025004000
B1731473732968N08004840WA0146401515003027004000
B1731483732953N08004860WA0146401516003020004000
B1731493732939N08004879WA0146401516003018004000
B1731503732924N08004898WA0146301516003015004000
B1731513732910N08004918WA0146301515003011004000
B1731523732896N08004938WA0146001514003011004000
B1731533732883N08004958WA0145901513003009004000
B1731543732869N08004978WA0145801512003009004000
B1731553732856N08004999WA0145601510003013004000
B1731563732843N08005020WA0145401508003013004000
B1731573732830N08005042WA0145201506003015004000
B1731583732817N08005063WA0144801504003018004000
B1731593732804N08005085WA0144501501003015004000
B1732003732791N08005107WA0144101497003013004000
B1732013732779N08005129WA0143901494003009004000
B1732023732766N08005152WA0143701491003004004000
B1732033732754N08005175WA0143401488003000004000
B1732043732742N08005198WA0143201486003000004000
B1732053732729N08005221WA0143101484003000004000
B1732063732717N08005244WA0143001483003000004000
B1732073732704N08005266WA0143001482003004004000
B1732083732692N08005289WA0142901482003016004000
B1732093732680N08005312WA0142801481003022004000
B1732103732669N08005334WA0142801480003022004000
B1732113732657N08005356WA0142701479003022004000
B1732123732646N08005378WA0142701479003013004000
B1732133732635N08005400WA0142801478003011004000
B1732143732624N08005422WA0142701478003004004000
B1732153732613N08005444WA0142501478003000004000
B1732163732602N08005465WA0142401476003000004000
B1732173732592N08005486WA0142301475003000004000
B1732183732581N08005508WA0142101474003000004000
B1732193732571N08005529WA0141901472003000004000
B1732203732560N08005550WA0141701470003000004000
B1732213732550N08005571WA0141501467003000004000
B1732223732540N08005593WA0141301465003000004000
B1732233732530N08005614WA0141201463003000004000
B1732243732519N08005635WA0140801461003000004000
B1732253732509N08005656WA0140701460003000004000
B1732263732498N08005677WA0140601458003000004000
B1732273732487N08005698WA0140601457003002004000
B1732283732477N08005719WA0140301455003002004000
B1732293732466N08005740WA0140101454003000004000
B1732303732455N08005761WA0140101453003000004000
B1732313732444N08005782WA0140001452003000004000
B1732323732434N08005802WA0139901450003000004000
B1732333732423N08005823WA0139801449003000004000
B1732343732412N08005843WA0139501447003000004000
B1732353732401N08005863WA0139601446003000004000
B1732363732390N08005883WA0139601445003000004000
B1732373732379N08005904WA0139601445003000004000
B1732383732368N08005924WA0139601446003000004000
B1732393732357N08005944WA0139701446003000004000
B1732403732346N08005964WA0139501445003002004000
B1732413732335N08005983WA0139501445003009004000
B1732423732324N08006003WA0139601444003015004000
B1732433732313N08006023WA0139601445003022004000
B1732443732302N08006042WA0139501445003024004000
B1732453732291N08006061WA0139501444003024004000
B1732463732280N08006081WA0139401444003018004000
B1732473732270N08006100WA0139401443003011004000
B1732483732259N08006119WA0139401443003004004000
B1732493732248N08006139WA0139301443003000004000
B1732503732237N08006158WA0139401443003000004000
B1732513732226N08006177WA0139301443003000004000
B1732523732215N08006196WA0139201443003000004000
B1732533732204N08006215WA0139201442003000004000
B1732543732194N08006235WA0139301442003000004000
B1732553732184N08006255WA0139301442003002004000
B1732563732174N08006275WA0139101442003004004000
B1732573732164N08006295WA0139101441003006004000
B1732583732154N08006315WA0139201441003002004000
B1732593732145N08006336WA0139201440003000004000
B1733003732136N08006357WA0139001440003000004000
B1733013732127N08006378WA0139201441003002004000
B1733023732118N08006400WA0139101441003002004000
B1733033732110N08006422WA0139201441003002004000
B1733043732100N08006443WA0139001440003004004000
B1733053732091N08006465WA0138901439003004004000
B1733063732082N08006486WA0138801439003006004000
B1733073732073N08006508WA0138701437003011004000
B1733083732065N08006530WA0138501436003011004000
B1733093732057N08006552WA0138301434003009004000
B1733103732050N08006574WA0138301433003006004000
B1733113732043N08006596WA0138001432003002004000
B1733123732036N08006619WA0138001430003000004000
B1733133732030N08006641WA0137801429003000004000
B1733143732024N08006664WA0137501427003000004000
B1733153732017N08006687WA0137501425003000004000
B1733163732010N08006709WA0137501424003000004000
B1733173732002N08006732WA0137501423003000004000
B1733183731993N08006754WA0137201422003000004000
B1733193731984N08006775WA0137101421003000004000
B1733203731973N08006797WA0137101419003000004000
B1733213731962N08006818WA0136701418003000004000
B1733223731951N08006839WA0136501416003000004000
B1733233731939N08006860WA0136401414003000004000
B1733243731927N08006881WA0136401413003000004000
B1733253731914N08006901WA0136401413003000004000
B1733263731901N08006922WA0136401412003000004000
B1733273731887N08006942WA0136201412003002004000
B1733283731873N08006962WA0136101411003009004000
B1733293731859N08006982WA0135901410003011004000
B1733303731846N08007002WA0135601408003011004000
B1733313731832N08007022WA0135501405003013004000
B1733323731819N08007042WA0135301403003011004000
B1733333731806N08007062WA0135301401003013004000
B1733343731793N08007083WA0135401401003013004000
B1733353731780N08007103WA0135401401003009004000
B1733363731768N08007124WA0135301402003006004000
B1733373731756N08007144WA0135101401003000004000
B1733383731744N08007164WA0134901400003000004000
B1733393731732N08007184WA0134901399003000004000
B1733403731720N08007204WA0135001398003000004000
B1733413731709N08007223WA0134601397003002004000
B1733423731697N08007243WA0134401395003002004000
B1733433731685N08007262WA0134101393003000004000
B1733443731673N08007281WA0133801389003000004000
B1733453731660N08007300WA0133201386003002004000
B1733463731647N08007319WA0133101382003002004000
B1733473731634N08007337WA0132601378003002004000
B1733483731620N08007356WA0132301375003002004000
B1733493731606N08007374WA0132101372003000004000
B1733503731591N08007392WA0132001370003000004000
B1733513731576N08007410WA0131801369003000004000
B1733523731561N08007427WA0131401367003000004000
B1733533731546N08007445WA0131201364003000004000
B1733543731530N08007463WA0130901361003000004000
B1733553731515N08007480WA0130801359003000004000
B1733563731500N08007498WA0130901358003000004000
B1733573731485N08007516WA0130701357003000004000
B1733583731470N08007534WA0130601356003000004000
B1733593731456N08007553WA0130301355003000004000
B1734003731442N08007571WA0130001353003000004000
B1734013731428N08007590WA0130001351003000004000
B1734023731415N08007609WA0129801349003000004000
B1734033731401N08007627WA0129501347003000004000
B1734043731388N08007646WA0129501345003000004000
B1734053731376N08007666WA0129501343003000004000
B1734063731367N08007687WA0129601343003000004000
B1734073731361N08007709WA0129801344003002004000
B1734083731360N08007731WA0129901346003006004000
B1734093731361N08007752WA0130101348003011004000
B1734103731367N08007772WA0130101349003015004000
B1734113731376N08007789WA0130001349003020004000
B1734123731388N08007802WA0129901349003022004000
B1734133731403N08007812WA0129701348003020004000
B1734143731419N08007818WA0129501346003013004000
B1734153731437N08007820WA0129001342003011004000
B1734163731455N08007818WA0128701338003011004000
B1734173731474N08007815WA0128401335003011004000
B1734183731493N08007809WA0128101331003011004000
B1734193731512N08007801WA0127801328003016004000
B1734203731531N08007791WA0127501325003027004000
B1734213731550N08007780WA0127201322003046004000
B1734223731569N08007768WA0126801319003069004000
B1734233731588N08007755WA0126601315003088004000
B1734243731607N08007741WA0126201312003093004000
B1734253731626N08007727WA0126001309003088004000
B1734263731645N08007713WA0125701306003081004000
B1734273731664N08007698WA0125601304003065004000
B1734283731683N08007684WA0125401302003060004000
B1734293731702N08007669WA0125201300003060004000
B1734303731721N08007653WA0124901298003060004000
B1734313731739N08007637WA0124901296003058004000
B1734323731758N08007621WA0124701294003051004000
B1734333731776N08007604WA0124701293003044004000
B1734343731795N08007586WA0124701293003034004000
B1734353731813N08007569WA0124601293003032004000
B1734363731832N08007551WA0124801293003027004000
B1734373731851N08007534WA0124801294003022004000
B1734383731869N08007516WA0125001295003018004000
B1734393731888N08007499WA0125101296003013004000
B1734403731907N08007483WA0125101296003011004000
B1734413731927N08007469WA0125401298003011004000
B1734423731947N08007460WA0125701300003011004000
B1734433731968N08007458WA0126401304003015004000
B1734443731987N08007462WA0127001310003020004000
B1734453732002N08007473WA0127601317003020004000
B1734463732014N08007488WA0128001322003020004000
B1734473732021N08007506WA0128501328003013004000
B1734483732023N08007526WA0128901332003006004000
B1734493732021N08007546WA0129001336003002004000
B1734503732014N08007565WA0129401338003000004000
B1734513732003N08007581WA0129401340003000004000
B1734523731989N08007594WA0129501341003000004000
F17345205241015132918272351
B1734533731972N08007602WA0129701342003000004000
B1734543731953N08007605WA0130001344003000004000
B1734553731934N08007602WA0130001345003000004000
B1734563731915N08007594WA0130101346003002004000
B1734573731897N08007580WA0130301347003009004000
B1734583731881N08007563WA0130501348003018004000
B1734593731867N08007541WA0130701350003029004000
B1735003731858N08007516WA0130901352003041004000
B1735013731853N08007490WA0131001355003053004000
B1735023731850N08007464WA0131001357003062004000
B1735033731852N08007437WA0131001358003076004000
B1735043731856N08007412WA0131001358003083004000
B1735053731864N08007389WA0131101358003083004000
B1735063731876N08007368WA0130901358003074004000
B1735073731889N08007351WA0130901358003058004000
B1735083731905N08007338WA0131001357003046004000
B1735093731922N08007329WA0131401358003041004000
B1735103731939N08007327WA0131901361003041004000
B1735113731956N08007330WA0132001365003039004000
B1735123731969N08007338WA0132101367003032004000
B1735133731980N08007350WA0132501370003020004000
B1735143731987N08007365WA0133001374003013004000
B1735153731990N08007383WA0133201377003006004000
B1735163731989N08007401WA0133301380003002004000
B1735173731984N08007419WA0133301381003000004000
B1735183731975N08007435WA0133401382003000004000
B1735193731963N08007449WA0133301381003000004000
B1735203731947N08007459WA0133301381003000004000
B1735213731929N08007464WA0133601381003000004000
B1735223731911N08007464WA0133601382003000004000
B1735233731891N08007457WA0133601382003000004000
B1735243731873N08007446WA0133801383003000004000
B1735253731856N08007429WA0134001385003000004000
B1735263731842N08007409WA0134001386003002004000
B1735273731830N08007385WA0134001387003016004000
B1735283731822N08007359WA0133901387003036004000
B1735293731817N08007332WA0133901387003062004000
B1735303731815N08007304WA0133801387003081004000
B1735313731816N08007276WA0133401385003095004000
B1735323731819N08007248WA0133201383003095004000
B1735333731825N08007221WA0133001381003083004000
B1735343731833N08007194WA0133301381003067004000
B1735353731844N08007169WA0133401382003048004000
B1735363731857N08007147WA0133901385003036004000
B1735373731873N08007129WA0134201389003029004000
B1735383731890N08007116WA0134601393003022004000
B1735393731908N08007109WA0135201397003018004000
B1735403731926N08007109WA0135401402003011004000
B1735413731942N08007114WA0135801406003002004000
B1735423731955N08007126WA0136201410003000004000
B1735433731963N08007143WA0136501413003000005000
B1735443731965N08007161WA0136801416003002005000
F17354446052415132918272351
B1735453731962N08007180WA0137001419003006005000
B1735463731954N08007198WA0137401422003006004000
F1735464605241015132918272351
B1735473731942N08007212WA0137601424003004004000
F17354705241015132918272351
B1735483731927N08007222WA0137401424003000004000
F173548052410151329182351
B1735493731909N08007228WA0137501424003004004000
B1735503731889N08007227WA0137301423003016004000
B1735513731870N08007221WA0137101422003027004000
B1735523731851N08007208WA0137001421003036004000
F17355205241015132918272351
B1735533731834N08007191WA0137001420003039004000
B1735543731819N08007169WA0136801419003037004000
B1735553731806N08007145WA0136901419003044004000
B1735563731798N08007118WA0136901419003055004000
B1735573731793N08007090WA0136901419003065004000
B1735583731792N08007061WA0137001421003067004000
B1735593731794N08007033WA0137301422003060004000
B1736003731801N08007007WA0137601425003048004000
B1736013731811N08006984WA0137801428003039004000
B1736023731823N08006963WA0137901430003041004000
B1736033731836N08006944WA0138201431003048004000
B1736043731852N08006929WA0138201432003053004000
B1736053731868N08006917WA0138401434003053004000
B1736063731886N08006909WA0138701436003046004000
B1736073731904N08006905WA0138701438003036004000
B1736083731922N08006903WA0138801439003029004000
B1736093731940N08006903WA0138801439003024004000
B1736103731958N08006906WA0138801440003024004000
B1736113731975N08006912WA0139001440003020004000
B1736123731991N08006919WA0139201442003015004000
B1736133732006N08006930WA0139501444003011004000
B1736143732019N08006944WA0139901447003004004000
B1736153732029N08006960WA0140201450003002004000
B1736163732034N08006979WA0140401452003002004000
B1736173732035N08006998WA0140701455003004004000
B1736183732032N08007018WA0140901457003004004000
B1736193732024N08007036WA0140901459003002005000
B1736203732011N08007050WA0141201460003000004000
B1736213731996N08007060WA0141201461003000004000
B1736223731978N08007064WA0141301461003007004000
B1736233731959N08007063WA0141301461003018004000
B1736243731939N08007055WA0141401462003030004000
B1736253731921N08007044WA0141401462003039005000
B1736263731903N08007027WA0141401463003034005000
B1736273731888N08007006WA0141601464003029005000
B1736283731876N08006981WA0141501465003025005000
B1736293731868N08006953WA0141901467003018005000
B1736303731865N08006925WA0142101469003015005000
B1736313731866N08006897WA0142201472003011004000
B1736323731873N08006871WA0142701476003006004000
B1736333731884N08006848WA0143201481003000004000
B1736343731898N08006831WA0143401484003000004000
B1736353731915N08006819WA0143501487003000004000
B1736363731933N08006812WA0143701489003000004000
B1736373731950N08006811WA0143801490003000004000
B1736383731967N08006817WA0143901491003000004000
B1736393731980N08006828WA0144101492003000005000
B1736403731989N08006844WA0144501495003000005000
B1736413731994N08006862WA0144701498003000005000
B1736423731992N08006881WA0145401501003000005000
B1736433731986N08006899WA0145901506003000005000
B1736443731975N08006913WA0146301511003000005000
F173644052410151329182351
B1736453731962N08006922WA0146501514003000005000
B1736463731946N08006926WA0146601516003000005000
B1736473731929N08006924WA0146601517003000005000
B1736483731911N08006915WA0146501517003000005000
B1736493731895N08006901WA0146401516003000005000
B1736503731882N08006881WA0146201514003000005000
F17365005241015132918272351
B1736513731872N08006857WA0146001513003000005000
B1736523731867N08006830WA0146001512003018005000
B1736533731867N08006801WA0146201512003032005000
B1736543731871N08006773WA0146401514003038005000
B1736553731880N08006747WA0146501516003036005000
B1736563731891N08006724WA0146701518003025005000
B1736573731906N08006704WA0146901520003015005000
B1736583731923N08006688WA0147101522003009005000
B1736593731941N08006677WA0146901524003011005000
B1737003731960N08006670WA0147001524003018005000
B1737013731980N08006668WA0147001524003032005000
B1737023731998N08006672WA0147301524003053005000
B1737033732014N08006681WA0147501526003069005000
B1737043732026N08006695WA0147901529003083005000
B1737053732036N08006712WA0148201532003086005000
B1737063732042N08006730WA0148401535003081005000
B1737073732044N08006748WA0148601537003074005000
B1737083732043N08006767WA0148401538003062005000
B1737093732039N08006786WA0148501538003057005000
B1737103732032N08006803WA0148501537003057005000
B1737113732022N08006818WA0148401536003050005000
B1737123732009N08006832WA0148201535003048005000
B1737133731995N08006843WA0148101533003048005000
B1737143731978N08006851WA0147801531003048005000
B1737153731960N08006856WA0147701529003057005000
B1737163731941N08006858WA0147401528003067005000
B1737173731920N08006856WA0147501527003069005000
B1737183731900N08006851WA0147501527003069005000
B1737193731879N08006842WA0147701528003069005000
B1737203731859N08006829WA0147901529003069005000
B1737213731840N08006814WA0148101531003076005000
B1737223731823N08006796WA0148001533003081005000
B1737233731807N08006775WA0148101535003083005000
B1737243731793N08006752WA0148401536003086005000
B1737253731781N08006727WA0148501538003079005000
B1737263731771N08006702WA0148801541003069005000
B1737273731762N08006675WA0149001543003055005000
B1737283731755N08006648WA0149301546003039005000
B1737293731750N08006620WA0149801549003025005000
B1737303731747N08006593WA0150101553003013005000
B1737313731745N08006566WA0150101555003006005000
B1737323731745N08006539WA0150101556003000005000
B1737333731746N08006512WA0150201556003000005000
B1737343731750N08006485WA0150101557003004005000
B1737353731755N08006459WA0150201557003009005000
B1737363731763N08006435WA0150301557003015005000
B1737373731772N08006411WA0150601558003015005000
B1737383731783N08006390WA0151201561003011005000
B1737393731795N08006370WA0151501565003006005000
B1737403731808N08006351WA0151901569003000005000
B1737413731822N08006333WA0152101572003000005000
B1737423731837N08006316WA0152301575003000005000
B1737433731852N08006300WA0152201576003000005000
B1737443731868N08006285WA0152401577003000005000
B1737453731884N08006271WA0152501578003000005000
B1737463731901N08006258WA0152701579003000005000
B1737473731919N08006247WA0153001581003000005000
B1737483731937N08006238WA0153201583003000005000
B1737493731956N08006234WA0153501586003000005000
B1737503731975N08006233WA0153801589003000005000
B1737513731994N08006237WA0154401593003000005000
B1737523732011N08006245WA0155001597003000005000
B1737533732025N08006257WA0155601603003000005000
B1737543732036N08006273WA0155901608003000005000
B1737553732044N08006291WA0156201612003000005000
B1737563732048N08006310WA0156601616003000005000
B1737573732049N08006329WA0156801619003000005000
B1737583732046N08006347WA0157101622003004005000
B1737593732039N08006363WA0157301623003025005000
B1738003732030N08006376WA0157401624003044005000
B1738013732017N08006387WA0157001624003060005000
B1738023732003N08006395WA0156801622003074005000
B1738033731987N08006399WA0156401619003083005000
B1738043731969N08006398WA0156101615003088005000
B1738053731951N08006393WA0155801612003083005000
B1738063731932N08006383WA0155801610003071005000
B1738073731915N08006368WA0155701608003057005000
B1738083731899N08006349WA0155701608003048005000
B1738093731885N08006327WA0156001609003043005000
B1738103731874N08006301WA0156201612003039005000
B1738113731866N08006274WA0156701616003029005000
B1738123731862N08006246WA0156801619003018005000
B1738133731862N08006217WA0157401624003009005000
B1738143731867N08006190WA0157901628003002005000
B1738153731875N08006164WA0158001632003006005000
B1738163731887N08006142WA0158301635003013005000
B1738173731901N08006123WA0158301637003018005000
B1738183731918N08006108WA0158401639003018005000
B1738193731937N08006098WA0158501640003013005000
B1738203731957N08006095WA0158701641003011005000
B1738213731976N08006097WA0159001642003013005000
B1738223731993N08006106WA0159401645003018005000
B1738233732007N08006119WA0159901650003020005000
B1738243732017N08006137WA0160201654003015005000
B1738253732023N08006157WA0160501657003009005000
B1738263732025N08006177WA0160501659003002005000
B1738273732023N08006198WA0160301659003000005000
B1738283732017N08006217WA0160101658003000005000
B1738293732008N08006235WA0159901656003004005000
B1738303731995N08006251WA0159801654003020005000
F1738304405241015132918272351
B1738313731980N08006263WA0159501652003039005000
B1738323731962N08006272WA0159501650003053005000
B1738333731943N08006278WA0159101647003064005000
B1738343731922N08006280WA0159001645003069005000
B1738353731901N08006278WA0159101644003071005000
B1738363731880N08006273WA0159601645003069005000
B1738373731859N08006262WA0159901649003060005000
B1738383731840N08006248WA0160201652003048005000
B1738393731821N08006232WA0160601656003034005000
B1738403731804N08006213WA0160601659003022005000
B1738413731789N08006193WA0160901662003015005000
B1738423731774N08006170WA0161301665003009005000
B1738433731762N08006146WA0161401667003004005000
B1738443731752N08006120WA0161601669003000005000
B1738453731744N08006093WA0161701671003000005000
B1738463731737N08006066WA0161901673003000005000
B1738473731733N08006037WA0162201675003000005000
B1738483731730N08006009WA0162601678003000005000
B1738493731728N08005981WA0162701681003000005000
B1738503731727N08005952WA0162801683003000005000
B1738513731729N08005924WA0163001683003000005000
B1738523731732N08005897WA0162901683003004005000
B1738533731736N08005869WA0162901683003011005000
B1738543731743N08005843WA0162601683003022005000
B1738553731750N08005817WA0162701682003029005000
B1738563731758N08005791WA0162401680003043005000
B1738573731767N08005766WA0162401679003060005000
B1738583731777N08005740WA0162301678003072005000
B1738593731787N08005715WA0162301677003081005000
B1739003731798N08005691WA0162301677003081005000
B1739013731810N08005667WA0162401677003086005000
B1739023731822N08005643WA0162501678003088005000
B1739033731834N08005619WA0162501678003085005000
B1739043731846N08005595WA0162601678003081005000
B1739053731859N08005572WA0162701679003064005000
B1739063731871N08005548WA0162701680003050005000
B1739073731884N08005525WA0162701680003039005000
B1739083731897N08005501WA0162601680003029005000
B1739093731909N08005478WA0162601679003027005000
B1739103731922N08005455WA0162501679003027005000
B1739113731935N08005432WA0162501678003027005000
B1739123731948N08005409WA0162301677003025005000
B1739133731962N08005387WA0162201676003018005000
B1739143731975N08005365WA0162001674003009005000
B1739153731989N08005343WA0162001672003004005000
B1739163732003N08005322WA0161801671003006005000
B1739173732018N08005301WA0161701670003009005000
B1739183732032N08005279WA0161501668003009005000
B1739193732046N08005258WA0161301667003006005000
B1739203732060N08005237WA0161101664003000005000
B1739213732073N08005215WA0160901662003000005000
B1739223732087N08005193WA0160601659003000005000
B1739233732100N08005171WA0160401657003000005000
B1739243732114N08005149WA0160201654003000005000
B1739253732127N08005127WA0159901651003006005000
B1739263732141N08005105WA0159701649003013005000
B1739273732155N08005083WA0159501647003015005000
B1739283732169N08005061WA0159101644003013005000
B1739293732183N08005039WA0158801641003009005000
B1739303732198N08005017WA0158701638003002005000
B1739313732213N08004996WA0158401636003000005000
B1739323732229N08004976WA0158101633003000005000
B1739333732245N08004956WA0157901631003000005000
B1739343732261N08004936WA0157601628003000005000
B1739353732277N08004917WA0157401626003000005000
B1739363732294N08004897WA0157201624003000005000
B1739373732310N08004877WA0157101622003000005000
B1739383732327N08004857WA0156801620003000005000
B1739393732344N08004838WA0156601618003000005000
B1739403732361N08004818WA0156501617003000005000
B1739413732378N08004799WA0156501615003000005000
B1739423732396N08004780WA0156501614003000005000
B1739433732413N08004761WA0156501615003000005000
B1739443732430N08004743WA0156501615003000005000
B1739453732448N08004725WA0156601615003000005000
B1739463732465N08004706WA0156501616003000005000
B1739473732482N08004688WA0156401615003000005000
B1739483732499N08004670WA0156401615003000005000
B1739493732516N08004652WA0156301614003000005000
B1739503732533N08004635WA0156301613003000005000
B1739513732551N08004617WA0156301613003002005000
B1739523732568N08004599WA0156201613003002005000
B1739533732585N08004582WA0156201612003000005000
B1739543732602N08004565WA0156001610003000005000
B1739553732620N08004548WA0155901609003000005000
B1739563732637N08004531WA0155801608003000005000
B1739573732656N08004515WA0155801608003000005000
B1739583732674N08004500WA0155601607003000005000
B1739593732692N08004484WA0155401605003000005000
B1740003732710N08004469WA0155201603003000005000
B1740013732728N08004453WA0155101601003000005000
B1740023732746N08004437WA0154901600003000005000
B1740033732764N08004420WA0154701599003000005000
B1740043732781N08004403WA0154801597003000005000
B1740053732799N08004386WA0154701597003000005000
B1740063732816N08004368WA0154701596003000005000
B1740073732833N08004349WA0154801596003000005000
B1740083732849N08004330WA0154801596003000005000
B1740093732865N08004311WA0154801597003000005000
B1740103732881N08004291WA0155101598003000005000
B1740113732897N08004270WA0155101599003000005000
B1740123732912N08004250WA0155301600003000005000
B1740133732927N08004230WA0155401602003000005000
B1740143732942N08004211WA0155601604003002005000
B1740153732957N08004192WA0155401604003004005000
B1740163732973N08004173WA0155401604003004005000
B1740173732988N08004154WA0155301602003004005000
B1740183733003N08004134WA0155001601003000005000
B1740193733019N08004115WA0155101600003000005000
B1740203733035N08004097WA0154801599003000005000
B1740213733052N08004080WA0154701597003000005000
B1740223733070N08004065WA0154601596003000005000
B1740233733088N08004051WA0154501594003000005000
B1740243733107N08004037WA0154201593003000005000
B1740253733126N08004023WA0153901591003000005000
B1740263733144N08004008WA0153801589003000005000
B1740273733161N08003990WA0153901588003000005000
B1740283733177N08003971WA0153801588003000005000
B1740293733191N08003950WA0153501587003000005000
B1740303733204N08003927WA0153401585003000005000
B1740313733216N08003903WA0153301583003000005000
B1740323733226N08003877WA0153001581003000005000
B1740333733235N08003850WA0152901579003000005000
B1740343733242N08003822WA0152601576003000005000
B1740353733248N08003793WA0152201573003000005000
B1740363733254N08003763WA0151701570003000005000
B1740373733257N08003732WA0151401565003000005000
B1740383733260N08003701WA0151201562003000005000
B1740393733261N08003670WA0151001559003000005000
B1740403733263N08003638WA0150901557003000005000
B1740413733263N08003607WA0150701556003000005000
B1740423733263N08003575WA0150601555003000005000
B1740433733263N08003544WA0150401553003000005000
B1740443733262N08003513WA0150201551003000005000
B1740453733261N08003481WA0150101550003000005000
B1740463733260N08003450WA0149701548003000005000
B1740473733259N08003419WA0149701546003000005000
B1740483733257N08003388WA0149401543003000005000
B1740493733256N08003357WA0149101541003000005000
B1740503733254N08003326WA0149301539003000005000
B1740513733253N08003296WA0149201539003000005000
B1740523733251N08003265WA0149401539003000005000
B1740533733249N08003235WA0149601541003000005000
B1740543733247N08003205WA0149801543003000005000
B1740553733245N08003175WA0150201546003000005000
B1740563733243N08003146WA0150201548003000005000
B1740573733240N08003117WA0150701550003000005000
B1740583733237N08003088WA0150601553003000005000
B1740593733233N08003059WA0150601554003000005000
B1741003733230N08003030WA0150601554003002005000
B1741013733226N08003001WA0150701555003000005000
B1741023733222N08002971WA0151001556003000005000
B1741033733218N08002942WA0151101557003000005000
B1741043733214N08002913WA0151301559003000005000
B1741053733210N08002884WA0151301561003000005000
B1741063733206N08002856WA0151601562003000005000
B1741073733201N08002828WA0151601563003000005000
B1741083733196N08002799WA0151701565003000005000
B1741093733191N08002772WA0151601565003006005000
B1741103733186N08002744WA0151401564003018005000
B1741113733181N08002716WA0151001561003027005000
B1741123733176N08002689WA0150801559003032005000
B1741133733172N08002661WA0150301555003029005000
B1741143733168N08002632WA0150101552003018005000
B1741153733164N08002604WA0149701548003009005000
B1741163733160N08002574WA0149701545003002005000
B1741173733156N08002545WA0149301543003000005000
B1741183733152N08002516WA0149301542003000005000
B1741193733148N08002487WA0148901540003000005000
B1741203733143N08002458WA0148601537003000005000
B1741213733138N08002430WA0148401535003000005000
B1741223733133N08002402WA0148401533003000005000
B1741233733127N08002375WA0148301531003000005000
B1741243733121N08002347WA0148001530003000005000
B1741253733115N08002321WA0147701527003004005000
B1741263733110N08002294WA0147401524003011005000
B1741273733105N08002268WA0147101521003015005000
B1741283733100N08002241WA0146601518003015005000
B1741293733096N08002215WA0146501515003013005000
B1741303733092N08002188WA0146801514003011005000
B1741313733090N08002161WA0147201516003011005000
B1741323733087N08002135WA0147201518003009005000
B1741333733085N08002108WA0147401520003006005000
B1741343733083N08002082WA0147701522003004005000
B1741353733081N08002055WA0147701524003000005000
B1741363733078N08002028WA0147501525003000005000
B1741373733075N08002001WA0147401523003000005000
B1741383733070N08001974WA0147101522003002005000
B1741393733064N08001948WA0147001520003004005000
B1741403733057N08001921WA0146601518003004005000
B1741413733050N08001894WA0146401515003002005000
B1741423733041N08001868WA0146401513003000005000
B1741433733031N08001841WA0145901511003000005000
B1741443733021N08001814WA0145901508003000005000
B1741453733010N08001788WA0145901507003000005000
B1741463732999N08001762WA0145701506003000005000
B1741473732987N08001736WA0145801505003000005000
B1741483732976N08001710WA0145701506003006005000
B1741493732964N08001685WA0145501505003009005000
B1741503732953N08001659WA0145601504003013005000
B1741513732941N08001634WA0145501503003011005000
